{
	"CrossChainToken.sol": {
		"CrossChainToken": {
			"abi": [
				{
					"inputs": [
						{
							"internalType": "address",
							"name": "_lzEndpoint",
							"type": "address"
						}
					],
					"stateMutability": "nonpayable",
					"type": "constructor"
				},
				{
					"inputs": [
						{
							"internalType": "address",
							"name": "spender",
							"type": "address"
						},
						{
							"internalType": "uint256",
							"name": "allowance",
							"type": "uint256"
						},
						{
							"internalType": "uint256",
							"name": "needed",
							"type": "uint256"
						}
					],
					"name": "ERC20InsufficientAllowance",
					"type": "error"
				},
				{
					"inputs": [
						{
							"internalType": "address",
							"name": "sender",
							"type": "address"
						},
						{
							"internalType": "uint256",
							"name": "balance",
							"type": "uint256"
						},
						{
							"internalType": "uint256",
							"name": "needed",
							"type": "uint256"
						}
					],
					"name": "ERC20InsufficientBalance",
					"type": "error"
				},
				{
					"inputs": [
						{
							"internalType": "address",
							"name": "approver",
							"type": "address"
						}
					],
					"name": "ERC20InvalidApprover",
					"type": "error"
				},
				{
					"inputs": [
						{
							"internalType": "address",
							"name": "receiver",
							"type": "address"
						}
					],
					"name": "ERC20InvalidReceiver",
					"type": "error"
				},
				{
					"inputs": [
						{
							"internalType": "address",
							"name": "sender",
							"type": "address"
						}
					],
					"name": "ERC20InvalidSender",
					"type": "error"
				},
				{
					"inputs": [
						{
							"internalType": "address",
							"name": "spender",
							"type": "address"
						}
					],
					"name": "ERC20InvalidSpender",
					"type": "error"
				},
				{
					"inputs": [
						{
							"internalType": "address",
							"name": "owner",
							"type": "address"
						}
					],
					"name": "OwnableInvalidOwner",
					"type": "error"
				},
				{
					"inputs": [
						{
							"internalType": "address",
							"name": "account",
							"type": "address"
						}
					],
					"name": "OwnableUnauthorizedAccount",
					"type": "error"
				},
				{
					"anonymous": false,
					"inputs": [
						{
							"indexed": true,
							"internalType": "address",
							"name": "owner",
							"type": "address"
						},
						{
							"indexed": true,
							"internalType": "address",
							"name": "spender",
							"type": "address"
						},
						{
							"indexed": false,
							"internalType": "uint256",
							"name": "value",
							"type": "uint256"
						}
					],
					"name": "Approval",
					"type": "event"
				},
				{
					"anonymous": false,
					"inputs": [
						{
							"indexed": false,
							"internalType": "uint16",
							"name": "_srcChainId",
							"type": "uint16"
						},
						{
							"indexed": false,
							"internalType": "bytes",
							"name": "_srcAddress",
							"type": "bytes"
						},
						{
							"indexed": false,
							"internalType": "uint64",
							"name": "_nonce",
							"type": "uint64"
						},
						{
							"indexed": false,
							"internalType": "bytes",
							"name": "_payload",
							"type": "bytes"
						},
						{
							"indexed": false,
							"internalType": "bytes",
							"name": "_reason",
							"type": "bytes"
						}
					],
					"name": "MessageFailed",
					"type": "event"
				},
				{
					"anonymous": false,
					"inputs": [
						{
							"indexed": true,
							"internalType": "address",
							"name": "previousOwner",
							"type": "address"
						},
						{
							"indexed": true,
							"internalType": "address",
							"name": "newOwner",
							"type": "address"
						}
					],
					"name": "OwnershipTransferred",
					"type": "event"
				},
				{
					"anonymous": false,
					"inputs": [
						{
							"indexed": false,
							"internalType": "uint16",
							"name": "_srcChainId",
							"type": "uint16"
						},
						{
							"indexed": false,
							"internalType": "bytes",
							"name": "_srcAddress",
							"type": "bytes"
						},
						{
							"indexed": false,
							"internalType": "uint64",
							"name": "_nonce",
							"type": "uint64"
						},
						{
							"indexed": false,
							"internalType": "bytes32",
							"name": "_payloadHash",
							"type": "bytes32"
						}
					],
					"name": "RetryMessageSuccess",
					"type": "event"
				},
				{
					"anonymous": false,
					"inputs": [
						{
							"indexed": false,
							"internalType": "uint16",
							"name": "_dstChainId",
							"type": "uint16"
						},
						{
							"indexed": false,
							"internalType": "uint16",
							"name": "_type",
							"type": "uint16"
						},
						{
							"indexed": false,
							"internalType": "uint256",
							"name": "_minDstGas",
							"type": "uint256"
						}
					],
					"name": "SetMinDstGas",
					"type": "event"
				},
				{
					"anonymous": false,
					"inputs": [
						{
							"indexed": false,
							"internalType": "address",
							"name": "precrime",
							"type": "address"
						}
					],
					"name": "SetPrecrime",
					"type": "event"
				},
				{
					"anonymous": false,
					"inputs": [
						{
							"indexed": false,
							"internalType": "uint16",
							"name": "_remoteChainId",
							"type": "uint16"
						},
						{
							"indexed": false,
							"internalType": "bytes",
							"name": "_path",
							"type": "bytes"
						}
					],
					"name": "SetTrustedRemote",
					"type": "event"
				},
				{
					"anonymous": false,
					"inputs": [
						{
							"indexed": false,
							"internalType": "uint16",
							"name": "_remoteChainId",
							"type": "uint16"
						},
						{
							"indexed": false,
							"internalType": "bytes",
							"name": "_remoteAddress",
							"type": "bytes"
						}
					],
					"name": "SetTrustedRemoteAddress",
					"type": "event"
				},
				{
					"anonymous": false,
					"inputs": [
						{
							"indexed": true,
							"internalType": "address",
							"name": "from",
							"type": "address"
						},
						{
							"indexed": true,
							"internalType": "address",
							"name": "to",
							"type": "address"
						},
						{
							"indexed": false,
							"internalType": "uint256",
							"name": "value",
							"type": "uint256"
						}
					],
					"name": "Transfer",
					"type": "event"
				},
				{
					"inputs": [],
					"name": "DEFAULT_PAYLOAD_SIZE_LIMIT",
					"outputs": [
						{
							"internalType": "uint256",
							"name": "",
							"type": "uint256"
						}
					],
					"stateMutability": "view",
					"type": "function"
				},
				{
					"inputs": [
						{
							"internalType": "address",
							"name": "owner",
							"type": "address"
						},
						{
							"internalType": "address",
							"name": "spender",
							"type": "address"
						}
					],
					"name": "allowance",
					"outputs": [
						{
							"internalType": "uint256",
							"name": "",
							"type": "uint256"
						}
					],
					"stateMutability": "view",
					"type": "function"
				},
				{
					"inputs": [
						{
							"internalType": "address",
							"name": "spender",
							"type": "address"
						},
						{
							"internalType": "uint256",
							"name": "value",
							"type": "uint256"
						}
					],
					"name": "approve",
					"outputs": [
						{
							"internalType": "bool",
							"name": "",
							"type": "bool"
						}
					],
					"stateMutability": "nonpayable",
					"type": "function"
				},
				{
					"inputs": [
						{
							"internalType": "address",
							"name": "account",
							"type": "address"
						}
					],
					"name": "balanceOf",
					"outputs": [
						{
							"internalType": "uint256",
							"name": "",
							"type": "uint256"
						}
					],
					"stateMutability": "view",
					"type": "function"
				},
				{
					"inputs": [
						{
							"internalType": "uint256",
							"name": "_amount",
							"type": "uint256"
						}
					],
					"name": "bridge",
					"outputs": [],
					"stateMutability": "payable",
					"type": "function"
				},
				{
					"inputs": [],
					"name": "decimals",
					"outputs": [
						{
							"internalType": "uint8",
							"name": "",
							"type": "uint8"
						}
					],
					"stateMutability": "view",
					"type": "function"
				},
				{
					"inputs": [
						{
							"internalType": "uint16",
							"name": "",
							"type": "uint16"
						},
						{
							"internalType": "bytes",
							"name": "",
							"type": "bytes"
						},
						{
							"internalType": "uint64",
							"name": "",
							"type": "uint64"
						}
					],
					"name": "failedMessages",
					"outputs": [
						{
							"internalType": "bytes32",
							"name": "",
							"type": "bytes32"
						}
					],
					"stateMutability": "view",
					"type": "function"
				},
				{
					"inputs": [
						{
							"internalType": "uint16",
							"name": "_srcChainId",
							"type": "uint16"
						},
						{
							"internalType": "bytes",
							"name": "_srcAddress",
							"type": "bytes"
						}
					],
					"name": "forceResumeReceive",
					"outputs": [],
					"stateMutability": "nonpayable",
					"type": "function"
				},
				{
					"inputs": [
						{
							"internalType": "uint16",
							"name": "_version",
							"type": "uint16"
						},
						{
							"internalType": "uint16",
							"name": "_chainId",
							"type": "uint16"
						},
						{
							"internalType": "address",
							"name": "",
							"type": "address"
						},
						{
							"internalType": "uint256",
							"name": "_configType",
							"type": "uint256"
						}
					],
					"name": "getConfig",
					"outputs": [
						{
							"internalType": "bytes",
							"name": "",
							"type": "bytes"
						}
					],
					"stateMutability": "view",
					"type": "function"
				},
				{
					"inputs": [
						{
							"internalType": "uint16",
							"name": "_remoteChainId",
							"type": "uint16"
						}
					],
					"name": "getTrustedRemoteAddress",
					"outputs": [
						{
							"internalType": "bytes",
							"name": "",
							"type": "bytes"
						}
					],
					"stateMutability": "view",
					"type": "function"
				},
				{
					"inputs": [
						{
							"internalType": "uint16",
							"name": "_srcChainId",
							"type": "uint16"
						},
						{
							"internalType": "bytes",
							"name": "_srcAddress",
							"type": "bytes"
						}
					],
					"name": "isTrustedRemote",
					"outputs": [
						{
							"internalType": "bool",
							"name": "",
							"type": "bool"
						}
					],
					"stateMutability": "view",
					"type": "function"
				},
				{
					"inputs": [],
					"name": "lzEndpoint",
					"outputs": [
						{
							"internalType": "contract ILayerZeroEndpoint",
							"name": "",
							"type": "address"
						}
					],
					"stateMutability": "view",
					"type": "function"
				},
				{
					"inputs": [
						{
							"internalType": "uint16",
							"name": "_srcChainId",
							"type": "uint16"
						},
						{
							"internalType": "bytes",
							"name": "_srcAddress",
							"type": "bytes"
						},
						{
							"internalType": "uint64",
							"name": "_nonce",
							"type": "uint64"
						},
						{
							"internalType": "bytes",
							"name": "_payload",
							"type": "bytes"
						}
					],
					"name": "lzReceive",
					"outputs": [],
					"stateMutability": "nonpayable",
					"type": "function"
				},
				{
					"inputs": [
						{
							"internalType": "uint16",
							"name": "",
							"type": "uint16"
						},
						{
							"internalType": "uint16",
							"name": "",
							"type": "uint16"
						}
					],
					"name": "minDstGasLookup",
					"outputs": [
						{
							"internalType": "uint256",
							"name": "",
							"type": "uint256"
						}
					],
					"stateMutability": "view",
					"type": "function"
				},
				{
					"inputs": [],
					"name": "name",
					"outputs": [
						{
							"internalType": "string",
							"name": "",
							"type": "string"
						}
					],
					"stateMutability": "view",
					"type": "function"
				},
				{
					"inputs": [
						{
							"internalType": "uint16",
							"name": "_srcChainId",
							"type": "uint16"
						},
						{
							"internalType": "bytes",
							"name": "_srcAddress",
							"type": "bytes"
						},
						{
							"internalType": "uint64",
							"name": "_nonce",
							"type": "uint64"
						},
						{
							"internalType": "bytes",
							"name": "_payload",
							"type": "bytes"
						}
					],
					"name": "nonblockingLzReceive",
					"outputs": [],
					"stateMutability": "nonpayable",
					"type": "function"
				},
				{
					"inputs": [],
					"name": "owner",
					"outputs": [
						{
							"internalType": "address",
							"name": "",
							"type": "address"
						}
					],
					"stateMutability": "view",
					"type": "function"
				},
				{
					"inputs": [
						{
							"internalType": "uint16",
							"name": "",
							"type": "uint16"
						}
					],
					"name": "payloadSizeLimitLookup",
					"outputs": [
						{
							"internalType": "uint256",
							"name": "",
							"type": "uint256"
						}
					],
					"stateMutability": "view",
					"type": "function"
				},
				{
					"inputs": [],
					"name": "precrime",
					"outputs": [
						{
							"internalType": "address",
							"name": "",
							"type": "address"
						}
					],
					"stateMutability": "view",
					"type": "function"
				},
				{
					"inputs": [],
					"name": "renounceOwnership",
					"outputs": [],
					"stateMutability": "nonpayable",
					"type": "function"
				},
				{
					"inputs": [
						{
							"internalType": "uint16",
							"name": "_srcChainId",
							"type": "uint16"
						},
						{
							"internalType": "bytes",
							"name": "_srcAddress",
							"type": "bytes"
						},
						{
							"internalType": "uint64",
							"name": "_nonce",
							"type": "uint64"
						},
						{
							"internalType": "bytes",
							"name": "_payload",
							"type": "bytes"
						}
					],
					"name": "retryMessage",
					"outputs": [],
					"stateMutability": "payable",
					"type": "function"
				},
				{
					"inputs": [
						{
							"internalType": "uint16",
							"name": "_version",
							"type": "uint16"
						},
						{
							"internalType": "uint16",
							"name": "_chainId",
							"type": "uint16"
						},
						{
							"internalType": "uint256",
							"name": "_configType",
							"type": "uint256"
						},
						{
							"internalType": "bytes",
							"name": "_config",
							"type": "bytes"
						}
					],
					"name": "setConfig",
					"outputs": [],
					"stateMutability": "nonpayable",
					"type": "function"
				},
				{
					"inputs": [
						{
							"internalType": "uint16",
							"name": "_dstChainId",
							"type": "uint16"
						},
						{
							"internalType": "uint16",
							"name": "_packetType",
							"type": "uint16"
						},
						{
							"internalType": "uint256",
							"name": "_minGas",
							"type": "uint256"
						}
					],
					"name": "setMinDstGas",
					"outputs": [],
					"stateMutability": "nonpayable",
					"type": "function"
				},
				{
					"inputs": [
						{
							"internalType": "uint16",
							"name": "_dstChainId",
							"type": "uint16"
						},
						{
							"internalType": "uint256",
							"name": "_size",
							"type": "uint256"
						}
					],
					"name": "setPayloadSizeLimit",
					"outputs": [],
					"stateMutability": "nonpayable",
					"type": "function"
				},
				{
					"inputs": [
						{
							"internalType": "address",
							"name": "_precrime",
							"type": "address"
						}
					],
					"name": "setPrecrime",
					"outputs": [],
					"stateMutability": "nonpayable",
					"type": "function"
				},
				{
					"inputs": [
						{
							"internalType": "uint16",
							"name": "_version",
							"type": "uint16"
						}
					],
					"name": "setReceiveVersion",
					"outputs": [],
					"stateMutability": "nonpayable",
					"type": "function"
				},
				{
					"inputs": [
						{
							"internalType": "uint16",
							"name": "_version",
							"type": "uint16"
						}
					],
					"name": "setSendVersion",
					"outputs": [],
					"stateMutability": "nonpayable",
					"type": "function"
				},
				{
					"inputs": [
						{
							"internalType": "uint16",
							"name": "_remoteChainId",
							"type": "uint16"
						},
						{
							"internalType": "bytes",
							"name": "_path",
							"type": "bytes"
						}
					],
					"name": "setTrustedRemote",
					"outputs": [],
					"stateMutability": "nonpayable",
					"type": "function"
				},
				{
					"inputs": [
						{
							"internalType": "uint16",
							"name": "_remoteChainId",
							"type": "uint16"
						},
						{
							"internalType": "bytes",
							"name": "_remoteAddress",
							"type": "bytes"
						}
					],
					"name": "setTrustedRemoteAddress",
					"outputs": [],
					"stateMutability": "nonpayable",
					"type": "function"
				},
				{
					"inputs": [],
					"name": "symbol",
					"outputs": [
						{
							"internalType": "string",
							"name": "",
							"type": "string"
						}
					],
					"stateMutability": "view",
					"type": "function"
				},
				{
					"inputs": [],
					"name": "totalSupply",
					"outputs": [
						{
							"internalType": "uint256",
							"name": "",
							"type": "uint256"
						}
					],
					"stateMutability": "view",
					"type": "function"
				},
				{
					"inputs": [
						{
							"internalType": "address",
							"name": "to",
							"type": "address"
						},
						{
							"internalType": "uint256",
							"name": "value",
							"type": "uint256"
						}
					],
					"name": "transfer",
					"outputs": [
						{
							"internalType": "bool",
							"name": "",
							"type": "bool"
						}
					],
					"stateMutability": "nonpayable",
					"type": "function"
				},
				{
					"inputs": [
						{
							"internalType": "address",
							"name": "from",
							"type": "address"
						},
						{
							"internalType": "address",
							"name": "to",
							"type": "address"
						},
						{
							"internalType": "uint256",
							"name": "value",
							"type": "uint256"
						}
					],
					"name": "transferFrom",
					"outputs": [
						{
							"internalType": "bool",
							"name": "",
							"type": "bool"
						}
					],
					"stateMutability": "nonpayable",
					"type": "function"
				},
				{
					"inputs": [
						{
							"internalType": "address",
							"name": "newOwner",
							"type": "address"
						}
					],
					"name": "transferOwnership",
					"outputs": [],
					"stateMutability": "nonpayable",
					"type": "function"
				},
				{
					"inputs": [
						{
							"internalType": "address",
							"name": "_otherContract",
							"type": "address"
						}
					],
					"name": "trustAddress",
					"outputs": [],
					"stateMutability": "nonpayable",
					"type": "function"
				},
				{
					"inputs": [
						{
							"internalType": "uint16",
							"name": "",
							"type": "uint16"
						}
					],
					"name": "trustedRemoteLookup",
					"outputs": [
						{
							"internalType": "bytes",
							"name": "",
							"type": "bytes"
						}
					],
					"stateMutability": "view",
					"type": "function"
				}
			],
			"devdoc": {
				"errors": {
					"ERC20InsufficientAllowance(address,uint256,uint256)": [
						{
							"details": "Indicates a failure with the `spender`’s `allowance`. Used in transfers.",
							"params": {
								"allowance": "Amount of tokens a `spender` is allowed to operate with.",
								"needed": "Minimum amount required to perform a transfer.",
								"spender": "Address that may be allowed to operate on tokens without being their owner."
							}
						}
					],
					"ERC20InsufficientBalance(address,uint256,uint256)": [
						{
							"details": "Indicates an error related to the current `balance` of a `sender`. Used in transfers.",
							"params": {
								"balance": "Current balance for the interacting account.",
								"needed": "Minimum amount required to perform a transfer.",
								"sender": "Address whose tokens are being transferred."
							}
						}
					],
					"ERC20InvalidApprover(address)": [
						{
							"details": "Indicates a failure with the `approver` of a token to be approved. Used in approvals.",
							"params": {
								"approver": "Address initiating an approval operation."
							}
						}
					],
					"ERC20InvalidReceiver(address)": [
						{
							"details": "Indicates a failure with the token `receiver`. Used in transfers.",
							"params": {
								"receiver": "Address to which tokens are being transferred."
							}
						}
					],
					"ERC20InvalidSender(address)": [
						{
							"details": "Indicates a failure with the token `sender`. Used in transfers.",
							"params": {
								"sender": "Address whose tokens are being transferred."
							}
						}
					],
					"ERC20InvalidSpender(address)": [
						{
							"details": "Indicates a failure with the `spender` to be approved. Used in approvals.",
							"params": {
								"spender": "Address that may be allowed to operate on tokens without being their owner."
							}
						}
					],
					"OwnableInvalidOwner(address)": [
						{
							"details": "The owner is not a valid owner account. (eg. `address(0)`)"
						}
					],
					"OwnableUnauthorizedAccount(address)": [
						{
							"details": "The caller account is not authorized to perform an operation."
						}
					]
				},
				"events": {
					"Approval(address,address,uint256)": {
						"details": "Emitted when the allowance of a `spender` for an `owner` is set by a call to {approve}. `value` is the new allowance."
					},
					"Transfer(address,address,uint256)": {
						"details": "Emitted when `value` tokens are moved from one account (`from`) to another (`to`). Note that `value` may be zero."
					}
				},
				"kind": "dev",
				"methods": {
					"allowance(address,address)": {
						"details": "See {IERC20-allowance}."
					},
					"approve(address,uint256)": {
						"details": "See {IERC20-approve}. NOTE: If `value` is the maximum `uint256`, the allowance is not updated on `transferFrom`. This is semantically equivalent to an infinite approval. Requirements: - `spender` cannot be the zero address."
					},
					"balanceOf(address)": {
						"details": "See {IERC20-balanceOf}."
					},
					"decimals()": {
						"details": "Returns the number of decimals used to get its user representation. For example, if `decimals` equals `2`, a balance of `505` tokens should be displayed to a user as `5.05` (`505 / 10 ** 2`). Tokens usually opt for a value of 18, imitating the relationship between Ether and Wei. This is the default value returned by this function, unless it's overridden. NOTE: This information is only used for _display_ purposes: it in no way affects any of the arithmetic of the contract, including {IERC20-balanceOf} and {IERC20-transfer}."
					},
					"name()": {
						"details": "Returns the name of the token."
					},
					"owner()": {
						"details": "Returns the address of the current owner."
					},
					"renounceOwnership()": {
						"details": "Leaves the contract without owner. It will not be possible to call `onlyOwner` functions. Can only be called by the current owner. NOTE: Renouncing ownership will leave the contract without an owner, thereby disabling any functionality that is only available to the owner."
					},
					"symbol()": {
						"details": "Returns the symbol of the token, usually a shorter version of the name."
					},
					"totalSupply()": {
						"details": "See {IERC20-totalSupply}."
					},
					"transfer(address,uint256)": {
						"details": "See {IERC20-transfer}. Requirements: - `to` cannot be the zero address. - the caller must have a balance of at least `value`."
					},
					"transferFrom(address,address,uint256)": {
						"details": "See {IERC20-transferFrom}. Emits an {Approval} event indicating the updated allowance. This is not required by the EIP. See the note at the beginning of {ERC20}. NOTE: Does not update the allowance if the current allowance is the maximum `uint256`. Requirements: - `from` and `to` cannot be the zero address. - `from` must have a balance of at least `value`. - the caller must have allowance for ``from``'s tokens of at least `value`."
					},
					"transferOwnership(address)": {
						"details": "Transfers ownership of the contract to a new account (`newOwner`). Can only be called by the current owner."
					}
				},
				"version": 1
			},
			"evm": {
				"assembly": "    /* \"CrossChainToken.sol\":568:1696  contract CrossChainToken is NonblockingLzApp, ERC20 {... */\n  mstore(0x40, 0xa0)\n    /* \"CrossChainToken.sol\":658:1025  constructor(address _lzEndpoint) NonblockingLzApp(_lzEndpoint) ERC20(\"Cross Chain Token\", \"CCT\") Ownable(msg.sender) {... */\n  callvalue\n  dup1\n  iszero\n  tag_1\n  jumpi\n  0x00\n  dup1\n  revert\ntag_1:\n  pop\n  mload(0x40)\n  sub(codesize, bytecodeSize)\n  dup1\n  bytecodeSize\n  dup4\n  codecopy\n  dup2\n  add\n  0x40\n  dup2\n  swap1\n  mstore\n  tag_2\n  swap2\n  tag_3\n  jump\t// in\ntag_2:\n    /* \"@openzeppelin/contracts/token/ERC20/ERC20.sol\":1896:2009  constructor(string memory name_, string memory symbol_) {... */\n  0x40\n  dup1\n  mload\n  dup1\n  dup3\n  add\n  dup3\n  mstore\n  0x11\n  dup2\n  mstore\n  shl(0x79, 0x21b937b9b99021b430b4b7102a37b5b2b7)\n  0x20\n  dup1\n  dup4\n  add\n  swap2\n  swap1\n  swap2\n  mstore\n  dup3\n  mload\n  dup1\n  dup5\n  add\n  swap1\n  swap4\n  mstore\n  0x03\n  dup4\n  mstore\n  shl(0xea, 0x10d0d5)\n  swap1\n  dup4\n  add\n  mstore\n  swap1\n    /* \"CrossChainToken.sol\":708:719  _lzEndpoint */\n  dup3\n  dup1\n    /* \"CrossChainToken.sol\":763:773  msg.sender */\n  caller\n  dup1\n    /* \"@openzeppelin/contracts/access/Ownable.sol\":1269:1364  if (initialOwner == address(0)) {... */\n  tag_10\n  jumpi\n    /* \"@openzeppelin/contracts/access/Ownable.sol\":1322:1353  OwnableInvalidOwner(address(0)) */\n  mload(0x40)\n  shl(0xe0, 0x1e4fbdf7)\n  dup2\n  mstore\n    /* \"@openzeppelin/contracts/access/Ownable.sol\":1350:1351  0 */\n  0x00\n    /* \"@openzeppelin/contracts/access/Ownable.sol\":1322:1353  OwnableInvalidOwner(address(0)) */\n  0x04\n  dup3\n  add\n    /* \"#utility.yul\":455:506   */\n  mstore\n    /* \"#utility.yul\":428:446   */\n  0x24\n  add\n    /* \"@openzeppelin/contracts/access/Ownable.sol\":1322:1353  OwnableInvalidOwner(address(0)) */\ntag_11:\n  mload(0x40)\n  dup1\n  swap2\n  sub\n  swap1\n  revert\n    /* \"@openzeppelin/contracts/access/Ownable.sol\":1269:1364  if (initialOwner == address(0)) {... */\ntag_10:\n    /* \"@openzeppelin/contracts/access/Ownable.sol\":1373:1405  _transferOwnership(initialOwner) */\n  tag_13\n    /* \"@openzeppelin/contracts/access/Ownable.sol\":1392:1404  initialOwner */\n  dup2\n    /* \"@openzeppelin/contracts/access/Ownable.sol\":1373:1391  _transferOwnership */\n  tag_14\n    /* \"@openzeppelin/contracts/access/Ownable.sol\":1373:1405  _transferOwnership(initialOwner) */\n  jump\t// in\ntag_13:\n  pop\n  sub(shl(0xa0, 0x01), 0x01)\n    /* \"https://github.com/LayerZero-Labs/solidity-examples/blob/main/contracts/lzApp/LzApp.sol\":1201:1243  lzEndpoint = ILayerZeroEndpoint(_endpoint) */\n  and\n  0x80\n  mstore\n  pop\n    /* \"@openzeppelin/contracts/token/ERC20/ERC20.sol\":1962:1967  _name */\n  0x09\n    /* \"@openzeppelin/contracts/token/ERC20/ERC20.sol\":1962:1975  _name = name_ */\n  tag_18\n    /* \"@openzeppelin/contracts/token/ERC20/ERC20.sol\":1970:1975  name_ */\n  dup4\n    /* \"@openzeppelin/contracts/token/ERC20/ERC20.sol\":1962:1967  _name */\n  dup3\n    /* \"@openzeppelin/contracts/token/ERC20/ERC20.sol\":1962:1975  _name = name_ */\n  tag_19\n  jump\t// in\ntag_18:\n  pop\n    /* \"@openzeppelin/contracts/token/ERC20/ERC20.sol\":1985:1992  _symbol */\n  0x0a\n    /* \"@openzeppelin/contracts/token/ERC20/ERC20.sol\":1985:2002  _symbol = symbol_ */\n  tag_20\n    /* \"@openzeppelin/contracts/token/ERC20/ERC20.sol\":1995:2002  symbol_ */\n  dup3\n    /* \"@openzeppelin/contracts/token/ERC20/ERC20.sol\":1985:1992  _symbol */\n  dup3\n    /* \"@openzeppelin/contracts/token/ERC20/ERC20.sol\":1985:2002  _symbol = symbol_ */\n  tag_19\n  jump\t// in\ntag_20:\n  pop\n  pop\n  pop\n  sub(shl(0xa0, 0x01), 0x01)\n    /* \"CrossChainToken.sol\":790:847  _lzEndpoint == 0xae92d5aD7583AD66E49A0c67BAd18F6ba52dDDc1 */\n  dup2\n  and\n    /* \"CrossChainToken.sol\":805:847  0xae92d5aD7583AD66E49A0c67BAd18F6ba52dDDc1 */\n  0xae92d5ad7583ad66e49a0c67bad18f6ba52dddc1\n    /* \"CrossChainToken.sol\":790:847  _lzEndpoint == 0xae92d5aD7583AD66E49A0c67BAd18F6ba52dDDc1 */\n  sub\n    /* \"CrossChainToken.sol\":786:868  if (_lzEndpoint == 0xae92d5aD7583AD66E49A0c67BAd18F6ba52dDDc1) destChainId = 10121 */\n  tag_22\n  jumpi\n    /* \"CrossChainToken.sol\":849:860  destChainId */\n  0x0b\n    /* \"CrossChainToken.sol\":849:868  destChainId = 10121 */\n  dup1\n  sload\n  not(0xffff)\n  and\n    /* \"CrossChainToken.sol\":863:868  10121 */\n  0x2789\n    /* \"CrossChainToken.sol\":849:868  destChainId = 10121 */\n  or\n  swap1\n  sstore\n    /* \"CrossChainToken.sol\":786:868  if (_lzEndpoint == 0xae92d5aD7583AD66E49A0c67BAd18F6ba52dDDc1) destChainId = 10121 */\ntag_22:\n  sub(shl(0xa0, 0x01), 0x01)\n    /* \"CrossChainToken.sol\":883:940  _lzEndpoint == 0xbfD2135BFfbb0B5378b56643c2Df8a87552Bfa23 */\n  dup2\n  and\n    /* \"CrossChainToken.sol\":898:940  0xbfD2135BFfbb0B5378b56643c2Df8a87552Bfa23 */\n  0xbfd2135bffbb0b5378b56643c2df8a87552bfa23\n    /* \"CrossChainToken.sol\":883:940  _lzEndpoint == 0xbfD2135BFfbb0B5378b56643c2Df8a87552Bfa23 */\n  sub\n    /* \"CrossChainToken.sol\":879:961  if (_lzEndpoint == 0xbfD2135BFfbb0B5378b56643c2Df8a87552Bfa23) destChainId = 10132 */\n  tag_23\n  jumpi\n    /* \"CrossChainToken.sol\":942:953  destChainId */\n  0x0b\n    /* \"CrossChainToken.sol\":942:961  destChainId = 10132 */\n  dup1\n  sload\n  not(0xffff)\n  and\n    /* \"CrossChainToken.sol\":956:961  10132 */\n  0x2794\n    /* \"CrossChainToken.sol\":942:961  destChainId = 10132 */\n  or\n  swap1\n  sstore\n    /* \"CrossChainToken.sol\":879:961  if (_lzEndpoint == 0xbfD2135BFfbb0B5378b56643c2Df8a87552Bfa23) destChainId = 10132 */\ntag_23:\n    /* \"CrossChainToken.sol\":972:1017  _mint(msg.sender, 1000000 * 10 ** decimals()) */\n  tag_24\n    /* \"CrossChainToken.sol\":978:988  msg.sender */\n  caller\n    /* \"CrossChainToken.sol\":1000:1016  10 ** decimals() */\n  tag_27\n    /* \"@openzeppelin/contracts/token/ERC20/ERC20.sol\":3075:3077  18 */\n  0x12\n    /* \"CrossChainToken.sol\":1000:1002  10 */\n  0x0a\n    /* \"CrossChainToken.sol\":1000:1016  10 ** decimals() */\n  tag_28\n  jump\t// in\ntag_27:\n    /* \"CrossChainToken.sol\":990:1016  1000000 * 10 ** decimals() */\n  tag_29\n  swap1\n    /* \"CrossChainToken.sol\":990:997  1000000 */\n  0x0f4240\n    /* \"CrossChainToken.sol\":990:1016  1000000 * 10 ** decimals() */\n  tag_30\n  jump\t// in\ntag_29:\n    /* \"CrossChainToken.sol\":972:977  _mint */\n  tag_31\n    /* \"CrossChainToken.sol\":972:1017  _mint(msg.sender, 1000000 * 10 ** decimals()) */\n  jump\t// in\ntag_24:\n    /* \"CrossChainToken.sol\":658:1025  constructor(address _lzEndpoint) NonblockingLzApp(_lzEndpoint) ERC20(\"Cross Chain Token\", \"CCT\") Ownable(msg.sender) {... */\n  pop\n    /* \"CrossChainToken.sol\":568:1696  contract CrossChainToken is NonblockingLzApp, ERC20 {... */\n  jump(tag_60)\n    /* \"@openzeppelin/contracts/access/Ownable.sol\":2912:3099  function _transferOwnership(address newOwner) internal virtual {... */\ntag_14:\n    /* \"@openzeppelin/contracts/access/Ownable.sol\":2985:3001  address oldOwner */\n  0x00\n    /* \"@openzeppelin/contracts/access/Ownable.sol\":3004:3010  _owner */\n  dup1\n  sload\n  sub(shl(0xa0, 0x01), 0x01)\n    /* \"@openzeppelin/contracts/access/Ownable.sol\":3020:3037  _owner = newOwner */\n  dup4\n  dup2\n  and\n  not(sub(shl(0xa0, 0x01), 0x01))\n  dup4\n  and\n  dup2\n  or\n  dup5\n  sstore\n    /* \"@openzeppelin/contracts/access/Ownable.sol\":3052:3092  OwnershipTransferred(oldOwner, newOwner) */\n  mload(0x40)\n    /* \"@openzeppelin/contracts/access/Ownable.sol\":3004:3010  _owner */\n  swap2\n  swap1\n  swap3\n  and\n  swap3\n  dup4\n  swap2\n    /* \"@openzeppelin/contracts/access/Ownable.sol\":3052:3092  OwnershipTransferred(oldOwner, newOwner) */\n  0x8be0079c531659141344cd1fd0a4f28419497f9722a3daafe3b4186f6b6457e0\n  swap2\n    /* \"@openzeppelin/contracts/access/Ownable.sol\":2985:3001  address oldOwner */\n  swap1\n    /* \"@openzeppelin/contracts/access/Ownable.sol\":3052:3092  OwnershipTransferred(oldOwner, newOwner) */\n  log3\n    /* \"@openzeppelin/contracts/access/Ownable.sol\":2975:3099  {... */\n  pop\n    /* \"@openzeppelin/contracts/access/Ownable.sol\":2912:3099  function _transferOwnership(address newOwner) internal virtual {... */\n  pop\n  jump\t// out\n    /* \"@openzeppelin/contracts/token/ERC20/ERC20.sol\":7721:7929  function _mint(address account, uint256 value) internal {... */\ntag_31:\n  sub(shl(0xa0, 0x01), 0x01)\n    /* \"@openzeppelin/contracts/token/ERC20/ERC20.sol\":7791:7812  account == address(0) */\n  dup3\n  and\n    /* \"@openzeppelin/contracts/token/ERC20/ERC20.sol\":7787:7878  if (account == address(0)) {... */\n  tag_36\n  jumpi\n    /* \"@openzeppelin/contracts/token/ERC20/ERC20.sol\":7835:7867  ERC20InvalidReceiver(address(0)) */\n  mload(0x40)\n  shl(0xe0, 0xec442f05)\n  dup2\n  mstore\n    /* \"@openzeppelin/contracts/token/ERC20/ERC20.sol\":7864:7865  0 */\n  0x00\n    /* \"@openzeppelin/contracts/token/ERC20/ERC20.sol\":7835:7867  ERC20InvalidReceiver(address(0)) */\n  0x04\n  dup3\n  add\n    /* \"#utility.yul\":455:506   */\n  mstore\n    /* \"#utility.yul\":428:446   */\n  0x24\n  add\n    /* \"@openzeppelin/contracts/token/ERC20/ERC20.sol\":7835:7867  ERC20InvalidReceiver(address(0)) */\n  tag_11\n    /* \"#utility.yul\":309:512   */\n  jump\n    /* \"@openzeppelin/contracts/token/ERC20/ERC20.sol\":7787:7878  if (account == address(0)) {... */\ntag_36:\n    /* \"@openzeppelin/contracts/token/ERC20/ERC20.sol\":7887:7922  _update(address(0), account, value) */\n  tag_38\n    /* \"@openzeppelin/contracts/token/ERC20/ERC20.sol\":7903:7904  0 */\n  0x00\n    /* \"@openzeppelin/contracts/token/ERC20/ERC20.sol\":7907:7914  account */\n  dup4\n    /* \"@openzeppelin/contracts/token/ERC20/ERC20.sol\":7916:7921  value */\n  dup4\n    /* \"@openzeppelin/contracts/token/ERC20/ERC20.sol\":7887:7894  _update */\n  tag_39\n    /* \"@openzeppelin/contracts/token/ERC20/ERC20.sol\":7887:7922  _update(address(0), account, value) */\n  jump\t// in\ntag_38:\n    /* \"@openzeppelin/contracts/token/ERC20/ERC20.sol\":7721:7929  function _mint(address account, uint256 value) internal {... */\n  pop\n  pop\n  jump\t// out\n    /* \"@openzeppelin/contracts/token/ERC20/ERC20.sol\":6271:7378  function _update(address from, address to, uint256 value) internal virtual {... */\ntag_39:\n  sub(shl(0xa0, 0x01), 0x01)\n    /* \"@openzeppelin/contracts/token/ERC20/ERC20.sol\":6360:6378  from == address(0) */\n  dup4\n  and\n    /* \"@openzeppelin/contracts/token/ERC20/ERC20.sol\":6356:6896  if (from == address(0)) {... */\n  tag_41\n  jumpi\n    /* \"@openzeppelin/contracts/token/ERC20/ERC20.sol\":6512:6517  value */\n  dup1\n    /* \"@openzeppelin/contracts/token/ERC20/ERC20.sol\":6496:6508  _totalSupply */\n  0x08\n  0x00\n    /* \"@openzeppelin/contracts/token/ERC20/ERC20.sol\":6496:6517  _totalSupply += value */\n  dup3\n  dup3\n  sload\n  tag_42\n  swap2\n  swap1\n  tag_43\n  jump\t// in\ntag_42:\n  swap1\n  swap2\n  sstore\n  pop\n    /* \"@openzeppelin/contracts/token/ERC20/ERC20.sol\":6356:6896  if (from == address(0)) {... */\n  tag_44\n  swap1\n  pop\n  jump\ntag_41:\n  sub(shl(0xa0, 0x01), 0x01)\n    /* \"@openzeppelin/contracts/token/ERC20/ERC20.sol\":6570:6585  _balances[from] */\n  dup4\n  and\n    /* \"@openzeppelin/contracts/token/ERC20/ERC20.sol\":6548:6567  uint256 fromBalance */\n  0x00\n    /* \"@openzeppelin/contracts/token/ERC20/ERC20.sol\":6570:6585  _balances[from] */\n  swap1\n  dup2\n  mstore\n    /* \"@openzeppelin/contracts/token/ERC20/ERC20.sol\":6570:6579  _balances */\n  0x06\n    /* \"@openzeppelin/contracts/token/ERC20/ERC20.sol\":6570:6585  _balances[from] */\n  0x20\n  mstore\n  0x40\n  swap1\n  keccak256\n  sload\n    /* \"@openzeppelin/contracts/token/ERC20/ERC20.sol\":6603:6622  fromBalance < value */\n  dup2\n  dup2\n  lt\n    /* \"@openzeppelin/contracts/token/ERC20/ERC20.sol\":6599:6714  if (fromBalance < value) {... */\n  iszero\n  tag_45\n  jumpi\n    /* \"@openzeppelin/contracts/token/ERC20/ERC20.sol\":6649:6699  ERC20InsufficientBalance(from, fromBalance, value) */\n  mload(0x40)\n  shl(0xe2, 0x391434e3)\n  dup2\n  mstore\n  sub(shl(0xa0, 0x01), 0x01)\n    /* \"#utility.yul\":5236:5268   */\n  dup6\n  and\n    /* \"@openzeppelin/contracts/token/ERC20/ERC20.sol\":6649:6699  ERC20InsufficientBalance(from, fromBalance, value) */\n  0x04\n  dup3\n  add\n    /* \"#utility.yul\":5218:5269   */\n  mstore\n    /* \"#utility.yul\":5285:5303   */\n  0x24\n  dup2\n  add\n    /* \"#utility.yul\":5278:5312   */\n  dup3\n  swap1\n  mstore\n    /* \"#utility.yul\":5328:5346   */\n  0x44\n  dup2\n  add\n    /* \"#utility.yul\":5321:5355   */\n  dup4\n  swap1\n  mstore\n    /* \"#utility.yul\":5191:5209   */\n  0x64\n  add\n    /* \"@openzeppelin/contracts/token/ERC20/ERC20.sol\":6649:6699  ERC20InsufficientBalance(from, fromBalance, value) */\n  tag_11\n    /* \"#utility.yul\":5016:5361   */\n  jump\n    /* \"@openzeppelin/contracts/token/ERC20/ERC20.sol\":6599:6714  if (fromBalance < value) {... */\ntag_45:\n  sub(shl(0xa0, 0x01), 0x01)\n    /* \"@openzeppelin/contracts/token/ERC20/ERC20.sol\":6834:6849  _balances[from] */\n  dup5\n  and\n  0x00\n  swap1\n  dup2\n  mstore\n    /* \"@openzeppelin/contracts/token/ERC20/ERC20.sol\":6834:6843  _balances */\n  0x06\n    /* \"@openzeppelin/contracts/token/ERC20/ERC20.sol\":6834:6849  _balances[from] */\n  0x20\n  mstore\n  0x40\n  swap1\n  keccak256\n    /* \"@openzeppelin/contracts/token/ERC20/ERC20.sol\":6852:6871  fromBalance - value */\n  swap1\n  dup3\n  swap1\n  sub\n    /* \"@openzeppelin/contracts/token/ERC20/ERC20.sol\":6834:6871  _balances[from] = fromBalance - value */\n  swap1\n  sstore\n    /* \"@openzeppelin/contracts/token/ERC20/ERC20.sol\":6356:6896  if (from == address(0)) {... */\ntag_44:\n  sub(shl(0xa0, 0x01), 0x01)\n    /* \"@openzeppelin/contracts/token/ERC20/ERC20.sol\":6910:6926  to == address(0) */\n  dup3\n  and\n    /* \"@openzeppelin/contracts/token/ERC20/ERC20.sol\":6906:7331  if (to == address(0)) {... */\n  tag_48\n  jumpi\n    /* \"@openzeppelin/contracts/token/ERC20/ERC20.sol\":7073:7085  _totalSupply */\n  0x08\n    /* \"@openzeppelin/contracts/token/ERC20/ERC20.sol\":7073:7094  _totalSupply -= value */\n  dup1\n  sload\n  dup3\n  swap1\n  sub\n  swap1\n  sstore\n    /* \"@openzeppelin/contracts/token/ERC20/ERC20.sol\":6906:7331  if (to == address(0)) {... */\n  jump(tag_49)\ntag_48:\n  sub(shl(0xa0, 0x01), 0x01)\n    /* \"@openzeppelin/contracts/token/ERC20/ERC20.sol\":7284:7297  _balances[to] */\n  dup3\n  and\n  0x00\n  swap1\n  dup2\n  mstore\n    /* \"@openzeppelin/contracts/token/ERC20/ERC20.sol\":7284:7293  _balances */\n  0x06\n    /* \"@openzeppelin/contracts/token/ERC20/ERC20.sol\":7284:7297  _balances[to] */\n  0x20\n  mstore\n  0x40\n  swap1\n  keccak256\n    /* \"@openzeppelin/contracts/token/ERC20/ERC20.sol\":7284:7306  _balances[to] += value */\n  dup1\n  sload\n  dup3\n  add\n  swap1\n  sstore\n    /* \"@openzeppelin/contracts/token/ERC20/ERC20.sol\":6906:7331  if (to == address(0)) {... */\ntag_49:\n    /* \"@openzeppelin/contracts/token/ERC20/ERC20.sol\":7361:7363  to */\n  dup2\n  sub(shl(0xa0, 0x01), 0x01)\n    /* \"@openzeppelin/contracts/token/ERC20/ERC20.sol\":7346:7371  Transfer(from, to, value) */\n  and\n    /* \"@openzeppelin/contracts/token/ERC20/ERC20.sol\":7355:7359  from */\n  dup4\n  sub(shl(0xa0, 0x01), 0x01)\n    /* \"@openzeppelin/contracts/token/ERC20/ERC20.sol\":7346:7371  Transfer(from, to, value) */\n  and\n  0xddf252ad1be2c89b69c2b068fc378daa952ba7f163c4a11628f55a4df523b3ef\n    /* \"@openzeppelin/contracts/token/ERC20/ERC20.sol\":7365:7370  value */\n  dup4\n    /* \"@openzeppelin/contracts/token/ERC20/ERC20.sol\":7346:7371  Transfer(from, to, value) */\n  mload(0x40)\n  tag_50\n  swap2\n    /* \"#utility.yul\":5512:5537   */\n  dup2\n  mstore\n    /* \"#utility.yul\":5500:5502   */\n  0x20\n    /* \"#utility.yul\":5485:5503   */\n  add\n  swap1\n    /* \"#utility.yul\":5366:5543   */\n  jump\n    /* \"@openzeppelin/contracts/token/ERC20/ERC20.sol\":7346:7371  Transfer(from, to, value) */\ntag_50:\n  mload(0x40)\n  dup1\n  swap2\n  sub\n  swap1\n  log3\n    /* \"@openzeppelin/contracts/token/ERC20/ERC20.sol\":6271:7378  function _update(address from, address to, uint256 value) internal virtual {... */\n  pop\n  pop\n  pop\n  jump\t// out\n    /* \"#utility.yul\":14:304   */\ntag_3:\n    /* \"#utility.yul\":84:90   */\n  0x00\n    /* \"#utility.yul\":137:139   */\n  0x20\n    /* \"#utility.yul\":125:134   */\n  dup3\n    /* \"#utility.yul\":116:123   */\n  dup5\n    /* \"#utility.yul\":112:135   */\n  sub\n    /* \"#utility.yul\":108:140   */\n  slt\n    /* \"#utility.yul\":105:157   */\n  iszero\n  tag_62\n  jumpi\n    /* \"#utility.yul\":153:154   */\n  0x00\n    /* \"#utility.yul\":150:151   */\n  dup1\n    /* \"#utility.yul\":143:155   */\n  revert\n    /* \"#utility.yul\":105:157   */\ntag_62:\n    /* \"#utility.yul\":179:195   */\n  dup2\n  mload\n  sub(shl(0xa0, 0x01), 0x01)\n    /* \"#utility.yul\":224:255   */\n  dup2\n  and\n    /* \"#utility.yul\":214:256   */\n  dup2\n  eq\n    /* \"#utility.yul\":204:274   */\n  tag_63\n  jumpi\n    /* \"#utility.yul\":270:271   */\n  0x00\n    /* \"#utility.yul\":267:268   */\n  dup1\n    /* \"#utility.yul\":260:272   */\n  revert\n    /* \"#utility.yul\":204:274   */\ntag_63:\n    /* \"#utility.yul\":293:298   */\n  swap4\n    /* \"#utility.yul\":14:304   */\n  swap3\n  pop\n  pop\n  pop\n  jump\t// out\n    /* \"#utility.yul\":517:644   */\ntag_52:\n    /* \"#utility.yul\":578:588   */\n  0x4e487b71\n    /* \"#utility.yul\":573:576   */\n  0xe0\n    /* \"#utility.yul\":569:589   */\n  shl\n    /* \"#utility.yul\":566:567   */\n  0x00\n    /* \"#utility.yul\":559:590   */\n  mstore\n    /* \"#utility.yul\":609:613   */\n  0x41\n    /* \"#utility.yul\":606:607   */\n  0x04\n    /* \"#utility.yul\":599:614   */\n  mstore\n    /* \"#utility.yul\":633:637   */\n  0x24\n    /* \"#utility.yul\":630:631   */\n  0x00\n    /* \"#utility.yul\":623:638   */\n  revert\n    /* \"#utility.yul\":649:1029   */\ntag_53:\n    /* \"#utility.yul\":728:729   */\n  0x01\n    /* \"#utility.yul\":724:736   */\n  dup2\n  dup2\n  shr\n  swap1\n    /* \"#utility.yul\":771:783   */\n  dup3\n  and\n  dup1\n    /* \"#utility.yul\":792:853   */\n  tag_67\n  jumpi\n    /* \"#utility.yul\":846:850   */\n  0x7f\n    /* \"#utility.yul\":838:844   */\n  dup3\n    /* \"#utility.yul\":834:851   */\n  and\n    /* \"#utility.yul\":824:851   */\n  swap2\n  pop\n    /* \"#utility.yul\":792:853   */\ntag_67:\n    /* \"#utility.yul\":899:901   */\n  0x20\n    /* \"#utility.yul\":891:897   */\n  dup3\n    /* \"#utility.yul\":888:902   */\n  lt\n    /* \"#utility.yul\":868:886   */\n  dup2\n    /* \"#utility.yul\":865:903   */\n  sub\n    /* \"#utility.yul\":862:1023   */\n  tag_68\n  jumpi\n    /* \"#utility.yul\":945:955   */\n  0x4e487b71\n    /* \"#utility.yul\":940:943   */\n  0xe0\n    /* \"#utility.yul\":936:956   */\n  shl\n    /* \"#utility.yul\":933:934   */\n  0x00\n    /* \"#utility.yul\":926:957   */\n  mstore\n    /* \"#utility.yul\":980:984   */\n  0x22\n    /* \"#utility.yul\":977:978   */\n  0x04\n    /* \"#utility.yul\":970:985   */\n  mstore\n    /* \"#utility.yul\":1008:1012   */\n  0x24\n    /* \"#utility.yul\":1005:1006   */\n  0x00\n    /* \"#utility.yul\":998:1013   */\n  revert\n    /* \"#utility.yul\":862:1023   */\ntag_68:\n  pop\n    /* \"#utility.yul\":649:1029   */\n  swap2\n  swap1\n  pop\n  jump\t// out\n    /* \"#utility.yul\":1160:1678   */\ntag_55:\n    /* \"#utility.yul\":1262:1264   */\n  0x1f\n    /* \"#utility.yul\":1257:1260   */\n  dup3\n    /* \"#utility.yul\":1254:1265   */\n  gt\n    /* \"#utility.yul\":1251:1672   */\n  iszero\n  tag_71\n  jumpi\n    /* \"#utility.yul\":1298:1303   */\n  dup1\n    /* \"#utility.yul\":1295:1296   */\n  0x00\n    /* \"#utility.yul\":1288:1304   */\n  mstore\n    /* \"#utility.yul\":1342:1346   */\n  0x20\n    /* \"#utility.yul\":1339:1340   */\n  0x00\n    /* \"#utility.yul\":1329:1347   */\n  keccak256\n    /* \"#utility.yul\":1412:1414   */\n  0x1f\n    /* \"#utility.yul\":1400:1410   */\n  dup5\n    /* \"#utility.yul\":1396:1415   */\n  add\n    /* \"#utility.yul\":1393:1394   */\n  0x05\n    /* \"#utility.yul\":1389:1416   */\n  shr\n    /* \"#utility.yul\":1383:1387   */\n  dup2\n    /* \"#utility.yul\":1379:1417   */\n  add\n    /* \"#utility.yul\":1448:1452   */\n  0x20\n    /* \"#utility.yul\":1436:1446   */\n  dup6\n    /* \"#utility.yul\":1433:1453   */\n  lt\n    /* \"#utility.yul\":1430:1477   */\n  iszero\n  tag_72\n  jumpi\n  pop\n    /* \"#utility.yul\":1471:1475   */\n  dup1\n    /* \"#utility.yul\":1430:1477   */\ntag_72:\n    /* \"#utility.yul\":1526:1528   */\n  0x1f\n    /* \"#utility.yul\":1521:1524   */\n  dup5\n    /* \"#utility.yul\":1517:1529   */\n  add\n    /* \"#utility.yul\":1514:1515   */\n  0x05\n    /* \"#utility.yul\":1510:1530   */\n  shr\n    /* \"#utility.yul\":1504:1508   */\n  dup3\n    /* \"#utility.yul\":1500:1531   */\n  add\n    /* \"#utility.yul\":1490:1531   */\n  swap2\n  pop\n    /* \"#utility.yul\":1581:1662   */\ntag_73:\n    /* \"#utility.yul\":1599:1601   */\n  dup2\n    /* \"#utility.yul\":1592:1597   */\n  dup2\n    /* \"#utility.yul\":1589:1602   */\n  lt\n    /* \"#utility.yul\":1581:1662   */\n  iszero\n  tag_75\n  jumpi\n    /* \"#utility.yul\":1658:1659   */\n  0x00\n    /* \"#utility.yul\":1644:1660   */\n  dup2\n  sstore\n    /* \"#utility.yul\":1625:1626   */\n  0x01\n    /* \"#utility.yul\":1614:1627   */\n  add\n    /* \"#utility.yul\":1581:1662   */\n  jump(tag_73)\ntag_75:\n    /* \"#utility.yul\":1585:1588   */\n  pop\n  pop\n    /* \"#utility.yul\":1251:1672   */\ntag_71:\n    /* \"#utility.yul\":1160:1678   */\n  pop\n  pop\n  pop\n  jump\t// out\n    /* \"#utility.yul\":1854:3199   */\ntag_19:\n    /* \"#utility.yul\":1974:1984   */\n  dup2\n  mload\n  sub(shl(0x40, 0x01), 0x01)\n    /* \"#utility.yul\":1996:2026   */\n  dup2\n  gt\n    /* \"#utility.yul\":1993:2049   */\n  iszero\n  tag_79\n  jumpi\n    /* \"#utility.yul\":2029:2047   */\n  tag_79\n  tag_52\n  jump\t// in\ntag_79:\n    /* \"#utility.yul\":2058:2155   */\n  tag_80\n    /* \"#utility.yul\":2148:2154   */\n  dup2\n    /* \"#utility.yul\":2108:2146   */\n  tag_81\n    /* \"#utility.yul\":2140:2144   */\n  dup5\n    /* \"#utility.yul\":2134:2145   */\n  sload\n    /* \"#utility.yul\":2108:2146   */\n  tag_53\n  jump\t// in\ntag_81:\n    /* \"#utility.yul\":2102:2106   */\n  dup5\n    /* \"#utility.yul\":2058:2155   */\n  tag_55\n  jump\t// in\ntag_80:\n    /* \"#utility.yul\":2210:2214   */\n  0x20\n  dup1\n    /* \"#utility.yul\":2267:2269   */\n  0x1f\n    /* \"#utility.yul\":2256:2270   */\n  dup4\n  gt\n    /* \"#utility.yul\":2284:2285   */\n  0x01\n    /* \"#utility.yul\":2279:2942   */\n  dup2\n  eq\n  tag_83\n  jumpi\n    /* \"#utility.yul\":2986:2987   */\n  0x00\n    /* \"#utility.yul\":3003:3009   */\n  dup5\n    /* \"#utility.yul\":3000:3089   */\n  iszero\n  tag_84\n  jumpi\n  pop\n    /* \"#utility.yul\":3055:3074   */\n  dup6\n  dup4\n  add\n    /* \"#utility.yul\":3049:3075   */\n  mload\n    /* \"#utility.yul\":3000:3089   */\ntag_84:\n  not(0x00)\n    /* \"#utility.yul\":1811:1812   */\n  0x03\n    /* \"#utility.yul\":1807:1818   */\n  dup7\n  swap1\n  shl\n    /* \"#utility.yul\":1803:1827   */\n  shr\n    /* \"#utility.yul\":1799:1828   */\n  not\n    /* \"#utility.yul\":1789:1829   */\n  and\n    /* \"#utility.yul\":1835:1836   */\n  0x01\n    /* \"#utility.yul\":1831:1842   */\n  dup6\n  swap1\n  shl\n    /* \"#utility.yul\":1786:1843   */\n  or\n    /* \"#utility.yul\":3102:3183   */\n  dup6\n  sstore\n    /* \"#utility.yul\":2249:3193   */\n  jump(tag_82)\n    /* \"#utility.yul\":2279:2942   */\ntag_83:\n    /* \"#utility.yul\":1107:1108   */\n  0x00\n    /* \"#utility.yul\":1100:1114   */\n  dup6\n  dup2\n  mstore\n    /* \"#utility.yul\":1144:1148   */\n  0x20\n    /* \"#utility.yul\":1131:1149   */\n  dup2\n  keccak256\n  not(0x1f)\n    /* \"#utility.yul\":2315:2335   */\n  dup7\n  and\n  swap2\n    /* \"#utility.yul\":2433:2669   */\ntag_87:\n    /* \"#utility.yul\":2447:2454   */\n  dup3\n    /* \"#utility.yul\":2444:2445   */\n  dup2\n    /* \"#utility.yul\":2441:2455   */\n  lt\n    /* \"#utility.yul\":2433:2669   */\n  iszero\n  tag_89\n  jumpi\n    /* \"#utility.yul\":2536:2555   */\n  dup9\n  dup7\n  add\n    /* \"#utility.yul\":2530:2556   */\n  mload\n    /* \"#utility.yul\":2515:2557   */\n  dup3\n  sstore\n    /* \"#utility.yul\":2628:2655   */\n  swap5\n  dup5\n  add\n  swap5\n    /* \"#utility.yul\":2596:2597   */\n  0x01\n    /* \"#utility.yul\":2584:2598   */\n  swap1\n  swap2\n  add\n  swap1\n    /* \"#utility.yul\":2463:2482   */\n  dup5\n  add\n    /* \"#utility.yul\":2433:2669   */\n  jump(tag_87)\ntag_89:\n    /* \"#utility.yul\":2437:2440   */\n  pop\n    /* \"#utility.yul\":2697:2703   */\n  dup6\n    /* \"#utility.yul\":2688:2695   */\n  dup3\n    /* \"#utility.yul\":2685:2704   */\n  lt\n    /* \"#utility.yul\":2682:2883   */\n  iszero\n  tag_90\n  jumpi\n    /* \"#utility.yul\":2758:2777   */\n  dup8\n  dup6\n  add\n    /* \"#utility.yul\":2752:2778   */\n  mload\n  not(0x00)\n    /* \"#utility.yul\":2841:2842   */\n  0x03\n    /* \"#utility.yul\":2837:2851   */\n  dup9\n  swap1\n  shl\n    /* \"#utility.yul\":2853:2856   */\n  0xf8\n    /* \"#utility.yul\":2833:2857   */\n  and\n    /* \"#utility.yul\":2829:2866   */\n  shr\n    /* \"#utility.yul\":2825:2867   */\n  not\n    /* \"#utility.yul\":2810:2868   */\n  and\n    /* \"#utility.yul\":2795:2869   */\n  dup2\n  sstore\n    /* \"#utility.yul\":2682:2883   */\ntag_90:\n  pop\n  pop\n    /* \"#utility.yul\":2929:2930   */\n  0x01\n    /* \"#utility.yul\":2920:2926   */\n  dup5\n    /* \"#utility.yul\":2917:2918   */\n  0x01\n    /* \"#utility.yul\":2913:2927   */\n  shl\n    /* \"#utility.yul\":2909:2931   */\n  add\n    /* \"#utility.yul\":2903:2907   */\n  dup6\n    /* \"#utility.yul\":2896:2932   */\n  sstore\n    /* \"#utility.yul\":2249:3193   */\ntag_82:\n  pop\n  pop\n  pop\n  pop\n    /* \"#utility.yul\":1854:3199   */\n  pop\n  pop\n  jump\t// out\n    /* \"#utility.yul\":3204:3331   */\ntag_57:\n    /* \"#utility.yul\":3265:3275   */\n  0x4e487b71\n    /* \"#utility.yul\":3260:3263   */\n  0xe0\n    /* \"#utility.yul\":3256:3276   */\n  shl\n    /* \"#utility.yul\":3253:3254   */\n  0x00\n    /* \"#utility.yul\":3246:3277   */\n  mstore\n    /* \"#utility.yul\":3296:3300   */\n  0x11\n    /* \"#utility.yul\":3293:3294   */\n  0x04\n    /* \"#utility.yul\":3286:3301   */\n  mstore\n    /* \"#utility.yul\":3320:3324   */\n  0x24\n    /* \"#utility.yul\":3317:3318   */\n  0x00\n    /* \"#utility.yul\":3310:3325   */\n  revert\n    /* \"#utility.yul\":3336:3752   */\ntag_58:\n    /* \"#utility.yul\":3425:3426   */\n  0x01\n    /* \"#utility.yul\":3462:3467   */\n  dup2\n    /* \"#utility.yul\":3425:3426   */\n  dup2\n    /* \"#utility.yul\":3476:3746   */\ntag_93:\n    /* \"#utility.yul\":3497:3504   */\n  dup1\n    /* \"#utility.yul\":3487:3495   */\n  dup6\n    /* \"#utility.yul\":3484:3505   */\n  gt\n    /* \"#utility.yul\":3476:3746   */\n  iszero\n  tag_95\n  jumpi\n    /* \"#utility.yul\":3556:3560   */\n  dup2\n    /* \"#utility.yul\":3552:3553   */\n  0x00\n    /* \"#utility.yul\":3548:3554   */\n  not\n    /* \"#utility.yul\":3544:3561   */\n  div\n    /* \"#utility.yul\":3538:3542   */\n  dup3\n    /* \"#utility.yul\":3535:3562   */\n  gt\n    /* \"#utility.yul\":3532:3585   */\n  iszero\n  tag_97\n  jumpi\n    /* \"#utility.yul\":3565:3583   */\n  tag_97\n  tag_57\n  jump\t// in\ntag_97:\n    /* \"#utility.yul\":3615:3622   */\n  dup1\n    /* \"#utility.yul\":3605:3613   */\n  dup6\n    /* \"#utility.yul\":3601:3623   */\n  and\n    /* \"#utility.yul\":3598:3653   */\n  iszero\n  tag_98\n  jumpi\n    /* \"#utility.yul\":3635:3651   */\n  swap2\n  dup2\n  mul\n  swap2\n    /* \"#utility.yul\":3598:3653   */\ntag_98:\n    /* \"#utility.yul\":3714:3736   */\n  swap4\n  dup5\n  shr\n  swap4\n    /* \"#utility.yul\":3674:3689   */\n  swap1\n  dup1\n  mul\n  swap1\n    /* \"#utility.yul\":3476:3746   */\n  jump(tag_93)\ntag_95:\n    /* \"#utility.yul\":3480:3483   */\n  pop\n    /* \"#utility.yul\":3336:3752   */\n  swap3\n  pop\n  swap3\n  swap1\n  pop\n  jump\t// out\n    /* \"#utility.yul\":3757:4563   */\ntag_59:\n    /* \"#utility.yul\":3806:3811   */\n  0x00\n    /* \"#utility.yul\":3836:3844   */\n  dup3\n    /* \"#utility.yul\":3826:3906   */\n  tag_100\n  jumpi\n  pop\n    /* \"#utility.yul\":3877:3878   */\n  0x01\n    /* \"#utility.yul\":3891:3896   */\n  jump(tag_99)\n    /* \"#utility.yul\":3826:3906   */\ntag_100:\n    /* \"#utility.yul\":3925:3929   */\n  dup2\n    /* \"#utility.yul\":3915:3991   */\n  tag_101\n  jumpi\n  pop\n    /* \"#utility.yul\":3962:3963   */\n  0x00\n    /* \"#utility.yul\":3976:3981   */\n  jump(tag_99)\n    /* \"#utility.yul\":3915:3991   */\ntag_101:\n    /* \"#utility.yul\":4007:4011   */\n  dup2\n    /* \"#utility.yul\":4025:4026   */\n  0x01\n    /* \"#utility.yul\":4020:4079   */\n  dup2\n  eq\n  tag_103\n  jumpi\n    /* \"#utility.yul\":4093:4094   */\n  0x02\n    /* \"#utility.yul\":4088:4218   */\n  dup2\n  eq\n  tag_104\n  jumpi\n    /* \"#utility.yul\":4000:4218   */\n  jump(tag_102)\n    /* \"#utility.yul\":4020:4079   */\ntag_103:\n    /* \"#utility.yul\":4050:4051   */\n  0x01\n    /* \"#utility.yul\":4041:4051   */\n  swap2\n  pop\n    /* \"#utility.yul\":4064:4069   */\n  pop\n  jump(tag_99)\n    /* \"#utility.yul\":4088:4218   */\ntag_104:\n    /* \"#utility.yul\":4125:4128   */\n  0xff\n    /* \"#utility.yul\":4115:4123   */\n  dup5\n    /* \"#utility.yul\":4112:4129   */\n  gt\n    /* \"#utility.yul\":4109:4152   */\n  iszero\n  tag_106\n  jumpi\n    /* \"#utility.yul\":4132:4150   */\n  tag_106\n  tag_57\n  jump\t// in\ntag_106:\n  pop\n  pop\n    /* \"#utility.yul\":4188:4189   */\n  0x01\n    /* \"#utility.yul\":4174:4190   */\n  dup3\n  shl\n    /* \"#utility.yul\":4203:4208   */\n  jump(tag_99)\n    /* \"#utility.yul\":4000:4218   */\ntag_102:\n  pop\n    /* \"#utility.yul\":4302:4304   */\n  0x20\n    /* \"#utility.yul\":4292:4300   */\n  dup4\n    /* \"#utility.yul\":4289:4305   */\n  lt\n    /* \"#utility.yul\":4283:4286   */\n  0x0133\n    /* \"#utility.yul\":4277:4281   */\n  dup4\n    /* \"#utility.yul\":4274:4287   */\n  lt\n    /* \"#utility.yul\":4270:4306   */\n  and\n    /* \"#utility.yul\":4264:4266   */\n  0x4e\n    /* \"#utility.yul\":4254:4262   */\n  dup5\n    /* \"#utility.yul\":4251:4267   */\n  lt\n    /* \"#utility.yul\":4246:4248   */\n  0x0b\n    /* \"#utility.yul\":4240:4244   */\n  dup5\n    /* \"#utility.yul\":4237:4249   */\n  lt\n    /* \"#utility.yul\":4233:4268   */\n  and\n    /* \"#utility.yul\":4230:4307   */\n  or\n    /* \"#utility.yul\":4227:4386   */\n  iszero\n  tag_107\n  jumpi\n  pop\n    /* \"#utility.yul\":4339:4358   */\n  dup2\n  dup2\n  exp\n    /* \"#utility.yul\":4371:4376   */\n  jump(tag_99)\n    /* \"#utility.yul\":4227:4386   */\ntag_107:\n    /* \"#utility.yul\":4418:4452   */\n  tag_108\n    /* \"#utility.yul\":4443:4451   */\n  dup4\n    /* \"#utility.yul\":4437:4441   */\n  dup4\n    /* \"#utility.yul\":4418:4452   */\n  tag_58\n  jump\t// in\ntag_108:\n    /* \"#utility.yul\":4488:4494   */\n  dup1\n    /* \"#utility.yul\":4484:4485   */\n  0x00\n    /* \"#utility.yul\":4480:4486   */\n  not\n    /* \"#utility.yul\":4476:4495   */\n  div\n    /* \"#utility.yul\":4467:4474   */\n  dup3\n    /* \"#utility.yul\":4464:4496   */\n  gt\n    /* \"#utility.yul\":4461:4519   */\n  iszero\n  tag_110\n  jumpi\n    /* \"#utility.yul\":4499:4517   */\n  tag_110\n  tag_57\n  jump\t// in\ntag_110:\n    /* \"#utility.yul\":4537:4557   */\n  mul\n  swap1\n  pop\n    /* \"#utility.yul\":3757:4563   */\ntag_99:\n  swap3\n  swap2\n  pop\n  pop\n  jump\t// out\n    /* \"#utility.yul\":4568:4708   */\ntag_28:\n    /* \"#utility.yul\":4626:4631   */\n  0x00\n    /* \"#utility.yul\":4655:4702   */\n  tag_63\n    /* \"#utility.yul\":4696:4700   */\n  0xff\n    /* \"#utility.yul\":4686:4694   */\n  dup5\n    /* \"#utility.yul\":4682:4701   */\n  and\n    /* \"#utility.yul\":4676:4680   */\n  dup4\n    /* \"#utility.yul\":4655:4702   */\n  tag_59\n  jump\t// in\n    /* \"#utility.yul\":4713:4881   */\ntag_30:\n    /* \"#utility.yul\":4786:4795   */\n  dup1\n  dup3\n  mul\n    /* \"#utility.yul\":4817:4826   */\n  dup2\n  iszero\n    /* \"#utility.yul\":4834:4849   */\n  dup3\n  dup3\n  div\n    /* \"#utility.yul\":4828:4850   */\n  dup5\n  eq\n    /* \"#utility.yul\":4814:4851   */\n  or\n    /* \"#utility.yul\":4804:4875   */\n  tag_99\n  jumpi\n    /* \"#utility.yul\":4855:4873   */\n  tag_99\n  tag_57\n  jump\t// in\n    /* \"#utility.yul\":4886:5011   */\ntag_43:\n    /* \"#utility.yul\":4951:4960   */\n  dup1\n  dup3\n  add\n    /* \"#utility.yul\":4972:4982   */\n  dup1\n  dup3\n  gt\n    /* \"#utility.yul\":4969:5005   */\n  iszero\n  tag_99\n  jumpi\n    /* \"#utility.yul\":4985:5003   */\n  tag_99\n  tag_57\n  jump\t// in\n    /* \"#utility.yul\":5366:5543   */\ntag_60:\n    /* \"CrossChainToken.sol\":568:1696  contract CrossChainToken is NonblockingLzApp, ERC20 {... */\n  mload(0x80)\n  codecopy(0x00, dataOffset(sub_0), dataSize(sub_0))\n  0x00\n  assignImmutable(\"0x2dd41b52be520f2be19c4ebee9680faf4b387bcc0bea79c5109b4351368330e6\")\n  return(0x00, dataSize(sub_0))\nstop\n\nsub_0: assembly {\n        /* \"CrossChainToken.sol\":568:1696  contract CrossChainToken is NonblockingLzApp, ERC20 {... */\n      mstore(0x40, 0x80)\n      jumpi(tag_1, lt(calldatasize, 0x04))\n      shr(0xe0, calldataload(0x00))\n      dup1\n      0x8cfd8f5c\n      gt\n      tag_38\n      jumpi\n      dup1\n      0xbaf3292d\n      gt\n      tag_39\n      jumpi\n      dup1\n      0xdd62ed3e\n      gt\n      tag_40\n      jumpi\n      dup1\n      0xdd62ed3e\n      eq\n      tag_33\n      jumpi\n      dup1\n      0xdf2a5b3b\n      eq\n      tag_34\n      jumpi\n      dup1\n      0xeb8d72b7\n      eq\n      tag_35\n      jumpi\n      dup1\n      0xf2fde38b\n      eq\n      tag_36\n      jumpi\n      dup1\n      0xf5ecbdbc\n      eq\n      tag_37\n      jumpi\n      0x00\n      dup1\n      revert\n    tag_40:\n      dup1\n      0xbaf3292d\n      eq\n      tag_29\n      jumpi\n      dup1\n      0xc4461834\n      eq\n      tag_30\n      jumpi\n      dup1\n      0xcbed8b9c\n      eq\n      tag_31\n      jumpi\n      dup1\n      0xd1deba1f\n      eq\n      tag_32\n      jumpi\n      0x00\n      dup1\n      revert\n    tag_39:\n      dup1\n      0x95d89b41\n      gt\n      tag_41\n      jumpi\n      dup1\n      0x95d89b41\n      eq\n      tag_24\n      jumpi\n      dup1\n      0x9f38369a\n      eq\n      tag_25\n      jumpi\n      dup1\n      0xa6c3d165\n      eq\n      tag_26\n      jumpi\n      dup1\n      0xa9059cbb\n      eq\n      tag_27\n      jumpi\n      dup1\n      0xb353aaa7\n      eq\n      tag_28\n      jumpi\n      0x00\n      dup1\n      revert\n    tag_41:\n      dup1\n      0x8cfd8f5c\n      eq\n      tag_20\n      jumpi\n      dup1\n      0x8da5cb5b\n      eq\n      tag_21\n      jumpi\n      dup1\n      0x90fd50b3\n      eq\n      tag_22\n      jumpi\n      dup1\n      0x950c8a74\n      eq\n      tag_23\n      jumpi\n      0x00\n      dup1\n      revert\n    tag_38:\n      dup1\n      0x3d8b38f6\n      gt\n      tag_42\n      jumpi\n      dup1\n      0x5cdf1649\n      gt\n      tag_43\n      jumpi\n      dup1\n      0x5cdf1649\n      eq\n      tag_15\n      jumpi\n      dup1\n      0x66ad5c8a\n      eq\n      tag_16\n      jumpi\n      dup1\n      0x70a08231\n      eq\n      tag_17\n      jumpi\n      dup1\n      0x715018a6\n      eq\n      tag_18\n      jumpi\n      dup1\n      0x7533d788\n      eq\n      tag_19\n      jumpi\n      0x00\n      dup1\n      revert\n    tag_43:\n      dup1\n      0x3d8b38f6\n      eq\n      tag_11\n      jumpi\n      dup1\n      0x3f1f4fa4\n      eq\n      tag_12\n      jumpi\n      dup1\n      0x42d65a8d\n      eq\n      tag_13\n      jumpi\n      dup1\n      0x5b8c41e6\n      eq\n      tag_14\n      jumpi\n      0x00\n      dup1\n      revert\n    tag_42:\n      dup1\n      0x0df37483\n      gt\n      tag_44\n      jumpi\n      dup1\n      0x0df37483\n      eq\n      tag_6\n      jumpi\n      dup1\n      0x10ddb137\n      eq\n      tag_7\n      jumpi\n      dup1\n      0x18160ddd\n      eq\n      tag_8\n      jumpi\n      dup1\n      0x23b872dd\n      eq\n      tag_9\n      jumpi\n      dup1\n      0x313ce567\n      eq\n      tag_10\n      jumpi\n      0x00\n      dup1\n      revert\n    tag_44:\n      dup1\n      0x1d3567\n      eq\n      tag_2\n      jumpi\n      dup1\n      0x06fdde03\n      eq\n      tag_3\n      jumpi\n      dup1\n      0x07e0db17\n      eq\n      tag_4\n      jumpi\n      dup1\n      0x095ea7b3\n      eq\n      tag_5\n      jumpi\n    tag_1:\n      0x00\n      dup1\n      revert\n        /* \"https://github.com/LayerZero-Labs/solidity-examples/blob/main/contracts/lzApp/LzApp.sol\":1256:2081  function lzReceive(... */\n    tag_2:\n      callvalue\n      dup1\n      iszero\n      tag_45\n      jumpi\n      0x00\n      dup1\n      revert\n    tag_45:\n      pop\n      tag_46\n      tag_47\n      calldatasize\n      0x04\n      tag_48\n      jump\t// in\n    tag_47:\n      tag_49\n      jump\t// in\n    tag_46:\n      stop\n        /* \"@openzeppelin/contracts/token/ERC20/ERC20.sol\":2074:2163  function name() public view virtual returns (string memory) {... */\n    tag_3:\n      callvalue\n      dup1\n      iszero\n      tag_50\n      jumpi\n      0x00\n      dup1\n      revert\n    tag_50:\n      pop\n      tag_51\n      tag_52\n      jump\t// in\n    tag_51:\n      mload(0x40)\n      tag_53\n      swap2\n      swap1\n      tag_54\n      jump\t// in\n    tag_53:\n      mload(0x40)\n      dup1\n      swap2\n      sub\n      swap1\n      return\n        /* \"https://github.com/LayerZero-Labs/solidity-examples/blob/main/contracts/lzApp/LzApp.sol\":4791:4912  function setSendVersion(uint16 _version) external override onlyOwner {... */\n    tag_4:\n      callvalue\n      dup1\n      iszero\n      tag_55\n      jumpi\n      0x00\n      dup1\n      revert\n    tag_55:\n      pop\n      tag_46\n      tag_57\n      calldatasize\n      0x04\n      tag_58\n      jump\t// in\n    tag_57:\n      tag_59\n      jump\t// in\n        /* \"@openzeppelin/contracts/token/ERC20/ERC20.sol\":4293:4479  function approve(address spender, uint256 value) public virtual returns (bool) {... */\n    tag_5:\n      callvalue\n      dup1\n      iszero\n      tag_60\n      jumpi\n      0x00\n      dup1\n      revert\n    tag_60:\n      pop\n      tag_61\n      tag_62\n      calldatasize\n      0x04\n      tag_63\n      jump\t// in\n    tag_62:\n      tag_64\n      jump\t// in\n    tag_61:\n      mload(0x40)\n        /* \"#utility.yul\":3139:3153   */\n      swap1\n      iszero\n        /* \"#utility.yul\":3132:3154   */\n      iszero\n        /* \"#utility.yul\":3114:3155   */\n      dup2\n      mstore\n        /* \"#utility.yul\":3102:3104   */\n      0x20\n        /* \"#utility.yul\":3087:3105   */\n      add\n        /* \"@openzeppelin/contracts/token/ERC20/ERC20.sol\":4293:4479  function approve(address spender, uint256 value) public virtual returns (bool) {... */\n      tag_53\n        /* \"#utility.yul\":2974:3161   */\n      jump\n        /* \"https://github.com/LayerZero-Labs/solidity-examples/blob/main/contracts/lzApp/LzApp.sol\":6649:6789  function setPayloadSizeLimit(uint16 _dstChainId, uint _size) external onlyOwner {... */\n    tag_6:\n      callvalue\n      dup1\n      iszero\n      tag_67\n      jumpi\n      0x00\n      dup1\n      revert\n    tag_67:\n      pop\n      tag_46\n      tag_69\n      calldatasize\n      0x04\n      tag_70\n      jump\t// in\n    tag_69:\n      tag_71\n      jump\t// in\n        /* \"https://github.com/LayerZero-Labs/solidity-examples/blob/main/contracts/lzApp/LzApp.sol\":4918:5045  function setReceiveVersion(uint16 _version) external override onlyOwner {... */\n    tag_7:\n      callvalue\n      dup1\n      iszero\n      tag_72\n      jumpi\n      0x00\n      dup1\n      revert\n    tag_72:\n      pop\n      tag_46\n      tag_74\n      calldatasize\n      0x04\n      tag_58\n      jump\t// in\n    tag_74:\n      tag_75\n      jump\t// in\n        /* \"@openzeppelin/contracts/token/ERC20/ERC20.sol\":3144:3241  function totalSupply() public view virtual returns (uint256) {... */\n    tag_8:\n      callvalue\n      dup1\n      iszero\n      tag_76\n      jumpi\n      0x00\n      dup1\n      revert\n    tag_76:\n      pop\n        /* \"@openzeppelin/contracts/token/ERC20/ERC20.sol\":3222:3234  _totalSupply */\n      sload(0x08)\n        /* \"@openzeppelin/contracts/token/ERC20/ERC20.sol\":3144:3241  function totalSupply() public view virtual returns (uint256) {... */\n    tag_77:\n      mload(0x40)\n        /* \"#utility.yul\":3569:3594   */\n      swap1\n      dup2\n      mstore\n        /* \"#utility.yul\":3557:3559   */\n      0x20\n        /* \"#utility.yul\":3542:3560   */\n      add\n        /* \"@openzeppelin/contracts/token/ERC20/ERC20.sol\":3144:3241  function totalSupply() public view virtual returns (uint256) {... */\n      tag_53\n        /* \"#utility.yul\":3423:3600   */\n      jump\n        /* \"@openzeppelin/contracts/token/ERC20/ERC20.sol\":5039:5283  function transferFrom(address from, address to, uint256 value) public virtual returns (bool) {... */\n    tag_9:\n      callvalue\n      dup1\n      iszero\n      tag_81\n      jumpi\n      0x00\n      dup1\n      revert\n    tag_81:\n      pop\n      tag_61\n      tag_83\n      calldatasize\n      0x04\n      tag_84\n      jump\t// in\n    tag_83:\n      tag_85\n      jump\t// in\n        /* \"@openzeppelin/contracts/token/ERC20/ERC20.sol\":3002:3084  function decimals() public view virtual returns (uint8) {... */\n    tag_10:\n      callvalue\n      dup1\n      iszero\n      tag_87\n      jumpi\n      0x00\n      dup1\n      revert\n    tag_87:\n      pop\n      mload(0x40)\n        /* \"@openzeppelin/contracts/token/ERC20/ERC20.sol\":3075:3077  18 */\n      0x12\n        /* \"#utility.yul\":4208:4244   */\n      dup2\n      mstore\n        /* \"#utility.yul\":4196:4198   */\n      0x20\n        /* \"#utility.yul\":4181:4199   */\n      add\n        /* \"@openzeppelin/contracts/token/ERC20/ERC20.sol\":3002:3084  function decimals() public view virtual returns (uint8) {... */\n      tag_53\n        /* \"#utility.yul\":4066:4250   */\n      jump\n        /* \"https://github.com/LayerZero-Labs/solidity-examples/blob/main/contracts/lzApp/LzApp.sol\":6884:7131  function isTrustedRemote(uint16 _srcChainId, bytes calldata _srcAddress) external view returns (bool) {... */\n    tag_11:\n      callvalue\n      dup1\n      iszero\n      tag_92\n      jumpi\n      0x00\n      dup1\n      revert\n    tag_92:\n      pop\n      tag_61\n      tag_94\n      calldatasize\n      0x04\n      tag_95\n      jump\t// in\n    tag_94:\n      tag_96\n      jump\t// in\n        /* \"https://github.com/LayerZero-Labs/solidity-examples/blob/main/contracts/lzApp/LzApp.sol\":810:863  mapping(uint16 => uint) public payloadSizeLimitLookup */\n    tag_12:\n      callvalue\n      dup1\n      iszero\n      tag_98\n      jumpi\n      0x00\n      dup1\n      revert\n    tag_98:\n      pop\n      tag_77\n      tag_100\n      calldatasize\n      0x04\n      tag_58\n      jump\t// in\n    tag_100:\n      mstore(0x20, 0x03)\n      0x00\n      swap1\n      dup2\n      mstore\n      0x40\n      swap1\n      keccak256\n      sload\n      dup2\n      jump\n        /* \"https://github.com/LayerZero-Labs/solidity-examples/blob/main/contracts/lzApp/LzApp.sol\":5051:5227  function forceResumeReceive(uint16 _srcChainId, bytes calldata _srcAddress) external override onlyOwner {... */\n    tag_13:\n      callvalue\n      dup1\n      iszero\n      tag_103\n      jumpi\n      0x00\n      dup1\n      revert\n    tag_103:\n      pop\n      tag_46\n      tag_105\n      calldatasize\n      0x04\n      tag_95\n      jump\t// in\n    tag_105:\n      tag_106\n      jump\t// in\n        /* \"https://github.com/LayerZero-Labs/solidity-examples/blob/main/contracts/lzApp/NonblockingLzApp.sol\":622:707  mapping(uint16 => mapping(bytes => mapping(uint64 => bytes32))) public failedMessages */\n    tag_14:\n      callvalue\n      dup1\n      iszero\n      tag_107\n      jumpi\n      0x00\n      dup1\n      revert\n    tag_107:\n      pop\n      tag_77\n      tag_109\n      calldatasize\n      0x04\n      tag_110\n      jump\t// in\n    tag_109:\n      0x05\n      0x20\n      swap1\n      dup2\n      mstore\n      0x00\n      swap4\n      dup5\n      mstore\n      0x40\n      dup1\n      dup6\n      keccak256\n      dup5\n      mload\n      dup1\n      dup7\n      add\n      dup5\n      add\n      dup1\n      mload\n      swap3\n      dup2\n      mstore\n      swap1\n      dup5\n      add\n      swap6\n      dup5\n      add\n      swap6\n      swap1\n      swap6\n      keccak256\n      swap5\n      mstore\n      swap3\n      swap1\n      mstore\n      dup3\n      mstore\n      swap1\n      keccak256\n      sload\n      dup2\n      jump\n        /* \"CrossChainToken.sol\":1526:1693  function trustAddress(address _otherContract) public onlyOwner {... */\n    tag_15:\n      callvalue\n      dup1\n      iszero\n      tag_114\n      jumpi\n      0x00\n      dup1\n      revert\n    tag_114:\n      pop\n      tag_46\n      tag_116\n      calldatasize\n      0x04\n      tag_117\n      jump\t// in\n    tag_116:\n      tag_118\n      jump\t// in\n        /* \"https://github.com/LayerZero-Labs/solidity-examples/blob/main/contracts/lzApp/NonblockingLzApp.sol\":1912:2292  function nonblockingLzReceive(... */\n    tag_16:\n      callvalue\n      dup1\n      iszero\n      tag_119\n      jumpi\n      0x00\n      dup1\n      revert\n    tag_119:\n      pop\n      tag_46\n      tag_121\n      calldatasize\n      0x04\n      tag_48\n      jump\t// in\n    tag_121:\n      tag_122\n      jump\t// in\n        /* \"@openzeppelin/contracts/token/ERC20/ERC20.sol\":3299:3415  function balanceOf(address account) public view virtual returns (uint256) {... */\n    tag_17:\n      callvalue\n      dup1\n      iszero\n      tag_123\n      jumpi\n      0x00\n      dup1\n      revert\n    tag_123:\n      pop\n      tag_77\n      tag_125\n      calldatasize\n      0x04\n      tag_117\n      jump\t// in\n    tag_125:\n      sub(shl(0xa0, 0x01), 0x01)\n        /* \"@openzeppelin/contracts/token/ERC20/ERC20.sol\":3390:3408  _balances[account] */\n      and\n        /* \"@openzeppelin/contracts/token/ERC20/ERC20.sol\":3364:3371  uint256 */\n      0x00\n        /* \"@openzeppelin/contracts/token/ERC20/ERC20.sol\":3390:3408  _balances[account] */\n      swap1\n      dup2\n      mstore\n        /* \"@openzeppelin/contracts/token/ERC20/ERC20.sol\":3390:3399  _balances */\n      0x06\n        /* \"@openzeppelin/contracts/token/ERC20/ERC20.sol\":3390:3408  _balances[account] */\n      0x20\n      mstore\n      0x40\n      swap1\n      keccak256\n      sload\n      swap1\n        /* \"@openzeppelin/contracts/token/ERC20/ERC20.sol\":3299:3415  function balanceOf(address account) public view virtual returns (uint256) {... */\n      jump\n        /* \"@openzeppelin/contracts/access/Ownable.sol\":2293:2394  function renounceOwnership() public virtual onlyOwner {... */\n    tag_18:\n      callvalue\n      dup1\n      iszero\n      tag_128\n      jumpi\n      0x00\n      dup1\n      revert\n    tag_128:\n      pop\n      tag_46\n      tag_130\n      jump\t// in\n        /* \"https://github.com/LayerZero-Labs/solidity-examples/blob/main/contracts/lzApp/LzApp.sol\":682:733  mapping(uint16 => bytes) public trustedRemoteLookup */\n    tag_19:\n      callvalue\n      dup1\n      iszero\n      tag_131\n      jumpi\n      0x00\n      dup1\n      revert\n    tag_131:\n      pop\n      tag_51\n      tag_133\n      calldatasize\n      0x04\n      tag_58\n      jump\t// in\n    tag_133:\n      tag_134\n      jump\t// in\n        /* \"https://github.com/LayerZero-Labs/solidity-examples/blob/main/contracts/lzApp/LzApp.sol\":739:804  mapping(uint16 => mapping(uint16 => uint)) public minDstGasLookup */\n    tag_20:\n      callvalue\n      dup1\n      iszero\n      tag_137\n      jumpi\n      0x00\n      dup1\n      revert\n    tag_137:\n      pop\n      tag_77\n      tag_139\n      calldatasize\n      0x04\n      tag_140\n      jump\t// in\n    tag_139:\n      0x02\n      0x20\n      swap1\n      dup2\n      mstore\n      0x00\n      swap3\n      dup4\n      mstore\n      0x40\n      dup1\n      dup5\n      keccak256\n      swap1\n      swap2\n      mstore\n      swap1\n      dup3\n      mstore\n      swap1\n      keccak256\n      sload\n      dup2\n      jump\n        /* \"@openzeppelin/contracts/access/Ownable.sol\":1638:1723  function owner() public view virtual returns (address) {... */\n    tag_21:\n      callvalue\n      dup1\n      iszero\n      tag_143\n      jumpi\n      0x00\n      dup1\n      revert\n    tag_143:\n      pop\n        /* \"@openzeppelin/contracts/access/Ownable.sol\":1684:1691  address */\n      0x00\n        /* \"@openzeppelin/contracts/access/Ownable.sol\":1710:1716  _owner */\n      sload\n      sub(shl(0xa0, 0x01), 0x01)\n      and\n        /* \"@openzeppelin/contracts/access/Ownable.sol\":1638:1723  function owner() public view virtual returns (address) {... */\n    tag_144:\n      mload(0x40)\n      sub(shl(0xa0, 0x01), 0x01)\n        /* \"#utility.yul\":7246:7278   */\n      swap1\n      swap2\n      and\n        /* \"#utility.yul\":7228:7279   */\n      dup2\n      mstore\n        /* \"#utility.yul\":7216:7218   */\n      0x20\n        /* \"#utility.yul\":7201:7219   */\n      add\n        /* \"@openzeppelin/contracts/access/Ownable.sol\":1638:1723  function owner() public view virtual returns (address) {... */\n      tag_53\n        /* \"#utility.yul\":7082:7285   */\n      jump\n        /* \"CrossChainToken.sol\":1266:1518  function bridge(uint _amount) public payable {... */\n    tag_22:\n      tag_46\n      tag_149\n      calldatasize\n      0x04\n      tag_150\n      jump\t// in\n    tag_149:\n      tag_151\n      jump\t// in\n        /* \"https://github.com/LayerZero-Labs/solidity-examples/blob/main/contracts/lzApp/LzApp.sol\":869:892  address public precrime */\n    tag_23:\n      callvalue\n      dup1\n      iszero\n      tag_152\n      jumpi\n      0x00\n      dup1\n      revert\n    tag_152:\n      pop\n      sload(0x04)\n      tag_144\n      swap1\n      sub(shl(0xa0, 0x01), 0x01)\n      and\n      dup2\n      jump\n        /* \"@openzeppelin/contracts/token/ERC20/ERC20.sol\":2276:2369  function symbol() public view virtual returns (string memory) {... */\n    tag_24:\n      callvalue\n      dup1\n      iszero\n      tag_156\n      jumpi\n      0x00\n      dup1\n      revert\n    tag_156:\n      pop\n      tag_51\n      tag_158\n      jump\t// in\n        /* \"https://github.com/LayerZero-Labs/solidity-examples/blob/main/contracts/lzApp/LzApp.sol\":5864:6190  function getTrustedRemoteAddress(uint16 _remoteChainId) external view returns (bytes memory) {... */\n    tag_25:\n      callvalue\n      dup1\n      iszero\n      tag_160\n      jumpi\n      0x00\n      dup1\n      revert\n    tag_160:\n      pop\n      tag_51\n      tag_162\n      calldatasize\n      0x04\n      tag_58\n      jump\t// in\n    tag_162:\n      tag_163\n      jump\t// in\n        /* \"https://github.com/LayerZero-Labs/solidity-examples/blob/main/contracts/lzApp/LzApp.sol\":5580:5858  function setTrustedRemoteAddress(uint16 _remoteChainId, bytes calldata _remoteAddress) external onlyOwner {... */\n    tag_26:\n      callvalue\n      dup1\n      iszero\n      tag_165\n      jumpi\n      0x00\n      dup1\n      revert\n    tag_165:\n      pop\n      tag_46\n      tag_167\n      calldatasize\n      0x04\n      tag_95\n      jump\t// in\n    tag_167:\n      tag_168\n      jump\t// in\n        /* \"@openzeppelin/contracts/token/ERC20/ERC20.sol\":3610:3788  function transfer(address to, uint256 value) public virtual returns (bool) {... */\n    tag_27:\n      callvalue\n      dup1\n      iszero\n      tag_169\n      jumpi\n      0x00\n      dup1\n      revert\n    tag_169:\n      pop\n      tag_61\n      tag_171\n      calldatasize\n      0x04\n      tag_63\n      jump\t// in\n    tag_171:\n      tag_172\n      jump\t// in\n        /* \"https://github.com/LayerZero-Labs/solidity-examples/blob/main/contracts/lzApp/LzApp.sol\":630:676  ILayerZeroEndpoint public immutable lzEndpoint */\n    tag_28:\n      callvalue\n      dup1\n      iszero\n      tag_174\n      jumpi\n      0x00\n      dup1\n      revert\n    tag_174:\n      pop\n      tag_144\n      immutable(\"0x2dd41b52be520f2be19c4ebee9680faf4b387bcc0bea79c5109b4351368330e6\")\n      dup2\n      jump\n        /* \"https://github.com/LayerZero-Labs/solidity-examples/blob/main/contracts/lzApp/LzApp.sol\":6196:6329  function setPrecrime(address _precrime) external onlyOwner {... */\n    tag_29:\n      callvalue\n      dup1\n      iszero\n      tag_179\n      jumpi\n      0x00\n      dup1\n      revert\n    tag_179:\n      pop\n      tag_46\n      tag_181\n      calldatasize\n      0x04\n      tag_117\n      jump\t// in\n    tag_181:\n      tag_182\n      jump\t// in\n        /* \"https://github.com/LayerZero-Labs/solidity-examples/blob/main/contracts/lzApp/LzApp.sol\":568:623  uint public constant DEFAULT_PAYLOAD_SIZE_LIMIT = 10000 */\n    tag_30:\n      callvalue\n      dup1\n      iszero\n      tag_183\n      jumpi\n      0x00\n      dup1\n      revert\n    tag_183:\n      pop\n      tag_77\n        /* \"https://github.com/LayerZero-Labs/solidity-examples/blob/main/contracts/lzApp/LzApp.sol\":618:623  10000 */\n      0x2710\n        /* \"https://github.com/LayerZero-Labs/solidity-examples/blob/main/contracts/lzApp/LzApp.sol\":568:623  uint public constant DEFAULT_PAYLOAD_SIZE_LIMIT = 10000 */\n      dup2\n      jump\n        /* \"https://github.com/LayerZero-Labs/solidity-examples/blob/main/contracts/lzApp/LzApp.sol\":4545:4785  function setConfig(... */\n    tag_31:\n      callvalue\n      dup1\n      iszero\n      tag_187\n      jumpi\n      0x00\n      dup1\n      revert\n    tag_187:\n      pop\n      tag_46\n      tag_189\n      calldatasize\n      0x04\n      tag_190\n      jump\t// in\n    tag_189:\n      tag_191\n      jump\t// in\n        /* \"https://github.com/LayerZero-Labs/solidity-examples/blob/main/contracts/lzApp/NonblockingLzApp.sol\":2511:3306  function retryMessage(... */\n    tag_32:\n      tag_46\n      tag_193\n      calldatasize\n      0x04\n      tag_48\n      jump\t// in\n    tag_193:\n      tag_194\n      jump\t// in\n        /* \"@openzeppelin/contracts/token/ERC20/ERC20.sol\":3846:3986  function allowance(address owner, address spender) public view virtual returns (uint256) {... */\n    tag_33:\n      callvalue\n      dup1\n      iszero\n      tag_195\n      jumpi\n      0x00\n      dup1\n      revert\n    tag_195:\n      pop\n      tag_77\n      tag_197\n      calldatasize\n      0x04\n      tag_198\n      jump\t// in\n    tag_197:\n      sub(shl(0xa0, 0x01), 0x01)\n        /* \"@openzeppelin/contracts/token/ERC20/ERC20.sol\":3952:3970  _allowances[owner] */\n      swap2\n      dup3\n      and\n        /* \"@openzeppelin/contracts/token/ERC20/ERC20.sol\":3926:3933  uint256 */\n      0x00\n        /* \"@openzeppelin/contracts/token/ERC20/ERC20.sol\":3952:3970  _allowances[owner] */\n      swap1\n      dup2\n      mstore\n        /* \"@openzeppelin/contracts/token/ERC20/ERC20.sol\":3952:3963  _allowances */\n      0x07\n        /* \"@openzeppelin/contracts/token/ERC20/ERC20.sol\":3952:3970  _allowances[owner] */\n      0x20\n      swap1\n      dup2\n      mstore\n      0x40\n      dup1\n      dup4\n      keccak256\n        /* \"@openzeppelin/contracts/token/ERC20/ERC20.sol\":3952:3979  _allowances[owner][spender] */\n      swap4\n      swap1\n      swap5\n      and\n      dup3\n      mstore\n      swap2\n      swap1\n      swap2\n      mstore\n      keccak256\n      sload\n      swap1\n        /* \"@openzeppelin/contracts/token/ERC20/ERC20.sol\":3846:3986  function allowance(address owner, address spender) public view virtual returns (uint256) {... */\n      jump\n        /* \"https://github.com/LayerZero-Labs/solidity-examples/blob/main/contracts/lzApp/LzApp.sol\":6335:6590  function setMinDstGas(... */\n    tag_34:\n      callvalue\n      dup1\n      iszero\n      tag_201\n      jumpi\n      0x00\n      dup1\n      revert\n    tag_201:\n      pop\n      tag_46\n      tag_203\n      calldatasize\n      0x04\n      tag_204\n      jump\t// in\n    tag_203:\n      tag_205\n      jump\t// in\n        /* \"https://github.com/LayerZero-Labs/solidity-examples/blob/main/contracts/lzApp/LzApp.sol\":5370:5574  function setTrustedRemote(uint16 _remoteChainId, bytes calldata _path) external onlyOwner {... */\n    tag_35:\n      callvalue\n      dup1\n      iszero\n      tag_206\n      jumpi\n      0x00\n      dup1\n      revert\n    tag_206:\n      pop\n      tag_46\n      tag_208\n      calldatasize\n      0x04\n      tag_95\n      jump\t// in\n    tag_208:\n      tag_209\n      jump\t// in\n        /* \"@openzeppelin/contracts/access/Ownable.sol\":2543:2758  function transferOwnership(address newOwner) public virtual onlyOwner {... */\n    tag_36:\n      callvalue\n      dup1\n      iszero\n      tag_210\n      jumpi\n      0x00\n      dup1\n      revert\n    tag_210:\n      pop\n      tag_46\n      tag_212\n      calldatasize\n      0x04\n      tag_117\n      jump\t// in\n    tag_212:\n      tag_213\n      jump\t// in\n        /* \"https://github.com/LayerZero-Labs/solidity-examples/blob/main/contracts/lzApp/LzApp.sol\":4239:4486  function getConfig(... */\n    tag_37:\n      callvalue\n      dup1\n      iszero\n      tag_214\n      jumpi\n      0x00\n      dup1\n      revert\n    tag_214:\n      pop\n      tag_51\n      tag_216\n      calldatasize\n      0x04\n      tag_217\n      jump\t// in\n    tag_216:\n      tag_218\n      jump\t// in\n        /* \"https://github.com/LayerZero-Labs/solidity-examples/blob/main/contracts/lzApp/LzApp.sol\":1256:2081  function lzReceive(... */\n    tag_49:\n        /* \"@openzeppelin/contracts/utils/Context.sol\":735:745  msg.sender */\n      caller\n        /* \"https://github.com/LayerZero-Labs/solidity-examples/blob/main/contracts/lzApp/LzApp.sol\":1532:1542  lzEndpoint */\n      immutable(\"0x2dd41b52be520f2be19c4ebee9680faf4b387bcc0bea79c5109b4351368330e6\")\n      sub(shl(0xa0, 0x01), 0x01)\n        /* \"https://github.com/LayerZero-Labs/solidity-examples/blob/main/contracts/lzApp/LzApp.sol\":1508:1543  _msgSender() == address(lzEndpoint) */\n      and\n      eq\n        /* \"https://github.com/LayerZero-Labs/solidity-examples/blob/main/contracts/lzApp/LzApp.sol\":1500:1578  require(_msgSender() == address(lzEndpoint), \"LzApp: invalid endpoint caller\") */\n      tag_223\n      jumpi\n      mload(0x40)\n      shl(0xe5, 0x461bcd)\n      dup2\n      mstore\n        /* \"#utility.yul\":9726:9728   */\n      0x20\n        /* \"https://github.com/LayerZero-Labs/solidity-examples/blob/main/contracts/lzApp/LzApp.sol\":1500:1578  require(_msgSender() == address(lzEndpoint), \"LzApp: invalid endpoint caller\") */\n      0x04\n      dup3\n      add\n        /* \"#utility.yul\":9708:9729   */\n      mstore\n        /* \"#utility.yul\":9765:9767   */\n      0x1e\n        /* \"#utility.yul\":9745:9763   */\n      0x24\n      dup3\n      add\n        /* \"#utility.yul\":9738:9768   */\n      mstore\n        /* \"#utility.yul\":9804:9836   */\n      0x4c7a4170703a20696e76616c696420656e64706f696e742063616c6c65720000\n        /* \"#utility.yul\":9784:9802   */\n      0x44\n      dup3\n      add\n        /* \"#utility.yul\":9777:9837   */\n      mstore\n        /* \"#utility.yul\":9854:9872   */\n      0x64\n      add\n        /* \"https://github.com/LayerZero-Labs/solidity-examples/blob/main/contracts/lzApp/LzApp.sol\":1500:1578  require(_msgSender() == address(lzEndpoint), \"LzApp: invalid endpoint caller\") */\n    tag_224:\n      mload(0x40)\n      dup1\n      swap2\n      sub\n      swap1\n      revert\n    tag_223:\n        /* \"https://github.com/LayerZero-Labs/solidity-examples/blob/main/contracts/lzApp/LzApp.sol\":1618:1650  trustedRemoteLookup[_srcChainId] */\n      0xffff\n      dup7\n      and\n        /* \"https://github.com/LayerZero-Labs/solidity-examples/blob/main/contracts/lzApp/LzApp.sol\":1589:1615  bytes memory trustedRemote */\n      0x00\n        /* \"https://github.com/LayerZero-Labs/solidity-examples/blob/main/contracts/lzApp/LzApp.sol\":1618:1650  trustedRemoteLookup[_srcChainId] */\n      swap1\n      dup2\n      mstore\n        /* \"https://github.com/LayerZero-Labs/solidity-examples/blob/main/contracts/lzApp/LzApp.sol\":1618:1637  trustedRemoteLookup */\n      0x01\n        /* \"https://github.com/LayerZero-Labs/solidity-examples/blob/main/contracts/lzApp/LzApp.sol\":1618:1650  trustedRemoteLookup[_srcChainId] */\n      0x20\n      mstore\n      0x40\n      dup2\n      keccak256\n        /* \"https://github.com/LayerZero-Labs/solidity-examples/blob/main/contracts/lzApp/LzApp.sol\":1589:1650  bytes memory trustedRemote = trustedRemoteLookup[_srcChainId] */\n      dup1\n      sload\n      tag_226\n      swap1\n      tag_227\n      jump\t// in\n    tag_226:\n      dup1\n      0x1f\n      add\n      0x20\n      dup1\n      swap2\n      div\n      mul\n      0x20\n      add\n      mload(0x40)\n      swap1\n      dup2\n      add\n      0x40\n      mstore\n      dup1\n      swap3\n      swap2\n      swap1\n      dup2\n      dup2\n      mstore\n      0x20\n      add\n      dup3\n      dup1\n      sload\n      tag_228\n      swap1\n      tag_227\n      jump\t// in\n    tag_228:\n      dup1\n      iszero\n      tag_229\n      jumpi\n      dup1\n      0x1f\n      lt\n      tag_230\n      jumpi\n      0x0100\n      dup1\n      dup4\n      sload\n      div\n      mul\n      dup4\n      mstore\n      swap2\n      0x20\n      add\n      swap2\n      jump(tag_229)\n    tag_230:\n      dup3\n      add\n      swap2\n      swap1\n      0x00\n      mstore\n      keccak256(0x00, 0x20)\n      swap1\n    tag_231:\n      dup2\n      sload\n      dup2\n      mstore\n      swap1\n      0x01\n      add\n      swap1\n      0x20\n      add\n      dup1\n      dup4\n      gt\n      tag_231\n      jumpi\n      dup3\n      swap1\n      sub\n      0x1f\n      and\n      dup3\n      add\n      swap2\n    tag_229:\n      pop\n      pop\n      pop\n      pop\n      pop\n      swap1\n      pop\n        /* \"https://github.com/LayerZero-Labs/solidity-examples/blob/main/contracts/lzApp/LzApp.sol\":1835:1848  trustedRemote */\n      dup1\n        /* \"https://github.com/LayerZero-Labs/solidity-examples/blob/main/contracts/lzApp/LzApp.sol\":1835:1855  trustedRemote.length */\n      mload\n        /* \"https://github.com/LayerZero-Labs/solidity-examples/blob/main/contracts/lzApp/LzApp.sol\":1813:1824  _srcAddress */\n      dup7\n      dup7\n        /* \"https://github.com/LayerZero-Labs/solidity-examples/blob/main/contracts/lzApp/LzApp.sol\":1813:1831  _srcAddress.length */\n      swap1\n      pop\n        /* \"https://github.com/LayerZero-Labs/solidity-examples/blob/main/contracts/lzApp/LzApp.sol\":1813:1855  _srcAddress.length == trustedRemote.length */\n      eq\n        /* \"https://github.com/LayerZero-Labs/solidity-examples/blob/main/contracts/lzApp/LzApp.sol\":1813:1883  _srcAddress.length == trustedRemote.length && trustedRemote.length > 0 */\n      dup1\n      iszero\n      tag_232\n      jumpi\n      pop\n        /* \"https://github.com/LayerZero-Labs/solidity-examples/blob/main/contracts/lzApp/LzApp.sol\":1882:1883  0 */\n      0x00\n        /* \"https://github.com/LayerZero-Labs/solidity-examples/blob/main/contracts/lzApp/LzApp.sol\":1859:1872  trustedRemote */\n      dup2\n        /* \"https://github.com/LayerZero-Labs/solidity-examples/blob/main/contracts/lzApp/LzApp.sol\":1859:1879  trustedRemote.length */\n      mload\n        /* \"https://github.com/LayerZero-Labs/solidity-examples/blob/main/contracts/lzApp/LzApp.sol\":1859:1883  trustedRemote.length > 0 */\n      gt\n        /* \"https://github.com/LayerZero-Labs/solidity-examples/blob/main/contracts/lzApp/LzApp.sol\":1813:1883  _srcAddress.length == trustedRemote.length && trustedRemote.length > 0 */\n    tag_232:\n        /* \"https://github.com/LayerZero-Labs/solidity-examples/blob/main/contracts/lzApp/LzApp.sol\":1813:1937  _srcAddress.length == trustedRemote.length && trustedRemote.length > 0 && keccak256(_srcAddress) == keccak256(trustedRemote) */\n      dup1\n      iszero\n      tag_233\n      jumpi\n      pop\n        /* \"https://github.com/LayerZero-Labs/solidity-examples/blob/main/contracts/lzApp/LzApp.sol\":1913:1937  keccak256(trustedRemote) */\n      dup1\n      mload\n      0x20\n      dup3\n      add\n      keccak256\n        /* \"https://github.com/LayerZero-Labs/solidity-examples/blob/main/contracts/lzApp/LzApp.sol\":1887:1909  keccak256(_srcAddress) */\n      mload(0x40)\n      tag_234\n      swap1\n        /* \"https://github.com/LayerZero-Labs/solidity-examples/blob/main/contracts/lzApp/LzApp.sol\":1897:1908  _srcAddress */\n      dup9\n      swap1\n      dup9\n      swap1\n        /* \"https://github.com/LayerZero-Labs/solidity-examples/blob/main/contracts/lzApp/LzApp.sol\":1887:1909  keccak256(_srcAddress) */\n      tag_235\n      jump\t// in\n    tag_234:\n      mload(0x40)\n      dup1\n      swap2\n      sub\n      swap1\n      keccak256\n        /* \"https://github.com/LayerZero-Labs/solidity-examples/blob/main/contracts/lzApp/LzApp.sol\":1887:1937  keccak256(_srcAddress) == keccak256(trustedRemote) */\n      eq\n        /* \"https://github.com/LayerZero-Labs/solidity-examples/blob/main/contracts/lzApp/LzApp.sol\":1813:1937  _srcAddress.length == trustedRemote.length && trustedRemote.length > 0 && keccak256(_srcAddress) == keccak256(trustedRemote) */\n    tag_233:\n        /* \"https://github.com/LayerZero-Labs/solidity-examples/blob/main/contracts/lzApp/LzApp.sol\":1792:2001  require(... */\n      tag_236\n      jumpi\n      mload(0x40)\n      shl(0xe5, 0x461bcd)\n      dup2\n      mstore\n        /* \"#utility.yul\":10746:10748   */\n      0x20\n        /* \"https://github.com/LayerZero-Labs/solidity-examples/blob/main/contracts/lzApp/LzApp.sol\":1792:2001  require(... */\n      0x04\n      dup3\n      add\n        /* \"#utility.yul\":10728:10749   */\n      mstore\n        /* \"#utility.yul\":10785:10787   */\n      0x26\n        /* \"#utility.yul\":10765:10783   */\n      0x24\n      dup3\n      add\n        /* \"#utility.yul\":10758:10788   */\n      mstore\n        /* \"#utility.yul\":10824:10858   */\n      0x4c7a4170703a20696e76616c696420736f757263652073656e64696e6720636f\n        /* \"#utility.yul\":10804:10822   */\n      0x44\n      dup3\n      add\n        /* \"#utility.yul\":10797:10859   */\n      mstore\n      shl(0xd2, 0x1b9d1c9858dd)\n        /* \"#utility.yul\":10875:10893   */\n      0x64\n      dup3\n      add\n        /* \"#utility.yul\":10868:10904   */\n      mstore\n        /* \"#utility.yul\":10921:10940   */\n      0x84\n      add\n        /* \"https://github.com/LayerZero-Labs/solidity-examples/blob/main/contracts/lzApp/LzApp.sol\":1792:2001  require(... */\n      tag_224\n        /* \"#utility.yul\":10544:10946   */\n      jump\n        /* \"https://github.com/LayerZero-Labs/solidity-examples/blob/main/contracts/lzApp/LzApp.sol\":1792:2001  require(... */\n    tag_236:\n        /* \"https://github.com/LayerZero-Labs/solidity-examples/blob/main/contracts/lzApp/LzApp.sol\":2012:2074  _blockingLzReceive(_srcChainId, _srcAddress, _nonce, _payload) */\n      tag_239\n        /* \"https://github.com/LayerZero-Labs/solidity-examples/blob/main/contracts/lzApp/LzApp.sol\":2031:2042  _srcChainId */\n      dup8\n        /* \"https://github.com/LayerZero-Labs/solidity-examples/blob/main/contracts/lzApp/LzApp.sol\":2044:2055  _srcAddress */\n      dup8\n      dup8\n        /* \"https://github.com/LayerZero-Labs/solidity-examples/blob/main/contracts/lzApp/LzApp.sol\":2012:2074  _blockingLzReceive(_srcChainId, _srcAddress, _nonce, _payload) */\n      dup1\n      dup1\n      0x1f\n      add\n      0x20\n      dup1\n      swap2\n      div\n      mul\n      0x20\n      add\n      mload(0x40)\n      swap1\n      dup2\n      add\n      0x40\n      mstore\n      dup1\n      swap4\n      swap3\n      swap2\n      swap1\n      dup2\n      dup2\n      mstore\n      0x20\n      add\n      dup4\n      dup4\n      dup1\n      dup3\n      dup5\n      calldatacopy\n      0x00\n      swap3\n      add\n      swap2\n      swap1\n      swap2\n      mstore\n      pop\n      pop\n      0x40\n      dup1\n      mload\n      0x20\n      0x1f\n      dup11\n      add\n      dup2\n      swap1\n      div\n      dup2\n      mul\n      dup3\n      add\n      dup2\n      add\n      swap1\n      swap3\n      mstore\n      dup9\n      dup2\n      mstore\n        /* \"https://github.com/LayerZero-Labs/solidity-examples/blob/main/contracts/lzApp/LzApp.sol\":2057:2063  _nonce */\n      dup11\n      swap4\n      pop\n        /* \"https://github.com/LayerZero-Labs/solidity-examples/blob/main/contracts/lzApp/LzApp.sol\":2012:2074  _blockingLzReceive(_srcChainId, _srcAddress, _nonce, _payload) */\n      swap2\n      pop\n        /* \"https://github.com/LayerZero-Labs/solidity-examples/blob/main/contracts/lzApp/LzApp.sol\":2065:2073  _payload */\n      dup9\n      swap1\n      dup9\n      swap1\n      dup2\n      swap1\n        /* \"https://github.com/LayerZero-Labs/solidity-examples/blob/main/contracts/lzApp/LzApp.sol\":2012:2074  _blockingLzReceive(_srcChainId, _srcAddress, _nonce, _payload) */\n      dup5\n      add\n        /* \"https://github.com/LayerZero-Labs/solidity-examples/blob/main/contracts/lzApp/LzApp.sol\":2065:2073  _payload */\n      dup4\n      dup3\n      dup1\n      dup3\n        /* \"https://github.com/LayerZero-Labs/solidity-examples/blob/main/contracts/lzApp/LzApp.sol\":2012:2074  _blockingLzReceive(_srcChainId, _srcAddress, _nonce, _payload) */\n      dup5\n      calldatacopy\n      0x00\n      swap3\n      add\n      swap2\n      swap1\n      swap2\n      mstore\n      pop\n        /* \"https://github.com/LayerZero-Labs/solidity-examples/blob/main/contracts/lzApp/LzApp.sol\":2012:2030  _blockingLzReceive */\n      tag_240\n      swap3\n      pop\n      pop\n      pop\n        /* \"https://github.com/LayerZero-Labs/solidity-examples/blob/main/contracts/lzApp/LzApp.sol\":2012:2074  _blockingLzReceive(_srcChainId, _srcAddress, _nonce, _payload) */\n      jump\t// in\n    tag_239:\n        /* \"https://github.com/LayerZero-Labs/solidity-examples/blob/main/contracts/lzApp/LzApp.sol\":1425:2081  {... */\n      pop\n        /* \"https://github.com/LayerZero-Labs/solidity-examples/blob/main/contracts/lzApp/LzApp.sol\":1256:2081  function lzReceive(... */\n      pop\n      pop\n      pop\n      pop\n      pop\n      pop\n      jump\t// out\n        /* \"@openzeppelin/contracts/token/ERC20/ERC20.sol\":2074:2163  function name() public view virtual returns (string memory) {... */\n    tag_52:\n        /* \"@openzeppelin/contracts/token/ERC20/ERC20.sol\":2119:2132  string memory */\n      0x60\n        /* \"@openzeppelin/contracts/token/ERC20/ERC20.sol\":2151:2156  _name */\n      0x09\n        /* \"@openzeppelin/contracts/token/ERC20/ERC20.sol\":2144:2156  return _name */\n      dup1\n      sload\n      tag_242\n      swap1\n      tag_227\n      jump\t// in\n    tag_242:\n      dup1\n      0x1f\n      add\n      0x20\n      dup1\n      swap2\n      div\n      mul\n      0x20\n      add\n      mload(0x40)\n      swap1\n      dup2\n      add\n      0x40\n      mstore\n      dup1\n      swap3\n      swap2\n      swap1\n      dup2\n      dup2\n      mstore\n      0x20\n      add\n      dup3\n      dup1\n      sload\n      tag_243\n      swap1\n      tag_227\n      jump\t// in\n    tag_243:\n      dup1\n      iszero\n      tag_244\n      jumpi\n      dup1\n      0x1f\n      lt\n      tag_245\n      jumpi\n      0x0100\n      dup1\n      dup4\n      sload\n      div\n      mul\n      dup4\n      mstore\n      swap2\n      0x20\n      add\n      swap2\n      jump(tag_244)\n    tag_245:\n      dup3\n      add\n      swap2\n      swap1\n      0x00\n      mstore\n      keccak256(0x00, 0x20)\n      swap1\n    tag_246:\n      dup2\n      sload\n      dup2\n      mstore\n      swap1\n      0x01\n      add\n      swap1\n      0x20\n      add\n      dup1\n      dup4\n      gt\n      tag_246\n      jumpi\n      dup3\n      swap1\n      sub\n      0x1f\n      and\n      dup3\n      add\n      swap2\n    tag_244:\n      pop\n      pop\n      pop\n      pop\n      pop\n      swap1\n      pop\n        /* \"@openzeppelin/contracts/token/ERC20/ERC20.sol\":2074:2163  function name() public view virtual returns (string memory) {... */\n      swap1\n      jump\t// out\n        /* \"https://github.com/LayerZero-Labs/solidity-examples/blob/main/contracts/lzApp/LzApp.sol\":4791:4912  function setSendVersion(uint16 _version) external override onlyOwner {... */\n    tag_59:\n        /* \"@openzeppelin/contracts/access/Ownable.sol\":1531:1544  _checkOwner() */\n      tag_248\n        /* \"@openzeppelin/contracts/access/Ownable.sol\":1531:1542  _checkOwner */\n      tag_249\n        /* \"@openzeppelin/contracts/access/Ownable.sol\":1531:1544  _checkOwner() */\n      jump\t// in\n    tag_248:\n        /* \"https://github.com/LayerZero-Labs/solidity-examples/blob/main/contracts/lzApp/LzApp.sol\":4870:4905  lzEndpoint.setSendVersion(_version) */\n      mload(0x40)\n      shl(0xe0, 0x07e0db17)\n      dup2\n      mstore\n        /* \"#utility.yul\":11125:11131   */\n      0xffff\n        /* \"#utility.yul\":11113:11132   */\n      dup3\n      and\n        /* \"https://github.com/LayerZero-Labs/solidity-examples/blob/main/contracts/lzApp/LzApp.sol\":4870:4905  lzEndpoint.setSendVersion(_version) */\n      0x04\n      dup3\n      add\n        /* \"#utility.yul\":11095:11133   */\n      mstore\n        /* \"https://github.com/LayerZero-Labs/solidity-examples/blob/main/contracts/lzApp/LzApp.sol\":4870:4880  lzEndpoint */\n      immutable(\"0x2dd41b52be520f2be19c4ebee9680faf4b387bcc0bea79c5109b4351368330e6\")\n      sub(shl(0xa0, 0x01), 0x01)\n        /* \"https://github.com/LayerZero-Labs/solidity-examples/blob/main/contracts/lzApp/LzApp.sol\":4870:4895  lzEndpoint.setSendVersion */\n      and\n      swap1\n      0x07e0db17\n      swap1\n        /* \"#utility.yul\":11068:11086   */\n      0x24\n      add\n        /* \"https://github.com/LayerZero-Labs/solidity-examples/blob/main/contracts/lzApp/LzApp.sol\":4870:4905  lzEndpoint.setSendVersion(_version) */\n    tag_251:\n      0x00\n      mload(0x40)\n      dup1\n      dup4\n      sub\n      dup2\n      0x00\n      dup8\n      dup1\n      extcodesize\n      iszero\n      dup1\n      iszero\n      tag_253\n      jumpi\n      0x00\n      dup1\n      revert\n    tag_253:\n      pop\n      gas\n      call\n      iszero\n      dup1\n      iszero\n      tag_255\n      jumpi\n      returndatasize\n      0x00\n      dup1\n      returndatacopy\n      revert(0x00, returndatasize)\n    tag_255:\n      pop\n      pop\n      pop\n      pop\n        /* \"https://github.com/LayerZero-Labs/solidity-examples/blob/main/contracts/lzApp/LzApp.sol\":4791:4912  function setSendVersion(uint16 _version) external override onlyOwner {... */\n      pop\n      jump\t// out\n        /* \"@openzeppelin/contracts/token/ERC20/ERC20.sol\":4293:4479  function approve(address spender, uint256 value) public virtual returns (bool) {... */\n    tag_64:\n        /* \"@openzeppelin/contracts/token/ERC20/ERC20.sol\":4366:4370  bool */\n      0x00\n        /* \"@openzeppelin/contracts/utils/Context.sol\":735:745  msg.sender */\n      caller\n        /* \"@openzeppelin/contracts/token/ERC20/ERC20.sol\":4420:4451  _approve(owner, spender, value) */\n      tag_258\n        /* \"@openzeppelin/contracts/utils/Context.sol\":735:745  msg.sender */\n      dup2\n        /* \"@openzeppelin/contracts/token/ERC20/ERC20.sol\":4436:4443  spender */\n      dup6\n        /* \"@openzeppelin/contracts/token/ERC20/ERC20.sol\":4445:4450  value */\n      dup6\n        /* \"@openzeppelin/contracts/token/ERC20/ERC20.sol\":4420:4428  _approve */\n      tag_259\n        /* \"@openzeppelin/contracts/token/ERC20/ERC20.sol\":4420:4451  _approve(owner, spender, value) */\n      jump\t// in\n    tag_258:\n        /* \"@openzeppelin/contracts/token/ERC20/ERC20.sol\":4468:4472  true */\n      0x01\n        /* \"@openzeppelin/contracts/token/ERC20/ERC20.sol\":4461:4472  return true */\n      swap2\n      pop\n      pop\n        /* \"@openzeppelin/contracts/token/ERC20/ERC20.sol\":4293:4479  function approve(address spender, uint256 value) public virtual returns (bool) {... */\n    tag_256:\n      swap3\n      swap2\n      pop\n      pop\n      jump\t// out\n        /* \"https://github.com/LayerZero-Labs/solidity-examples/blob/main/contracts/lzApp/LzApp.sol\":6649:6789  function setPayloadSizeLimit(uint16 _dstChainId, uint _size) external onlyOwner {... */\n    tag_71:\n        /* \"@openzeppelin/contracts/access/Ownable.sol\":1531:1544  _checkOwner() */\n      tag_261\n        /* \"@openzeppelin/contracts/access/Ownable.sol\":1531:1542  _checkOwner */\n      tag_249\n        /* \"@openzeppelin/contracts/access/Ownable.sol\":1531:1544  _checkOwner() */\n      jump\t// in\n    tag_261:\n        /* \"https://github.com/LayerZero-Labs/solidity-examples/blob/main/contracts/lzApp/LzApp.sol\":6739:6774  payloadSizeLimitLookup[_dstChainId] */\n      0xffff\n      swap1\n      swap2\n      and\n      0x00\n      swap1\n      dup2\n      mstore\n        /* \"https://github.com/LayerZero-Labs/solidity-examples/blob/main/contracts/lzApp/LzApp.sol\":6739:6761  payloadSizeLimitLookup */\n      0x03\n        /* \"https://github.com/LayerZero-Labs/solidity-examples/blob/main/contracts/lzApp/LzApp.sol\":6739:6774  payloadSizeLimitLookup[_dstChainId] */\n      0x20\n      mstore\n      0x40\n      swap1\n      keccak256\n        /* \"https://github.com/LayerZero-Labs/solidity-examples/blob/main/contracts/lzApp/LzApp.sol\":6739:6782  payloadSizeLimitLookup[_dstChainId] = _size */\n      sstore\n        /* \"https://github.com/LayerZero-Labs/solidity-examples/blob/main/contracts/lzApp/LzApp.sol\":6649:6789  function setPayloadSizeLimit(uint16 _dstChainId, uint _size) external onlyOwner {... */\n      jump\t// out\n        /* \"https://github.com/LayerZero-Labs/solidity-examples/blob/main/contracts/lzApp/LzApp.sol\":4918:5045  function setReceiveVersion(uint16 _version) external override onlyOwner {... */\n    tag_75:\n        /* \"@openzeppelin/contracts/access/Ownable.sol\":1531:1544  _checkOwner() */\n      tag_264\n        /* \"@openzeppelin/contracts/access/Ownable.sol\":1531:1542  _checkOwner */\n      tag_249\n        /* \"@openzeppelin/contracts/access/Ownable.sol\":1531:1544  _checkOwner() */\n      jump\t// in\n    tag_264:\n        /* \"https://github.com/LayerZero-Labs/solidity-examples/blob/main/contracts/lzApp/LzApp.sol\":5000:5038  lzEndpoint.setReceiveVersion(_version) */\n      mload(0x40)\n      shl(0xe0, 0x10ddb137)\n      dup2\n      mstore\n        /* \"#utility.yul\":11125:11131   */\n      0xffff\n        /* \"#utility.yul\":11113:11132   */\n      dup3\n      and\n        /* \"https://github.com/LayerZero-Labs/solidity-examples/blob/main/contracts/lzApp/LzApp.sol\":5000:5038  lzEndpoint.setReceiveVersion(_version) */\n      0x04\n      dup3\n      add\n        /* \"#utility.yul\":11095:11133   */\n      mstore\n        /* \"https://github.com/LayerZero-Labs/solidity-examples/blob/main/contracts/lzApp/LzApp.sol\":5000:5010  lzEndpoint */\n      immutable(\"0x2dd41b52be520f2be19c4ebee9680faf4b387bcc0bea79c5109b4351368330e6\")\n      sub(shl(0xa0, 0x01), 0x01)\n        /* \"https://github.com/LayerZero-Labs/solidity-examples/blob/main/contracts/lzApp/LzApp.sol\":5000:5028  lzEndpoint.setReceiveVersion */\n      and\n      swap1\n      0x10ddb137\n      swap1\n        /* \"#utility.yul\":11068:11086   */\n      0x24\n      add\n        /* \"https://github.com/LayerZero-Labs/solidity-examples/blob/main/contracts/lzApp/LzApp.sol\":5000:5038  lzEndpoint.setReceiveVersion(_version) */\n      tag_251\n        /* \"#utility.yul\":10951:11139   */\n      jump\n        /* \"@openzeppelin/contracts/token/ERC20/ERC20.sol\":5039:5283  function transferFrom(address from, address to, uint256 value) public virtual returns (bool) {... */\n    tag_85:\n        /* \"@openzeppelin/contracts/token/ERC20/ERC20.sol\":5126:5130  bool */\n      0x00\n        /* \"@openzeppelin/contracts/utils/Context.sol\":735:745  msg.sender */\n      caller\n        /* \"@openzeppelin/contracts/token/ERC20/ERC20.sol\":5182:5219  _spendAllowance(from, spender, value) */\n      tag_273\n        /* \"@openzeppelin/contracts/token/ERC20/ERC20.sol\":5198:5202  from */\n      dup6\n        /* \"@openzeppelin/contracts/utils/Context.sol\":735:745  msg.sender */\n      dup3\n        /* \"@openzeppelin/contracts/token/ERC20/ERC20.sol\":5213:5218  value */\n      dup6\n        /* \"@openzeppelin/contracts/token/ERC20/ERC20.sol\":5182:5197  _spendAllowance */\n      tag_274\n        /* \"@openzeppelin/contracts/token/ERC20/ERC20.sol\":5182:5219  _spendAllowance(from, spender, value) */\n      jump\t// in\n    tag_273:\n        /* \"@openzeppelin/contracts/token/ERC20/ERC20.sol\":5229:5255  _transfer(from, to, value) */\n      tag_275\n        /* \"@openzeppelin/contracts/token/ERC20/ERC20.sol\":5239:5243  from */\n      dup6\n        /* \"@openzeppelin/contracts/token/ERC20/ERC20.sol\":5245:5247  to */\n      dup6\n        /* \"@openzeppelin/contracts/token/ERC20/ERC20.sol\":5249:5254  value */\n      dup6\n        /* \"@openzeppelin/contracts/token/ERC20/ERC20.sol\":5229:5238  _transfer */\n      tag_276\n        /* \"@openzeppelin/contracts/token/ERC20/ERC20.sol\":5229:5255  _transfer(from, to, value) */\n      jump\t// in\n    tag_275:\n      pop\n        /* \"@openzeppelin/contracts/token/ERC20/ERC20.sol\":5272:5276  true */\n      0x01\n      swap5\n        /* \"@openzeppelin/contracts/token/ERC20/ERC20.sol\":5039:5283  function transferFrom(address from, address to, uint256 value) public virtual returns (bool) {... */\n      swap4\n      pop\n      pop\n      pop\n      pop\n      jump\t// out\n        /* \"https://github.com/LayerZero-Labs/solidity-examples/blob/main/contracts/lzApp/LzApp.sol\":6884:7131  function isTrustedRemote(uint16 _srcChainId, bytes calldata _srcAddress) external view returns (bool) {... */\n    tag_96:\n        /* \"https://github.com/LayerZero-Labs/solidity-examples/blob/main/contracts/lzApp/LzApp.sol\":7025:7057  trustedRemoteLookup[_srcChainId] */\n      0xffff\n      dup4\n      and\n        /* \"https://github.com/LayerZero-Labs/solidity-examples/blob/main/contracts/lzApp/LzApp.sol\":6980:6984  bool */\n      0x00\n        /* \"https://github.com/LayerZero-Labs/solidity-examples/blob/main/contracts/lzApp/LzApp.sol\":7025:7057  trustedRemoteLookup[_srcChainId] */\n      swap1\n      dup2\n      mstore\n        /* \"https://github.com/LayerZero-Labs/solidity-examples/blob/main/contracts/lzApp/LzApp.sol\":7025:7044  trustedRemoteLookup */\n      0x01\n        /* \"https://github.com/LayerZero-Labs/solidity-examples/blob/main/contracts/lzApp/LzApp.sol\":7025:7057  trustedRemoteLookup[_srcChainId] */\n      0x20\n      mstore\n      0x40\n      dup2\n      keccak256\n        /* \"https://github.com/LayerZero-Labs/solidity-examples/blob/main/contracts/lzApp/LzApp.sol\":6996:7057  bytes memory trustedSource = trustedRemoteLookup[_srcChainId] */\n      dup1\n      sload\n        /* \"https://github.com/LayerZero-Labs/solidity-examples/blob/main/contracts/lzApp/LzApp.sol\":6980:6984  bool */\n      dup3\n      swap2\n        /* \"https://github.com/LayerZero-Labs/solidity-examples/blob/main/contracts/lzApp/LzApp.sol\":7025:7057  trustedRemoteLookup[_srcChainId] */\n      swap1\n        /* \"https://github.com/LayerZero-Labs/solidity-examples/blob/main/contracts/lzApp/LzApp.sol\":6996:7057  bytes memory trustedSource = trustedRemoteLookup[_srcChainId] */\n      tag_279\n      swap1\n      tag_227\n      jump\t// in\n    tag_279:\n      dup1\n      0x1f\n      add\n      0x20\n      dup1\n      swap2\n      div\n      mul\n      0x20\n      add\n      mload(0x40)\n      swap1\n      dup2\n      add\n      0x40\n      mstore\n      dup1\n      swap3\n      swap2\n      swap1\n      dup2\n      dup2\n      mstore\n      0x20\n      add\n      dup3\n      dup1\n      sload\n      tag_280\n      swap1\n      tag_227\n      jump\t// in\n    tag_280:\n      dup1\n      iszero\n      tag_281\n      jumpi\n      dup1\n      0x1f\n      lt\n      tag_282\n      jumpi\n      0x0100\n      dup1\n      dup4\n      sload\n      div\n      mul\n      dup4\n      mstore\n      swap2\n      0x20\n      add\n      swap2\n      jump(tag_281)\n    tag_282:\n      dup3\n      add\n      swap2\n      swap1\n      0x00\n      mstore\n      keccak256(0x00, 0x20)\n      swap1\n    tag_283:\n      dup2\n      sload\n      dup2\n      mstore\n      swap1\n      0x01\n      add\n      swap1\n      0x20\n      add\n      dup1\n      dup4\n      gt\n      tag_283\n      jumpi\n      dup3\n      swap1\n      sub\n      0x1f\n      and\n      dup3\n      add\n      swap2\n    tag_281:\n      pop\n      pop\n      pop\n      pop\n      pop\n      swap1\n      pop\n        /* \"https://github.com/LayerZero-Labs/solidity-examples/blob/main/contracts/lzApp/LzApp.sol\":7112:7123  _srcAddress */\n      dup4\n      dup4\n        /* \"https://github.com/LayerZero-Labs/solidity-examples/blob/main/contracts/lzApp/LzApp.sol\":7102:7124  keccak256(_srcAddress) */\n      mload(0x40)\n      tag_284\n      swap3\n      swap2\n      swap1\n      tag_235\n      jump\t// in\n    tag_284:\n      mload(0x40)\n      dup1\n      swap2\n      sub\n      swap1\n      keccak256\n        /* \"https://github.com/LayerZero-Labs/solidity-examples/blob/main/contracts/lzApp/LzApp.sol\":7084:7097  trustedSource */\n      dup2\n        /* \"https://github.com/LayerZero-Labs/solidity-examples/blob/main/contracts/lzApp/LzApp.sol\":7074:7098  keccak256(trustedSource) */\n      dup1\n      mload\n      swap1\n      0x20\n      add\n      keccak256\n        /* \"https://github.com/LayerZero-Labs/solidity-examples/blob/main/contracts/lzApp/LzApp.sol\":7074:7124  keccak256(trustedSource) == keccak256(_srcAddress) */\n      eq\n        /* \"https://github.com/LayerZero-Labs/solidity-examples/blob/main/contracts/lzApp/LzApp.sol\":7067:7124  return keccak256(trustedSource) == keccak256(_srcAddress) */\n      swap2\n      pop\n      pop\n        /* \"https://github.com/LayerZero-Labs/solidity-examples/blob/main/contracts/lzApp/LzApp.sol\":6884:7131  function isTrustedRemote(uint16 _srcChainId, bytes calldata _srcAddress) external view returns (bool) {... */\n      swap4\n      swap3\n      pop\n      pop\n      pop\n      jump\t// out\n        /* \"https://github.com/LayerZero-Labs/solidity-examples/blob/main/contracts/lzApp/LzApp.sol\":5051:5227  function forceResumeReceive(uint16 _srcChainId, bytes calldata _srcAddress) external override onlyOwner {... */\n    tag_106:\n        /* \"@openzeppelin/contracts/access/Ownable.sol\":1531:1544  _checkOwner() */\n      tag_286\n        /* \"@openzeppelin/contracts/access/Ownable.sol\":1531:1542  _checkOwner */\n      tag_249\n        /* \"@openzeppelin/contracts/access/Ownable.sol\":1531:1544  _checkOwner() */\n      jump\t// in\n    tag_286:\n        /* \"https://github.com/LayerZero-Labs/solidity-examples/blob/main/contracts/lzApp/LzApp.sol\":5165:5220  lzEndpoint.forceResumeReceive(_srcChainId, _srcAddress) */\n      mload(0x40)\n      shl(0xe0, 0x42d65a8d)\n      dup2\n      mstore\n      sub(shl(0xa0, 0x01), 0x01)\n        /* \"https://github.com/LayerZero-Labs/solidity-examples/blob/main/contracts/lzApp/LzApp.sol\":5165:5175  lzEndpoint */\n      immutable(\"0x2dd41b52be520f2be19c4ebee9680faf4b387bcc0bea79c5109b4351368330e6\")\n        /* \"https://github.com/LayerZero-Labs/solidity-examples/blob/main/contracts/lzApp/LzApp.sol\":5165:5194  lzEndpoint.forceResumeReceive */\n      and\n      swap1\n      0x42d65a8d\n      swap1\n        /* \"https://github.com/LayerZero-Labs/solidity-examples/blob/main/contracts/lzApp/LzApp.sol\":5165:5220  lzEndpoint.forceResumeReceive(_srcChainId, _srcAddress) */\n      tag_288\n      swap1\n        /* \"https://github.com/LayerZero-Labs/solidity-examples/blob/main/contracts/lzApp/LzApp.sol\":5195:5206  _srcChainId */\n      dup7\n      swap1\n        /* \"https://github.com/LayerZero-Labs/solidity-examples/blob/main/contracts/lzApp/LzApp.sol\":5208:5219  _srcAddress */\n      dup7\n      swap1\n      dup7\n      swap1\n        /* \"https://github.com/LayerZero-Labs/solidity-examples/blob/main/contracts/lzApp/LzApp.sol\":5165:5220  lzEndpoint.forceResumeReceive(_srcChainId, _srcAddress) */\n      0x04\n      add\n      tag_289\n      jump\t// in\n    tag_288:\n      0x00\n      mload(0x40)\n      dup1\n      dup4\n      sub\n      dup2\n      0x00\n      dup8\n      dup1\n      extcodesize\n      iszero\n      dup1\n      iszero\n      tag_290\n      jumpi\n      0x00\n      dup1\n      revert\n    tag_290:\n      pop\n      gas\n      call\n      iszero\n      dup1\n      iszero\n      tag_239\n      jumpi\n      returndatasize\n      0x00\n      dup1\n      returndatacopy\n      revert(0x00, returndatasize)\n        /* \"CrossChainToken.sol\":1526:1693  function trustAddress(address _otherContract) public onlyOwner {... */\n    tag_118:\n        /* \"@openzeppelin/contracts/access/Ownable.sol\":1531:1544  _checkOwner() */\n      tag_294\n        /* \"@openzeppelin/contracts/access/Ownable.sol\":1531:1542  _checkOwner */\n      tag_249\n        /* \"@openzeppelin/contracts/access/Ownable.sol\":1531:1544  _checkOwner() */\n      jump\t// in\n    tag_294:\n        /* \"CrossChainToken.sol\":1635:1682  abi.encodePacked(_otherContract, address(this)) */\n      mload(0x40)\n      not(0xffffffffffffffffffffffff)\n        /* \"#utility.yul\":11973:11975   */\n      0x60\n        /* \"#utility.yul\":11969:11984   */\n      dup4\n      dup2\n      shl\n        /* \"#utility.yul\":11965:11989   */\n      dup3\n      and\n        /* \"CrossChainToken.sol\":1635:1682  abi.encodePacked(_otherContract, address(this)) */\n      0x20\n      dup5\n      add\n        /* \"#utility.yul\":11953:11990   */\n      mstore\n        /* \"CrossChainToken.sol\":1676:1680  this */\n      address\n        /* \"#utility.yul\":12024:12039   */\n      swap1\n      shl\n        /* \"#utility.yul\":12020:12044   */\n      and\n        /* \"#utility.yul\":12006:12018   */\n      0x34\n      dup3\n      add\n        /* \"#utility.yul\":11999:12045   */\n      mstore\n        /* \"#utility.yul\":12061:12073   */\n      0x48\n      add\n        /* \"CrossChainToken.sol\":1635:1682  abi.encodePacked(_otherContract, address(this)) */\n      0x40\n      dup1\n      mload\n      not(0x1f)\n      dup2\n      dup5\n      sub\n      add\n      dup2\n      mstore\n      swap2\n      dup2\n      mstore\n        /* \"CrossChainToken.sol\":1620:1631  destChainId */\n      and(0xffff, sload(0x0b))\n        /* \"CrossChainToken.sol\":1600:1632  trustedRemoteLookup[destChainId] */\n      0x00\n      swap1\n      dup2\n      mstore\n        /* \"CrossChainToken.sol\":1600:1619  trustedRemoteLookup */\n      0x01\n        /* \"CrossChainToken.sol\":1635:1682  abi.encodePacked(_otherContract, address(this)) */\n      0x20\n        /* \"CrossChainToken.sol\":1600:1632  trustedRemoteLookup[destChainId] */\n      mstore\n      keccak256\n      swap1\n        /* \"CrossChainToken.sol\":1600:1682  trustedRemoteLookup[destChainId] = abi.encodePacked(_otherContract, address(this)) */\n      tag_298\n      swap1\n        /* \"CrossChainToken.sol\":1600:1632  trustedRemoteLookup[destChainId] */\n      dup3\n        /* \"CrossChainToken.sol\":1600:1682  trustedRemoteLookup[destChainId] = abi.encodePacked(_otherContract, address(this)) */\n      tag_299\n      jump\t// in\n    tag_298:\n      pop\n        /* \"CrossChainToken.sol\":1526:1693  function trustAddress(address _otherContract) public onlyOwner {... */\n      pop\n      jump\t// out\n        /* \"https://github.com/LayerZero-Labs/solidity-examples/blob/main/contracts/lzApp/NonblockingLzApp.sol\":1912:2292  function nonblockingLzReceive(... */\n    tag_122:\n        /* \"@openzeppelin/contracts/utils/Context.sol\":735:745  msg.sender */\n      caller\n        /* \"https://github.com/LayerZero-Labs/solidity-examples/blob/main/contracts/lzApp/NonblockingLzApp.sol\":2162:2166  this */\n      address\n        /* \"https://github.com/LayerZero-Labs/solidity-examples/blob/main/contracts/lzApp/NonblockingLzApp.sol\":2138:2167  _msgSender() == address(this) */\n      eq\n        /* \"https://github.com/LayerZero-Labs/solidity-examples/blob/main/contracts/lzApp/NonblockingLzApp.sol\":2130:2210  require(_msgSender() == address(this), \"NonblockingLzApp: caller must be LzApp\") */\n      tag_302\n      jumpi\n      mload(0x40)\n      shl(0xe5, 0x461bcd)\n      dup2\n      mstore\n        /* \"#utility.yul\":14450:14452   */\n      0x20\n        /* \"https://github.com/LayerZero-Labs/solidity-examples/blob/main/contracts/lzApp/NonblockingLzApp.sol\":2130:2210  require(_msgSender() == address(this), \"NonblockingLzApp: caller must be LzApp\") */\n      0x04\n      dup3\n      add\n        /* \"#utility.yul\":14432:14453   */\n      mstore\n        /* \"#utility.yul\":14489:14491   */\n      0x26\n        /* \"#utility.yul\":14469:14487   */\n      0x24\n      dup3\n      add\n        /* \"#utility.yul\":14462:14492   */\n      mstore\n        /* \"#utility.yul\":14528:14562   */\n      0x4e6f6e626c6f636b696e674c7a4170703a2063616c6c6572206d757374206265\n        /* \"#utility.yul\":14508:14526   */\n      0x44\n      dup3\n      add\n        /* \"#utility.yul\":14501:14563   */\n      mstore\n      shl(0xd4, 0x0204c7a41707)\n        /* \"#utility.yul\":14579:14597   */\n      0x64\n      dup3\n      add\n        /* \"#utility.yul\":14572:14608   */\n      mstore\n        /* \"#utility.yul\":14625:14644   */\n      0x84\n      add\n        /* \"https://github.com/LayerZero-Labs/solidity-examples/blob/main/contracts/lzApp/NonblockingLzApp.sol\":2130:2210  require(_msgSender() == address(this), \"NonblockingLzApp: caller must be LzApp\") */\n      tag_224\n        /* \"#utility.yul\":14248:14650   */\n      jump\n        /* \"https://github.com/LayerZero-Labs/solidity-examples/blob/main/contracts/lzApp/NonblockingLzApp.sol\":2130:2210  require(_msgSender() == address(this), \"NonblockingLzApp: caller must be LzApp\") */\n    tag_302:\n        /* \"https://github.com/LayerZero-Labs/solidity-examples/blob/main/contracts/lzApp/NonblockingLzApp.sol\":2220:2285  _nonblockingLzReceive(_srcChainId, _srcAddress, _nonce, _payload) */\n      tag_305\n        /* \"https://github.com/LayerZero-Labs/solidity-examples/blob/main/contracts/lzApp/NonblockingLzApp.sol\":2242:2253  _srcChainId */\n      dup7\n        /* \"https://github.com/LayerZero-Labs/solidity-examples/blob/main/contracts/lzApp/NonblockingLzApp.sol\":2255:2266  _srcAddress */\n      dup7\n      dup7\n        /* \"https://github.com/LayerZero-Labs/solidity-examples/blob/main/contracts/lzApp/NonblockingLzApp.sol\":2220:2285  _nonblockingLzReceive(_srcChainId, _srcAddress, _nonce, _payload) */\n      dup1\n      dup1\n      0x1f\n      add\n      0x20\n      dup1\n      swap2\n      div\n      mul\n      0x20\n      add\n      mload(0x40)\n      swap1\n      dup2\n      add\n      0x40\n      mstore\n      dup1\n      swap4\n      swap3\n      swap2\n      swap1\n      dup2\n      dup2\n      mstore\n      0x20\n      add\n      dup4\n      dup4\n      dup1\n      dup3\n      dup5\n      calldatacopy\n      0x00\n      swap3\n      add\n      swap2\n      swap1\n      swap2\n      mstore\n      pop\n      pop\n      0x40\n      dup1\n      mload\n      0x20\n      0x1f\n      dup10\n      add\n      dup2\n      swap1\n      div\n      dup2\n      mul\n      dup3\n      add\n      dup2\n      add\n      swap1\n      swap3\n      mstore\n      dup8\n      dup2\n      mstore\n        /* \"https://github.com/LayerZero-Labs/solidity-examples/blob/main/contracts/lzApp/NonblockingLzApp.sol\":2268:2274  _nonce */\n      dup10\n      swap4\n      pop\n        /* \"https://github.com/LayerZero-Labs/solidity-examples/blob/main/contracts/lzApp/NonblockingLzApp.sol\":2220:2285  _nonblockingLzReceive(_srcChainId, _srcAddress, _nonce, _payload) */\n      swap2\n      pop\n        /* \"https://github.com/LayerZero-Labs/solidity-examples/blob/main/contracts/lzApp/NonblockingLzApp.sol\":2276:2284  _payload */\n      dup8\n      swap1\n      dup8\n      swap1\n      dup2\n      swap1\n        /* \"https://github.com/LayerZero-Labs/solidity-examples/blob/main/contracts/lzApp/NonblockingLzApp.sol\":2220:2285  _nonblockingLzReceive(_srcChainId, _srcAddress, _nonce, _payload) */\n      dup5\n      add\n        /* \"https://github.com/LayerZero-Labs/solidity-examples/blob/main/contracts/lzApp/NonblockingLzApp.sol\":2276:2284  _payload */\n      dup4\n      dup3\n      dup1\n      dup3\n        /* \"https://github.com/LayerZero-Labs/solidity-examples/blob/main/contracts/lzApp/NonblockingLzApp.sol\":2220:2285  _nonblockingLzReceive(_srcChainId, _srcAddress, _nonce, _payload) */\n      dup5\n      calldatacopy\n      0x00\n      swap3\n      add\n      swap2\n      swap1\n      swap2\n      mstore\n      pop\n        /* \"https://github.com/LayerZero-Labs/solidity-examples/blob/main/contracts/lzApp/NonblockingLzApp.sol\":2220:2241  _nonblockingLzReceive */\n      tag_306\n      swap3\n      pop\n      pop\n      pop\n        /* \"https://github.com/LayerZero-Labs/solidity-examples/blob/main/contracts/lzApp/NonblockingLzApp.sol\":2220:2285  _nonblockingLzReceive(_srcChainId, _srcAddress, _nonce, _payload) */\n      jump\t// in\n    tag_305:\n        /* \"https://github.com/LayerZero-Labs/solidity-examples/blob/main/contracts/lzApp/NonblockingLzApp.sol\":1912:2292  function nonblockingLzReceive(... */\n      pop\n      pop\n      pop\n      pop\n      pop\n      pop\n      jump\t// out\n        /* \"@openzeppelin/contracts/access/Ownable.sol\":2293:2394  function renounceOwnership() public virtual onlyOwner {... */\n    tag_130:\n        /* \"@openzeppelin/contracts/access/Ownable.sol\":1531:1544  _checkOwner() */\n      tag_309\n        /* \"@openzeppelin/contracts/access/Ownable.sol\":1531:1542  _checkOwner */\n      tag_249\n        /* \"@openzeppelin/contracts/access/Ownable.sol\":1531:1544  _checkOwner() */\n      jump\t// in\n    tag_309:\n        /* \"@openzeppelin/contracts/access/Ownable.sol\":2357:2387  _transferOwnership(address(0)) */\n      tag_311\n        /* \"@openzeppelin/contracts/access/Ownable.sol\":2384:2385  0 */\n      0x00\n        /* \"@openzeppelin/contracts/access/Ownable.sol\":2357:2375  _transferOwnership */\n      tag_312\n        /* \"@openzeppelin/contracts/access/Ownable.sol\":2357:2387  _transferOwnership(address(0)) */\n      jump\t// in\n    tag_311:\n        /* \"@openzeppelin/contracts/access/Ownable.sol\":2293:2394  function renounceOwnership() public virtual onlyOwner {... */\n      jump\t// out\n        /* \"https://github.com/LayerZero-Labs/solidity-examples/blob/main/contracts/lzApp/LzApp.sol\":682:733  mapping(uint16 => bytes) public trustedRemoteLookup */\n    tag_134:\n      mstore(0x20, 0x01)\n      0x00\n      swap1\n      dup2\n      mstore\n      0x40\n      swap1\n      keccak256\n      dup1\n      sload\n      tag_313\n      swap1\n      tag_227\n      jump\t// in\n    tag_313:\n      dup1\n      0x1f\n      add\n      0x20\n      dup1\n      swap2\n      div\n      mul\n      0x20\n      add\n      mload(0x40)\n      swap1\n      dup2\n      add\n      0x40\n      mstore\n      dup1\n      swap3\n      swap2\n      swap1\n      dup2\n      dup2\n      mstore\n      0x20\n      add\n      dup3\n      dup1\n      sload\n      tag_314\n      swap1\n      tag_227\n      jump\t// in\n    tag_314:\n      dup1\n      iszero\n      tag_315\n      jumpi\n      dup1\n      0x1f\n      lt\n      tag_316\n      jumpi\n      0x0100\n      dup1\n      dup4\n      sload\n      div\n      mul\n      dup4\n      mstore\n      swap2\n      0x20\n      add\n      swap2\n      jump(tag_315)\n    tag_316:\n      dup3\n      add\n      swap2\n      swap1\n      0x00\n      mstore\n      keccak256(0x00, 0x20)\n      swap1\n    tag_317:\n      dup2\n      sload\n      dup2\n      mstore\n      swap1\n      0x01\n      add\n      swap1\n      0x20\n      add\n      dup1\n      dup4\n      gt\n      tag_317\n      jumpi\n      dup3\n      swap1\n      sub\n      0x1f\n      and\n      dup3\n      add\n      swap2\n    tag_315:\n      pop\n      pop\n      pop\n      pop\n      pop\n      dup2\n      jump\t// out\n        /* \"CrossChainToken.sol\":1266:1518  function bridge(uint _amount) public payable {... */\n    tag_151:\n        /* \"CrossChainToken.sol\":1322:1348  _burn(msg.sender, _amount) */\n      tag_320\n        /* \"CrossChainToken.sol\":1328:1338  msg.sender */\n      caller\n        /* \"CrossChainToken.sol\":1340:1347  _amount */\n      dup3\n        /* \"CrossChainToken.sol\":1322:1327  _burn */\n      tag_321\n        /* \"CrossChainToken.sol\":1322:1348  _burn(msg.sender, _amount) */\n      jump\t// in\n    tag_320:\n        /* \"CrossChainToken.sol\":1382:1413  abi.encode(msg.sender, _amount) */\n      0x40\n      dup1\n      mload\n        /* \"CrossChainToken.sol\":1393:1403  msg.sender */\n      caller\n        /* \"CrossChainToken.sol\":1382:1413  abi.encode(msg.sender, _amount) */\n      0x20\n      dup3\n      add\n        /* \"#utility.yul\":14829:14880   */\n      mstore\n        /* \"#utility.yul\":14896:14914   */\n      swap1\n      dup2\n      add\n        /* \"#utility.yul\":14889:14923   */\n      dup3\n      swap1\n      mstore\n        /* \"CrossChainToken.sol\":1359:1379  bytes memory payload */\n      0x00\n      swap1\n        /* \"#utility.yul\":14802:14820   */\n      0x60\n      add\n        /* \"CrossChainToken.sol\":1382:1413  abi.encode(msg.sender, _amount) */\n      0x40\n      dup1\n      mload\n      not(0x1f)\n      dup2\n      dup5\n      sub\n      add\n      dup2\n      mstore\n        /* \"CrossChainToken.sol\":1432:1443  destChainId */\n      sload(0x0b)\n        /* \"CrossChainToken.sol\":1382:1413  abi.encode(msg.sender, _amount) */\n      0x20\n        /* \"CrossChainToken.sol\":1489:1498  bytes(\"\") */\n      dup5\n      add\n      swap1\n      swap3\n      mstore\n        /* \"CrossChainToken.sol\":1432:1443  destChainId */\n      0x00\n        /* \"CrossChainToken.sol\":1489:1498  bytes(\"\") */\n      dup1\n      dup5\n      mstore\n        /* \"CrossChainToken.sol\":1382:1413  abi.encode(msg.sender, _amount) */\n      swap1\n      swap4\n      pop\n        /* \"CrossChainToken.sol\":1424:1510  _lzSend(destChainId, payload, payable(msg.sender), address(0x0), bytes(\"\"), msg.value) */\n      tag_298\n      swap3\n        /* \"CrossChainToken.sol\":1432:1443  destChainId */\n      0xffff\n      swap1\n      swap3\n      and\n      swap2\n        /* \"CrossChainToken.sol\":1382:1413  abi.encode(msg.sender, _amount) */\n      dup5\n      swap2\n        /* \"CrossChainToken.sol\":1462:1472  msg.sender */\n      caller\n      swap2\n        /* \"CrossChainToken.sol\":1500:1509  msg.value */\n      callvalue\n        /* \"CrossChainToken.sol\":1424:1431  _lzSend */\n      tag_325\n        /* \"CrossChainToken.sol\":1424:1510  _lzSend(destChainId, payload, payable(msg.sender), address(0x0), bytes(\"\"), msg.value) */\n      jump\t// in\n        /* \"@openzeppelin/contracts/token/ERC20/ERC20.sol\":2276:2369  function symbol() public view virtual returns (string memory) {... */\n    tag_158:\n        /* \"@openzeppelin/contracts/token/ERC20/ERC20.sol\":2323:2336  string memory */\n      0x60\n        /* \"@openzeppelin/contracts/token/ERC20/ERC20.sol\":2355:2362  _symbol */\n      0x0a\n        /* \"@openzeppelin/contracts/token/ERC20/ERC20.sol\":2348:2362  return _symbol */\n      dup1\n      sload\n      tag_242\n      swap1\n      tag_227\n      jump\t// in\n        /* \"https://github.com/LayerZero-Labs/solidity-examples/blob/main/contracts/lzApp/LzApp.sol\":5864:6190  function getTrustedRemoteAddress(uint16 _remoteChainId) external view returns (bytes memory) {... */\n    tag_163:\n        /* \"https://github.com/LayerZero-Labs/solidity-examples/blob/main/contracts/lzApp/LzApp.sol\":5987:6022  trustedRemoteLookup[_remoteChainId] */\n      0xffff\n      dup2\n      and\n        /* \"https://github.com/LayerZero-Labs/solidity-examples/blob/main/contracts/lzApp/LzApp.sol\":5967:5984  bytes memory path */\n      0x00\n        /* \"https://github.com/LayerZero-Labs/solidity-examples/blob/main/contracts/lzApp/LzApp.sol\":5987:6022  trustedRemoteLookup[_remoteChainId] */\n      swap1\n      dup2\n      mstore\n        /* \"https://github.com/LayerZero-Labs/solidity-examples/blob/main/contracts/lzApp/LzApp.sol\":5987:6006  trustedRemoteLookup */\n      0x01\n        /* \"https://github.com/LayerZero-Labs/solidity-examples/blob/main/contracts/lzApp/LzApp.sol\":5987:6022  trustedRemoteLookup[_remoteChainId] */\n      0x20\n      mstore\n      0x40\n      dup2\n      keccak256\n        /* \"https://github.com/LayerZero-Labs/solidity-examples/blob/main/contracts/lzApp/LzApp.sol\":5967:6022  bytes memory path = trustedRemoteLookup[_remoteChainId] */\n      dup1\n      sload\n        /* \"https://github.com/LayerZero-Labs/solidity-examples/blob/main/contracts/lzApp/LzApp.sol\":5943:5955  bytes memory */\n      0x60\n      swap3\n        /* \"https://github.com/LayerZero-Labs/solidity-examples/blob/main/contracts/lzApp/LzApp.sol\":5967:5984  bytes memory path */\n      swap2\n        /* \"https://github.com/LayerZero-Labs/solidity-examples/blob/main/contracts/lzApp/LzApp.sol\":5987:6022  trustedRemoteLookup[_remoteChainId] */\n      swap1\n        /* \"https://github.com/LayerZero-Labs/solidity-examples/blob/main/contracts/lzApp/LzApp.sol\":5967:6022  bytes memory path = trustedRemoteLookup[_remoteChainId] */\n      tag_333\n      swap1\n      tag_227\n      jump\t// in\n    tag_333:\n      dup1\n      0x1f\n      add\n      0x20\n      dup1\n      swap2\n      div\n      mul\n      0x20\n      add\n      mload(0x40)\n      swap1\n      dup2\n      add\n      0x40\n      mstore\n      dup1\n      swap3\n      swap2\n      swap1\n      dup2\n      dup2\n      mstore\n      0x20\n      add\n      dup3\n      dup1\n      sload\n      tag_334\n      swap1\n      tag_227\n      jump\t// in\n    tag_334:\n      dup1\n      iszero\n      tag_335\n      jumpi\n      dup1\n      0x1f\n      lt\n      tag_336\n      jumpi\n      0x0100\n      dup1\n      dup4\n      sload\n      div\n      mul\n      dup4\n      mstore\n      swap2\n      0x20\n      add\n      swap2\n      jump(tag_335)\n    tag_336:\n      dup3\n      add\n      swap2\n      swap1\n      0x00\n      mstore\n      keccak256(0x00, 0x20)\n      swap1\n    tag_337:\n      dup2\n      sload\n      dup2\n      mstore\n      swap1\n      0x01\n      add\n      swap1\n      0x20\n      add\n      dup1\n      dup4\n      gt\n      tag_337\n      jumpi\n      dup3\n      swap1\n      sub\n      0x1f\n      and\n      dup3\n      add\n      swap2\n    tag_335:\n      pop\n      pop\n      pop\n      pop\n      pop\n      swap1\n      pop\n        /* \"https://github.com/LayerZero-Labs/solidity-examples/blob/main/contracts/lzApp/LzApp.sol\":6040:6044  path */\n      dup1\n        /* \"https://github.com/LayerZero-Labs/solidity-examples/blob/main/contracts/lzApp/LzApp.sol\":6040:6051  path.length */\n      mload\n        /* \"https://github.com/LayerZero-Labs/solidity-examples/blob/main/contracts/lzApp/LzApp.sol\":6055:6056  0 */\n      0x00\n        /* \"https://github.com/LayerZero-Labs/solidity-examples/blob/main/contracts/lzApp/LzApp.sol\":6040:6056  path.length != 0 */\n      sub\n        /* \"https://github.com/LayerZero-Labs/solidity-examples/blob/main/contracts/lzApp/LzApp.sol\":6032:6090  require(path.length != 0, \"LzApp: no trusted path record\") */\n      tag_338\n      jumpi\n      mload(0x40)\n      shl(0xe5, 0x461bcd)\n      dup2\n      mstore\n        /* \"#utility.yul\":15136:15138   */\n      0x20\n        /* \"https://github.com/LayerZero-Labs/solidity-examples/blob/main/contracts/lzApp/LzApp.sol\":6032:6090  require(path.length != 0, \"LzApp: no trusted path record\") */\n      0x04\n      dup3\n      add\n        /* \"#utility.yul\":15118:15139   */\n      mstore\n        /* \"#utility.yul\":15175:15177   */\n      0x1d\n        /* \"#utility.yul\":15155:15173   */\n      0x24\n      dup3\n      add\n        /* \"#utility.yul\":15148:15178   */\n      mstore\n        /* \"#utility.yul\":15214:15245   */\n      0x4c7a4170703a206e6f20747275737465642070617468207265636f7264000000\n        /* \"#utility.yul\":15194:15212   */\n      0x44\n      dup3\n      add\n        /* \"#utility.yul\":15187:15246   */\n      mstore\n        /* \"#utility.yul\":15263:15281   */\n      0x64\n      add\n        /* \"https://github.com/LayerZero-Labs/solidity-examples/blob/main/contracts/lzApp/LzApp.sol\":6032:6090  require(path.length != 0, \"LzApp: no trusted path record\") */\n      tag_224\n        /* \"#utility.yul\":14934:15287   */\n      jump\n        /* \"https://github.com/LayerZero-Labs/solidity-examples/blob/main/contracts/lzApp/LzApp.sol\":6032:6090  require(path.length != 0, \"LzApp: no trusted path record\") */\n    tag_338:\n        /* \"https://github.com/LayerZero-Labs/solidity-examples/blob/main/contracts/lzApp/LzApp.sol\":6107:6138  path.slice(0, path.length - 20) */\n      tag_341\n        /* \"https://github.com/LayerZero-Labs/solidity-examples/blob/main/contracts/lzApp/LzApp.sol\":6118:6119  0 */\n      0x00\n        /* \"https://github.com/LayerZero-Labs/solidity-examples/blob/main/contracts/lzApp/LzApp.sol\":6135:6137  20 */\n      0x14\n        /* \"https://github.com/LayerZero-Labs/solidity-examples/blob/main/contracts/lzApp/LzApp.sol\":6121:6125  path */\n      dup4\n        /* \"https://github.com/LayerZero-Labs/solidity-examples/blob/main/contracts/lzApp/LzApp.sol\":6121:6132  path.length */\n      mload\n        /* \"https://github.com/LayerZero-Labs/solidity-examples/blob/main/contracts/lzApp/LzApp.sol\":6121:6137  path.length - 20 */\n      tag_342\n      swap2\n      swap1\n      tag_343\n      jump\t// in\n    tag_342:\n        /* \"https://github.com/LayerZero-Labs/solidity-examples/blob/main/contracts/lzApp/LzApp.sol\":6107:6111  path */\n      dup4\n      swap2\n        /* \"https://github.com/LayerZero-Labs/solidity-examples/blob/main/contracts/lzApp/LzApp.sol\":6107:6138  path.slice(0, path.length - 20) */\n      swap1\n        /* \"https://github.com/LayerZero-Labs/solidity-examples/blob/main/contracts/lzApp/LzApp.sol\":6107:6117  path.slice */\n      tag_344\n        /* \"https://github.com/LayerZero-Labs/solidity-examples/blob/main/contracts/lzApp/LzApp.sol\":6107:6138  path.slice(0, path.length - 20) */\n      jump\t// in\n    tag_341:\n        /* \"https://github.com/LayerZero-Labs/solidity-examples/blob/main/contracts/lzApp/LzApp.sol\":6100:6138  return path.slice(0, path.length - 20) */\n      swap4\n        /* \"https://github.com/LayerZero-Labs/solidity-examples/blob/main/contracts/lzApp/LzApp.sol\":5864:6190  function getTrustedRemoteAddress(uint16 _remoteChainId) external view returns (bytes memory) {... */\n      swap3\n      pop\n      pop\n      pop\n      jump\t// out\n        /* \"https://github.com/LayerZero-Labs/solidity-examples/blob/main/contracts/lzApp/LzApp.sol\":5580:5858  function setTrustedRemoteAddress(uint16 _remoteChainId, bytes calldata _remoteAddress) external onlyOwner {... */\n    tag_168:\n        /* \"@openzeppelin/contracts/access/Ownable.sol\":1531:1544  _checkOwner() */\n      tag_346\n        /* \"@openzeppelin/contracts/access/Ownable.sol\":1531:1542  _checkOwner */\n      tag_249\n        /* \"@openzeppelin/contracts/access/Ownable.sol\":1531:1544  _checkOwner() */\n      jump\t// in\n    tag_346:\n        /* \"https://github.com/LayerZero-Labs/solidity-examples/blob/main/contracts/lzApp/LzApp.sol\":5751:5765  _remoteAddress */\n      dup2\n      dup2\n        /* \"https://github.com/LayerZero-Labs/solidity-examples/blob/main/contracts/lzApp/LzApp.sol\":5775:5779  this */\n      address\n        /* \"https://github.com/LayerZero-Labs/solidity-examples/blob/main/contracts/lzApp/LzApp.sol\":5734:5781  abi.encodePacked(_remoteAddress, address(this)) */\n      add(0x20, mload(0x40))\n      tag_348\n      swap4\n      swap3\n      swap2\n      swap1\n      tag_349\n      jump\t// in\n    tag_348:\n      0x40\n      dup1\n      mload\n      not(0x1f)\n      dup2\n      dup5\n      sub\n      add\n      dup2\n      mstore\n      swap2\n      dup2\n      mstore\n        /* \"https://github.com/LayerZero-Labs/solidity-examples/blob/main/contracts/lzApp/LzApp.sol\":5696:5731  trustedRemoteLookup[_remoteChainId] */\n      0xffff\n      dup6\n      and\n      0x00\n      swap1\n      dup2\n      mstore\n        /* \"https://github.com/LayerZero-Labs/solidity-examples/blob/main/contracts/lzApp/LzApp.sol\":5696:5715  trustedRemoteLookup */\n      0x01\n        /* \"https://github.com/LayerZero-Labs/solidity-examples/blob/main/contracts/lzApp/LzApp.sol\":5734:5781  abi.encodePacked(_remoteAddress, address(this)) */\n      0x20\n        /* \"https://github.com/LayerZero-Labs/solidity-examples/blob/main/contracts/lzApp/LzApp.sol\":5696:5731  trustedRemoteLookup[_remoteChainId] */\n      mstore\n      keccak256\n      swap1\n        /* \"https://github.com/LayerZero-Labs/solidity-examples/blob/main/contracts/lzApp/LzApp.sol\":5696:5781  trustedRemoteLookup[_remoteChainId] = abi.encodePacked(_remoteAddress, address(this)) */\n      tag_350\n      swap1\n        /* \"https://github.com/LayerZero-Labs/solidity-examples/blob/main/contracts/lzApp/LzApp.sol\":5696:5731  trustedRemoteLookup[_remoteChainId] */\n      dup3\n        /* \"https://github.com/LayerZero-Labs/solidity-examples/blob/main/contracts/lzApp/LzApp.sol\":5696:5781  trustedRemoteLookup[_remoteChainId] = abi.encodePacked(_remoteAddress, address(this)) */\n      tag_299\n      jump\t// in\n    tag_350:\n      pop\n        /* \"https://github.com/LayerZero-Labs/solidity-examples/blob/main/contracts/lzApp/LzApp.sol\":5796:5851  SetTrustedRemoteAddress(_remoteChainId, _remoteAddress) */\n      0x8c0400cfe2d1199b1a725c78960bcc2a344d869b80590d0f2bd005db15a572ce\n        /* \"https://github.com/LayerZero-Labs/solidity-examples/blob/main/contracts/lzApp/LzApp.sol\":5820:5834  _remoteChainId */\n      dup4\n        /* \"https://github.com/LayerZero-Labs/solidity-examples/blob/main/contracts/lzApp/LzApp.sol\":5836:5850  _remoteAddress */\n      dup4\n      dup4\n        /* \"https://github.com/LayerZero-Labs/solidity-examples/blob/main/contracts/lzApp/LzApp.sol\":5796:5851  SetTrustedRemoteAddress(_remoteChainId, _remoteAddress) */\n      mload(0x40)\n      tag_351\n      swap4\n      swap3\n      swap2\n      swap1\n      tag_289\n      jump\t// in\n    tag_351:\n      mload(0x40)\n      dup1\n      swap2\n      sub\n      swap1\n      log1\n        /* \"https://github.com/LayerZero-Labs/solidity-examples/blob/main/contracts/lzApp/LzApp.sol\":5580:5858  function setTrustedRemoteAddress(uint16 _remoteChainId, bytes calldata _remoteAddress) external onlyOwner {... */\n      pop\n      pop\n      pop\n      jump\t// out\n        /* \"@openzeppelin/contracts/token/ERC20/ERC20.sol\":3610:3788  function transfer(address to, uint256 value) public virtual returns (bool) {... */\n    tag_172:\n        /* \"@openzeppelin/contracts/token/ERC20/ERC20.sol\":3679:3683  bool */\n      0x00\n        /* \"@openzeppelin/contracts/utils/Context.sol\":735:745  msg.sender */\n      caller\n        /* \"@openzeppelin/contracts/token/ERC20/ERC20.sol\":3733:3760  _transfer(owner, to, value) */\n      tag_258\n        /* \"@openzeppelin/contracts/utils/Context.sol\":735:745  msg.sender */\n      dup2\n        /* \"@openzeppelin/contracts/token/ERC20/ERC20.sol\":3750:3752  to */\n      dup6\n        /* \"@openzeppelin/contracts/token/ERC20/ERC20.sol\":3754:3759  value */\n      dup6\n        /* \"@openzeppelin/contracts/token/ERC20/ERC20.sol\":3733:3742  _transfer */\n      tag_276\n        /* \"@openzeppelin/contracts/token/ERC20/ERC20.sol\":3733:3760  _transfer(owner, to, value) */\n      jump\t// in\n        /* \"https://github.com/LayerZero-Labs/solidity-examples/blob/main/contracts/lzApp/LzApp.sol\":6196:6329  function setPrecrime(address _precrime) external onlyOwner {... */\n    tag_182:\n        /* \"@openzeppelin/contracts/access/Ownable.sol\":1531:1544  _checkOwner() */\n      tag_356\n        /* \"@openzeppelin/contracts/access/Ownable.sol\":1531:1542  _checkOwner */\n      tag_249\n        /* \"@openzeppelin/contracts/access/Ownable.sol\":1531:1544  _checkOwner() */\n      jump\t// in\n    tag_356:\n        /* \"https://github.com/LayerZero-Labs/solidity-examples/blob/main/contracts/lzApp/LzApp.sol\":6265:6273  precrime */\n      0x04\n        /* \"https://github.com/LayerZero-Labs/solidity-examples/blob/main/contracts/lzApp/LzApp.sol\":6265:6285  precrime = _precrime */\n      dup1\n      sload\n      not(sub(shl(0xa0, 0x01), 0x01))\n      and\n      sub(shl(0xa0, 0x01), 0x01)\n      dup4\n      and\n      swap1\n      dup2\n      or\n      swap1\n      swap2\n      sstore\n        /* \"https://github.com/LayerZero-Labs/solidity-examples/blob/main/contracts/lzApp/LzApp.sol\":6300:6322  SetPrecrime(_precrime) */\n      mload(0x40)\n        /* \"#utility.yul\":7228:7279   */\n      swap1\n      dup2\n      mstore\n        /* \"https://github.com/LayerZero-Labs/solidity-examples/blob/main/contracts/lzApp/LzApp.sol\":6300:6322  SetPrecrime(_precrime) */\n      0x5db758e995a17ec1ad84bdef7e8c3293a0bd6179bcce400dff5d4c3d87db726b\n      swap1\n        /* \"#utility.yul\":7216:7218   */\n      0x20\n        /* \"#utility.yul\":7201:7219   */\n      add\n        /* \"https://github.com/LayerZero-Labs/solidity-examples/blob/main/contracts/lzApp/LzApp.sol\":6300:6322  SetPrecrime(_precrime) */\n      mload(0x40)\n      dup1\n      swap2\n      sub\n      swap1\n      log1\n        /* \"https://github.com/LayerZero-Labs/solidity-examples/blob/main/contracts/lzApp/LzApp.sol\":6196:6329  function setPrecrime(address _precrime) external onlyOwner {... */\n      pop\n      jump\t// out\n        /* \"https://github.com/LayerZero-Labs/solidity-examples/blob/main/contracts/lzApp/LzApp.sol\":4545:4785  function setConfig(... */\n    tag_191:\n        /* \"@openzeppelin/contracts/access/Ownable.sol\":1531:1544  _checkOwner() */\n      tag_360\n        /* \"@openzeppelin/contracts/access/Ownable.sol\":1531:1542  _checkOwner */\n      tag_249\n        /* \"@openzeppelin/contracts/access/Ownable.sol\":1531:1544  _checkOwner() */\n      jump\t// in\n    tag_360:\n        /* \"https://github.com/LayerZero-Labs/solidity-examples/blob/main/contracts/lzApp/LzApp.sol\":4716:4778  lzEndpoint.setConfig(_version, _chainId, _configType, _config) */\n      mload(0x40)\n      shl(0xe2, 0x32fb62e7)\n      dup2\n      mstore\n      sub(shl(0xa0, 0x01), 0x01)\n        /* \"https://github.com/LayerZero-Labs/solidity-examples/blob/main/contracts/lzApp/LzApp.sol\":4716:4726  lzEndpoint */\n      immutable(\"0x2dd41b52be520f2be19c4ebee9680faf4b387bcc0bea79c5109b4351368330e6\")\n        /* \"https://github.com/LayerZero-Labs/solidity-examples/blob/main/contracts/lzApp/LzApp.sol\":4716:4736  lzEndpoint.setConfig */\n      and\n      swap1\n      0xcbed8b9c\n      swap1\n        /* \"https://github.com/LayerZero-Labs/solidity-examples/blob/main/contracts/lzApp/LzApp.sol\":4716:4778  lzEndpoint.setConfig(_version, _chainId, _configType, _config) */\n      tag_362\n      swap1\n        /* \"https://github.com/LayerZero-Labs/solidity-examples/blob/main/contracts/lzApp/LzApp.sol\":4737:4745  _version */\n      dup9\n      swap1\n        /* \"https://github.com/LayerZero-Labs/solidity-examples/blob/main/contracts/lzApp/LzApp.sol\":4747:4755  _chainId */\n      dup9\n      swap1\n        /* \"https://github.com/LayerZero-Labs/solidity-examples/blob/main/contracts/lzApp/LzApp.sol\":4757:4768  _configType */\n      dup9\n      swap1\n        /* \"https://github.com/LayerZero-Labs/solidity-examples/blob/main/contracts/lzApp/LzApp.sol\":4770:4777  _config */\n      dup9\n      swap1\n      dup9\n      swap1\n        /* \"https://github.com/LayerZero-Labs/solidity-examples/blob/main/contracts/lzApp/LzApp.sol\":4716:4778  lzEndpoint.setConfig(_version, _chainId, _configType, _config) */\n      0x04\n      add\n      tag_363\n      jump\t// in\n    tag_362:\n      0x00\n      mload(0x40)\n      dup1\n      dup4\n      sub\n      dup2\n      0x00\n      dup8\n      dup1\n      extcodesize\n      iszero\n      dup1\n      iszero\n      tag_364\n      jumpi\n      0x00\n      dup1\n      revert\n    tag_364:\n      pop\n      gas\n      call\n      iszero\n      dup1\n      iszero\n      tag_366\n      jumpi\n      returndatasize\n      0x00\n      dup1\n      returndatacopy\n      revert(0x00, returndatasize)\n    tag_366:\n      pop\n      pop\n      pop\n      pop\n        /* \"https://github.com/LayerZero-Labs/solidity-examples/blob/main/contracts/lzApp/LzApp.sol\":4545:4785  function setConfig(... */\n      pop\n      pop\n      pop\n      pop\n      pop\n      jump\t// out\n        /* \"https://github.com/LayerZero-Labs/solidity-examples/blob/main/contracts/lzApp/NonblockingLzApp.sol\":2511:3306  function retryMessage(... */\n    tag_194:\n        /* \"https://github.com/LayerZero-Labs/solidity-examples/blob/main/contracts/lzApp/NonblockingLzApp.sol\":2758:2785  failedMessages[_srcChainId] */\n      0xffff\n      dup7\n      and\n        /* \"https://github.com/LayerZero-Labs/solidity-examples/blob/main/contracts/lzApp/NonblockingLzApp.sol\":2736:2755  bytes32 payloadHash */\n      0x00\n        /* \"https://github.com/LayerZero-Labs/solidity-examples/blob/main/contracts/lzApp/NonblockingLzApp.sol\":2758:2785  failedMessages[_srcChainId] */\n      swap1\n      dup2\n      mstore\n        /* \"https://github.com/LayerZero-Labs/solidity-examples/blob/main/contracts/lzApp/NonblockingLzApp.sol\":2758:2772  failedMessages */\n      0x05\n        /* \"https://github.com/LayerZero-Labs/solidity-examples/blob/main/contracts/lzApp/NonblockingLzApp.sol\":2758:2785  failedMessages[_srcChainId] */\n      0x20\n      mstore\n      0x40\n      dup1\n      dup3\n      keccak256\n        /* \"https://github.com/LayerZero-Labs/solidity-examples/blob/main/contracts/lzApp/NonblockingLzApp.sol\":2758:2798  failedMessages[_srcChainId][_srcAddress] */\n      swap1\n      mload\n      tag_368\n      swap1\n        /* \"https://github.com/LayerZero-Labs/solidity-examples/blob/main/contracts/lzApp/NonblockingLzApp.sol\":2786:2797  _srcAddress */\n      dup9\n      swap1\n      dup9\n      swap1\n        /* \"https://github.com/LayerZero-Labs/solidity-examples/blob/main/contracts/lzApp/NonblockingLzApp.sol\":2758:2798  failedMessages[_srcChainId][_srcAddress] */\n      tag_235\n      jump\t// in\n    tag_368:\n      swap1\n      dup2\n      mstore\n      0x40\n      dup1\n      mload\n      0x20\n      swap3\n      dup2\n      swap1\n      sub\n      dup4\n      add\n      swap1\n      keccak256\n      sub(shl(0x40, 0x01), 0x01)\n        /* \"https://github.com/LayerZero-Labs/solidity-examples/blob/main/contracts/lzApp/NonblockingLzApp.sol\":2758:2806  failedMessages[_srcChainId][_srcAddress][_nonce] */\n      dup8\n      and\n      0x00\n      swap1\n      dup2\n      mstore\n      swap3\n      mstore\n      swap1\n      keccak256\n      sload\n      swap1\n      pop\n      dup1\n        /* \"https://github.com/LayerZero-Labs/solidity-examples/blob/main/contracts/lzApp/NonblockingLzApp.sol\":2816:2889  require(payloadHash != bytes32(0), \"NonblockingLzApp: no stored message\") */\n      tag_369\n      jumpi\n      mload(0x40)\n      shl(0xe5, 0x461bcd)\n      dup2\n      mstore\n        /* \"#utility.yul\":16627:16629   */\n      0x20\n        /* \"https://github.com/LayerZero-Labs/solidity-examples/blob/main/contracts/lzApp/NonblockingLzApp.sol\":2816:2889  require(payloadHash != bytes32(0), \"NonblockingLzApp: no stored message\") */\n      0x04\n      dup3\n      add\n        /* \"#utility.yul\":16609:16630   */\n      mstore\n        /* \"#utility.yul\":16666:16668   */\n      0x23\n        /* \"#utility.yul\":16646:16664   */\n      0x24\n      dup3\n      add\n        /* \"#utility.yul\":16639:16669   */\n      mstore\n        /* \"#utility.yul\":16705:16739   */\n      0x4e6f6e626c6f636b696e674c7a4170703a206e6f2073746f726564206d657373\n        /* \"#utility.yul\":16685:16703   */\n      0x44\n      dup3\n      add\n        /* \"#utility.yul\":16678:16740   */\n      mstore\n      shl(0xe8, 0x616765)\n        /* \"#utility.yul\":16756:16774   */\n      0x64\n      dup3\n      add\n        /* \"#utility.yul\":16749:16782   */\n      mstore\n        /* \"#utility.yul\":16799:16818   */\n      0x84\n      add\n        /* \"https://github.com/LayerZero-Labs/solidity-examples/blob/main/contracts/lzApp/NonblockingLzApp.sol\":2816:2889  require(payloadHash != bytes32(0), \"NonblockingLzApp: no stored message\") */\n      tag_224\n        /* \"#utility.yul\":16425:16824   */\n      jump\n        /* \"https://github.com/LayerZero-Labs/solidity-examples/blob/main/contracts/lzApp/NonblockingLzApp.sol\":2816:2889  require(payloadHash != bytes32(0), \"NonblockingLzApp: no stored message\") */\n    tag_369:\n        /* \"https://github.com/LayerZero-Labs/solidity-examples/blob/main/contracts/lzApp/NonblockingLzApp.sol\":2930:2941  payloadHash */\n      dup1\n        /* \"https://github.com/LayerZero-Labs/solidity-examples/blob/main/contracts/lzApp/NonblockingLzApp.sol\":2917:2925  _payload */\n      dup4\n      dup4\n        /* \"https://github.com/LayerZero-Labs/solidity-examples/blob/main/contracts/lzApp/NonblockingLzApp.sol\":2907:2926  keccak256(_payload) */\n      mload(0x40)\n      tag_372\n      swap3\n      swap2\n      swap1\n      tag_235\n      jump\t// in\n    tag_372:\n      mload(0x40)\n      dup1\n      swap2\n      sub\n      swap1\n      keccak256\n        /* \"https://github.com/LayerZero-Labs/solidity-examples/blob/main/contracts/lzApp/NonblockingLzApp.sol\":2907:2941  keccak256(_payload) == payloadHash */\n      eq\n        /* \"https://github.com/LayerZero-Labs/solidity-examples/blob/main/contracts/lzApp/NonblockingLzApp.sol\":2899:2979  require(keccak256(_payload) == payloadHash, \"NonblockingLzApp: invalid payload\") */\n      tag_373\n      jumpi\n      mload(0x40)\n      shl(0xe5, 0x461bcd)\n      dup2\n      mstore\n        /* \"#utility.yul\":17031:17033   */\n      0x20\n        /* \"https://github.com/LayerZero-Labs/solidity-examples/blob/main/contracts/lzApp/NonblockingLzApp.sol\":2899:2979  require(keccak256(_payload) == payloadHash, \"NonblockingLzApp: invalid payload\") */\n      0x04\n      dup3\n      add\n        /* \"#utility.yul\":17013:17034   */\n      mstore\n        /* \"#utility.yul\":17070:17072   */\n      0x21\n        /* \"#utility.yul\":17050:17068   */\n      0x24\n      dup3\n      add\n        /* \"#utility.yul\":17043:17073   */\n      mstore\n        /* \"#utility.yul\":17109:17143   */\n      0x4e6f6e626c6f636b696e674c7a4170703a20696e76616c6964207061796c6f61\n        /* \"#utility.yul\":17089:17107   */\n      0x44\n      dup3\n      add\n        /* \"#utility.yul\":17082:17144   */\n      mstore\n      shl(0xfa, 0x19)\n        /* \"#utility.yul\":17160:17178   */\n      0x64\n      dup3\n      add\n        /* \"#utility.yul\":17153:17184   */\n      mstore\n        /* \"#utility.yul\":17201:17220   */\n      0x84\n      add\n        /* \"https://github.com/LayerZero-Labs/solidity-examples/blob/main/contracts/lzApp/NonblockingLzApp.sol\":2899:2979  require(keccak256(_payload) == payloadHash, \"NonblockingLzApp: invalid payload\") */\n      tag_224\n        /* \"#utility.yul\":16829:17226   */\n      jump\n        /* \"https://github.com/LayerZero-Labs/solidity-examples/blob/main/contracts/lzApp/NonblockingLzApp.sol\":2899:2979  require(keccak256(_payload) == payloadHash, \"NonblockingLzApp: invalid payload\") */\n    tag_373:\n        /* \"https://github.com/LayerZero-Labs/solidity-examples/blob/main/contracts/lzApp/NonblockingLzApp.sol\":3025:3052  failedMessages[_srcChainId] */\n      0xffff\n      dup8\n      and\n        /* \"https://github.com/LayerZero-Labs/solidity-examples/blob/main/contracts/lzApp/NonblockingLzApp.sol\":3084:3085  0 */\n      0x00\n        /* \"https://github.com/LayerZero-Labs/solidity-examples/blob/main/contracts/lzApp/NonblockingLzApp.sol\":3025:3052  failedMessages[_srcChainId] */\n      swap1\n      dup2\n      mstore\n        /* \"https://github.com/LayerZero-Labs/solidity-examples/blob/main/contracts/lzApp/NonblockingLzApp.sol\":3025:3039  failedMessages */\n      0x05\n        /* \"https://github.com/LayerZero-Labs/solidity-examples/blob/main/contracts/lzApp/NonblockingLzApp.sol\":3025:3052  failedMessages[_srcChainId] */\n      0x20\n      mstore\n      0x40\n      dup1\n      dup3\n      keccak256\n        /* \"https://github.com/LayerZero-Labs/solidity-examples/blob/main/contracts/lzApp/NonblockingLzApp.sol\":3025:3065  failedMessages[_srcChainId][_srcAddress] */\n      swap1\n      mload\n      tag_376\n      swap1\n        /* \"https://github.com/LayerZero-Labs/solidity-examples/blob/main/contracts/lzApp/NonblockingLzApp.sol\":3053:3064  _srcAddress */\n      dup10\n      swap1\n      dup10\n      swap1\n        /* \"https://github.com/LayerZero-Labs/solidity-examples/blob/main/contracts/lzApp/NonblockingLzApp.sol\":3025:3065  failedMessages[_srcChainId][_srcAddress] */\n      tag_235\n      jump\t// in\n    tag_376:\n      swap1\n      dup2\n      mstore\n      0x40\n      dup1\n      mload\n      0x20\n      swap3\n      dup2\n      swap1\n      sub\n      dup4\n      add\n      dup2\n      keccak256\n      sub(shl(0x40, 0x01), 0x01)\n        /* \"https://github.com/LayerZero-Labs/solidity-examples/blob/main/contracts/lzApp/NonblockingLzApp.sol\":3025:3073  failedMessages[_srcChainId][_srcAddress][_nonce] */\n      dup10\n      and\n      0x00\n      swap1\n      dup2\n      mstore\n      swap1\n      dup5\n      mstore\n      dup3\n      swap1\n      keccak256\n        /* \"https://github.com/LayerZero-Labs/solidity-examples/blob/main/contracts/lzApp/NonblockingLzApp.sol\":3025:3086  failedMessages[_srcChainId][_srcAddress][_nonce] = bytes32(0) */\n      swap4\n      swap1\n      swap4\n      sstore\n        /* \"https://github.com/LayerZero-Labs/solidity-examples/blob/main/contracts/lzApp/NonblockingLzApp.sol\":3153:3218  _nonblockingLzReceive(_srcChainId, _srcAddress, _nonce, _payload) */\n      0x1f\n      dup9\n      add\n      dup3\n      swap1\n      div\n      dup3\n      mul\n      dup4\n      add\n      dup3\n      add\n      swap1\n      mstore\n      dup7\n      dup3\n      mstore\n      tag_377\n      swap2\n        /* \"https://github.com/LayerZero-Labs/solidity-examples/blob/main/contracts/lzApp/NonblockingLzApp.sol\":3175:3186  _srcChainId */\n      dup10\n      swap2\n        /* \"https://github.com/LayerZero-Labs/solidity-examples/blob/main/contracts/lzApp/NonblockingLzApp.sol\":3188:3199  _srcAddress */\n      dup10\n      swap1\n        /* \"https://github.com/LayerZero-Labs/solidity-examples/blob/main/contracts/lzApp/NonblockingLzApp.sol\":3153:3218  _nonblockingLzReceive(_srcChainId, _srcAddress, _nonce, _payload) */\n      dup10\n      swap1\n      dup2\n      swap1\n      dup5\n      add\n        /* \"https://github.com/LayerZero-Labs/solidity-examples/blob/main/contracts/lzApp/NonblockingLzApp.sol\":3188:3199  _srcAddress */\n      dup4\n        /* \"https://github.com/LayerZero-Labs/solidity-examples/blob/main/contracts/lzApp/NonblockingLzApp.sol\":3153:3218  _nonblockingLzReceive(_srcChainId, _srcAddress, _nonce, _payload) */\n      dup3\n      dup1\n        /* \"https://github.com/LayerZero-Labs/solidity-examples/blob/main/contracts/lzApp/NonblockingLzApp.sol\":3188:3199  _srcAddress */\n      dup3\n        /* \"https://github.com/LayerZero-Labs/solidity-examples/blob/main/contracts/lzApp/NonblockingLzApp.sol\":3153:3218  _nonblockingLzReceive(_srcChainId, _srcAddress, _nonce, _payload) */\n      dup5\n      calldatacopy\n      0x00\n      swap3\n      add\n      swap2\n      swap1\n      swap2\n      mstore\n      pop\n      pop\n      0x40\n      dup1\n      mload\n      0x20\n      0x1f\n      dup11\n      add\n      dup2\n      swap1\n      div\n      dup2\n      mul\n      dup3\n      add\n      dup2\n      add\n      swap1\n      swap3\n      mstore\n      dup9\n      dup2\n      mstore\n        /* \"https://github.com/LayerZero-Labs/solidity-examples/blob/main/contracts/lzApp/NonblockingLzApp.sol\":3201:3207  _nonce */\n      dup11\n      swap4\n      pop\n        /* \"https://github.com/LayerZero-Labs/solidity-examples/blob/main/contracts/lzApp/NonblockingLzApp.sol\":3153:3218  _nonblockingLzReceive(_srcChainId, _srcAddress, _nonce, _payload) */\n      swap2\n      pop\n        /* \"https://github.com/LayerZero-Labs/solidity-examples/blob/main/contracts/lzApp/NonblockingLzApp.sol\":3209:3217  _payload */\n      dup9\n      swap1\n      dup9\n      swap1\n      dup2\n      swap1\n        /* \"https://github.com/LayerZero-Labs/solidity-examples/blob/main/contracts/lzApp/NonblockingLzApp.sol\":3153:3218  _nonblockingLzReceive(_srcChainId, _srcAddress, _nonce, _payload) */\n      dup5\n      add\n        /* \"https://github.com/LayerZero-Labs/solidity-examples/blob/main/contracts/lzApp/NonblockingLzApp.sol\":3209:3217  _payload */\n      dup4\n      dup3\n      dup1\n      dup3\n        /* \"https://github.com/LayerZero-Labs/solidity-examples/blob/main/contracts/lzApp/NonblockingLzApp.sol\":3153:3218  _nonblockingLzReceive(_srcChainId, _srcAddress, _nonce, _payload) */\n      dup5\n      calldatacopy\n      0x00\n      swap3\n      add\n      swap2\n      swap1\n      swap2\n      mstore\n      pop\n        /* \"https://github.com/LayerZero-Labs/solidity-examples/blob/main/contracts/lzApp/NonblockingLzApp.sol\":3153:3174  _nonblockingLzReceive */\n      tag_306\n      swap3\n      pop\n      pop\n      pop\n        /* \"https://github.com/LayerZero-Labs/solidity-examples/blob/main/contracts/lzApp/NonblockingLzApp.sol\":3153:3218  _nonblockingLzReceive(_srcChainId, _srcAddress, _nonce, _payload) */\n      jump\t// in\n    tag_377:\n        /* \"https://github.com/LayerZero-Labs/solidity-examples/blob/main/contracts/lzApp/NonblockingLzApp.sol\":3233:3299  RetryMessageSuccess(_srcChainId, _srcAddress, _nonce, payloadHash) */\n      0xc264d91f3adc5588250e1551f547752ca0cfa8f6b530d243b9f9f4cab10ea8e5\n        /* \"https://github.com/LayerZero-Labs/solidity-examples/blob/main/contracts/lzApp/NonblockingLzApp.sol\":3253:3264  _srcChainId */\n      dup8\n        /* \"https://github.com/LayerZero-Labs/solidity-examples/blob/main/contracts/lzApp/NonblockingLzApp.sol\":3266:3277  _srcAddress */\n      dup8\n      dup8\n        /* \"https://github.com/LayerZero-Labs/solidity-examples/blob/main/contracts/lzApp/NonblockingLzApp.sol\":3279:3285  _nonce */\n      dup8\n        /* \"https://github.com/LayerZero-Labs/solidity-examples/blob/main/contracts/lzApp/NonblockingLzApp.sol\":3287:3298  payloadHash */\n      dup6\n        /* \"https://github.com/LayerZero-Labs/solidity-examples/blob/main/contracts/lzApp/NonblockingLzApp.sol\":3233:3299  RetryMessageSuccess(_srcChainId, _srcAddress, _nonce, payloadHash) */\n      mload(0x40)\n      tag_378\n      swap6\n      swap5\n      swap4\n      swap3\n      swap2\n      swap1\n      tag_379\n      jump\t// in\n    tag_378:\n      mload(0x40)\n      dup1\n      swap2\n      sub\n      swap1\n      log1\n        /* \"https://github.com/LayerZero-Labs/solidity-examples/blob/main/contracts/lzApp/NonblockingLzApp.sol\":2682:3306  {... */\n      pop\n        /* \"https://github.com/LayerZero-Labs/solidity-examples/blob/main/contracts/lzApp/NonblockingLzApp.sol\":2511:3306  function retryMessage(... */\n      pop\n      pop\n      pop\n      pop\n      pop\n      pop\n      jump\t// out\n        /* \"https://github.com/LayerZero-Labs/solidity-examples/blob/main/contracts/lzApp/LzApp.sol\":6335:6590  function setMinDstGas(... */\n    tag_205:\n        /* \"@openzeppelin/contracts/access/Ownable.sol\":1531:1544  _checkOwner() */\n      tag_382\n        /* \"@openzeppelin/contracts/access/Ownable.sol\":1531:1542  _checkOwner */\n      tag_249\n        /* \"@openzeppelin/contracts/access/Ownable.sol\":1531:1544  _checkOwner() */\n      jump\t// in\n    tag_382:\n        /* \"https://github.com/LayerZero-Labs/solidity-examples/blob/main/contracts/lzApp/LzApp.sol\":6470:6498  minDstGasLookup[_dstChainId] */\n      0xffff\n      dup4\n      dup2\n      and\n      0x00\n      dup2\n      dup2\n      mstore\n        /* \"https://github.com/LayerZero-Labs/solidity-examples/blob/main/contracts/lzApp/LzApp.sol\":6470:6485  minDstGasLookup */\n      0x02\n        /* \"https://github.com/LayerZero-Labs/solidity-examples/blob/main/contracts/lzApp/LzApp.sol\":6470:6498  minDstGasLookup[_dstChainId] */\n      0x20\n      swap1\n      dup2\n      mstore\n      0x40\n      dup1\n      dup4\n      keccak256\n        /* \"https://github.com/LayerZero-Labs/solidity-examples/blob/main/contracts/lzApp/LzApp.sol\":6470:6511  minDstGasLookup[_dstChainId][_packetType] */\n      swap5\n      dup8\n      and\n      dup1\n      dup5\n      mstore\n      swap5\n      dup3\n      mstore\n      swap2\n      dup3\n      swap1\n      keccak256\n        /* \"https://github.com/LayerZero-Labs/solidity-examples/blob/main/contracts/lzApp/LzApp.sol\":6470:6521  minDstGasLookup[_dstChainId][_packetType] = _minGas */\n      dup6\n      swap1\n      sstore\n        /* \"https://github.com/LayerZero-Labs/solidity-examples/blob/main/contracts/lzApp/LzApp.sol\":6536:6583  SetMinDstGas(_dstChainId, _packetType, _minGas) */\n      dup2\n      mload\n        /* \"#utility.yul\":17952:17986   */\n      swap3\n      dup4\n      mstore\n        /* \"#utility.yul\":18002:18020   */\n      dup3\n      add\n        /* \"#utility.yul\":17995:18038   */\n      swap3\n      swap1\n      swap3\n      mstore\n        /* \"#utility.yul\":18054:18072   */\n      swap1\n      dup2\n      add\n        /* \"#utility.yul\":18047:18081   */\n      dup3\n      swap1\n      mstore\n        /* \"https://github.com/LayerZero-Labs/solidity-examples/blob/main/contracts/lzApp/LzApp.sol\":6536:6583  SetMinDstGas(_dstChainId, _packetType, _minGas) */\n      0x9d5c7c0b934da8fefa9c7760c98383778a12dfbfc0c3b3106518f43fb9508ac0\n      swap1\n        /* \"#utility.yul\":17915:17917   */\n      0x60\n        /* \"#utility.yul\":17900:17918   */\n      add\n        /* \"https://github.com/LayerZero-Labs/solidity-examples/blob/main/contracts/lzApp/LzApp.sol\":6536:6583  SetMinDstGas(_dstChainId, _packetType, _minGas) */\n      tag_351\n        /* \"#utility.yul\":17729:18087   */\n      jump\n        /* \"https://github.com/LayerZero-Labs/solidity-examples/blob/main/contracts/lzApp/LzApp.sol\":5370:5574  function setTrustedRemote(uint16 _remoteChainId, bytes calldata _path) external onlyOwner {... */\n    tag_209:\n        /* \"@openzeppelin/contracts/access/Ownable.sol\":1531:1544  _checkOwner() */\n      tag_387\n        /* \"@openzeppelin/contracts/access/Ownable.sol\":1531:1542  _checkOwner */\n      tag_249\n        /* \"@openzeppelin/contracts/access/Ownable.sol\":1531:1544  _checkOwner() */\n      jump\t// in\n    tag_387:\n        /* \"https://github.com/LayerZero-Labs/solidity-examples/blob/main/contracts/lzApp/LzApp.sol\":5470:5505  trustedRemoteLookup[_remoteChainId] */\n      0xffff\n      dup4\n      and\n      0x00\n      swap1\n      dup2\n      mstore\n        /* \"https://github.com/LayerZero-Labs/solidity-examples/blob/main/contracts/lzApp/LzApp.sol\":5470:5489  trustedRemoteLookup */\n      0x01\n        /* \"https://github.com/LayerZero-Labs/solidity-examples/blob/main/contracts/lzApp/LzApp.sol\":5470:5505  trustedRemoteLookup[_remoteChainId] */\n      0x20\n      mstore\n      0x40\n      swap1\n      keccak256\n        /* \"https://github.com/LayerZero-Labs/solidity-examples/blob/main/contracts/lzApp/LzApp.sol\":5470:5513  trustedRemoteLookup[_remoteChainId] = _path */\n      tag_389\n        /* \"https://github.com/LayerZero-Labs/solidity-examples/blob/main/contracts/lzApp/LzApp.sol\":5508:5513  _path */\n      dup3\n      dup5\n        /* \"https://github.com/LayerZero-Labs/solidity-examples/blob/main/contracts/lzApp/LzApp.sol\":5470:5505  trustedRemoteLookup[_remoteChainId] */\n      dup4\n        /* \"https://github.com/LayerZero-Labs/solidity-examples/blob/main/contracts/lzApp/LzApp.sol\":5470:5513  trustedRemoteLookup[_remoteChainId] = _path */\n      tag_390\n      jump\t// in\n    tag_389:\n      pop\n        /* \"https://github.com/LayerZero-Labs/solidity-examples/blob/main/contracts/lzApp/LzApp.sol\":5528:5567  SetTrustedRemote(_remoteChainId, _path) */\n      0xfa41487ad5d6728f0b19276fa1eddc16558578f5109fc39d2dc33c3230470dab\n        /* \"https://github.com/LayerZero-Labs/solidity-examples/blob/main/contracts/lzApp/LzApp.sol\":5545:5559  _remoteChainId */\n      dup4\n        /* \"https://github.com/LayerZero-Labs/solidity-examples/blob/main/contracts/lzApp/LzApp.sol\":5561:5566  _path */\n      dup4\n      dup4\n        /* \"https://github.com/LayerZero-Labs/solidity-examples/blob/main/contracts/lzApp/LzApp.sol\":5528:5567  SetTrustedRemote(_remoteChainId, _path) */\n      mload(0x40)\n      tag_351\n      swap4\n      swap3\n      swap2\n      swap1\n      tag_289\n      jump\t// in\n        /* \"@openzeppelin/contracts/access/Ownable.sol\":2543:2758  function transferOwnership(address newOwner) public virtual onlyOwner {... */\n    tag_213:\n        /* \"@openzeppelin/contracts/access/Ownable.sol\":1531:1544  _checkOwner() */\n      tag_393\n        /* \"@openzeppelin/contracts/access/Ownable.sol\":1531:1542  _checkOwner */\n      tag_249\n        /* \"@openzeppelin/contracts/access/Ownable.sol\":1531:1544  _checkOwner() */\n      jump\t// in\n    tag_393:\n      sub(shl(0xa0, 0x01), 0x01)\n        /* \"@openzeppelin/contracts/access/Ownable.sol\":2627:2649  newOwner == address(0) */\n      dup2\n      and\n        /* \"@openzeppelin/contracts/access/Ownable.sol\":2623:2714  if (newOwner == address(0)) {... */\n      tag_395\n      jumpi\n        /* \"@openzeppelin/contracts/access/Ownable.sol\":2672:2703  OwnableInvalidOwner(address(0)) */\n      mload(0x40)\n      shl(0xe0, 0x1e4fbdf7)\n      dup2\n      mstore\n        /* \"@openzeppelin/contracts/access/Ownable.sol\":2700:2701  0 */\n      0x00\n        /* \"@openzeppelin/contracts/access/Ownable.sol\":2672:2703  OwnableInvalidOwner(address(0)) */\n      0x04\n      dup3\n      add\n        /* \"#utility.yul\":7228:7279   */\n      mstore\n        /* \"#utility.yul\":7201:7219   */\n      0x24\n      add\n        /* \"@openzeppelin/contracts/access/Ownable.sol\":2672:2703  OwnableInvalidOwner(address(0)) */\n      tag_224\n        /* \"#utility.yul\":7082:7285   */\n      jump\n        /* \"@openzeppelin/contracts/access/Ownable.sol\":2623:2714  if (newOwner == address(0)) {... */\n    tag_395:\n        /* \"@openzeppelin/contracts/access/Ownable.sol\":2723:2751  _transferOwnership(newOwner) */\n      tag_397\n        /* \"@openzeppelin/contracts/access/Ownable.sol\":2742:2750  newOwner */\n      dup2\n        /* \"@openzeppelin/contracts/access/Ownable.sol\":2723:2741  _transferOwnership */\n      tag_312\n        /* \"@openzeppelin/contracts/access/Ownable.sol\":2723:2751  _transferOwnership(newOwner) */\n      jump\t// in\n    tag_397:\n        /* \"@openzeppelin/contracts/access/Ownable.sol\":2543:2758  function transferOwnership(address newOwner) public virtual onlyOwner {... */\n      pop\n      jump\t// out\n        /* \"https://github.com/LayerZero-Labs/solidity-examples/blob/main/contracts/lzApp/LzApp.sol\":4239:4486  function getConfig(... */\n    tag_218:\n        /* \"https://github.com/LayerZero-Labs/solidity-examples/blob/main/contracts/lzApp/LzApp.sol\":4411:4479  lzEndpoint.getConfig(_version, _chainId, address(this), _configType) */\n      mload(0x40)\n      shl(0xe2, 0x3d7b2f6f)\n      dup2\n      mstore\n        /* \"#utility.yul\":19528:19534   */\n      0xffff\n        /* \"#utility.yul\":19561:19576   */\n      dup1\n      dup7\n      and\n        /* \"https://github.com/LayerZero-Labs/solidity-examples/blob/main/contracts/lzApp/LzApp.sol\":4411:4479  lzEndpoint.getConfig(_version, _chainId, address(this), _configType) */\n      0x04\n      dup4\n      add\n        /* \"#utility.yul\":19543:19577   */\n      mstore\n        /* \"#utility.yul\":19613:19628   */\n      dup5\n      and\n        /* \"#utility.yul\":19593:19611   */\n      0x24\n      dup3\n      add\n        /* \"#utility.yul\":19586:19629   */\n      mstore\n        /* \"https://github.com/LayerZero-Labs/solidity-examples/blob/main/contracts/lzApp/LzApp.sol\":4460:4464  this */\n      address\n        /* \"#utility.yul\":19645:19663   */\n      0x44\n      dup3\n      add\n        /* \"#utility.yul\":19638:19698   */\n      mstore\n        /* \"#utility.yul\":19714:19732   */\n      0x64\n      dup2\n      add\n        /* \"#utility.yul\":19707:19741   */\n      dup3\n      swap1\n      mstore\n        /* \"https://github.com/LayerZero-Labs/solidity-examples/blob/main/contracts/lzApp/LzApp.sol\":4380:4392  bytes memory */\n      0x60\n      swap1\n        /* \"https://github.com/LayerZero-Labs/solidity-examples/blob/main/contracts/lzApp/LzApp.sol\":4411:4421  lzEndpoint */\n      immutable(\"0x2dd41b52be520f2be19c4ebee9680faf4b387bcc0bea79c5109b4351368330e6\")\n      sub(shl(0xa0, 0x01), 0x01)\n        /* \"https://github.com/LayerZero-Labs/solidity-examples/blob/main/contracts/lzApp/LzApp.sol\":4411:4431  lzEndpoint.getConfig */\n      and\n      swap1\n      0xf5ecbdbc\n      swap1\n        /* \"#utility.yul\":19490:19509   */\n      0x84\n      add\n        /* \"https://github.com/LayerZero-Labs/solidity-examples/blob/main/contracts/lzApp/LzApp.sol\":4411:4479  lzEndpoint.getConfig(_version, _chainId, address(this), _configType) */\n      0x00\n      mload(0x40)\n      dup1\n      dup4\n      sub\n      dup2\n      dup7\n      gas\n      staticcall\n      iszero\n      dup1\n      iszero\n      tag_402\n      jumpi\n      returndatasize\n      0x00\n      dup1\n      returndatacopy\n      revert(0x00, returndatasize)\n    tag_402:\n      pop\n      pop\n      pop\n      pop\n      mload(0x40)\n      returndatasize\n      0x00\n      dup3\n      returndatacopy\n      0x1f\n      returndatasize\n      swap1\n      dup2\n      add\n      not(0x1f)\n      and\n      dup3\n      add\n      0x40\n      mstore\n      tag_403\n      swap2\n      swap1\n      dup2\n      add\n      swap1\n      tag_404\n      jump\t// in\n    tag_403:\n        /* \"https://github.com/LayerZero-Labs/solidity-examples/blob/main/contracts/lzApp/LzApp.sol\":4404:4479  return lzEndpoint.getConfig(_version, _chainId, address(this), _configType) */\n      swap6\n        /* \"https://github.com/LayerZero-Labs/solidity-examples/blob/main/contracts/lzApp/LzApp.sol\":4239:4486  function getConfig(... */\n      swap5\n      pop\n      pop\n      pop\n      pop\n      pop\n      jump\t// out\n        /* \"https://github.com/LayerZero-Labs/solidity-examples/blob/main/contracts/lzApp/NonblockingLzApp.sol\":985:1534  function _blockingLzReceive(... */\n    tag_240:\n        /* \"https://github.com/LayerZero-Labs/solidity-examples/blob/main/contracts/lzApp/NonblockingLzApp.sol\":1172:1184  bool success */\n      0x00\n        /* \"https://github.com/LayerZero-Labs/solidity-examples/blob/main/contracts/lzApp/NonblockingLzApp.sol\":1186:1205  bytes memory reason */\n      dup1\n        /* \"https://github.com/LayerZero-Labs/solidity-examples/blob/main/contracts/lzApp/NonblockingLzApp.sol\":1209:1408  address(this).excessivelySafeCall(... */\n      tag_407\n        /* \"https://github.com/LayerZero-Labs/solidity-examples/blob/main/contracts/lzApp/NonblockingLzApp.sol\":1256:1265  gasleft() */\n      gas\n        /* \"https://github.com/LayerZero-Labs/solidity-examples/blob/main/contracts/lzApp/NonblockingLzApp.sol\":1279:1282  150 */\n      0x96\n        /* \"https://github.com/LayerZero-Labs/solidity-examples/blob/main/contracts/lzApp/NonblockingLzApp.sol\":1319:1353  this.nonblockingLzReceive.selector */\n      shl(0xe0, 0x66ad5c8a)\n        /* \"https://github.com/LayerZero-Labs/solidity-examples/blob/main/contracts/lzApp/NonblockingLzApp.sol\":1355:1366  _srcChainId */\n      dup10\n        /* \"https://github.com/LayerZero-Labs/solidity-examples/blob/main/contracts/lzApp/NonblockingLzApp.sol\":1368:1379  _srcAddress */\n      dup10\n        /* \"https://github.com/LayerZero-Labs/solidity-examples/blob/main/contracts/lzApp/NonblockingLzApp.sol\":1381:1387  _nonce */\n      dup10\n        /* \"https://github.com/LayerZero-Labs/solidity-examples/blob/main/contracts/lzApp/NonblockingLzApp.sol\":1389:1397  _payload */\n      dup10\n        /* \"https://github.com/LayerZero-Labs/solidity-examples/blob/main/contracts/lzApp/NonblockingLzApp.sol\":1296:1398  abi.encodeWithSelector(this.nonblockingLzReceive.selector, _srcChainId, _srcAddress, _nonce, _payload) */\n      add(0x24, mload(0x40))\n      tag_408\n      swap5\n      swap4\n      swap3\n      swap2\n      swap1\n      tag_409\n      jump\t// in\n    tag_408:\n      0x40\n      dup1\n      mload\n      not(0x1f)\n      dup2\n      dup5\n      sub\n      add\n      dup2\n      mstore\n      swap2\n      swap1\n      mstore\n      0x20\n      dup2\n      add\n      dup1\n      mload\n      sub(shl(0xe0, 0x01), 0x01)\n      and\n      not(sub(shl(0xe0, 0x01), 0x01))\n      swap1\n      swap4\n      and\n      swap3\n      swap1\n      swap3\n      or\n      swap1\n      swap2\n      mstore\n        /* \"https://github.com/LayerZero-Labs/solidity-examples/blob/main/contracts/lzApp/NonblockingLzApp.sol\":1217:1221  this */\n      address\n      swap3\n        /* \"https://github.com/LayerZero-Labs/solidity-examples/blob/main/contracts/lzApp/NonblockingLzApp.sol\":1209:1408  address(this).excessivelySafeCall(... */\n      swap2\n      swap1\n        /* \"https://github.com/LayerZero-Labs/solidity-examples/blob/main/contracts/lzApp/NonblockingLzApp.sol\":1209:1242  address(this).excessivelySafeCall */\n      tag_410\n        /* \"https://github.com/LayerZero-Labs/solidity-examples/blob/main/contracts/lzApp/NonblockingLzApp.sol\":1209:1408  address(this).excessivelySafeCall(... */\n      jump\t// in\n    tag_407:\n        /* \"https://github.com/LayerZero-Labs/solidity-examples/blob/main/contracts/lzApp/NonblockingLzApp.sol\":1171:1408  (bool success, bytes memory reason) = address(this).excessivelySafeCall(... */\n      swap2\n      pop\n      swap2\n      pop\n        /* \"https://github.com/LayerZero-Labs/solidity-examples/blob/main/contracts/lzApp/NonblockingLzApp.sol\":1423:1430  success */\n      dup2\n        /* \"https://github.com/LayerZero-Labs/solidity-examples/blob/main/contracts/lzApp/NonblockingLzApp.sol\":1418:1528  if (!success) {... */\n      tag_305\n      jumpi\n        /* \"https://github.com/LayerZero-Labs/solidity-examples/blob/main/contracts/lzApp/NonblockingLzApp.sol\":1446:1517  _storeFailedMessage(_srcChainId, _srcAddress, _nonce, _payload, reason) */\n      tag_305\n        /* \"https://github.com/LayerZero-Labs/solidity-examples/blob/main/contracts/lzApp/NonblockingLzApp.sol\":1466:1477  _srcChainId */\n      dup7\n        /* \"https://github.com/LayerZero-Labs/solidity-examples/blob/main/contracts/lzApp/NonblockingLzApp.sol\":1479:1490  _srcAddress */\n      dup7\n        /* \"https://github.com/LayerZero-Labs/solidity-examples/blob/main/contracts/lzApp/NonblockingLzApp.sol\":1492:1498  _nonce */\n      dup7\n        /* \"https://github.com/LayerZero-Labs/solidity-examples/blob/main/contracts/lzApp/NonblockingLzApp.sol\":1500:1508  _payload */\n      dup7\n        /* \"https://github.com/LayerZero-Labs/solidity-examples/blob/main/contracts/lzApp/NonblockingLzApp.sol\":1510:1516  reason */\n      dup6\n        /* \"https://github.com/LayerZero-Labs/solidity-examples/blob/main/contracts/lzApp/NonblockingLzApp.sol\":1446:1465  _storeFailedMessage */\n      tag_413\n        /* \"https://github.com/LayerZero-Labs/solidity-examples/blob/main/contracts/lzApp/NonblockingLzApp.sol\":1446:1517  _storeFailedMessage(_srcChainId, _srcAddress, _nonce, _payload, reason) */\n      jump\t// in\n        /* \"@openzeppelin/contracts/access/Ownable.sol\":1796:1958  function _checkOwner() internal view virtual {... */\n    tag_249:\n        /* \"@openzeppelin/contracts/access/Ownable.sol\":1684:1691  address */\n      0x00\n        /* \"@openzeppelin/contracts/access/Ownable.sol\":1710:1716  _owner */\n      sload\n      sub(shl(0xa0, 0x01), 0x01)\n      and\n        /* \"@openzeppelin/contracts/utils/Context.sol\":735:745  msg.sender */\n      caller\n        /* \"@openzeppelin/contracts/access/Ownable.sol\":1855:1878  owner() != _msgSender() */\n      eq\n        /* \"@openzeppelin/contracts/access/Ownable.sol\":1851:1952  if (owner() != _msgSender()) {... */\n      tag_311\n      jumpi\n        /* \"@openzeppelin/contracts/access/Ownable.sol\":1901:1941  OwnableUnauthorizedAccount(_msgSender()) */\n      mload(0x40)\n      shl(0xe0, 0x118cdaa7)\n      dup2\n      mstore\n        /* \"@openzeppelin/contracts/utils/Context.sol\":735:745  msg.sender */\n      caller\n        /* \"@openzeppelin/contracts/access/Ownable.sol\":1901:1941  OwnableUnauthorizedAccount(_msgSender()) */\n      0x04\n      dup3\n      add\n        /* \"#utility.yul\":7228:7279   */\n      mstore\n        /* \"#utility.yul\":7201:7219   */\n      0x24\n      add\n        /* \"@openzeppelin/contracts/access/Ownable.sol\":1901:1941  OwnableUnauthorizedAccount(_msgSender()) */\n      tag_224\n        /* \"#utility.yul\":7082:7285   */\n      jump\n        /* \"@openzeppelin/contracts/token/ERC20/ERC20.sol\":8989:9117  function _approve(address owner, address spender, uint256 value) internal {... */\n    tag_259:\n        /* \"@openzeppelin/contracts/token/ERC20/ERC20.sol\":9073:9110  _approve(owner, spender, value, true) */\n      tag_421\n        /* \"@openzeppelin/contracts/token/ERC20/ERC20.sol\":9082:9087  owner */\n      dup4\n        /* \"@openzeppelin/contracts/token/ERC20/ERC20.sol\":9089:9096  spender */\n      dup4\n        /* \"@openzeppelin/contracts/token/ERC20/ERC20.sol\":9098:9103  value */\n      dup4\n        /* \"@openzeppelin/contracts/token/ERC20/ERC20.sol\":9105:9109  true */\n      0x01\n        /* \"@openzeppelin/contracts/token/ERC20/ERC20.sol\":9073:9081  _approve */\n      tag_422\n        /* \"@openzeppelin/contracts/token/ERC20/ERC20.sol\":9073:9110  _approve(owner, spender, value, true) */\n      jump\t// in\n    tag_421:\n        /* \"@openzeppelin/contracts/token/ERC20/ERC20.sol\":8989:9117  function _approve(address owner, address spender, uint256 value) internal {... */\n      pop\n      pop\n      pop\n      jump\t// out\n        /* \"@openzeppelin/contracts/token/ERC20/ERC20.sol\":10663:11140  function _spendAllowance(address owner, address spender, uint256 value) internal virtual {... */\n    tag_274:\n      sub(shl(0xa0, 0x01), 0x01)\n        /* \"@openzeppelin/contracts/token/ERC20/ERC20.sol\":3952:3970  _allowances[owner] */\n      dup4\n      dup2\n      and\n        /* \"@openzeppelin/contracts/token/ERC20/ERC20.sol\":10762:10786  uint256 currentAllowance */\n      0x00\n        /* \"@openzeppelin/contracts/token/ERC20/ERC20.sol\":3952:3970  _allowances[owner] */\n      swap1\n      dup2\n      mstore\n        /* \"@openzeppelin/contracts/token/ERC20/ERC20.sol\":3952:3963  _allowances */\n      0x07\n        /* \"@openzeppelin/contracts/token/ERC20/ERC20.sol\":3952:3970  _allowances[owner] */\n      0x20\n      swap1\n      dup2\n      mstore\n      0x40\n      dup1\n      dup4\n      keccak256\n        /* \"@openzeppelin/contracts/token/ERC20/ERC20.sol\":3952:3979  _allowances[owner][spender] */\n      swap4\n      dup7\n      and\n      dup4\n      mstore\n      swap3\n      swap1\n      mstore\n      keccak256\n      sload\n      not(0x00)\n        /* \"@openzeppelin/contracts/token/ERC20/ERC20.sol\":10828:10865  currentAllowance != type(uint256).max */\n      dup2\n      eq\n        /* \"@openzeppelin/contracts/token/ERC20/ERC20.sol\":10824:11134  if (currentAllowance != type(uint256).max) {... */\n      tag_429\n      jumpi\n        /* \"@openzeppelin/contracts/token/ERC20/ERC20.sol\":10904:10909  value */\n      dup2\n        /* \"@openzeppelin/contracts/token/ERC20/ERC20.sol\":10885:10901  currentAllowance */\n      dup2\n        /* \"@openzeppelin/contracts/token/ERC20/ERC20.sol\":10885:10909  currentAllowance < value */\n      lt\n        /* \"@openzeppelin/contracts/token/ERC20/ERC20.sol\":10881:11011  if (currentAllowance < value) {... */\n      iszero\n      tag_426\n      jumpi\n        /* \"@openzeppelin/contracts/token/ERC20/ERC20.sol\":10936:10996  ERC20InsufficientAllowance(spender, currentAllowance, value) */\n      mload(0x40)\n      shl(0xe1, 0x7dc7a0d9)\n      dup2\n      mstore\n      sub(shl(0xa0, 0x01), 0x01)\n        /* \"#utility.yul\":21186:21218   */\n      dup5\n      and\n        /* \"@openzeppelin/contracts/token/ERC20/ERC20.sol\":10936:10996  ERC20InsufficientAllowance(spender, currentAllowance, value) */\n      0x04\n      dup3\n      add\n        /* \"#utility.yul\":21168:21219   */\n      mstore\n        /* \"#utility.yul\":21235:21253   */\n      0x24\n      dup2\n      add\n        /* \"#utility.yul\":21228:21262   */\n      dup3\n      swap1\n      mstore\n        /* \"#utility.yul\":21278:21296   */\n      0x44\n      dup2\n      add\n        /* \"#utility.yul\":21271:21305   */\n      dup4\n      swap1\n      mstore\n        /* \"#utility.yul\":21141:21159   */\n      0x64\n      add\n        /* \"@openzeppelin/contracts/token/ERC20/ERC20.sol\":10936:10996  ERC20InsufficientAllowance(spender, currentAllowance, value) */\n      tag_224\n        /* \"#utility.yul\":20966:21311   */\n      jump\n        /* \"@openzeppelin/contracts/token/ERC20/ERC20.sol\":10881:11011  if (currentAllowance < value) {... */\n    tag_426:\n        /* \"@openzeppelin/contracts/token/ERC20/ERC20.sol\":11052:11109  _approve(owner, spender, currentAllowance - value, false) */\n      tag_429\n        /* \"@openzeppelin/contracts/token/ERC20/ERC20.sol\":11061:11066  owner */\n      dup5\n        /* \"@openzeppelin/contracts/token/ERC20/ERC20.sol\":11068:11075  spender */\n      dup5\n        /* \"@openzeppelin/contracts/token/ERC20/ERC20.sol\":11096:11101  value */\n      dup5\n        /* \"@openzeppelin/contracts/token/ERC20/ERC20.sol\":11077:11093  currentAllowance */\n      dup5\n        /* \"@openzeppelin/contracts/token/ERC20/ERC20.sol\":11077:11101  currentAllowance - value */\n      sub\n        /* \"@openzeppelin/contracts/token/ERC20/ERC20.sol\":11103:11108  false */\n      0x00\n        /* \"@openzeppelin/contracts/token/ERC20/ERC20.sol\":11052:11060  _approve */\n      tag_422\n        /* \"@openzeppelin/contracts/token/ERC20/ERC20.sol\":11052:11109  _approve(owner, spender, currentAllowance - value, false) */\n      jump\t// in\n    tag_429:\n        /* \"@openzeppelin/contracts/token/ERC20/ERC20.sol\":10752:11140  {... */\n      pop\n        /* \"@openzeppelin/contracts/token/ERC20/ERC20.sol\":10663:11140  function _spendAllowance(address owner, address spender, uint256 value) internal virtual {... */\n      pop\n      pop\n      pop\n      jump\t// out\n        /* \"@openzeppelin/contracts/token/ERC20/ERC20.sol\":5656:5956  function _transfer(address from, address to, uint256 value) internal {... */\n    tag_276:\n      sub(shl(0xa0, 0x01), 0x01)\n        /* \"@openzeppelin/contracts/token/ERC20/ERC20.sol\":5739:5757  from == address(0) */\n      dup4\n      and\n        /* \"@openzeppelin/contracts/token/ERC20/ERC20.sol\":5735:5821  if (from == address(0)) {... */\n      tag_431\n      jumpi\n        /* \"@openzeppelin/contracts/token/ERC20/ERC20.sol\":5780:5810  ERC20InvalidSender(address(0)) */\n      mload(0x40)\n      shl(0xe1, 0x4b637e8f)\n      dup2\n      mstore\n        /* \"@openzeppelin/contracts/token/ERC20/ERC20.sol\":5807:5808  0 */\n      0x00\n        /* \"@openzeppelin/contracts/token/ERC20/ERC20.sol\":5780:5810  ERC20InvalidSender(address(0)) */\n      0x04\n      dup3\n      add\n        /* \"#utility.yul\":7228:7279   */\n      mstore\n        /* \"#utility.yul\":7201:7219   */\n      0x24\n      add\n        /* \"@openzeppelin/contracts/token/ERC20/ERC20.sol\":5780:5810  ERC20InvalidSender(address(0)) */\n      tag_224\n        /* \"#utility.yul\":7082:7285   */\n      jump\n        /* \"@openzeppelin/contracts/token/ERC20/ERC20.sol\":5735:5821  if (from == address(0)) {... */\n    tag_431:\n      sub(shl(0xa0, 0x01), 0x01)\n        /* \"@openzeppelin/contracts/token/ERC20/ERC20.sol\":5834:5850  to == address(0) */\n      dup3\n      and\n        /* \"@openzeppelin/contracts/token/ERC20/ERC20.sol\":5830:5916  if (to == address(0)) {... */\n      tag_433\n      jumpi\n        /* \"@openzeppelin/contracts/token/ERC20/ERC20.sol\":5873:5905  ERC20InvalidReceiver(address(0)) */\n      mload(0x40)\n      shl(0xe0, 0xec442f05)\n      dup2\n      mstore\n        /* \"@openzeppelin/contracts/token/ERC20/ERC20.sol\":5902:5903  0 */\n      0x00\n        /* \"@openzeppelin/contracts/token/ERC20/ERC20.sol\":5873:5905  ERC20InvalidReceiver(address(0)) */\n      0x04\n      dup3\n      add\n        /* \"#utility.yul\":7228:7279   */\n      mstore\n        /* \"#utility.yul\":7201:7219   */\n      0x24\n      add\n        /* \"@openzeppelin/contracts/token/ERC20/ERC20.sol\":5873:5905  ERC20InvalidReceiver(address(0)) */\n      tag_224\n        /* \"#utility.yul\":7082:7285   */\n      jump\n        /* \"@openzeppelin/contracts/token/ERC20/ERC20.sol\":5830:5916  if (to == address(0)) {... */\n    tag_433:\n        /* \"@openzeppelin/contracts/token/ERC20/ERC20.sol\":5925:5949  _update(from, to, value) */\n      tag_421\n        /* \"@openzeppelin/contracts/token/ERC20/ERC20.sol\":5933:5937  from */\n      dup4\n        /* \"@openzeppelin/contracts/token/ERC20/ERC20.sol\":5939:5941  to */\n      dup4\n        /* \"@openzeppelin/contracts/token/ERC20/ERC20.sol\":5943:5948  value */\n      dup4\n        /* \"@openzeppelin/contracts/token/ERC20/ERC20.sol\":5925:5932  _update */\n      tag_436\n        /* \"@openzeppelin/contracts/token/ERC20/ERC20.sol\":5925:5949  _update(from, to, value) */\n      jump\t// in\n        /* \"CrossChainToken.sol\":1033:1258  function _nonblockingLzReceive(uint16, bytes memory, uint64, bytes memory _payload) internal override {... */\n    tag_306:\n        /* \"CrossChainToken.sol\":1146:1163  address toAddress */\n      0x00\n        /* \"CrossChainToken.sol\":1165:1176  uint amount */\n      dup1\n        /* \"CrossChainToken.sol\":1191:1199  _payload */\n      dup3\n        /* \"CrossChainToken.sol\":1180:1216  abi.decode(_payload, (address,uint)) */\n      dup1\n      0x20\n      add\n      swap1\n      mload\n      dup2\n      add\n      swap1\n      tag_438\n      swap2\n      swap1\n      tag_439\n      jump\t// in\n    tag_438:\n        /* \"CrossChainToken.sol\":1145:1216  (address toAddress, uint amount) = abi.decode(_payload, (address,uint)) */\n      swap2\n      pop\n      swap2\n      pop\n        /* \"CrossChainToken.sol\":1226:1250  _mint(toAddress, amount) */\n      tag_305\n        /* \"CrossChainToken.sol\":1232:1241  toAddress */\n      dup3\n        /* \"CrossChainToken.sol\":1243:1249  amount */\n      dup3\n        /* \"CrossChainToken.sol\":1226:1231  _mint */\n      tag_441\n        /* \"CrossChainToken.sol\":1226:1250  _mint(toAddress, amount) */\n      jump\t// in\n        /* \"@openzeppelin/contracts/access/Ownable.sol\":2912:3099  function _transferOwnership(address newOwner) internal virtual {... */\n    tag_312:\n        /* \"@openzeppelin/contracts/access/Ownable.sol\":2985:3001  address oldOwner */\n      0x00\n        /* \"@openzeppelin/contracts/access/Ownable.sol\":3004:3010  _owner */\n      dup1\n      sload\n      sub(shl(0xa0, 0x01), 0x01)\n        /* \"@openzeppelin/contracts/access/Ownable.sol\":3020:3037  _owner = newOwner */\n      dup4\n      dup2\n      and\n      not(sub(shl(0xa0, 0x01), 0x01))\n      dup4\n      and\n      dup2\n      or\n      dup5\n      sstore\n        /* \"@openzeppelin/contracts/access/Ownable.sol\":3052:3092  OwnershipTransferred(oldOwner, newOwner) */\n      mload(0x40)\n        /* \"@openzeppelin/contracts/access/Ownable.sol\":3004:3010  _owner */\n      swap2\n      swap1\n      swap3\n      and\n      swap3\n      dup4\n      swap2\n        /* \"@openzeppelin/contracts/access/Ownable.sol\":3052:3092  OwnershipTransferred(oldOwner, newOwner) */\n      0x8be0079c531659141344cd1fd0a4f28419497f9722a3daafe3b4186f6b6457e0\n      swap2\n        /* \"@openzeppelin/contracts/access/Ownable.sol\":2985:3001  address oldOwner */\n      swap1\n        /* \"@openzeppelin/contracts/access/Ownable.sol\":3052:3092  OwnershipTransferred(oldOwner, newOwner) */\n      log3\n        /* \"@openzeppelin/contracts/access/Ownable.sol\":2975:3099  {... */\n      pop\n        /* \"@openzeppelin/contracts/access/Ownable.sol\":2912:3099  function _transferOwnership(address newOwner) internal virtual {... */\n      pop\n      jump\t// out\n        /* \"@openzeppelin/contracts/token/ERC20/ERC20.sol\":8247:8453  function _burn(address account, uint256 value) internal {... */\n    tag_321:\n      sub(shl(0xa0, 0x01), 0x01)\n        /* \"@openzeppelin/contracts/token/ERC20/ERC20.sol\":8317:8338  account == address(0) */\n      dup3\n      and\n        /* \"@openzeppelin/contracts/token/ERC20/ERC20.sol\":8313:8402  if (account == address(0)) {... */\n      tag_444\n      jumpi\n        /* \"@openzeppelin/contracts/token/ERC20/ERC20.sol\":8361:8391  ERC20InvalidSender(address(0)) */\n      mload(0x40)\n      shl(0xe1, 0x4b637e8f)\n      dup2\n      mstore\n        /* \"@openzeppelin/contracts/token/ERC20/ERC20.sol\":8388:8389  0 */\n      0x00\n        /* \"@openzeppelin/contracts/token/ERC20/ERC20.sol\":8361:8391  ERC20InvalidSender(address(0)) */\n      0x04\n      dup3\n      add\n        /* \"#utility.yul\":7228:7279   */\n      mstore\n        /* \"#utility.yul\":7201:7219   */\n      0x24\n      add\n        /* \"@openzeppelin/contracts/token/ERC20/ERC20.sol\":8361:8391  ERC20InvalidSender(address(0)) */\n      tag_224\n        /* \"#utility.yul\":7082:7285   */\n      jump\n        /* \"@openzeppelin/contracts/token/ERC20/ERC20.sol\":8313:8402  if (account == address(0)) {... */\n    tag_444:\n        /* \"@openzeppelin/contracts/token/ERC20/ERC20.sol\":8411:8446  _update(account, address(0), value) */\n      tag_298\n        /* \"@openzeppelin/contracts/token/ERC20/ERC20.sol\":8419:8426  account */\n      dup3\n        /* \"@openzeppelin/contracts/token/ERC20/ERC20.sol\":8436:8437  0 */\n      0x00\n        /* \"@openzeppelin/contracts/token/ERC20/ERC20.sol\":8440:8445  value */\n      dup4\n        /* \"@openzeppelin/contracts/token/ERC20/ERC20.sol\":8411:8418  _update */\n      tag_436\n        /* \"@openzeppelin/contracts/token/ERC20/ERC20.sol\":8411:8446  _update(account, address(0), value) */\n      jump\t// in\n        /* \"https://github.com/LayerZero-Labs/solidity-examples/blob/main/contracts/lzApp/LzApp.sol\":2403:3005  function _lzSend(... */\n    tag_325:\n        /* \"https://github.com/LayerZero-Labs/solidity-examples/blob/main/contracts/lzApp/LzApp.sol\":2679:2711  trustedRemoteLookup[_dstChainId] */\n      0xffff\n      dup7\n      and\n        /* \"https://github.com/LayerZero-Labs/solidity-examples/blob/main/contracts/lzApp/LzApp.sol\":2650:2676  bytes memory trustedRemote */\n      0x00\n        /* \"https://github.com/LayerZero-Labs/solidity-examples/blob/main/contracts/lzApp/LzApp.sol\":2679:2711  trustedRemoteLookup[_dstChainId] */\n      swap1\n      dup2\n      mstore\n        /* \"https://github.com/LayerZero-Labs/solidity-examples/blob/main/contracts/lzApp/LzApp.sol\":2679:2698  trustedRemoteLookup */\n      0x01\n        /* \"https://github.com/LayerZero-Labs/solidity-examples/blob/main/contracts/lzApp/LzApp.sol\":2679:2711  trustedRemoteLookup[_dstChainId] */\n      0x20\n      mstore\n      0x40\n      dup2\n      keccak256\n        /* \"https://github.com/LayerZero-Labs/solidity-examples/blob/main/contracts/lzApp/LzApp.sol\":2650:2711  bytes memory trustedRemote = trustedRemoteLookup[_dstChainId] */\n      dup1\n      sload\n      tag_448\n      swap1\n      tag_227\n      jump\t// in\n    tag_448:\n      dup1\n      0x1f\n      add\n      0x20\n      dup1\n      swap2\n      div\n      mul\n      0x20\n      add\n      mload(0x40)\n      swap1\n      dup2\n      add\n      0x40\n      mstore\n      dup1\n      swap3\n      swap2\n      swap1\n      dup2\n      dup2\n      mstore\n      0x20\n      add\n      dup3\n      dup1\n      sload\n      tag_449\n      swap1\n      tag_227\n      jump\t// in\n    tag_449:\n      dup1\n      iszero\n      tag_450\n      jumpi\n      dup1\n      0x1f\n      lt\n      tag_451\n      jumpi\n      0x0100\n      dup1\n      dup4\n      sload\n      div\n      mul\n      dup4\n      mstore\n      swap2\n      0x20\n      add\n      swap2\n      jump(tag_450)\n    tag_451:\n      dup3\n      add\n      swap2\n      swap1\n      0x00\n      mstore\n      keccak256(0x00, 0x20)\n      swap1\n    tag_452:\n      dup2\n      sload\n      dup2\n      mstore\n      swap1\n      0x01\n      add\n      swap1\n      0x20\n      add\n      dup1\n      dup4\n      gt\n      tag_452\n      jumpi\n      dup3\n      swap1\n      sub\n      0x1f\n      and\n      dup3\n      add\n      swap2\n    tag_450:\n      pop\n      pop\n      pop\n      pop\n      pop\n      swap1\n      pop\n        /* \"https://github.com/LayerZero-Labs/solidity-examples/blob/main/contracts/lzApp/LzApp.sol\":2729:2742  trustedRemote */\n      dup1\n        /* \"https://github.com/LayerZero-Labs/solidity-examples/blob/main/contracts/lzApp/LzApp.sol\":2729:2749  trustedRemote.length */\n      mload\n        /* \"https://github.com/LayerZero-Labs/solidity-examples/blob/main/contracts/lzApp/LzApp.sol\":2753:2754  0 */\n      0x00\n        /* \"https://github.com/LayerZero-Labs/solidity-examples/blob/main/contracts/lzApp/LzApp.sol\":2729:2754  trustedRemote.length != 0 */\n      sub\n        /* \"https://github.com/LayerZero-Labs/solidity-examples/blob/main/contracts/lzApp/LzApp.sol\":2721:2807  require(trustedRemote.length != 0, \"LzApp: destination chain is not a trusted source\") */\n      tag_453\n      jumpi\n      mload(0x40)\n      shl(0xe5, 0x461bcd)\n      dup2\n      mstore\n        /* \"#utility.yul\":21843:21845   */\n      0x20\n        /* \"https://github.com/LayerZero-Labs/solidity-examples/blob/main/contracts/lzApp/LzApp.sol\":2721:2807  require(trustedRemote.length != 0, \"LzApp: destination chain is not a trusted source\") */\n      0x04\n      dup3\n      add\n        /* \"#utility.yul\":21825:21846   */\n      mstore\n        /* \"#utility.yul\":21882:21884   */\n      0x30\n        /* \"#utility.yul\":21862:21880   */\n      0x24\n      dup3\n      add\n        /* \"#utility.yul\":21855:21885   */\n      mstore\n        /* \"#utility.yul\":21921:21955   */\n      0x4c7a4170703a2064657374696e6174696f6e20636861696e206973206e6f7420\n        /* \"#utility.yul\":21901:21919   */\n      0x44\n      dup3\n      add\n        /* \"#utility.yul\":21894:21956   */\n      mstore\n      shl(0x80, 0x61207472757374656420736f75726365)\n        /* \"#utility.yul\":21972:21990   */\n      0x64\n      dup3\n      add\n        /* \"#utility.yul\":21965:22011   */\n      mstore\n        /* \"#utility.yul\":22028:22047   */\n      0x84\n      add\n        /* \"https://github.com/LayerZero-Labs/solidity-examples/blob/main/contracts/lzApp/LzApp.sol\":2721:2807  require(trustedRemote.length != 0, \"LzApp: destination chain is not a trusted source\") */\n      tag_224\n        /* \"#utility.yul\":21641:22053   */\n      jump\n        /* \"https://github.com/LayerZero-Labs/solidity-examples/blob/main/contracts/lzApp/LzApp.sol\":2721:2807  require(trustedRemote.length != 0, \"LzApp: destination chain is not a trusted source\") */\n    tag_453:\n        /* \"https://github.com/LayerZero-Labs/solidity-examples/blob/main/contracts/lzApp/LzApp.sol\":2817:2864  _checkPayloadSize(_dstChainId, _payload.length) */\n      tag_456\n        /* \"https://github.com/LayerZero-Labs/solidity-examples/blob/main/contracts/lzApp/LzApp.sol\":2835:2846  _dstChainId */\n      dup8\n        /* \"https://github.com/LayerZero-Labs/solidity-examples/blob/main/contracts/lzApp/LzApp.sol\":2848:2856  _payload */\n      dup8\n        /* \"https://github.com/LayerZero-Labs/solidity-examples/blob/main/contracts/lzApp/LzApp.sol\":2848:2863  _payload.length */\n      mload\n        /* \"https://github.com/LayerZero-Labs/solidity-examples/blob/main/contracts/lzApp/LzApp.sol\":2817:2834  _checkPayloadSize */\n      tag_457\n        /* \"https://github.com/LayerZero-Labs/solidity-examples/blob/main/contracts/lzApp/LzApp.sol\":2817:2864  _checkPayloadSize(_dstChainId, _payload.length) */\n      jump\t// in\n    tag_456:\n        /* \"https://github.com/LayerZero-Labs/solidity-examples/blob/main/contracts/lzApp/LzApp.sol\":2874:2998  lzEndpoint.send{value: _nativeFee}(_dstChainId, trustedRemote, _payload, _refundAddress, _zroPaymentAddress, _adapterParams) */\n      mload(0x40)\n      shl(0xe8, 0xc58031)\n      dup2\n      mstore\n      sub(shl(0xa0, 0x01), 0x01)\n        /* \"https://github.com/LayerZero-Labs/solidity-examples/blob/main/contracts/lzApp/LzApp.sol\":2874:2884  lzEndpoint */\n      immutable(\"0x2dd41b52be520f2be19c4ebee9680faf4b387bcc0bea79c5109b4351368330e6\")\n        /* \"https://github.com/LayerZero-Labs/solidity-examples/blob/main/contracts/lzApp/LzApp.sol\":2874:2889  lzEndpoint.send */\n      and\n      swap1\n      0xc5803100\n      swap1\n        /* \"https://github.com/LayerZero-Labs/solidity-examples/blob/main/contracts/lzApp/LzApp.sol\":2897:2907  _nativeFee */\n      dup5\n      swap1\n        /* \"https://github.com/LayerZero-Labs/solidity-examples/blob/main/contracts/lzApp/LzApp.sol\":2874:2998  lzEndpoint.send{value: _nativeFee}(_dstChainId, trustedRemote, _payload, _refundAddress, _zroPaymentAddress, _adapterParams) */\n      tag_458\n      swap1\n        /* \"https://github.com/LayerZero-Labs/solidity-examples/blob/main/contracts/lzApp/LzApp.sol\":2909:2920  _dstChainId */\n      dup12\n      swap1\n        /* \"https://github.com/LayerZero-Labs/solidity-examples/blob/main/contracts/lzApp/LzApp.sol\":2922:2935  trustedRemote */\n      dup7\n      swap1\n        /* \"https://github.com/LayerZero-Labs/solidity-examples/blob/main/contracts/lzApp/LzApp.sol\":2937:2945  _payload */\n      dup13\n      swap1\n        /* \"https://github.com/LayerZero-Labs/solidity-examples/blob/main/contracts/lzApp/LzApp.sol\":2947:2961  _refundAddress */\n      dup13\n      swap1\n        /* \"https://github.com/LayerZero-Labs/solidity-examples/blob/main/contracts/lzApp/LzApp.sol\":2963:2981  _zroPaymentAddress */\n      dup13\n      swap1\n        /* \"https://github.com/LayerZero-Labs/solidity-examples/blob/main/contracts/lzApp/LzApp.sol\":2983:2997  _adapterParams */\n      dup13\n      swap1\n        /* \"https://github.com/LayerZero-Labs/solidity-examples/blob/main/contracts/lzApp/LzApp.sol\":2874:2998  lzEndpoint.send{value: _nativeFee}(_dstChainId, trustedRemote, _payload, _refundAddress, _zroPaymentAddress, _adapterParams) */\n      0x04\n      add\n      tag_459\n      jump\t// in\n    tag_458:\n      0x00\n      mload(0x40)\n      dup1\n      dup4\n      sub\n      dup2\n      dup6\n      dup9\n      dup1\n      extcodesize\n      iszero\n      dup1\n      iszero\n      tag_460\n      jumpi\n      0x00\n      dup1\n      revert\n    tag_460:\n      pop\n      gas\n      call\n      iszero\n      dup1\n      iszero\n      tag_462\n      jumpi\n      returndatasize\n      0x00\n      dup1\n      returndatacopy\n      revert(0x00, returndatasize)\n    tag_462:\n      pop\n      pop\n      pop\n      pop\n      pop\n        /* \"https://github.com/LayerZero-Labs/solidity-examples/blob/main/contracts/lzApp/LzApp.sol\":2640:3005  {... */\n      pop\n        /* \"https://github.com/LayerZero-Labs/solidity-examples/blob/main/contracts/lzApp/LzApp.sol\":2403:3005  function _lzSend(... */\n      pop\n      pop\n      pop\n      pop\n      pop\n      pop\n      jump\t// out\n        /* \"https://github.com/LayerZero-Labs/solidity-examples/blob/main/contracts/libraries/BytesLib.sol\":9258:12028  function slice(... */\n    tag_344:\n        /* \"https://github.com/LayerZero-Labs/solidity-examples/blob/main/contracts/libraries/BytesLib.sol\":9374:9386  bytes memory */\n      0x60\n        /* \"https://github.com/LayerZero-Labs/solidity-examples/blob/main/contracts/libraries/BytesLib.sol\":9422:9429  _length */\n      dup2\n        /* \"https://github.com/LayerZero-Labs/solidity-examples/blob/main/contracts/libraries/BytesLib.sol\":9406:9418  _length + 31 */\n      tag_464\n        /* \"https://github.com/LayerZero-Labs/solidity-examples/blob/main/contracts/libraries/BytesLib.sol\":9422:9429  _length */\n      dup2\n        /* \"https://github.com/LayerZero-Labs/solidity-examples/blob/main/contracts/libraries/BytesLib.sol\":9416:9418  31 */\n      0x1f\n        /* \"https://github.com/LayerZero-Labs/solidity-examples/blob/main/contracts/libraries/BytesLib.sol\":9406:9418  _length + 31 */\n      tag_465\n      jump\t// in\n    tag_464:\n        /* \"https://github.com/LayerZero-Labs/solidity-examples/blob/main/contracts/libraries/BytesLib.sol\":9406:9429  _length + 31 >= _length */\n      lt\n      iszero\n        /* \"https://github.com/LayerZero-Labs/solidity-examples/blob/main/contracts/libraries/BytesLib.sol\":9398:9448  require(_length + 31 >= _length, \"slice_overflow\") */\n      tag_466\n      jumpi\n      mload(0x40)\n      shl(0xe5, 0x461bcd)\n      dup2\n      mstore\n        /* \"#utility.yul\":23235:23237   */\n      0x20\n        /* \"https://github.com/LayerZero-Labs/solidity-examples/blob/main/contracts/libraries/BytesLib.sol\":9398:9448  require(_length + 31 >= _length, \"slice_overflow\") */\n      0x04\n      dup3\n      add\n        /* \"#utility.yul\":23217:23238   */\n      mstore\n        /* \"#utility.yul\":23274:23276   */\n      0x0e\n        /* \"#utility.yul\":23254:23272   */\n      0x24\n      dup3\n      add\n        /* \"#utility.yul\":23247:23277   */\n      mstore\n      shl(0x90, 0x736c6963655f6f766572666c6f77)\n        /* \"#utility.yul\":23293:23311   */\n      0x44\n      dup3\n      add\n        /* \"#utility.yul\":23286:23330   */\n      mstore\n        /* \"#utility.yul\":23347:23365   */\n      0x64\n      add\n        /* \"https://github.com/LayerZero-Labs/solidity-examples/blob/main/contracts/libraries/BytesLib.sol\":9398:9448  require(_length + 31 >= _length, \"slice_overflow\") */\n      tag_224\n        /* \"#utility.yul\":23033:23371   */\n      jump\n        /* \"https://github.com/LayerZero-Labs/solidity-examples/blob/main/contracts/libraries/BytesLib.sol\":9398:9448  require(_length + 31 >= _length, \"slice_overflow\") */\n    tag_466:\n        /* \"https://github.com/LayerZero-Labs/solidity-examples/blob/main/contracts/libraries/BytesLib.sol\":9483:9499  _start + _length */\n      tag_469\n        /* \"https://github.com/LayerZero-Labs/solidity-examples/blob/main/contracts/libraries/BytesLib.sol\":9492:9499  _length */\n      dup3\n        /* \"https://github.com/LayerZero-Labs/solidity-examples/blob/main/contracts/libraries/BytesLib.sol\":9483:9489  _start */\n      dup5\n        /* \"https://github.com/LayerZero-Labs/solidity-examples/blob/main/contracts/libraries/BytesLib.sol\":9483:9499  _start + _length */\n      tag_465\n      jump\t// in\n    tag_469:\n        /* \"https://github.com/LayerZero-Labs/solidity-examples/blob/main/contracts/libraries/BytesLib.sol\":9466:9472  _bytes */\n      dup5\n        /* \"https://github.com/LayerZero-Labs/solidity-examples/blob/main/contracts/libraries/BytesLib.sol\":9466:9479  _bytes.length */\n      mload\n        /* \"https://github.com/LayerZero-Labs/solidity-examples/blob/main/contracts/libraries/BytesLib.sol\":9466:9499  _bytes.length >= _start + _length */\n      lt\n      iszero\n        /* \"https://github.com/LayerZero-Labs/solidity-examples/blob/main/contracts/libraries/BytesLib.sol\":9458:9521  require(_bytes.length >= _start + _length, \"slice_outOfBounds\") */\n      tag_470\n      jumpi\n      mload(0x40)\n      shl(0xe5, 0x461bcd)\n      dup2\n      mstore\n        /* \"#utility.yul\":23578:23580   */\n      0x20\n        /* \"https://github.com/LayerZero-Labs/solidity-examples/blob/main/contracts/libraries/BytesLib.sol\":9458:9521  require(_bytes.length >= _start + _length, \"slice_outOfBounds\") */\n      0x04\n      dup3\n      add\n        /* \"#utility.yul\":23560:23581   */\n      mstore\n        /* \"#utility.yul\":23617:23619   */\n      0x11\n        /* \"#utility.yul\":23597:23615   */\n      0x24\n      dup3\n      add\n        /* \"#utility.yul\":23590:23620   */\n      mstore\n      shl(0x78, 0x736c6963655f6f75744f66426f756e6473)\n        /* \"#utility.yul\":23636:23654   */\n      0x44\n      dup3\n      add\n        /* \"#utility.yul\":23629:23676   */\n      mstore\n        /* \"#utility.yul\":23693:23711   */\n      0x64\n      add\n        /* \"https://github.com/LayerZero-Labs/solidity-examples/blob/main/contracts/libraries/BytesLib.sol\":9458:9521  require(_bytes.length >= _start + _length, \"slice_outOfBounds\") */\n      tag_224\n        /* \"#utility.yul\":23376:23717   */\n      jump\n        /* \"https://github.com/LayerZero-Labs/solidity-examples/blob/main/contracts/libraries/BytesLib.sol\":9458:9521  require(_bytes.length >= _start + _length, \"slice_outOfBounds\") */\n    tag_470:\n        /* \"https://github.com/LayerZero-Labs/solidity-examples/blob/main/contracts/libraries/BytesLib.sol\":9532:9554  bytes memory tempBytes */\n      0x60\n        /* \"https://github.com/LayerZero-Labs/solidity-examples/blob/main/contracts/libraries/BytesLib.sol\":9595:9610  iszero(_length) */\n      dup3\n      iszero\n        /* \"https://github.com/LayerZero-Labs/solidity-examples/blob/main/contracts/libraries/BytesLib.sol\":9623:11590  case 0 {... */\n      dup1\n      iszero\n      tag_474\n      jumpi\n        /* \"https://github.com/LayerZero-Labs/solidity-examples/blob/main/contracts/libraries/BytesLib.sol\":11731:11735  0x40 */\n      0x40\n        /* \"https://github.com/LayerZero-Labs/solidity-examples/blob/main/contracts/libraries/BytesLib.sol\":11725:11736  mload(0x40) */\n      mload\n        /* \"https://github.com/LayerZero-Labs/solidity-examples/blob/main/contracts/libraries/BytesLib.sol\":11712:11736  tempBytes := mload(0x40) */\n      swap2\n      pop\n        /* \"https://github.com/LayerZero-Labs/solidity-examples/blob/main/contracts/libraries/BytesLib.sol\":11917:11918  0 */\n      0x00\n        /* \"https://github.com/LayerZero-Labs/solidity-examples/blob/main/contracts/libraries/BytesLib.sol\":11906:11915  tempBytes */\n      dup3\n        /* \"https://github.com/LayerZero-Labs/solidity-examples/blob/main/contracts/libraries/BytesLib.sol\":11899:11919  mstore(tempBytes, 0) */\n      mstore\n        /* \"https://github.com/LayerZero-Labs/solidity-examples/blob/main/contracts/libraries/BytesLib.sol\":11965:11969  0x20 */\n      0x20\n        /* \"https://github.com/LayerZero-Labs/solidity-examples/blob/main/contracts/libraries/BytesLib.sol\":11954:11963  tempBytes */\n      dup3\n        /* \"https://github.com/LayerZero-Labs/solidity-examples/blob/main/contracts/libraries/BytesLib.sol\":11950:11970  add(tempBytes, 0x20) */\n      add\n        /* \"https://github.com/LayerZero-Labs/solidity-examples/blob/main/contracts/libraries/BytesLib.sol\":11944:11948  0x40 */\n      0x40\n        /* \"https://github.com/LayerZero-Labs/solidity-examples/blob/main/contracts/libraries/BytesLib.sol\":11937:11971  mstore(0x40, add(tempBytes, 0x20)) */\n      mstore\n        /* \"https://github.com/LayerZero-Labs/solidity-examples/blob/main/contracts/libraries/BytesLib.sol\":9588:11985  switch iszero(_length)... */\n      jump(tag_473)\n        /* \"https://github.com/LayerZero-Labs/solidity-examples/blob/main/contracts/libraries/BytesLib.sol\":9623:11590  case 0 {... */\n    tag_474:\n        /* \"https://github.com/LayerZero-Labs/solidity-examples/blob/main/contracts/libraries/BytesLib.sol\":9805:9809  0x40 */\n      0x40\n        /* \"https://github.com/LayerZero-Labs/solidity-examples/blob/main/contracts/libraries/BytesLib.sol\":9799:9810  mload(0x40) */\n      mload\n        /* \"https://github.com/LayerZero-Labs/solidity-examples/blob/main/contracts/libraries/BytesLib.sol\":9786:9810  tempBytes := mload(0x40) */\n      swap2\n      pop\n        /* \"https://github.com/LayerZero-Labs/solidity-examples/blob/main/contracts/libraries/BytesLib.sol\":10464:10466  31 */\n      0x1f\n        /* \"https://github.com/LayerZero-Labs/solidity-examples/blob/main/contracts/libraries/BytesLib.sol\":10455:10462  _length */\n      dup5\n        /* \"https://github.com/LayerZero-Labs/solidity-examples/blob/main/contracts/libraries/BytesLib.sol\":10451:10467  and(_length, 31) */\n      and\n        /* \"https://github.com/LayerZero-Labs/solidity-examples/blob/main/contracts/libraries/BytesLib.sol\":10846:10855  lengthmod */\n      dup1\n        /* \"https://github.com/LayerZero-Labs/solidity-examples/blob/main/contracts/libraries/BytesLib.sol\":10839:10856  iszero(lengthmod) */\n      iszero\n        /* \"https://github.com/LayerZero-Labs/solidity-examples/blob/main/contracts/libraries/BytesLib.sol\":10833:10837  0x20 */\n      0x20\n        /* \"https://github.com/LayerZero-Labs/solidity-examples/blob/main/contracts/libraries/BytesLib.sol\":10829:10857  mul(0x20, iszero(lengthmod)) */\n      mul\n        /* \"https://github.com/LayerZero-Labs/solidity-examples/blob/main/contracts/libraries/BytesLib.sol\":10817:10826  lengthmod */\n      dup2\n        /* \"https://github.com/LayerZero-Labs/solidity-examples/blob/main/contracts/libraries/BytesLib.sol\":10806:10815  tempBytes */\n      dup5\n        /* \"https://github.com/LayerZero-Labs/solidity-examples/blob/main/contracts/libraries/BytesLib.sol\":10802:10827  add(tempBytes, lengthmod) */\n      add\n        /* \"https://github.com/LayerZero-Labs/solidity-examples/blob/main/contracts/libraries/BytesLib.sol\":10798:10858  add(add(tempBytes, lengthmod), mul(0x20, iszero(lengthmod))) */\n      add\n        /* \"https://github.com/LayerZero-Labs/solidity-examples/blob/main/contracts/libraries/BytesLib.sol\":10894:10901  _length */\n      dup6\n        /* \"https://github.com/LayerZero-Labs/solidity-examples/blob/main/contracts/libraries/BytesLib.sol\":10890:10892  mc */\n      dup2\n        /* \"https://github.com/LayerZero-Labs/solidity-examples/blob/main/contracts/libraries/BytesLib.sol\":10886:10902  add(mc, _length) */\n      add\n        /* \"https://github.com/LayerZero-Labs/solidity-examples/blob/main/contracts/libraries/BytesLib.sol\":11146:11152  _start */\n      dup8\n        /* \"https://github.com/LayerZero-Labs/solidity-examples/blob/main/contracts/libraries/BytesLib.sol\":11132:11141  lengthmod */\n      dup4\n        /* \"https://github.com/LayerZero-Labs/solidity-examples/blob/main/contracts/libraries/BytesLib.sol\":11125:11142  iszero(lengthmod) */\n      iszero\n        /* \"https://github.com/LayerZero-Labs/solidity-examples/blob/main/contracts/libraries/BytesLib.sol\":11119:11123  0x20 */\n      0x20\n        /* \"https://github.com/LayerZero-Labs/solidity-examples/blob/main/contracts/libraries/BytesLib.sol\":11115:11143  mul(0x20, iszero(lengthmod)) */\n      mul\n        /* \"https://github.com/LayerZero-Labs/solidity-examples/blob/main/contracts/libraries/BytesLib.sol\":11103:11112  lengthmod */\n      dup5\n        /* \"https://github.com/LayerZero-Labs/solidity-examples/blob/main/contracts/libraries/BytesLib.sol\":11095:11101  _bytes */\n      dup12\n        /* \"https://github.com/LayerZero-Labs/solidity-examples/blob/main/contracts/libraries/BytesLib.sol\":11091:11113  add(_bytes, lengthmod) */\n      add\n        /* \"https://github.com/LayerZero-Labs/solidity-examples/blob/main/contracts/libraries/BytesLib.sol\":11087:11144  add(add(_bytes, lengthmod), mul(0x20, iszero(lengthmod))) */\n      add\n        /* \"https://github.com/LayerZero-Labs/solidity-examples/blob/main/contracts/libraries/BytesLib.sol\":11083:11153  add(add(add(_bytes, lengthmod), mul(0x20, iszero(lengthmod))), _start) */\n      add\n        /* \"https://github.com/LayerZero-Labs/solidity-examples/blob/main/contracts/libraries/BytesLib.sol\":10920:11345  for {... */\n    tag_475:\n        /* \"https://github.com/LayerZero-Labs/solidity-examples/blob/main/contracts/libraries/BytesLib.sol\":11179:11182  end */\n      dup2\n        /* \"https://github.com/LayerZero-Labs/solidity-examples/blob/main/contracts/libraries/BytesLib.sol\":11175:11177  mc */\n      dup4\n        /* \"https://github.com/LayerZero-Labs/solidity-examples/blob/main/contracts/libraries/BytesLib.sol\":11172:11183  lt(mc, end) */\n      lt\n        /* \"https://github.com/LayerZero-Labs/solidity-examples/blob/main/contracts/libraries/BytesLib.sol\":10920:11345  for {... */\n      iszero\n      tag_477\n      jumpi\n        /* \"https://github.com/LayerZero-Labs/solidity-examples/blob/main/contracts/libraries/BytesLib.sol\":11317:11326  mload(cc) */\n      dup1\n      mload\n        /* \"https://github.com/LayerZero-Labs/solidity-examples/blob/main/contracts/libraries/BytesLib.sol\":11306:11327  mstore(mc, mload(cc)) */\n      dup4\n      mstore\n        /* \"https://github.com/LayerZero-Labs/solidity-examples/blob/main/contracts/libraries/BytesLib.sol\":11220:11224  0x20 */\n      0x20\n        /* \"https://github.com/LayerZero-Labs/solidity-examples/blob/main/contracts/libraries/BytesLib.sol\":11212:11225  add(mc, 0x20) */\n      swap3\n      dup4\n      add\n      swap3\n        /* \"https://github.com/LayerZero-Labs/solidity-examples/blob/main/contracts/libraries/BytesLib.sol\":11252:11265  add(cc, 0x20) */\n      add\n        /* \"https://github.com/LayerZero-Labs/solidity-examples/blob/main/contracts/libraries/BytesLib.sol\":10920:11345  for {... */\n      jump(tag_475)\n    tag_477:\n      pop\n      pop\n        /* \"https://github.com/LayerZero-Labs/solidity-examples/blob/main/contracts/libraries/BytesLib.sol\":11363:11389  mstore(tempBytes, _length) */\n      dup6\n      dup5\n      mstore\n        /* \"https://github.com/LayerZero-Labs/solidity-examples/blob/main/contracts/libraries/BytesLib.sol\":11571:11573  31 */\n      0x1f\n        /* \"https://github.com/LayerZero-Labs/solidity-examples/blob/main/contracts/libraries/BytesLib.sol\":11554:11565  add(mc, 31) */\n      add\n      not(0x1f)\n        /* \"https://github.com/LayerZero-Labs/solidity-examples/blob/main/contracts/libraries/BytesLib.sol\":11550:11575  and(add(mc, 31), not(31)) */\n      and\n        /* \"https://github.com/LayerZero-Labs/solidity-examples/blob/main/contracts/libraries/BytesLib.sol\":11544:11548  0x40 */\n      0x40\n        /* \"https://github.com/LayerZero-Labs/solidity-examples/blob/main/contracts/libraries/BytesLib.sol\":11537:11576  mstore(0x40, and(add(mc, 31), not(31))) */\n      mstore\n      pop\n        /* \"https://github.com/LayerZero-Labs/solidity-examples/blob/main/contracts/libraries/BytesLib.sol\":9588:11985  switch iszero(_length)... */\n    tag_473:\n      pop\n        /* \"https://github.com/LayerZero-Labs/solidity-examples/blob/main/contracts/libraries/BytesLib.sol\":12012:12021  tempBytes */\n      swap5\n        /* \"https://github.com/LayerZero-Labs/solidity-examples/blob/main/contracts/libraries/BytesLib.sol\":9258:12028  function slice(... */\n      swap4\n      pop\n      pop\n      pop\n      pop\n      jump\t// out\n        /* \"https://github.com/LayerZero-Labs/solidity-examples/blob/main/contracts/libraries/ExcessivelySafeCall.sol\":1111:2385  function excessivelySafeCall(... */\n    tag_410:\n        /* \"https://github.com/LayerZero-Labs/solidity-examples/blob/main/contracts/libraries/ExcessivelySafeCall.sol\":1265:1269  bool */\n      0x00\n        /* \"https://github.com/LayerZero-Labs/solidity-examples/blob/main/contracts/libraries/ExcessivelySafeCall.sol\":1271:1283  bytes memory */\n      0x60\n        /* \"https://github.com/LayerZero-Labs/solidity-examples/blob/main/contracts/libraries/ExcessivelySafeCall.sol\":1331:1343  uint _toCopy */\n      0x00\n        /* \"https://github.com/LayerZero-Labs/solidity-examples/blob/main/contracts/libraries/ExcessivelySafeCall.sol\":1353:1366  bool _success */\n      dup1\n        /* \"https://github.com/LayerZero-Labs/solidity-examples/blob/main/contracts/libraries/ExcessivelySafeCall.sol\":1376:1400  bytes memory _returnData */\n      0x00\n        /* \"https://github.com/LayerZero-Labs/solidity-examples/blob/main/contracts/libraries/ExcessivelySafeCall.sol\":1413:1421  _maxCopy */\n      dup7\n        /* \"https://github.com/LayerZero-Labs/solidity-examples/blob/main/contracts/libraries/ExcessivelySafeCall.sol\":1403:1422  new bytes(_maxCopy) */\n      0xffff\n      and\n      sub(shl(0x40, 0x01), 0x01)\n      dup2\n      gt\n      iszero\n      tag_480\n      jumpi\n      tag_480\n      tag_481\n      jump\t// in\n    tag_480:\n      mload(0x40)\n      swap1\n      dup1\n      dup3\n      mstore\n      dup1\n      0x1f\n      add\n      not(0x1f)\n      and\n      0x20\n      add\n      dup3\n      add\n      0x40\n      mstore\n      dup1\n      iszero\n      tag_482\n      jumpi\n      0x20\n      dup3\n      add\n      dup2\n      dup1\n      calldatasize\n      dup4\n      calldatacopy\n      add\n      swap1\n      pop\n    tag_482:\n      pop\n        /* \"https://github.com/LayerZero-Labs/solidity-examples/blob/main/contracts/libraries/ExcessivelySafeCall.sol\":1376:1422  bytes memory _returnData = new bytes(_maxCopy) */\n      swap1\n      pop\n        /* \"https://github.com/LayerZero-Labs/solidity-examples/blob/main/contracts/libraries/ExcessivelySafeCall.sol\":1919:1920  0 */\n      0x00\n        /* \"https://github.com/LayerZero-Labs/solidity-examples/blob/main/contracts/libraries/ExcessivelySafeCall.sol\":1890:1891  0 */\n      dup1\n        /* \"https://github.com/LayerZero-Labs/solidity-examples/blob/main/contracts/libraries/ExcessivelySafeCall.sol\":1853:1862  _calldata */\n      dup8\n        /* \"https://github.com/LayerZero-Labs/solidity-examples/blob/main/contracts/libraries/ExcessivelySafeCall.sol\":1847:1863  mload(_calldata) */\n      mload\n        /* \"https://github.com/LayerZero-Labs/solidity-examples/blob/main/contracts/libraries/ExcessivelySafeCall.sol\":1815:1819  0x20 */\n      0x20\n        /* \"https://github.com/LayerZero-Labs/solidity-examples/blob/main/contracts/libraries/ExcessivelySafeCall.sol\":1804:1813  _calldata */\n      dup10\n        /* \"https://github.com/LayerZero-Labs/solidity-examples/blob/main/contracts/libraries/ExcessivelySafeCall.sol\":1800:1820  add(_calldata, 0x20) */\n      add\n        /* \"https://github.com/LayerZero-Labs/solidity-examples/blob/main/contracts/libraries/ExcessivelySafeCall.sol\":1766:1767  0 */\n      0x00\n        /* \"https://github.com/LayerZero-Labs/solidity-examples/blob/main/contracts/libraries/ExcessivelySafeCall.sol\":1728:1735  _target */\n      dup14\n        /* \"https://github.com/LayerZero-Labs/solidity-examples/blob/main/contracts/libraries/ExcessivelySafeCall.sol\":1699:1703  _gas */\n      dup14\n        /* \"https://github.com/LayerZero-Labs/solidity-examples/blob/main/contracts/libraries/ExcessivelySafeCall.sol\":1677:1944  call(... */\n      call\n        /* \"https://github.com/LayerZero-Labs/solidity-examples/blob/main/contracts/libraries/ExcessivelySafeCall.sol\":1665:1944  _success := call(... */\n      swap2\n      pop\n        /* \"https://github.com/LayerZero-Labs/solidity-examples/blob/main/contracts/libraries/ExcessivelySafeCall.sol\":2011:2027  returndatasize() */\n      returndatasize\n        /* \"https://github.com/LayerZero-Labs/solidity-examples/blob/main/contracts/libraries/ExcessivelySafeCall.sol\":2000:2027  _toCopy := returndatasize() */\n      swap3\n      pop\n        /* \"https://github.com/LayerZero-Labs/solidity-examples/blob/main/contracts/libraries/ExcessivelySafeCall.sol\":2055:2063  _maxCopy */\n      dup7\n        /* \"https://github.com/LayerZero-Labs/solidity-examples/blob/main/contracts/libraries/ExcessivelySafeCall.sol\":2046:2053  _toCopy */\n      dup4\n        /* \"https://github.com/LayerZero-Labs/solidity-examples/blob/main/contracts/libraries/ExcessivelySafeCall.sol\":2043:2064  gt(_toCopy, _maxCopy) */\n      gt\n        /* \"https://github.com/LayerZero-Labs/solidity-examples/blob/main/contracts/libraries/ExcessivelySafeCall.sol\":2040:2116  if gt(_toCopy, _maxCopy) {... */\n      iszero\n      tag_483\n      jumpi\n        /* \"https://github.com/LayerZero-Labs/solidity-examples/blob/main/contracts/libraries/ExcessivelySafeCall.sol\":2094:2102  _maxCopy */\n      dup7\n        /* \"https://github.com/LayerZero-Labs/solidity-examples/blob/main/contracts/libraries/ExcessivelySafeCall.sol\":2083:2102  _toCopy := _maxCopy */\n      swap3\n      pop\n        /* \"https://github.com/LayerZero-Labs/solidity-examples/blob/main/contracts/libraries/ExcessivelySafeCall.sol\":2040:2116  if gt(_toCopy, _maxCopy) {... */\n    tag_483:\n        /* \"https://github.com/LayerZero-Labs/solidity-examples/blob/main/contracts/libraries/ExcessivelySafeCall.sol\":2201:2208  _toCopy */\n      dup3\n        /* \"https://github.com/LayerZero-Labs/solidity-examples/blob/main/contracts/libraries/ExcessivelySafeCall.sol\":2188:2199  _returnData */\n      dup2\n        /* \"https://github.com/LayerZero-Labs/solidity-examples/blob/main/contracts/libraries/ExcessivelySafeCall.sol\":2181:2209  mstore(_returnData, _toCopy) */\n      mstore\n        /* \"https://github.com/LayerZero-Labs/solidity-examples/blob/main/contracts/libraries/ExcessivelySafeCall.sol\":2321:2328  _toCopy */\n      dup3\n        /* \"https://github.com/LayerZero-Labs/solidity-examples/blob/main/contracts/libraries/ExcessivelySafeCall.sol\":2318:2319  0 */\n      0x00\n        /* \"https://github.com/LayerZero-Labs/solidity-examples/blob/main/contracts/libraries/ExcessivelySafeCall.sol\":2311:2315  0x20 */\n      0x20\n        /* \"https://github.com/LayerZero-Labs/solidity-examples/blob/main/contracts/libraries/ExcessivelySafeCall.sol\":2298:2309  _returnData */\n      dup4\n        /* \"https://github.com/LayerZero-Labs/solidity-examples/blob/main/contracts/libraries/ExcessivelySafeCall.sol\":2294:2316  add(_returnData, 0x20) */\n      add\n        /* \"https://github.com/LayerZero-Labs/solidity-examples/blob/main/contracts/libraries/ExcessivelySafeCall.sol\":2279:2329  returndatacopy(add(_returnData, 0x20), 0, _toCopy) */\n      returndatacopy\n        /* \"https://github.com/LayerZero-Labs/solidity-examples/blob/main/contracts/libraries/ExcessivelySafeCall.sol\":2356:2364  _success */\n      swap1\n      swap9\n      swap1\n      swap8\n      pop\n        /* \"https://github.com/LayerZero-Labs/solidity-examples/blob/main/contracts/libraries/ExcessivelySafeCall.sol\":1111:2385  function excessivelySafeCall(... */\n      swap6\n      pop\n      pop\n      pop\n      pop\n      pop\n      pop\n      jump\t// out\n        /* \"https://github.com/LayerZero-Labs/solidity-examples/blob/main/contracts/lzApp/NonblockingLzApp.sol\":1540:1906  function _storeFailedMessage(... */\n    tag_413:\n        /* \"https://github.com/LayerZero-Labs/solidity-examples/blob/main/contracts/lzApp/NonblockingLzApp.sol\":1809:1817  _payload */\n      dup2\n        /* \"https://github.com/LayerZero-Labs/solidity-examples/blob/main/contracts/lzApp/NonblockingLzApp.sol\":1799:1818  keccak256(_payload) */\n      dup1\n      mload\n      swap1\n      0x20\n      add\n      keccak256\n        /* \"https://github.com/LayerZero-Labs/solidity-examples/blob/main/contracts/lzApp/NonblockingLzApp.sol\":1748:1762  failedMessages */\n      0x05\n        /* \"https://github.com/LayerZero-Labs/solidity-examples/blob/main/contracts/lzApp/NonblockingLzApp.sol\":1748:1775  failedMessages[_srcChainId] */\n      0x00\n        /* \"https://github.com/LayerZero-Labs/solidity-examples/blob/main/contracts/lzApp/NonblockingLzApp.sol\":1763:1774  _srcChainId */\n      dup8\n        /* \"https://github.com/LayerZero-Labs/solidity-examples/blob/main/contracts/lzApp/NonblockingLzApp.sol\":1748:1775  failedMessages[_srcChainId] */\n      0xffff\n      and\n      0xffff\n      and\n      dup2\n      mstore\n      0x20\n      add\n      swap1\n      dup2\n      mstore\n      0x20\n      add\n      0x00\n      keccak256\n        /* \"https://github.com/LayerZero-Labs/solidity-examples/blob/main/contracts/lzApp/NonblockingLzApp.sol\":1776:1787  _srcAddress */\n      dup6\n        /* \"https://github.com/LayerZero-Labs/solidity-examples/blob/main/contracts/lzApp/NonblockingLzApp.sol\":1748:1788  failedMessages[_srcChainId][_srcAddress] */\n      mload(0x40)\n      tag_485\n      swap2\n      swap1\n      tag_486\n      jump\t// in\n    tag_485:\n      swap1\n      dup2\n      mstore\n      0x40\n      dup1\n      mload\n      swap2\n      dup3\n      swap1\n      sub\n      0x20\n      swap1\n      dup2\n      add\n      dup4\n      keccak256\n      sub(shl(0x40, 0x01), 0x01)\n        /* \"https://github.com/LayerZero-Labs/solidity-examples/blob/main/contracts/lzApp/NonblockingLzApp.sol\":1748:1796  failedMessages[_srcChainId][_srcAddress][_nonce] */\n      dup9\n      and\n      0x00\n      swap1\n      dup2\n      mstore\n      swap2\n      mstore\n      keccak256\n        /* \"https://github.com/LayerZero-Labs/solidity-examples/blob/main/contracts/lzApp/NonblockingLzApp.sol\":1748:1818  failedMessages[_srcChainId][_srcAddress][_nonce] = keccak256(_payload) */\n      swap2\n      swap1\n      swap2\n      sstore\n        /* \"https://github.com/LayerZero-Labs/solidity-examples/blob/main/contracts/lzApp/NonblockingLzApp.sol\":1833:1899  MessageFailed(_srcChainId, _srcAddress, _nonce, _payload, _reason) */\n      0xe183f33de2837795525b4792ca4cd60535bd77c53b7e7030060bfcf5734d6b0c\n      swap1\n      tag_487\n      swap1\n        /* \"https://github.com/LayerZero-Labs/solidity-examples/blob/main/contracts/lzApp/NonblockingLzApp.sol\":1847:1858  _srcChainId */\n      dup8\n      swap1\n        /* \"https://github.com/LayerZero-Labs/solidity-examples/blob/main/contracts/lzApp/NonblockingLzApp.sol\":1860:1871  _srcAddress */\n      dup8\n      swap1\n        /* \"https://github.com/LayerZero-Labs/solidity-examples/blob/main/contracts/lzApp/NonblockingLzApp.sol\":1789:1795  _nonce */\n      dup8\n      swap1\n        /* \"https://github.com/LayerZero-Labs/solidity-examples/blob/main/contracts/lzApp/NonblockingLzApp.sol\":1881:1889  _payload */\n      dup8\n      swap1\n        /* \"https://github.com/LayerZero-Labs/solidity-examples/blob/main/contracts/lzApp/NonblockingLzApp.sol\":1891:1898  _reason */\n      dup8\n      swap1\n        /* \"https://github.com/LayerZero-Labs/solidity-examples/blob/main/contracts/lzApp/NonblockingLzApp.sol\":1833:1899  MessageFailed(_srcChainId, _srcAddress, _nonce, _payload, _reason) */\n      tag_488\n      jump\t// in\n    tag_487:\n      mload(0x40)\n      dup1\n      swap2\n      sub\n      swap1\n      log1\n        /* \"https://github.com/LayerZero-Labs/solidity-examples/blob/main/contracts/lzApp/NonblockingLzApp.sol\":1540:1906  function _storeFailedMessage(... */\n      pop\n      pop\n      pop\n      pop\n      pop\n      jump\t// out\n        /* \"@openzeppelin/contracts/token/ERC20/ERC20.sol\":9949:10381  function _approve(address owner, address spender, uint256 value, bool emitEvent) internal virtual {... */\n    tag_422:\n      sub(shl(0xa0, 0x01), 0x01)\n        /* \"@openzeppelin/contracts/token/ERC20/ERC20.sol\":10061:10080  owner == address(0) */\n      dup5\n      and\n        /* \"@openzeppelin/contracts/token/ERC20/ERC20.sol\":10057:10146  if (owner == address(0)) {... */\n      tag_490\n      jumpi\n        /* \"@openzeppelin/contracts/token/ERC20/ERC20.sol\":10103:10135  ERC20InvalidApprover(address(0)) */\n      mload(0x40)\n      shl(0xe0, 0xe602df05)\n      dup2\n      mstore\n        /* \"@openzeppelin/contracts/token/ERC20/ERC20.sol\":10132:10133  0 */\n      0x00\n        /* \"@openzeppelin/contracts/token/ERC20/ERC20.sol\":10103:10135  ERC20InvalidApprover(address(0)) */\n      0x04\n      dup3\n      add\n        /* \"#utility.yul\":7228:7279   */\n      mstore\n        /* \"#utility.yul\":7201:7219   */\n      0x24\n      add\n        /* \"@openzeppelin/contracts/token/ERC20/ERC20.sol\":10103:10135  ERC20InvalidApprover(address(0)) */\n      tag_224\n        /* \"#utility.yul\":7082:7285   */\n      jump\n        /* \"@openzeppelin/contracts/token/ERC20/ERC20.sol\":10057:10146  if (owner == address(0)) {... */\n    tag_490:\n      sub(shl(0xa0, 0x01), 0x01)\n        /* \"@openzeppelin/contracts/token/ERC20/ERC20.sol\":10159:10180  spender == address(0) */\n      dup4\n      and\n        /* \"@openzeppelin/contracts/token/ERC20/ERC20.sol\":10155:10245  if (spender == address(0)) {... */\n      tag_492\n      jumpi\n        /* \"@openzeppelin/contracts/token/ERC20/ERC20.sol\":10203:10234  ERC20InvalidSpender(address(0)) */\n      mload(0x40)\n      shl(0xe1, 0x4a1406b1)\n      dup2\n      mstore\n        /* \"@openzeppelin/contracts/token/ERC20/ERC20.sol\":10231:10232  0 */\n      0x00\n        /* \"@openzeppelin/contracts/token/ERC20/ERC20.sol\":10203:10234  ERC20InvalidSpender(address(0)) */\n      0x04\n      dup3\n      add\n        /* \"#utility.yul\":7228:7279   */\n      mstore\n        /* \"#utility.yul\":7201:7219   */\n      0x24\n      add\n        /* \"@openzeppelin/contracts/token/ERC20/ERC20.sol\":10203:10234  ERC20InvalidSpender(address(0)) */\n      tag_224\n        /* \"#utility.yul\":7082:7285   */\n      jump\n        /* \"@openzeppelin/contracts/token/ERC20/ERC20.sol\":10155:10245  if (spender == address(0)) {... */\n    tag_492:\n      sub(shl(0xa0, 0x01), 0x01)\n        /* \"@openzeppelin/contracts/token/ERC20/ERC20.sol\":10254:10272  _allowances[owner] */\n      dup1\n      dup6\n      and\n      0x00\n      swap1\n      dup2\n      mstore\n        /* \"@openzeppelin/contracts/token/ERC20/ERC20.sol\":10254:10265  _allowances */\n      0x07\n        /* \"@openzeppelin/contracts/token/ERC20/ERC20.sol\":10254:10272  _allowances[owner] */\n      0x20\n      swap1\n      dup2\n      mstore\n      0x40\n      dup1\n      dup4\n      keccak256\n        /* \"@openzeppelin/contracts/token/ERC20/ERC20.sol\":10254:10281  _allowances[owner][spender] */\n      swap4\n      dup8\n      and\n      dup4\n      mstore\n      swap3\n      swap1\n      mstore\n      keccak256\n        /* \"@openzeppelin/contracts/token/ERC20/ERC20.sol\":10254:10289  _allowances[owner][spender] = value */\n      dup3\n      swap1\n      sstore\n        /* \"@openzeppelin/contracts/token/ERC20/ERC20.sol\":10299:10375  if (emitEvent) {... */\n      dup1\n      iszero\n      tag_429\n      jumpi\n        /* \"@openzeppelin/contracts/token/ERC20/ERC20.sol\":10349:10356  spender */\n      dup3\n      sub(shl(0xa0, 0x01), 0x01)\n        /* \"@openzeppelin/contracts/token/ERC20/ERC20.sol\":10333:10364  Approval(owner, spender, value) */\n      and\n        /* \"@openzeppelin/contracts/token/ERC20/ERC20.sol\":10342:10347  owner */\n      dup5\n      sub(shl(0xa0, 0x01), 0x01)\n        /* \"@openzeppelin/contracts/token/ERC20/ERC20.sol\":10333:10364  Approval(owner, spender, value) */\n      and\n      0x8c5be1e5ebec7d5bd14f71427d1e84f3dd0314c0f7b2291e5b200ac8c7c3b925\n        /* \"@openzeppelin/contracts/token/ERC20/ERC20.sol\":10358:10363  value */\n      dup5\n        /* \"@openzeppelin/contracts/token/ERC20/ERC20.sol\":10333:10364  Approval(owner, spender, value) */\n      mload(0x40)\n      tag_495\n      swap2\n        /* \"#utility.yul\":3569:3594   */\n      dup2\n      mstore\n        /* \"#utility.yul\":3557:3559   */\n      0x20\n        /* \"#utility.yul\":3542:3560   */\n      add\n      swap1\n        /* \"#utility.yul\":3423:3600   */\n      jump\n        /* \"@openzeppelin/contracts/token/ERC20/ERC20.sol\":10333:10364  Approval(owner, spender, value) */\n    tag_495:\n      mload(0x40)\n      dup1\n      swap2\n      sub\n      swap1\n      log3\n        /* \"@openzeppelin/contracts/token/ERC20/ERC20.sol\":9949:10381  function _approve(address owner, address spender, uint256 value, bool emitEvent) internal virtual {... */\n      pop\n      pop\n      pop\n      pop\n      jump\t// out\n        /* \"@openzeppelin/contracts/token/ERC20/ERC20.sol\":6271:7378  function _update(address from, address to, uint256 value) internal virtual {... */\n    tag_436:\n      sub(shl(0xa0, 0x01), 0x01)\n        /* \"@openzeppelin/contracts/token/ERC20/ERC20.sol\":6360:6378  from == address(0) */\n      dup4\n      and\n        /* \"@openzeppelin/contracts/token/ERC20/ERC20.sol\":6356:6896  if (from == address(0)) {... */\n      tag_497\n      jumpi\n        /* \"@openzeppelin/contracts/token/ERC20/ERC20.sol\":6512:6517  value */\n      dup1\n        /* \"@openzeppelin/contracts/token/ERC20/ERC20.sol\":6496:6508  _totalSupply */\n      0x08\n      0x00\n        /* \"@openzeppelin/contracts/token/ERC20/ERC20.sol\":6496:6517  _totalSupply += value */\n      dup3\n      dup3\n      sload\n      tag_498\n      swap2\n      swap1\n      tag_465\n      jump\t// in\n    tag_498:\n      swap1\n      swap2\n      sstore\n      pop\n        /* \"@openzeppelin/contracts/token/ERC20/ERC20.sol\":6356:6896  if (from == address(0)) {... */\n      tag_499\n      swap1\n      pop\n      jump\n    tag_497:\n      sub(shl(0xa0, 0x01), 0x01)\n        /* \"@openzeppelin/contracts/token/ERC20/ERC20.sol\":6570:6585  _balances[from] */\n      dup4\n      and\n        /* \"@openzeppelin/contracts/token/ERC20/ERC20.sol\":6548:6567  uint256 fromBalance */\n      0x00\n        /* \"@openzeppelin/contracts/token/ERC20/ERC20.sol\":6570:6585  _balances[from] */\n      swap1\n      dup2\n      mstore\n        /* \"@openzeppelin/contracts/token/ERC20/ERC20.sol\":6570:6579  _balances */\n      0x06\n        /* \"@openzeppelin/contracts/token/ERC20/ERC20.sol\":6570:6585  _balances[from] */\n      0x20\n      mstore\n      0x40\n      swap1\n      keccak256\n      sload\n        /* \"@openzeppelin/contracts/token/ERC20/ERC20.sol\":6603:6622  fromBalance < value */\n      dup2\n      dup2\n      lt\n        /* \"@openzeppelin/contracts/token/ERC20/ERC20.sol\":6599:6714  if (fromBalance < value) {... */\n      iszero\n      tag_500\n      jumpi\n        /* \"@openzeppelin/contracts/token/ERC20/ERC20.sol\":6649:6699  ERC20InsufficientBalance(from, fromBalance, value) */\n      mload(0x40)\n      shl(0xe2, 0x391434e3)\n      dup2\n      mstore\n      sub(shl(0xa0, 0x01), 0x01)\n        /* \"#utility.yul\":21186:21218   */\n      dup6\n      and\n        /* \"@openzeppelin/contracts/token/ERC20/ERC20.sol\":6649:6699  ERC20InsufficientBalance(from, fromBalance, value) */\n      0x04\n      dup3\n      add\n        /* \"#utility.yul\":21168:21219   */\n      mstore\n        /* \"#utility.yul\":21235:21253   */\n      0x24\n      dup2\n      add\n        /* \"#utility.yul\":21228:21262   */\n      dup3\n      swap1\n      mstore\n        /* \"#utility.yul\":21278:21296   */\n      0x44\n      dup2\n      add\n        /* \"#utility.yul\":21271:21305   */\n      dup4\n      swap1\n      mstore\n        /* \"#utility.yul\":21141:21159   */\n      0x64\n      add\n        /* \"@openzeppelin/contracts/token/ERC20/ERC20.sol\":6649:6699  ERC20InsufficientBalance(from, fromBalance, value) */\n      tag_224\n        /* \"#utility.yul\":20966:21311   */\n      jump\n        /* \"@openzeppelin/contracts/token/ERC20/ERC20.sol\":6599:6714  if (fromBalance < value) {... */\n    tag_500:\n      sub(shl(0xa0, 0x01), 0x01)\n        /* \"@openzeppelin/contracts/token/ERC20/ERC20.sol\":6834:6849  _balances[from] */\n      dup5\n      and\n      0x00\n      swap1\n      dup2\n      mstore\n        /* \"@openzeppelin/contracts/token/ERC20/ERC20.sol\":6834:6843  _balances */\n      0x06\n        /* \"@openzeppelin/contracts/token/ERC20/ERC20.sol\":6834:6849  _balances[from] */\n      0x20\n      mstore\n      0x40\n      swap1\n      keccak256\n        /* \"@openzeppelin/contracts/token/ERC20/ERC20.sol\":6852:6871  fromBalance - value */\n      swap1\n      dup3\n      swap1\n      sub\n        /* \"@openzeppelin/contracts/token/ERC20/ERC20.sol\":6834:6871  _balances[from] = fromBalance - value */\n      swap1\n      sstore\n        /* \"@openzeppelin/contracts/token/ERC20/ERC20.sol\":6356:6896  if (from == address(0)) {... */\n    tag_499:\n      sub(shl(0xa0, 0x01), 0x01)\n        /* \"@openzeppelin/contracts/token/ERC20/ERC20.sol\":6910:6926  to == address(0) */\n      dup3\n      and\n        /* \"@openzeppelin/contracts/token/ERC20/ERC20.sol\":6906:7331  if (to == address(0)) {... */\n      tag_502\n      jumpi\n        /* \"@openzeppelin/contracts/token/ERC20/ERC20.sol\":7073:7085  _totalSupply */\n      0x08\n        /* \"@openzeppelin/contracts/token/ERC20/ERC20.sol\":7073:7094  _totalSupply -= value */\n      dup1\n      sload\n      dup3\n      swap1\n      sub\n      swap1\n      sstore\n        /* \"@openzeppelin/contracts/token/ERC20/ERC20.sol\":6906:7331  if (to == address(0)) {... */\n      jump(tag_503)\n    tag_502:\n      sub(shl(0xa0, 0x01), 0x01)\n        /* \"@openzeppelin/contracts/token/ERC20/ERC20.sol\":7284:7297  _balances[to] */\n      dup3\n      and\n      0x00\n      swap1\n      dup2\n      mstore\n        /* \"@openzeppelin/contracts/token/ERC20/ERC20.sol\":7284:7293  _balances */\n      0x06\n        /* \"@openzeppelin/contracts/token/ERC20/ERC20.sol\":7284:7297  _balances[to] */\n      0x20\n      mstore\n      0x40\n      swap1\n      keccak256\n        /* \"@openzeppelin/contracts/token/ERC20/ERC20.sol\":7284:7306  _balances[to] += value */\n      dup1\n      sload\n      dup3\n      add\n      swap1\n      sstore\n        /* \"@openzeppelin/contracts/token/ERC20/ERC20.sol\":6906:7331  if (to == address(0)) {... */\n    tag_503:\n        /* \"@openzeppelin/contracts/token/ERC20/ERC20.sol\":7361:7363  to */\n      dup2\n      sub(shl(0xa0, 0x01), 0x01)\n        /* \"@openzeppelin/contracts/token/ERC20/ERC20.sol\":7346:7371  Transfer(from, to, value) */\n      and\n        /* \"@openzeppelin/contracts/token/ERC20/ERC20.sol\":7355:7359  from */\n      dup4\n      sub(shl(0xa0, 0x01), 0x01)\n        /* \"@openzeppelin/contracts/token/ERC20/ERC20.sol\":7346:7371  Transfer(from, to, value) */\n      and\n      0xddf252ad1be2c89b69c2b068fc378daa952ba7f163c4a11628f55a4df523b3ef\n        /* \"@openzeppelin/contracts/token/ERC20/ERC20.sol\":7365:7370  value */\n      dup4\n        /* \"@openzeppelin/contracts/token/ERC20/ERC20.sol\":7346:7371  Transfer(from, to, value) */\n      mload(0x40)\n      tag_504\n      swap2\n        /* \"#utility.yul\":3569:3594   */\n      dup2\n      mstore\n        /* \"#utility.yul\":3557:3559   */\n      0x20\n        /* \"#utility.yul\":3542:3560   */\n      add\n      swap1\n        /* \"#utility.yul\":3423:3600   */\n      jump\n        /* \"@openzeppelin/contracts/token/ERC20/ERC20.sol\":7346:7371  Transfer(from, to, value) */\n    tag_504:\n      mload(0x40)\n      dup1\n      swap2\n      sub\n      swap1\n      log3\n        /* \"@openzeppelin/contracts/token/ERC20/ERC20.sol\":6271:7378  function _update(address from, address to, uint256 value) internal virtual {... */\n      pop\n      pop\n      pop\n      jump\t// out\n        /* \"@openzeppelin/contracts/token/ERC20/ERC20.sol\":7721:7929  function _mint(address account, uint256 value) internal {... */\n    tag_441:\n      sub(shl(0xa0, 0x01), 0x01)\n        /* \"@openzeppelin/contracts/token/ERC20/ERC20.sol\":7791:7812  account == address(0) */\n      dup3\n      and\n        /* \"@openzeppelin/contracts/token/ERC20/ERC20.sol\":7787:7878  if (account == address(0)) {... */\n      tag_506\n      jumpi\n        /* \"@openzeppelin/contracts/token/ERC20/ERC20.sol\":7835:7867  ERC20InvalidReceiver(address(0)) */\n      mload(0x40)\n      shl(0xe0, 0xec442f05)\n      dup2\n      mstore\n        /* \"@openzeppelin/contracts/token/ERC20/ERC20.sol\":7864:7865  0 */\n      0x00\n        /* \"@openzeppelin/contracts/token/ERC20/ERC20.sol\":7835:7867  ERC20InvalidReceiver(address(0)) */\n      0x04\n      dup3\n      add\n        /* \"#utility.yul\":7228:7279   */\n      mstore\n        /* \"#utility.yul\":7201:7219   */\n      0x24\n      add\n        /* \"@openzeppelin/contracts/token/ERC20/ERC20.sol\":7835:7867  ERC20InvalidReceiver(address(0)) */\n      tag_224\n        /* \"#utility.yul\":7082:7285   */\n      jump\n        /* \"@openzeppelin/contracts/token/ERC20/ERC20.sol\":7787:7878  if (account == address(0)) {... */\n    tag_506:\n        /* \"@openzeppelin/contracts/token/ERC20/ERC20.sol\":7887:7922  _update(address(0), account, value) */\n      tag_298\n        /* \"@openzeppelin/contracts/token/ERC20/ERC20.sol\":7903:7904  0 */\n      0x00\n        /* \"@openzeppelin/contracts/token/ERC20/ERC20.sol\":7907:7914  account */\n      dup4\n        /* \"@openzeppelin/contracts/token/ERC20/ERC20.sol\":7916:7921  value */\n      dup4\n        /* \"@openzeppelin/contracts/token/ERC20/ERC20.sol\":7887:7894  _update */\n      tag_436\n        /* \"@openzeppelin/contracts/token/ERC20/ERC20.sol\":7887:7922  _update(address(0), account, value) */\n      jump\t// in\n        /* \"https://github.com/LayerZero-Labs/solidity-examples/blob/main/contracts/lzApp/LzApp.sol\":3742:4137  function _checkPayloadSize(uint16 _dstChainId, uint _payloadSize) internal view virtual {... */\n    tag_457:\n        /* \"https://github.com/LayerZero-Labs/solidity-examples/blob/main/contracts/lzApp/LzApp.sol\":3864:3899  payloadSizeLimitLookup[_dstChainId] */\n      0xffff\n      dup3\n      and\n        /* \"https://github.com/LayerZero-Labs/solidity-examples/blob/main/contracts/lzApp/LzApp.sol\":3840:3861  uint payloadSizeLimit */\n      0x00\n        /* \"https://github.com/LayerZero-Labs/solidity-examples/blob/main/contracts/lzApp/LzApp.sol\":3864:3899  payloadSizeLimitLookup[_dstChainId] */\n      swap1\n      dup2\n      mstore\n        /* \"https://github.com/LayerZero-Labs/solidity-examples/blob/main/contracts/lzApp/LzApp.sol\":3864:3886  payloadSizeLimitLookup */\n      0x03\n        /* \"https://github.com/LayerZero-Labs/solidity-examples/blob/main/contracts/lzApp/LzApp.sol\":3864:3899  payloadSizeLimitLookup[_dstChainId] */\n      0x20\n      mstore\n      0x40\n      dup2\n      keccak256\n      sload\n      swap1\n        /* \"https://github.com/LayerZero-Labs/solidity-examples/blob/main/contracts/lzApp/LzApp.sol\":3913:3934  payloadSizeLimit == 0 */\n      dup2\n      swap1\n      sub\n        /* \"https://github.com/LayerZero-Labs/solidity-examples/blob/main/contracts/lzApp/LzApp.sol\":3909:4044  if (payloadSizeLimit == 0) {... */\n      tag_510\n      jumpi\n      pop\n        /* \"https://github.com/LayerZero-Labs/solidity-examples/blob/main/contracts/lzApp/LzApp.sol\":618:623  10000 */\n      0x2710\n        /* \"https://github.com/LayerZero-Labs/solidity-examples/blob/main/contracts/lzApp/LzApp.sol\":3909:4044  if (payloadSizeLimit == 0) {... */\n    tag_510:\n        /* \"https://github.com/LayerZero-Labs/solidity-examples/blob/main/contracts/lzApp/LzApp.sol\":4077:4093  payloadSizeLimit */\n      dup1\n        /* \"https://github.com/LayerZero-Labs/solidity-examples/blob/main/contracts/lzApp/LzApp.sol\":4061:4073  _payloadSize */\n      dup3\n        /* \"https://github.com/LayerZero-Labs/solidity-examples/blob/main/contracts/lzApp/LzApp.sol\":4061:4093  _payloadSize <= payloadSizeLimit */\n      gt\n      iszero\n        /* \"https://github.com/LayerZero-Labs/solidity-examples/blob/main/contracts/lzApp/LzApp.sol\":4053:4130  require(_payloadSize <= payloadSizeLimit, \"LzApp: payload size is too large\") */\n      tag_421\n      jumpi\n      mload(0x40)\n      shl(0xe5, 0x461bcd)\n      dup2\n      mstore\n        /* \"#utility.yul\":24940:24942   */\n      0x20\n        /* \"https://github.com/LayerZero-Labs/solidity-examples/blob/main/contracts/lzApp/LzApp.sol\":4053:4130  require(_payloadSize <= payloadSizeLimit, \"LzApp: payload size is too large\") */\n      0x04\n      dup3\n      add\n        /* \"#utility.yul\":24922:24943   */\n      dup2\n      swap1\n      mstore\n        /* \"#utility.yul\":24959:24977   */\n      0x24\n      dup3\n      add\n        /* \"#utility.yul\":24952:24982   */\n      mstore\n        /* \"#utility.yul\":25018:25052   */\n      0x4c7a4170703a207061796c6f61642073697a6520697320746f6f206c61726765\n        /* \"#utility.yul\":24998:25016   */\n      0x44\n      dup3\n      add\n        /* \"#utility.yul\":24991:25053   */\n      mstore\n        /* \"#utility.yul\":25070:25088   */\n      0x64\n      add\n        /* \"https://github.com/LayerZero-Labs/solidity-examples/blob/main/contracts/lzApp/LzApp.sol\":4053:4130  require(_payloadSize <= payloadSizeLimit, \"LzApp: payload size is too large\") */\n      tag_224\n        /* \"#utility.yul\":24738:25094   */\n      jump\n        /* \"#utility.yul\":14:173   */\n    tag_514:\n        /* \"#utility.yul\":81:101   */\n      dup1\n      calldataload\n        /* \"#utility.yul\":141:147   */\n      0xffff\n        /* \"#utility.yul\":130:148   */\n      dup2\n      and\n        /* \"#utility.yul\":120:149   */\n      dup2\n      eq\n        /* \"#utility.yul\":110:167   */\n      tag_529\n      jumpi\n        /* \"#utility.yul\":163:164   */\n      0x00\n        /* \"#utility.yul\":160:161   */\n      dup1\n        /* \"#utility.yul\":153:165   */\n      revert\n        /* \"#utility.yul\":110:167   */\n    tag_529:\n        /* \"#utility.yul\":14:173   */\n      swap2\n      swap1\n      pop\n      jump\t// out\n        /* \"#utility.yul\":178:525   */\n    tag_515:\n        /* \"#utility.yul\":229:237   */\n      0x00\n        /* \"#utility.yul\":239:245   */\n      dup1\n        /* \"#utility.yul\":293:296   */\n      dup4\n        /* \"#utility.yul\":286:290   */\n      0x1f\n        /* \"#utility.yul\":278:284   */\n      dup5\n        /* \"#utility.yul\":274:291   */\n      add\n        /* \"#utility.yul\":270:297   */\n      slt\n        /* \"#utility.yul\":260:315   */\n      tag_531\n      jumpi\n        /* \"#utility.yul\":311:312   */\n      0x00\n        /* \"#utility.yul\":308:309   */\n      dup1\n        /* \"#utility.yul\":301:313   */\n      revert\n        /* \"#utility.yul\":260:315   */\n    tag_531:\n      pop\n        /* \"#utility.yul\":334:354   */\n      dup2\n      calldataload\n      sub(shl(0x40, 0x01), 0x01)\n        /* \"#utility.yul\":366:396   */\n      dup2\n      gt\n        /* \"#utility.yul\":363:413   */\n      iszero\n      tag_532\n      jumpi\n        /* \"#utility.yul\":409:410   */\n      0x00\n        /* \"#utility.yul\":406:407   */\n      dup1\n        /* \"#utility.yul\":399:411   */\n      revert\n        /* \"#utility.yul\":363:413   */\n    tag_532:\n        /* \"#utility.yul\":446:450   */\n      0x20\n        /* \"#utility.yul\":438:444   */\n      dup4\n        /* \"#utility.yul\":434:451   */\n      add\n        /* \"#utility.yul\":422:451   */\n      swap2\n      pop\n        /* \"#utility.yul\":498:501   */\n      dup4\n        /* \"#utility.yul\":491:495   */\n      0x20\n        /* \"#utility.yul\":482:488   */\n      dup3\n        /* \"#utility.yul\":474:480   */\n      dup6\n        /* \"#utility.yul\":470:489   */\n      add\n        /* \"#utility.yul\":466:496   */\n      add\n        /* \"#utility.yul\":463:502   */\n      gt\n        /* \"#utility.yul\":460:519   */\n      iszero\n      tag_533\n      jumpi\n        /* \"#utility.yul\":515:516   */\n      0x00\n        /* \"#utility.yul\":512:513   */\n      dup1\n        /* \"#utility.yul\":505:517   */\n      revert\n        /* \"#utility.yul\":460:519   */\n    tag_533:\n        /* \"#utility.yul\":178:525   */\n      swap3\n      pop\n      swap3\n      swap1\n      pop\n      jump\t// out\n        /* \"#utility.yul\":530:701   */\n    tag_516:\n        /* \"#utility.yul\":597:617   */\n      dup1\n      calldataload\n      sub(shl(0x40, 0x01), 0x01)\n        /* \"#utility.yul\":646:676   */\n      dup2\n      and\n        /* \"#utility.yul\":636:677   */\n      dup2\n      eq\n        /* \"#utility.yul\":626:695   */\n      tag_529\n      jumpi\n        /* \"#utility.yul\":691:692   */\n      0x00\n        /* \"#utility.yul\":688:689   */\n      dup1\n        /* \"#utility.yul\":681:693   */\n      revert\n        /* \"#utility.yul\":706:1568   */\n    tag_48:\n        /* \"#utility.yul\":812:818   */\n      0x00\n        /* \"#utility.yul\":820:826   */\n      dup1\n        /* \"#utility.yul\":828:834   */\n      0x00\n        /* \"#utility.yul\":836:842   */\n      dup1\n        /* \"#utility.yul\":844:850   */\n      0x00\n        /* \"#utility.yul\":852:858   */\n      dup1\n        /* \"#utility.yul\":905:908   */\n      0x80\n        /* \"#utility.yul\":893:902   */\n      dup8\n        /* \"#utility.yul\":884:891   */\n      dup10\n        /* \"#utility.yul\":880:903   */\n      sub\n        /* \"#utility.yul\":876:909   */\n      slt\n        /* \"#utility.yul\":873:926   */\n      iszero\n      tag_537\n      jumpi\n        /* \"#utility.yul\":922:923   */\n      0x00\n        /* \"#utility.yul\":919:920   */\n      dup1\n        /* \"#utility.yul\":912:924   */\n      revert\n        /* \"#utility.yul\":873:926   */\n    tag_537:\n        /* \"#utility.yul\":945:973   */\n      tag_538\n        /* \"#utility.yul\":963:972   */\n      dup8\n        /* \"#utility.yul\":945:973   */\n      tag_514\n      jump\t// in\n    tag_538:\n        /* \"#utility.yul\":935:973   */\n      swap6\n      pop\n        /* \"#utility.yul\":1024:1026   */\n      0x20\n        /* \"#utility.yul\":1013:1022   */\n      dup8\n        /* \"#utility.yul\":1009:1027   */\n      add\n        /* \"#utility.yul\":996:1028   */\n      calldataload\n      sub(shl(0x40, 0x01), 0x01)\n        /* \"#utility.yul\":1088:1090   */\n      dup1\n        /* \"#utility.yul\":1080:1086   */\n      dup3\n        /* \"#utility.yul\":1077:1091   */\n      gt\n        /* \"#utility.yul\":1074:1108   */\n      iszero\n      tag_539\n      jumpi\n        /* \"#utility.yul\":1104:1105   */\n      0x00\n        /* \"#utility.yul\":1101:1102   */\n      dup1\n        /* \"#utility.yul\":1094:1106   */\n      revert\n        /* \"#utility.yul\":1074:1108   */\n    tag_539:\n        /* \"#utility.yul\":1143:1201   */\n      tag_540\n        /* \"#utility.yul\":1193:1200   */\n      dup11\n        /* \"#utility.yul\":1184:1190   */\n      dup4\n        /* \"#utility.yul\":1173:1182   */\n      dup12\n        /* \"#utility.yul\":1169:1191   */\n      add\n        /* \"#utility.yul\":1143:1201   */\n      tag_515\n      jump\t// in\n    tag_540:\n        /* \"#utility.yul\":1220:1228   */\n      swap1\n      swap8\n      pop\n        /* \"#utility.yul\":1117:1201   */\n      swap6\n      pop\n      dup6\n      swap2\n      pop\n        /* \"#utility.yul\":1274:1311   */\n      tag_541\n        /* \"#utility.yul\":1307:1309   */\n      0x40\n        /* \"#utility.yul\":1292:1310   */\n      dup11\n      add\n        /* \"#utility.yul\":1274:1311   */\n      tag_516\n      jump\t// in\n    tag_541:\n        /* \"#utility.yul\":1264:1311   */\n      swap5\n      pop\n        /* \"#utility.yul\":1364:1366   */\n      0x60\n        /* \"#utility.yul\":1353:1362   */\n      dup10\n        /* \"#utility.yul\":1349:1367   */\n      add\n        /* \"#utility.yul\":1336:1368   */\n      calldataload\n        /* \"#utility.yul\":1320:1368   */\n      swap2\n      pop\n        /* \"#utility.yul\":1393:1395   */\n      dup1\n        /* \"#utility.yul\":1383:1391   */\n      dup3\n        /* \"#utility.yul\":1380:1396   */\n      gt\n        /* \"#utility.yul\":1377:1413   */\n      iszero\n      tag_542\n      jumpi\n        /* \"#utility.yul\":1409:1410   */\n      0x00\n        /* \"#utility.yul\":1406:1407   */\n      dup1\n        /* \"#utility.yul\":1399:1411   */\n      revert\n        /* \"#utility.yul\":1377:1413   */\n    tag_542:\n      pop\n        /* \"#utility.yul\":1448:1508   */\n      tag_543\n        /* \"#utility.yul\":1500:1507   */\n      dup10\n        /* \"#utility.yul\":1489:1497   */\n      dup3\n        /* \"#utility.yul\":1478:1487   */\n      dup11\n        /* \"#utility.yul\":1474:1498   */\n      add\n        /* \"#utility.yul\":1448:1508   */\n      tag_515\n      jump\t// in\n    tag_543:\n        /* \"#utility.yul\":706:1568   */\n      swap8\n      swap11\n      swap7\n      swap10\n      pop\n      swap5\n      swap8\n      pop\n      swap3\n      swap6\n        /* \"#utility.yul\":1527:1535   */\n      swap4\n      swap5\n        /* \"#utility.yul\":706:1568   */\n      swap3\n      pop\n      pop\n      pop\n      jump\t// out\n        /* \"#utility.yul\":1573:1823   */\n    tag_517:\n        /* \"#utility.yul\":1658:1659   */\n      0x00\n        /* \"#utility.yul\":1668:1781   */\n    tag_545:\n        /* \"#utility.yul\":1682:1688   */\n      dup4\n        /* \"#utility.yul\":1679:1680   */\n      dup2\n        /* \"#utility.yul\":1676:1689   */\n      lt\n        /* \"#utility.yul\":1668:1781   */\n      iszero\n      tag_547\n      jumpi\n        /* \"#utility.yul\":1758:1769   */\n      dup2\n      dup2\n      add\n        /* \"#utility.yul\":1752:1770   */\n      mload\n        /* \"#utility.yul\":1739:1750   */\n      dup4\n      dup3\n      add\n        /* \"#utility.yul\":1732:1771   */\n      mstore\n        /* \"#utility.yul\":1704:1706   */\n      0x20\n        /* \"#utility.yul\":1697:1707   */\n      add\n        /* \"#utility.yul\":1668:1781   */\n      jump(tag_545)\n    tag_547:\n      pop\n      pop\n        /* \"#utility.yul\":1815:1816   */\n      0x00\n        /* \"#utility.yul\":1797:1813   */\n      swap2\n      add\n        /* \"#utility.yul\":1790:1817   */\n      mstore\n        /* \"#utility.yul\":1573:1823   */\n      jump\t// out\n        /* \"#utility.yul\":1828:2099   */\n    tag_518:\n        /* \"#utility.yul\":1870:1873   */\n      0x00\n        /* \"#utility.yul\":1908:1913   */\n      dup2\n        /* \"#utility.yul\":1902:1914   */\n      mload\n        /* \"#utility.yul\":1935:1941   */\n      dup1\n        /* \"#utility.yul\":1930:1933   */\n      dup5\n        /* \"#utility.yul\":1923:1942   */\n      mstore\n        /* \"#utility.yul\":1951:2027   */\n      tag_549\n        /* \"#utility.yul\":2020:2026   */\n      dup2\n        /* \"#utility.yul\":2013:2017   */\n      0x20\n        /* \"#utility.yul\":2008:2011   */\n      dup7\n        /* \"#utility.yul\":2004:2018   */\n      add\n        /* \"#utility.yul\":1997:2001   */\n      0x20\n        /* \"#utility.yul\":1990:1995   */\n      dup7\n        /* \"#utility.yul\":1986:2002   */\n      add\n        /* \"#utility.yul\":1951:2027   */\n      tag_517\n      jump\t// in\n    tag_549:\n        /* \"#utility.yul\":2081:2083   */\n      0x1f\n        /* \"#utility.yul\":2060:2075   */\n      add\n      not(0x1f)\n        /* \"#utility.yul\":2056:2085   */\n      and\n        /* \"#utility.yul\":2047:2086   */\n      swap3\n      swap1\n      swap3\n      add\n        /* \"#utility.yul\":2088:2092   */\n      0x20\n        /* \"#utility.yul\":2043:2093   */\n      add\n      swap3\n        /* \"#utility.yul\":1828:2099   */\n      swap2\n      pop\n      pop\n      jump\t// out\n        /* \"#utility.yul\":2104:2324   */\n    tag_54:\n        /* \"#utility.yul\":2253:2255   */\n      0x20\n        /* \"#utility.yul\":2242:2251   */\n      dup2\n        /* \"#utility.yul\":2235:2256   */\n      mstore\n        /* \"#utility.yul\":2216:2220   */\n      0x00\n        /* \"#utility.yul\":2273:2318   */\n      tag_341\n        /* \"#utility.yul\":2314:2316   */\n      0x20\n        /* \"#utility.yul\":2303:2312   */\n      dup4\n        /* \"#utility.yul\":2299:2317   */\n      add\n        /* \"#utility.yul\":2291:2297   */\n      dup5\n        /* \"#utility.yul\":2273:2318   */\n      tag_518\n      jump\t// in\n        /* \"#utility.yul\":2329:2513   */\n    tag_58:\n        /* \"#utility.yul\":2387:2393   */\n      0x00\n        /* \"#utility.yul\":2440:2442   */\n      0x20\n        /* \"#utility.yul\":2428:2437   */\n      dup3\n        /* \"#utility.yul\":2419:2426   */\n      dup5\n        /* \"#utility.yul\":2415:2438   */\n      sub\n        /* \"#utility.yul\":2411:2443   */\n      slt\n        /* \"#utility.yul\":2408:2460   */\n      iszero\n      tag_553\n      jumpi\n        /* \"#utility.yul\":2456:2457   */\n      0x00\n        /* \"#utility.yul\":2453:2454   */\n      dup1\n        /* \"#utility.yul\":2446:2458   */\n      revert\n        /* \"#utility.yul\":2408:2460   */\n    tag_553:\n        /* \"#utility.yul\":2479:2507   */\n      tag_341\n        /* \"#utility.yul\":2497:2506   */\n      dup3\n        /* \"#utility.yul\":2479:2507   */\n      tag_514\n      jump\t// in\n        /* \"#utility.yul\":2518:2649   */\n    tag_519:\n      sub(shl(0xa0, 0x01), 0x01)\n        /* \"#utility.yul\":2593:2624   */\n      dup2\n      and\n        /* \"#utility.yul\":2583:2625   */\n      dup2\n      eq\n        /* \"#utility.yul\":2573:2643   */\n      tag_397\n      jumpi\n        /* \"#utility.yul\":2639:2640   */\n      0x00\n        /* \"#utility.yul\":2636:2637   */\n      dup1\n        /* \"#utility.yul\":2629:2641   */\n      revert\n        /* \"#utility.yul\":2654:2969   */\n    tag_63:\n        /* \"#utility.yul\":2722:2728   */\n      0x00\n        /* \"#utility.yul\":2730:2736   */\n      dup1\n        /* \"#utility.yul\":2783:2785   */\n      0x40\n        /* \"#utility.yul\":2771:2780   */\n      dup4\n        /* \"#utility.yul\":2762:2769   */\n      dup6\n        /* \"#utility.yul\":2758:2781   */\n      sub\n        /* \"#utility.yul\":2754:2786   */\n      slt\n        /* \"#utility.yul\":2751:2803   */\n      iszero\n      tag_558\n      jumpi\n        /* \"#utility.yul\":2799:2800   */\n      0x00\n        /* \"#utility.yul\":2796:2797   */\n      dup1\n        /* \"#utility.yul\":2789:2801   */\n      revert\n        /* \"#utility.yul\":2751:2803   */\n    tag_558:\n        /* \"#utility.yul\":2838:2847   */\n      dup3\n        /* \"#utility.yul\":2825:2848   */\n      calldataload\n        /* \"#utility.yul\":2857:2888   */\n      tag_559\n        /* \"#utility.yul\":2882:2887   */\n      dup2\n        /* \"#utility.yul\":2857:2888   */\n      tag_519\n      jump\t// in\n    tag_559:\n        /* \"#utility.yul\":2907:2912   */\n      swap5\n        /* \"#utility.yul\":2959:2961   */\n      0x20\n        /* \"#utility.yul\":2944:2962   */\n      swap4\n      swap1\n      swap4\n      add\n        /* \"#utility.yul\":2931:2963   */\n      calldataload\n      swap4\n      pop\n      pop\n      pop\n        /* \"#utility.yul\":2654:2969   */\n      jump\t// out\n        /* \"#utility.yul\":3166:3418   */\n    tag_70:\n        /* \"#utility.yul\":3233:3239   */\n      0x00\n        /* \"#utility.yul\":3241:3247   */\n      dup1\n        /* \"#utility.yul\":3294:3296   */\n      0x40\n        /* \"#utility.yul\":3282:3291   */\n      dup4\n        /* \"#utility.yul\":3273:3280   */\n      dup6\n        /* \"#utility.yul\":3269:3292   */\n      sub\n        /* \"#utility.yul\":3265:3297   */\n      slt\n        /* \"#utility.yul\":3262:3314   */\n      iszero\n      tag_562\n      jumpi\n        /* \"#utility.yul\":3310:3311   */\n      0x00\n        /* \"#utility.yul\":3307:3308   */\n      dup1\n        /* \"#utility.yul\":3300:3312   */\n      revert\n        /* \"#utility.yul\":3262:3314   */\n    tag_562:\n        /* \"#utility.yul\":3333:3361   */\n      tag_559\n        /* \"#utility.yul\":3351:3360   */\n      dup4\n        /* \"#utility.yul\":3333:3361   */\n      tag_514\n      jump\t// in\n        /* \"#utility.yul\":3605:4061   */\n    tag_84:\n        /* \"#utility.yul\":3682:3688   */\n      0x00\n        /* \"#utility.yul\":3690:3696   */\n      dup1\n        /* \"#utility.yul\":3698:3704   */\n      0x00\n        /* \"#utility.yul\":3751:3753   */\n      0x60\n        /* \"#utility.yul\":3739:3748   */\n      dup5\n        /* \"#utility.yul\":3730:3737   */\n      dup7\n        /* \"#utility.yul\":3726:3749   */\n      sub\n        /* \"#utility.yul\":3722:3754   */\n      slt\n        /* \"#utility.yul\":3719:3771   */\n      iszero\n      tag_566\n      jumpi\n        /* \"#utility.yul\":3767:3768   */\n      0x00\n        /* \"#utility.yul\":3764:3765   */\n      dup1\n        /* \"#utility.yul\":3757:3769   */\n      revert\n        /* \"#utility.yul\":3719:3771   */\n    tag_566:\n        /* \"#utility.yul\":3806:3815   */\n      dup4\n        /* \"#utility.yul\":3793:3816   */\n      calldataload\n        /* \"#utility.yul\":3825:3856   */\n      tag_567\n        /* \"#utility.yul\":3850:3855   */\n      dup2\n        /* \"#utility.yul\":3825:3856   */\n      tag_519\n      jump\t// in\n    tag_567:\n        /* \"#utility.yul\":3875:3880   */\n      swap3\n      pop\n        /* \"#utility.yul\":3932:3934   */\n      0x20\n        /* \"#utility.yul\":3917:3935   */\n      dup5\n      add\n        /* \"#utility.yul\":3904:3936   */\n      calldataload\n        /* \"#utility.yul\":3945:3978   */\n      tag_568\n        /* \"#utility.yul\":3904:3936   */\n      dup2\n        /* \"#utility.yul\":3945:3978   */\n      tag_519\n      jump\t// in\n    tag_568:\n        /* \"#utility.yul\":3605:4061   */\n      swap3\n      swap6\n        /* \"#utility.yul\":3997:4004   */\n      swap3\n      swap5\n      pop\n      pop\n      pop\n        /* \"#utility.yul\":4051:4053   */\n      0x40\n        /* \"#utility.yul\":4036:4054   */\n      swap2\n      swap1\n      swap2\n      add\n        /* \"#utility.yul\":4023:4055   */\n      calldataload\n      swap1\n        /* \"#utility.yul\":3605:4061   */\n      jump\t// out\n        /* \"#utility.yul\":4255:4736   */\n    tag_95:\n        /* \"#utility.yul\":4333:4339   */\n      0x00\n        /* \"#utility.yul\":4341:4347   */\n      dup1\n        /* \"#utility.yul\":4349:4355   */\n      0x00\n        /* \"#utility.yul\":4402:4404   */\n      0x40\n        /* \"#utility.yul\":4390:4399   */\n      dup5\n        /* \"#utility.yul\":4381:4388   */\n      dup7\n        /* \"#utility.yul\":4377:4400   */\n      sub\n        /* \"#utility.yul\":4373:4405   */\n      slt\n        /* \"#utility.yul\":4370:4422   */\n      iszero\n      tag_571\n      jumpi\n        /* \"#utility.yul\":4418:4419   */\n      0x00\n        /* \"#utility.yul\":4415:4416   */\n      dup1\n        /* \"#utility.yul\":4408:4420   */\n      revert\n        /* \"#utility.yul\":4370:4422   */\n    tag_571:\n        /* \"#utility.yul\":4441:4469   */\n      tag_572\n        /* \"#utility.yul\":4459:4468   */\n      dup5\n        /* \"#utility.yul\":4441:4469   */\n      tag_514\n      jump\t// in\n    tag_572:\n        /* \"#utility.yul\":4431:4469   */\n      swap3\n      pop\n        /* \"#utility.yul\":4520:4522   */\n      0x20\n        /* \"#utility.yul\":4509:4518   */\n      dup5\n        /* \"#utility.yul\":4505:4523   */\n      add\n        /* \"#utility.yul\":4492:4524   */\n      calldataload\n      sub(shl(0x40, 0x01), 0x01)\n        /* \"#utility.yul\":4539:4545   */\n      dup2\n        /* \"#utility.yul\":4536:4566   */\n      gt\n        /* \"#utility.yul\":4533:4583   */\n      iszero\n      tag_573\n      jumpi\n        /* \"#utility.yul\":4579:4580   */\n      0x00\n        /* \"#utility.yul\":4576:4577   */\n      dup1\n        /* \"#utility.yul\":4569:4581   */\n      revert\n        /* \"#utility.yul\":4533:4583   */\n    tag_573:\n        /* \"#utility.yul\":4618:4676   */\n      tag_574\n        /* \"#utility.yul\":4668:4675   */\n      dup7\n        /* \"#utility.yul\":4659:4665   */\n      dup3\n        /* \"#utility.yul\":4648:4657   */\n      dup8\n        /* \"#utility.yul\":4644:4666   */\n      add\n        /* \"#utility.yul\":4618:4676   */\n      tag_515\n      jump\t// in\n    tag_574:\n        /* \"#utility.yul\":4255:4736   */\n      swap5\n      swap8\n        /* \"#utility.yul\":4695:4703   */\n      swap1\n      swap7\n      pop\n        /* \"#utility.yul\":4592:4676   */\n      swap4\n      swap5\n      pop\n      pop\n      pop\n      pop\n        /* \"#utility.yul\":4255:4736   */\n      jump\t// out\n        /* \"#utility.yul\":4741:4868   */\n    tag_481:\n        /* \"#utility.yul\":4802:4812   */\n      0x4e487b71\n        /* \"#utility.yul\":4797:4800   */\n      0xe0\n        /* \"#utility.yul\":4793:4813   */\n      shl\n        /* \"#utility.yul\":4790:4791   */\n      0x00\n        /* \"#utility.yul\":4783:4814   */\n      mstore\n        /* \"#utility.yul\":4833:4837   */\n      0x41\n        /* \"#utility.yul\":4830:4831   */\n      0x04\n        /* \"#utility.yul\":4823:4838   */\n      mstore\n        /* \"#utility.yul\":4857:4861   */\n      0x24\n        /* \"#utility.yul\":4854:4855   */\n      0x00\n        /* \"#utility.yul\":4847:4862   */\n      revert\n        /* \"#utility.yul\":4873:5148   */\n    tag_520:\n        /* \"#utility.yul\":4944:4946   */\n      0x40\n        /* \"#utility.yul\":4938:4947   */\n      mload\n        /* \"#utility.yul\":5009:5011   */\n      0x1f\n        /* \"#utility.yul\":4990:5003   */\n      dup3\n      add\n      not(0x1f)\n        /* \"#utility.yul\":4986:5013   */\n      and\n        /* \"#utility.yul\":4974:5014   */\n      dup2\n      add\n      sub(shl(0x40, 0x01), 0x01)\n        /* \"#utility.yul\":5029:5063   */\n      dup2\n      gt\n        /* \"#utility.yul\":5065:5087   */\n      dup3\n      dup3\n      lt\n        /* \"#utility.yul\":5026:5088   */\n      or\n        /* \"#utility.yul\":5023:5111   */\n      iszero\n      tag_578\n      jumpi\n        /* \"#utility.yul\":5091:5109   */\n      tag_578\n      tag_481\n      jump\t// in\n    tag_578:\n        /* \"#utility.yul\":5127:5129   */\n      0x40\n        /* \"#utility.yul\":5120:5142   */\n      mstore\n        /* \"#utility.yul\":4873:5148   */\n      swap2\n      swap1\n      pop\n      jump\t// out\n        /* \"#utility.yul\":5153:5339   */\n    tag_521:\n        /* \"#utility.yul\":5201:5205   */\n      0x00\n      sub(shl(0x40, 0x01), 0x01)\n        /* \"#utility.yul\":5226:5232   */\n      dup3\n        /* \"#utility.yul\":5223:5253   */\n      gt\n        /* \"#utility.yul\":5220:5276   */\n      iszero\n      tag_581\n      jumpi\n        /* \"#utility.yul\":5256:5274   */\n      tag_581\n      tag_481\n      jump\t// in\n    tag_581:\n      pop\n        /* \"#utility.yul\":5322:5324   */\n      0x1f\n        /* \"#utility.yul\":5301:5316   */\n      add\n      not(0x1f)\n        /* \"#utility.yul\":5297:5326   */\n      and\n        /* \"#utility.yul\":5328:5332   */\n      0x20\n        /* \"#utility.yul\":5293:5333   */\n      add\n      swap1\n        /* \"#utility.yul\":5153:5339   */\n      jump\t// out\n        /* \"#utility.yul\":5344:6159   */\n    tag_110:\n        /* \"#utility.yul\":5428:5434   */\n      0x00\n        /* \"#utility.yul\":5436:5442   */\n      dup1\n        /* \"#utility.yul\":5444:5450   */\n      0x00\n        /* \"#utility.yul\":5497:5499   */\n      0x60\n        /* \"#utility.yul\":5485:5494   */\n      dup5\n        /* \"#utility.yul\":5476:5483   */\n      dup7\n        /* \"#utility.yul\":5472:5495   */\n      sub\n        /* \"#utility.yul\":5468:5500   */\n      slt\n        /* \"#utility.yul\":5465:5517   */\n      iszero\n      tag_583\n      jumpi\n        /* \"#utility.yul\":5513:5514   */\n      0x00\n        /* \"#utility.yul\":5510:5511   */\n      dup1\n        /* \"#utility.yul\":5503:5515   */\n      revert\n        /* \"#utility.yul\":5465:5517   */\n    tag_583:\n        /* \"#utility.yul\":5536:5564   */\n      tag_584\n        /* \"#utility.yul\":5554:5563   */\n      dup5\n        /* \"#utility.yul\":5536:5564   */\n      tag_514\n      jump\t// in\n    tag_584:\n        /* \"#utility.yul\":5526:5564   */\n      swap3\n      pop\n        /* \"#utility.yul\":5615:5617   */\n      0x20\n        /* \"#utility.yul\":5604:5613   */\n      dup5\n        /* \"#utility.yul\":5600:5618   */\n      add\n        /* \"#utility.yul\":5587:5619   */\n      calldataload\n      sub(shl(0x40, 0x01), 0x01)\n        /* \"#utility.yul\":5634:5640   */\n      dup2\n        /* \"#utility.yul\":5631:5661   */\n      gt\n        /* \"#utility.yul\":5628:5678   */\n      iszero\n      tag_585\n      jumpi\n        /* \"#utility.yul\":5674:5675   */\n      0x00\n        /* \"#utility.yul\":5671:5672   */\n      dup1\n        /* \"#utility.yul\":5664:5676   */\n      revert\n        /* \"#utility.yul\":5628:5678   */\n    tag_585:\n        /* \"#utility.yul\":5697:5719   */\n      dup5\n      add\n        /* \"#utility.yul\":5750:5754   */\n      0x1f\n        /* \"#utility.yul\":5742:5755   */\n      dup2\n      add\n        /* \"#utility.yul\":5738:5765   */\n      dup7\n      sgt\n        /* \"#utility.yul\":5728:5783   */\n      tag_586\n      jumpi\n        /* \"#utility.yul\":5779:5780   */\n      0x00\n        /* \"#utility.yul\":5776:5777   */\n      dup1\n        /* \"#utility.yul\":5769:5781   */\n      revert\n        /* \"#utility.yul\":5728:5783   */\n    tag_586:\n        /* \"#utility.yul\":5815:5817   */\n      dup1\n        /* \"#utility.yul\":5802:5818   */\n      calldataload\n        /* \"#utility.yul\":5840:5888   */\n      tag_587\n        /* \"#utility.yul\":5856:5887   */\n      tag_588\n        /* \"#utility.yul\":5884:5886   */\n      dup3\n        /* \"#utility.yul\":5856:5887   */\n      tag_521\n      jump\t// in\n    tag_588:\n        /* \"#utility.yul\":5840:5888   */\n      tag_520\n      jump\t// in\n    tag_587:\n        /* \"#utility.yul\":5911:5913   */\n      dup2\n        /* \"#utility.yul\":5904:5909   */\n      dup2\n        /* \"#utility.yul\":5897:5914   */\n      mstore\n        /* \"#utility.yul\":5951:5958   */\n      dup8\n        /* \"#utility.yul\":5946:5948   */\n      0x20\n        /* \"#utility.yul\":5941:5943   */\n      dup4\n        /* \"#utility.yul\":5937:5939   */\n      dup6\n        /* \"#utility.yul\":5933:5944   */\n      add\n        /* \"#utility.yul\":5929:5949   */\n      add\n        /* \"#utility.yul\":5926:5959   */\n      gt\n        /* \"#utility.yul\":5923:5976   */\n      iszero\n      tag_589\n      jumpi\n        /* \"#utility.yul\":5972:5973   */\n      0x00\n        /* \"#utility.yul\":5969:5970   */\n      dup1\n        /* \"#utility.yul\":5962:5974   */\n      revert\n        /* \"#utility.yul\":5923:5976   */\n    tag_589:\n        /* \"#utility.yul\":6027:6029   */\n      dup2\n        /* \"#utility.yul\":6022:6024   */\n      0x20\n        /* \"#utility.yul\":6018:6020   */\n      dup5\n        /* \"#utility.yul\":6014:6025   */\n      add\n        /* \"#utility.yul\":6009:6011   */\n      0x20\n        /* \"#utility.yul\":6002:6007   */\n      dup4\n        /* \"#utility.yul\":5998:6012   */\n      add\n        /* \"#utility.yul\":5985:6030   */\n      calldatacopy\n        /* \"#utility.yul\":6071:6072   */\n      0x00\n        /* \"#utility.yul\":6066:6068   */\n      0x20\n        /* \"#utility.yul\":6061:6063   */\n      dup4\n        /* \"#utility.yul\":6054:6059   */\n      dup4\n        /* \"#utility.yul\":6050:6064   */\n      add\n        /* \"#utility.yul\":6046:6069   */\n      add\n        /* \"#utility.yul\":6039:6073   */\n      mstore\n        /* \"#utility.yul\":6092:6097   */\n      dup1\n        /* \"#utility.yul\":6082:6097   */\n      swap5\n      pop\n      pop\n      pop\n      pop\n        /* \"#utility.yul\":6116:6153   */\n      tag_590\n        /* \"#utility.yul\":6149:6151   */\n      0x40\n        /* \"#utility.yul\":6138:6147   */\n      dup6\n        /* \"#utility.yul\":6134:6152   */\n      add\n        /* \"#utility.yul\":6116:6153   */\n      tag_516\n      jump\t// in\n    tag_590:\n        /* \"#utility.yul\":6106:6153   */\n      swap1\n      pop\n        /* \"#utility.yul\":5344:6159   */\n      swap3\n      pop\n      swap3\n      pop\n      swap3\n      jump\t// out\n        /* \"#utility.yul\":6346:6593   */\n    tag_117:\n        /* \"#utility.yul\":6405:6411   */\n      0x00\n        /* \"#utility.yul\":6458:6460   */\n      0x20\n        /* \"#utility.yul\":6446:6455   */\n      dup3\n        /* \"#utility.yul\":6437:6444   */\n      dup5\n        /* \"#utility.yul\":6433:6456   */\n      sub\n        /* \"#utility.yul\":6429:6461   */\n      slt\n        /* \"#utility.yul\":6426:6478   */\n      iszero\n      tag_593\n      jumpi\n        /* \"#utility.yul\":6474:6475   */\n      0x00\n        /* \"#utility.yul\":6471:6472   */\n      dup1\n        /* \"#utility.yul\":6464:6476   */\n      revert\n        /* \"#utility.yul\":6426:6478   */\n    tag_593:\n        /* \"#utility.yul\":6513:6522   */\n      dup2\n        /* \"#utility.yul\":6500:6523   */\n      calldataload\n        /* \"#utility.yul\":6532:6563   */\n      tag_341\n        /* \"#utility.yul\":6557:6562   */\n      dup2\n        /* \"#utility.yul\":6532:6563   */\n      tag_519\n      jump\t// in\n        /* \"#utility.yul\":6821:7077   */\n    tag_140:\n        /* \"#utility.yul\":6887:6893   */\n      0x00\n        /* \"#utility.yul\":6895:6901   */\n      dup1\n        /* \"#utility.yul\":6948:6950   */\n      0x40\n        /* \"#utility.yul\":6936:6945   */\n      dup4\n        /* \"#utility.yul\":6927:6934   */\n      dup6\n        /* \"#utility.yul\":6923:6946   */\n      sub\n        /* \"#utility.yul\":6919:6951   */\n      slt\n        /* \"#utility.yul\":6916:6968   */\n      iszero\n      tag_598\n      jumpi\n        /* \"#utility.yul\":6964:6965   */\n      0x00\n        /* \"#utility.yul\":6961:6962   */\n      dup1\n        /* \"#utility.yul\":6954:6966   */\n      revert\n        /* \"#utility.yul\":6916:6968   */\n    tag_598:\n        /* \"#utility.yul\":6987:7015   */\n      tag_599\n        /* \"#utility.yul\":7005:7014   */\n      dup4\n        /* \"#utility.yul\":6987:7015   */\n      tag_514\n      jump\t// in\n    tag_599:\n        /* \"#utility.yul\":6977:7015   */\n      swap2\n      pop\n        /* \"#utility.yul\":7034:7071   */\n      tag_600\n        /* \"#utility.yul\":7067:7069   */\n      0x20\n        /* \"#utility.yul\":7056:7065   */\n      dup5\n        /* \"#utility.yul\":7052:7070   */\n      add\n        /* \"#utility.yul\":7034:7071   */\n      tag_514\n      jump\t// in\n    tag_600:\n        /* \"#utility.yul\":7024:7071   */\n      swap1\n      pop\n        /* \"#utility.yul\":6821:7077   */\n      swap3\n      pop\n      swap3\n      swap1\n      pop\n      jump\t// out\n        /* \"#utility.yul\":7290:7470   */\n    tag_150:\n        /* \"#utility.yul\":7349:7355   */\n      0x00\n        /* \"#utility.yul\":7402:7404   */\n      0x20\n        /* \"#utility.yul\":7390:7399   */\n      dup3\n        /* \"#utility.yul\":7381:7388   */\n      dup5\n        /* \"#utility.yul\":7377:7400   */\n      sub\n        /* \"#utility.yul\":7373:7405   */\n      slt\n        /* \"#utility.yul\":7370:7422   */\n      iszero\n      tag_603\n      jumpi\n        /* \"#utility.yul\":7418:7419   */\n      0x00\n        /* \"#utility.yul\":7415:7416   */\n      dup1\n        /* \"#utility.yul\":7408:7420   */\n      revert\n        /* \"#utility.yul\":7370:7422   */\n    tag_603:\n      pop\n        /* \"#utility.yul\":7441:7464   */\n      calldataload\n      swap2\n        /* \"#utility.yul\":7290:7470   */\n      swap1\n      pop\n      jump\t// out\n        /* \"#utility.yul\":7710:8332   */\n    tag_190:\n        /* \"#utility.yul\":7805:7811   */\n      0x00\n        /* \"#utility.yul\":7813:7819   */\n      dup1\n        /* \"#utility.yul\":7821:7827   */\n      0x00\n        /* \"#utility.yul\":7829:7835   */\n      dup1\n        /* \"#utility.yul\":7837:7843   */\n      0x00\n        /* \"#utility.yul\":7890:7893   */\n      0x80\n        /* \"#utility.yul\":7878:7887   */\n      dup7\n        /* \"#utility.yul\":7869:7876   */\n      dup9\n        /* \"#utility.yul\":7865:7888   */\n      sub\n        /* \"#utility.yul\":7861:7894   */\n      slt\n        /* \"#utility.yul\":7858:7911   */\n      iszero\n      tag_606\n      jumpi\n        /* \"#utility.yul\":7907:7908   */\n      0x00\n        /* \"#utility.yul\":7904:7905   */\n      dup1\n        /* \"#utility.yul\":7897:7909   */\n      revert\n        /* \"#utility.yul\":7858:7911   */\n    tag_606:\n        /* \"#utility.yul\":7930:7958   */\n      tag_607\n        /* \"#utility.yul\":7948:7957   */\n      dup7\n        /* \"#utility.yul\":7930:7958   */\n      tag_514\n      jump\t// in\n    tag_607:\n        /* \"#utility.yul\":7920:7958   */\n      swap5\n      pop\n        /* \"#utility.yul\":7977:8014   */\n      tag_608\n        /* \"#utility.yul\":8010:8012   */\n      0x20\n        /* \"#utility.yul\":7999:8008   */\n      dup8\n        /* \"#utility.yul\":7995:8013   */\n      add\n        /* \"#utility.yul\":7977:8014   */\n      tag_514\n      jump\t// in\n    tag_608:\n        /* \"#utility.yul\":7967:8014   */\n      swap4\n      pop\n        /* \"#utility.yul\":8061:8063   */\n      0x40\n        /* \"#utility.yul\":8050:8059   */\n      dup7\n        /* \"#utility.yul\":8046:8064   */\n      add\n        /* \"#utility.yul\":8033:8065   */\n      calldataload\n        /* \"#utility.yul\":8023:8065   */\n      swap3\n      pop\n        /* \"#utility.yul\":8116:8118   */\n      0x60\n        /* \"#utility.yul\":8105:8114   */\n      dup7\n        /* \"#utility.yul\":8101:8119   */\n      add\n        /* \"#utility.yul\":8088:8120   */\n      calldataload\n      sub(shl(0x40, 0x01), 0x01)\n        /* \"#utility.yul\":8135:8141   */\n      dup2\n        /* \"#utility.yul\":8132:8162   */\n      gt\n        /* \"#utility.yul\":8129:8179   */\n      iszero\n      tag_609\n      jumpi\n        /* \"#utility.yul\":8175:8176   */\n      0x00\n        /* \"#utility.yul\":8172:8173   */\n      dup1\n        /* \"#utility.yul\":8165:8177   */\n      revert\n        /* \"#utility.yul\":8129:8179   */\n    tag_609:\n        /* \"#utility.yul\":8214:8272   */\n      tag_610\n        /* \"#utility.yul\":8264:8271   */\n      dup9\n        /* \"#utility.yul\":8255:8261   */\n      dup3\n        /* \"#utility.yul\":8244:8253   */\n      dup10\n        /* \"#utility.yul\":8240:8262   */\n      add\n        /* \"#utility.yul\":8214:8272   */\n      tag_515\n      jump\t// in\n    tag_610:\n        /* \"#utility.yul\":7710:8332   */\n      swap7\n      swap10\n      swap6\n      swap9\n      pop\n      swap4\n      swap7\n      pop\n        /* \"#utility.yul\":8291:8299   */\n      swap3\n      swap5\n        /* \"#utility.yul\":8188:8272   */\n      swap4\n        /* \"#utility.yul\":7710:8332   */\n      swap3\n      pop\n      pop\n      pop\n      jump\t// out\n        /* \"#utility.yul\":8337:8725   */\n    tag_198:\n        /* \"#utility.yul\":8405:8411   */\n      0x00\n        /* \"#utility.yul\":8413:8419   */\n      dup1\n        /* \"#utility.yul\":8466:8468   */\n      0x40\n        /* \"#utility.yul\":8454:8463   */\n      dup4\n        /* \"#utility.yul\":8445:8452   */\n      dup6\n        /* \"#utility.yul\":8441:8464   */\n      sub\n        /* \"#utility.yul\":8437:8469   */\n      slt\n        /* \"#utility.yul\":8434:8486   */\n      iszero\n      tag_612\n      jumpi\n        /* \"#utility.yul\":8482:8483   */\n      0x00\n        /* \"#utility.yul\":8479:8480   */\n      dup1\n        /* \"#utility.yul\":8472:8484   */\n      revert\n        /* \"#utility.yul\":8434:8486   */\n    tag_612:\n        /* \"#utility.yul\":8521:8530   */\n      dup3\n        /* \"#utility.yul\":8508:8531   */\n      calldataload\n        /* \"#utility.yul\":8540:8571   */\n      tag_613\n        /* \"#utility.yul\":8565:8570   */\n      dup2\n        /* \"#utility.yul\":8540:8571   */\n      tag_519\n      jump\t// in\n    tag_613:\n        /* \"#utility.yul\":8590:8595   */\n      swap2\n      pop\n        /* \"#utility.yul\":8647:8649   */\n      0x20\n        /* \"#utility.yul\":8632:8650   */\n      dup4\n      add\n        /* \"#utility.yul\":8619:8651   */\n      calldataload\n        /* \"#utility.yul\":8660:8693   */\n      tag_614\n        /* \"#utility.yul\":8619:8651   */\n      dup2\n        /* \"#utility.yul\":8660:8693   */\n      tag_519\n      jump\t// in\n    tag_614:\n        /* \"#utility.yul\":8712:8719   */\n      dup1\n        /* \"#utility.yul\":8702:8719   */\n      swap2\n      pop\n      pop\n        /* \"#utility.yul\":8337:8725   */\n      swap3\n      pop\n      swap3\n      swap1\n      pop\n      jump\t// out\n        /* \"#utility.yul\":8730:9054   */\n    tag_204:\n        /* \"#utility.yul\":8805:8811   */\n      0x00\n        /* \"#utility.yul\":8813:8819   */\n      dup1\n        /* \"#utility.yul\":8821:8827   */\n      0x00\n        /* \"#utility.yul\":8874:8876   */\n      0x60\n        /* \"#utility.yul\":8862:8871   */\n      dup5\n        /* \"#utility.yul\":8853:8860   */\n      dup7\n        /* \"#utility.yul\":8849:8872   */\n      sub\n        /* \"#utility.yul\":8845:8877   */\n      slt\n        /* \"#utility.yul\":8842:8894   */\n      iszero\n      tag_616\n      jumpi\n        /* \"#utility.yul\":8890:8891   */\n      0x00\n        /* \"#utility.yul\":8887:8888   */\n      dup1\n        /* \"#utility.yul\":8880:8892   */\n      revert\n        /* \"#utility.yul\":8842:8894   */\n    tag_616:\n        /* \"#utility.yul\":8913:8941   */\n      tag_617\n        /* \"#utility.yul\":8931:8940   */\n      dup5\n        /* \"#utility.yul\":8913:8941   */\n      tag_514\n      jump\t// in\n    tag_617:\n        /* \"#utility.yul\":8903:8941   */\n      swap3\n      pop\n        /* \"#utility.yul\":8960:8997   */\n      tag_618\n        /* \"#utility.yul\":8993:8995   */\n      0x20\n        /* \"#utility.yul\":8982:8991   */\n      dup6\n        /* \"#utility.yul\":8978:8996   */\n      add\n        /* \"#utility.yul\":8960:8997   */\n      tag_514\n      jump\t// in\n    tag_618:\n        /* \"#utility.yul\":8950:8997   */\n      swap2\n      pop\n        /* \"#utility.yul\":9044:9046   */\n      0x40\n        /* \"#utility.yul\":9033:9042   */\n      dup5\n        /* \"#utility.yul\":9029:9047   */\n      add\n        /* \"#utility.yul\":9016:9048   */\n      calldataload\n        /* \"#utility.yul\":9006:9048   */\n      swap1\n      pop\n        /* \"#utility.yul\":8730:9054   */\n      swap3\n      pop\n      swap3\n      pop\n      swap3\n      jump\t// out\n        /* \"#utility.yul\":9059:9519   */\n    tag_217:\n        /* \"#utility.yul\":9143:9149   */\n      0x00\n        /* \"#utility.yul\":9151:9157   */\n      dup1\n        /* \"#utility.yul\":9159:9165   */\n      0x00\n        /* \"#utility.yul\":9167:9173   */\n      dup1\n        /* \"#utility.yul\":9220:9223   */\n      0x80\n        /* \"#utility.yul\":9208:9217   */\n      dup6\n        /* \"#utility.yul\":9199:9206   */\n      dup8\n        /* \"#utility.yul\":9195:9218   */\n      sub\n        /* \"#utility.yul\":9191:9224   */\n      slt\n        /* \"#utility.yul\":9188:9241   */\n      iszero\n      tag_620\n      jumpi\n        /* \"#utility.yul\":9237:9238   */\n      0x00\n        /* \"#utility.yul\":9234:9235   */\n      dup1\n        /* \"#utility.yul\":9227:9239   */\n      revert\n        /* \"#utility.yul\":9188:9241   */\n    tag_620:\n        /* \"#utility.yul\":9260:9288   */\n      tag_621\n        /* \"#utility.yul\":9278:9287   */\n      dup6\n        /* \"#utility.yul\":9260:9288   */\n      tag_514\n      jump\t// in\n    tag_621:\n        /* \"#utility.yul\":9250:9288   */\n      swap4\n      pop\n        /* \"#utility.yul\":9307:9344   */\n      tag_622\n        /* \"#utility.yul\":9340:9342   */\n      0x20\n        /* \"#utility.yul\":9329:9338   */\n      dup7\n        /* \"#utility.yul\":9325:9343   */\n      add\n        /* \"#utility.yul\":9307:9344   */\n      tag_514\n      jump\t// in\n    tag_622:\n        /* \"#utility.yul\":9297:9344   */\n      swap3\n      pop\n        /* \"#utility.yul\":9394:9396   */\n      0x40\n        /* \"#utility.yul\":9383:9392   */\n      dup6\n        /* \"#utility.yul\":9379:9397   */\n      add\n        /* \"#utility.yul\":9366:9398   */\n      calldataload\n        /* \"#utility.yul\":9407:9438   */\n      tag_623\n        /* \"#utility.yul\":9432:9437   */\n      dup2\n        /* \"#utility.yul\":9407:9438   */\n      tag_519\n      jump\t// in\n    tag_623:\n        /* \"#utility.yul\":9059:9519   */\n      swap4\n      swap7\n      swap3\n      swap6\n      pop\n        /* \"#utility.yul\":9457:9462   */\n      swap3\n      swap4\n        /* \"#utility.yul\":9509:9511   */\n      0x60\n        /* \"#utility.yul\":9494:9512   */\n      add\n        /* \"#utility.yul\":9481:9513   */\n      calldataload\n      swap3\n      pop\n      pop\n        /* \"#utility.yul\":9059:9519   */\n      jump\t// out\n        /* \"#utility.yul\":9883:10263   */\n    tag_227:\n        /* \"#utility.yul\":9962:9963   */\n      0x01\n        /* \"#utility.yul\":9958:9970   */\n      dup2\n      dup2\n      shr\n      swap1\n        /* \"#utility.yul\":10005:10017   */\n      dup3\n      and\n      dup1\n        /* \"#utility.yul\":10026:10087   */\n      tag_626\n      jumpi\n        /* \"#utility.yul\":10080:10084   */\n      0x7f\n        /* \"#utility.yul\":10072:10078   */\n      dup3\n        /* \"#utility.yul\":10068:10085   */\n      and\n        /* \"#utility.yul\":10058:10085   */\n      swap2\n      pop\n        /* \"#utility.yul\":10026:10087   */\n    tag_626:\n        /* \"#utility.yul\":10133:10135   */\n      0x20\n        /* \"#utility.yul\":10125:10131   */\n      dup3\n        /* \"#utility.yul\":10122:10136   */\n      lt\n        /* \"#utility.yul\":10102:10120   */\n      dup2\n        /* \"#utility.yul\":10099:10137   */\n      sub\n        /* \"#utility.yul\":10096:10257   */\n      tag_627\n      jumpi\n        /* \"#utility.yul\":10179:10189   */\n      0x4e487b71\n        /* \"#utility.yul\":10174:10177   */\n      0xe0\n        /* \"#utility.yul\":10170:10190   */\n      shl\n        /* \"#utility.yul\":10167:10168   */\n      0x00\n        /* \"#utility.yul\":10160:10191   */\n      mstore\n        /* \"#utility.yul\":10214:10218   */\n      0x22\n        /* \"#utility.yul\":10211:10212   */\n      0x04\n        /* \"#utility.yul\":10204:10219   */\n      mstore\n        /* \"#utility.yul\":10242:10246   */\n      0x24\n        /* \"#utility.yul\":10239:10240   */\n      0x00\n        /* \"#utility.yul\":10232:10247   */\n      revert\n        /* \"#utility.yul\":10096:10257   */\n    tag_627:\n      pop\n        /* \"#utility.yul\":9883:10263   */\n      swap2\n      swap1\n      pop\n      jump\t// out\n        /* \"#utility.yul\":10268:10539   */\n    tag_235:\n        /* \"#utility.yul\":10451:10457   */\n      dup2\n        /* \"#utility.yul\":10443:10449   */\n      dup4\n        /* \"#utility.yul\":10438:10441   */\n      dup3\n        /* \"#utility.yul\":10425:10458   */\n      calldatacopy\n        /* \"#utility.yul\":10407:10410   */\n      0x00\n        /* \"#utility.yul\":10477:10493   */\n      swap2\n      add\n        /* \"#utility.yul\":10502:10515   */\n      swap1\n      dup2\n      mstore\n        /* \"#utility.yul\":10477:10493   */\n      swap2\n        /* \"#utility.yul\":10268:10539   */\n      swap1\n      pop\n      jump\t// out\n        /* \"#utility.yul\":11144:11410   */\n    tag_522:\n        /* \"#utility.yul\":11232:11238   */\n      dup2\n        /* \"#utility.yul\":11227:11230   */\n      dup4\n        /* \"#utility.yul\":11220:11239   */\n      mstore\n        /* \"#utility.yul\":11284:11290   */\n      dup2\n        /* \"#utility.yul\":11277:11282   */\n      dup2\n        /* \"#utility.yul\":11270:11274   */\n      0x20\n        /* \"#utility.yul\":11265:11268   */\n      dup6\n        /* \"#utility.yul\":11261:11275   */\n      add\n        /* \"#utility.yul\":11248:11291   */\n      calldatacopy\n      pop\n        /* \"#utility.yul\":11336:11337   */\n      0x00\n        /* \"#utility.yul\":11311:11327   */\n      dup3\n      dup3\n      add\n        /* \"#utility.yul\":11329:11333   */\n      0x20\n        /* \"#utility.yul\":11307:11334   */\n      swap1\n      dup2\n      add\n        /* \"#utility.yul\":11300:11338   */\n      swap2\n      swap1\n      swap2\n      mstore\n        /* \"#utility.yul\":11392:11394   */\n      0x1f\n        /* \"#utility.yul\":11371:11386   */\n      swap1\n      swap2\n      add\n      not(0x1f)\n        /* \"#utility.yul\":11367:11396   */\n      and\n        /* \"#utility.yul\":11358:11397   */\n      swap1\n      swap2\n      add\n        /* \"#utility.yul\":11354:11404   */\n      add\n      swap1\n        /* \"#utility.yul\":11144:11410   */\n      jump\t// out\n        /* \"#utility.yul\":11415:11741   */\n    tag_289:\n        /* \"#utility.yul\":11610:11616   */\n      0xffff\n        /* \"#utility.yul\":11602:11608   */\n      dup5\n        /* \"#utility.yul\":11598:11617   */\n      and\n        /* \"#utility.yul\":11587:11596   */\n      dup2\n        /* \"#utility.yul\":11580:11618   */\n      mstore\n        /* \"#utility.yul\":11654:11656   */\n      0x40\n        /* \"#utility.yul\":11649:11651   */\n      0x20\n        /* \"#utility.yul\":11638:11647   */\n      dup3\n        /* \"#utility.yul\":11634:11652   */\n      add\n        /* \"#utility.yul\":11627:11657   */\n      mstore\n        /* \"#utility.yul\":11561:11565   */\n      0x00\n        /* \"#utility.yul\":11674:11735   */\n      tag_403\n        /* \"#utility.yul\":11731:11733   */\n      0x40\n        /* \"#utility.yul\":11720:11729   */\n      dup4\n        /* \"#utility.yul\":11716:11734   */\n      add\n        /* \"#utility.yul\":11708:11714   */\n      dup5\n        /* \"#utility.yul\":11700:11706   */\n      dup7\n        /* \"#utility.yul\":11674:11735   */\n      tag_522\n      jump\t// in\n        /* \"#utility.yul\":12209:12726   */\n    tag_524:\n        /* \"#utility.yul\":12310:12312   */\n      0x1f\n        /* \"#utility.yul\":12305:12308   */\n      dup3\n        /* \"#utility.yul\":12302:12313   */\n      gt\n        /* \"#utility.yul\":12299:12720   */\n      iszero\n      tag_421\n      jumpi\n        /* \"#utility.yul\":12346:12351   */\n      dup1\n        /* \"#utility.yul\":12343:12344   */\n      0x00\n        /* \"#utility.yul\":12336:12352   */\n      mstore\n        /* \"#utility.yul\":12390:12394   */\n      0x20\n        /* \"#utility.yul\":12387:12388   */\n      0x00\n        /* \"#utility.yul\":12377:12395   */\n      keccak256\n        /* \"#utility.yul\":12460:12462   */\n      0x1f\n        /* \"#utility.yul\":12448:12458   */\n      dup5\n        /* \"#utility.yul\":12444:12463   */\n      add\n        /* \"#utility.yul\":12441:12442   */\n      0x05\n        /* \"#utility.yul\":12437:12464   */\n      shr\n        /* \"#utility.yul\":12431:12435   */\n      dup2\n        /* \"#utility.yul\":12427:12465   */\n      add\n        /* \"#utility.yul\":12496:12500   */\n      0x20\n        /* \"#utility.yul\":12484:12494   */\n      dup6\n        /* \"#utility.yul\":12481:12501   */\n      lt\n        /* \"#utility.yul\":12478:12525   */\n      iszero\n      tag_638\n      jumpi\n      pop\n        /* \"#utility.yul\":12519:12523   */\n      dup1\n        /* \"#utility.yul\":12478:12525   */\n    tag_638:\n        /* \"#utility.yul\":12574:12576   */\n      0x1f\n        /* \"#utility.yul\":12569:12572   */\n      dup5\n        /* \"#utility.yul\":12565:12577   */\n      add\n        /* \"#utility.yul\":12562:12563   */\n      0x05\n        /* \"#utility.yul\":12558:12578   */\n      shr\n        /* \"#utility.yul\":12552:12556   */\n      dup3\n        /* \"#utility.yul\":12548:12579   */\n      add\n        /* \"#utility.yul\":12538:12579   */\n      swap2\n      pop\n        /* \"#utility.yul\":12629:12710   */\n    tag_639:\n        /* \"#utility.yul\":12647:12649   */\n      dup2\n        /* \"#utility.yul\":12640:12645   */\n      dup2\n        /* \"#utility.yul\":12637:12650   */\n      lt\n        /* \"#utility.yul\":12629:12710   */\n      iszero\n      tag_255\n      jumpi\n        /* \"#utility.yul\":12706:12707   */\n      0x00\n        /* \"#utility.yul\":12692:12708   */\n      dup2\n      sstore\n        /* \"#utility.yul\":12673:12674   */\n      0x01\n        /* \"#utility.yul\":12662:12675   */\n      add\n        /* \"#utility.yul\":12629:12710   */\n      jump(tag_639)\n        /* \"#utility.yul\":12902:14243   */\n    tag_299:\n        /* \"#utility.yul\":13026:13029   */\n      dup2\n        /* \"#utility.yul\":13020:13030   */\n      mload\n      sub(shl(0x40, 0x01), 0x01)\n        /* \"#utility.yul\":13045:13051   */\n      dup2\n        /* \"#utility.yul\":13042:13072   */\n      gt\n        /* \"#utility.yul\":13039:13095   */\n      iszero\n      tag_645\n      jumpi\n        /* \"#utility.yul\":13075:13093   */\n      tag_645\n      tag_481\n      jump\t// in\n    tag_645:\n        /* \"#utility.yul\":13104:13200   */\n      tag_646\n        /* \"#utility.yul\":13193:13199   */\n      dup2\n        /* \"#utility.yul\":13153:13191   */\n      tag_647\n        /* \"#utility.yul\":13185:13189   */\n      dup5\n        /* \"#utility.yul\":13179:13190   */\n      sload\n        /* \"#utility.yul\":13153:13191   */\n      tag_227\n      jump\t// in\n    tag_647:\n        /* \"#utility.yul\":13147:13151   */\n      dup5\n        /* \"#utility.yul\":13104:13200   */\n      tag_524\n      jump\t// in\n    tag_646:\n        /* \"#utility.yul\":13255:13259   */\n      0x20\n      dup1\n        /* \"#utility.yul\":13312:13314   */\n      0x1f\n        /* \"#utility.yul\":13301:13315   */\n      dup4\n      gt\n        /* \"#utility.yul\":13329:13330   */\n      0x01\n        /* \"#utility.yul\":13324:13986   */\n      dup2\n      eq\n      tag_649\n      jumpi\n        /* \"#utility.yul\":14030:14031   */\n      0x00\n        /* \"#utility.yul\":14047:14053   */\n      dup5\n        /* \"#utility.yul\":14044:14133   */\n      iszero\n      tag_650\n      jumpi\n      pop\n        /* \"#utility.yul\":14099:14118   */\n      dup6\n      dup4\n      add\n        /* \"#utility.yul\":14093:14119   */\n      mload\n        /* \"#utility.yul\":14044:14133   */\n    tag_650:\n      not(0x00)\n        /* \"#utility.yul\":12859:12860   */\n      0x03\n        /* \"#utility.yul\":12855:12866   */\n      dup7\n      swap1\n      shl\n        /* \"#utility.yul\":12851:12875   */\n      shr\n        /* \"#utility.yul\":12847:12876   */\n      not\n        /* \"#utility.yul\":12837:12877   */\n      and\n        /* \"#utility.yul\":12883:12884   */\n      0x01\n        /* \"#utility.yul\":12879:12890   */\n      dup6\n      swap1\n      shl\n        /* \"#utility.yul\":12834:12891   */\n      or\n        /* \"#utility.yul\":14146:14227   */\n      dup6\n      sstore\n        /* \"#utility.yul\":13294:14237   */\n      jump(tag_305)\n        /* \"#utility.yul\":13324:13986   */\n    tag_649:\n        /* \"#utility.yul\":12156:12157   */\n      0x00\n        /* \"#utility.yul\":12149:12163   */\n      dup6\n      dup2\n      mstore\n        /* \"#utility.yul\":12193:12197   */\n      0x20\n        /* \"#utility.yul\":12180:12198   */\n      dup2\n      keccak256\n      not(0x1f)\n        /* \"#utility.yul\":13360:13380   */\n      dup7\n      and\n      swap2\n        /* \"#utility.yul\":13477:13713   */\n    tag_653:\n        /* \"#utility.yul\":13491:13498   */\n      dup3\n        /* \"#utility.yul\":13488:13489   */\n      dup2\n        /* \"#utility.yul\":13485:13499   */\n      lt\n        /* \"#utility.yul\":13477:13713   */\n      iszero\n      tag_655\n      jumpi\n        /* \"#utility.yul\":13580:13599   */\n      dup9\n      dup7\n      add\n        /* \"#utility.yul\":13574:13600   */\n      mload\n        /* \"#utility.yul\":13559:13601   */\n      dup3\n      sstore\n        /* \"#utility.yul\":13672:13699   */\n      swap5\n      dup5\n      add\n      swap5\n        /* \"#utility.yul\":13640:13641   */\n      0x01\n        /* \"#utility.yul\":13628:13642   */\n      swap1\n      swap2\n      add\n      swap1\n        /* \"#utility.yul\":13507:13526   */\n      dup5\n      add\n        /* \"#utility.yul\":13477:13713   */\n      jump(tag_653)\n    tag_655:\n        /* \"#utility.yul\":13481:13484   */\n      pop\n        /* \"#utility.yul\":13741:13747   */\n      dup6\n        /* \"#utility.yul\":13732:13739   */\n      dup3\n        /* \"#utility.yul\":13729:13748   */\n      lt\n        /* \"#utility.yul\":13726:13927   */\n      iszero\n      tag_656\n      jumpi\n        /* \"#utility.yul\":13802:13821   */\n      dup8\n      dup6\n      add\n        /* \"#utility.yul\":13796:13822   */\n      mload\n      not(0x00)\n        /* \"#utility.yul\":13885:13886   */\n      0x03\n        /* \"#utility.yul\":13881:13895   */\n      dup9\n      swap1\n      shl\n        /* \"#utility.yul\":13897:13900   */\n      0xf8\n        /* \"#utility.yul\":13877:13901   */\n      and\n        /* \"#utility.yul\":13873:13910   */\n      shr\n        /* \"#utility.yul\":13869:13911   */\n      not\n        /* \"#utility.yul\":13854:13912   */\n      and\n        /* \"#utility.yul\":13839:13913   */\n      dup2\n      sstore\n        /* \"#utility.yul\":13726:13927   */\n    tag_656:\n      pop\n      pop\n      pop\n      pop\n      pop\n        /* \"#utility.yul\":13973:13974   */\n      0x01\n        /* \"#utility.yul\":13957:13971   */\n      swap1\n      dup2\n      shl\n        /* \"#utility.yul\":13953:13975   */\n      add\n        /* \"#utility.yul\":13940:13976   */\n      swap1\n      sstore\n      pop\n        /* \"#utility.yul\":12902:14243   */\n      jump\t// out\n        /* \"#utility.yul\":15292:15419   */\n    tag_526:\n        /* \"#utility.yul\":15353:15363   */\n      0x4e487b71\n        /* \"#utility.yul\":15348:15351   */\n      0xe0\n        /* \"#utility.yul\":15344:15364   */\n      shl\n        /* \"#utility.yul\":15341:15342   */\n      0x00\n        /* \"#utility.yul\":15334:15365   */\n      mstore\n        /* \"#utility.yul\":15384:15388   */\n      0x11\n        /* \"#utility.yul\":15381:15382   */\n      0x04\n        /* \"#utility.yul\":15374:15389   */\n      mstore\n        /* \"#utility.yul\":15408:15412   */\n      0x24\n        /* \"#utility.yul\":15405:15406   */\n      0x00\n        /* \"#utility.yul\":15398:15413   */\n      revert\n        /* \"#utility.yul\":15424:15552   */\n    tag_343:\n        /* \"#utility.yul\":15491:15500   */\n      dup2\n      dup2\n      sub\n        /* \"#utility.yul\":15512:15523   */\n      dup2\n      dup2\n      gt\n        /* \"#utility.yul\":15509:15546   */\n      iszero\n      tag_256\n      jumpi\n        /* \"#utility.yul\":15526:15544   */\n      tag_256\n      tag_526\n      jump\t// in\n        /* \"#utility.yul\":15557:15917   */\n    tag_349:\n        /* \"#utility.yul\":15768:15774   */\n      dup3\n        /* \"#utility.yul\":15760:15766   */\n      dup5\n        /* \"#utility.yul\":15755:15758   */\n      dup3\n        /* \"#utility.yul\":15742:15775   */\n      calldatacopy\n        /* \"#utility.yul\":15838:15840   */\n      0x60\n        /* \"#utility.yul\":15834:15849   */\n      swap2\n      swap1\n      swap2\n      shl\n      not(0xffffffffffffffffffffffff)\n        /* \"#utility.yul\":15830:15883   */\n      and\n        /* \"#utility.yul\":15794:15810   */\n      swap2\n      add\n        /* \"#utility.yul\":15819:15884   */\n      swap1\n      dup2\n      mstore\n        /* \"#utility.yul\":15908:15910   */\n      0x14\n        /* \"#utility.yul\":15900:15911   */\n      add\n      swap2\n        /* \"#utility.yul\":15557:15917   */\n      swap1\n      pop\n      jump\t// out\n        /* \"#utility.yul\":15922:16420   */\n    tag_363:\n        /* \"#utility.yul\":16122:16126   */\n      0x00\n        /* \"#utility.yul\":16151:16157   */\n      0xffff\n        /* \"#utility.yul\":16196:16198   */\n      dup1\n        /* \"#utility.yul\":16188:16194   */\n      dup9\n        /* \"#utility.yul\":16184:16199   */\n      and\n        /* \"#utility.yul\":16173:16182   */\n      dup4\n        /* \"#utility.yul\":16166:16200   */\n      mstore\n        /* \"#utility.yul\":16248:16250   */\n      dup1\n        /* \"#utility.yul\":16240:16246   */\n      dup8\n        /* \"#utility.yul\":16236:16251   */\n      and\n        /* \"#utility.yul\":16231:16233   */\n      0x20\n        /* \"#utility.yul\":16220:16229   */\n      dup5\n        /* \"#utility.yul\":16216:16234   */\n      add\n        /* \"#utility.yul\":16209:16252   */\n      mstore\n      pop\n        /* \"#utility.yul\":16288:16294   */\n      dup5\n        /* \"#utility.yul\":16283:16285   */\n      0x40\n        /* \"#utility.yul\":16272:16281   */\n      dup4\n        /* \"#utility.yul\":16268:16286   */\n      add\n        /* \"#utility.yul\":16261:16295   */\n      mstore\n        /* \"#utility.yul\":16331:16334   */\n      0x80\n        /* \"#utility.yul\":16326:16328   */\n      0x60\n        /* \"#utility.yul\":16315:16324   */\n      dup4\n        /* \"#utility.yul\":16311:16329   */\n      add\n        /* \"#utility.yul\":16304:16335   */\n      mstore\n        /* \"#utility.yul\":16352:16414   */\n      tag_666\n        /* \"#utility.yul\":16409:16412   */\n      0x80\n        /* \"#utility.yul\":16398:16407   */\n      dup4\n        /* \"#utility.yul\":16394:16413   */\n      add\n        /* \"#utility.yul\":16386:16392   */\n      dup5\n        /* \"#utility.yul\":16378:16384   */\n      dup7\n        /* \"#utility.yul\":16352:16414   */\n      tag_522\n      jump\t// in\n    tag_666:\n        /* \"#utility.yul\":16344:16414   */\n      swap8\n        /* \"#utility.yul\":15922:16420   */\n      swap7\n      pop\n      pop\n      pop\n      pop\n      pop\n      pop\n      pop\n      jump\t// out\n        /* \"#utility.yul\":17231:17724   */\n    tag_379:\n        /* \"#utility.yul\":17480:17486   */\n      0xffff\n        /* \"#utility.yul\":17472:17478   */\n      dup7\n        /* \"#utility.yul\":17468:17487   */\n      and\n        /* \"#utility.yul\":17457:17466   */\n      dup2\n        /* \"#utility.yul\":17450:17488   */\n      mstore\n        /* \"#utility.yul\":17524:17527   */\n      0x80\n        /* \"#utility.yul\":17519:17521   */\n      0x20\n        /* \"#utility.yul\":17508:17517   */\n      dup3\n        /* \"#utility.yul\":17504:17522   */\n      add\n        /* \"#utility.yul\":17497:17528   */\n      mstore\n        /* \"#utility.yul\":17431:17435   */\n      0x00\n        /* \"#utility.yul\":17545:17607   */\n      tag_670\n        /* \"#utility.yul\":17602:17605   */\n      0x80\n        /* \"#utility.yul\":17591:17600   */\n      dup4\n        /* \"#utility.yul\":17587:17606   */\n      add\n        /* \"#utility.yul\":17579:17585   */\n      dup7\n        /* \"#utility.yul\":17571:17577   */\n      dup9\n        /* \"#utility.yul\":17545:17607   */\n      tag_522\n      jump\t// in\n    tag_670:\n      sub(shl(0x40, 0x01), 0x01)\n        /* \"#utility.yul\":17643:17674   */\n      swap5\n      swap1\n      swap5\n      and\n        /* \"#utility.yul\":17638:17640   */\n      0x40\n        /* \"#utility.yul\":17623:17641   */\n      dup4\n      add\n        /* \"#utility.yul\":17616:17675   */\n      mstore\n      pop\n        /* \"#utility.yul\":17706:17708   */\n      0x60\n        /* \"#utility.yul\":17691:17709   */\n      add\n        /* \"#utility.yul\":17684:17718   */\n      mstore\n        /* \"#utility.yul\":17537:17607   */\n      swap4\n        /* \"#utility.yul\":17231:17724   */\n      swap3\n      pop\n      pop\n      pop\n      jump\t// out\n        /* \"#utility.yul\":18092:19286   */\n    tag_390:\n      sub(shl(0x40, 0x01), 0x01)\n        /* \"#utility.yul\":18209:18212   */\n      dup4\n        /* \"#utility.yul\":18206:18233   */\n      gt\n        /* \"#utility.yul\":18203:18256   */\n      iszero\n      tag_674\n      jumpi\n        /* \"#utility.yul\":18236:18254   */\n      tag_674\n      tag_481\n      jump\t// in\n    tag_674:\n        /* \"#utility.yul\":18265:18358   */\n      tag_675\n        /* \"#utility.yul\":18354:18357   */\n      dup4\n        /* \"#utility.yul\":18314:18352   */\n      tag_676\n        /* \"#utility.yul\":18346:18350   */\n      dup4\n        /* \"#utility.yul\":18340:18351   */\n      sload\n        /* \"#utility.yul\":18314:18352   */\n      tag_227\n      jump\t// in\n    tag_676:\n        /* \"#utility.yul\":18308:18312   */\n      dup4\n        /* \"#utility.yul\":18265:18358   */\n      tag_524\n      jump\t// in\n    tag_675:\n        /* \"#utility.yul\":18384:18385   */\n      0x00\n        /* \"#utility.yul\":18409:18411   */\n      0x1f\n        /* \"#utility.yul\":18404:18407   */\n      dup5\n        /* \"#utility.yul\":18401:18412   */\n      gt\n        /* \"#utility.yul\":18426:18427   */\n      0x01\n        /* \"#utility.yul\":18421:19028   */\n      dup2\n      eq\n      tag_678\n      jumpi\n        /* \"#utility.yul\":19072:19073   */\n      0x00\n        /* \"#utility.yul\":19089:19092   */\n      dup6\n        /* \"#utility.yul\":19086:19179   */\n      iszero\n      tag_679\n      jumpi\n      pop\n        /* \"#utility.yul\":19145:19164   */\n      dup4\n      dup3\n      add\n        /* \"#utility.yul\":19132:19165   */\n      calldataload\n        /* \"#utility.yul\":19086:19179   */\n    tag_679:\n      not(0x00)\n        /* \"#utility.yul\":12859:12860   */\n      0x03\n        /* \"#utility.yul\":12855:12866   */\n      dup8\n      swap1\n      shl\n        /* \"#utility.yul\":12851:12875   */\n      shr\n        /* \"#utility.yul\":12847:12876   */\n      not\n        /* \"#utility.yul\":12837:12877   */\n      and\n        /* \"#utility.yul\":12883:12884   */\n      0x01\n        /* \"#utility.yul\":12879:12890   */\n      dup7\n      swap1\n      shl\n        /* \"#utility.yul\":12834:12891   */\n      or\n        /* \"#utility.yul\":19192:19270   */\n      dup4\n      sstore\n        /* \"#utility.yul\":18394:19280   */\n      jump(tag_255)\n        /* \"#utility.yul\":18421:19028   */\n    tag_678:\n        /* \"#utility.yul\":12156:12157   */\n      0x00\n        /* \"#utility.yul\":12149:12163   */\n      dup4\n      dup2\n      mstore\n        /* \"#utility.yul\":12193:12197   */\n      0x20\n        /* \"#utility.yul\":12180:12198   */\n      dup2\n      keccak256\n      not(0x1f)\n        /* \"#utility.yul\":18457:18474   */\n      dup8\n      and\n      swap2\n        /* \"#utility.yul\":18571:18800   */\n    tag_682:\n        /* \"#utility.yul\":18585:18592   */\n      dup3\n        /* \"#utility.yul\":18582:18583   */\n      dup2\n        /* \"#utility.yul\":18579:18593   */\n      lt\n        /* \"#utility.yul\":18571:18800   */\n      iszero\n      tag_684\n      jumpi\n        /* \"#utility.yul\":18674:18693   */\n      dup7\n      dup6\n      add\n        /* \"#utility.yul\":18661:18694   */\n      calldataload\n        /* \"#utility.yul\":18646:18695   */\n      dup3\n      sstore\n        /* \"#utility.yul\":18781:18785   */\n      0x20\n        /* \"#utility.yul\":18766:18786   */\n      swap5\n      dup6\n      add\n      swap5\n        /* \"#utility.yul\":18734:18735   */\n      0x01\n        /* \"#utility.yul\":18722:18736   */\n      swap1\n      swap3\n      add\n      swap2\n        /* \"#utility.yul\":18601:18613   */\n      add\n        /* \"#utility.yul\":18571:18800   */\n      jump(tag_682)\n    tag_684:\n        /* \"#utility.yul\":18575:18578   */\n      pop\n        /* \"#utility.yul\":18828:18831   */\n      dup7\n        /* \"#utility.yul\":18819:18826   */\n      dup3\n        /* \"#utility.yul\":18816:18832   */\n      lt\n        /* \"#utility.yul\":18813:18972   */\n      iszero\n      tag_685\n      jumpi\n        /* \"#utility.yul\":18952:18953   */\n      0x00\n        /* \"#utility.yul\":18948:18954   */\n      not\n        /* \"#utility.yul\":18942:18945   */\n      0xf8\n        /* \"#utility.yul\":18936:18939   */\n      dup9\n        /* \"#utility.yul\":18933:18934   */\n      0x03\n        /* \"#utility.yul\":18929:18940   */\n      shl\n        /* \"#utility.yul\":18925:18946   */\n      and\n        /* \"#utility.yul\":18921:18955   */\n      shr\n        /* \"#utility.yul\":18917:18956   */\n      not\n        /* \"#utility.yul\":18904:18913   */\n      dup5\n        /* \"#utility.yul\":18899:18902   */\n      dup8\n        /* \"#utility.yul\":18895:18914   */\n      add\n        /* \"#utility.yul\":18882:18915   */\n      calldataload\n        /* \"#utility.yul\":18878:18957   */\n      and\n        /* \"#utility.yul\":18870:18876   */\n      dup2\n        /* \"#utility.yul\":18863:18958   */\n      sstore\n        /* \"#utility.yul\":18813:18972   */\n    tag_685:\n      pop\n      pop\n        /* \"#utility.yul\":19015:19016   */\n      0x01\n        /* \"#utility.yul\":19009:19012   */\n      dup6\n        /* \"#utility.yul\":19006:19007   */\n      0x01\n        /* \"#utility.yul\":19002:19013   */\n      shl\n        /* \"#utility.yul\":18998:19017   */\n      add\n        /* \"#utility.yul\":18992:18996   */\n      dup4\n        /* \"#utility.yul\":18985:19018   */\n      sstore\n        /* \"#utility.yul\":18394:19280   */\n      pop\n      pop\n        /* \"#utility.yul\":18092:19286   */\n      pop\n      pop\n      pop\n      jump\t// out\n        /* \"#utility.yul\":19752:20399   */\n    tag_404:\n        /* \"#utility.yul\":19831:19837   */\n      0x00\n        /* \"#utility.yul\":19884:19886   */\n      0x20\n        /* \"#utility.yul\":19872:19881   */\n      dup3\n        /* \"#utility.yul\":19863:19870   */\n      dup5\n        /* \"#utility.yul\":19859:19882   */\n      sub\n        /* \"#utility.yul\":19855:19887   */\n      slt\n        /* \"#utility.yul\":19852:19904   */\n      iszero\n      tag_688\n      jumpi\n        /* \"#utility.yul\":19900:19901   */\n      0x00\n        /* \"#utility.yul\":19897:19898   */\n      dup1\n        /* \"#utility.yul\":19890:19902   */\n      revert\n        /* \"#utility.yul\":19852:19904   */\n    tag_688:\n        /* \"#utility.yul\":19933:19942   */\n      dup2\n        /* \"#utility.yul\":19927:19943   */\n      mload\n      sub(shl(0x40, 0x01), 0x01)\n        /* \"#utility.yul\":19958:19964   */\n      dup2\n        /* \"#utility.yul\":19955:19985   */\n      gt\n        /* \"#utility.yul\":19952:20002   */\n      iszero\n      tag_689\n      jumpi\n        /* \"#utility.yul\":19998:19999   */\n      0x00\n        /* \"#utility.yul\":19995:19996   */\n      dup1\n        /* \"#utility.yul\":19988:20000   */\n      revert\n        /* \"#utility.yul\":19952:20002   */\n    tag_689:\n        /* \"#utility.yul\":20021:20043   */\n      dup3\n      add\n        /* \"#utility.yul\":20074:20078   */\n      0x1f\n        /* \"#utility.yul\":20066:20079   */\n      dup2\n      add\n        /* \"#utility.yul\":20062:20089   */\n      dup5\n      sgt\n        /* \"#utility.yul\":20052:20107   */\n      tag_690\n      jumpi\n        /* \"#utility.yul\":20103:20104   */\n      0x00\n        /* \"#utility.yul\":20100:20101   */\n      dup1\n        /* \"#utility.yul\":20093:20105   */\n      revert\n        /* \"#utility.yul\":20052:20107   */\n    tag_690:\n        /* \"#utility.yul\":20132:20134   */\n      dup1\n        /* \"#utility.yul\":20126:20135   */\n      mload\n        /* \"#utility.yul\":20157:20205   */\n      tag_691\n        /* \"#utility.yul\":20173:20204   */\n      tag_588\n        /* \"#utility.yul\":20201:20203   */\n      dup3\n        /* \"#utility.yul\":20173:20204   */\n      tag_521\n      jump\t// in\n        /* \"#utility.yul\":20157:20205   */\n    tag_691:\n        /* \"#utility.yul\":20228:20230   */\n      dup2\n        /* \"#utility.yul\":20221:20226   */\n      dup2\n        /* \"#utility.yul\":20214:20231   */\n      mstore\n        /* \"#utility.yul\":20268:20275   */\n      dup6\n        /* \"#utility.yul\":20263:20265   */\n      0x20\n        /* \"#utility.yul\":20258:20260   */\n      dup4\n        /* \"#utility.yul\":20254:20256   */\n      dup6\n        /* \"#utility.yul\":20250:20261   */\n      add\n        /* \"#utility.yul\":20246:20266   */\n      add\n        /* \"#utility.yul\":20243:20276   */\n      gt\n        /* \"#utility.yul\":20240:20293   */\n      iszero\n      tag_693\n      jumpi\n        /* \"#utility.yul\":20289:20290   */\n      0x00\n        /* \"#utility.yul\":20286:20287   */\n      dup1\n        /* \"#utility.yul\":20279:20291   */\n      revert\n        /* \"#utility.yul\":20240:20293   */\n    tag_693:\n        /* \"#utility.yul\":20302:20369   */\n      tag_403\n        /* \"#utility.yul\":20366:20368   */\n      dup3\n        /* \"#utility.yul\":20361:20363   */\n      0x20\n        /* \"#utility.yul\":20354:20359   */\n      dup4\n        /* \"#utility.yul\":20350:20364   */\n      add\n        /* \"#utility.yul\":20345:20347   */\n      0x20\n        /* \"#utility.yul\":20341:20343   */\n      dup7\n        /* \"#utility.yul\":20337:20348   */\n      add\n        /* \"#utility.yul\":20302:20369   */\n      tag_517\n      jump\t// in\n        /* \"#utility.yul\":20404:20961   */\n    tag_409:\n        /* \"#utility.yul\":20661:20667   */\n      0xffff\n        /* \"#utility.yul\":20653:20659   */\n      dup6\n        /* \"#utility.yul\":20649:20668   */\n      and\n        /* \"#utility.yul\":20638:20647   */\n      dup2\n        /* \"#utility.yul\":20631:20669   */\n      mstore\n        /* \"#utility.yul\":20705:20708   */\n      0x80\n        /* \"#utility.yul\":20700:20702   */\n      0x20\n        /* \"#utility.yul\":20689:20698   */\n      dup3\n        /* \"#utility.yul\":20685:20703   */\n      add\n        /* \"#utility.yul\":20678:20709   */\n      mstore\n        /* \"#utility.yul\":20612:20616   */\n      0x00\n        /* \"#utility.yul\":20732:20778   */\n      tag_696\n        /* \"#utility.yul\":20773:20776   */\n      0x80\n        /* \"#utility.yul\":20762:20771   */\n      dup4\n        /* \"#utility.yul\":20758:20777   */\n      add\n        /* \"#utility.yul\":20750:20756   */\n      dup7\n        /* \"#utility.yul\":20732:20778   */\n      tag_518\n      jump\t// in\n    tag_696:\n      sub(shl(0x40, 0x01), 0x01)\n        /* \"#utility.yul\":20818:20824   */\n      dup6\n        /* \"#utility.yul\":20814:20845   */\n      and\n        /* \"#utility.yul\":20809:20811   */\n      0x40\n        /* \"#utility.yul\":20798:20807   */\n      dup5\n        /* \"#utility.yul\":20794:20812   */\n      add\n        /* \"#utility.yul\":20787:20846   */\n      mstore\n        /* \"#utility.yul\":20894:20903   */\n      dup3\n        /* \"#utility.yul\":20886:20892   */\n      dup2\n        /* \"#utility.yul\":20882:20904   */\n      sub\n        /* \"#utility.yul\":20877:20879   */\n      0x60\n        /* \"#utility.yul\":20866:20875   */\n      dup5\n        /* \"#utility.yul\":20862:20880   */\n      add\n        /* \"#utility.yul\":20855:20905   */\n      mstore\n        /* \"#utility.yul\":20922:20955   */\n      tag_666\n        /* \"#utility.yul\":20948:20954   */\n      dup2\n        /* \"#utility.yul\":20940:20946   */\n      dup6\n        /* \"#utility.yul\":20922:20955   */\n      tag_518\n      jump\t// in\n        /* \"#utility.yul\":21316:21636   */\n    tag_439:\n        /* \"#utility.yul\":21403:21409   */\n      0x00\n        /* \"#utility.yul\":21411:21417   */\n      dup1\n        /* \"#utility.yul\":21464:21466   */\n      0x40\n        /* \"#utility.yul\":21452:21461   */\n      dup4\n        /* \"#utility.yul\":21443:21450   */\n      dup6\n        /* \"#utility.yul\":21439:21462   */\n      sub\n        /* \"#utility.yul\":21435:21467   */\n      slt\n        /* \"#utility.yul\":21432:21484   */\n      iszero\n      tag_700\n      jumpi\n        /* \"#utility.yul\":21480:21481   */\n      0x00\n        /* \"#utility.yul\":21477:21478   */\n      dup1\n        /* \"#utility.yul\":21470:21482   */\n      revert\n        /* \"#utility.yul\":21432:21484   */\n    tag_700:\n        /* \"#utility.yul\":21512:21521   */\n      dup3\n        /* \"#utility.yul\":21506:21522   */\n      mload\n        /* \"#utility.yul\":21531:21562   */\n      tag_701\n        /* \"#utility.yul\":21556:21561   */\n      dup2\n        /* \"#utility.yul\":21531:21562   */\n      tag_519\n      jump\t// in\n    tag_701:\n        /* \"#utility.yul\":21626:21628   */\n      0x20\n        /* \"#utility.yul\":21611:21629   */\n      swap4\n      swap1\n      swap4\n      add\n        /* \"#utility.yul\":21605:21630   */\n      mload\n        /* \"#utility.yul\":21581:21586   */\n      swap3\n      swap5\n        /* \"#utility.yul\":21605:21630   */\n      swap3\n      swap4\n      pop\n      pop\n      pop\n        /* \"#utility.yul\":21316:21636   */\n      jump\t// out\n        /* \"#utility.yul\":22058:22898   */\n    tag_459:\n        /* \"#utility.yul\":22407:22413   */\n      0xffff\n        /* \"#utility.yul\":22399:22405   */\n      dup8\n        /* \"#utility.yul\":22395:22414   */\n      and\n        /* \"#utility.yul\":22384:22393   */\n      dup2\n        /* \"#utility.yul\":22377:22415   */\n      mstore\n        /* \"#utility.yul\":22451:22454   */\n      0xc0\n        /* \"#utility.yul\":22446:22448   */\n      0x20\n        /* \"#utility.yul\":22435:22444   */\n      dup3\n        /* \"#utility.yul\":22431:22449   */\n      add\n        /* \"#utility.yul\":22424:22455   */\n      mstore\n        /* \"#utility.yul\":22358:22362   */\n      0x00\n        /* \"#utility.yul\":22478:22524   */\n      tag_704\n        /* \"#utility.yul\":22519:22522   */\n      0xc0\n        /* \"#utility.yul\":22508:22517   */\n      dup4\n        /* \"#utility.yul\":22504:22523   */\n      add\n        /* \"#utility.yul\":22496:22502   */\n      dup9\n        /* \"#utility.yul\":22478:22524   */\n      tag_518\n      jump\t// in\n    tag_704:\n        /* \"#utility.yul\":22572:22581   */\n      dup3\n        /* \"#utility.yul\":22564:22570   */\n      dup2\n        /* \"#utility.yul\":22560:22582   */\n      sub\n        /* \"#utility.yul\":22555:22557   */\n      0x40\n        /* \"#utility.yul\":22544:22553   */\n      dup5\n        /* \"#utility.yul\":22540:22558   */\n      add\n        /* \"#utility.yul\":22533:22583   */\n      mstore\n        /* \"#utility.yul\":22606:22639   */\n      tag_705\n        /* \"#utility.yul\":22632:22638   */\n      dup2\n        /* \"#utility.yul\":22624:22630   */\n      dup9\n        /* \"#utility.yul\":22606:22639   */\n      tag_518\n      jump\t// in\n    tag_705:\n      sub(shl(0xa0, 0x01), 0x01)\n        /* \"#utility.yul\":22713:22728   */\n      dup8\n      dup2\n      and\n        /* \"#utility.yul\":22708:22710   */\n      0x60\n        /* \"#utility.yul\":22693:22711   */\n      dup7\n      add\n        /* \"#utility.yul\":22686:22729   */\n      mstore\n        /* \"#utility.yul\":22766:22781   */\n      dup7\n      and\n        /* \"#utility.yul\":22760:22763   */\n      0x80\n        /* \"#utility.yul\":22745:22764   */\n      dup6\n      add\n        /* \"#utility.yul\":22738:22782   */\n      mstore\n        /* \"#utility.yul\":22819:22841   */\n      dup4\n      dup2\n      sub\n        /* \"#utility.yul\":22666:22669   */\n      0xa0\n        /* \"#utility.yul\":22798:22817   */\n      dup6\n      add\n        /* \"#utility.yul\":22791:22842   */\n      mstore\n        /* \"#utility.yul\":22592:22639   */\n      swap1\n      pop\n        /* \"#utility.yul\":22859:22892   */\n      tag_706\n        /* \"#utility.yul\":22592:22639   */\n      dup2\n        /* \"#utility.yul\":22877:22883   */\n      dup6\n        /* \"#utility.yul\":22859:22892   */\n      tag_518\n      jump\t// in\n    tag_706:\n        /* \"#utility.yul\":22851:22892   */\n      swap10\n        /* \"#utility.yul\":22058:22898   */\n      swap9\n      pop\n      pop\n      pop\n      pop\n      pop\n      pop\n      pop\n      pop\n      pop\n      jump\t// out\n        /* \"#utility.yul\":22903:23028   */\n    tag_465:\n        /* \"#utility.yul\":22968:22977   */\n      dup1\n      dup3\n      add\n        /* \"#utility.yul\":22989:22999   */\n      dup1\n      dup3\n      gt\n        /* \"#utility.yul\":22986:23022   */\n      iszero\n      tag_256\n      jumpi\n        /* \"#utility.yul\":23002:23020   */\n      tag_256\n      tag_526\n      jump\t// in\n        /* \"#utility.yul\":23722:24009   */\n    tag_486:\n        /* \"#utility.yul\":23851:23854   */\n      0x00\n        /* \"#utility.yul\":23889:23895   */\n      dup3\n        /* \"#utility.yul\":23883:23896   */\n      mload\n        /* \"#utility.yul\":23905:23971   */\n      tag_713\n        /* \"#utility.yul\":23964:23970   */\n      dup2\n        /* \"#utility.yul\":23959:23962   */\n      dup5\n        /* \"#utility.yul\":23952:23956   */\n      0x20\n        /* \"#utility.yul\":23944:23950   */\n      dup8\n        /* \"#utility.yul\":23940:23957   */\n      add\n        /* \"#utility.yul\":23905:23971   */\n      tag_517\n      jump\t// in\n    tag_713:\n        /* \"#utility.yul\":23987:24003   */\n      swap2\n      swap1\n      swap2\n      add\n      swap3\n        /* \"#utility.yul\":23722:24009   */\n      swap2\n      pop\n      pop\n      jump\t// out\n        /* \"#utility.yul\":24014:24733   */\n    tag_488:\n        /* \"#utility.yul\":24317:24323   */\n      0xffff\n        /* \"#utility.yul\":24309:24315   */\n      dup7\n        /* \"#utility.yul\":24305:24324   */\n      and\n        /* \"#utility.yul\":24294:24303   */\n      dup2\n        /* \"#utility.yul\":24287:24325   */\n      mstore\n        /* \"#utility.yul\":24361:24364   */\n      0xa0\n        /* \"#utility.yul\":24356:24358   */\n      0x20\n        /* \"#utility.yul\":24345:24354   */\n      dup3\n        /* \"#utility.yul\":24341:24359   */\n      add\n        /* \"#utility.yul\":24334:24365   */\n      mstore\n        /* \"#utility.yul\":24268:24272   */\n      0x00\n        /* \"#utility.yul\":24388:24434   */\n      tag_715\n        /* \"#utility.yul\":24429:24432   */\n      0xa0\n        /* \"#utility.yul\":24418:24427   */\n      dup4\n        /* \"#utility.yul\":24414:24433   */\n      add\n        /* \"#utility.yul\":24406:24412   */\n      dup8\n        /* \"#utility.yul\":24388:24434   */\n      tag_518\n      jump\t// in\n    tag_715:\n      sub(shl(0x40, 0x01), 0x01)\n        /* \"#utility.yul\":24474:24480   */\n      dup7\n        /* \"#utility.yul\":24470:24501   */\n      and\n        /* \"#utility.yul\":24465:24467   */\n      0x40\n        /* \"#utility.yul\":24454:24463   */\n      dup5\n        /* \"#utility.yul\":24450:24468   */\n      add\n        /* \"#utility.yul\":24443:24502   */\n      mstore\n        /* \"#utility.yul\":24550:24559   */\n      dup3\n        /* \"#utility.yul\":24542:24548   */\n      dup2\n        /* \"#utility.yul\":24538:24560   */\n      sub\n        /* \"#utility.yul\":24533:24535   */\n      0x60\n        /* \"#utility.yul\":24522:24531   */\n      dup5\n        /* \"#utility.yul\":24518:24536   */\n      add\n        /* \"#utility.yul\":24511:24561   */\n      mstore\n        /* \"#utility.yul\":24584:24617   */\n      tag_716\n        /* \"#utility.yul\":24610:24616   */\n      dup2\n        /* \"#utility.yul\":24602:24608   */\n      dup7\n        /* \"#utility.yul\":24584:24617   */\n      tag_518\n      jump\t// in\n    tag_716:\n        /* \"#utility.yul\":24570:24617   */\n      swap1\n      pop\n        /* \"#utility.yul\":24666:24675   */\n      dup3\n        /* \"#utility.yul\":24658:24664   */\n      dup2\n        /* \"#utility.yul\":24654:24676   */\n      sub\n        /* \"#utility.yul\":24648:24651   */\n      0x80\n        /* \"#utility.yul\":24637:24646   */\n      dup5\n        /* \"#utility.yul\":24633:24652   */\n      add\n        /* \"#utility.yul\":24626:24677   */\n      mstore\n        /* \"#utility.yul\":24694:24727   */\n      tag_717\n        /* \"#utility.yul\":24720:24726   */\n      dup2\n        /* \"#utility.yul\":24712:24718   */\n      dup6\n        /* \"#utility.yul\":24694:24727   */\n      tag_518\n      jump\t// in\n    tag_717:\n        /* \"#utility.yul\":24686:24727   */\n      swap9\n        /* \"#utility.yul\":24014:24733   */\n      swap8\n      pop\n      pop\n      pop\n      pop\n      pop\n      pop\n      pop\n      pop\n      jump\t// out\n\n    auxdata: 0xa2646970667358221220ba3f6f900cef4fb234f1ef21b38005efad2a3cbb70630f0003fed6d23839ca4864736f6c63430008160033\n}\n",
				"bytecode": {
					"linkReferences": {},
					"object": "60a060405234801562000010575f80fd5b5060405162002d9738038062002d9783398101604081905262000033916200032b565b604080518082018252601181527021b937b9b99021b430b4b7102a37b5b2b760791b6020808301919091528251808401909352600383526210d0d560ea1b9083015290828033806200009f57604051631e4fbdf760e01b81525f60048201526024015b60405180910390fd5b620000aa8162000171565b506001600160a01b0316608052506009620000c68382620003f8565b50600a620000d58282620003f8565b5050506001600160a01b03811673ae92d5ad7583ad66e49a0c67bad18f6ba52dddc1036200010d57600b805461ffff19166127891790555b6001600160a01b03811673bfd2135bffbb0b5378b56643c2df8a87552bfa23036200014257600b805461ffff19166127941790555b6200016a33620001556012600a620005d3565b6200016490620f4240620005e3565b620001c0565b5062000613565b5f80546001600160a01b038381166001600160a01b0319831681178455604051919092169283917f8be0079c531659141344cd1fd0a4f28419497f9722a3daafe3b4186f6b6457e09190a35050565b6001600160a01b038216620001eb5760405163ec442f0560e01b81525f600482015260240162000096565b620001f85f8383620001fc565b5050565b6001600160a01b0383166200022a578060085f8282546200021e9190620005fd565b909155506200029c9050565b6001600160a01b0383165f90815260066020526040902054818110156200027e5760405163391434e360e21b81526001600160a01b0385166004820152602481018290526044810183905260640162000096565b6001600160a01b0384165f9081526006602052604090209082900390555b6001600160a01b038216620002ba57600880548290039055620002d8565b6001600160a01b0382165f9081526006602052604090208054820190555b816001600160a01b0316836001600160a01b03167fddf252ad1be2c89b69c2b068fc378daa952ba7f163c4a11628f55a4df523b3ef836040516200031e91815260200190565b60405180910390a3505050565b5f602082840312156200033c575f80fd5b81516001600160a01b038116811462000353575f80fd5b9392505050565b634e487b7160e01b5f52604160045260245ffd5b600181811c908216806200038357607f821691505b602082108103620003a257634e487b7160e01b5f52602260045260245ffd5b50919050565b601f821115620003f357805f5260205f20601f840160051c81016020851015620003cf5750805b601f840160051c820191505b81811015620003f0575f8155600101620003db565b50505b505050565b81516001600160401b038111156200041457620004146200035a565b6200042c816200042584546200036e565b84620003a8565b602080601f83116001811462000462575f84156200044a5750858301515b5f19600386901b1c1916600185901b178555620004bc565b5f85815260208120601f198616915b82811015620004925788860151825594840194600190910190840162000471565b5085821015620004b057878501515f19600388901b60f8161c191681555b505060018460011b0185555b505050505050565b634e487b7160e01b5f52601160045260245ffd5b600181815b808511156200051857815f1904821115620004fc57620004fc620004c4565b808516156200050a57918102915b93841c9390800290620004dd565b509250929050565b5f826200053057506001620005cd565b816200053e57505f620005cd565b8160018114620005575760028114620005625762000582565b6001915050620005cd565b60ff841115620005765762000576620004c4565b50506001821b620005cd565b5060208310610133831016604e8410600b8410161715620005a7575081810a620005cd565b620005b38383620004d8565b805f1904821115620005c957620005c9620004c4565b0290505b92915050565b5f6200035360ff84168362000520565b8082028115828204841417620005cd57620005cd620004c4565b80820180821115620005cd57620005cd620004c4565b60805161273a6200065d5f395f81816105ae015281816106f9015281816109d201528181610a8d01528181610bcf0152818161109801528181611449015261181f015261273a5ff3fe608060405260043610610206575f3560e01c80638cfd8f5c11610113578063baf3292d1161009d578063dd62ed3e1161006d578063dd62ed3e14610636578063df2a5b3b1461067a578063eb8d72b714610699578063f2fde38b146106b8578063f5ecbdbc146106d7575f80fd5b8063baf3292d146105d0578063c4461834146105ef578063cbed8b9c14610604578063d1deba1f14610623575f80fd5b806395d89b41116100e357806395d89b411461052c5780639f38369a14610540578063a6c3d1651461055f578063a9059cbb1461057e578063b353aaa71461059d575f80fd5b80638cfd8f5c146104945780638da5cb5b146104ca57806390fd50b3146104fa578063950c8a741461050d575f80fd5b80633d8b38f6116101945780635cdf1649116101645780635cdf1649146103ef57806366ad5c8a1461040e57806370a082311461042d578063715018a6146104615780637533d78814610475575f80fd5b80633d8b38f6146103395780633f1f4fa41461035857806342d65a8d146103835780635b8c41e6146103a2575f80fd5b80630df37483116101da5780630df37483146102a357806310ddb137146102c257806318160ddd146102e157806323b872dd146102ff578063313ce5671461031e575f80fd5b80621d35671461020a57806306fdde031461022b57806307e0db1714610255578063095ea7b314610274575b5f80fd5b348015610215575f80fd5b50610229610224366004611dcd565b6106f6565b005b348015610236575f80fd5b5061023f610921565b60405161024c9190611ea7565b60405180910390f35b348015610260575f80fd5b5061022961026f366004611eb9565b6109b1565b34801561027f575f80fd5b5061029361028e366004611ee6565b610a35565b604051901515815260200161024c565b3480156102ae575f80fd5b506102296102bd366004611f10565b610a4e565b3480156102cd575f80fd5b506102296102dc366004611eb9565b610a6c565b3480156102ec575f80fd5b506008545b60405190815260200161024c565b34801561030a575f80fd5b50610293610319366004611f2a565b610ac4565b348015610329575f80fd5b506040516012815260200161024c565b348015610344575f80fd5b50610293610353366004611f68565b610ae7565b348015610363575f80fd5b506102f1610372366004611eb9565b60036020525f908152604090205481565b34801561038e575f80fd5b5061022961039d366004611f68565b610bb0565b3480156103ad575f80fd5b506102f16103bc366004612020565b600560209081525f9384526040808520845180860184018051928152908401958401959095209452929052825290205481565b3480156103fa575f80fd5b506102296104093660046120b9565b610c31565b348015610419575f80fd5b50610229610428366004611dcd565b610c92565b348015610438575f80fd5b506102f16104473660046120b9565b6001600160a01b03165f9081526006602052604090205490565b34801561046c575f80fd5b50610229610d6c565b348015610480575f80fd5b5061023f61048f366004611eb9565b610d7f565b34801561049f575f80fd5b506102f16104ae3660046120d4565b600260209081525f928352604080842090915290825290205481565b3480156104d5575f80fd5b505f546001600160a01b03165b6040516001600160a01b03909116815260200161024c565b610229610508366004612105565b610e16565b348015610518575f80fd5b506004546104e2906001600160a01b031681565b348015610537575f80fd5b5061023f610e68565b34801561054b575f80fd5b5061023f61055a366004611eb9565b610e77565b34801561056a575f80fd5b50610229610579366004611f68565b610f88565b348015610589575f80fd5b50610293610598366004611ee6565b611010565b3480156105a8575f80fd5b506104e27f000000000000000000000000000000000000000000000000000000000000000081565b3480156105db575f80fd5b506102296105ea3660046120b9565b61101d565b3480156105fa575f80fd5b506102f161271081565b34801561060f575f80fd5b5061022961061e36600461211c565b611079565b610229610631366004611dcd565b611109565b348015610641575f80fd5b506102f1610650366004612185565b6001600160a01b039182165f90815260076020908152604080832093909416825291909152205490565b348015610685575f80fd5b506102296106943660046121bc565b611319565b3480156106a4575f80fd5b506102296106b3366004611f68565b611382565b3480156106c3575f80fd5b506102296106d23660046120b9565b6113db565b3480156106e2575f80fd5b5061023f6106f13660046121f5565b611418565b337f00000000000000000000000000000000000000000000000000000000000000006001600160a01b0316146107735760405162461bcd60e51b815260206004820152601e60248201527f4c7a4170703a20696e76616c696420656e64706f696e742063616c6c6572000060448201526064015b60405180910390fd5b61ffff86165f90815260016020526040812080546107909061223f565b80601f01602080910402602001604051908101604052809291908181526020018280546107bc9061223f565b80156108075780601f106107de57610100808354040283529160200191610807565b820191905f5260205f20905b8154815290600101906020018083116107ea57829003601f168201915b5050505050905080518686905014801561082157505f8151115b801561084957508051602082012060405161083f9088908890612277565b6040518091039020145b6108a45760405162461bcd60e51b815260206004820152602660248201527f4c7a4170703a20696e76616c696420736f757263652073656e64696e6720636f6044820152651b9d1c9858dd60d21b606482015260840161076a565b6109188787878080601f0160208091040260200160405190810160405280939291908181526020018383808284375f9201919091525050604080516020601f8a018190048102820181019092528881528a9350915088908890819084018382808284375f920191909152506114c592505050565b50505050505050565b6060600980546109309061223f565b80601f016020809104026020016040519081016040528092919081815260200182805461095c9061223f565b80156109a75780601f1061097e576101008083540402835291602001916109a7565b820191905f5260205f20905b81548152906001019060200180831161098a57829003601f168201915b5050505050905090565b6109b961153d565b6040516307e0db1760e01b815261ffff821660048201527f00000000000000000000000000000000000000000000000000000000000000006001600160a01b0316906307e0db17906024015b5f604051808303815f87803b158015610a1c575f80fd5b505af1158015610a2e573d5f803e3d5ffd5b5050505050565b5f33610a42818585611569565b60019150505b92915050565b610a5661153d565b61ffff9091165f90815260036020526040902055565b610a7461153d565b6040516310ddb13760e01b815261ffff821660048201527f00000000000000000000000000000000000000000000000000000000000000006001600160a01b0316906310ddb13790602401610a05565b5f33610ad185828561157b565b610adc8585856115f6565b506001949350505050565b61ffff83165f9081526001602052604081208054829190610b079061223f565b80601f0160208091040260200160405190810160405280929190818152602001828054610b339061223f565b8015610b7e5780601f10610b5557610100808354040283529160200191610b7e565b820191905f5260205f20905b815481529060010190602001808311610b6157829003601f168201915b505050505090508383604051610b95929190612277565b60405180910390208180519060200120149150509392505050565b610bb861153d565b6040516342d65a8d60e01b81526001600160a01b037f000000000000000000000000000000000000000000000000000000000000000016906342d65a8d90610c08908690869086906004016122ae565b5f604051808303815f87803b158015610c1f575f80fd5b505af1158015610918573d5f803e3d5ffd5b610c3961153d565b6040516bffffffffffffffffffffffff19606083811b8216602084015230901b16603482015260480160408051601f19818403018152918152600b5461ffff165f90815260016020522090610c8e908261230f565b5050565b333014610cf05760405162461bcd60e51b815260206004820152602660248201527f4e6f6e626c6f636b696e674c7a4170703a2063616c6c6572206d7573742062656044820152650204c7a4170760d41b606482015260840161076a565b610d648686868080601f0160208091040260200160405190810160405280939291908181526020018383808284375f9201919091525050604080516020601f8901819004810282018101909252878152899350915087908790819084018382808284375f9201919091525061165392505050565b505050505050565b610d7461153d565b610d7d5f611677565b565b60016020525f908152604090208054610d979061223f565b80601f0160208091040260200160405190810160405280929190818152602001828054610dc39061223f565b8015610e0e5780601f10610de557610100808354040283529160200191610e0e565b820191905f5260205f20905b815481529060010190602001808311610df157829003601f168201915b505050505081565b610e2033826116c6565b604080513360208201529081018290525f9060600160408051601f19818403018152600b54602084019092525f808452909350610c8e9261ffff9092169184913391346116fa565b6060600a80546109309061223f565b61ffff81165f90815260016020526040812080546060929190610e999061223f565b80601f0160208091040260200160405190810160405280929190818152602001828054610ec59061223f565b8015610f105780601f10610ee757610100808354040283529160200191610f10565b820191905f5260205f20905b815481529060010190602001808311610ef357829003601f168201915b5050505050905080515f03610f675760405162461bcd60e51b815260206004820152601d60248201527f4c7a4170703a206e6f20747275737465642070617468207265636f7264000000604482015260640161076a565b610f815f60148351610f7991906123de565b839190611897565b9392505050565b610f9061153d565b818130604051602001610fa5939291906123f1565b60408051601f1981840301815291815261ffff85165f90815260016020522090610fcf908261230f565b507f8c0400cfe2d1199b1a725c78960bcc2a344d869b80590d0f2bd005db15a572ce838383604051611003939291906122ae565b60405180910390a1505050565b5f33610a428185856115f6565b61102561153d565b600480546001600160a01b0319166001600160a01b0383169081179091556040519081527f5db758e995a17ec1ad84bdef7e8c3293a0bd6179bcce400dff5d4c3d87db726b9060200160405180910390a150565b61108161153d565b6040516332fb62e760e21b81526001600160a01b037f0000000000000000000000000000000000000000000000000000000000000000169063cbed8b9c906110d59088908890889088908890600401612417565b5f604051808303815f87803b1580156110ec575f80fd5b505af11580156110fe573d5f803e3d5ffd5b505050505050505050565b61ffff86165f90815260056020526040808220905161112b9088908890612277565b90815260408051602092819003830190206001600160401b0387165f90815292529020549050806111aa5760405162461bcd60e51b815260206004820152602360248201527f4e6f6e626c6f636b696e674c7a4170703a206e6f2073746f726564206d65737360448201526261676560e81b606482015260840161076a565b8083836040516111bb929190612277565b60405180910390201461121a5760405162461bcd60e51b815260206004820152602160248201527f4e6f6e626c6f636b696e674c7a4170703a20696e76616c6964207061796c6f616044820152601960fa1b606482015260840161076a565b61ffff87165f90815260056020526040808220905161123c9089908990612277565b90815260408051602092819003830181206001600160401b0389165f90815290845282902093909355601f880182900482028301820190528682526112d191899189908990819084018382808284375f9201919091525050604080516020601f8a018190048102820181019092528881528a9350915088908890819084018382808284375f9201919091525061165392505050565b7fc264d91f3adc5588250e1551f547752ca0cfa8f6b530d243b9f9f4cab10ea8e5878787878560405161130895949392919061244f565b60405180910390a150505050505050565b61132161153d565b61ffff8381165f8181526002602090815260408083209487168084529482529182902085905581519283528201929092529081018290527f9d5c7c0b934da8fefa9c7760c98383778a12dfbfc0c3b3106518f43fb9508ac090606001611003565b61138a61153d565b61ffff83165f9081526001602052604090206113a7828483612489565b507ffa41487ad5d6728f0b19276fa1eddc16558578f5109fc39d2dc33c3230470dab838383604051611003939291906122ae565b6113e361153d565b6001600160a01b03811661140c57604051631e4fbdf760e01b81525f600482015260240161076a565b61141581611677565b50565b604051633d7b2f6f60e21b815261ffff808616600483015284166024820152306044820152606481018290526060907f00000000000000000000000000000000000000000000000000000000000000006001600160a01b03169063f5ecbdbc906084015f60405180830381865afa158015611495573d5f803e3d5ffd5b505050506040513d5f823e601f3d908101601f191682016040526114bc9190810190612542565b95945050505050565b5f806115275a60966366ad5c8a60e01b898989896040516024016114ec94939291906125aa565b60408051601f198184030181529190526020810180516001600160e01b03166001600160e01b031990931692909217909152309291906119a3565b9150915081610d6457610d648686868685611a27565b5f546001600160a01b03163314610d7d5760405163118cdaa760e01b815233600482015260240161076a565b6115768383836001611ac1565b505050565b6001600160a01b038381165f908152600760209081526040808320938616835292905220545f1981146115f057818110156115e257604051637dc7a0d960e11b81526001600160a01b0384166004820152602481018290526044810183905260640161076a565b6115f084848484035f611ac1565b50505050565b6001600160a01b03831661161f57604051634b637e8f60e11b81525f600482015260240161076a565b6001600160a01b0382166116485760405163ec442f0560e01b81525f600482015260240161076a565b611576838383611b93565b5f808280602001905181019061166991906125e7565b91509150610d648282611cb9565b5f80546001600160a01b038381166001600160a01b0319831681178455604051919092169283917f8be0079c531659141344cd1fd0a4f28419497f9722a3daafe3b4186f6b6457e09190a35050565b6001600160a01b0382166116ef57604051634b637e8f60e11b81525f600482015260240161076a565b610c8e825f83611b93565b61ffff86165f90815260016020526040812080546117179061223f565b80601f01602080910402602001604051908101604052809291908181526020018280546117439061223f565b801561178e5780601f106117655761010080835404028352916020019161178e565b820191905f5260205f20905b81548152906001019060200180831161177157829003601f168201915b5050505050905080515f036117fe5760405162461bcd60e51b815260206004820152603060248201527f4c7a4170703a2064657374696e6174696f6e20636861696e206973206e6f742060448201526f61207472757374656420736f7572636560801b606482015260840161076a565b611809878751611ced565b60405162c5803160e81b81526001600160a01b037f0000000000000000000000000000000000000000000000000000000000000000169063c5803100908490611860908b9086908c908c908c908c90600401612613565b5f604051808303818588803b158015611877575f80fd5b505af1158015611889573d5f803e3d5ffd5b505050505050505050505050565b6060816118a581601f612679565b10156118e45760405162461bcd60e51b815260206004820152600e60248201526d736c6963655f6f766572666c6f7760901b604482015260640161076a565b6118ee8284612679565b845110156119325760405162461bcd60e51b8152602060048201526011602482015270736c6963655f6f75744f66426f756e647360781b604482015260640161076a565b6060821580156119505760405191505f82526020820160405261199a565b6040519150601f8416801560200281840101858101878315602002848b0101015b81831015611989578051835260209283019201611971565b5050858452601f01601f1916604052505b50949350505050565b5f60605f805f8661ffff166001600160401b038111156119c5576119c5611fb6565b6040519080825280601f01601f1916602001820160405280156119ef576020820181803683370190505b5090505f808751602089015f8d8df191503d925086831115611a0f578692505b828152825f602083013e909890975095505050505050565b818051906020012060055f8761ffff1661ffff1681526020019081526020015f2085604051611a56919061268c565b9081526040805191829003602090810183206001600160401b0388165f908152915220919091557fe183f33de2837795525b4792ca4cd60535bd77c53b7e7030060bfcf5734d6b0c90611ab290879087908790879087906126a7565b60405180910390a15050505050565b6001600160a01b038416611aea5760405163e602df0560e01b81525f600482015260240161076a565b6001600160a01b038316611b1357604051634a1406b160e11b81525f600482015260240161076a565b6001600160a01b038085165f90815260076020908152604080832093871683529290522082905580156115f057826001600160a01b0316846001600160a01b03167f8c5be1e5ebec7d5bd14f71427d1e84f3dd0314c0f7b2291e5b200ac8c7c3b92584604051611b8591815260200190565b60405180910390a350505050565b6001600160a01b038316611bbd578060085f828254611bb29190612679565b90915550611c2d9050565b6001600160a01b0383165f9081526006602052604090205481811015611c0f5760405163391434e360e21b81526001600160a01b0385166004820152602481018290526044810183905260640161076a565b6001600160a01b0384165f9081526006602052604090209082900390555b6001600160a01b038216611c4957600880548290039055611c67565b6001600160a01b0382165f9081526006602052604090208054820190555b816001600160a01b0316836001600160a01b03167fddf252ad1be2c89b69c2b068fc378daa952ba7f163c4a11628f55a4df523b3ef83604051611cac91815260200190565b60405180910390a3505050565b6001600160a01b038216611ce25760405163ec442f0560e01b81525f600482015260240161076a565b610c8e5f8383611b93565b61ffff82165f9081526003602052604081205490819003611d0d57506127105b808211156115765760405162461bcd60e51b815260206004820181905260248201527f4c7a4170703a207061796c6f61642073697a6520697320746f6f206c61726765604482015260640161076a565b803561ffff81168114611d6e575f80fd5b919050565b5f8083601f840112611d83575f80fd5b5081356001600160401b03811115611d99575f80fd5b602083019150836020828501011115611db0575f80fd5b9250929050565b80356001600160401b0381168114611d6e575f80fd5b5f805f805f8060808789031215611de2575f80fd5b611deb87611d5d565b955060208701356001600160401b0380821115611e06575f80fd5b611e128a838b01611d73565b9097509550859150611e2660408a01611db7565b94506060890135915080821115611e3b575f80fd5b50611e4889828a01611d73565b979a9699509497509295939492505050565b5f5b83811015611e74578181015183820152602001611e5c565b50505f910152565b5f8151808452611e93816020860160208601611e5a565b601f01601f19169290920160200192915050565b602081525f610f816020830184611e7c565b5f60208284031215611ec9575f80fd5b610f8182611d5d565b6001600160a01b0381168114611415575f80fd5b5f8060408385031215611ef7575f80fd5b8235611f0281611ed2565b946020939093013593505050565b5f8060408385031215611f21575f80fd5b611f0283611d5d565b5f805f60608486031215611f3c575f80fd5b8335611f4781611ed2565b92506020840135611f5781611ed2565b929592945050506040919091013590565b5f805f60408486031215611f7a575f80fd5b611f8384611d5d565b925060208401356001600160401b03811115611f9d575f80fd5b611fa986828701611d73565b9497909650939450505050565b634e487b7160e01b5f52604160045260245ffd5b604051601f8201601f191681016001600160401b0381118282101715611ff257611ff2611fb6565b604052919050565b5f6001600160401b0382111561201257612012611fb6565b50601f01601f191660200190565b5f805f60608486031215612032575f80fd5b61203b84611d5d565b925060208401356001600160401b03811115612055575f80fd5b8401601f81018613612065575f80fd5b803561207861207382611ffa565b611fca565b81815287602083850101111561208c575f80fd5b816020840160208301375f602083830101528094505050506120b060408501611db7565b90509250925092565b5f602082840312156120c9575f80fd5b8135610f8181611ed2565b5f80604083850312156120e5575f80fd5b6120ee83611d5d565b91506120fc60208401611d5d565b90509250929050565b5f60208284031215612115575f80fd5b5035919050565b5f805f805f60808688031215612130575f80fd5b61213986611d5d565b945061214760208701611d5d565b93506040860135925060608601356001600160401b03811115612168575f80fd5b61217488828901611d73565b969995985093965092949392505050565b5f8060408385031215612196575f80fd5b82356121a181611ed2565b915060208301356121b181611ed2565b809150509250929050565b5f805f606084860312156121ce575f80fd5b6121d784611d5d565b92506121e560208501611d5d565b9150604084013590509250925092565b5f805f8060808587031215612208575f80fd5b61221185611d5d565b935061221f60208601611d5d565b9250604085013561222f81611ed2565b9396929550929360600135925050565b600181811c9082168061225357607f821691505b60208210810361227157634e487b7160e01b5f52602260045260245ffd5b50919050565b818382375f9101908152919050565b81835281816020850137505f828201602090810191909152601f909101601f19169091010190565b61ffff84168152604060208201525f6114bc604083018486612286565b601f82111561157657805f5260205f20601f840160051c810160208510156122f05750805b601f840160051c820191505b81811015610a2e575f81556001016122fc565b81516001600160401b0381111561232857612328611fb6565b61233c81612336845461223f565b846122cb565b602080601f83116001811461236f575f84156123585750858301515b5f19600386901b1c1916600185901b178555610d64565b5f85815260208120601f198616915b8281101561239d5788860151825594840194600190910190840161237e565b50858210156123ba57878501515f19600388901b60f8161c191681555b5050505050600190811b01905550565b634e487b7160e01b5f52601160045260245ffd5b81810381811115610a4857610a486123ca565b8284823760609190911b6bffffffffffffffffffffffff19169101908152601401919050565b5f61ffff808816835280871660208401525084604083015260806060830152612444608083018486612286565b979650505050505050565b61ffff86168152608060208201525f61246c608083018688612286565b6001600160401b0394909416604083015250606001529392505050565b6001600160401b038311156124a0576124a0611fb6565b6124b4836124ae835461223f565b836122cb565b5f601f8411600181146124e5575f85156124ce5750838201355b5f19600387901b1c1916600186901b178355610a2e565b5f83815260208120601f198716915b8281101561251457868501358255602094850194600190920191016124f4565b5086821015612530575f1960f88860031b161c19848701351681555b505060018560011b0183555050505050565b5f60208284031215612552575f80fd5b81516001600160401b03811115612567575f80fd5b8201601f81018413612577575f80fd5b805161258561207382611ffa565b818152856020838501011115612599575f80fd5b6114bc826020830160208601611e5a565b61ffff85168152608060208201525f6125c66080830186611e7c565b6001600160401b038516604084015282810360608401526124448185611e7c565b5f80604083850312156125f8575f80fd5b825161260381611ed2565b6020939093015192949293505050565b61ffff8716815260c060208201525f61262f60c0830188611e7c565b82810360408401526126418188611e7c565b6001600160a01b0387811660608601528616608085015283810360a0850152905061266c8185611e7c565b9998505050505050505050565b80820180821115610a4857610a486123ca565b5f825161269d818460208701611e5a565b9190910192915050565b61ffff8616815260a060208201525f6126c360a0830187611e7c565b6001600160401b038616604084015282810360608401526126e48186611e7c565b905082810360808401526126f88185611e7c565b9897505050505050505056fea2646970667358221220ba3f6f900cef4fb234f1ef21b38005efad2a3cbb70630f0003fed6d23839ca4864736f6c63430008160033",
					"opcodes": "PUSH1 0xA0 PUSH1 0x40 MSTORE CALLVALUE DUP1 ISZERO PUSH3 0x10 JUMPI PUSH0 DUP1 REVERT JUMPDEST POP PUSH1 0x40 MLOAD PUSH3 0x2D97 CODESIZE SUB DUP1 PUSH3 0x2D97 DUP4 CODECOPY DUP2 ADD PUSH1 0x40 DUP2 SWAP1 MSTORE PUSH3 0x33 SWAP2 PUSH3 0x32B JUMP JUMPDEST PUSH1 0x40 DUP1 MLOAD DUP1 DUP3 ADD DUP3 MSTORE PUSH1 0x11 DUP2 MSTORE PUSH17 0x21B937B9B99021B430B4B7102A37B5B2B7 PUSH1 0x79 SHL PUSH1 0x20 DUP1 DUP4 ADD SWAP2 SWAP1 SWAP2 MSTORE DUP3 MLOAD DUP1 DUP5 ADD SWAP1 SWAP4 MSTORE PUSH1 0x3 DUP4 MSTORE PUSH3 0x10D0D5 PUSH1 0xEA SHL SWAP1 DUP4 ADD MSTORE SWAP1 DUP3 DUP1 CALLER DUP1 PUSH3 0x9F JUMPI PUSH1 0x40 MLOAD PUSH4 0x1E4FBDF7 PUSH1 0xE0 SHL DUP2 MSTORE PUSH0 PUSH1 0x4 DUP3 ADD MSTORE PUSH1 0x24 ADD JUMPDEST PUSH1 0x40 MLOAD DUP1 SWAP2 SUB SWAP1 REVERT JUMPDEST PUSH3 0xAA DUP2 PUSH3 0x171 JUMP JUMPDEST POP PUSH1 0x1 PUSH1 0x1 PUSH1 0xA0 SHL SUB AND PUSH1 0x80 MSTORE POP PUSH1 0x9 PUSH3 0xC6 DUP4 DUP3 PUSH3 0x3F8 JUMP JUMPDEST POP PUSH1 0xA PUSH3 0xD5 DUP3 DUP3 PUSH3 0x3F8 JUMP JUMPDEST POP POP POP PUSH1 0x1 PUSH1 0x1 PUSH1 0xA0 SHL SUB DUP2 AND PUSH20 0xAE92D5AD7583AD66E49A0C67BAD18F6BA52DDDC1 SUB PUSH3 0x10D JUMPI PUSH1 0xB DUP1 SLOAD PUSH2 0xFFFF NOT AND PUSH2 0x2789 OR SWAP1 SSTORE JUMPDEST PUSH1 0x1 PUSH1 0x1 PUSH1 0xA0 SHL SUB DUP2 AND PUSH20 0xBFD2135BFFBB0B5378B56643C2DF8A87552BFA23 SUB PUSH3 0x142 JUMPI PUSH1 0xB DUP1 SLOAD PUSH2 0xFFFF NOT AND PUSH2 0x2794 OR SWAP1 SSTORE JUMPDEST PUSH3 0x16A CALLER PUSH3 0x155 PUSH1 0x12 PUSH1 0xA PUSH3 0x5D3 JUMP JUMPDEST PUSH3 0x164 SWAP1 PUSH3 0xF4240 PUSH3 0x5E3 JUMP JUMPDEST PUSH3 0x1C0 JUMP JUMPDEST POP PUSH3 0x613 JUMP JUMPDEST PUSH0 DUP1 SLOAD PUSH1 0x1 PUSH1 0x1 PUSH1 0xA0 SHL SUB DUP4 DUP2 AND PUSH1 0x1 PUSH1 0x1 PUSH1 0xA0 SHL SUB NOT DUP4 AND DUP2 OR DUP5 SSTORE PUSH1 0x40 MLOAD SWAP2 SWAP1 SWAP3 AND SWAP3 DUP4 SWAP2 PUSH32 0x8BE0079C531659141344CD1FD0A4F28419497F9722A3DAAFE3B4186F6B6457E0 SWAP2 SWAP1 LOG3 POP POP JUMP JUMPDEST PUSH1 0x1 PUSH1 0x1 PUSH1 0xA0 SHL SUB DUP3 AND PUSH3 0x1EB JUMPI PUSH1 0x40 MLOAD PUSH4 0xEC442F05 PUSH1 0xE0 SHL DUP2 MSTORE PUSH0 PUSH1 0x4 DUP3 ADD MSTORE PUSH1 0x24 ADD PUSH3 0x96 JUMP JUMPDEST PUSH3 0x1F8 PUSH0 DUP4 DUP4 PUSH3 0x1FC JUMP JUMPDEST POP POP JUMP JUMPDEST PUSH1 0x1 PUSH1 0x1 PUSH1 0xA0 SHL SUB DUP4 AND PUSH3 0x22A JUMPI DUP1 PUSH1 0x8 PUSH0 DUP3 DUP3 SLOAD PUSH3 0x21E SWAP2 SWAP1 PUSH3 0x5FD JUMP JUMPDEST SWAP1 SWAP2 SSTORE POP PUSH3 0x29C SWAP1 POP JUMP JUMPDEST PUSH1 0x1 PUSH1 0x1 PUSH1 0xA0 SHL SUB DUP4 AND PUSH0 SWAP1 DUP2 MSTORE PUSH1 0x6 PUSH1 0x20 MSTORE PUSH1 0x40 SWAP1 KECCAK256 SLOAD DUP2 DUP2 LT ISZERO PUSH3 0x27E JUMPI PUSH1 0x40 MLOAD PUSH4 0x391434E3 PUSH1 0xE2 SHL DUP2 MSTORE PUSH1 0x1 PUSH1 0x1 PUSH1 0xA0 SHL SUB DUP6 AND PUSH1 0x4 DUP3 ADD MSTORE PUSH1 0x24 DUP2 ADD DUP3 SWAP1 MSTORE PUSH1 0x44 DUP2 ADD DUP4 SWAP1 MSTORE PUSH1 0x64 ADD PUSH3 0x96 JUMP JUMPDEST PUSH1 0x1 PUSH1 0x1 PUSH1 0xA0 SHL SUB DUP5 AND PUSH0 SWAP1 DUP2 MSTORE PUSH1 0x6 PUSH1 0x20 MSTORE PUSH1 0x40 SWAP1 KECCAK256 SWAP1 DUP3 SWAP1 SUB SWAP1 SSTORE JUMPDEST PUSH1 0x1 PUSH1 0x1 PUSH1 0xA0 SHL SUB DUP3 AND PUSH3 0x2BA JUMPI PUSH1 0x8 DUP1 SLOAD DUP3 SWAP1 SUB SWAP1 SSTORE PUSH3 0x2D8 JUMP JUMPDEST PUSH1 0x1 PUSH1 0x1 PUSH1 0xA0 SHL SUB DUP3 AND PUSH0 SWAP1 DUP2 MSTORE PUSH1 0x6 PUSH1 0x20 MSTORE PUSH1 0x40 SWAP1 KECCAK256 DUP1 SLOAD DUP3 ADD SWAP1 SSTORE JUMPDEST DUP2 PUSH1 0x1 PUSH1 0x1 PUSH1 0xA0 SHL SUB AND DUP4 PUSH1 0x1 PUSH1 0x1 PUSH1 0xA0 SHL SUB AND PUSH32 0xDDF252AD1BE2C89B69C2B068FC378DAA952BA7F163C4A11628F55A4DF523B3EF DUP4 PUSH1 0x40 MLOAD PUSH3 0x31E SWAP2 DUP2 MSTORE PUSH1 0x20 ADD SWAP1 JUMP JUMPDEST PUSH1 0x40 MLOAD DUP1 SWAP2 SUB SWAP1 LOG3 POP POP POP JUMP JUMPDEST PUSH0 PUSH1 0x20 DUP3 DUP5 SUB SLT ISZERO PUSH3 0x33C JUMPI PUSH0 DUP1 REVERT JUMPDEST DUP2 MLOAD PUSH1 0x1 PUSH1 0x1 PUSH1 0xA0 SHL SUB DUP2 AND DUP2 EQ PUSH3 0x353 JUMPI PUSH0 DUP1 REVERT JUMPDEST SWAP4 SWAP3 POP POP POP JUMP JUMPDEST PUSH4 0x4E487B71 PUSH1 0xE0 SHL PUSH0 MSTORE PUSH1 0x41 PUSH1 0x4 MSTORE PUSH1 0x24 PUSH0 REVERT JUMPDEST PUSH1 0x1 DUP2 DUP2 SHR SWAP1 DUP3 AND DUP1 PUSH3 0x383 JUMPI PUSH1 0x7F DUP3 AND SWAP2 POP JUMPDEST PUSH1 0x20 DUP3 LT DUP2 SUB PUSH3 0x3A2 JUMPI PUSH4 0x4E487B71 PUSH1 0xE0 SHL PUSH0 MSTORE PUSH1 0x22 PUSH1 0x4 MSTORE PUSH1 0x24 PUSH0 REVERT JUMPDEST POP SWAP2 SWAP1 POP JUMP JUMPDEST PUSH1 0x1F DUP3 GT ISZERO PUSH3 0x3F3 JUMPI DUP1 PUSH0 MSTORE PUSH1 0x20 PUSH0 KECCAK256 PUSH1 0x1F DUP5 ADD PUSH1 0x5 SHR DUP2 ADD PUSH1 0x20 DUP6 LT ISZERO PUSH3 0x3CF JUMPI POP DUP1 JUMPDEST PUSH1 0x1F DUP5 ADD PUSH1 0x5 SHR DUP3 ADD SWAP2 POP JUMPDEST DUP2 DUP2 LT ISZERO PUSH3 0x3F0 JUMPI PUSH0 DUP2 SSTORE PUSH1 0x1 ADD PUSH3 0x3DB JUMP JUMPDEST POP POP JUMPDEST POP POP POP JUMP JUMPDEST DUP2 MLOAD PUSH1 0x1 PUSH1 0x1 PUSH1 0x40 SHL SUB DUP2 GT ISZERO PUSH3 0x414 JUMPI PUSH3 0x414 PUSH3 0x35A JUMP JUMPDEST PUSH3 0x42C DUP2 PUSH3 0x425 DUP5 SLOAD PUSH3 0x36E JUMP JUMPDEST DUP5 PUSH3 0x3A8 JUMP JUMPDEST PUSH1 0x20 DUP1 PUSH1 0x1F DUP4 GT PUSH1 0x1 DUP2 EQ PUSH3 0x462 JUMPI PUSH0 DUP5 ISZERO PUSH3 0x44A JUMPI POP DUP6 DUP4 ADD MLOAD JUMPDEST PUSH0 NOT PUSH1 0x3 DUP7 SWAP1 SHL SHR NOT AND PUSH1 0x1 DUP6 SWAP1 SHL OR DUP6 SSTORE PUSH3 0x4BC JUMP JUMPDEST PUSH0 DUP6 DUP2 MSTORE PUSH1 0x20 DUP2 KECCAK256 PUSH1 0x1F NOT DUP7 AND SWAP2 JUMPDEST DUP3 DUP2 LT ISZERO PUSH3 0x492 JUMPI DUP9 DUP7 ADD MLOAD DUP3 SSTORE SWAP5 DUP5 ADD SWAP5 PUSH1 0x1 SWAP1 SWAP2 ADD SWAP1 DUP5 ADD PUSH3 0x471 JUMP JUMPDEST POP DUP6 DUP3 LT ISZERO PUSH3 0x4B0 JUMPI DUP8 DUP6 ADD MLOAD PUSH0 NOT PUSH1 0x3 DUP9 SWAP1 SHL PUSH1 0xF8 AND SHR NOT AND DUP2 SSTORE JUMPDEST POP POP PUSH1 0x1 DUP5 PUSH1 0x1 SHL ADD DUP6 SSTORE JUMPDEST POP POP POP POP POP POP JUMP JUMPDEST PUSH4 0x4E487B71 PUSH1 0xE0 SHL PUSH0 MSTORE PUSH1 0x11 PUSH1 0x4 MSTORE PUSH1 0x24 PUSH0 REVERT JUMPDEST PUSH1 0x1 DUP2 DUP2 JUMPDEST DUP1 DUP6 GT ISZERO PUSH3 0x518 JUMPI DUP2 PUSH0 NOT DIV DUP3 GT ISZERO PUSH3 0x4FC JUMPI PUSH3 0x4FC PUSH3 0x4C4 JUMP JUMPDEST DUP1 DUP6 AND ISZERO PUSH3 0x50A JUMPI SWAP2 DUP2 MUL SWAP2 JUMPDEST SWAP4 DUP5 SHR SWAP4 SWAP1 DUP1 MUL SWAP1 PUSH3 0x4DD JUMP JUMPDEST POP SWAP3 POP SWAP3 SWAP1 POP JUMP JUMPDEST PUSH0 DUP3 PUSH3 0x530 JUMPI POP PUSH1 0x1 PUSH3 0x5CD JUMP JUMPDEST DUP2 PUSH3 0x53E JUMPI POP PUSH0 PUSH3 0x5CD JUMP JUMPDEST DUP2 PUSH1 0x1 DUP2 EQ PUSH3 0x557 JUMPI PUSH1 0x2 DUP2 EQ PUSH3 0x562 JUMPI PUSH3 0x582 JUMP JUMPDEST PUSH1 0x1 SWAP2 POP POP PUSH3 0x5CD JUMP JUMPDEST PUSH1 0xFF DUP5 GT ISZERO PUSH3 0x576 JUMPI PUSH3 0x576 PUSH3 0x4C4 JUMP JUMPDEST POP POP PUSH1 0x1 DUP3 SHL PUSH3 0x5CD JUMP JUMPDEST POP PUSH1 0x20 DUP4 LT PUSH2 0x133 DUP4 LT AND PUSH1 0x4E DUP5 LT PUSH1 0xB DUP5 LT AND OR ISZERO PUSH3 0x5A7 JUMPI POP DUP2 DUP2 EXP PUSH3 0x5CD JUMP JUMPDEST PUSH3 0x5B3 DUP4 DUP4 PUSH3 0x4D8 JUMP JUMPDEST DUP1 PUSH0 NOT DIV DUP3 GT ISZERO PUSH3 0x5C9 JUMPI PUSH3 0x5C9 PUSH3 0x4C4 JUMP JUMPDEST MUL SWAP1 POP JUMPDEST SWAP3 SWAP2 POP POP JUMP JUMPDEST PUSH0 PUSH3 0x353 PUSH1 0xFF DUP5 AND DUP4 PUSH3 0x520 JUMP JUMPDEST DUP1 DUP3 MUL DUP2 ISZERO DUP3 DUP3 DIV DUP5 EQ OR PUSH3 0x5CD JUMPI PUSH3 0x5CD PUSH3 0x4C4 JUMP JUMPDEST DUP1 DUP3 ADD DUP1 DUP3 GT ISZERO PUSH3 0x5CD JUMPI PUSH3 0x5CD PUSH3 0x4C4 JUMP JUMPDEST PUSH1 0x80 MLOAD PUSH2 0x273A PUSH3 0x65D PUSH0 CODECOPY PUSH0 DUP2 DUP2 PUSH2 0x5AE ADD MSTORE DUP2 DUP2 PUSH2 0x6F9 ADD MSTORE DUP2 DUP2 PUSH2 0x9D2 ADD MSTORE DUP2 DUP2 PUSH2 0xA8D ADD MSTORE DUP2 DUP2 PUSH2 0xBCF ADD MSTORE DUP2 DUP2 PUSH2 0x1098 ADD MSTORE DUP2 DUP2 PUSH2 0x1449 ADD MSTORE PUSH2 0x181F ADD MSTORE PUSH2 0x273A PUSH0 RETURN INVALID PUSH1 0x80 PUSH1 0x40 MSTORE PUSH1 0x4 CALLDATASIZE LT PUSH2 0x206 JUMPI PUSH0 CALLDATALOAD PUSH1 0xE0 SHR DUP1 PUSH4 0x8CFD8F5C GT PUSH2 0x113 JUMPI DUP1 PUSH4 0xBAF3292D GT PUSH2 0x9D JUMPI DUP1 PUSH4 0xDD62ED3E GT PUSH2 0x6D JUMPI DUP1 PUSH4 0xDD62ED3E EQ PUSH2 0x636 JUMPI DUP1 PUSH4 0xDF2A5B3B EQ PUSH2 0x67A JUMPI DUP1 PUSH4 0xEB8D72B7 EQ PUSH2 0x699 JUMPI DUP1 PUSH4 0xF2FDE38B EQ PUSH2 0x6B8 JUMPI DUP1 PUSH4 0xF5ECBDBC EQ PUSH2 0x6D7 JUMPI PUSH0 DUP1 REVERT JUMPDEST DUP1 PUSH4 0xBAF3292D EQ PUSH2 0x5D0 JUMPI DUP1 PUSH4 0xC4461834 EQ PUSH2 0x5EF JUMPI DUP1 PUSH4 0xCBED8B9C EQ PUSH2 0x604 JUMPI DUP1 PUSH4 0xD1DEBA1F EQ PUSH2 0x623 JUMPI PUSH0 DUP1 REVERT JUMPDEST DUP1 PUSH4 0x95D89B41 GT PUSH2 0xE3 JUMPI DUP1 PUSH4 0x95D89B41 EQ PUSH2 0x52C JUMPI DUP1 PUSH4 0x9F38369A EQ PUSH2 0x540 JUMPI DUP1 PUSH4 0xA6C3D165 EQ PUSH2 0x55F JUMPI DUP1 PUSH4 0xA9059CBB EQ PUSH2 0x57E JUMPI DUP1 PUSH4 0xB353AAA7 EQ PUSH2 0x59D JUMPI PUSH0 DUP1 REVERT JUMPDEST DUP1 PUSH4 0x8CFD8F5C EQ PUSH2 0x494 JUMPI DUP1 PUSH4 0x8DA5CB5B EQ PUSH2 0x4CA JUMPI DUP1 PUSH4 0x90FD50B3 EQ PUSH2 0x4FA JUMPI DUP1 PUSH4 0x950C8A74 EQ PUSH2 0x50D JUMPI PUSH0 DUP1 REVERT JUMPDEST DUP1 PUSH4 0x3D8B38F6 GT PUSH2 0x194 JUMPI DUP1 PUSH4 0x5CDF1649 GT PUSH2 0x164 JUMPI DUP1 PUSH4 0x5CDF1649 EQ PUSH2 0x3EF JUMPI DUP1 PUSH4 0x66AD5C8A EQ PUSH2 0x40E JUMPI DUP1 PUSH4 0x70A08231 EQ PUSH2 0x42D JUMPI DUP1 PUSH4 0x715018A6 EQ PUSH2 0x461 JUMPI DUP1 PUSH4 0x7533D788 EQ PUSH2 0x475 JUMPI PUSH0 DUP1 REVERT JUMPDEST DUP1 PUSH4 0x3D8B38F6 EQ PUSH2 0x339 JUMPI DUP1 PUSH4 0x3F1F4FA4 EQ PUSH2 0x358 JUMPI DUP1 PUSH4 0x42D65A8D EQ PUSH2 0x383 JUMPI DUP1 PUSH4 0x5B8C41E6 EQ PUSH2 0x3A2 JUMPI PUSH0 DUP1 REVERT JUMPDEST DUP1 PUSH4 0xDF37483 GT PUSH2 0x1DA JUMPI DUP1 PUSH4 0xDF37483 EQ PUSH2 0x2A3 JUMPI DUP1 PUSH4 0x10DDB137 EQ PUSH2 0x2C2 JUMPI DUP1 PUSH4 0x18160DDD EQ PUSH2 0x2E1 JUMPI DUP1 PUSH4 0x23B872DD EQ PUSH2 0x2FF JUMPI DUP1 PUSH4 0x313CE567 EQ PUSH2 0x31E JUMPI PUSH0 DUP1 REVERT JUMPDEST DUP1 PUSH3 0x1D3567 EQ PUSH2 0x20A JUMPI DUP1 PUSH4 0x6FDDE03 EQ PUSH2 0x22B JUMPI DUP1 PUSH4 0x7E0DB17 EQ PUSH2 0x255 JUMPI DUP1 PUSH4 0x95EA7B3 EQ PUSH2 0x274 JUMPI JUMPDEST PUSH0 DUP1 REVERT JUMPDEST CALLVALUE DUP1 ISZERO PUSH2 0x215 JUMPI PUSH0 DUP1 REVERT JUMPDEST POP PUSH2 0x229 PUSH2 0x224 CALLDATASIZE PUSH1 0x4 PUSH2 0x1DCD JUMP JUMPDEST PUSH2 0x6F6 JUMP JUMPDEST STOP JUMPDEST CALLVALUE DUP1 ISZERO PUSH2 0x236 JUMPI PUSH0 DUP1 REVERT JUMPDEST POP PUSH2 0x23F PUSH2 0x921 JUMP JUMPDEST PUSH1 0x40 MLOAD PUSH2 0x24C SWAP2 SWAP1 PUSH2 0x1EA7 JUMP JUMPDEST PUSH1 0x40 MLOAD DUP1 SWAP2 SUB SWAP1 RETURN JUMPDEST CALLVALUE DUP1 ISZERO PUSH2 0x260 JUMPI PUSH0 DUP1 REVERT JUMPDEST POP PUSH2 0x229 PUSH2 0x26F CALLDATASIZE PUSH1 0x4 PUSH2 0x1EB9 JUMP JUMPDEST PUSH2 0x9B1 JUMP JUMPDEST CALLVALUE DUP1 ISZERO PUSH2 0x27F JUMPI PUSH0 DUP1 REVERT JUMPDEST POP PUSH2 0x293 PUSH2 0x28E CALLDATASIZE PUSH1 0x4 PUSH2 0x1EE6 JUMP JUMPDEST PUSH2 0xA35 JUMP JUMPDEST PUSH1 0x40 MLOAD SWAP1 ISZERO ISZERO DUP2 MSTORE PUSH1 0x20 ADD PUSH2 0x24C JUMP JUMPDEST CALLVALUE DUP1 ISZERO PUSH2 0x2AE JUMPI PUSH0 DUP1 REVERT JUMPDEST POP PUSH2 0x229 PUSH2 0x2BD CALLDATASIZE PUSH1 0x4 PUSH2 0x1F10 JUMP JUMPDEST PUSH2 0xA4E JUMP JUMPDEST CALLVALUE DUP1 ISZERO PUSH2 0x2CD JUMPI PUSH0 DUP1 REVERT JUMPDEST POP PUSH2 0x229 PUSH2 0x2DC CALLDATASIZE PUSH1 0x4 PUSH2 0x1EB9 JUMP JUMPDEST PUSH2 0xA6C JUMP JUMPDEST CALLVALUE DUP1 ISZERO PUSH2 0x2EC JUMPI PUSH0 DUP1 REVERT JUMPDEST POP PUSH1 0x8 SLOAD JUMPDEST PUSH1 0x40 MLOAD SWAP1 DUP2 MSTORE PUSH1 0x20 ADD PUSH2 0x24C JUMP JUMPDEST CALLVALUE DUP1 ISZERO PUSH2 0x30A JUMPI PUSH0 DUP1 REVERT JUMPDEST POP PUSH2 0x293 PUSH2 0x319 CALLDATASIZE PUSH1 0x4 PUSH2 0x1F2A JUMP JUMPDEST PUSH2 0xAC4 JUMP JUMPDEST CALLVALUE DUP1 ISZERO PUSH2 0x329 JUMPI PUSH0 DUP1 REVERT JUMPDEST POP PUSH1 0x40 MLOAD PUSH1 0x12 DUP2 MSTORE PUSH1 0x20 ADD PUSH2 0x24C JUMP JUMPDEST CALLVALUE DUP1 ISZERO PUSH2 0x344 JUMPI PUSH0 DUP1 REVERT JUMPDEST POP PUSH2 0x293 PUSH2 0x353 CALLDATASIZE PUSH1 0x4 PUSH2 0x1F68 JUMP JUMPDEST PUSH2 0xAE7 JUMP JUMPDEST CALLVALUE DUP1 ISZERO PUSH2 0x363 JUMPI PUSH0 DUP1 REVERT JUMPDEST POP PUSH2 0x2F1 PUSH2 0x372 CALLDATASIZE PUSH1 0x4 PUSH2 0x1EB9 JUMP JUMPDEST PUSH1 0x3 PUSH1 0x20 MSTORE PUSH0 SWAP1 DUP2 MSTORE PUSH1 0x40 SWAP1 KECCAK256 SLOAD DUP2 JUMP JUMPDEST CALLVALUE DUP1 ISZERO PUSH2 0x38E JUMPI PUSH0 DUP1 REVERT JUMPDEST POP PUSH2 0x229 PUSH2 0x39D CALLDATASIZE PUSH1 0x4 PUSH2 0x1F68 JUMP JUMPDEST PUSH2 0xBB0 JUMP JUMPDEST CALLVALUE DUP1 ISZERO PUSH2 0x3AD JUMPI PUSH0 DUP1 REVERT JUMPDEST POP PUSH2 0x2F1 PUSH2 0x3BC CALLDATASIZE PUSH1 0x4 PUSH2 0x2020 JUMP JUMPDEST PUSH1 0x5 PUSH1 0x20 SWAP1 DUP2 MSTORE PUSH0 SWAP4 DUP5 MSTORE PUSH1 0x40 DUP1 DUP6 KECCAK256 DUP5 MLOAD DUP1 DUP7 ADD DUP5 ADD DUP1 MLOAD SWAP3 DUP2 MSTORE SWAP1 DUP5 ADD SWAP6 DUP5 ADD SWAP6 SWAP1 SWAP6 KECCAK256 SWAP5 MSTORE SWAP3 SWAP1 MSTORE DUP3 MSTORE SWAP1 KECCAK256 SLOAD DUP2 JUMP JUMPDEST CALLVALUE DUP1 ISZERO PUSH2 0x3FA JUMPI PUSH0 DUP1 REVERT JUMPDEST POP PUSH2 0x229 PUSH2 0x409 CALLDATASIZE PUSH1 0x4 PUSH2 0x20B9 JUMP JUMPDEST PUSH2 0xC31 JUMP JUMPDEST CALLVALUE DUP1 ISZERO PUSH2 0x419 JUMPI PUSH0 DUP1 REVERT JUMPDEST POP PUSH2 0x229 PUSH2 0x428 CALLDATASIZE PUSH1 0x4 PUSH2 0x1DCD JUMP JUMPDEST PUSH2 0xC92 JUMP JUMPDEST CALLVALUE DUP1 ISZERO PUSH2 0x438 JUMPI PUSH0 DUP1 REVERT JUMPDEST POP PUSH2 0x2F1 PUSH2 0x447 CALLDATASIZE PUSH1 0x4 PUSH2 0x20B9 JUMP JUMPDEST PUSH1 0x1 PUSH1 0x1 PUSH1 0xA0 SHL SUB AND PUSH0 SWAP1 DUP2 MSTORE PUSH1 0x6 PUSH1 0x20 MSTORE PUSH1 0x40 SWAP1 KECCAK256 SLOAD SWAP1 JUMP JUMPDEST CALLVALUE DUP1 ISZERO PUSH2 0x46C JUMPI PUSH0 DUP1 REVERT JUMPDEST POP PUSH2 0x229 PUSH2 0xD6C JUMP JUMPDEST CALLVALUE DUP1 ISZERO PUSH2 0x480 JUMPI PUSH0 DUP1 REVERT JUMPDEST POP PUSH2 0x23F PUSH2 0x48F CALLDATASIZE PUSH1 0x4 PUSH2 0x1EB9 JUMP JUMPDEST PUSH2 0xD7F JUMP JUMPDEST CALLVALUE DUP1 ISZERO PUSH2 0x49F JUMPI PUSH0 DUP1 REVERT JUMPDEST POP PUSH2 0x2F1 PUSH2 0x4AE CALLDATASIZE PUSH1 0x4 PUSH2 0x20D4 JUMP JUMPDEST PUSH1 0x2 PUSH1 0x20 SWAP1 DUP2 MSTORE PUSH0 SWAP3 DUP4 MSTORE PUSH1 0x40 DUP1 DUP5 KECCAK256 SWAP1 SWAP2 MSTORE SWAP1 DUP3 MSTORE SWAP1 KECCAK256 SLOAD DUP2 JUMP JUMPDEST CALLVALUE DUP1 ISZERO PUSH2 0x4D5 JUMPI PUSH0 DUP1 REVERT JUMPDEST POP PUSH0 SLOAD PUSH1 0x1 PUSH1 0x1 PUSH1 0xA0 SHL SUB AND JUMPDEST PUSH1 0x40 MLOAD PUSH1 0x1 PUSH1 0x1 PUSH1 0xA0 SHL SUB SWAP1 SWAP2 AND DUP2 MSTORE PUSH1 0x20 ADD PUSH2 0x24C JUMP JUMPDEST PUSH2 0x229 PUSH2 0x508 CALLDATASIZE PUSH1 0x4 PUSH2 0x2105 JUMP JUMPDEST PUSH2 0xE16 JUMP JUMPDEST CALLVALUE DUP1 ISZERO PUSH2 0x518 JUMPI PUSH0 DUP1 REVERT JUMPDEST POP PUSH1 0x4 SLOAD PUSH2 0x4E2 SWAP1 PUSH1 0x1 PUSH1 0x1 PUSH1 0xA0 SHL SUB AND DUP2 JUMP JUMPDEST CALLVALUE DUP1 ISZERO PUSH2 0x537 JUMPI PUSH0 DUP1 REVERT JUMPDEST POP PUSH2 0x23F PUSH2 0xE68 JUMP JUMPDEST CALLVALUE DUP1 ISZERO PUSH2 0x54B JUMPI PUSH0 DUP1 REVERT JUMPDEST POP PUSH2 0x23F PUSH2 0x55A CALLDATASIZE PUSH1 0x4 PUSH2 0x1EB9 JUMP JUMPDEST PUSH2 0xE77 JUMP JUMPDEST CALLVALUE DUP1 ISZERO PUSH2 0x56A JUMPI PUSH0 DUP1 REVERT JUMPDEST POP PUSH2 0x229 PUSH2 0x579 CALLDATASIZE PUSH1 0x4 PUSH2 0x1F68 JUMP JUMPDEST PUSH2 0xF88 JUMP JUMPDEST CALLVALUE DUP1 ISZERO PUSH2 0x589 JUMPI PUSH0 DUP1 REVERT JUMPDEST POP PUSH2 0x293 PUSH2 0x598 CALLDATASIZE PUSH1 0x4 PUSH2 0x1EE6 JUMP JUMPDEST PUSH2 0x1010 JUMP JUMPDEST CALLVALUE DUP1 ISZERO PUSH2 0x5A8 JUMPI PUSH0 DUP1 REVERT JUMPDEST POP PUSH2 0x4E2 PUSH32 0x0 DUP2 JUMP JUMPDEST CALLVALUE DUP1 ISZERO PUSH2 0x5DB JUMPI PUSH0 DUP1 REVERT JUMPDEST POP PUSH2 0x229 PUSH2 0x5EA CALLDATASIZE PUSH1 0x4 PUSH2 0x20B9 JUMP JUMPDEST PUSH2 0x101D JUMP JUMPDEST CALLVALUE DUP1 ISZERO PUSH2 0x5FA JUMPI PUSH0 DUP1 REVERT JUMPDEST POP PUSH2 0x2F1 PUSH2 0x2710 DUP2 JUMP JUMPDEST CALLVALUE DUP1 ISZERO PUSH2 0x60F JUMPI PUSH0 DUP1 REVERT JUMPDEST POP PUSH2 0x229 PUSH2 0x61E CALLDATASIZE PUSH1 0x4 PUSH2 0x211C JUMP JUMPDEST PUSH2 0x1079 JUMP JUMPDEST PUSH2 0x229 PUSH2 0x631 CALLDATASIZE PUSH1 0x4 PUSH2 0x1DCD JUMP JUMPDEST PUSH2 0x1109 JUMP JUMPDEST CALLVALUE DUP1 ISZERO PUSH2 0x641 JUMPI PUSH0 DUP1 REVERT JUMPDEST POP PUSH2 0x2F1 PUSH2 0x650 CALLDATASIZE PUSH1 0x4 PUSH2 0x2185 JUMP JUMPDEST PUSH1 0x1 PUSH1 0x1 PUSH1 0xA0 SHL SUB SWAP2 DUP3 AND PUSH0 SWAP1 DUP2 MSTORE PUSH1 0x7 PUSH1 0x20 SWAP1 DUP2 MSTORE PUSH1 0x40 DUP1 DUP4 KECCAK256 SWAP4 SWAP1 SWAP5 AND DUP3 MSTORE SWAP2 SWAP1 SWAP2 MSTORE KECCAK256 SLOAD SWAP1 JUMP JUMPDEST CALLVALUE DUP1 ISZERO PUSH2 0x685 JUMPI PUSH0 DUP1 REVERT JUMPDEST POP PUSH2 0x229 PUSH2 0x694 CALLDATASIZE PUSH1 0x4 PUSH2 0x21BC JUMP JUMPDEST PUSH2 0x1319 JUMP JUMPDEST CALLVALUE DUP1 ISZERO PUSH2 0x6A4 JUMPI PUSH0 DUP1 REVERT JUMPDEST POP PUSH2 0x229 PUSH2 0x6B3 CALLDATASIZE PUSH1 0x4 PUSH2 0x1F68 JUMP JUMPDEST PUSH2 0x1382 JUMP JUMPDEST CALLVALUE DUP1 ISZERO PUSH2 0x6C3 JUMPI PUSH0 DUP1 REVERT JUMPDEST POP PUSH2 0x229 PUSH2 0x6D2 CALLDATASIZE PUSH1 0x4 PUSH2 0x20B9 JUMP JUMPDEST PUSH2 0x13DB JUMP JUMPDEST CALLVALUE DUP1 ISZERO PUSH2 0x6E2 JUMPI PUSH0 DUP1 REVERT JUMPDEST POP PUSH2 0x23F PUSH2 0x6F1 CALLDATASIZE PUSH1 0x4 PUSH2 0x21F5 JUMP JUMPDEST PUSH2 0x1418 JUMP JUMPDEST CALLER PUSH32 0x0 PUSH1 0x1 PUSH1 0x1 PUSH1 0xA0 SHL SUB AND EQ PUSH2 0x773 JUMPI PUSH1 0x40 MLOAD PUSH3 0x461BCD PUSH1 0xE5 SHL DUP2 MSTORE PUSH1 0x20 PUSH1 0x4 DUP3 ADD MSTORE PUSH1 0x1E PUSH1 0x24 DUP3 ADD MSTORE PUSH32 0x4C7A4170703A20696E76616C696420656E64706F696E742063616C6C65720000 PUSH1 0x44 DUP3 ADD MSTORE PUSH1 0x64 ADD JUMPDEST PUSH1 0x40 MLOAD DUP1 SWAP2 SUB SWAP1 REVERT JUMPDEST PUSH2 0xFFFF DUP7 AND PUSH0 SWAP1 DUP2 MSTORE PUSH1 0x1 PUSH1 0x20 MSTORE PUSH1 0x40 DUP2 KECCAK256 DUP1 SLOAD PUSH2 0x790 SWAP1 PUSH2 0x223F JUMP JUMPDEST DUP1 PUSH1 0x1F ADD PUSH1 0x20 DUP1 SWAP2 DIV MUL PUSH1 0x20 ADD PUSH1 0x40 MLOAD SWAP1 DUP2 ADD PUSH1 0x40 MSTORE DUP1 SWAP3 SWAP2 SWAP1 DUP2 DUP2 MSTORE PUSH1 0x20 ADD DUP3 DUP1 SLOAD PUSH2 0x7BC SWAP1 PUSH2 0x223F JUMP JUMPDEST DUP1 ISZERO PUSH2 0x807 JUMPI DUP1 PUSH1 0x1F LT PUSH2 0x7DE JUMPI PUSH2 0x100 DUP1 DUP4 SLOAD DIV MUL DUP4 MSTORE SWAP2 PUSH1 0x20 ADD SWAP2 PUSH2 0x807 JUMP JUMPDEST DUP3 ADD SWAP2 SWAP1 PUSH0 MSTORE PUSH1 0x20 PUSH0 KECCAK256 SWAP1 JUMPDEST DUP2 SLOAD DUP2 MSTORE SWAP1 PUSH1 0x1 ADD SWAP1 PUSH1 0x20 ADD DUP1 DUP4 GT PUSH2 0x7EA JUMPI DUP3 SWAP1 SUB PUSH1 0x1F AND DUP3 ADD SWAP2 JUMPDEST POP POP POP POP POP SWAP1 POP DUP1 MLOAD DUP7 DUP7 SWAP1 POP EQ DUP1 ISZERO PUSH2 0x821 JUMPI POP PUSH0 DUP2 MLOAD GT JUMPDEST DUP1 ISZERO PUSH2 0x849 JUMPI POP DUP1 MLOAD PUSH1 0x20 DUP3 ADD KECCAK256 PUSH1 0x40 MLOAD PUSH2 0x83F SWAP1 DUP9 SWAP1 DUP9 SWAP1 PUSH2 0x2277 JUMP JUMPDEST PUSH1 0x40 MLOAD DUP1 SWAP2 SUB SWAP1 KECCAK256 EQ JUMPDEST PUSH2 0x8A4 JUMPI PUSH1 0x40 MLOAD PUSH3 0x461BCD PUSH1 0xE5 SHL DUP2 MSTORE PUSH1 0x20 PUSH1 0x4 DUP3 ADD MSTORE PUSH1 0x26 PUSH1 0x24 DUP3 ADD MSTORE PUSH32 0x4C7A4170703A20696E76616C696420736F757263652073656E64696E6720636F PUSH1 0x44 DUP3 ADD MSTORE PUSH6 0x1B9D1C9858DD PUSH1 0xD2 SHL PUSH1 0x64 DUP3 ADD MSTORE PUSH1 0x84 ADD PUSH2 0x76A JUMP JUMPDEST PUSH2 0x918 DUP8 DUP8 DUP8 DUP1 DUP1 PUSH1 0x1F ADD PUSH1 0x20 DUP1 SWAP2 DIV MUL PUSH1 0x20 ADD PUSH1 0x40 MLOAD SWAP1 DUP2 ADD PUSH1 0x40 MSTORE DUP1 SWAP4 SWAP3 SWAP2 SWAP1 DUP2 DUP2 MSTORE PUSH1 0x20 ADD DUP4 DUP4 DUP1 DUP3 DUP5 CALLDATACOPY PUSH0 SWAP3 ADD SWAP2 SWAP1 SWAP2 MSTORE POP POP PUSH1 0x40 DUP1 MLOAD PUSH1 0x20 PUSH1 0x1F DUP11 ADD DUP2 SWAP1 DIV DUP2 MUL DUP3 ADD DUP2 ADD SWAP1 SWAP3 MSTORE DUP9 DUP2 MSTORE DUP11 SWAP4 POP SWAP2 POP DUP9 SWAP1 DUP9 SWAP1 DUP2 SWAP1 DUP5 ADD DUP4 DUP3 DUP1 DUP3 DUP5 CALLDATACOPY PUSH0 SWAP3 ADD SWAP2 SWAP1 SWAP2 MSTORE POP PUSH2 0x14C5 SWAP3 POP POP POP JUMP JUMPDEST POP POP POP POP POP POP POP JUMP JUMPDEST PUSH1 0x60 PUSH1 0x9 DUP1 SLOAD PUSH2 0x930 SWAP1 PUSH2 0x223F JUMP JUMPDEST DUP1 PUSH1 0x1F ADD PUSH1 0x20 DUP1 SWAP2 DIV MUL PUSH1 0x20 ADD PUSH1 0x40 MLOAD SWAP1 DUP2 ADD PUSH1 0x40 MSTORE DUP1 SWAP3 SWAP2 SWAP1 DUP2 DUP2 MSTORE PUSH1 0x20 ADD DUP3 DUP1 SLOAD PUSH2 0x95C SWAP1 PUSH2 0x223F JUMP JUMPDEST DUP1 ISZERO PUSH2 0x9A7 JUMPI DUP1 PUSH1 0x1F LT PUSH2 0x97E JUMPI PUSH2 0x100 DUP1 DUP4 SLOAD DIV MUL DUP4 MSTORE SWAP2 PUSH1 0x20 ADD SWAP2 PUSH2 0x9A7 JUMP JUMPDEST DUP3 ADD SWAP2 SWAP1 PUSH0 MSTORE PUSH1 0x20 PUSH0 KECCAK256 SWAP1 JUMPDEST DUP2 SLOAD DUP2 MSTORE SWAP1 PUSH1 0x1 ADD SWAP1 PUSH1 0x20 ADD DUP1 DUP4 GT PUSH2 0x98A JUMPI DUP3 SWAP1 SUB PUSH1 0x1F AND DUP3 ADD SWAP2 JUMPDEST POP POP POP POP POP SWAP1 POP SWAP1 JUMP JUMPDEST PUSH2 0x9B9 PUSH2 0x153D JUMP JUMPDEST PUSH1 0x40 MLOAD PUSH4 0x7E0DB17 PUSH1 0xE0 SHL DUP2 MSTORE PUSH2 0xFFFF DUP3 AND PUSH1 0x4 DUP3 ADD MSTORE PUSH32 0x0 PUSH1 0x1 PUSH1 0x1 PUSH1 0xA0 SHL SUB AND SWAP1 PUSH4 0x7E0DB17 SWAP1 PUSH1 0x24 ADD JUMPDEST PUSH0 PUSH1 0x40 MLOAD DUP1 DUP4 SUB DUP2 PUSH0 DUP8 DUP1 EXTCODESIZE ISZERO DUP1 ISZERO PUSH2 0xA1C JUMPI PUSH0 DUP1 REVERT JUMPDEST POP GAS CALL ISZERO DUP1 ISZERO PUSH2 0xA2E JUMPI RETURNDATASIZE PUSH0 DUP1 RETURNDATACOPY RETURNDATASIZE PUSH0 REVERT JUMPDEST POP POP POP POP POP JUMP JUMPDEST PUSH0 CALLER PUSH2 0xA42 DUP2 DUP6 DUP6 PUSH2 0x1569 JUMP JUMPDEST PUSH1 0x1 SWAP2 POP POP JUMPDEST SWAP3 SWAP2 POP POP JUMP JUMPDEST PUSH2 0xA56 PUSH2 0x153D JUMP JUMPDEST PUSH2 0xFFFF SWAP1 SWAP2 AND PUSH0 SWAP1 DUP2 MSTORE PUSH1 0x3 PUSH1 0x20 MSTORE PUSH1 0x40 SWAP1 KECCAK256 SSTORE JUMP JUMPDEST PUSH2 0xA74 PUSH2 0x153D JUMP JUMPDEST PUSH1 0x40 MLOAD PUSH4 0x10DDB137 PUSH1 0xE0 SHL DUP2 MSTORE PUSH2 0xFFFF DUP3 AND PUSH1 0x4 DUP3 ADD MSTORE PUSH32 0x0 PUSH1 0x1 PUSH1 0x1 PUSH1 0xA0 SHL SUB AND SWAP1 PUSH4 0x10DDB137 SWAP1 PUSH1 0x24 ADD PUSH2 0xA05 JUMP JUMPDEST PUSH0 CALLER PUSH2 0xAD1 DUP6 DUP3 DUP6 PUSH2 0x157B JUMP JUMPDEST PUSH2 0xADC DUP6 DUP6 DUP6 PUSH2 0x15F6 JUMP JUMPDEST POP PUSH1 0x1 SWAP5 SWAP4 POP POP POP POP JUMP JUMPDEST PUSH2 0xFFFF DUP4 AND PUSH0 SWAP1 DUP2 MSTORE PUSH1 0x1 PUSH1 0x20 MSTORE PUSH1 0x40 DUP2 KECCAK256 DUP1 SLOAD DUP3 SWAP2 SWAP1 PUSH2 0xB07 SWAP1 PUSH2 0x223F JUMP JUMPDEST DUP1 PUSH1 0x1F ADD PUSH1 0x20 DUP1 SWAP2 DIV MUL PUSH1 0x20 ADD PUSH1 0x40 MLOAD SWAP1 DUP2 ADD PUSH1 0x40 MSTORE DUP1 SWAP3 SWAP2 SWAP1 DUP2 DUP2 MSTORE PUSH1 0x20 ADD DUP3 DUP1 SLOAD PUSH2 0xB33 SWAP1 PUSH2 0x223F JUMP JUMPDEST DUP1 ISZERO PUSH2 0xB7E JUMPI DUP1 PUSH1 0x1F LT PUSH2 0xB55 JUMPI PUSH2 0x100 DUP1 DUP4 SLOAD DIV MUL DUP4 MSTORE SWAP2 PUSH1 0x20 ADD SWAP2 PUSH2 0xB7E JUMP JUMPDEST DUP3 ADD SWAP2 SWAP1 PUSH0 MSTORE PUSH1 0x20 PUSH0 KECCAK256 SWAP1 JUMPDEST DUP2 SLOAD DUP2 MSTORE SWAP1 PUSH1 0x1 ADD SWAP1 PUSH1 0x20 ADD DUP1 DUP4 GT PUSH2 0xB61 JUMPI DUP3 SWAP1 SUB PUSH1 0x1F AND DUP3 ADD SWAP2 JUMPDEST POP POP POP POP POP SWAP1 POP DUP4 DUP4 PUSH1 0x40 MLOAD PUSH2 0xB95 SWAP3 SWAP2 SWAP1 PUSH2 0x2277 JUMP JUMPDEST PUSH1 0x40 MLOAD DUP1 SWAP2 SUB SWAP1 KECCAK256 DUP2 DUP1 MLOAD SWAP1 PUSH1 0x20 ADD KECCAK256 EQ SWAP2 POP POP SWAP4 SWAP3 POP POP POP JUMP JUMPDEST PUSH2 0xBB8 PUSH2 0x153D JUMP JUMPDEST PUSH1 0x40 MLOAD PUSH4 0x42D65A8D PUSH1 0xE0 SHL DUP2 MSTORE PUSH1 0x1 PUSH1 0x1 PUSH1 0xA0 SHL SUB PUSH32 0x0 AND SWAP1 PUSH4 0x42D65A8D SWAP1 PUSH2 0xC08 SWAP1 DUP7 SWAP1 DUP7 SWAP1 DUP7 SWAP1 PUSH1 0x4 ADD PUSH2 0x22AE JUMP JUMPDEST PUSH0 PUSH1 0x40 MLOAD DUP1 DUP4 SUB DUP2 PUSH0 DUP8 DUP1 EXTCODESIZE ISZERO DUP1 ISZERO PUSH2 0xC1F JUMPI PUSH0 DUP1 REVERT JUMPDEST POP GAS CALL ISZERO DUP1 ISZERO PUSH2 0x918 JUMPI RETURNDATASIZE PUSH0 DUP1 RETURNDATACOPY RETURNDATASIZE PUSH0 REVERT JUMPDEST PUSH2 0xC39 PUSH2 0x153D JUMP JUMPDEST PUSH1 0x40 MLOAD PUSH12 0xFFFFFFFFFFFFFFFFFFFFFFFF NOT PUSH1 0x60 DUP4 DUP2 SHL DUP3 AND PUSH1 0x20 DUP5 ADD MSTORE ADDRESS SWAP1 SHL AND PUSH1 0x34 DUP3 ADD MSTORE PUSH1 0x48 ADD PUSH1 0x40 DUP1 MLOAD PUSH1 0x1F NOT DUP2 DUP5 SUB ADD DUP2 MSTORE SWAP2 DUP2 MSTORE PUSH1 0xB SLOAD PUSH2 0xFFFF AND PUSH0 SWAP1 DUP2 MSTORE PUSH1 0x1 PUSH1 0x20 MSTORE KECCAK256 SWAP1 PUSH2 0xC8E SWAP1 DUP3 PUSH2 0x230F JUMP JUMPDEST POP POP JUMP JUMPDEST CALLER ADDRESS EQ PUSH2 0xCF0 JUMPI PUSH1 0x40 MLOAD PUSH3 0x461BCD PUSH1 0xE5 SHL DUP2 MSTORE PUSH1 0x20 PUSH1 0x4 DUP3 ADD MSTORE PUSH1 0x26 PUSH1 0x24 DUP3 ADD MSTORE PUSH32 0x4E6F6E626C6F636B696E674C7A4170703A2063616C6C6572206D757374206265 PUSH1 0x44 DUP3 ADD MSTORE PUSH6 0x204C7A41707 PUSH1 0xD4 SHL PUSH1 0x64 DUP3 ADD MSTORE PUSH1 0x84 ADD PUSH2 0x76A JUMP JUMPDEST PUSH2 0xD64 DUP7 DUP7 DUP7 DUP1 DUP1 PUSH1 0x1F ADD PUSH1 0x20 DUP1 SWAP2 DIV MUL PUSH1 0x20 ADD PUSH1 0x40 MLOAD SWAP1 DUP2 ADD PUSH1 0x40 MSTORE DUP1 SWAP4 SWAP3 SWAP2 SWAP1 DUP2 DUP2 MSTORE PUSH1 0x20 ADD DUP4 DUP4 DUP1 DUP3 DUP5 CALLDATACOPY PUSH0 SWAP3 ADD SWAP2 SWAP1 SWAP2 MSTORE POP POP PUSH1 0x40 DUP1 MLOAD PUSH1 0x20 PUSH1 0x1F DUP10 ADD DUP2 SWAP1 DIV DUP2 MUL DUP3 ADD DUP2 ADD SWAP1 SWAP3 MSTORE DUP8 DUP2 MSTORE DUP10 SWAP4 POP SWAP2 POP DUP8 SWAP1 DUP8 SWAP1 DUP2 SWAP1 DUP5 ADD DUP4 DUP3 DUP1 DUP3 DUP5 CALLDATACOPY PUSH0 SWAP3 ADD SWAP2 SWAP1 SWAP2 MSTORE POP PUSH2 0x1653 SWAP3 POP POP POP JUMP JUMPDEST POP POP POP POP POP POP JUMP JUMPDEST PUSH2 0xD74 PUSH2 0x153D JUMP JUMPDEST PUSH2 0xD7D PUSH0 PUSH2 0x1677 JUMP JUMPDEST JUMP JUMPDEST PUSH1 0x1 PUSH1 0x20 MSTORE PUSH0 SWAP1 DUP2 MSTORE PUSH1 0x40 SWAP1 KECCAK256 DUP1 SLOAD PUSH2 0xD97 SWAP1 PUSH2 0x223F JUMP JUMPDEST DUP1 PUSH1 0x1F ADD PUSH1 0x20 DUP1 SWAP2 DIV MUL PUSH1 0x20 ADD PUSH1 0x40 MLOAD SWAP1 DUP2 ADD PUSH1 0x40 MSTORE DUP1 SWAP3 SWAP2 SWAP1 DUP2 DUP2 MSTORE PUSH1 0x20 ADD DUP3 DUP1 SLOAD PUSH2 0xDC3 SWAP1 PUSH2 0x223F JUMP JUMPDEST DUP1 ISZERO PUSH2 0xE0E JUMPI DUP1 PUSH1 0x1F LT PUSH2 0xDE5 JUMPI PUSH2 0x100 DUP1 DUP4 SLOAD DIV MUL DUP4 MSTORE SWAP2 PUSH1 0x20 ADD SWAP2 PUSH2 0xE0E JUMP JUMPDEST DUP3 ADD SWAP2 SWAP1 PUSH0 MSTORE PUSH1 0x20 PUSH0 KECCAK256 SWAP1 JUMPDEST DUP2 SLOAD DUP2 MSTORE SWAP1 PUSH1 0x1 ADD SWAP1 PUSH1 0x20 ADD DUP1 DUP4 GT PUSH2 0xDF1 JUMPI DUP3 SWAP1 SUB PUSH1 0x1F AND DUP3 ADD SWAP2 JUMPDEST POP POP POP POP POP DUP2 JUMP JUMPDEST PUSH2 0xE20 CALLER DUP3 PUSH2 0x16C6 JUMP JUMPDEST PUSH1 0x40 DUP1 MLOAD CALLER PUSH1 0x20 DUP3 ADD MSTORE SWAP1 DUP2 ADD DUP3 SWAP1 MSTORE PUSH0 SWAP1 PUSH1 0x60 ADD PUSH1 0x40 DUP1 MLOAD PUSH1 0x1F NOT DUP2 DUP5 SUB ADD DUP2 MSTORE PUSH1 0xB SLOAD PUSH1 0x20 DUP5 ADD SWAP1 SWAP3 MSTORE PUSH0 DUP1 DUP5 MSTORE SWAP1 SWAP4 POP PUSH2 0xC8E SWAP3 PUSH2 0xFFFF SWAP1 SWAP3 AND SWAP2 DUP5 SWAP2 CALLER SWAP2 CALLVALUE PUSH2 0x16FA JUMP JUMPDEST PUSH1 0x60 PUSH1 0xA DUP1 SLOAD PUSH2 0x930 SWAP1 PUSH2 0x223F JUMP JUMPDEST PUSH2 0xFFFF DUP2 AND PUSH0 SWAP1 DUP2 MSTORE PUSH1 0x1 PUSH1 0x20 MSTORE PUSH1 0x40 DUP2 KECCAK256 DUP1 SLOAD PUSH1 0x60 SWAP3 SWAP2 SWAP1 PUSH2 0xE99 SWAP1 PUSH2 0x223F JUMP JUMPDEST DUP1 PUSH1 0x1F ADD PUSH1 0x20 DUP1 SWAP2 DIV MUL PUSH1 0x20 ADD PUSH1 0x40 MLOAD SWAP1 DUP2 ADD PUSH1 0x40 MSTORE DUP1 SWAP3 SWAP2 SWAP1 DUP2 DUP2 MSTORE PUSH1 0x20 ADD DUP3 DUP1 SLOAD PUSH2 0xEC5 SWAP1 PUSH2 0x223F JUMP JUMPDEST DUP1 ISZERO PUSH2 0xF10 JUMPI DUP1 PUSH1 0x1F LT PUSH2 0xEE7 JUMPI PUSH2 0x100 DUP1 DUP4 SLOAD DIV MUL DUP4 MSTORE SWAP2 PUSH1 0x20 ADD SWAP2 PUSH2 0xF10 JUMP JUMPDEST DUP3 ADD SWAP2 SWAP1 PUSH0 MSTORE PUSH1 0x20 PUSH0 KECCAK256 SWAP1 JUMPDEST DUP2 SLOAD DUP2 MSTORE SWAP1 PUSH1 0x1 ADD SWAP1 PUSH1 0x20 ADD DUP1 DUP4 GT PUSH2 0xEF3 JUMPI DUP3 SWAP1 SUB PUSH1 0x1F AND DUP3 ADD SWAP2 JUMPDEST POP POP POP POP POP SWAP1 POP DUP1 MLOAD PUSH0 SUB PUSH2 0xF67 JUMPI PUSH1 0x40 MLOAD PUSH3 0x461BCD PUSH1 0xE5 SHL DUP2 MSTORE PUSH1 0x20 PUSH1 0x4 DUP3 ADD MSTORE PUSH1 0x1D PUSH1 0x24 DUP3 ADD MSTORE PUSH32 0x4C7A4170703A206E6F20747275737465642070617468207265636F7264000000 PUSH1 0x44 DUP3 ADD MSTORE PUSH1 0x64 ADD PUSH2 0x76A JUMP JUMPDEST PUSH2 0xF81 PUSH0 PUSH1 0x14 DUP4 MLOAD PUSH2 0xF79 SWAP2 SWAP1 PUSH2 0x23DE JUMP JUMPDEST DUP4 SWAP2 SWAP1 PUSH2 0x1897 JUMP JUMPDEST SWAP4 SWAP3 POP POP POP JUMP JUMPDEST PUSH2 0xF90 PUSH2 0x153D JUMP JUMPDEST DUP2 DUP2 ADDRESS PUSH1 0x40 MLOAD PUSH1 0x20 ADD PUSH2 0xFA5 SWAP4 SWAP3 SWAP2 SWAP1 PUSH2 0x23F1 JUMP JUMPDEST PUSH1 0x40 DUP1 MLOAD PUSH1 0x1F NOT DUP2 DUP5 SUB ADD DUP2 MSTORE SWAP2 DUP2 MSTORE PUSH2 0xFFFF DUP6 AND PUSH0 SWAP1 DUP2 MSTORE PUSH1 0x1 PUSH1 0x20 MSTORE KECCAK256 SWAP1 PUSH2 0xFCF SWAP1 DUP3 PUSH2 0x230F JUMP JUMPDEST POP PUSH32 0x8C0400CFE2D1199B1A725C78960BCC2A344D869B80590D0F2BD005DB15A572CE DUP4 DUP4 DUP4 PUSH1 0x40 MLOAD PUSH2 0x1003 SWAP4 SWAP3 SWAP2 SWAP1 PUSH2 0x22AE JUMP JUMPDEST PUSH1 0x40 MLOAD DUP1 SWAP2 SUB SWAP1 LOG1 POP POP POP JUMP JUMPDEST PUSH0 CALLER PUSH2 0xA42 DUP2 DUP6 DUP6 PUSH2 0x15F6 JUMP JUMPDEST PUSH2 0x1025 PUSH2 0x153D JUMP JUMPDEST PUSH1 0x4 DUP1 SLOAD PUSH1 0x1 PUSH1 0x1 PUSH1 0xA0 SHL SUB NOT AND PUSH1 0x1 PUSH1 0x1 PUSH1 0xA0 SHL SUB DUP4 AND SWAP1 DUP2 OR SWAP1 SWAP2 SSTORE PUSH1 0x40 MLOAD SWAP1 DUP2 MSTORE PUSH32 0x5DB758E995A17EC1AD84BDEF7E8C3293A0BD6179BCCE400DFF5D4C3D87DB726B SWAP1 PUSH1 0x20 ADD PUSH1 0x40 MLOAD DUP1 SWAP2 SUB SWAP1 LOG1 POP JUMP JUMPDEST PUSH2 0x1081 PUSH2 0x153D JUMP JUMPDEST PUSH1 0x40 MLOAD PUSH4 0x32FB62E7 PUSH1 0xE2 SHL DUP2 MSTORE PUSH1 0x1 PUSH1 0x1 PUSH1 0xA0 SHL SUB PUSH32 0x0 AND SWAP1 PUSH4 0xCBED8B9C SWAP1 PUSH2 0x10D5 SWAP1 DUP9 SWAP1 DUP9 SWAP1 DUP9 SWAP1 DUP9 SWAP1 DUP9 SWAP1 PUSH1 0x4 ADD PUSH2 0x2417 JUMP JUMPDEST PUSH0 PUSH1 0x40 MLOAD DUP1 DUP4 SUB DUP2 PUSH0 DUP8 DUP1 EXTCODESIZE ISZERO DUP1 ISZERO PUSH2 0x10EC JUMPI PUSH0 DUP1 REVERT JUMPDEST POP GAS CALL ISZERO DUP1 ISZERO PUSH2 0x10FE JUMPI RETURNDATASIZE PUSH0 DUP1 RETURNDATACOPY RETURNDATASIZE PUSH0 REVERT JUMPDEST POP POP POP POP POP POP POP POP POP JUMP JUMPDEST PUSH2 0xFFFF DUP7 AND PUSH0 SWAP1 DUP2 MSTORE PUSH1 0x5 PUSH1 0x20 MSTORE PUSH1 0x40 DUP1 DUP3 KECCAK256 SWAP1 MLOAD PUSH2 0x112B SWAP1 DUP9 SWAP1 DUP9 SWAP1 PUSH2 0x2277 JUMP JUMPDEST SWAP1 DUP2 MSTORE PUSH1 0x40 DUP1 MLOAD PUSH1 0x20 SWAP3 DUP2 SWAP1 SUB DUP4 ADD SWAP1 KECCAK256 PUSH1 0x1 PUSH1 0x1 PUSH1 0x40 SHL SUB DUP8 AND PUSH0 SWAP1 DUP2 MSTORE SWAP3 MSTORE SWAP1 KECCAK256 SLOAD SWAP1 POP DUP1 PUSH2 0x11AA JUMPI PUSH1 0x40 MLOAD PUSH3 0x461BCD PUSH1 0xE5 SHL DUP2 MSTORE PUSH1 0x20 PUSH1 0x4 DUP3 ADD MSTORE PUSH1 0x23 PUSH1 0x24 DUP3 ADD MSTORE PUSH32 0x4E6F6E626C6F636B696E674C7A4170703A206E6F2073746F726564206D657373 PUSH1 0x44 DUP3 ADD MSTORE PUSH3 0x616765 PUSH1 0xE8 SHL PUSH1 0x64 DUP3 ADD MSTORE PUSH1 0x84 ADD PUSH2 0x76A JUMP JUMPDEST DUP1 DUP4 DUP4 PUSH1 0x40 MLOAD PUSH2 0x11BB SWAP3 SWAP2 SWAP1 PUSH2 0x2277 JUMP JUMPDEST PUSH1 0x40 MLOAD DUP1 SWAP2 SUB SWAP1 KECCAK256 EQ PUSH2 0x121A JUMPI PUSH1 0x40 MLOAD PUSH3 0x461BCD PUSH1 0xE5 SHL DUP2 MSTORE PUSH1 0x20 PUSH1 0x4 DUP3 ADD MSTORE PUSH1 0x21 PUSH1 0x24 DUP3 ADD MSTORE PUSH32 0x4E6F6E626C6F636B696E674C7A4170703A20696E76616C6964207061796C6F61 PUSH1 0x44 DUP3 ADD MSTORE PUSH1 0x19 PUSH1 0xFA SHL PUSH1 0x64 DUP3 ADD MSTORE PUSH1 0x84 ADD PUSH2 0x76A JUMP JUMPDEST PUSH2 0xFFFF DUP8 AND PUSH0 SWAP1 DUP2 MSTORE PUSH1 0x5 PUSH1 0x20 MSTORE PUSH1 0x40 DUP1 DUP3 KECCAK256 SWAP1 MLOAD PUSH2 0x123C SWAP1 DUP10 SWAP1 DUP10 SWAP1 PUSH2 0x2277 JUMP JUMPDEST SWAP1 DUP2 MSTORE PUSH1 0x40 DUP1 MLOAD PUSH1 0x20 SWAP3 DUP2 SWAP1 SUB DUP4 ADD DUP2 KECCAK256 PUSH1 0x1 PUSH1 0x1 PUSH1 0x40 SHL SUB DUP10 AND PUSH0 SWAP1 DUP2 MSTORE SWAP1 DUP5 MSTORE DUP3 SWAP1 KECCAK256 SWAP4 SWAP1 SWAP4 SSTORE PUSH1 0x1F DUP9 ADD DUP3 SWAP1 DIV DUP3 MUL DUP4 ADD DUP3 ADD SWAP1 MSTORE DUP7 DUP3 MSTORE PUSH2 0x12D1 SWAP2 DUP10 SWAP2 DUP10 SWAP1 DUP10 SWAP1 DUP2 SWAP1 DUP5 ADD DUP4 DUP3 DUP1 DUP3 DUP5 CALLDATACOPY PUSH0 SWAP3 ADD SWAP2 SWAP1 SWAP2 MSTORE POP POP PUSH1 0x40 DUP1 MLOAD PUSH1 0x20 PUSH1 0x1F DUP11 ADD DUP2 SWAP1 DIV DUP2 MUL DUP3 ADD DUP2 ADD SWAP1 SWAP3 MSTORE DUP9 DUP2 MSTORE DUP11 SWAP4 POP SWAP2 POP DUP9 SWAP1 DUP9 SWAP1 DUP2 SWAP1 DUP5 ADD DUP4 DUP3 DUP1 DUP3 DUP5 CALLDATACOPY PUSH0 SWAP3 ADD SWAP2 SWAP1 SWAP2 MSTORE POP PUSH2 0x1653 SWAP3 POP POP POP JUMP JUMPDEST PUSH32 0xC264D91F3ADC5588250E1551F547752CA0CFA8F6B530D243B9F9F4CAB10EA8E5 DUP8 DUP8 DUP8 DUP8 DUP6 PUSH1 0x40 MLOAD PUSH2 0x1308 SWAP6 SWAP5 SWAP4 SWAP3 SWAP2 SWAP1 PUSH2 0x244F JUMP JUMPDEST PUSH1 0x40 MLOAD DUP1 SWAP2 SUB SWAP1 LOG1 POP POP POP POP POP POP POP JUMP JUMPDEST PUSH2 0x1321 PUSH2 0x153D JUMP JUMPDEST PUSH2 0xFFFF DUP4 DUP2 AND PUSH0 DUP2 DUP2 MSTORE PUSH1 0x2 PUSH1 0x20 SWAP1 DUP2 MSTORE PUSH1 0x40 DUP1 DUP4 KECCAK256 SWAP5 DUP8 AND DUP1 DUP5 MSTORE SWAP5 DUP3 MSTORE SWAP2 DUP3 SWAP1 KECCAK256 DUP6 SWAP1 SSTORE DUP2 MLOAD SWAP3 DUP4 MSTORE DUP3 ADD SWAP3 SWAP1 SWAP3 MSTORE SWAP1 DUP2 ADD DUP3 SWAP1 MSTORE PUSH32 0x9D5C7C0B934DA8FEFA9C7760C98383778A12DFBFC0C3B3106518F43FB9508AC0 SWAP1 PUSH1 0x60 ADD PUSH2 0x1003 JUMP JUMPDEST PUSH2 0x138A PUSH2 0x153D JUMP JUMPDEST PUSH2 0xFFFF DUP4 AND PUSH0 SWAP1 DUP2 MSTORE PUSH1 0x1 PUSH1 0x20 MSTORE PUSH1 0x40 SWAP1 KECCAK256 PUSH2 0x13A7 DUP3 DUP5 DUP4 PUSH2 0x2489 JUMP JUMPDEST POP PUSH32 0xFA41487AD5D6728F0B19276FA1EDDC16558578F5109FC39D2DC33C3230470DAB DUP4 DUP4 DUP4 PUSH1 0x40 MLOAD PUSH2 0x1003 SWAP4 SWAP3 SWAP2 SWAP1 PUSH2 0x22AE JUMP JUMPDEST PUSH2 0x13E3 PUSH2 0x153D JUMP JUMPDEST PUSH1 0x1 PUSH1 0x1 PUSH1 0xA0 SHL SUB DUP2 AND PUSH2 0x140C JUMPI PUSH1 0x40 MLOAD PUSH4 0x1E4FBDF7 PUSH1 0xE0 SHL DUP2 MSTORE PUSH0 PUSH1 0x4 DUP3 ADD MSTORE PUSH1 0x24 ADD PUSH2 0x76A JUMP JUMPDEST PUSH2 0x1415 DUP2 PUSH2 0x1677 JUMP JUMPDEST POP JUMP JUMPDEST PUSH1 0x40 MLOAD PUSH4 0x3D7B2F6F PUSH1 0xE2 SHL DUP2 MSTORE PUSH2 0xFFFF DUP1 DUP7 AND PUSH1 0x4 DUP4 ADD MSTORE DUP5 AND PUSH1 0x24 DUP3 ADD MSTORE ADDRESS PUSH1 0x44 DUP3 ADD MSTORE PUSH1 0x64 DUP2 ADD DUP3 SWAP1 MSTORE PUSH1 0x60 SWAP1 PUSH32 0x0 PUSH1 0x1 PUSH1 0x1 PUSH1 0xA0 SHL SUB AND SWAP1 PUSH4 0xF5ECBDBC SWAP1 PUSH1 0x84 ADD PUSH0 PUSH1 0x40 MLOAD DUP1 DUP4 SUB DUP2 DUP7 GAS STATICCALL ISZERO DUP1 ISZERO PUSH2 0x1495 JUMPI RETURNDATASIZE PUSH0 DUP1 RETURNDATACOPY RETURNDATASIZE PUSH0 REVERT JUMPDEST POP POP POP POP PUSH1 0x40 MLOAD RETURNDATASIZE PUSH0 DUP3 RETURNDATACOPY PUSH1 0x1F RETURNDATASIZE SWAP1 DUP2 ADD PUSH1 0x1F NOT AND DUP3 ADD PUSH1 0x40 MSTORE PUSH2 0x14BC SWAP2 SWAP1 DUP2 ADD SWAP1 PUSH2 0x2542 JUMP JUMPDEST SWAP6 SWAP5 POP POP POP POP POP JUMP JUMPDEST PUSH0 DUP1 PUSH2 0x1527 GAS PUSH1 0x96 PUSH4 0x66AD5C8A PUSH1 0xE0 SHL DUP10 DUP10 DUP10 DUP10 PUSH1 0x40 MLOAD PUSH1 0x24 ADD PUSH2 0x14EC SWAP5 SWAP4 SWAP3 SWAP2 SWAP1 PUSH2 0x25AA JUMP JUMPDEST PUSH1 0x40 DUP1 MLOAD PUSH1 0x1F NOT DUP2 DUP5 SUB ADD DUP2 MSTORE SWAP2 SWAP1 MSTORE PUSH1 0x20 DUP2 ADD DUP1 MLOAD PUSH1 0x1 PUSH1 0x1 PUSH1 0xE0 SHL SUB AND PUSH1 0x1 PUSH1 0x1 PUSH1 0xE0 SHL SUB NOT SWAP1 SWAP4 AND SWAP3 SWAP1 SWAP3 OR SWAP1 SWAP2 MSTORE ADDRESS SWAP3 SWAP2 SWAP1 PUSH2 0x19A3 JUMP JUMPDEST SWAP2 POP SWAP2 POP DUP2 PUSH2 0xD64 JUMPI PUSH2 0xD64 DUP7 DUP7 DUP7 DUP7 DUP6 PUSH2 0x1A27 JUMP JUMPDEST PUSH0 SLOAD PUSH1 0x1 PUSH1 0x1 PUSH1 0xA0 SHL SUB AND CALLER EQ PUSH2 0xD7D JUMPI PUSH1 0x40 MLOAD PUSH4 0x118CDAA7 PUSH1 0xE0 SHL DUP2 MSTORE CALLER PUSH1 0x4 DUP3 ADD MSTORE PUSH1 0x24 ADD PUSH2 0x76A JUMP JUMPDEST PUSH2 0x1576 DUP4 DUP4 DUP4 PUSH1 0x1 PUSH2 0x1AC1 JUMP JUMPDEST POP POP POP JUMP JUMPDEST PUSH1 0x1 PUSH1 0x1 PUSH1 0xA0 SHL SUB DUP4 DUP2 AND PUSH0 SWAP1 DUP2 MSTORE PUSH1 0x7 PUSH1 0x20 SWAP1 DUP2 MSTORE PUSH1 0x40 DUP1 DUP4 KECCAK256 SWAP4 DUP7 AND DUP4 MSTORE SWAP3 SWAP1 MSTORE KECCAK256 SLOAD PUSH0 NOT DUP2 EQ PUSH2 0x15F0 JUMPI DUP2 DUP2 LT ISZERO PUSH2 0x15E2 JUMPI PUSH1 0x40 MLOAD PUSH4 0x7DC7A0D9 PUSH1 0xE1 SHL DUP2 MSTORE PUSH1 0x1 PUSH1 0x1 PUSH1 0xA0 SHL SUB DUP5 AND PUSH1 0x4 DUP3 ADD MSTORE PUSH1 0x24 DUP2 ADD DUP3 SWAP1 MSTORE PUSH1 0x44 DUP2 ADD DUP4 SWAP1 MSTORE PUSH1 0x64 ADD PUSH2 0x76A JUMP JUMPDEST PUSH2 0x15F0 DUP5 DUP5 DUP5 DUP5 SUB PUSH0 PUSH2 0x1AC1 JUMP JUMPDEST POP POP POP POP JUMP JUMPDEST PUSH1 0x1 PUSH1 0x1 PUSH1 0xA0 SHL SUB DUP4 AND PUSH2 0x161F JUMPI PUSH1 0x40 MLOAD PUSH4 0x4B637E8F PUSH1 0xE1 SHL DUP2 MSTORE PUSH0 PUSH1 0x4 DUP3 ADD MSTORE PUSH1 0x24 ADD PUSH2 0x76A JUMP JUMPDEST PUSH1 0x1 PUSH1 0x1 PUSH1 0xA0 SHL SUB DUP3 AND PUSH2 0x1648 JUMPI PUSH1 0x40 MLOAD PUSH4 0xEC442F05 PUSH1 0xE0 SHL DUP2 MSTORE PUSH0 PUSH1 0x4 DUP3 ADD MSTORE PUSH1 0x24 ADD PUSH2 0x76A JUMP JUMPDEST PUSH2 0x1576 DUP4 DUP4 DUP4 PUSH2 0x1B93 JUMP JUMPDEST PUSH0 DUP1 DUP3 DUP1 PUSH1 0x20 ADD SWAP1 MLOAD DUP2 ADD SWAP1 PUSH2 0x1669 SWAP2 SWAP1 PUSH2 0x25E7 JUMP JUMPDEST SWAP2 POP SWAP2 POP PUSH2 0xD64 DUP3 DUP3 PUSH2 0x1CB9 JUMP JUMPDEST PUSH0 DUP1 SLOAD PUSH1 0x1 PUSH1 0x1 PUSH1 0xA0 SHL SUB DUP4 DUP2 AND PUSH1 0x1 PUSH1 0x1 PUSH1 0xA0 SHL SUB NOT DUP4 AND DUP2 OR DUP5 SSTORE PUSH1 0x40 MLOAD SWAP2 SWAP1 SWAP3 AND SWAP3 DUP4 SWAP2 PUSH32 0x8BE0079C531659141344CD1FD0A4F28419497F9722A3DAAFE3B4186F6B6457E0 SWAP2 SWAP1 LOG3 POP POP JUMP JUMPDEST PUSH1 0x1 PUSH1 0x1 PUSH1 0xA0 SHL SUB DUP3 AND PUSH2 0x16EF JUMPI PUSH1 0x40 MLOAD PUSH4 0x4B637E8F PUSH1 0xE1 SHL DUP2 MSTORE PUSH0 PUSH1 0x4 DUP3 ADD MSTORE PUSH1 0x24 ADD PUSH2 0x76A JUMP JUMPDEST PUSH2 0xC8E DUP3 PUSH0 DUP4 PUSH2 0x1B93 JUMP JUMPDEST PUSH2 0xFFFF DUP7 AND PUSH0 SWAP1 DUP2 MSTORE PUSH1 0x1 PUSH1 0x20 MSTORE PUSH1 0x40 DUP2 KECCAK256 DUP1 SLOAD PUSH2 0x1717 SWAP1 PUSH2 0x223F JUMP JUMPDEST DUP1 PUSH1 0x1F ADD PUSH1 0x20 DUP1 SWAP2 DIV MUL PUSH1 0x20 ADD PUSH1 0x40 MLOAD SWAP1 DUP2 ADD PUSH1 0x40 MSTORE DUP1 SWAP3 SWAP2 SWAP1 DUP2 DUP2 MSTORE PUSH1 0x20 ADD DUP3 DUP1 SLOAD PUSH2 0x1743 SWAP1 PUSH2 0x223F JUMP JUMPDEST DUP1 ISZERO PUSH2 0x178E JUMPI DUP1 PUSH1 0x1F LT PUSH2 0x1765 JUMPI PUSH2 0x100 DUP1 DUP4 SLOAD DIV MUL DUP4 MSTORE SWAP2 PUSH1 0x20 ADD SWAP2 PUSH2 0x178E JUMP JUMPDEST DUP3 ADD SWAP2 SWAP1 PUSH0 MSTORE PUSH1 0x20 PUSH0 KECCAK256 SWAP1 JUMPDEST DUP2 SLOAD DUP2 MSTORE SWAP1 PUSH1 0x1 ADD SWAP1 PUSH1 0x20 ADD DUP1 DUP4 GT PUSH2 0x1771 JUMPI DUP3 SWAP1 SUB PUSH1 0x1F AND DUP3 ADD SWAP2 JUMPDEST POP POP POP POP POP SWAP1 POP DUP1 MLOAD PUSH0 SUB PUSH2 0x17FE JUMPI PUSH1 0x40 MLOAD PUSH3 0x461BCD PUSH1 0xE5 SHL DUP2 MSTORE PUSH1 0x20 PUSH1 0x4 DUP3 ADD MSTORE PUSH1 0x30 PUSH1 0x24 DUP3 ADD MSTORE PUSH32 0x4C7A4170703A2064657374696E6174696F6E20636861696E206973206E6F7420 PUSH1 0x44 DUP3 ADD MSTORE PUSH16 0x61207472757374656420736F75726365 PUSH1 0x80 SHL PUSH1 0x64 DUP3 ADD MSTORE PUSH1 0x84 ADD PUSH2 0x76A JUMP JUMPDEST PUSH2 0x1809 DUP8 DUP8 MLOAD PUSH2 0x1CED JUMP JUMPDEST PUSH1 0x40 MLOAD PUSH3 0xC58031 PUSH1 0xE8 SHL DUP2 MSTORE PUSH1 0x1 PUSH1 0x1 PUSH1 0xA0 SHL SUB PUSH32 0x0 AND SWAP1 PUSH4 0xC5803100 SWAP1 DUP5 SWAP1 PUSH2 0x1860 SWAP1 DUP12 SWAP1 DUP7 SWAP1 DUP13 SWAP1 DUP13 SWAP1 DUP13 SWAP1 DUP13 SWAP1 PUSH1 0x4 ADD PUSH2 0x2613 JUMP JUMPDEST PUSH0 PUSH1 0x40 MLOAD DUP1 DUP4 SUB DUP2 DUP6 DUP9 DUP1 EXTCODESIZE ISZERO DUP1 ISZERO PUSH2 0x1877 JUMPI PUSH0 DUP1 REVERT JUMPDEST POP GAS CALL ISZERO DUP1 ISZERO PUSH2 0x1889 JUMPI RETURNDATASIZE PUSH0 DUP1 RETURNDATACOPY RETURNDATASIZE PUSH0 REVERT JUMPDEST POP POP POP POP POP POP POP POP POP POP POP POP JUMP JUMPDEST PUSH1 0x60 DUP2 PUSH2 0x18A5 DUP2 PUSH1 0x1F PUSH2 0x2679 JUMP JUMPDEST LT ISZERO PUSH2 0x18E4 JUMPI PUSH1 0x40 MLOAD PUSH3 0x461BCD PUSH1 0xE5 SHL DUP2 MSTORE PUSH1 0x20 PUSH1 0x4 DUP3 ADD MSTORE PUSH1 0xE PUSH1 0x24 DUP3 ADD MSTORE PUSH14 0x736C6963655F6F766572666C6F77 PUSH1 0x90 SHL PUSH1 0x44 DUP3 ADD MSTORE PUSH1 0x64 ADD PUSH2 0x76A JUMP JUMPDEST PUSH2 0x18EE DUP3 DUP5 PUSH2 0x2679 JUMP JUMPDEST DUP5 MLOAD LT ISZERO PUSH2 0x1932 JUMPI PUSH1 0x40 MLOAD PUSH3 0x461BCD PUSH1 0xE5 SHL DUP2 MSTORE PUSH1 0x20 PUSH1 0x4 DUP3 ADD MSTORE PUSH1 0x11 PUSH1 0x24 DUP3 ADD MSTORE PUSH17 0x736C6963655F6F75744F66426F756E6473 PUSH1 0x78 SHL PUSH1 0x44 DUP3 ADD MSTORE PUSH1 0x64 ADD PUSH2 0x76A JUMP JUMPDEST PUSH1 0x60 DUP3 ISZERO DUP1 ISZERO PUSH2 0x1950 JUMPI PUSH1 0x40 MLOAD SWAP2 POP PUSH0 DUP3 MSTORE PUSH1 0x20 DUP3 ADD PUSH1 0x40 MSTORE PUSH2 0x199A JUMP JUMPDEST PUSH1 0x40 MLOAD SWAP2 POP PUSH1 0x1F DUP5 AND DUP1 ISZERO PUSH1 0x20 MUL DUP2 DUP5 ADD ADD DUP6 DUP2 ADD DUP8 DUP4 ISZERO PUSH1 0x20 MUL DUP5 DUP12 ADD ADD ADD JUMPDEST DUP2 DUP4 LT ISZERO PUSH2 0x1989 JUMPI DUP1 MLOAD DUP4 MSTORE PUSH1 0x20 SWAP3 DUP4 ADD SWAP3 ADD PUSH2 0x1971 JUMP JUMPDEST POP POP DUP6 DUP5 MSTORE PUSH1 0x1F ADD PUSH1 0x1F NOT AND PUSH1 0x40 MSTORE POP JUMPDEST POP SWAP5 SWAP4 POP POP POP POP JUMP JUMPDEST PUSH0 PUSH1 0x60 PUSH0 DUP1 PUSH0 DUP7 PUSH2 0xFFFF AND PUSH1 0x1 PUSH1 0x1 PUSH1 0x40 SHL SUB DUP2 GT ISZERO PUSH2 0x19C5 JUMPI PUSH2 0x19C5 PUSH2 0x1FB6 JUMP JUMPDEST PUSH1 0x40 MLOAD SWAP1 DUP1 DUP3 MSTORE DUP1 PUSH1 0x1F ADD PUSH1 0x1F NOT AND PUSH1 0x20 ADD DUP3 ADD PUSH1 0x40 MSTORE DUP1 ISZERO PUSH2 0x19EF JUMPI PUSH1 0x20 DUP3 ADD DUP2 DUP1 CALLDATASIZE DUP4 CALLDATACOPY ADD SWAP1 POP JUMPDEST POP SWAP1 POP PUSH0 DUP1 DUP8 MLOAD PUSH1 0x20 DUP10 ADD PUSH0 DUP14 DUP14 CALL SWAP2 POP RETURNDATASIZE SWAP3 POP DUP7 DUP4 GT ISZERO PUSH2 0x1A0F JUMPI DUP7 SWAP3 POP JUMPDEST DUP3 DUP2 MSTORE DUP3 PUSH0 PUSH1 0x20 DUP4 ADD RETURNDATACOPY SWAP1 SWAP9 SWAP1 SWAP8 POP SWAP6 POP POP POP POP POP POP JUMP JUMPDEST DUP2 DUP1 MLOAD SWAP1 PUSH1 0x20 ADD KECCAK256 PUSH1 0x5 PUSH0 DUP8 PUSH2 0xFFFF AND PUSH2 0xFFFF AND DUP2 MSTORE PUSH1 0x20 ADD SWAP1 DUP2 MSTORE PUSH1 0x20 ADD PUSH0 KECCAK256 DUP6 PUSH1 0x40 MLOAD PUSH2 0x1A56 SWAP2 SWAP1 PUSH2 0x268C JUMP JUMPDEST SWAP1 DUP2 MSTORE PUSH1 0x40 DUP1 MLOAD SWAP2 DUP3 SWAP1 SUB PUSH1 0x20 SWAP1 DUP2 ADD DUP4 KECCAK256 PUSH1 0x1 PUSH1 0x1 PUSH1 0x40 SHL SUB DUP9 AND PUSH0 SWAP1 DUP2 MSTORE SWAP2 MSTORE KECCAK256 SWAP2 SWAP1 SWAP2 SSTORE PUSH32 0xE183F33DE2837795525B4792CA4CD60535BD77C53B7E7030060BFCF5734D6B0C SWAP1 PUSH2 0x1AB2 SWAP1 DUP8 SWAP1 DUP8 SWAP1 DUP8 SWAP1 DUP8 SWAP1 DUP8 SWAP1 PUSH2 0x26A7 JUMP JUMPDEST PUSH1 0x40 MLOAD DUP1 SWAP2 SUB SWAP1 LOG1 POP POP POP POP POP JUMP JUMPDEST PUSH1 0x1 PUSH1 0x1 PUSH1 0xA0 SHL SUB DUP5 AND PUSH2 0x1AEA JUMPI PUSH1 0x40 MLOAD PUSH4 0xE602DF05 PUSH1 0xE0 SHL DUP2 MSTORE PUSH0 PUSH1 0x4 DUP3 ADD MSTORE PUSH1 0x24 ADD PUSH2 0x76A JUMP JUMPDEST PUSH1 0x1 PUSH1 0x1 PUSH1 0xA0 SHL SUB DUP4 AND PUSH2 0x1B13 JUMPI PUSH1 0x40 MLOAD PUSH4 0x4A1406B1 PUSH1 0xE1 SHL DUP2 MSTORE PUSH0 PUSH1 0x4 DUP3 ADD MSTORE PUSH1 0x24 ADD PUSH2 0x76A JUMP JUMPDEST PUSH1 0x1 PUSH1 0x1 PUSH1 0xA0 SHL SUB DUP1 DUP6 AND PUSH0 SWAP1 DUP2 MSTORE PUSH1 0x7 PUSH1 0x20 SWAP1 DUP2 MSTORE PUSH1 0x40 DUP1 DUP4 KECCAK256 SWAP4 DUP8 AND DUP4 MSTORE SWAP3 SWAP1 MSTORE KECCAK256 DUP3 SWAP1 SSTORE DUP1 ISZERO PUSH2 0x15F0 JUMPI DUP3 PUSH1 0x1 PUSH1 0x1 PUSH1 0xA0 SHL SUB AND DUP5 PUSH1 0x1 PUSH1 0x1 PUSH1 0xA0 SHL SUB AND PUSH32 0x8C5BE1E5EBEC7D5BD14F71427D1E84F3DD0314C0F7B2291E5B200AC8C7C3B925 DUP5 PUSH1 0x40 MLOAD PUSH2 0x1B85 SWAP2 DUP2 MSTORE PUSH1 0x20 ADD SWAP1 JUMP JUMPDEST PUSH1 0x40 MLOAD DUP1 SWAP2 SUB SWAP1 LOG3 POP POP POP POP JUMP JUMPDEST PUSH1 0x1 PUSH1 0x1 PUSH1 0xA0 SHL SUB DUP4 AND PUSH2 0x1BBD JUMPI DUP1 PUSH1 0x8 PUSH0 DUP3 DUP3 SLOAD PUSH2 0x1BB2 SWAP2 SWAP1 PUSH2 0x2679 JUMP JUMPDEST SWAP1 SWAP2 SSTORE POP PUSH2 0x1C2D SWAP1 POP JUMP JUMPDEST PUSH1 0x1 PUSH1 0x1 PUSH1 0xA0 SHL SUB DUP4 AND PUSH0 SWAP1 DUP2 MSTORE PUSH1 0x6 PUSH1 0x20 MSTORE PUSH1 0x40 SWAP1 KECCAK256 SLOAD DUP2 DUP2 LT ISZERO PUSH2 0x1C0F JUMPI PUSH1 0x40 MLOAD PUSH4 0x391434E3 PUSH1 0xE2 SHL DUP2 MSTORE PUSH1 0x1 PUSH1 0x1 PUSH1 0xA0 SHL SUB DUP6 AND PUSH1 0x4 DUP3 ADD MSTORE PUSH1 0x24 DUP2 ADD DUP3 SWAP1 MSTORE PUSH1 0x44 DUP2 ADD DUP4 SWAP1 MSTORE PUSH1 0x64 ADD PUSH2 0x76A JUMP JUMPDEST PUSH1 0x1 PUSH1 0x1 PUSH1 0xA0 SHL SUB DUP5 AND PUSH0 SWAP1 DUP2 MSTORE PUSH1 0x6 PUSH1 0x20 MSTORE PUSH1 0x40 SWAP1 KECCAK256 SWAP1 DUP3 SWAP1 SUB SWAP1 SSTORE JUMPDEST PUSH1 0x1 PUSH1 0x1 PUSH1 0xA0 SHL SUB DUP3 AND PUSH2 0x1C49 JUMPI PUSH1 0x8 DUP1 SLOAD DUP3 SWAP1 SUB SWAP1 SSTORE PUSH2 0x1C67 JUMP JUMPDEST PUSH1 0x1 PUSH1 0x1 PUSH1 0xA0 SHL SUB DUP3 AND PUSH0 SWAP1 DUP2 MSTORE PUSH1 0x6 PUSH1 0x20 MSTORE PUSH1 0x40 SWAP1 KECCAK256 DUP1 SLOAD DUP3 ADD SWAP1 SSTORE JUMPDEST DUP2 PUSH1 0x1 PUSH1 0x1 PUSH1 0xA0 SHL SUB AND DUP4 PUSH1 0x1 PUSH1 0x1 PUSH1 0xA0 SHL SUB AND PUSH32 0xDDF252AD1BE2C89B69C2B068FC378DAA952BA7F163C4A11628F55A4DF523B3EF DUP4 PUSH1 0x40 MLOAD PUSH2 0x1CAC SWAP2 DUP2 MSTORE PUSH1 0x20 ADD SWAP1 JUMP JUMPDEST PUSH1 0x40 MLOAD DUP1 SWAP2 SUB SWAP1 LOG3 POP POP POP JUMP JUMPDEST PUSH1 0x1 PUSH1 0x1 PUSH1 0xA0 SHL SUB DUP3 AND PUSH2 0x1CE2 JUMPI PUSH1 0x40 MLOAD PUSH4 0xEC442F05 PUSH1 0xE0 SHL DUP2 MSTORE PUSH0 PUSH1 0x4 DUP3 ADD MSTORE PUSH1 0x24 ADD PUSH2 0x76A JUMP JUMPDEST PUSH2 0xC8E PUSH0 DUP4 DUP4 PUSH2 0x1B93 JUMP JUMPDEST PUSH2 0xFFFF DUP3 AND PUSH0 SWAP1 DUP2 MSTORE PUSH1 0x3 PUSH1 0x20 MSTORE PUSH1 0x40 DUP2 KECCAK256 SLOAD SWAP1 DUP2 SWAP1 SUB PUSH2 0x1D0D JUMPI POP PUSH2 0x2710 JUMPDEST DUP1 DUP3 GT ISZERO PUSH2 0x1576 JUMPI PUSH1 0x40 MLOAD PUSH3 0x461BCD PUSH1 0xE5 SHL DUP2 MSTORE PUSH1 0x20 PUSH1 0x4 DUP3 ADD DUP2 SWAP1 MSTORE PUSH1 0x24 DUP3 ADD MSTORE PUSH32 0x4C7A4170703A207061796C6F61642073697A6520697320746F6F206C61726765 PUSH1 0x44 DUP3 ADD MSTORE PUSH1 0x64 ADD PUSH2 0x76A JUMP JUMPDEST DUP1 CALLDATALOAD PUSH2 0xFFFF DUP2 AND DUP2 EQ PUSH2 0x1D6E JUMPI PUSH0 DUP1 REVERT JUMPDEST SWAP2 SWAP1 POP JUMP JUMPDEST PUSH0 DUP1 DUP4 PUSH1 0x1F DUP5 ADD SLT PUSH2 0x1D83 JUMPI PUSH0 DUP1 REVERT JUMPDEST POP DUP2 CALLDATALOAD PUSH1 0x1 PUSH1 0x1 PUSH1 0x40 SHL SUB DUP2 GT ISZERO PUSH2 0x1D99 JUMPI PUSH0 DUP1 REVERT JUMPDEST PUSH1 0x20 DUP4 ADD SWAP2 POP DUP4 PUSH1 0x20 DUP3 DUP6 ADD ADD GT ISZERO PUSH2 0x1DB0 JUMPI PUSH0 DUP1 REVERT JUMPDEST SWAP3 POP SWAP3 SWAP1 POP JUMP JUMPDEST DUP1 CALLDATALOAD PUSH1 0x1 PUSH1 0x1 PUSH1 0x40 SHL SUB DUP2 AND DUP2 EQ PUSH2 0x1D6E JUMPI PUSH0 DUP1 REVERT JUMPDEST PUSH0 DUP1 PUSH0 DUP1 PUSH0 DUP1 PUSH1 0x80 DUP8 DUP10 SUB SLT ISZERO PUSH2 0x1DE2 JUMPI PUSH0 DUP1 REVERT JUMPDEST PUSH2 0x1DEB DUP8 PUSH2 0x1D5D JUMP JUMPDEST SWAP6 POP PUSH1 0x20 DUP8 ADD CALLDATALOAD PUSH1 0x1 PUSH1 0x1 PUSH1 0x40 SHL SUB DUP1 DUP3 GT ISZERO PUSH2 0x1E06 JUMPI PUSH0 DUP1 REVERT JUMPDEST PUSH2 0x1E12 DUP11 DUP4 DUP12 ADD PUSH2 0x1D73 JUMP JUMPDEST SWAP1 SWAP8 POP SWAP6 POP DUP6 SWAP2 POP PUSH2 0x1E26 PUSH1 0x40 DUP11 ADD PUSH2 0x1DB7 JUMP JUMPDEST SWAP5 POP PUSH1 0x60 DUP10 ADD CALLDATALOAD SWAP2 POP DUP1 DUP3 GT ISZERO PUSH2 0x1E3B JUMPI PUSH0 DUP1 REVERT JUMPDEST POP PUSH2 0x1E48 DUP10 DUP3 DUP11 ADD PUSH2 0x1D73 JUMP JUMPDEST SWAP8 SWAP11 SWAP7 SWAP10 POP SWAP5 SWAP8 POP SWAP3 SWAP6 SWAP4 SWAP5 SWAP3 POP POP POP JUMP JUMPDEST PUSH0 JUMPDEST DUP4 DUP2 LT ISZERO PUSH2 0x1E74 JUMPI DUP2 DUP2 ADD MLOAD DUP4 DUP3 ADD MSTORE PUSH1 0x20 ADD PUSH2 0x1E5C JUMP JUMPDEST POP POP PUSH0 SWAP2 ADD MSTORE JUMP JUMPDEST PUSH0 DUP2 MLOAD DUP1 DUP5 MSTORE PUSH2 0x1E93 DUP2 PUSH1 0x20 DUP7 ADD PUSH1 0x20 DUP7 ADD PUSH2 0x1E5A JUMP JUMPDEST PUSH1 0x1F ADD PUSH1 0x1F NOT AND SWAP3 SWAP1 SWAP3 ADD PUSH1 0x20 ADD SWAP3 SWAP2 POP POP JUMP JUMPDEST PUSH1 0x20 DUP2 MSTORE PUSH0 PUSH2 0xF81 PUSH1 0x20 DUP4 ADD DUP5 PUSH2 0x1E7C JUMP JUMPDEST PUSH0 PUSH1 0x20 DUP3 DUP5 SUB SLT ISZERO PUSH2 0x1EC9 JUMPI PUSH0 DUP1 REVERT JUMPDEST PUSH2 0xF81 DUP3 PUSH2 0x1D5D JUMP JUMPDEST PUSH1 0x1 PUSH1 0x1 PUSH1 0xA0 SHL SUB DUP2 AND DUP2 EQ PUSH2 0x1415 JUMPI PUSH0 DUP1 REVERT JUMPDEST PUSH0 DUP1 PUSH1 0x40 DUP4 DUP6 SUB SLT ISZERO PUSH2 0x1EF7 JUMPI PUSH0 DUP1 REVERT JUMPDEST DUP3 CALLDATALOAD PUSH2 0x1F02 DUP2 PUSH2 0x1ED2 JUMP JUMPDEST SWAP5 PUSH1 0x20 SWAP4 SWAP1 SWAP4 ADD CALLDATALOAD SWAP4 POP POP POP JUMP JUMPDEST PUSH0 DUP1 PUSH1 0x40 DUP4 DUP6 SUB SLT ISZERO PUSH2 0x1F21 JUMPI PUSH0 DUP1 REVERT JUMPDEST PUSH2 0x1F02 DUP4 PUSH2 0x1D5D JUMP JUMPDEST PUSH0 DUP1 PUSH0 PUSH1 0x60 DUP5 DUP7 SUB SLT ISZERO PUSH2 0x1F3C JUMPI PUSH0 DUP1 REVERT JUMPDEST DUP4 CALLDATALOAD PUSH2 0x1F47 DUP2 PUSH2 0x1ED2 JUMP JUMPDEST SWAP3 POP PUSH1 0x20 DUP5 ADD CALLDATALOAD PUSH2 0x1F57 DUP2 PUSH2 0x1ED2 JUMP JUMPDEST SWAP3 SWAP6 SWAP3 SWAP5 POP POP POP PUSH1 0x40 SWAP2 SWAP1 SWAP2 ADD CALLDATALOAD SWAP1 JUMP JUMPDEST PUSH0 DUP1 PUSH0 PUSH1 0x40 DUP5 DUP7 SUB SLT ISZERO PUSH2 0x1F7A JUMPI PUSH0 DUP1 REVERT JUMPDEST PUSH2 0x1F83 DUP5 PUSH2 0x1D5D JUMP JUMPDEST SWAP3 POP PUSH1 0x20 DUP5 ADD CALLDATALOAD PUSH1 0x1 PUSH1 0x1 PUSH1 0x40 SHL SUB DUP2 GT ISZERO PUSH2 0x1F9D JUMPI PUSH0 DUP1 REVERT JUMPDEST PUSH2 0x1FA9 DUP7 DUP3 DUP8 ADD PUSH2 0x1D73 JUMP JUMPDEST SWAP5 SWAP8 SWAP1 SWAP7 POP SWAP4 SWAP5 POP POP POP POP JUMP JUMPDEST PUSH4 0x4E487B71 PUSH1 0xE0 SHL PUSH0 MSTORE PUSH1 0x41 PUSH1 0x4 MSTORE PUSH1 0x24 PUSH0 REVERT JUMPDEST PUSH1 0x40 MLOAD PUSH1 0x1F DUP3 ADD PUSH1 0x1F NOT AND DUP2 ADD PUSH1 0x1 PUSH1 0x1 PUSH1 0x40 SHL SUB DUP2 GT DUP3 DUP3 LT OR ISZERO PUSH2 0x1FF2 JUMPI PUSH2 0x1FF2 PUSH2 0x1FB6 JUMP JUMPDEST PUSH1 0x40 MSTORE SWAP2 SWAP1 POP JUMP JUMPDEST PUSH0 PUSH1 0x1 PUSH1 0x1 PUSH1 0x40 SHL SUB DUP3 GT ISZERO PUSH2 0x2012 JUMPI PUSH2 0x2012 PUSH2 0x1FB6 JUMP JUMPDEST POP PUSH1 0x1F ADD PUSH1 0x1F NOT AND PUSH1 0x20 ADD SWAP1 JUMP JUMPDEST PUSH0 DUP1 PUSH0 PUSH1 0x60 DUP5 DUP7 SUB SLT ISZERO PUSH2 0x2032 JUMPI PUSH0 DUP1 REVERT JUMPDEST PUSH2 0x203B DUP5 PUSH2 0x1D5D JUMP JUMPDEST SWAP3 POP PUSH1 0x20 DUP5 ADD CALLDATALOAD PUSH1 0x1 PUSH1 0x1 PUSH1 0x40 SHL SUB DUP2 GT ISZERO PUSH2 0x2055 JUMPI PUSH0 DUP1 REVERT JUMPDEST DUP5 ADD PUSH1 0x1F DUP2 ADD DUP7 SGT PUSH2 0x2065 JUMPI PUSH0 DUP1 REVERT JUMPDEST DUP1 CALLDATALOAD PUSH2 0x2078 PUSH2 0x2073 DUP3 PUSH2 0x1FFA JUMP JUMPDEST PUSH2 0x1FCA JUMP JUMPDEST DUP2 DUP2 MSTORE DUP8 PUSH1 0x20 DUP4 DUP6 ADD ADD GT ISZERO PUSH2 0x208C JUMPI PUSH0 DUP1 REVERT JUMPDEST DUP2 PUSH1 0x20 DUP5 ADD PUSH1 0x20 DUP4 ADD CALLDATACOPY PUSH0 PUSH1 0x20 DUP4 DUP4 ADD ADD MSTORE DUP1 SWAP5 POP POP POP POP PUSH2 0x20B0 PUSH1 0x40 DUP6 ADD PUSH2 0x1DB7 JUMP JUMPDEST SWAP1 POP SWAP3 POP SWAP3 POP SWAP3 JUMP JUMPDEST PUSH0 PUSH1 0x20 DUP3 DUP5 SUB SLT ISZERO PUSH2 0x20C9 JUMPI PUSH0 DUP1 REVERT JUMPDEST DUP2 CALLDATALOAD PUSH2 0xF81 DUP2 PUSH2 0x1ED2 JUMP JUMPDEST PUSH0 DUP1 PUSH1 0x40 DUP4 DUP6 SUB SLT ISZERO PUSH2 0x20E5 JUMPI PUSH0 DUP1 REVERT JUMPDEST PUSH2 0x20EE DUP4 PUSH2 0x1D5D JUMP JUMPDEST SWAP2 POP PUSH2 0x20FC PUSH1 0x20 DUP5 ADD PUSH2 0x1D5D JUMP JUMPDEST SWAP1 POP SWAP3 POP SWAP3 SWAP1 POP JUMP JUMPDEST PUSH0 PUSH1 0x20 DUP3 DUP5 SUB SLT ISZERO PUSH2 0x2115 JUMPI PUSH0 DUP1 REVERT JUMPDEST POP CALLDATALOAD SWAP2 SWAP1 POP JUMP JUMPDEST PUSH0 DUP1 PUSH0 DUP1 PUSH0 PUSH1 0x80 DUP7 DUP9 SUB SLT ISZERO PUSH2 0x2130 JUMPI PUSH0 DUP1 REVERT JUMPDEST PUSH2 0x2139 DUP7 PUSH2 0x1D5D JUMP JUMPDEST SWAP5 POP PUSH2 0x2147 PUSH1 0x20 DUP8 ADD PUSH2 0x1D5D JUMP JUMPDEST SWAP4 POP PUSH1 0x40 DUP7 ADD CALLDATALOAD SWAP3 POP PUSH1 0x60 DUP7 ADD CALLDATALOAD PUSH1 0x1 PUSH1 0x1 PUSH1 0x40 SHL SUB DUP2 GT ISZERO PUSH2 0x2168 JUMPI PUSH0 DUP1 REVERT JUMPDEST PUSH2 0x2174 DUP9 DUP3 DUP10 ADD PUSH2 0x1D73 JUMP JUMPDEST SWAP7 SWAP10 SWAP6 SWAP9 POP SWAP4 SWAP7 POP SWAP3 SWAP5 SWAP4 SWAP3 POP POP POP JUMP JUMPDEST PUSH0 DUP1 PUSH1 0x40 DUP4 DUP6 SUB SLT ISZERO PUSH2 0x2196 JUMPI PUSH0 DUP1 REVERT JUMPDEST DUP3 CALLDATALOAD PUSH2 0x21A1 DUP2 PUSH2 0x1ED2 JUMP JUMPDEST SWAP2 POP PUSH1 0x20 DUP4 ADD CALLDATALOAD PUSH2 0x21B1 DUP2 PUSH2 0x1ED2 JUMP JUMPDEST DUP1 SWAP2 POP POP SWAP3 POP SWAP3 SWAP1 POP JUMP JUMPDEST PUSH0 DUP1 PUSH0 PUSH1 0x60 DUP5 DUP7 SUB SLT ISZERO PUSH2 0x21CE JUMPI PUSH0 DUP1 REVERT JUMPDEST PUSH2 0x21D7 DUP5 PUSH2 0x1D5D JUMP JUMPDEST SWAP3 POP PUSH2 0x21E5 PUSH1 0x20 DUP6 ADD PUSH2 0x1D5D JUMP JUMPDEST SWAP2 POP PUSH1 0x40 DUP5 ADD CALLDATALOAD SWAP1 POP SWAP3 POP SWAP3 POP SWAP3 JUMP JUMPDEST PUSH0 DUP1 PUSH0 DUP1 PUSH1 0x80 DUP6 DUP8 SUB SLT ISZERO PUSH2 0x2208 JUMPI PUSH0 DUP1 REVERT JUMPDEST PUSH2 0x2211 DUP6 PUSH2 0x1D5D JUMP JUMPDEST SWAP4 POP PUSH2 0x221F PUSH1 0x20 DUP7 ADD PUSH2 0x1D5D JUMP JUMPDEST SWAP3 POP PUSH1 0x40 DUP6 ADD CALLDATALOAD PUSH2 0x222F DUP2 PUSH2 0x1ED2 JUMP JUMPDEST SWAP4 SWAP7 SWAP3 SWAP6 POP SWAP3 SWAP4 PUSH1 0x60 ADD CALLDATALOAD SWAP3 POP POP JUMP JUMPDEST PUSH1 0x1 DUP2 DUP2 SHR SWAP1 DUP3 AND DUP1 PUSH2 0x2253 JUMPI PUSH1 0x7F DUP3 AND SWAP2 POP JUMPDEST PUSH1 0x20 DUP3 LT DUP2 SUB PUSH2 0x2271 JUMPI PUSH4 0x4E487B71 PUSH1 0xE0 SHL PUSH0 MSTORE PUSH1 0x22 PUSH1 0x4 MSTORE PUSH1 0x24 PUSH0 REVERT JUMPDEST POP SWAP2 SWAP1 POP JUMP JUMPDEST DUP2 DUP4 DUP3 CALLDATACOPY PUSH0 SWAP2 ADD SWAP1 DUP2 MSTORE SWAP2 SWAP1 POP JUMP JUMPDEST DUP2 DUP4 MSTORE DUP2 DUP2 PUSH1 0x20 DUP6 ADD CALLDATACOPY POP PUSH0 DUP3 DUP3 ADD PUSH1 0x20 SWAP1 DUP2 ADD SWAP2 SWAP1 SWAP2 MSTORE PUSH1 0x1F SWAP1 SWAP2 ADD PUSH1 0x1F NOT AND SWAP1 SWAP2 ADD ADD SWAP1 JUMP JUMPDEST PUSH2 0xFFFF DUP5 AND DUP2 MSTORE PUSH1 0x40 PUSH1 0x20 DUP3 ADD MSTORE PUSH0 PUSH2 0x14BC PUSH1 0x40 DUP4 ADD DUP5 DUP7 PUSH2 0x2286 JUMP JUMPDEST PUSH1 0x1F DUP3 GT ISZERO PUSH2 0x1576 JUMPI DUP1 PUSH0 MSTORE PUSH1 0x20 PUSH0 KECCAK256 PUSH1 0x1F DUP5 ADD PUSH1 0x5 SHR DUP2 ADD PUSH1 0x20 DUP6 LT ISZERO PUSH2 0x22F0 JUMPI POP DUP1 JUMPDEST PUSH1 0x1F DUP5 ADD PUSH1 0x5 SHR DUP3 ADD SWAP2 POP JUMPDEST DUP2 DUP2 LT ISZERO PUSH2 0xA2E JUMPI PUSH0 DUP2 SSTORE PUSH1 0x1 ADD PUSH2 0x22FC JUMP JUMPDEST DUP2 MLOAD PUSH1 0x1 PUSH1 0x1 PUSH1 0x40 SHL SUB DUP2 GT ISZERO PUSH2 0x2328 JUMPI PUSH2 0x2328 PUSH2 0x1FB6 JUMP JUMPDEST PUSH2 0x233C DUP2 PUSH2 0x2336 DUP5 SLOAD PUSH2 0x223F JUMP JUMPDEST DUP5 PUSH2 0x22CB JUMP JUMPDEST PUSH1 0x20 DUP1 PUSH1 0x1F DUP4 GT PUSH1 0x1 DUP2 EQ PUSH2 0x236F JUMPI PUSH0 DUP5 ISZERO PUSH2 0x2358 JUMPI POP DUP6 DUP4 ADD MLOAD JUMPDEST PUSH0 NOT PUSH1 0x3 DUP7 SWAP1 SHL SHR NOT AND PUSH1 0x1 DUP6 SWAP1 SHL OR DUP6 SSTORE PUSH2 0xD64 JUMP JUMPDEST PUSH0 DUP6 DUP2 MSTORE PUSH1 0x20 DUP2 KECCAK256 PUSH1 0x1F NOT DUP7 AND SWAP2 JUMPDEST DUP3 DUP2 LT ISZERO PUSH2 0x239D JUMPI DUP9 DUP7 ADD MLOAD DUP3 SSTORE SWAP5 DUP5 ADD SWAP5 PUSH1 0x1 SWAP1 SWAP2 ADD SWAP1 DUP5 ADD PUSH2 0x237E JUMP JUMPDEST POP DUP6 DUP3 LT ISZERO PUSH2 0x23BA JUMPI DUP8 DUP6 ADD MLOAD PUSH0 NOT PUSH1 0x3 DUP9 SWAP1 SHL PUSH1 0xF8 AND SHR NOT AND DUP2 SSTORE JUMPDEST POP POP POP POP POP PUSH1 0x1 SWAP1 DUP2 SHL ADD SWAP1 SSTORE POP JUMP JUMPDEST PUSH4 0x4E487B71 PUSH1 0xE0 SHL PUSH0 MSTORE PUSH1 0x11 PUSH1 0x4 MSTORE PUSH1 0x24 PUSH0 REVERT JUMPDEST DUP2 DUP2 SUB DUP2 DUP2 GT ISZERO PUSH2 0xA48 JUMPI PUSH2 0xA48 PUSH2 0x23CA JUMP JUMPDEST DUP3 DUP5 DUP3 CALLDATACOPY PUSH1 0x60 SWAP2 SWAP1 SWAP2 SHL PUSH12 0xFFFFFFFFFFFFFFFFFFFFFFFF NOT AND SWAP2 ADD SWAP1 DUP2 MSTORE PUSH1 0x14 ADD SWAP2 SWAP1 POP JUMP JUMPDEST PUSH0 PUSH2 0xFFFF DUP1 DUP9 AND DUP4 MSTORE DUP1 DUP8 AND PUSH1 0x20 DUP5 ADD MSTORE POP DUP5 PUSH1 0x40 DUP4 ADD MSTORE PUSH1 0x80 PUSH1 0x60 DUP4 ADD MSTORE PUSH2 0x2444 PUSH1 0x80 DUP4 ADD DUP5 DUP7 PUSH2 0x2286 JUMP JUMPDEST SWAP8 SWAP7 POP POP POP POP POP POP POP JUMP JUMPDEST PUSH2 0xFFFF DUP7 AND DUP2 MSTORE PUSH1 0x80 PUSH1 0x20 DUP3 ADD MSTORE PUSH0 PUSH2 0x246C PUSH1 0x80 DUP4 ADD DUP7 DUP9 PUSH2 0x2286 JUMP JUMPDEST PUSH1 0x1 PUSH1 0x1 PUSH1 0x40 SHL SUB SWAP5 SWAP1 SWAP5 AND PUSH1 0x40 DUP4 ADD MSTORE POP PUSH1 0x60 ADD MSTORE SWAP4 SWAP3 POP POP POP JUMP JUMPDEST PUSH1 0x1 PUSH1 0x1 PUSH1 0x40 SHL SUB DUP4 GT ISZERO PUSH2 0x24A0 JUMPI PUSH2 0x24A0 PUSH2 0x1FB6 JUMP JUMPDEST PUSH2 0x24B4 DUP4 PUSH2 0x24AE DUP4 SLOAD PUSH2 0x223F JUMP JUMPDEST DUP4 PUSH2 0x22CB JUMP JUMPDEST PUSH0 PUSH1 0x1F DUP5 GT PUSH1 0x1 DUP2 EQ PUSH2 0x24E5 JUMPI PUSH0 DUP6 ISZERO PUSH2 0x24CE JUMPI POP DUP4 DUP3 ADD CALLDATALOAD JUMPDEST PUSH0 NOT PUSH1 0x3 DUP8 SWAP1 SHL SHR NOT AND PUSH1 0x1 DUP7 SWAP1 SHL OR DUP4 SSTORE PUSH2 0xA2E JUMP JUMPDEST PUSH0 DUP4 DUP2 MSTORE PUSH1 0x20 DUP2 KECCAK256 PUSH1 0x1F NOT DUP8 AND SWAP2 JUMPDEST DUP3 DUP2 LT ISZERO PUSH2 0x2514 JUMPI DUP7 DUP6 ADD CALLDATALOAD DUP3 SSTORE PUSH1 0x20 SWAP5 DUP6 ADD SWAP5 PUSH1 0x1 SWAP1 SWAP3 ADD SWAP2 ADD PUSH2 0x24F4 JUMP JUMPDEST POP DUP7 DUP3 LT ISZERO PUSH2 0x2530 JUMPI PUSH0 NOT PUSH1 0xF8 DUP9 PUSH1 0x3 SHL AND SHR NOT DUP5 DUP8 ADD CALLDATALOAD AND DUP2 SSTORE JUMPDEST POP POP PUSH1 0x1 DUP6 PUSH1 0x1 SHL ADD DUP4 SSTORE POP POP POP POP POP JUMP JUMPDEST PUSH0 PUSH1 0x20 DUP3 DUP5 SUB SLT ISZERO PUSH2 0x2552 JUMPI PUSH0 DUP1 REVERT JUMPDEST DUP2 MLOAD PUSH1 0x1 PUSH1 0x1 PUSH1 0x40 SHL SUB DUP2 GT ISZERO PUSH2 0x2567 JUMPI PUSH0 DUP1 REVERT JUMPDEST DUP3 ADD PUSH1 0x1F DUP2 ADD DUP5 SGT PUSH2 0x2577 JUMPI PUSH0 DUP1 REVERT JUMPDEST DUP1 MLOAD PUSH2 0x2585 PUSH2 0x2073 DUP3 PUSH2 0x1FFA JUMP JUMPDEST DUP2 DUP2 MSTORE DUP6 PUSH1 0x20 DUP4 DUP6 ADD ADD GT ISZERO PUSH2 0x2599 JUMPI PUSH0 DUP1 REVERT JUMPDEST PUSH2 0x14BC DUP3 PUSH1 0x20 DUP4 ADD PUSH1 0x20 DUP7 ADD PUSH2 0x1E5A JUMP JUMPDEST PUSH2 0xFFFF DUP6 AND DUP2 MSTORE PUSH1 0x80 PUSH1 0x20 DUP3 ADD MSTORE PUSH0 PUSH2 0x25C6 PUSH1 0x80 DUP4 ADD DUP7 PUSH2 0x1E7C JUMP JUMPDEST PUSH1 0x1 PUSH1 0x1 PUSH1 0x40 SHL SUB DUP6 AND PUSH1 0x40 DUP5 ADD MSTORE DUP3 DUP2 SUB PUSH1 0x60 DUP5 ADD MSTORE PUSH2 0x2444 DUP2 DUP6 PUSH2 0x1E7C JUMP JUMPDEST PUSH0 DUP1 PUSH1 0x40 DUP4 DUP6 SUB SLT ISZERO PUSH2 0x25F8 JUMPI PUSH0 DUP1 REVERT JUMPDEST DUP3 MLOAD PUSH2 0x2603 DUP2 PUSH2 0x1ED2 JUMP JUMPDEST PUSH1 0x20 SWAP4 SWAP1 SWAP4 ADD MLOAD SWAP3 SWAP5 SWAP3 SWAP4 POP POP POP JUMP JUMPDEST PUSH2 0xFFFF DUP8 AND DUP2 MSTORE PUSH1 0xC0 PUSH1 0x20 DUP3 ADD MSTORE PUSH0 PUSH2 0x262F PUSH1 0xC0 DUP4 ADD DUP9 PUSH2 0x1E7C JUMP JUMPDEST DUP3 DUP2 SUB PUSH1 0x40 DUP5 ADD MSTORE PUSH2 0x2641 DUP2 DUP9 PUSH2 0x1E7C JUMP JUMPDEST PUSH1 0x1 PUSH1 0x1 PUSH1 0xA0 SHL SUB DUP8 DUP2 AND PUSH1 0x60 DUP7 ADD MSTORE DUP7 AND PUSH1 0x80 DUP6 ADD MSTORE DUP4 DUP2 SUB PUSH1 0xA0 DUP6 ADD MSTORE SWAP1 POP PUSH2 0x266C DUP2 DUP6 PUSH2 0x1E7C JUMP JUMPDEST SWAP10 SWAP9 POP POP POP POP POP POP POP POP POP JUMP JUMPDEST DUP1 DUP3 ADD DUP1 DUP3 GT ISZERO PUSH2 0xA48 JUMPI PUSH2 0xA48 PUSH2 0x23CA JUMP JUMPDEST PUSH0 DUP3 MLOAD PUSH2 0x269D DUP2 DUP5 PUSH1 0x20 DUP8 ADD PUSH2 0x1E5A JUMP JUMPDEST SWAP2 SWAP1 SWAP2 ADD SWAP3 SWAP2 POP POP JUMP JUMPDEST PUSH2 0xFFFF DUP7 AND DUP2 MSTORE PUSH1 0xA0 PUSH1 0x20 DUP3 ADD MSTORE PUSH0 PUSH2 0x26C3 PUSH1 0xA0 DUP4 ADD DUP8 PUSH2 0x1E7C JUMP JUMPDEST PUSH1 0x1 PUSH1 0x1 PUSH1 0x40 SHL SUB DUP7 AND PUSH1 0x40 DUP5 ADD MSTORE DUP3 DUP2 SUB PUSH1 0x60 DUP5 ADD MSTORE PUSH2 0x26E4 DUP2 DUP7 PUSH2 0x1E7C JUMP JUMPDEST SWAP1 POP DUP3 DUP2 SUB PUSH1 0x80 DUP5 ADD MSTORE PUSH2 0x26F8 DUP2 DUP6 PUSH2 0x1E7C JUMP JUMPDEST SWAP9 SWAP8 POP POP POP POP POP POP POP POP JUMP INVALID LOG2 PUSH5 0x6970667358 0x22 SLT KECCAK256 0xBA EXTCODEHASH PUSH16 0x900CEF4FB234F1EF21B38005EFAD2A3C 0xBB PUSH17 0x630F0003FED6D23839CA4864736F6C6343 STOP ADDMOD AND STOP CALLER "
				},
				"gasEstimates": {
					"creation": {
						"codeDepositCost": "2008400",
						"executionCost": "infinite",
						"totalCost": "infinite"
					},
					"external": {
						"DEFAULT_PAYLOAD_SIZE_LIMIT()": "261",
						"allowance(address,address)": "infinite",
						"approve(address,uint256)": "24819",
						"balanceOf(address)": "2617",
						"bridge(uint256)": "infinite",
						"decimals()": "310",
						"failedMessages(uint16,bytes,uint64)": "infinite",
						"forceResumeReceive(uint16,bytes)": "infinite",
						"getConfig(uint16,uint16,address,uint256)": "infinite",
						"getTrustedRemoteAddress(uint16)": "infinite",
						"isTrustedRemote(uint16,bytes)": "infinite",
						"lzEndpoint()": "infinite",
						"lzReceive(uint16,bytes,uint64,bytes)": "infinite",
						"minDstGasLookup(uint16,uint16)": "infinite",
						"name()": "infinite",
						"nonblockingLzReceive(uint16,bytes,uint64,bytes)": "infinite",
						"owner()": "2386",
						"payloadSizeLimitLookup(uint16)": "2572",
						"precrime()": "2448",
						"renounceOwnership()": "infinite",
						"retryMessage(uint16,bytes,uint64,bytes)": "infinite",
						"setConfig(uint16,uint16,uint256,bytes)": "infinite",
						"setMinDstGas(uint16,uint16,uint256)": "infinite",
						"setPayloadSizeLimit(uint16,uint256)": "24698",
						"setPrecrime(address)": "27824",
						"setReceiveVersion(uint16)": "infinite",
						"setSendVersion(uint16)": "infinite",
						"setTrustedRemote(uint16,bytes)": "infinite",
						"setTrustedRemoteAddress(uint16,bytes)": "infinite",
						"symbol()": "infinite",
						"totalSupply()": "2370",
						"transfer(address,uint256)": "51312",
						"transferFrom(address,address,uint256)": "infinite",
						"transferOwnership(address)": "infinite",
						"trustAddress(address)": "infinite",
						"trustedRemoteLookup(uint16)": "infinite"
					},
					"internal": {
						"_nonblockingLzReceive(uint16,bytes memory,uint64,bytes memory)": "infinite"
					}
				},
				"methodIdentifiers": {
					"DEFAULT_PAYLOAD_SIZE_LIMIT()": "c4461834",
					"allowance(address,address)": "dd62ed3e",
					"approve(address,uint256)": "095ea7b3",
					"balanceOf(address)": "70a08231",
					"bridge(uint256)": "90fd50b3",
					"decimals()": "313ce567",
					"failedMessages(uint16,bytes,uint64)": "5b8c41e6",
					"forceResumeReceive(uint16,bytes)": "42d65a8d",
					"getConfig(uint16,uint16,address,uint256)": "f5ecbdbc",
					"getTrustedRemoteAddress(uint16)": "9f38369a",
					"isTrustedRemote(uint16,bytes)": "3d8b38f6",
					"lzEndpoint()": "b353aaa7",
					"lzReceive(uint16,bytes,uint64,bytes)": "001d3567",
					"minDstGasLookup(uint16,uint16)": "8cfd8f5c",
					"name()": "06fdde03",
					"nonblockingLzReceive(uint16,bytes,uint64,bytes)": "66ad5c8a",
					"owner()": "8da5cb5b",
					"payloadSizeLimitLookup(uint16)": "3f1f4fa4",
					"precrime()": "950c8a74",
					"renounceOwnership()": "715018a6",
					"retryMessage(uint16,bytes,uint64,bytes)": "d1deba1f",
					"setConfig(uint16,uint16,uint256,bytes)": "cbed8b9c",
					"setMinDstGas(uint16,uint16,uint256)": "df2a5b3b",
					"setPayloadSizeLimit(uint16,uint256)": "0df37483",
					"setPrecrime(address)": "baf3292d",
					"setReceiveVersion(uint16)": "10ddb137",
					"setSendVersion(uint16)": "07e0db17",
					"setTrustedRemote(uint16,bytes)": "eb8d72b7",
					"setTrustedRemoteAddress(uint16,bytes)": "a6c3d165",
					"symbol()": "95d89b41",
					"totalSupply()": "18160ddd",
					"transfer(address,uint256)": "a9059cbb",
					"transferFrom(address,address,uint256)": "23b872dd",
					"transferOwnership(address)": "f2fde38b",
					"trustAddress(address)": "5cdf1649",
					"trustedRemoteLookup(uint16)": "7533d788"
				}
			},
			"storageLayout": {
				"storage": [
					{
						"astId": 8,
						"contract": "CrossChainToken.sol:CrossChainToken",
						"label": "_owner",
						"offset": 0,
						"slot": "0",
						"type": "t_address"
					},
					{
						"astId": 1530,
						"contract": "CrossChainToken.sol:CrossChainToken",
						"label": "trustedRemoteLookup",
						"offset": 0,
						"slot": "1",
						"type": "t_mapping(t_uint16,t_bytes_storage)"
					},
					{
						"astId": 1536,
						"contract": "CrossChainToken.sol:CrossChainToken",
						"label": "minDstGasLookup",
						"offset": 0,
						"slot": "2",
						"type": "t_mapping(t_uint16,t_mapping(t_uint16,t_uint256))"
					},
					{
						"astId": 1540,
						"contract": "CrossChainToken.sol:CrossChainToken",
						"label": "payloadSizeLimitLookup",
						"offset": 0,
						"slot": "3",
						"type": "t_mapping(t_uint16,t_uint256)"
					},
					{
						"astId": 1542,
						"contract": "CrossChainToken.sol:CrossChainToken",
						"label": "precrime",
						"offset": 0,
						"slot": "4",
						"type": "t_address"
					},
					{
						"astId": 2072,
						"contract": "CrossChainToken.sol:CrossChainToken",
						"label": "failedMessages",
						"offset": 0,
						"slot": "5",
						"type": "t_mapping(t_uint16,t_mapping(t_bytes_memory_ptr,t_mapping(t_uint64,t_bytes32)))"
					},
					{
						"astId": 307,
						"contract": "CrossChainToken.sol:CrossChainToken",
						"label": "_balances",
						"offset": 0,
						"slot": "6",
						"type": "t_mapping(t_address,t_uint256)"
					},
					{
						"astId": 313,
						"contract": "CrossChainToken.sol:CrossChainToken",
						"label": "_allowances",
						"offset": 0,
						"slot": "7",
						"type": "t_mapping(t_address,t_mapping(t_address,t_uint256))"
					},
					{
						"astId": 315,
						"contract": "CrossChainToken.sol:CrossChainToken",
						"label": "_totalSupply",
						"offset": 0,
						"slot": "8",
						"type": "t_uint256"
					},
					{
						"astId": 317,
						"contract": "CrossChainToken.sol:CrossChainToken",
						"label": "_name",
						"offset": 0,
						"slot": "9",
						"type": "t_string_storage"
					},
					{
						"astId": 319,
						"contract": "CrossChainToken.sol:CrossChainToken",
						"label": "_symbol",
						"offset": 0,
						"slot": "10",
						"type": "t_string_storage"
					},
					{
						"astId": 935,
						"contract": "CrossChainToken.sol:CrossChainToken",
						"label": "destChainId",
						"offset": 0,
						"slot": "11",
						"type": "t_uint16"
					}
				],
				"types": {
					"t_address": {
						"encoding": "inplace",
						"label": "address",
						"numberOfBytes": "20"
					},
					"t_bytes32": {
						"encoding": "inplace",
						"label": "bytes32",
						"numberOfBytes": "32"
					},
					"t_bytes_memory_ptr": {
						"encoding": "bytes",
						"label": "bytes",
						"numberOfBytes": "32"
					},
					"t_bytes_storage": {
						"encoding": "bytes",
						"label": "bytes",
						"numberOfBytes": "32"
					},
					"t_mapping(t_address,t_mapping(t_address,t_uint256))": {
						"encoding": "mapping",
						"key": "t_address",
						"label": "mapping(address => mapping(address => uint256))",
						"numberOfBytes": "32",
						"value": "t_mapping(t_address,t_uint256)"
					},
					"t_mapping(t_address,t_uint256)": {
						"encoding": "mapping",
						"key": "t_address",
						"label": "mapping(address => uint256)",
						"numberOfBytes": "32",
						"value": "t_uint256"
					},
					"t_mapping(t_bytes_memory_ptr,t_mapping(t_uint64,t_bytes32))": {
						"encoding": "mapping",
						"key": "t_bytes_memory_ptr",
						"label": "mapping(bytes => mapping(uint64 => bytes32))",
						"numberOfBytes": "32",
						"value": "t_mapping(t_uint64,t_bytes32)"
					},
					"t_mapping(t_uint16,t_bytes_storage)": {
						"encoding": "mapping",
						"key": "t_uint16",
						"label": "mapping(uint16 => bytes)",
						"numberOfBytes": "32",
						"value": "t_bytes_storage"
					},
					"t_mapping(t_uint16,t_mapping(t_bytes_memory_ptr,t_mapping(t_uint64,t_bytes32)))": {
						"encoding": "mapping",
						"key": "t_uint16",
						"label": "mapping(uint16 => mapping(bytes => mapping(uint64 => bytes32)))",
						"numberOfBytes": "32",
						"value": "t_mapping(t_bytes_memory_ptr,t_mapping(t_uint64,t_bytes32))"
					},
					"t_mapping(t_uint16,t_mapping(t_uint16,t_uint256))": {
						"encoding": "mapping",
						"key": "t_uint16",
						"label": "mapping(uint16 => mapping(uint16 => uint256))",
						"numberOfBytes": "32",
						"value": "t_mapping(t_uint16,t_uint256)"
					},
					"t_mapping(t_uint16,t_uint256)": {
						"encoding": "mapping",
						"key": "t_uint16",
						"label": "mapping(uint16 => uint256)",
						"numberOfBytes": "32",
						"value": "t_uint256"
					},
					"t_mapping(t_uint64,t_bytes32)": {
						"encoding": "mapping",
						"key": "t_uint64",
						"label": "mapping(uint64 => bytes32)",
						"numberOfBytes": "32",
						"value": "t_bytes32"
					},
					"t_string_storage": {
						"encoding": "bytes",
						"label": "string",
						"numberOfBytes": "32"
					},
					"t_uint16": {
						"encoding": "inplace",
						"label": "uint16",
						"numberOfBytes": "2"
					},
					"t_uint256": {
						"encoding": "inplace",
						"label": "uint256",
						"numberOfBytes": "32"
					},
					"t_uint64": {
						"encoding": "inplace",
						"label": "uint64",
						"numberOfBytes": "8"
					}
				}
			},
			"userdoc": {
				"kind": "user",
				"methods": {},
				"version": 1
			}
		}
	}
}