{
	"LayerZeroTest.sol": {
		"LayerZeroTest": {
			"abi": [
				{
					"inputs": [
						{
							"internalType": "address",
							"name": "_lzEndpoint",
							"type": "address"
						}
					],
					"stateMutability": "nonpayable",
					"type": "constructor"
				},
				{
					"inputs": [
						{
							"internalType": "address",
							"name": "owner",
							"type": "address"
						}
					],
					"name": "OwnableInvalidOwner",
					"type": "error"
				},
				{
					"inputs": [
						{
							"internalType": "address",
							"name": "account",
							"type": "address"
						}
					],
					"name": "OwnableUnauthorizedAccount",
					"type": "error"
				},
				{
					"anonymous": false,
					"inputs": [
						{
							"indexed": false,
							"internalType": "uint16",
							"name": "_srcChainId",
							"type": "uint16"
						},
						{
							"indexed": false,
							"internalType": "bytes",
							"name": "_srcAddress",
							"type": "bytes"
						},
						{
							"indexed": false,
							"internalType": "uint64",
							"name": "_nonce",
							"type": "uint64"
						},
						{
							"indexed": false,
							"internalType": "bytes",
							"name": "_payload",
							"type": "bytes"
						},
						{
							"indexed": false,
							"internalType": "bytes",
							"name": "_reason",
							"type": "bytes"
						}
					],
					"name": "MessageFailed",
					"type": "event"
				},
				{
					"anonymous": false,
					"inputs": [
						{
							"indexed": true,
							"internalType": "address",
							"name": "previousOwner",
							"type": "address"
						},
						{
							"indexed": true,
							"internalType": "address",
							"name": "newOwner",
							"type": "address"
						}
					],
					"name": "OwnershipTransferred",
					"type": "event"
				},
				{
					"anonymous": false,
					"inputs": [
						{
							"indexed": false,
							"internalType": "uint16",
							"name": "_srcChainId",
							"type": "uint16"
						},
						{
							"indexed": false,
							"internalType": "bytes",
							"name": "_srcAddress",
							"type": "bytes"
						},
						{
							"indexed": false,
							"internalType": "uint64",
							"name": "_nonce",
							"type": "uint64"
						},
						{
							"indexed": false,
							"internalType": "bytes32",
							"name": "_payloadHash",
							"type": "bytes32"
						}
					],
					"name": "RetryMessageSuccess",
					"type": "event"
				},
				{
					"anonymous": false,
					"inputs": [
						{
							"indexed": false,
							"internalType": "uint16",
							"name": "_dstChainId",
							"type": "uint16"
						},
						{
							"indexed": false,
							"internalType": "uint16",
							"name": "_type",
							"type": "uint16"
						},
						{
							"indexed": false,
							"internalType": "uint256",
							"name": "_minDstGas",
							"type": "uint256"
						}
					],
					"name": "SetMinDstGas",
					"type": "event"
				},
				{
					"anonymous": false,
					"inputs": [
						{
							"indexed": false,
							"internalType": "address",
							"name": "precrime",
							"type": "address"
						}
					],
					"name": "SetPrecrime",
					"type": "event"
				},
				{
					"anonymous": false,
					"inputs": [
						{
							"indexed": false,
							"internalType": "uint16",
							"name": "_remoteChainId",
							"type": "uint16"
						},
						{
							"indexed": false,
							"internalType": "bytes",
							"name": "_path",
							"type": "bytes"
						}
					],
					"name": "SetTrustedRemote",
					"type": "event"
				},
				{
					"anonymous": false,
					"inputs": [
						{
							"indexed": false,
							"internalType": "uint16",
							"name": "_remoteChainId",
							"type": "uint16"
						},
						{
							"indexed": false,
							"internalType": "bytes",
							"name": "_remoteAddress",
							"type": "bytes"
						}
					],
					"name": "SetTrustedRemoteAddress",
					"type": "event"
				},
				{
					"inputs": [],
					"name": "DEFAULT_PAYLOAD_SIZE_LIMIT",
					"outputs": [
						{
							"internalType": "uint256",
							"name": "",
							"type": "uint256"
						}
					],
					"stateMutability": "view",
					"type": "function"
				},
				{
					"inputs": [],
					"name": "data",
					"outputs": [
						{
							"internalType": "string",
							"name": "",
							"type": "string"
						}
					],
					"stateMutability": "view",
					"type": "function"
				},
				{
					"inputs": [
						{
							"internalType": "uint16",
							"name": "",
							"type": "uint16"
						},
						{
							"internalType": "bytes",
							"name": "",
							"type": "bytes"
						},
						{
							"internalType": "uint64",
							"name": "",
							"type": "uint64"
						}
					],
					"name": "failedMessages",
					"outputs": [
						{
							"internalType": "bytes32",
							"name": "",
							"type": "bytes32"
						}
					],
					"stateMutability": "view",
					"type": "function"
				},
				{
					"inputs": [
						{
							"internalType": "uint16",
							"name": "_srcChainId",
							"type": "uint16"
						},
						{
							"internalType": "bytes",
							"name": "_srcAddress",
							"type": "bytes"
						}
					],
					"name": "forceResumeReceive",
					"outputs": [],
					"stateMutability": "nonpayable",
					"type": "function"
				},
				{
					"inputs": [
						{
							"internalType": "uint16",
							"name": "_version",
							"type": "uint16"
						},
						{
							"internalType": "uint16",
							"name": "_chainId",
							"type": "uint16"
						},
						{
							"internalType": "address",
							"name": "",
							"type": "address"
						},
						{
							"internalType": "uint256",
							"name": "_configType",
							"type": "uint256"
						}
					],
					"name": "getConfig",
					"outputs": [
						{
							"internalType": "bytes",
							"name": "",
							"type": "bytes"
						}
					],
					"stateMutability": "view",
					"type": "function"
				},
				{
					"inputs": [
						{
							"internalType": "uint16",
							"name": "_remoteChainId",
							"type": "uint16"
						}
					],
					"name": "getTrustedRemoteAddress",
					"outputs": [
						{
							"internalType": "bytes",
							"name": "",
							"type": "bytes"
						}
					],
					"stateMutability": "view",
					"type": "function"
				},
				{
					"inputs": [
						{
							"internalType": "uint16",
							"name": "_srcChainId",
							"type": "uint16"
						},
						{
							"internalType": "bytes",
							"name": "_srcAddress",
							"type": "bytes"
						}
					],
					"name": "isTrustedRemote",
					"outputs": [
						{
							"internalType": "bool",
							"name": "",
							"type": "bool"
						}
					],
					"stateMutability": "view",
					"type": "function"
				},
				{
					"inputs": [],
					"name": "lzEndpoint",
					"outputs": [
						{
							"internalType": "contract ILayerZeroEndpoint",
							"name": "",
							"type": "address"
						}
					],
					"stateMutability": "view",
					"type": "function"
				},
				{
					"inputs": [
						{
							"internalType": "uint16",
							"name": "_srcChainId",
							"type": "uint16"
						},
						{
							"internalType": "bytes",
							"name": "_srcAddress",
							"type": "bytes"
						},
						{
							"internalType": "uint64",
							"name": "_nonce",
							"type": "uint64"
						},
						{
							"internalType": "bytes",
							"name": "_payload",
							"type": "bytes"
						}
					],
					"name": "lzReceive",
					"outputs": [],
					"stateMutability": "nonpayable",
					"type": "function"
				},
				{
					"inputs": [
						{
							"internalType": "uint16",
							"name": "",
							"type": "uint16"
						},
						{
							"internalType": "uint16",
							"name": "",
							"type": "uint16"
						}
					],
					"name": "minDstGasLookup",
					"outputs": [
						{
							"internalType": "uint256",
							"name": "",
							"type": "uint256"
						}
					],
					"stateMutability": "view",
					"type": "function"
				},
				{
					"inputs": [
						{
							"internalType": "uint16",
							"name": "_srcChainId",
							"type": "uint16"
						},
						{
							"internalType": "bytes",
							"name": "_srcAddress",
							"type": "bytes"
						},
						{
							"internalType": "uint64",
							"name": "_nonce",
							"type": "uint64"
						},
						{
							"internalType": "bytes",
							"name": "_payload",
							"type": "bytes"
						}
					],
					"name": "nonblockingLzReceive",
					"outputs": [],
					"stateMutability": "nonpayable",
					"type": "function"
				},
				{
					"inputs": [],
					"name": "owner",
					"outputs": [
						{
							"internalType": "address",
							"name": "",
							"type": "address"
						}
					],
					"stateMutability": "view",
					"type": "function"
				},
				{
					"inputs": [
						{
							"internalType": "uint16",
							"name": "",
							"type": "uint16"
						}
					],
					"name": "payloadSizeLimitLookup",
					"outputs": [
						{
							"internalType": "uint256",
							"name": "",
							"type": "uint256"
						}
					],
					"stateMutability": "view",
					"type": "function"
				},
				{
					"inputs": [],
					"name": "precrime",
					"outputs": [
						{
							"internalType": "address",
							"name": "",
							"type": "address"
						}
					],
					"stateMutability": "view",
					"type": "function"
				},
				{
					"inputs": [],
					"name": "renounceOwnership",
					"outputs": [],
					"stateMutability": "nonpayable",
					"type": "function"
				},
				{
					"inputs": [
						{
							"internalType": "uint16",
							"name": "_srcChainId",
							"type": "uint16"
						},
						{
							"internalType": "bytes",
							"name": "_srcAddress",
							"type": "bytes"
						},
						{
							"internalType": "uint64",
							"name": "_nonce",
							"type": "uint64"
						},
						{
							"internalType": "bytes",
							"name": "_payload",
							"type": "bytes"
						}
					],
					"name": "retryMessage",
					"outputs": [],
					"stateMutability": "payable",
					"type": "function"
				},
				{
					"inputs": [
						{
							"internalType": "string",
							"name": "_message",
							"type": "string"
						}
					],
					"name": "send",
					"outputs": [],
					"stateMutability": "payable",
					"type": "function"
				},
				{
					"inputs": [
						{
							"internalType": "uint16",
							"name": "_version",
							"type": "uint16"
						},
						{
							"internalType": "uint16",
							"name": "_chainId",
							"type": "uint16"
						},
						{
							"internalType": "uint256",
							"name": "_configType",
							"type": "uint256"
						},
						{
							"internalType": "bytes",
							"name": "_config",
							"type": "bytes"
						}
					],
					"name": "setConfig",
					"outputs": [],
					"stateMutability": "nonpayable",
					"type": "function"
				},
				{
					"inputs": [
						{
							"internalType": "uint16",
							"name": "_dstChainId",
							"type": "uint16"
						},
						{
							"internalType": "uint16",
							"name": "_packetType",
							"type": "uint16"
						},
						{
							"internalType": "uint256",
							"name": "_minGas",
							"type": "uint256"
						}
					],
					"name": "setMinDstGas",
					"outputs": [],
					"stateMutability": "nonpayable",
					"type": "function"
				},
				{
					"inputs": [
						{
							"internalType": "uint16",
							"name": "_dstChainId",
							"type": "uint16"
						},
						{
							"internalType": "uint256",
							"name": "_size",
							"type": "uint256"
						}
					],
					"name": "setPayloadSizeLimit",
					"outputs": [],
					"stateMutability": "nonpayable",
					"type": "function"
				},
				{
					"inputs": [
						{
							"internalType": "address",
							"name": "_precrime",
							"type": "address"
						}
					],
					"name": "setPrecrime",
					"outputs": [],
					"stateMutability": "nonpayable",
					"type": "function"
				},
				{
					"inputs": [
						{
							"internalType": "uint16",
							"name": "_version",
							"type": "uint16"
						}
					],
					"name": "setReceiveVersion",
					"outputs": [],
					"stateMutability": "nonpayable",
					"type": "function"
				},
				{
					"inputs": [
						{
							"internalType": "uint16",
							"name": "_version",
							"type": "uint16"
						}
					],
					"name": "setSendVersion",
					"outputs": [],
					"stateMutability": "nonpayable",
					"type": "function"
				},
				{
					"inputs": [
						{
							"internalType": "uint16",
							"name": "_remoteChainId",
							"type": "uint16"
						},
						{
							"internalType": "bytes",
							"name": "_path",
							"type": "bytes"
						}
					],
					"name": "setTrustedRemote",
					"outputs": [],
					"stateMutability": "nonpayable",
					"type": "function"
				},
				{
					"inputs": [
						{
							"internalType": "uint16",
							"name": "_remoteChainId",
							"type": "uint16"
						},
						{
							"internalType": "bytes",
							"name": "_remoteAddress",
							"type": "bytes"
						}
					],
					"name": "setTrustedRemoteAddress",
					"outputs": [],
					"stateMutability": "nonpayable",
					"type": "function"
				},
				{
					"inputs": [
						{
							"internalType": "address",
							"name": "newOwner",
							"type": "address"
						}
					],
					"name": "transferOwnership",
					"outputs": [],
					"stateMutability": "nonpayable",
					"type": "function"
				},
				{
					"inputs": [
						{
							"internalType": "address",
							"name": "_otherContract",
							"type": "address"
						}
					],
					"name": "trustAddress",
					"outputs": [],
					"stateMutability": "nonpayable",
					"type": "function"
				},
				{
					"inputs": [
						{
							"internalType": "uint16",
							"name": "",
							"type": "uint16"
						}
					],
					"name": "trustedRemoteLookup",
					"outputs": [
						{
							"internalType": "bytes",
							"name": "",
							"type": "bytes"
						}
					],
					"stateMutability": "view",
					"type": "function"
				}
			],
			"devdoc": {
				"errors": {
					"OwnableInvalidOwner(address)": [
						{
							"details": "The owner is not a valid owner account. (eg. `address(0)`)"
						}
					],
					"OwnableUnauthorizedAccount(address)": [
						{
							"details": "The caller account is not authorized to perform an operation."
						}
					]
				},
				"kind": "dev",
				"methods": {
					"owner()": {
						"details": "Returns the address of the current owner."
					},
					"renounceOwnership()": {
						"details": "Leaves the contract without owner. It will not be possible to call `onlyOwner` functions. Can only be called by the current owner. NOTE: Renouncing ownership will leave the contract without an owner, thereby disabling any functionality that is only available to the owner."
					},
					"transferOwnership(address)": {
						"details": "Transfers ownership of the contract to a new account (`newOwner`). Can only be called by the current owner."
					}
				},
				"version": 1
			},
			"evm": {
				"assembly": "    /* \"LayerZeroTest.sol\":561:604  string public data = \"Nothing received yet\" */\n  0xe0\n    /* \"LayerZeroTest.sol\":511:1482  contract LayerZeroTest is NonblockingLzApp {... */\n  0x40\n    /* \"LayerZeroTest.sol\":561:604  string public data = \"Nothing received yet\" */\n  mstore\n  0x14\n    /* \"LayerZeroTest.sol\":511:1482  contract LayerZeroTest is NonblockingLzApp {... */\n  0xa0\n    /* \"LayerZeroTest.sol\":561:604  string public data = \"Nothing received yet\" */\n  swap1\n  dup2\n  mstore\n  mstore(0xc0, 0x4e6f7468696e6720726563656976656420796574000000000000000000000000)\n  0x06\n  swap1\n  tag_1\n  swap1\n  dup3\n  tag_2\n  jump\t// in\ntag_1:\n  pop\n    /* \"LayerZeroTest.sol\":642:919  constructor(address _lzEndpoint) NonblockingLzApp(_lzEndpoint) Ownable(msg.sender) {... */\n  callvalue\n  dup1\n  iszero\n  tag_3\n  jumpi\n  0x00\n  dup1\n  revert\ntag_3:\n  pop\n  mload(0x40)\n  sub(codesize, bytecodeSize)\n  dup1\n  bytecodeSize\n  dup4\n  codecopy\n  dup2\n  add\n  0x40\n  dup2\n  swap1\n  mstore\n  tag_4\n  swap2\n  tag_5\n  jump\t// in\ntag_4:\n    /* \"LayerZeroTest.sol\":692:703  _lzEndpoint */\n  dup1\n  dup1\n    /* \"LayerZeroTest.sol\":713:723  msg.sender */\n  caller\n  dup1\n    /* \"@openzeppelin/contracts/access/Ownable.sol\":1269:1364  if (initialOwner == address(0)) {... */\n  tag_11\n  jumpi\n    /* \"@openzeppelin/contracts/access/Ownable.sol\":1322:1353  OwnableInvalidOwner(address(0)) */\n  mload(0x40)\n  shl(0xe0, 0x1e4fbdf7)\n  dup2\n  mstore\n    /* \"@openzeppelin/contracts/access/Ownable.sol\":1350:1351  0 */\n  0x00\n    /* \"@openzeppelin/contracts/access/Ownable.sol\":1322:1353  OwnableInvalidOwner(address(0)) */\n  0x04\n  dup3\n  add\n    /* \"#utility.yul\":3167:3218   */\n  mstore\n    /* \"#utility.yul\":3140:3158   */\n  0x24\n  add\n    /* \"@openzeppelin/contracts/access/Ownable.sol\":1322:1353  OwnableInvalidOwner(address(0)) */\n  mload(0x40)\n  dup1\n  swap2\n  sub\n  swap1\n  revert\n    /* \"@openzeppelin/contracts/access/Ownable.sol\":1269:1364  if (initialOwner == address(0)) {... */\ntag_11:\n    /* \"@openzeppelin/contracts/access/Ownable.sol\":1373:1405  _transferOwnership(initialOwner) */\n  tag_14\n    /* \"@openzeppelin/contracts/access/Ownable.sol\":1392:1404  initialOwner */\n  dup2\n    /* \"@openzeppelin/contracts/access/Ownable.sol\":1373:1391  _transferOwnership */\n  tag_15\n    /* \"@openzeppelin/contracts/access/Ownable.sol\":1373:1405  _transferOwnership(initialOwner) */\n  jump\t// in\ntag_14:\n  pop\n  sub(shl(0xa0, 0x01), 0x01)\n    /* \"https://github.com/LayerZero-Labs/solidity-examples/blob/main/contracts/lzApp/LzApp.sol\":1201:1243  lzEndpoint = ILayerZeroEndpoint(_endpoint) */\n  swap1\n  dup2\n  and\n  0x80\n  mstore\n    /* \"LayerZeroTest.sol\":740:797  _lzEndpoint == 0xae92d5aD7583AD66E49A0c67BAd18F6ba52dDDc1 */\n  dup3\n  and\n    /* \"LayerZeroTest.sol\":755:797  0xae92d5aD7583AD66E49A0c67BAd18F6ba52dDDc1 */\n  0xae92d5ad7583ad66e49a0c67bad18f6ba52dddc1\n    /* \"LayerZeroTest.sol\":740:797  _lzEndpoint == 0xae92d5aD7583AD66E49A0c67BAd18F6ba52dDDc1 */\n  sub\n  swap1\n  pop\n    /* \"LayerZeroTest.sol\":736:818  if (_lzEndpoint == 0xae92d5aD7583AD66E49A0c67BAd18F6ba52dDDc1) destChainId = 10121 */\n  tag_19\n  jumpi\n    /* \"LayerZeroTest.sol\":799:810  destChainId */\n  0x07\n    /* \"LayerZeroTest.sol\":799:818  destChainId = 10121 */\n  dup1\n  sload\n  not(0xffff)\n  and\n    /* \"LayerZeroTest.sol\":813:818  10121 */\n  0x2789\n    /* \"LayerZeroTest.sol\":799:818  destChainId = 10121 */\n  or\n  swap1\n  sstore\n    /* \"LayerZeroTest.sol\":736:818  if (_lzEndpoint == 0xae92d5aD7583AD66E49A0c67BAd18F6ba52dDDc1) destChainId = 10121 */\ntag_19:\n  sub(shl(0xa0, 0x01), 0x01)\n    /* \"LayerZeroTest.sol\":833:890  _lzEndpoint == 0xbfD2135BFfbb0B5378b56643c2Df8a87552Bfa23 */\n  dup2\n  and\n    /* \"LayerZeroTest.sol\":848:890  0xbfD2135BFfbb0B5378b56643c2Df8a87552Bfa23 */\n  0xbfd2135bffbb0b5378b56643c2df8a87552bfa23\n    /* \"LayerZeroTest.sol\":833:890  _lzEndpoint == 0xbfD2135BFfbb0B5378b56643c2Df8a87552Bfa23 */\n  sub\n    /* \"LayerZeroTest.sol\":829:911  if (_lzEndpoint == 0xbfD2135BFfbb0B5378b56643c2Df8a87552Bfa23) destChainId = 10132 */\n  tag_20\n  jumpi\n    /* \"LayerZeroTest.sol\":892:903  destChainId */\n  0x07\n    /* \"LayerZeroTest.sol\":892:911  destChainId = 10132 */\n  dup1\n  sload\n  not(0xffff)\n  and\n    /* \"LayerZeroTest.sol\":906:911  10132 */\n  0x2794\n    /* \"LayerZeroTest.sol\":892:911  destChainId = 10132 */\n  or\n  swap1\n  sstore\n    /* \"LayerZeroTest.sol\":829:911  if (_lzEndpoint == 0xbfD2135BFfbb0B5378b56643c2Df8a87552Bfa23) destChainId = 10132 */\ntag_20:\n    /* \"LayerZeroTest.sol\":642:919  constructor(address _lzEndpoint) NonblockingLzApp(_lzEndpoint) Ownable(msg.sender) {... */\n  pop\n    /* \"LayerZeroTest.sol\":511:1482  contract LayerZeroTest is NonblockingLzApp {... */\n  jump(tag_28)\n    /* \"@openzeppelin/contracts/access/Ownable.sol\":2912:3099  function _transferOwnership(address newOwner) internal virtual {... */\ntag_15:\n    /* \"@openzeppelin/contracts/access/Ownable.sol\":2985:3001  address oldOwner */\n  0x00\n    /* \"@openzeppelin/contracts/access/Ownable.sol\":3004:3010  _owner */\n  dup1\n  sload\n  sub(shl(0xa0, 0x01), 0x01)\n    /* \"@openzeppelin/contracts/access/Ownable.sol\":3020:3037  _owner = newOwner */\n  dup4\n  dup2\n  and\n  not(sub(shl(0xa0, 0x01), 0x01))\n  dup4\n  and\n  dup2\n  or\n  dup5\n  sstore\n    /* \"@openzeppelin/contracts/access/Ownable.sol\":3052:3092  OwnershipTransferred(oldOwner, newOwner) */\n  mload(0x40)\n    /* \"@openzeppelin/contracts/access/Ownable.sol\":3004:3010  _owner */\n  swap2\n  swap1\n  swap3\n  and\n  swap3\n  dup4\n  swap2\n    /* \"@openzeppelin/contracts/access/Ownable.sol\":3052:3092  OwnershipTransferred(oldOwner, newOwner) */\n  0x8be0079c531659141344cd1fd0a4f28419497f9722a3daafe3b4186f6b6457e0\n  swap2\n    /* \"@openzeppelin/contracts/access/Ownable.sol\":2985:3001  address oldOwner */\n  swap1\n    /* \"@openzeppelin/contracts/access/Ownable.sol\":3052:3092  OwnershipTransferred(oldOwner, newOwner) */\n  log3\n    /* \"@openzeppelin/contracts/access/Ownable.sol\":2975:3099  {... */\n  pop\n    /* \"@openzeppelin/contracts/access/Ownable.sol\":2912:3099  function _transferOwnership(address newOwner) internal virtual {... */\n  pop\n  jump\t// out\n    /* \"#utility.yul\":14:141   */\ntag_23:\n    /* \"#utility.yul\":75:85   */\n  0x4e487b71\n    /* \"#utility.yul\":70:73   */\n  0xe0\n    /* \"#utility.yul\":66:86   */\n  shl\n    /* \"#utility.yul\":63:64   */\n  0x00\n    /* \"#utility.yul\":56:87   */\n  mstore\n    /* \"#utility.yul\":106:110   */\n  0x41\n    /* \"#utility.yul\":103:104   */\n  0x04\n    /* \"#utility.yul\":96:111   */\n  mstore\n    /* \"#utility.yul\":130:134   */\n  0x24\n    /* \"#utility.yul\":127:128   */\n  0x00\n    /* \"#utility.yul\":120:135   */\n  revert\n    /* \"#utility.yul\":146:526   */\ntag_24:\n    /* \"#utility.yul\":225:226   */\n  0x01\n    /* \"#utility.yul\":221:233   */\n  dup2\n  dup2\n  shr\n  swap1\n    /* \"#utility.yul\":268:280   */\n  dup3\n  and\n  dup1\n    /* \"#utility.yul\":289:350   */\n  tag_31\n  jumpi\n    /* \"#utility.yul\":343:347   */\n  0x7f\n    /* \"#utility.yul\":335:341   */\n  dup3\n    /* \"#utility.yul\":331:348   */\n  and\n    /* \"#utility.yul\":321:348   */\n  swap2\n  pop\n    /* \"#utility.yul\":289:350   */\ntag_31:\n    /* \"#utility.yul\":396:398   */\n  0x20\n    /* \"#utility.yul\":388:394   */\n  dup3\n    /* \"#utility.yul\":385:399   */\n  lt\n    /* \"#utility.yul\":365:383   */\n  dup2\n    /* \"#utility.yul\":362:400   */\n  sub\n    /* \"#utility.yul\":359:520   */\n  tag_32\n  jumpi\n    /* \"#utility.yul\":442:452   */\n  0x4e487b71\n    /* \"#utility.yul\":437:440   */\n  0xe0\n    /* \"#utility.yul\":433:453   */\n  shl\n    /* \"#utility.yul\":430:431   */\n  0x00\n    /* \"#utility.yul\":423:454   */\n  mstore\n    /* \"#utility.yul\":477:481   */\n  0x22\n    /* \"#utility.yul\":474:475   */\n  0x04\n    /* \"#utility.yul\":467:482   */\n  mstore\n    /* \"#utility.yul\":505:509   */\n  0x24\n    /* \"#utility.yul\":502:503   */\n  0x00\n    /* \"#utility.yul\":495:510   */\n  revert\n    /* \"#utility.yul\":359:520   */\ntag_32:\n  pop\n    /* \"#utility.yul\":146:526   */\n  swap2\n  swap1\n  pop\n  jump\t// out\n    /* \"#utility.yul\":657:1200   */\ntag_26:\n    /* \"#utility.yul\":759:761   */\n  0x1f\n    /* \"#utility.yul\":754:757   */\n  dup3\n    /* \"#utility.yul\":751:762   */\n  gt\n    /* \"#utility.yul\":748:1194   */\n  iszero\n  tag_35\n  jumpi\n    /* \"#utility.yul\":795:796   */\n  0x00\n    /* \"#utility.yul\":819:824   */\n  dup2\n    /* \"#utility.yul\":816:817   */\n  0x00\n    /* \"#utility.yul\":809:825   */\n  mstore\n    /* \"#utility.yul\":863:867   */\n  0x20\n    /* \"#utility.yul\":860:861   */\n  0x00\n    /* \"#utility.yul\":850:868   */\n  keccak256\n    /* \"#utility.yul\":933:935   */\n  0x1f\n    /* \"#utility.yul\":921:931   */\n  dup6\n    /* \"#utility.yul\":917:936   */\n  add\n    /* \"#utility.yul\":914:915   */\n  0x05\n    /* \"#utility.yul\":910:937   */\n  shr\n    /* \"#utility.yul\":904:908   */\n  dup2\n    /* \"#utility.yul\":900:938   */\n  add\n    /* \"#utility.yul\":969:973   */\n  0x20\n    /* \"#utility.yul\":957:967   */\n  dup7\n    /* \"#utility.yul\":954:974   */\n  lt\n    /* \"#utility.yul\":951:998   */\n  iszero\n  tag_36\n  jumpi\n  pop\n    /* \"#utility.yul\":992:996   */\n  dup1\n    /* \"#utility.yul\":951:998   */\ntag_36:\n    /* \"#utility.yul\":1047:1049   */\n  0x1f\n    /* \"#utility.yul\":1042:1045   */\n  dup6\n    /* \"#utility.yul\":1038:1050   */\n  add\n    /* \"#utility.yul\":1035:1036   */\n  0x05\n    /* \"#utility.yul\":1031:1051   */\n  shr\n    /* \"#utility.yul\":1025:1029   */\n  dup3\n    /* \"#utility.yul\":1021:1052   */\n  add\n    /* \"#utility.yul\":1011:1052   */\n  swap2\n  pop\n    /* \"#utility.yul\":1102:1184   */\ntag_37:\n    /* \"#utility.yul\":1120:1122   */\n  dup2\n    /* \"#utility.yul\":1113:1118   */\n  dup2\n    /* \"#utility.yul\":1110:1123   */\n  lt\n    /* \"#utility.yul\":1102:1184   */\n  iszero\n  tag_39\n  jumpi\n    /* \"#utility.yul\":1165:1182   */\n  dup3\n  dup2\n  sstore\n    /* \"#utility.yul\":1146:1147   */\n  0x01\n    /* \"#utility.yul\":1135:1148   */\n  add\n    /* \"#utility.yul\":1102:1184   */\n  jump(tag_37)\ntag_39:\n    /* \"#utility.yul\":1106:1109   */\n  pop\n  pop\n  pop\n    /* \"#utility.yul\":748:1194   */\ntag_35:\n    /* \"#utility.yul\":657:1200   */\n  pop\n  pop\n  pop\n  jump\t// out\n    /* \"#utility.yul\":1376:2721   */\ntag_2:\n    /* \"#utility.yul\":1496:1506   */\n  dup2\n  mload\n  sub(shl(0x40, 0x01), 0x01)\n    /* \"#utility.yul\":1518:1548   */\n  dup2\n  gt\n    /* \"#utility.yul\":1515:1571   */\n  iszero\n  tag_43\n  jumpi\n    /* \"#utility.yul\":1551:1569   */\n  tag_43\n  tag_23\n  jump\t// in\ntag_43:\n    /* \"#utility.yul\":1580:1677   */\n  tag_44\n    /* \"#utility.yul\":1670:1676   */\n  dup2\n    /* \"#utility.yul\":1630:1668   */\n  tag_45\n    /* \"#utility.yul\":1662:1666   */\n  dup5\n    /* \"#utility.yul\":1656:1667   */\n  sload\n    /* \"#utility.yul\":1630:1668   */\n  tag_24\n  jump\t// in\ntag_45:\n    /* \"#utility.yul\":1624:1628   */\n  dup5\n    /* \"#utility.yul\":1580:1677   */\n  tag_26\n  jump\t// in\ntag_44:\n    /* \"#utility.yul\":1732:1736   */\n  0x20\n  dup1\n    /* \"#utility.yul\":1789:1791   */\n  0x1f\n    /* \"#utility.yul\":1778:1792   */\n  dup4\n  gt\n    /* \"#utility.yul\":1806:1807   */\n  0x01\n    /* \"#utility.yul\":1801:2464   */\n  dup2\n  eq\n  tag_47\n  jumpi\n    /* \"#utility.yul\":2508:2509   */\n  0x00\n    /* \"#utility.yul\":2525:2531   */\n  dup5\n    /* \"#utility.yul\":2522:2611   */\n  iszero\n  tag_48\n  jumpi\n  pop\n    /* \"#utility.yul\":2577:2596   */\n  dup6\n  dup4\n  add\n    /* \"#utility.yul\":2571:2597   */\n  mload\n    /* \"#utility.yul\":2522:2611   */\ntag_48:\n  not(0x00)\n    /* \"#utility.yul\":1333:1334   */\n  0x03\n    /* \"#utility.yul\":1329:1340   */\n  dup7\n  swap1\n  shl\n    /* \"#utility.yul\":1325:1349   */\n  shr\n    /* \"#utility.yul\":1321:1350   */\n  not\n    /* \"#utility.yul\":1311:1351   */\n  and\n    /* \"#utility.yul\":1357:1358   */\n  0x01\n    /* \"#utility.yul\":1353:1364   */\n  dup6\n  swap1\n  shl\n    /* \"#utility.yul\":1308:1365   */\n  or\n    /* \"#utility.yul\":2624:2705   */\n  dup6\n  sstore\n    /* \"#utility.yul\":1771:2715   */\n  jump(tag_39)\n    /* \"#utility.yul\":1801:2464   */\ntag_47:\n    /* \"#utility.yul\":604:605   */\n  0x00\n    /* \"#utility.yul\":597:611   */\n  dup6\n  dup2\n  mstore\n    /* \"#utility.yul\":641:645   */\n  0x20\n    /* \"#utility.yul\":628:646   */\n  dup2\n  keccak256\n  not(0x1f)\n    /* \"#utility.yul\":1837:1857   */\n  dup7\n  and\n  swap2\n    /* \"#utility.yul\":1955:2191   */\ntag_51:\n    /* \"#utility.yul\":1969:1976   */\n  dup3\n    /* \"#utility.yul\":1966:1967   */\n  dup2\n    /* \"#utility.yul\":1963:1977   */\n  lt\n    /* \"#utility.yul\":1955:2191   */\n  iszero\n  tag_53\n  jumpi\n    /* \"#utility.yul\":2058:2077   */\n  dup9\n  dup7\n  add\n    /* \"#utility.yul\":2052:2078   */\n  mload\n    /* \"#utility.yul\":2037:2079   */\n  dup3\n  sstore\n    /* \"#utility.yul\":2150:2177   */\n  swap5\n  dup5\n  add\n  swap5\n    /* \"#utility.yul\":2118:2119   */\n  0x01\n    /* \"#utility.yul\":2106:2120   */\n  swap1\n  swap2\n  add\n  swap1\n    /* \"#utility.yul\":1985:2004   */\n  dup5\n  add\n    /* \"#utility.yul\":1955:2191   */\n  jump(tag_51)\ntag_53:\n    /* \"#utility.yul\":1959:1962   */\n  pop\n    /* \"#utility.yul\":2219:2225   */\n  dup6\n    /* \"#utility.yul\":2210:2217   */\n  dup3\n    /* \"#utility.yul\":2207:2226   */\n  lt\n    /* \"#utility.yul\":2204:2405   */\n  iszero\n  tag_54\n  jumpi\n    /* \"#utility.yul\":2280:2299   */\n  dup8\n  dup6\n  add\n    /* \"#utility.yul\":2274:2300   */\n  mload\n  not(0x00)\n    /* \"#utility.yul\":2363:2364   */\n  0x03\n    /* \"#utility.yul\":2359:2373   */\n  dup9\n  swap1\n  shl\n    /* \"#utility.yul\":2375:2378   */\n  0xf8\n    /* \"#utility.yul\":2355:2379   */\n  and\n    /* \"#utility.yul\":2351:2388   */\n  shr\n    /* \"#utility.yul\":2347:2389   */\n  not\n    /* \"#utility.yul\":2332:2390   */\n  and\n    /* \"#utility.yul\":2317:2391   */\n  dup2\n  sstore\n    /* \"#utility.yul\":2204:2405   */\ntag_54:\n  pop\n  pop\n  pop\n  pop\n  pop\n    /* \"#utility.yul\":2451:2452   */\n  0x01\n    /* \"#utility.yul\":2435:2449   */\n  swap1\n  dup2\n  shl\n    /* \"#utility.yul\":2431:2453   */\n  add\n    /* \"#utility.yul\":2418:2454   */\n  swap1\n  sstore\n  pop\n    /* \"#utility.yul\":1376:2721   */\n  jump\t// out\n    /* \"#utility.yul\":2726:3016   */\ntag_5:\n    /* \"#utility.yul\":2796:2802   */\n  0x00\n    /* \"#utility.yul\":2849:2851   */\n  0x20\n    /* \"#utility.yul\":2837:2846   */\n  dup3\n    /* \"#utility.yul\":2828:2835   */\n  dup5\n    /* \"#utility.yul\":2824:2847   */\n  sub\n    /* \"#utility.yul\":2820:2852   */\n  slt\n    /* \"#utility.yul\":2817:2869   */\n  iszero\n  tag_56\n  jumpi\n    /* \"#utility.yul\":2865:2866   */\n  0x00\n    /* \"#utility.yul\":2862:2863   */\n  dup1\n    /* \"#utility.yul\":2855:2867   */\n  revert\n    /* \"#utility.yul\":2817:2869   */\ntag_56:\n    /* \"#utility.yul\":2891:2907   */\n  dup2\n  mload\n  sub(shl(0xa0, 0x01), 0x01)\n    /* \"#utility.yul\":2936:2967   */\n  dup2\n  and\n    /* \"#utility.yul\":2926:2968   */\n  dup2\n  eq\n    /* \"#utility.yul\":2916:2986   */\n  tag_57\n  jumpi\n    /* \"#utility.yul\":2982:2983   */\n  0x00\n    /* \"#utility.yul\":2979:2980   */\n  dup1\n    /* \"#utility.yul\":2972:2984   */\n  revert\n    /* \"#utility.yul\":2916:2986   */\ntag_57:\n    /* \"#utility.yul\":3005:3010   */\n  swap4\n    /* \"#utility.yul\":2726:3016   */\n  swap3\n  pop\n  pop\n  pop\n  jump\t// out\n    /* \"#utility.yul\":3021:3224   */\ntag_28:\n    /* \"LayerZeroTest.sol\":511:1482  contract LayerZeroTest is NonblockingLzApp {... */\n  mload(0x80)\n  codecopy(0x00, dataOffset(sub_0), dataSize(sub_0))\n  0x00\n  assignImmutable(\"0x9e21dd0364e3e97524b0a6af83debf309aa812eb058333a9ab7b8e3a0d33a9c2\")\n  return(0x00, dataSize(sub_0))\nstop\n\nsub_0: assembly {\n        /* \"LayerZeroTest.sol\":511:1482  contract LayerZeroTest is NonblockingLzApp {... */\n      mstore(0x40, 0x80)\n      jumpi(tag_1, lt(calldatasize, 0x04))\n      shr(0xe0, calldataload(0x00))\n      dup1\n      0x8cfd8f5c\n      gt\n      tag_30\n      jumpi\n      dup1\n      0xc4461834\n      gt\n      tag_31\n      jumpi\n      dup1\n      0xdf2a5b3b\n      gt\n      tag_32\n      jumpi\n      dup1\n      0xdf2a5b3b\n      eq\n      tag_26\n      jumpi\n      dup1\n      0xeb8d72b7\n      eq\n      tag_27\n      jumpi\n      dup1\n      0xf2fde38b\n      eq\n      tag_28\n      jumpi\n      dup1\n      0xf5ecbdbc\n      eq\n      tag_29\n      jumpi\n      0x00\n      dup1\n      revert\n    tag_32:\n      dup1\n      0xc4461834\n      eq\n      tag_23\n      jumpi\n      dup1\n      0xcbed8b9c\n      eq\n      tag_24\n      jumpi\n      dup1\n      0xd1deba1f\n      eq\n      tag_25\n      jumpi\n      0x00\n      dup1\n      revert\n    tag_31:\n      dup1\n      0x9f38369a\n      gt\n      tag_33\n      jumpi\n      dup1\n      0x9f38369a\n      eq\n      tag_19\n      jumpi\n      dup1\n      0xa6c3d165\n      eq\n      tag_20\n      jumpi\n      dup1\n      0xb353aaa7\n      eq\n      tag_21\n      jumpi\n      dup1\n      0xbaf3292d\n      eq\n      tag_22\n      jumpi\n      0x00\n      dup1\n      revert\n    tag_33:\n      dup1\n      0x8cfd8f5c\n      eq\n      tag_16\n      jumpi\n      dup1\n      0x8da5cb5b\n      eq\n      tag_17\n      jumpi\n      dup1\n      0x950c8a74\n      eq\n      tag_18\n      jumpi\n      0x00\n      dup1\n      revert\n    tag_30:\n      dup1\n      0x5b8c41e6\n      gt\n      tag_34\n      jumpi\n      dup1\n      0x66ad5c8a\n      gt\n      tag_35\n      jumpi\n      dup1\n      0x66ad5c8a\n      eq\n      tag_12\n      jumpi\n      dup1\n      0x715018a6\n      eq\n      tag_13\n      jumpi\n      dup1\n      0x73d4a13a\n      eq\n      tag_14\n      jumpi\n      dup1\n      0x7533d788\n      eq\n      tag_15\n      jumpi\n      0x00\n      dup1\n      revert\n    tag_35:\n      dup1\n      0x5b8c41e6\n      eq\n      tag_9\n      jumpi\n      dup1\n      0x5cdf1649\n      eq\n      tag_10\n      jumpi\n      dup1\n      0x66792ba1\n      eq\n      tag_11\n      jumpi\n      0x00\n      dup1\n      revert\n    tag_34:\n      dup1\n      0x10ddb137\n      gt\n      tag_36\n      jumpi\n      dup1\n      0x10ddb137\n      eq\n      tag_5\n      jumpi\n      dup1\n      0x3d8b38f6\n      eq\n      tag_6\n      jumpi\n      dup1\n      0x3f1f4fa4\n      eq\n      tag_7\n      jumpi\n      dup1\n      0x42d65a8d\n      eq\n      tag_8\n      jumpi\n      0x00\n      dup1\n      revert\n    tag_36:\n      dup1\n      0x1d3567\n      eq\n      tag_2\n      jumpi\n      dup1\n      0x07e0db17\n      eq\n      tag_3\n      jumpi\n      dup1\n      0x0df37483\n      eq\n      tag_4\n      jumpi\n    tag_1:\n      0x00\n      dup1\n      revert\n        /* \"https://github.com/LayerZero-Labs/solidity-examples/blob/main/contracts/lzApp/LzApp.sol\":1256:2081  function lzReceive(... */\n    tag_2:\n      callvalue\n      dup1\n      iszero\n      tag_37\n      jumpi\n      0x00\n      dup1\n      revert\n    tag_37:\n      pop\n      tag_38\n      tag_39\n      calldatasize\n      0x04\n      tag_40\n      jump\t// in\n    tag_39:\n      tag_41\n      jump\t// in\n    tag_38:\n      stop\n        /* \"https://github.com/LayerZero-Labs/solidity-examples/blob/main/contracts/lzApp/LzApp.sol\":4791:4912  function setSendVersion(uint16 _version) external override onlyOwner {... */\n    tag_3:\n      callvalue\n      dup1\n      iszero\n      tag_42\n      jumpi\n      0x00\n      dup1\n      revert\n    tag_42:\n      pop\n      tag_38\n      tag_44\n      calldatasize\n      0x04\n      tag_45\n      jump\t// in\n    tag_44:\n      tag_46\n      jump\t// in\n        /* \"https://github.com/LayerZero-Labs/solidity-examples/blob/main/contracts/lzApp/LzApp.sol\":6649:6789  function setPayloadSizeLimit(uint16 _dstChainId, uint _size) external onlyOwner {... */\n    tag_4:\n      callvalue\n      dup1\n      iszero\n      tag_47\n      jumpi\n      0x00\n      dup1\n      revert\n    tag_47:\n      pop\n      tag_38\n      tag_49\n      calldatasize\n      0x04\n      tag_50\n      jump\t// in\n    tag_49:\n      tag_51\n      jump\t// in\n        /* \"https://github.com/LayerZero-Labs/solidity-examples/blob/main/contracts/lzApp/LzApp.sol\":4918:5045  function setReceiveVersion(uint16 _version) external override onlyOwner {... */\n    tag_5:\n      callvalue\n      dup1\n      iszero\n      tag_52\n      jumpi\n      0x00\n      dup1\n      revert\n    tag_52:\n      pop\n      tag_38\n      tag_54\n      calldatasize\n      0x04\n      tag_45\n      jump\t// in\n    tag_54:\n      tag_55\n      jump\t// in\n        /* \"https://github.com/LayerZero-Labs/solidity-examples/blob/main/contracts/lzApp/LzApp.sol\":6884:7131  function isTrustedRemote(uint16 _srcChainId, bytes calldata _srcAddress) external view returns (bool) {... */\n    tag_6:\n      callvalue\n      dup1\n      iszero\n      tag_56\n      jumpi\n      0x00\n      dup1\n      revert\n    tag_56:\n      pop\n      tag_57\n      tag_58\n      calldatasize\n      0x04\n      tag_59\n      jump\t// in\n    tag_58:\n      tag_60\n      jump\t// in\n    tag_57:\n      mload(0x40)\n        /* \"#utility.yul\":2670:2684   */\n      swap1\n      iszero\n        /* \"#utility.yul\":2663:2685   */\n      iszero\n        /* \"#utility.yul\":2645:2686   */\n      dup2\n      mstore\n        /* \"#utility.yul\":2633:2635   */\n      0x20\n        /* \"#utility.yul\":2618:2636   */\n      add\n        /* \"https://github.com/LayerZero-Labs/solidity-examples/blob/main/contracts/lzApp/LzApp.sol\":6884:7131  function isTrustedRemote(uint16 _srcChainId, bytes calldata _srcAddress) external view returns (bool) {... */\n    tag_61:\n      mload(0x40)\n      dup1\n      swap2\n      sub\n      swap1\n      return\n        /* \"https://github.com/LayerZero-Labs/solidity-examples/blob/main/contracts/lzApp/LzApp.sol\":810:863  mapping(uint16 => uint) public payloadSizeLimitLookup */\n    tag_7:\n      callvalue\n      dup1\n      iszero\n      tag_63\n      jumpi\n      0x00\n      dup1\n      revert\n    tag_63:\n      pop\n      tag_64\n      tag_65\n      calldatasize\n      0x04\n      tag_45\n      jump\t// in\n    tag_65:\n      mstore(0x20, 0x03)\n      0x00\n      swap1\n      dup2\n      mstore\n      0x40\n      swap1\n      keccak256\n      sload\n      dup2\n      jump\n    tag_64:\n      mload(0x40)\n        /* \"#utility.yul\":2843:2868   */\n      swap1\n      dup2\n      mstore\n        /* \"#utility.yul\":2831:2833   */\n      0x20\n        /* \"#utility.yul\":2816:2834   */\n      add\n        /* \"https://github.com/LayerZero-Labs/solidity-examples/blob/main/contracts/lzApp/LzApp.sol\":810:863  mapping(uint16 => uint) public payloadSizeLimitLookup */\n      tag_61\n        /* \"#utility.yul\":2697:2874   */\n      jump\n        /* \"https://github.com/LayerZero-Labs/solidity-examples/blob/main/contracts/lzApp/LzApp.sol\":5051:5227  function forceResumeReceive(uint16 _srcChainId, bytes calldata _srcAddress) external override onlyOwner {... */\n    tag_8:\n      callvalue\n      dup1\n      iszero\n      tag_69\n      jumpi\n      0x00\n      dup1\n      revert\n    tag_69:\n      pop\n      tag_38\n      tag_71\n      calldatasize\n      0x04\n      tag_59\n      jump\t// in\n    tag_71:\n      tag_72\n      jump\t// in\n        /* \"https://github.com/LayerZero-Labs/solidity-examples/blob/main/contracts/lzApp/NonblockingLzApp.sol\":622:707  mapping(uint16 => mapping(bytes => mapping(uint64 => bytes32))) public failedMessages */\n    tag_9:\n      callvalue\n      dup1\n      iszero\n      tag_73\n      jumpi\n      0x00\n      dup1\n      revert\n    tag_73:\n      pop\n      tag_64\n      tag_75\n      calldatasize\n      0x04\n      tag_76\n      jump\t// in\n    tag_75:\n      0x05\n      0x20\n      swap1\n      dup2\n      mstore\n      0x00\n      swap4\n      dup5\n      mstore\n      0x40\n      dup1\n      dup6\n      keccak256\n      dup5\n      mload\n      dup1\n      dup7\n      add\n      dup5\n      add\n      dup1\n      mload\n      swap3\n      dup2\n      mstore\n      swap1\n      dup5\n      add\n      swap6\n      dup5\n      add\n      swap6\n      swap1\n      swap6\n      keccak256\n      swap5\n      mstore\n      swap3\n      swap1\n      mstore\n      dup3\n      mstore\n      swap1\n      keccak256\n      sload\n      dup2\n      jump\n        /* \"LayerZeroTest.sol\":1312:1479  function trustAddress(address _otherContract) public onlyOwner {... */\n    tag_10:\n      callvalue\n      dup1\n      iszero\n      tag_80\n      jumpi\n      0x00\n      dup1\n      revert\n    tag_80:\n      pop\n      tag_38\n      tag_82\n      calldatasize\n      0x04\n      tag_83\n      jump\t// in\n    tag_82:\n      tag_84\n      jump\t// in\n        /* \"LayerZeroTest.sol\":1092:1304  function send(string memory _message) public payable {... */\n    tag_11:\n      tag_38\n      tag_86\n      calldatasize\n      0x04\n      tag_87\n      jump\t// in\n    tag_86:\n      tag_88\n      jump\t// in\n        /* \"https://github.com/LayerZero-Labs/solidity-examples/blob/main/contracts/lzApp/NonblockingLzApp.sol\":1912:2292  function nonblockingLzReceive(... */\n    tag_12:\n      callvalue\n      dup1\n      iszero\n      tag_89\n      jumpi\n      0x00\n      dup1\n      revert\n    tag_89:\n      pop\n      tag_38\n      tag_91\n      calldatasize\n      0x04\n      tag_40\n      jump\t// in\n    tag_91:\n      tag_92\n      jump\t// in\n        /* \"@openzeppelin/contracts/access/Ownable.sol\":2293:2394  function renounceOwnership() public virtual onlyOwner {... */\n    tag_13:\n      callvalue\n      dup1\n      iszero\n      tag_93\n      jumpi\n      0x00\n      dup1\n      revert\n    tag_93:\n      pop\n      tag_38\n      tag_95\n      jump\t// in\n        /* \"LayerZeroTest.sol\":561:604  string public data = \"Nothing received yet\" */\n    tag_14:\n      callvalue\n      dup1\n      iszero\n      tag_96\n      jumpi\n      0x00\n      dup1\n      revert\n    tag_96:\n      pop\n      tag_97\n      tag_98\n      jump\t// in\n    tag_97:\n      mload(0x40)\n      tag_61\n      swap2\n      swap1\n      tag_100\n      jump\t// in\n        /* \"https://github.com/LayerZero-Labs/solidity-examples/blob/main/contracts/lzApp/LzApp.sol\":682:733  mapping(uint16 => bytes) public trustedRemoteLookup */\n    tag_15:\n      callvalue\n      dup1\n      iszero\n      tag_101\n      jumpi\n      0x00\n      dup1\n      revert\n    tag_101:\n      pop\n      tag_97\n      tag_103\n      calldatasize\n      0x04\n      tag_45\n      jump\t// in\n    tag_103:\n      tag_104\n      jump\t// in\n        /* \"https://github.com/LayerZero-Labs/solidity-examples/blob/main/contracts/lzApp/LzApp.sol\":739:804  mapping(uint16 => mapping(uint16 => uint)) public minDstGasLookup */\n    tag_16:\n      callvalue\n      dup1\n      iszero\n      tag_107\n      jumpi\n      0x00\n      dup1\n      revert\n    tag_107:\n      pop\n      tag_64\n      tag_109\n      calldatasize\n      0x04\n      tag_110\n      jump\t// in\n    tag_109:\n      0x02\n      0x20\n      swap1\n      dup2\n      mstore\n      0x00\n      swap3\n      dup4\n      mstore\n      0x40\n      dup1\n      dup5\n      keccak256\n      swap1\n      swap2\n      mstore\n      swap1\n      dup3\n      mstore\n      swap1\n      keccak256\n      sload\n      dup2\n      jump\n        /* \"@openzeppelin/contracts/access/Ownable.sol\":1638:1723  function owner() public view virtual returns (address) {... */\n    tag_17:\n      callvalue\n      dup1\n      iszero\n      tag_113\n      jumpi\n      0x00\n      dup1\n      revert\n    tag_113:\n      pop\n        /* \"@openzeppelin/contracts/access/Ownable.sol\":1684:1691  address */\n      0x00\n        /* \"@openzeppelin/contracts/access/Ownable.sol\":1710:1716  _owner */\n      sload\n      sub(shl(0xa0, 0x01), 0x01)\n      and\n        /* \"@openzeppelin/contracts/access/Ownable.sol\":1638:1723  function owner() public view virtual returns (address) {... */\n    tag_114:\n      mload(0x40)\n      sub(shl(0xa0, 0x01), 0x01)\n        /* \"#utility.yul\":6831:6863   */\n      swap1\n      swap2\n      and\n        /* \"#utility.yul\":6813:6864   */\n      dup2\n      mstore\n        /* \"#utility.yul\":6801:6803   */\n      0x20\n        /* \"#utility.yul\":6786:6804   */\n      add\n        /* \"@openzeppelin/contracts/access/Ownable.sol\":1638:1723  function owner() public view virtual returns (address) {... */\n      tag_61\n        /* \"#utility.yul\":6667:6870   */\n      jump\n        /* \"https://github.com/LayerZero-Labs/solidity-examples/blob/main/contracts/lzApp/LzApp.sol\":869:892  address public precrime */\n    tag_18:\n      callvalue\n      dup1\n      iszero\n      tag_118\n      jumpi\n      0x00\n      dup1\n      revert\n    tag_118:\n      pop\n      sload(0x04)\n      tag_114\n      swap1\n      sub(shl(0xa0, 0x01), 0x01)\n      and\n      dup2\n      jump\n        /* \"https://github.com/LayerZero-Labs/solidity-examples/blob/main/contracts/lzApp/LzApp.sol\":5864:6190  function getTrustedRemoteAddress(uint16 _remoteChainId) external view returns (bytes memory) {... */\n    tag_19:\n      callvalue\n      dup1\n      iszero\n      tag_122\n      jumpi\n      0x00\n      dup1\n      revert\n    tag_122:\n      pop\n      tag_97\n      tag_124\n      calldatasize\n      0x04\n      tag_45\n      jump\t// in\n    tag_124:\n      tag_125\n      jump\t// in\n        /* \"https://github.com/LayerZero-Labs/solidity-examples/blob/main/contracts/lzApp/LzApp.sol\":5580:5858  function setTrustedRemoteAddress(uint16 _remoteChainId, bytes calldata _remoteAddress) external onlyOwner {... */\n    tag_20:\n      callvalue\n      dup1\n      iszero\n      tag_127\n      jumpi\n      0x00\n      dup1\n      revert\n    tag_127:\n      pop\n      tag_38\n      tag_129\n      calldatasize\n      0x04\n      tag_59\n      jump\t// in\n    tag_129:\n      tag_130\n      jump\t// in\n        /* \"https://github.com/LayerZero-Labs/solidity-examples/blob/main/contracts/lzApp/LzApp.sol\":630:676  ILayerZeroEndpoint public immutable lzEndpoint */\n    tag_21:\n      callvalue\n      dup1\n      iszero\n      tag_131\n      jumpi\n      0x00\n      dup1\n      revert\n    tag_131:\n      pop\n      tag_114\n      immutable(\"0x9e21dd0364e3e97524b0a6af83debf309aa812eb058333a9ab7b8e3a0d33a9c2\")\n      dup2\n      jump\n        /* \"https://github.com/LayerZero-Labs/solidity-examples/blob/main/contracts/lzApp/LzApp.sol\":6196:6329  function setPrecrime(address _precrime) external onlyOwner {... */\n    tag_22:\n      callvalue\n      dup1\n      iszero\n      tag_136\n      jumpi\n      0x00\n      dup1\n      revert\n    tag_136:\n      pop\n      tag_38\n      tag_138\n      calldatasize\n      0x04\n      tag_83\n      jump\t// in\n    tag_138:\n      tag_139\n      jump\t// in\n        /* \"https://github.com/LayerZero-Labs/solidity-examples/blob/main/contracts/lzApp/LzApp.sol\":568:623  uint public constant DEFAULT_PAYLOAD_SIZE_LIMIT = 10000 */\n    tag_23:\n      callvalue\n      dup1\n      iszero\n      tag_140\n      jumpi\n      0x00\n      dup1\n      revert\n    tag_140:\n      pop\n      tag_64\n        /* \"https://github.com/LayerZero-Labs/solidity-examples/blob/main/contracts/lzApp/LzApp.sol\":618:623  10000 */\n      0x2710\n        /* \"https://github.com/LayerZero-Labs/solidity-examples/blob/main/contracts/lzApp/LzApp.sol\":568:623  uint public constant DEFAULT_PAYLOAD_SIZE_LIMIT = 10000 */\n      dup2\n      jump\n        /* \"https://github.com/LayerZero-Labs/solidity-examples/blob/main/contracts/lzApp/LzApp.sol\":4545:4785  function setConfig(... */\n    tag_24:\n      callvalue\n      dup1\n      iszero\n      tag_144\n      jumpi\n      0x00\n      dup1\n      revert\n    tag_144:\n      pop\n      tag_38\n      tag_146\n      calldatasize\n      0x04\n      tag_147\n      jump\t// in\n    tag_146:\n      tag_148\n      jump\t// in\n        /* \"https://github.com/LayerZero-Labs/solidity-examples/blob/main/contracts/lzApp/NonblockingLzApp.sol\":2511:3306  function retryMessage(... */\n    tag_25:\n      tag_38\n      tag_150\n      calldatasize\n      0x04\n      tag_40\n      jump\t// in\n    tag_150:\n      tag_151\n      jump\t// in\n        /* \"https://github.com/LayerZero-Labs/solidity-examples/blob/main/contracts/lzApp/LzApp.sol\":6335:6590  function setMinDstGas(... */\n    tag_26:\n      callvalue\n      dup1\n      iszero\n      tag_152\n      jumpi\n      0x00\n      dup1\n      revert\n    tag_152:\n      pop\n      tag_38\n      tag_154\n      calldatasize\n      0x04\n      tag_155\n      jump\t// in\n    tag_154:\n      tag_156\n      jump\t// in\n        /* \"https://github.com/LayerZero-Labs/solidity-examples/blob/main/contracts/lzApp/LzApp.sol\":5370:5574  function setTrustedRemote(uint16 _remoteChainId, bytes calldata _path) external onlyOwner {... */\n    tag_27:\n      callvalue\n      dup1\n      iszero\n      tag_157\n      jumpi\n      0x00\n      dup1\n      revert\n    tag_157:\n      pop\n      tag_38\n      tag_159\n      calldatasize\n      0x04\n      tag_59\n      jump\t// in\n    tag_159:\n      tag_160\n      jump\t// in\n        /* \"@openzeppelin/contracts/access/Ownable.sol\":2543:2758  function transferOwnership(address newOwner) public virtual onlyOwner {... */\n    tag_28:\n      callvalue\n      dup1\n      iszero\n      tag_161\n      jumpi\n      0x00\n      dup1\n      revert\n    tag_161:\n      pop\n      tag_38\n      tag_163\n      calldatasize\n      0x04\n      tag_83\n      jump\t// in\n    tag_163:\n      tag_164\n      jump\t// in\n        /* \"https://github.com/LayerZero-Labs/solidity-examples/blob/main/contracts/lzApp/LzApp.sol\":4239:4486  function getConfig(... */\n    tag_29:\n      callvalue\n      dup1\n      iszero\n      tag_165\n      jumpi\n      0x00\n      dup1\n      revert\n    tag_165:\n      pop\n      tag_97\n      tag_167\n      calldatasize\n      0x04\n      tag_168\n      jump\t// in\n    tag_167:\n      tag_169\n      jump\t// in\n        /* \"https://github.com/LayerZero-Labs/solidity-examples/blob/main/contracts/lzApp/LzApp.sol\":1256:2081  function lzReceive(... */\n    tag_41:\n        /* \"@openzeppelin/contracts/utils/Context.sol\":735:745  msg.sender */\n      caller\n        /* \"https://github.com/LayerZero-Labs/solidity-examples/blob/main/contracts/lzApp/LzApp.sol\":1532:1542  lzEndpoint */\n      immutable(\"0x9e21dd0364e3e97524b0a6af83debf309aa812eb058333a9ab7b8e3a0d33a9c2\")\n      sub(shl(0xa0, 0x01), 0x01)\n        /* \"https://github.com/LayerZero-Labs/solidity-examples/blob/main/contracts/lzApp/LzApp.sol\":1508:1543  _msgSender() == address(lzEndpoint) */\n      and\n      eq\n        /* \"https://github.com/LayerZero-Labs/solidity-examples/blob/main/contracts/lzApp/LzApp.sol\":1500:1578  require(_msgSender() == address(lzEndpoint), \"LzApp: invalid endpoint caller\") */\n      tag_174\n      jumpi\n      mload(0x40)\n      shl(0xe5, 0x461bcd)\n      dup2\n      mstore\n        /* \"#utility.yul\":8672:8674   */\n      0x20\n        /* \"https://github.com/LayerZero-Labs/solidity-examples/blob/main/contracts/lzApp/LzApp.sol\":1500:1578  require(_msgSender() == address(lzEndpoint), \"LzApp: invalid endpoint caller\") */\n      0x04\n      dup3\n      add\n        /* \"#utility.yul\":8654:8675   */\n      mstore\n        /* \"#utility.yul\":8711:8713   */\n      0x1e\n        /* \"#utility.yul\":8691:8709   */\n      0x24\n      dup3\n      add\n        /* \"#utility.yul\":8684:8714   */\n      mstore\n        /* \"#utility.yul\":8750:8782   */\n      0x4c7a4170703a20696e76616c696420656e64706f696e742063616c6c65720000\n        /* \"#utility.yul\":8730:8748   */\n      0x44\n      dup3\n      add\n        /* \"#utility.yul\":8723:8783   */\n      mstore\n        /* \"#utility.yul\":8800:8818   */\n      0x64\n      add\n        /* \"https://github.com/LayerZero-Labs/solidity-examples/blob/main/contracts/lzApp/LzApp.sol\":1500:1578  require(_msgSender() == address(lzEndpoint), \"LzApp: invalid endpoint caller\") */\n    tag_175:\n      mload(0x40)\n      dup1\n      swap2\n      sub\n      swap1\n      revert\n    tag_174:\n        /* \"https://github.com/LayerZero-Labs/solidity-examples/blob/main/contracts/lzApp/LzApp.sol\":1618:1650  trustedRemoteLookup[_srcChainId] */\n      0xffff\n      dup7\n      and\n        /* \"https://github.com/LayerZero-Labs/solidity-examples/blob/main/contracts/lzApp/LzApp.sol\":1589:1615  bytes memory trustedRemote */\n      0x00\n        /* \"https://github.com/LayerZero-Labs/solidity-examples/blob/main/contracts/lzApp/LzApp.sol\":1618:1650  trustedRemoteLookup[_srcChainId] */\n      swap1\n      dup2\n      mstore\n        /* \"https://github.com/LayerZero-Labs/solidity-examples/blob/main/contracts/lzApp/LzApp.sol\":1618:1637  trustedRemoteLookup */\n      0x01\n        /* \"https://github.com/LayerZero-Labs/solidity-examples/blob/main/contracts/lzApp/LzApp.sol\":1618:1650  trustedRemoteLookup[_srcChainId] */\n      0x20\n      mstore\n      0x40\n      dup2\n      keccak256\n        /* \"https://github.com/LayerZero-Labs/solidity-examples/blob/main/contracts/lzApp/LzApp.sol\":1589:1650  bytes memory trustedRemote = trustedRemoteLookup[_srcChainId] */\n      dup1\n      sload\n      tag_177\n      swap1\n      tag_178\n      jump\t// in\n    tag_177:\n      dup1\n      0x1f\n      add\n      0x20\n      dup1\n      swap2\n      div\n      mul\n      0x20\n      add\n      mload(0x40)\n      swap1\n      dup2\n      add\n      0x40\n      mstore\n      dup1\n      swap3\n      swap2\n      swap1\n      dup2\n      dup2\n      mstore\n      0x20\n      add\n      dup3\n      dup1\n      sload\n      tag_179\n      swap1\n      tag_178\n      jump\t// in\n    tag_179:\n      dup1\n      iszero\n      tag_180\n      jumpi\n      dup1\n      0x1f\n      lt\n      tag_181\n      jumpi\n      0x0100\n      dup1\n      dup4\n      sload\n      div\n      mul\n      dup4\n      mstore\n      swap2\n      0x20\n      add\n      swap2\n      jump(tag_180)\n    tag_181:\n      dup3\n      add\n      swap2\n      swap1\n      0x00\n      mstore\n      keccak256(0x00, 0x20)\n      swap1\n    tag_182:\n      dup2\n      sload\n      dup2\n      mstore\n      swap1\n      0x01\n      add\n      swap1\n      0x20\n      add\n      dup1\n      dup4\n      gt\n      tag_182\n      jumpi\n      dup3\n      swap1\n      sub\n      0x1f\n      and\n      dup3\n      add\n      swap2\n    tag_180:\n      pop\n      pop\n      pop\n      pop\n      pop\n      swap1\n      pop\n        /* \"https://github.com/LayerZero-Labs/solidity-examples/blob/main/contracts/lzApp/LzApp.sol\":1835:1848  trustedRemote */\n      dup1\n        /* \"https://github.com/LayerZero-Labs/solidity-examples/blob/main/contracts/lzApp/LzApp.sol\":1835:1855  trustedRemote.length */\n      mload\n        /* \"https://github.com/LayerZero-Labs/solidity-examples/blob/main/contracts/lzApp/LzApp.sol\":1813:1824  _srcAddress */\n      dup7\n      dup7\n        /* \"https://github.com/LayerZero-Labs/solidity-examples/blob/main/contracts/lzApp/LzApp.sol\":1813:1831  _srcAddress.length */\n      swap1\n      pop\n        /* \"https://github.com/LayerZero-Labs/solidity-examples/blob/main/contracts/lzApp/LzApp.sol\":1813:1855  _srcAddress.length == trustedRemote.length */\n      eq\n        /* \"https://github.com/LayerZero-Labs/solidity-examples/blob/main/contracts/lzApp/LzApp.sol\":1813:1883  _srcAddress.length == trustedRemote.length && trustedRemote.length > 0 */\n      dup1\n      iszero\n      tag_183\n      jumpi\n      pop\n        /* \"https://github.com/LayerZero-Labs/solidity-examples/blob/main/contracts/lzApp/LzApp.sol\":1882:1883  0 */\n      0x00\n        /* \"https://github.com/LayerZero-Labs/solidity-examples/blob/main/contracts/lzApp/LzApp.sol\":1859:1872  trustedRemote */\n      dup2\n        /* \"https://github.com/LayerZero-Labs/solidity-examples/blob/main/contracts/lzApp/LzApp.sol\":1859:1879  trustedRemote.length */\n      mload\n        /* \"https://github.com/LayerZero-Labs/solidity-examples/blob/main/contracts/lzApp/LzApp.sol\":1859:1883  trustedRemote.length > 0 */\n      gt\n        /* \"https://github.com/LayerZero-Labs/solidity-examples/blob/main/contracts/lzApp/LzApp.sol\":1813:1883  _srcAddress.length == trustedRemote.length && trustedRemote.length > 0 */\n    tag_183:\n        /* \"https://github.com/LayerZero-Labs/solidity-examples/blob/main/contracts/lzApp/LzApp.sol\":1813:1937  _srcAddress.length == trustedRemote.length && trustedRemote.length > 0 && keccak256(_srcAddress) == keccak256(trustedRemote) */\n      dup1\n      iszero\n      tag_184\n      jumpi\n      pop\n        /* \"https://github.com/LayerZero-Labs/solidity-examples/blob/main/contracts/lzApp/LzApp.sol\":1913:1937  keccak256(trustedRemote) */\n      dup1\n      mload\n      0x20\n      dup3\n      add\n      keccak256\n        /* \"https://github.com/LayerZero-Labs/solidity-examples/blob/main/contracts/lzApp/LzApp.sol\":1887:1909  keccak256(_srcAddress) */\n      mload(0x40)\n      tag_185\n      swap1\n        /* \"https://github.com/LayerZero-Labs/solidity-examples/blob/main/contracts/lzApp/LzApp.sol\":1897:1908  _srcAddress */\n      dup9\n      swap1\n      dup9\n      swap1\n        /* \"https://github.com/LayerZero-Labs/solidity-examples/blob/main/contracts/lzApp/LzApp.sol\":1887:1909  keccak256(_srcAddress) */\n      tag_186\n      jump\t// in\n    tag_185:\n      mload(0x40)\n      dup1\n      swap2\n      sub\n      swap1\n      keccak256\n        /* \"https://github.com/LayerZero-Labs/solidity-examples/blob/main/contracts/lzApp/LzApp.sol\":1887:1937  keccak256(_srcAddress) == keccak256(trustedRemote) */\n      eq\n        /* \"https://github.com/LayerZero-Labs/solidity-examples/blob/main/contracts/lzApp/LzApp.sol\":1813:1937  _srcAddress.length == trustedRemote.length && trustedRemote.length > 0 && keccak256(_srcAddress) == keccak256(trustedRemote) */\n    tag_184:\n        /* \"https://github.com/LayerZero-Labs/solidity-examples/blob/main/contracts/lzApp/LzApp.sol\":1792:2001  require(... */\n      tag_187\n      jumpi\n      mload(0x40)\n      shl(0xe5, 0x461bcd)\n      dup2\n      mstore\n        /* \"#utility.yul\":9692:9694   */\n      0x20\n        /* \"https://github.com/LayerZero-Labs/solidity-examples/blob/main/contracts/lzApp/LzApp.sol\":1792:2001  require(... */\n      0x04\n      dup3\n      add\n        /* \"#utility.yul\":9674:9695   */\n      mstore\n        /* \"#utility.yul\":9731:9733   */\n      0x26\n        /* \"#utility.yul\":9711:9729   */\n      0x24\n      dup3\n      add\n        /* \"#utility.yul\":9704:9734   */\n      mstore\n        /* \"#utility.yul\":9770:9804   */\n      0x4c7a4170703a20696e76616c696420736f757263652073656e64696e6720636f\n        /* \"#utility.yul\":9750:9768   */\n      0x44\n      dup3\n      add\n        /* \"#utility.yul\":9743:9805   */\n      mstore\n      shl(0xd2, 0x1b9d1c9858dd)\n        /* \"#utility.yul\":9821:9839   */\n      0x64\n      dup3\n      add\n        /* \"#utility.yul\":9814:9850   */\n      mstore\n        /* \"#utility.yul\":9867:9886   */\n      0x84\n      add\n        /* \"https://github.com/LayerZero-Labs/solidity-examples/blob/main/contracts/lzApp/LzApp.sol\":1792:2001  require(... */\n      tag_175\n        /* \"#utility.yul\":9490:9892   */\n      jump\n        /* \"https://github.com/LayerZero-Labs/solidity-examples/blob/main/contracts/lzApp/LzApp.sol\":1792:2001  require(... */\n    tag_187:\n        /* \"https://github.com/LayerZero-Labs/solidity-examples/blob/main/contracts/lzApp/LzApp.sol\":2012:2074  _blockingLzReceive(_srcChainId, _srcAddress, _nonce, _payload) */\n      tag_190\n        /* \"https://github.com/LayerZero-Labs/solidity-examples/blob/main/contracts/lzApp/LzApp.sol\":2031:2042  _srcChainId */\n      dup8\n        /* \"https://github.com/LayerZero-Labs/solidity-examples/blob/main/contracts/lzApp/LzApp.sol\":2044:2055  _srcAddress */\n      dup8\n      dup8\n        /* \"https://github.com/LayerZero-Labs/solidity-examples/blob/main/contracts/lzApp/LzApp.sol\":2012:2074  _blockingLzReceive(_srcChainId, _srcAddress, _nonce, _payload) */\n      dup1\n      dup1\n      0x1f\n      add\n      0x20\n      dup1\n      swap2\n      div\n      mul\n      0x20\n      add\n      mload(0x40)\n      swap1\n      dup2\n      add\n      0x40\n      mstore\n      dup1\n      swap4\n      swap3\n      swap2\n      swap1\n      dup2\n      dup2\n      mstore\n      0x20\n      add\n      dup4\n      dup4\n      dup1\n      dup3\n      dup5\n      calldatacopy\n      0x00\n      swap3\n      add\n      swap2\n      swap1\n      swap2\n      mstore\n      pop\n      pop\n      0x40\n      dup1\n      mload\n      0x20\n      0x1f\n      dup11\n      add\n      dup2\n      swap1\n      div\n      dup2\n      mul\n      dup3\n      add\n      dup2\n      add\n      swap1\n      swap3\n      mstore\n      dup9\n      dup2\n      mstore\n        /* \"https://github.com/LayerZero-Labs/solidity-examples/blob/main/contracts/lzApp/LzApp.sol\":2057:2063  _nonce */\n      dup11\n      swap4\n      pop\n        /* \"https://github.com/LayerZero-Labs/solidity-examples/blob/main/contracts/lzApp/LzApp.sol\":2012:2074  _blockingLzReceive(_srcChainId, _srcAddress, _nonce, _payload) */\n      swap2\n      pop\n        /* \"https://github.com/LayerZero-Labs/solidity-examples/blob/main/contracts/lzApp/LzApp.sol\":2065:2073  _payload */\n      dup9\n      swap1\n      dup9\n      swap1\n      dup2\n      swap1\n        /* \"https://github.com/LayerZero-Labs/solidity-examples/blob/main/contracts/lzApp/LzApp.sol\":2012:2074  _blockingLzReceive(_srcChainId, _srcAddress, _nonce, _payload) */\n      dup5\n      add\n        /* \"https://github.com/LayerZero-Labs/solidity-examples/blob/main/contracts/lzApp/LzApp.sol\":2065:2073  _payload */\n      dup4\n      dup3\n      dup1\n      dup3\n        /* \"https://github.com/LayerZero-Labs/solidity-examples/blob/main/contracts/lzApp/LzApp.sol\":2012:2074  _blockingLzReceive(_srcChainId, _srcAddress, _nonce, _payload) */\n      dup5\n      calldatacopy\n      0x00\n      swap3\n      add\n      swap2\n      swap1\n      swap2\n      mstore\n      pop\n        /* \"https://github.com/LayerZero-Labs/solidity-examples/blob/main/contracts/lzApp/LzApp.sol\":2012:2030  _blockingLzReceive */\n      tag_191\n      swap3\n      pop\n      pop\n      pop\n        /* \"https://github.com/LayerZero-Labs/solidity-examples/blob/main/contracts/lzApp/LzApp.sol\":2012:2074  _blockingLzReceive(_srcChainId, _srcAddress, _nonce, _payload) */\n      jump\t// in\n    tag_190:\n        /* \"https://github.com/LayerZero-Labs/solidity-examples/blob/main/contracts/lzApp/LzApp.sol\":1425:2081  {... */\n      pop\n        /* \"https://github.com/LayerZero-Labs/solidity-examples/blob/main/contracts/lzApp/LzApp.sol\":1256:2081  function lzReceive(... */\n      pop\n      pop\n      pop\n      pop\n      pop\n      pop\n      jump\t// out\n        /* \"https://github.com/LayerZero-Labs/solidity-examples/blob/main/contracts/lzApp/LzApp.sol\":4791:4912  function setSendVersion(uint16 _version) external override onlyOwner {... */\n    tag_46:\n        /* \"@openzeppelin/contracts/access/Ownable.sol\":1531:1544  _checkOwner() */\n      tag_193\n        /* \"@openzeppelin/contracts/access/Ownable.sol\":1531:1542  _checkOwner */\n      tag_194\n        /* \"@openzeppelin/contracts/access/Ownable.sol\":1531:1544  _checkOwner() */\n      jump\t// in\n    tag_193:\n        /* \"https://github.com/LayerZero-Labs/solidity-examples/blob/main/contracts/lzApp/LzApp.sol\":4870:4905  lzEndpoint.setSendVersion(_version) */\n      mload(0x40)\n      shl(0xe0, 0x07e0db17)\n      dup2\n      mstore\n        /* \"#utility.yul\":10071:10077   */\n      0xffff\n        /* \"#utility.yul\":10059:10078   */\n      dup3\n      and\n        /* \"https://github.com/LayerZero-Labs/solidity-examples/blob/main/contracts/lzApp/LzApp.sol\":4870:4905  lzEndpoint.setSendVersion(_version) */\n      0x04\n      dup3\n      add\n        /* \"#utility.yul\":10041:10079   */\n      mstore\n        /* \"https://github.com/LayerZero-Labs/solidity-examples/blob/main/contracts/lzApp/LzApp.sol\":4870:4880  lzEndpoint */\n      immutable(\"0x9e21dd0364e3e97524b0a6af83debf309aa812eb058333a9ab7b8e3a0d33a9c2\")\n      sub(shl(0xa0, 0x01), 0x01)\n        /* \"https://github.com/LayerZero-Labs/solidity-examples/blob/main/contracts/lzApp/LzApp.sol\":4870:4895  lzEndpoint.setSendVersion */\n      and\n      swap1\n      0x07e0db17\n      swap1\n        /* \"#utility.yul\":10014:10032   */\n      0x24\n      add\n        /* \"https://github.com/LayerZero-Labs/solidity-examples/blob/main/contracts/lzApp/LzApp.sol\":4870:4905  lzEndpoint.setSendVersion(_version) */\n    tag_196:\n      0x00\n      mload(0x40)\n      dup1\n      dup4\n      sub\n      dup2\n      0x00\n      dup8\n      dup1\n      extcodesize\n      iszero\n      dup1\n      iszero\n      tag_198\n      jumpi\n      0x00\n      dup1\n      revert\n    tag_198:\n      pop\n      gas\n      call\n      iszero\n      dup1\n      iszero\n      tag_200\n      jumpi\n      returndatasize\n      0x00\n      dup1\n      returndatacopy\n      revert(0x00, returndatasize)\n    tag_200:\n      pop\n      pop\n      pop\n      pop\n        /* \"https://github.com/LayerZero-Labs/solidity-examples/blob/main/contracts/lzApp/LzApp.sol\":4791:4912  function setSendVersion(uint16 _version) external override onlyOwner {... */\n      pop\n      jump\t// out\n        /* \"https://github.com/LayerZero-Labs/solidity-examples/blob/main/contracts/lzApp/LzApp.sol\":6649:6789  function setPayloadSizeLimit(uint16 _dstChainId, uint _size) external onlyOwner {... */\n    tag_51:\n        /* \"@openzeppelin/contracts/access/Ownable.sol\":1531:1544  _checkOwner() */\n      tag_202\n        /* \"@openzeppelin/contracts/access/Ownable.sol\":1531:1542  _checkOwner */\n      tag_194\n        /* \"@openzeppelin/contracts/access/Ownable.sol\":1531:1544  _checkOwner() */\n      jump\t// in\n    tag_202:\n        /* \"https://github.com/LayerZero-Labs/solidity-examples/blob/main/contracts/lzApp/LzApp.sol\":6739:6774  payloadSizeLimitLookup[_dstChainId] */\n      0xffff\n      swap1\n      swap2\n      and\n      0x00\n      swap1\n      dup2\n      mstore\n        /* \"https://github.com/LayerZero-Labs/solidity-examples/blob/main/contracts/lzApp/LzApp.sol\":6739:6761  payloadSizeLimitLookup */\n      0x03\n        /* \"https://github.com/LayerZero-Labs/solidity-examples/blob/main/contracts/lzApp/LzApp.sol\":6739:6774  payloadSizeLimitLookup[_dstChainId] */\n      0x20\n      mstore\n      0x40\n      swap1\n      keccak256\n        /* \"https://github.com/LayerZero-Labs/solidity-examples/blob/main/contracts/lzApp/LzApp.sol\":6739:6782  payloadSizeLimitLookup[_dstChainId] = _size */\n      sstore\n        /* \"https://github.com/LayerZero-Labs/solidity-examples/blob/main/contracts/lzApp/LzApp.sol\":6649:6789  function setPayloadSizeLimit(uint16 _dstChainId, uint _size) external onlyOwner {... */\n      jump\t// out\n        /* \"https://github.com/LayerZero-Labs/solidity-examples/blob/main/contracts/lzApp/LzApp.sol\":4918:5045  function setReceiveVersion(uint16 _version) external override onlyOwner {... */\n    tag_55:\n        /* \"@openzeppelin/contracts/access/Ownable.sol\":1531:1544  _checkOwner() */\n      tag_205\n        /* \"@openzeppelin/contracts/access/Ownable.sol\":1531:1542  _checkOwner */\n      tag_194\n        /* \"@openzeppelin/contracts/access/Ownable.sol\":1531:1544  _checkOwner() */\n      jump\t// in\n    tag_205:\n        /* \"https://github.com/LayerZero-Labs/solidity-examples/blob/main/contracts/lzApp/LzApp.sol\":5000:5038  lzEndpoint.setReceiveVersion(_version) */\n      mload(0x40)\n      shl(0xe0, 0x10ddb137)\n      dup2\n      mstore\n        /* \"#utility.yul\":10071:10077   */\n      0xffff\n        /* \"#utility.yul\":10059:10078   */\n      dup3\n      and\n        /* \"https://github.com/LayerZero-Labs/solidity-examples/blob/main/contracts/lzApp/LzApp.sol\":5000:5038  lzEndpoint.setReceiveVersion(_version) */\n      0x04\n      dup3\n      add\n        /* \"#utility.yul\":10041:10079   */\n      mstore\n        /* \"https://github.com/LayerZero-Labs/solidity-examples/blob/main/contracts/lzApp/LzApp.sol\":5000:5010  lzEndpoint */\n      immutable(\"0x9e21dd0364e3e97524b0a6af83debf309aa812eb058333a9ab7b8e3a0d33a9c2\")\n      sub(shl(0xa0, 0x01), 0x01)\n        /* \"https://github.com/LayerZero-Labs/solidity-examples/blob/main/contracts/lzApp/LzApp.sol\":5000:5028  lzEndpoint.setReceiveVersion */\n      and\n      swap1\n      0x10ddb137\n      swap1\n        /* \"#utility.yul\":10014:10032   */\n      0x24\n      add\n        /* \"https://github.com/LayerZero-Labs/solidity-examples/blob/main/contracts/lzApp/LzApp.sol\":5000:5038  lzEndpoint.setReceiveVersion(_version) */\n      tag_196\n        /* \"#utility.yul\":9897:10085   */\n      jump\n        /* \"https://github.com/LayerZero-Labs/solidity-examples/blob/main/contracts/lzApp/LzApp.sol\":6884:7131  function isTrustedRemote(uint16 _srcChainId, bytes calldata _srcAddress) external view returns (bool) {... */\n    tag_60:\n        /* \"https://github.com/LayerZero-Labs/solidity-examples/blob/main/contracts/lzApp/LzApp.sol\":7025:7057  trustedRemoteLookup[_srcChainId] */\n      0xffff\n      dup4\n      and\n        /* \"https://github.com/LayerZero-Labs/solidity-examples/blob/main/contracts/lzApp/LzApp.sol\":6980:6984  bool */\n      0x00\n        /* \"https://github.com/LayerZero-Labs/solidity-examples/blob/main/contracts/lzApp/LzApp.sol\":7025:7057  trustedRemoteLookup[_srcChainId] */\n      swap1\n      dup2\n      mstore\n        /* \"https://github.com/LayerZero-Labs/solidity-examples/blob/main/contracts/lzApp/LzApp.sol\":7025:7044  trustedRemoteLookup */\n      0x01\n        /* \"https://github.com/LayerZero-Labs/solidity-examples/blob/main/contracts/lzApp/LzApp.sol\":7025:7057  trustedRemoteLookup[_srcChainId] */\n      0x20\n      mstore\n      0x40\n      dup2\n      keccak256\n        /* \"https://github.com/LayerZero-Labs/solidity-examples/blob/main/contracts/lzApp/LzApp.sol\":6996:7057  bytes memory trustedSource = trustedRemoteLookup[_srcChainId] */\n      dup1\n      sload\n        /* \"https://github.com/LayerZero-Labs/solidity-examples/blob/main/contracts/lzApp/LzApp.sol\":6980:6984  bool */\n      dup3\n      swap2\n        /* \"https://github.com/LayerZero-Labs/solidity-examples/blob/main/contracts/lzApp/LzApp.sol\":7025:7057  trustedRemoteLookup[_srcChainId] */\n      swap1\n        /* \"https://github.com/LayerZero-Labs/solidity-examples/blob/main/contracts/lzApp/LzApp.sol\":6996:7057  bytes memory trustedSource = trustedRemoteLookup[_srcChainId] */\n      tag_212\n      swap1\n      tag_178\n      jump\t// in\n    tag_212:\n      dup1\n      0x1f\n      add\n      0x20\n      dup1\n      swap2\n      div\n      mul\n      0x20\n      add\n      mload(0x40)\n      swap1\n      dup2\n      add\n      0x40\n      mstore\n      dup1\n      swap3\n      swap2\n      swap1\n      dup2\n      dup2\n      mstore\n      0x20\n      add\n      dup3\n      dup1\n      sload\n      tag_213\n      swap1\n      tag_178\n      jump\t// in\n    tag_213:\n      dup1\n      iszero\n      tag_214\n      jumpi\n      dup1\n      0x1f\n      lt\n      tag_215\n      jumpi\n      0x0100\n      dup1\n      dup4\n      sload\n      div\n      mul\n      dup4\n      mstore\n      swap2\n      0x20\n      add\n      swap2\n      jump(tag_214)\n    tag_215:\n      dup3\n      add\n      swap2\n      swap1\n      0x00\n      mstore\n      keccak256(0x00, 0x20)\n      swap1\n    tag_216:\n      dup2\n      sload\n      dup2\n      mstore\n      swap1\n      0x01\n      add\n      swap1\n      0x20\n      add\n      dup1\n      dup4\n      gt\n      tag_216\n      jumpi\n      dup3\n      swap1\n      sub\n      0x1f\n      and\n      dup3\n      add\n      swap2\n    tag_214:\n      pop\n      pop\n      pop\n      pop\n      pop\n      swap1\n      pop\n        /* \"https://github.com/LayerZero-Labs/solidity-examples/blob/main/contracts/lzApp/LzApp.sol\":7112:7123  _srcAddress */\n      dup4\n      dup4\n        /* \"https://github.com/LayerZero-Labs/solidity-examples/blob/main/contracts/lzApp/LzApp.sol\":7102:7124  keccak256(_srcAddress) */\n      mload(0x40)\n      tag_217\n      swap3\n      swap2\n      swap1\n      tag_186\n      jump\t// in\n    tag_217:\n      mload(0x40)\n      dup1\n      swap2\n      sub\n      swap1\n      keccak256\n        /* \"https://github.com/LayerZero-Labs/solidity-examples/blob/main/contracts/lzApp/LzApp.sol\":7084:7097  trustedSource */\n      dup2\n        /* \"https://github.com/LayerZero-Labs/solidity-examples/blob/main/contracts/lzApp/LzApp.sol\":7074:7098  keccak256(trustedSource) */\n      dup1\n      mload\n      swap1\n      0x20\n      add\n      keccak256\n        /* \"https://github.com/LayerZero-Labs/solidity-examples/blob/main/contracts/lzApp/LzApp.sol\":7074:7124  keccak256(trustedSource) == keccak256(_srcAddress) */\n      eq\n        /* \"https://github.com/LayerZero-Labs/solidity-examples/blob/main/contracts/lzApp/LzApp.sol\":7067:7124  return keccak256(trustedSource) == keccak256(_srcAddress) */\n      swap2\n      pop\n      pop\n        /* \"https://github.com/LayerZero-Labs/solidity-examples/blob/main/contracts/lzApp/LzApp.sol\":6884:7131  function isTrustedRemote(uint16 _srcChainId, bytes calldata _srcAddress) external view returns (bool) {... */\n    tag_211:\n      swap4\n      swap3\n      pop\n      pop\n      pop\n      jump\t// out\n        /* \"https://github.com/LayerZero-Labs/solidity-examples/blob/main/contracts/lzApp/LzApp.sol\":5051:5227  function forceResumeReceive(uint16 _srcChainId, bytes calldata _srcAddress) external override onlyOwner {... */\n    tag_72:\n        /* \"@openzeppelin/contracts/access/Ownable.sol\":1531:1544  _checkOwner() */\n      tag_219\n        /* \"@openzeppelin/contracts/access/Ownable.sol\":1531:1542  _checkOwner */\n      tag_194\n        /* \"@openzeppelin/contracts/access/Ownable.sol\":1531:1544  _checkOwner() */\n      jump\t// in\n    tag_219:\n        /* \"https://github.com/LayerZero-Labs/solidity-examples/blob/main/contracts/lzApp/LzApp.sol\":5165:5220  lzEndpoint.forceResumeReceive(_srcChainId, _srcAddress) */\n      mload(0x40)\n      shl(0xe0, 0x42d65a8d)\n      dup2\n      mstore\n      sub(shl(0xa0, 0x01), 0x01)\n        /* \"https://github.com/LayerZero-Labs/solidity-examples/blob/main/contracts/lzApp/LzApp.sol\":5165:5175  lzEndpoint */\n      immutable(\"0x9e21dd0364e3e97524b0a6af83debf309aa812eb058333a9ab7b8e3a0d33a9c2\")\n        /* \"https://github.com/LayerZero-Labs/solidity-examples/blob/main/contracts/lzApp/LzApp.sol\":5165:5194  lzEndpoint.forceResumeReceive */\n      and\n      swap1\n      0x42d65a8d\n      swap1\n        /* \"https://github.com/LayerZero-Labs/solidity-examples/blob/main/contracts/lzApp/LzApp.sol\":5165:5220  lzEndpoint.forceResumeReceive(_srcChainId, _srcAddress) */\n      tag_221\n      swap1\n        /* \"https://github.com/LayerZero-Labs/solidity-examples/blob/main/contracts/lzApp/LzApp.sol\":5195:5206  _srcChainId */\n      dup7\n      swap1\n        /* \"https://github.com/LayerZero-Labs/solidity-examples/blob/main/contracts/lzApp/LzApp.sol\":5208:5219  _srcAddress */\n      dup7\n      swap1\n      dup7\n      swap1\n        /* \"https://github.com/LayerZero-Labs/solidity-examples/blob/main/contracts/lzApp/LzApp.sol\":5165:5220  lzEndpoint.forceResumeReceive(_srcChainId, _srcAddress) */\n      0x04\n      add\n      tag_222\n      jump\t// in\n    tag_221:\n      0x00\n      mload(0x40)\n      dup1\n      dup4\n      sub\n      dup2\n      0x00\n      dup8\n      dup1\n      extcodesize\n      iszero\n      dup1\n      iszero\n      tag_223\n      jumpi\n      0x00\n      dup1\n      revert\n    tag_223:\n      pop\n      gas\n      call\n      iszero\n      dup1\n      iszero\n      tag_190\n      jumpi\n      returndatasize\n      0x00\n      dup1\n      returndatacopy\n      revert(0x00, returndatasize)\n        /* \"LayerZeroTest.sol\":1312:1479  function trustAddress(address _otherContract) public onlyOwner {... */\n    tag_84:\n        /* \"@openzeppelin/contracts/access/Ownable.sol\":1531:1544  _checkOwner() */\n      tag_227\n        /* \"@openzeppelin/contracts/access/Ownable.sol\":1531:1542  _checkOwner */\n      tag_194\n        /* \"@openzeppelin/contracts/access/Ownable.sol\":1531:1544  _checkOwner() */\n      jump\t// in\n    tag_227:\n        /* \"LayerZeroTest.sol\":1421:1468  abi.encodePacked(_otherContract, address(this)) */\n      mload(0x40)\n      not(0xffffffffffffffffffffffff)\n        /* \"#utility.yul\":10919:10921   */\n      0x60\n        /* \"#utility.yul\":10915:10930   */\n      dup4\n      dup2\n      shl\n        /* \"#utility.yul\":10911:10935   */\n      dup3\n      and\n        /* \"LayerZeroTest.sol\":1421:1468  abi.encodePacked(_otherContract, address(this)) */\n      0x20\n      dup5\n      add\n        /* \"#utility.yul\":10899:10936   */\n      mstore\n        /* \"LayerZeroTest.sol\":1462:1466  this */\n      address\n        /* \"#utility.yul\":10970:10985   */\n      swap1\n      shl\n        /* \"#utility.yul\":10966:10990   */\n      and\n        /* \"#utility.yul\":10952:10964   */\n      0x34\n      dup3\n      add\n        /* \"#utility.yul\":10945:10991   */\n      mstore\n        /* \"#utility.yul\":11007:11019   */\n      0x48\n      add\n        /* \"LayerZeroTest.sol\":1421:1468  abi.encodePacked(_otherContract, address(this)) */\n      0x40\n      dup1\n      mload\n      not(0x1f)\n      dup2\n      dup5\n      sub\n      add\n      dup2\n      mstore\n      swap2\n      dup2\n      mstore\n        /* \"LayerZeroTest.sol\":1406:1417  destChainId */\n      and(0xffff, sload(0x07))\n        /* \"LayerZeroTest.sol\":1386:1418  trustedRemoteLookup[destChainId] */\n      0x00\n      swap1\n      dup2\n      mstore\n        /* \"LayerZeroTest.sol\":1386:1405  trustedRemoteLookup */\n      0x01\n        /* \"LayerZeroTest.sol\":1421:1468  abi.encodePacked(_otherContract, address(this)) */\n      0x20\n        /* \"LayerZeroTest.sol\":1386:1418  trustedRemoteLookup[destChainId] */\n      mstore\n      keccak256\n      swap1\n        /* \"LayerZeroTest.sol\":1386:1468  trustedRemoteLookup[destChainId] = abi.encodePacked(_otherContract, address(this)) */\n      tag_231\n      swap1\n        /* \"LayerZeroTest.sol\":1386:1418  trustedRemoteLookup[destChainId] */\n      dup3\n        /* \"LayerZeroTest.sol\":1386:1468  trustedRemoteLookup[destChainId] = abi.encodePacked(_otherContract, address(this)) */\n      tag_232\n      jump\t// in\n    tag_231:\n      pop\n        /* \"LayerZeroTest.sol\":1312:1479  function trustAddress(address _otherContract) public onlyOwner {... */\n      pop\n      jump\t// out\n        /* \"LayerZeroTest.sol\":1092:1304  function send(string memory _message) public payable {... */\n    tag_88:\n        /* \"LayerZeroTest.sol\":1156:1176  bytes memory payload */\n      0x00\n        /* \"LayerZeroTest.sol\":1190:1198  _message */\n      dup2\n        /* \"LayerZeroTest.sol\":1179:1199  abi.encode(_message) */\n      add(0x20, mload(0x40))\n      tag_234\n      swap2\n      swap1\n      tag_100\n      jump\t// in\n    tag_234:\n      0x40\n      dup1\n      mload\n      not(0x1f)\n      dup2\n      dup5\n      sub\n      add\n      dup2\n      mstore\n        /* \"LayerZeroTest.sol\":1218:1229  destChainId */\n      sload(0x07)\n        /* \"LayerZeroTest.sol\":1179:1199  abi.encode(_message) */\n      0x20\n        /* \"LayerZeroTest.sol\":1275:1284  bytes(\"\") */\n      dup5\n      add\n      swap1\n      swap3\n      mstore\n        /* \"LayerZeroTest.sol\":1218:1229  destChainId */\n      0x00\n        /* \"LayerZeroTest.sol\":1275:1284  bytes(\"\") */\n      dup1\n      dup5\n      mstore\n        /* \"LayerZeroTest.sol\":1179:1199  abi.encode(_message) */\n      swap1\n      swap4\n      pop\n        /* \"LayerZeroTest.sol\":1210:1296  _lzSend(destChainId, payload, payable(msg.sender), address(0x0), bytes(\"\"), msg.value) */\n      tag_231\n      swap3\n        /* \"LayerZeroTest.sol\":1218:1229  destChainId */\n      0xffff\n      swap1\n      swap3\n      and\n      swap2\n        /* \"LayerZeroTest.sol\":1179:1199  abi.encode(_message) */\n      dup5\n      swap2\n        /* \"LayerZeroTest.sol\":1248:1258  msg.sender */\n      caller\n      swap2\n        /* \"LayerZeroTest.sol\":1286:1295  msg.value */\n      callvalue\n        /* \"LayerZeroTest.sol\":1210:1217  _lzSend */\n      tag_236\n        /* \"LayerZeroTest.sol\":1210:1296  _lzSend(destChainId, payload, payable(msg.sender), address(0x0), bytes(\"\"), msg.value) */\n      jump\t// in\n        /* \"https://github.com/LayerZero-Labs/solidity-examples/blob/main/contracts/lzApp/NonblockingLzApp.sol\":1912:2292  function nonblockingLzReceive(... */\n    tag_92:\n        /* \"@openzeppelin/contracts/utils/Context.sol\":735:745  msg.sender */\n      caller\n        /* \"https://github.com/LayerZero-Labs/solidity-examples/blob/main/contracts/lzApp/NonblockingLzApp.sol\":2162:2166  this */\n      address\n        /* \"https://github.com/LayerZero-Labs/solidity-examples/blob/main/contracts/lzApp/NonblockingLzApp.sol\":2138:2167  _msgSender() == address(this) */\n      eq\n        /* \"https://github.com/LayerZero-Labs/solidity-examples/blob/main/contracts/lzApp/NonblockingLzApp.sol\":2130:2210  require(_msgSender() == address(this), \"NonblockingLzApp: caller must be LzApp\") */\n      tag_239\n      jumpi\n      mload(0x40)\n      shl(0xe5, 0x461bcd)\n      dup2\n      mstore\n        /* \"#utility.yul\":13421:13423   */\n      0x20\n        /* \"https://github.com/LayerZero-Labs/solidity-examples/blob/main/contracts/lzApp/NonblockingLzApp.sol\":2130:2210  require(_msgSender() == address(this), \"NonblockingLzApp: caller must be LzApp\") */\n      0x04\n      dup3\n      add\n        /* \"#utility.yul\":13403:13424   */\n      mstore\n        /* \"#utility.yul\":13460:13462   */\n      0x26\n        /* \"#utility.yul\":13440:13458   */\n      0x24\n      dup3\n      add\n        /* \"#utility.yul\":13433:13463   */\n      mstore\n        /* \"#utility.yul\":13499:13533   */\n      0x4e6f6e626c6f636b696e674c7a4170703a2063616c6c6572206d757374206265\n        /* \"#utility.yul\":13479:13497   */\n      0x44\n      dup3\n      add\n        /* \"#utility.yul\":13472:13534   */\n      mstore\n      shl(0xd4, 0x0204c7a41707)\n        /* \"#utility.yul\":13550:13568   */\n      0x64\n      dup3\n      add\n        /* \"#utility.yul\":13543:13579   */\n      mstore\n        /* \"#utility.yul\":13596:13615   */\n      0x84\n      add\n        /* \"https://github.com/LayerZero-Labs/solidity-examples/blob/main/contracts/lzApp/NonblockingLzApp.sol\":2130:2210  require(_msgSender() == address(this), \"NonblockingLzApp: caller must be LzApp\") */\n      tag_175\n        /* \"#utility.yul\":13219:13621   */\n      jump\n        /* \"https://github.com/LayerZero-Labs/solidity-examples/blob/main/contracts/lzApp/NonblockingLzApp.sol\":2130:2210  require(_msgSender() == address(this), \"NonblockingLzApp: caller must be LzApp\") */\n    tag_239:\n        /* \"https://github.com/LayerZero-Labs/solidity-examples/blob/main/contracts/lzApp/NonblockingLzApp.sol\":2220:2285  _nonblockingLzReceive(_srcChainId, _srcAddress, _nonce, _payload) */\n      tag_242\n        /* \"https://github.com/LayerZero-Labs/solidity-examples/blob/main/contracts/lzApp/NonblockingLzApp.sol\":2242:2253  _srcChainId */\n      dup7\n        /* \"https://github.com/LayerZero-Labs/solidity-examples/blob/main/contracts/lzApp/NonblockingLzApp.sol\":2255:2266  _srcAddress */\n      dup7\n      dup7\n        /* \"https://github.com/LayerZero-Labs/solidity-examples/blob/main/contracts/lzApp/NonblockingLzApp.sol\":2220:2285  _nonblockingLzReceive(_srcChainId, _srcAddress, _nonce, _payload) */\n      dup1\n      dup1\n      0x1f\n      add\n      0x20\n      dup1\n      swap2\n      div\n      mul\n      0x20\n      add\n      mload(0x40)\n      swap1\n      dup2\n      add\n      0x40\n      mstore\n      dup1\n      swap4\n      swap3\n      swap2\n      swap1\n      dup2\n      dup2\n      mstore\n      0x20\n      add\n      dup4\n      dup4\n      dup1\n      dup3\n      dup5\n      calldatacopy\n      0x00\n      swap3\n      add\n      swap2\n      swap1\n      swap2\n      mstore\n      pop\n      pop\n      0x40\n      dup1\n      mload\n      0x20\n      0x1f\n      dup10\n      add\n      dup2\n      swap1\n      div\n      dup2\n      mul\n      dup3\n      add\n      dup2\n      add\n      swap1\n      swap3\n      mstore\n      dup8\n      dup2\n      mstore\n        /* \"https://github.com/LayerZero-Labs/solidity-examples/blob/main/contracts/lzApp/NonblockingLzApp.sol\":2268:2274  _nonce */\n      dup10\n      swap4\n      pop\n        /* \"https://github.com/LayerZero-Labs/solidity-examples/blob/main/contracts/lzApp/NonblockingLzApp.sol\":2220:2285  _nonblockingLzReceive(_srcChainId, _srcAddress, _nonce, _payload) */\n      swap2\n      pop\n        /* \"https://github.com/LayerZero-Labs/solidity-examples/blob/main/contracts/lzApp/NonblockingLzApp.sol\":2276:2284  _payload */\n      dup8\n      swap1\n      dup8\n      swap1\n      dup2\n      swap1\n        /* \"https://github.com/LayerZero-Labs/solidity-examples/blob/main/contracts/lzApp/NonblockingLzApp.sol\":2220:2285  _nonblockingLzReceive(_srcChainId, _srcAddress, _nonce, _payload) */\n      dup5\n      add\n        /* \"https://github.com/LayerZero-Labs/solidity-examples/blob/main/contracts/lzApp/NonblockingLzApp.sol\":2276:2284  _payload */\n      dup4\n      dup3\n      dup1\n      dup3\n        /* \"https://github.com/LayerZero-Labs/solidity-examples/blob/main/contracts/lzApp/NonblockingLzApp.sol\":2220:2285  _nonblockingLzReceive(_srcChainId, _srcAddress, _nonce, _payload) */\n      dup5\n      calldatacopy\n      0x00\n      swap3\n      add\n      swap2\n      swap1\n      swap2\n      mstore\n      pop\n        /* \"https://github.com/LayerZero-Labs/solidity-examples/blob/main/contracts/lzApp/NonblockingLzApp.sol\":2220:2241  _nonblockingLzReceive */\n      tag_243\n      swap3\n      pop\n      pop\n      pop\n        /* \"https://github.com/LayerZero-Labs/solidity-examples/blob/main/contracts/lzApp/NonblockingLzApp.sol\":2220:2285  _nonblockingLzReceive(_srcChainId, _srcAddress, _nonce, _payload) */\n      jump\t// in\n    tag_242:\n        /* \"https://github.com/LayerZero-Labs/solidity-examples/blob/main/contracts/lzApp/NonblockingLzApp.sol\":1912:2292  function nonblockingLzReceive(... */\n      pop\n      pop\n      pop\n      pop\n      pop\n      pop\n      jump\t// out\n        /* \"@openzeppelin/contracts/access/Ownable.sol\":2293:2394  function renounceOwnership() public virtual onlyOwner {... */\n    tag_95:\n        /* \"@openzeppelin/contracts/access/Ownable.sol\":1531:1544  _checkOwner() */\n      tag_245\n        /* \"@openzeppelin/contracts/access/Ownable.sol\":1531:1542  _checkOwner */\n      tag_194\n        /* \"@openzeppelin/contracts/access/Ownable.sol\":1531:1544  _checkOwner() */\n      jump\t// in\n    tag_245:\n        /* \"@openzeppelin/contracts/access/Ownable.sol\":2357:2387  _transferOwnership(address(0)) */\n      tag_247\n        /* \"@openzeppelin/contracts/access/Ownable.sol\":2384:2385  0 */\n      0x00\n        /* \"@openzeppelin/contracts/access/Ownable.sol\":2357:2375  _transferOwnership */\n      tag_248\n        /* \"@openzeppelin/contracts/access/Ownable.sol\":2357:2387  _transferOwnership(address(0)) */\n      jump\t// in\n    tag_247:\n        /* \"@openzeppelin/contracts/access/Ownable.sol\":2293:2394  function renounceOwnership() public virtual onlyOwner {... */\n      jump\t// out\n        /* \"LayerZeroTest.sol\":561:604  string public data = \"Nothing received yet\" */\n    tag_98:\n      0x06\n      dup1\n      sload\n      tag_249\n      swap1\n      tag_178\n      jump\t// in\n    tag_249:\n      dup1\n      0x1f\n      add\n      0x20\n      dup1\n      swap2\n      div\n      mul\n      0x20\n      add\n      mload(0x40)\n      swap1\n      dup2\n      add\n      0x40\n      mstore\n      dup1\n      swap3\n      swap2\n      swap1\n      dup2\n      dup2\n      mstore\n      0x20\n      add\n      dup3\n      dup1\n      sload\n      tag_250\n      swap1\n      tag_178\n      jump\t// in\n    tag_250:\n      dup1\n      iszero\n      tag_251\n      jumpi\n      dup1\n      0x1f\n      lt\n      tag_252\n      jumpi\n      0x0100\n      dup1\n      dup4\n      sload\n      div\n      mul\n      dup4\n      mstore\n      swap2\n      0x20\n      add\n      swap2\n      jump(tag_251)\n    tag_252:\n      dup3\n      add\n      swap2\n      swap1\n      0x00\n      mstore\n      keccak256(0x00, 0x20)\n      swap1\n    tag_253:\n      dup2\n      sload\n      dup2\n      mstore\n      swap1\n      0x01\n      add\n      swap1\n      0x20\n      add\n      dup1\n      dup4\n      gt\n      tag_253\n      jumpi\n      dup3\n      swap1\n      sub\n      0x1f\n      and\n      dup3\n      add\n      swap2\n    tag_251:\n      pop\n      pop\n      pop\n      pop\n      pop\n      dup2\n      jump\t// out\n        /* \"https://github.com/LayerZero-Labs/solidity-examples/blob/main/contracts/lzApp/LzApp.sol\":682:733  mapping(uint16 => bytes) public trustedRemoteLookup */\n    tag_104:\n      mstore(0x20, 0x01)\n      0x00\n      swap1\n      dup2\n      mstore\n      0x40\n      swap1\n      keccak256\n      dup1\n      sload\n      tag_249\n      swap1\n      tag_178\n      jump\t// in\n        /* \"https://github.com/LayerZero-Labs/solidity-examples/blob/main/contracts/lzApp/LzApp.sol\":5864:6190  function getTrustedRemoteAddress(uint16 _remoteChainId) external view returns (bytes memory) {... */\n    tag_125:\n        /* \"https://github.com/LayerZero-Labs/solidity-examples/blob/main/contracts/lzApp/LzApp.sol\":5987:6022  trustedRemoteLookup[_remoteChainId] */\n      0xffff\n      dup2\n      and\n        /* \"https://github.com/LayerZero-Labs/solidity-examples/blob/main/contracts/lzApp/LzApp.sol\":5967:5984  bytes memory path */\n      0x00\n        /* \"https://github.com/LayerZero-Labs/solidity-examples/blob/main/contracts/lzApp/LzApp.sol\":5987:6022  trustedRemoteLookup[_remoteChainId] */\n      swap1\n      dup2\n      mstore\n        /* \"https://github.com/LayerZero-Labs/solidity-examples/blob/main/contracts/lzApp/LzApp.sol\":5987:6006  trustedRemoteLookup */\n      0x01\n        /* \"https://github.com/LayerZero-Labs/solidity-examples/blob/main/contracts/lzApp/LzApp.sol\":5987:6022  trustedRemoteLookup[_remoteChainId] */\n      0x20\n      mstore\n      0x40\n      dup2\n      keccak256\n        /* \"https://github.com/LayerZero-Labs/solidity-examples/blob/main/contracts/lzApp/LzApp.sol\":5967:6022  bytes memory path = trustedRemoteLookup[_remoteChainId] */\n      dup1\n      sload\n        /* \"https://github.com/LayerZero-Labs/solidity-examples/blob/main/contracts/lzApp/LzApp.sol\":5943:5955  bytes memory */\n      0x60\n      swap3\n        /* \"https://github.com/LayerZero-Labs/solidity-examples/blob/main/contracts/lzApp/LzApp.sol\":5967:5984  bytes memory path */\n      swap2\n        /* \"https://github.com/LayerZero-Labs/solidity-examples/blob/main/contracts/lzApp/LzApp.sol\":5987:6022  trustedRemoteLookup[_remoteChainId] */\n      swap1\n        /* \"https://github.com/LayerZero-Labs/solidity-examples/blob/main/contracts/lzApp/LzApp.sol\":5967:6022  bytes memory path = trustedRemoteLookup[_remoteChainId] */\n      tag_261\n      swap1\n      tag_178\n      jump\t// in\n    tag_261:\n      dup1\n      0x1f\n      add\n      0x20\n      dup1\n      swap2\n      div\n      mul\n      0x20\n      add\n      mload(0x40)\n      swap1\n      dup2\n      add\n      0x40\n      mstore\n      dup1\n      swap3\n      swap2\n      swap1\n      dup2\n      dup2\n      mstore\n      0x20\n      add\n      dup3\n      dup1\n      sload\n      tag_262\n      swap1\n      tag_178\n      jump\t// in\n    tag_262:\n      dup1\n      iszero\n      tag_263\n      jumpi\n      dup1\n      0x1f\n      lt\n      tag_264\n      jumpi\n      0x0100\n      dup1\n      dup4\n      sload\n      div\n      mul\n      dup4\n      mstore\n      swap2\n      0x20\n      add\n      swap2\n      jump(tag_263)\n    tag_264:\n      dup3\n      add\n      swap2\n      swap1\n      0x00\n      mstore\n      keccak256(0x00, 0x20)\n      swap1\n    tag_265:\n      dup2\n      sload\n      dup2\n      mstore\n      swap1\n      0x01\n      add\n      swap1\n      0x20\n      add\n      dup1\n      dup4\n      gt\n      tag_265\n      jumpi\n      dup3\n      swap1\n      sub\n      0x1f\n      and\n      dup3\n      add\n      swap2\n    tag_263:\n      pop\n      pop\n      pop\n      pop\n      pop\n      swap1\n      pop\n        /* \"https://github.com/LayerZero-Labs/solidity-examples/blob/main/contracts/lzApp/LzApp.sol\":6040:6044  path */\n      dup1\n        /* \"https://github.com/LayerZero-Labs/solidity-examples/blob/main/contracts/lzApp/LzApp.sol\":6040:6051  path.length */\n      mload\n        /* \"https://github.com/LayerZero-Labs/solidity-examples/blob/main/contracts/lzApp/LzApp.sol\":6055:6056  0 */\n      0x00\n        /* \"https://github.com/LayerZero-Labs/solidity-examples/blob/main/contracts/lzApp/LzApp.sol\":6040:6056  path.length != 0 */\n      sub\n        /* \"https://github.com/LayerZero-Labs/solidity-examples/blob/main/contracts/lzApp/LzApp.sol\":6032:6090  require(path.length != 0, \"LzApp: no trusted path record\") */\n      tag_266\n      jumpi\n      mload(0x40)\n      shl(0xe5, 0x461bcd)\n      dup2\n      mstore\n        /* \"#utility.yul\":13828:13830   */\n      0x20\n        /* \"https://github.com/LayerZero-Labs/solidity-examples/blob/main/contracts/lzApp/LzApp.sol\":6032:6090  require(path.length != 0, \"LzApp: no trusted path record\") */\n      0x04\n      dup3\n      add\n        /* \"#utility.yul\":13810:13831   */\n      mstore\n        /* \"#utility.yul\":13867:13869   */\n      0x1d\n        /* \"#utility.yul\":13847:13865   */\n      0x24\n      dup3\n      add\n        /* \"#utility.yul\":13840:13870   */\n      mstore\n        /* \"#utility.yul\":13906:13937   */\n      0x4c7a4170703a206e6f20747275737465642070617468207265636f7264000000\n        /* \"#utility.yul\":13886:13904   */\n      0x44\n      dup3\n      add\n        /* \"#utility.yul\":13879:13938   */\n      mstore\n        /* \"#utility.yul\":13955:13973   */\n      0x64\n      add\n        /* \"https://github.com/LayerZero-Labs/solidity-examples/blob/main/contracts/lzApp/LzApp.sol\":6032:6090  require(path.length != 0, \"LzApp: no trusted path record\") */\n      tag_175\n        /* \"#utility.yul\":13626:13979   */\n      jump\n        /* \"https://github.com/LayerZero-Labs/solidity-examples/blob/main/contracts/lzApp/LzApp.sol\":6032:6090  require(path.length != 0, \"LzApp: no trusted path record\") */\n    tag_266:\n        /* \"https://github.com/LayerZero-Labs/solidity-examples/blob/main/contracts/lzApp/LzApp.sol\":6107:6138  path.slice(0, path.length - 20) */\n      tag_211\n        /* \"https://github.com/LayerZero-Labs/solidity-examples/blob/main/contracts/lzApp/LzApp.sol\":6118:6119  0 */\n      0x00\n        /* \"https://github.com/LayerZero-Labs/solidity-examples/blob/main/contracts/lzApp/LzApp.sol\":6135:6137  20 */\n      0x14\n        /* \"https://github.com/LayerZero-Labs/solidity-examples/blob/main/contracts/lzApp/LzApp.sol\":6121:6125  path */\n      dup4\n        /* \"https://github.com/LayerZero-Labs/solidity-examples/blob/main/contracts/lzApp/LzApp.sol\":6121:6132  path.length */\n      mload\n        /* \"https://github.com/LayerZero-Labs/solidity-examples/blob/main/contracts/lzApp/LzApp.sol\":6121:6137  path.length - 20 */\n      tag_270\n      swap2\n      swap1\n      tag_271\n      jump\t// in\n    tag_270:\n        /* \"https://github.com/LayerZero-Labs/solidity-examples/blob/main/contracts/lzApp/LzApp.sol\":6107:6111  path */\n      dup4\n      swap2\n        /* \"https://github.com/LayerZero-Labs/solidity-examples/blob/main/contracts/lzApp/LzApp.sol\":6107:6138  path.slice(0, path.length - 20) */\n      swap1\n        /* \"https://github.com/LayerZero-Labs/solidity-examples/blob/main/contracts/lzApp/LzApp.sol\":6107:6117  path.slice */\n      tag_272\n        /* \"https://github.com/LayerZero-Labs/solidity-examples/blob/main/contracts/lzApp/LzApp.sol\":6107:6138  path.slice(0, path.length - 20) */\n      jump\t// in\n        /* \"https://github.com/LayerZero-Labs/solidity-examples/blob/main/contracts/lzApp/LzApp.sol\":5580:5858  function setTrustedRemoteAddress(uint16 _remoteChainId, bytes calldata _remoteAddress) external onlyOwner {... */\n    tag_130:\n        /* \"@openzeppelin/contracts/access/Ownable.sol\":1531:1544  _checkOwner() */\n      tag_274\n        /* \"@openzeppelin/contracts/access/Ownable.sol\":1531:1542  _checkOwner */\n      tag_194\n        /* \"@openzeppelin/contracts/access/Ownable.sol\":1531:1544  _checkOwner() */\n      jump\t// in\n    tag_274:\n        /* \"https://github.com/LayerZero-Labs/solidity-examples/blob/main/contracts/lzApp/LzApp.sol\":5751:5765  _remoteAddress */\n      dup2\n      dup2\n        /* \"https://github.com/LayerZero-Labs/solidity-examples/blob/main/contracts/lzApp/LzApp.sol\":5775:5779  this */\n      address\n        /* \"https://github.com/LayerZero-Labs/solidity-examples/blob/main/contracts/lzApp/LzApp.sol\":5734:5781  abi.encodePacked(_remoteAddress, address(this)) */\n      add(0x20, mload(0x40))\n      tag_276\n      swap4\n      swap3\n      swap2\n      swap1\n      tag_277\n      jump\t// in\n    tag_276:\n      0x40\n      dup1\n      mload\n      not(0x1f)\n      dup2\n      dup5\n      sub\n      add\n      dup2\n      mstore\n      swap2\n      dup2\n      mstore\n        /* \"https://github.com/LayerZero-Labs/solidity-examples/blob/main/contracts/lzApp/LzApp.sol\":5696:5731  trustedRemoteLookup[_remoteChainId] */\n      0xffff\n      dup6\n      and\n      0x00\n      swap1\n      dup2\n      mstore\n        /* \"https://github.com/LayerZero-Labs/solidity-examples/blob/main/contracts/lzApp/LzApp.sol\":5696:5715  trustedRemoteLookup */\n      0x01\n        /* \"https://github.com/LayerZero-Labs/solidity-examples/blob/main/contracts/lzApp/LzApp.sol\":5734:5781  abi.encodePacked(_remoteAddress, address(this)) */\n      0x20\n        /* \"https://github.com/LayerZero-Labs/solidity-examples/blob/main/contracts/lzApp/LzApp.sol\":5696:5731  trustedRemoteLookup[_remoteChainId] */\n      mstore\n      keccak256\n      swap1\n        /* \"https://github.com/LayerZero-Labs/solidity-examples/blob/main/contracts/lzApp/LzApp.sol\":5696:5781  trustedRemoteLookup[_remoteChainId] = abi.encodePacked(_remoteAddress, address(this)) */\n      tag_278\n      swap1\n        /* \"https://github.com/LayerZero-Labs/solidity-examples/blob/main/contracts/lzApp/LzApp.sol\":5696:5731  trustedRemoteLookup[_remoteChainId] */\n      dup3\n        /* \"https://github.com/LayerZero-Labs/solidity-examples/blob/main/contracts/lzApp/LzApp.sol\":5696:5781  trustedRemoteLookup[_remoteChainId] = abi.encodePacked(_remoteAddress, address(this)) */\n      tag_232\n      jump\t// in\n    tag_278:\n      pop\n        /* \"https://github.com/LayerZero-Labs/solidity-examples/blob/main/contracts/lzApp/LzApp.sol\":5796:5851  SetTrustedRemoteAddress(_remoteChainId, _remoteAddress) */\n      0x8c0400cfe2d1199b1a725c78960bcc2a344d869b80590d0f2bd005db15a572ce\n        /* \"https://github.com/LayerZero-Labs/solidity-examples/blob/main/contracts/lzApp/LzApp.sol\":5820:5834  _remoteChainId */\n      dup4\n        /* \"https://github.com/LayerZero-Labs/solidity-examples/blob/main/contracts/lzApp/LzApp.sol\":5836:5850  _remoteAddress */\n      dup4\n      dup4\n        /* \"https://github.com/LayerZero-Labs/solidity-examples/blob/main/contracts/lzApp/LzApp.sol\":5796:5851  SetTrustedRemoteAddress(_remoteChainId, _remoteAddress) */\n      mload(0x40)\n      tag_279\n      swap4\n      swap3\n      swap2\n      swap1\n      tag_222\n      jump\t// in\n    tag_279:\n      mload(0x40)\n      dup1\n      swap2\n      sub\n      swap1\n      log1\n        /* \"https://github.com/LayerZero-Labs/solidity-examples/blob/main/contracts/lzApp/LzApp.sol\":5580:5858  function setTrustedRemoteAddress(uint16 _remoteChainId, bytes calldata _remoteAddress) external onlyOwner {... */\n      pop\n      pop\n      pop\n      jump\t// out\n        /* \"https://github.com/LayerZero-Labs/solidity-examples/blob/main/contracts/lzApp/LzApp.sol\":6196:6329  function setPrecrime(address _precrime) external onlyOwner {... */\n    tag_139:\n        /* \"@openzeppelin/contracts/access/Ownable.sol\":1531:1544  _checkOwner() */\n      tag_281\n        /* \"@openzeppelin/contracts/access/Ownable.sol\":1531:1542  _checkOwner */\n      tag_194\n        /* \"@openzeppelin/contracts/access/Ownable.sol\":1531:1544  _checkOwner() */\n      jump\t// in\n    tag_281:\n        /* \"https://github.com/LayerZero-Labs/solidity-examples/blob/main/contracts/lzApp/LzApp.sol\":6265:6273  precrime */\n      0x04\n        /* \"https://github.com/LayerZero-Labs/solidity-examples/blob/main/contracts/lzApp/LzApp.sol\":6265:6285  precrime = _precrime */\n      dup1\n      sload\n      not(sub(shl(0xa0, 0x01), 0x01))\n      and\n      sub(shl(0xa0, 0x01), 0x01)\n      dup4\n      and\n      swap1\n      dup2\n      or\n      swap1\n      swap2\n      sstore\n        /* \"https://github.com/LayerZero-Labs/solidity-examples/blob/main/contracts/lzApp/LzApp.sol\":6300:6322  SetPrecrime(_precrime) */\n      mload(0x40)\n        /* \"#utility.yul\":6813:6864   */\n      swap1\n      dup2\n      mstore\n        /* \"https://github.com/LayerZero-Labs/solidity-examples/blob/main/contracts/lzApp/LzApp.sol\":6300:6322  SetPrecrime(_precrime) */\n      0x5db758e995a17ec1ad84bdef7e8c3293a0bd6179bcce400dff5d4c3d87db726b\n      swap1\n        /* \"#utility.yul\":6801:6803   */\n      0x20\n        /* \"#utility.yul\":6786:6804   */\n      add\n        /* \"https://github.com/LayerZero-Labs/solidity-examples/blob/main/contracts/lzApp/LzApp.sol\":6300:6322  SetPrecrime(_precrime) */\n      mload(0x40)\n      dup1\n      swap2\n      sub\n      swap1\n      log1\n        /* \"https://github.com/LayerZero-Labs/solidity-examples/blob/main/contracts/lzApp/LzApp.sol\":6196:6329  function setPrecrime(address _precrime) external onlyOwner {... */\n      pop\n      jump\t// out\n        /* \"https://github.com/LayerZero-Labs/solidity-examples/blob/main/contracts/lzApp/LzApp.sol\":4545:4785  function setConfig(... */\n    tag_148:\n        /* \"@openzeppelin/contracts/access/Ownable.sol\":1531:1544  _checkOwner() */\n      tag_285\n        /* \"@openzeppelin/contracts/access/Ownable.sol\":1531:1542  _checkOwner */\n      tag_194\n        /* \"@openzeppelin/contracts/access/Ownable.sol\":1531:1544  _checkOwner() */\n      jump\t// in\n    tag_285:\n        /* \"https://github.com/LayerZero-Labs/solidity-examples/blob/main/contracts/lzApp/LzApp.sol\":4716:4778  lzEndpoint.setConfig(_version, _chainId, _configType, _config) */\n      mload(0x40)\n      shl(0xe2, 0x32fb62e7)\n      dup2\n      mstore\n      sub(shl(0xa0, 0x01), 0x01)\n        /* \"https://github.com/LayerZero-Labs/solidity-examples/blob/main/contracts/lzApp/LzApp.sol\":4716:4726  lzEndpoint */\n      immutable(\"0x9e21dd0364e3e97524b0a6af83debf309aa812eb058333a9ab7b8e3a0d33a9c2\")\n        /* \"https://github.com/LayerZero-Labs/solidity-examples/blob/main/contracts/lzApp/LzApp.sol\":4716:4736  lzEndpoint.setConfig */\n      and\n      swap1\n      0xcbed8b9c\n      swap1\n        /* \"https://github.com/LayerZero-Labs/solidity-examples/blob/main/contracts/lzApp/LzApp.sol\":4716:4778  lzEndpoint.setConfig(_version, _chainId, _configType, _config) */\n      tag_287\n      swap1\n        /* \"https://github.com/LayerZero-Labs/solidity-examples/blob/main/contracts/lzApp/LzApp.sol\":4737:4745  _version */\n      dup9\n      swap1\n        /* \"https://github.com/LayerZero-Labs/solidity-examples/blob/main/contracts/lzApp/LzApp.sol\":4747:4755  _chainId */\n      dup9\n      swap1\n        /* \"https://github.com/LayerZero-Labs/solidity-examples/blob/main/contracts/lzApp/LzApp.sol\":4757:4768  _configType */\n      dup9\n      swap1\n        /* \"https://github.com/LayerZero-Labs/solidity-examples/blob/main/contracts/lzApp/LzApp.sol\":4770:4777  _config */\n      dup9\n      swap1\n      dup9\n      swap1\n        /* \"https://github.com/LayerZero-Labs/solidity-examples/blob/main/contracts/lzApp/LzApp.sol\":4716:4778  lzEndpoint.setConfig(_version, _chainId, _configType, _config) */\n      0x04\n      add\n      tag_288\n      jump\t// in\n    tag_287:\n      0x00\n      mload(0x40)\n      dup1\n      dup4\n      sub\n      dup2\n      0x00\n      dup8\n      dup1\n      extcodesize\n      iszero\n      dup1\n      iszero\n      tag_289\n      jumpi\n      0x00\n      dup1\n      revert\n    tag_289:\n      pop\n      gas\n      call\n      iszero\n      dup1\n      iszero\n      tag_291\n      jumpi\n      returndatasize\n      0x00\n      dup1\n      returndatacopy\n      revert(0x00, returndatasize)\n    tag_291:\n      pop\n      pop\n      pop\n      pop\n        /* \"https://github.com/LayerZero-Labs/solidity-examples/blob/main/contracts/lzApp/LzApp.sol\":4545:4785  function setConfig(... */\n      pop\n      pop\n      pop\n      pop\n      pop\n      jump\t// out\n        /* \"https://github.com/LayerZero-Labs/solidity-examples/blob/main/contracts/lzApp/NonblockingLzApp.sol\":2511:3306  function retryMessage(... */\n    tag_151:\n        /* \"https://github.com/LayerZero-Labs/solidity-examples/blob/main/contracts/lzApp/NonblockingLzApp.sol\":2758:2785  failedMessages[_srcChainId] */\n      0xffff\n      dup7\n      and\n        /* \"https://github.com/LayerZero-Labs/solidity-examples/blob/main/contracts/lzApp/NonblockingLzApp.sol\":2736:2755  bytes32 payloadHash */\n      0x00\n        /* \"https://github.com/LayerZero-Labs/solidity-examples/blob/main/contracts/lzApp/NonblockingLzApp.sol\":2758:2785  failedMessages[_srcChainId] */\n      swap1\n      dup2\n      mstore\n        /* \"https://github.com/LayerZero-Labs/solidity-examples/blob/main/contracts/lzApp/NonblockingLzApp.sol\":2758:2772  failedMessages */\n      0x05\n        /* \"https://github.com/LayerZero-Labs/solidity-examples/blob/main/contracts/lzApp/NonblockingLzApp.sol\":2758:2785  failedMessages[_srcChainId] */\n      0x20\n      mstore\n      0x40\n      dup1\n      dup3\n      keccak256\n        /* \"https://github.com/LayerZero-Labs/solidity-examples/blob/main/contracts/lzApp/NonblockingLzApp.sol\":2758:2798  failedMessages[_srcChainId][_srcAddress] */\n      swap1\n      mload\n      tag_293\n      swap1\n        /* \"https://github.com/LayerZero-Labs/solidity-examples/blob/main/contracts/lzApp/NonblockingLzApp.sol\":2786:2797  _srcAddress */\n      dup9\n      swap1\n      dup9\n      swap1\n        /* \"https://github.com/LayerZero-Labs/solidity-examples/blob/main/contracts/lzApp/NonblockingLzApp.sol\":2758:2798  failedMessages[_srcChainId][_srcAddress] */\n      tag_186\n      jump\t// in\n    tag_293:\n      swap1\n      dup2\n      mstore\n      0x40\n      dup1\n      mload\n      0x20\n      swap3\n      dup2\n      swap1\n      sub\n      dup4\n      add\n      swap1\n      keccak256\n      sub(shl(0x40, 0x01), 0x01)\n        /* \"https://github.com/LayerZero-Labs/solidity-examples/blob/main/contracts/lzApp/NonblockingLzApp.sol\":2758:2806  failedMessages[_srcChainId][_srcAddress][_nonce] */\n      dup8\n      and\n      0x00\n      swap1\n      dup2\n      mstore\n      swap3\n      mstore\n      swap1\n      keccak256\n      sload\n      swap1\n      pop\n      dup1\n        /* \"https://github.com/LayerZero-Labs/solidity-examples/blob/main/contracts/lzApp/NonblockingLzApp.sol\":2816:2889  require(payloadHash != bytes32(0), \"NonblockingLzApp: no stored message\") */\n      tag_294\n      jumpi\n      mload(0x40)\n      shl(0xe5, 0x461bcd)\n      dup2\n      mstore\n        /* \"#utility.yul\":15319:15321   */\n      0x20\n        /* \"https://github.com/LayerZero-Labs/solidity-examples/blob/main/contracts/lzApp/NonblockingLzApp.sol\":2816:2889  require(payloadHash != bytes32(0), \"NonblockingLzApp: no stored message\") */\n      0x04\n      dup3\n      add\n        /* \"#utility.yul\":15301:15322   */\n      mstore\n        /* \"#utility.yul\":15358:15360   */\n      0x23\n        /* \"#utility.yul\":15338:15356   */\n      0x24\n      dup3\n      add\n        /* \"#utility.yul\":15331:15361   */\n      mstore\n        /* \"#utility.yul\":15397:15431   */\n      0x4e6f6e626c6f636b696e674c7a4170703a206e6f2073746f726564206d657373\n        /* \"#utility.yul\":15377:15395   */\n      0x44\n      dup3\n      add\n        /* \"#utility.yul\":15370:15432   */\n      mstore\n      shl(0xe8, 0x616765)\n        /* \"#utility.yul\":15448:15466   */\n      0x64\n      dup3\n      add\n        /* \"#utility.yul\":15441:15474   */\n      mstore\n        /* \"#utility.yul\":15491:15510   */\n      0x84\n      add\n        /* \"https://github.com/LayerZero-Labs/solidity-examples/blob/main/contracts/lzApp/NonblockingLzApp.sol\":2816:2889  require(payloadHash != bytes32(0), \"NonblockingLzApp: no stored message\") */\n      tag_175\n        /* \"#utility.yul\":15117:15516   */\n      jump\n        /* \"https://github.com/LayerZero-Labs/solidity-examples/blob/main/contracts/lzApp/NonblockingLzApp.sol\":2816:2889  require(payloadHash != bytes32(0), \"NonblockingLzApp: no stored message\") */\n    tag_294:\n        /* \"https://github.com/LayerZero-Labs/solidity-examples/blob/main/contracts/lzApp/NonblockingLzApp.sol\":2930:2941  payloadHash */\n      dup1\n        /* \"https://github.com/LayerZero-Labs/solidity-examples/blob/main/contracts/lzApp/NonblockingLzApp.sol\":2917:2925  _payload */\n      dup4\n      dup4\n        /* \"https://github.com/LayerZero-Labs/solidity-examples/blob/main/contracts/lzApp/NonblockingLzApp.sol\":2907:2926  keccak256(_payload) */\n      mload(0x40)\n      tag_297\n      swap3\n      swap2\n      swap1\n      tag_186\n      jump\t// in\n    tag_297:\n      mload(0x40)\n      dup1\n      swap2\n      sub\n      swap1\n      keccak256\n        /* \"https://github.com/LayerZero-Labs/solidity-examples/blob/main/contracts/lzApp/NonblockingLzApp.sol\":2907:2941  keccak256(_payload) == payloadHash */\n      eq\n        /* \"https://github.com/LayerZero-Labs/solidity-examples/blob/main/contracts/lzApp/NonblockingLzApp.sol\":2899:2979  require(keccak256(_payload) == payloadHash, \"NonblockingLzApp: invalid payload\") */\n      tag_298\n      jumpi\n      mload(0x40)\n      shl(0xe5, 0x461bcd)\n      dup2\n      mstore\n        /* \"#utility.yul\":15723:15725   */\n      0x20\n        /* \"https://github.com/LayerZero-Labs/solidity-examples/blob/main/contracts/lzApp/NonblockingLzApp.sol\":2899:2979  require(keccak256(_payload) == payloadHash, \"NonblockingLzApp: invalid payload\") */\n      0x04\n      dup3\n      add\n        /* \"#utility.yul\":15705:15726   */\n      mstore\n        /* \"#utility.yul\":15762:15764   */\n      0x21\n        /* \"#utility.yul\":15742:15760   */\n      0x24\n      dup3\n      add\n        /* \"#utility.yul\":15735:15765   */\n      mstore\n        /* \"#utility.yul\":15801:15835   */\n      0x4e6f6e626c6f636b696e674c7a4170703a20696e76616c6964207061796c6f61\n        /* \"#utility.yul\":15781:15799   */\n      0x44\n      dup3\n      add\n        /* \"#utility.yul\":15774:15836   */\n      mstore\n      shl(0xfa, 0x19)\n        /* \"#utility.yul\":15852:15870   */\n      0x64\n      dup3\n      add\n        /* \"#utility.yul\":15845:15876   */\n      mstore\n        /* \"#utility.yul\":15893:15912   */\n      0x84\n      add\n        /* \"https://github.com/LayerZero-Labs/solidity-examples/blob/main/contracts/lzApp/NonblockingLzApp.sol\":2899:2979  require(keccak256(_payload) == payloadHash, \"NonblockingLzApp: invalid payload\") */\n      tag_175\n        /* \"#utility.yul\":15521:15918   */\n      jump\n        /* \"https://github.com/LayerZero-Labs/solidity-examples/blob/main/contracts/lzApp/NonblockingLzApp.sol\":2899:2979  require(keccak256(_payload) == payloadHash, \"NonblockingLzApp: invalid payload\") */\n    tag_298:\n        /* \"https://github.com/LayerZero-Labs/solidity-examples/blob/main/contracts/lzApp/NonblockingLzApp.sol\":3025:3052  failedMessages[_srcChainId] */\n      0xffff\n      dup8\n      and\n        /* \"https://github.com/LayerZero-Labs/solidity-examples/blob/main/contracts/lzApp/NonblockingLzApp.sol\":3084:3085  0 */\n      0x00\n        /* \"https://github.com/LayerZero-Labs/solidity-examples/blob/main/contracts/lzApp/NonblockingLzApp.sol\":3025:3052  failedMessages[_srcChainId] */\n      swap1\n      dup2\n      mstore\n        /* \"https://github.com/LayerZero-Labs/solidity-examples/blob/main/contracts/lzApp/NonblockingLzApp.sol\":3025:3039  failedMessages */\n      0x05\n        /* \"https://github.com/LayerZero-Labs/solidity-examples/blob/main/contracts/lzApp/NonblockingLzApp.sol\":3025:3052  failedMessages[_srcChainId] */\n      0x20\n      mstore\n      0x40\n      dup1\n      dup3\n      keccak256\n        /* \"https://github.com/LayerZero-Labs/solidity-examples/blob/main/contracts/lzApp/NonblockingLzApp.sol\":3025:3065  failedMessages[_srcChainId][_srcAddress] */\n      swap1\n      mload\n      tag_301\n      swap1\n        /* \"https://github.com/LayerZero-Labs/solidity-examples/blob/main/contracts/lzApp/NonblockingLzApp.sol\":3053:3064  _srcAddress */\n      dup10\n      swap1\n      dup10\n      swap1\n        /* \"https://github.com/LayerZero-Labs/solidity-examples/blob/main/contracts/lzApp/NonblockingLzApp.sol\":3025:3065  failedMessages[_srcChainId][_srcAddress] */\n      tag_186\n      jump\t// in\n    tag_301:\n      swap1\n      dup2\n      mstore\n      0x40\n      dup1\n      mload\n      0x20\n      swap3\n      dup2\n      swap1\n      sub\n      dup4\n      add\n      dup2\n      keccak256\n      sub(shl(0x40, 0x01), 0x01)\n        /* \"https://github.com/LayerZero-Labs/solidity-examples/blob/main/contracts/lzApp/NonblockingLzApp.sol\":3025:3073  failedMessages[_srcChainId][_srcAddress][_nonce] */\n      dup10\n      and\n      0x00\n      swap1\n      dup2\n      mstore\n      swap1\n      dup5\n      mstore\n      dup3\n      swap1\n      keccak256\n        /* \"https://github.com/LayerZero-Labs/solidity-examples/blob/main/contracts/lzApp/NonblockingLzApp.sol\":3025:3086  failedMessages[_srcChainId][_srcAddress][_nonce] = bytes32(0) */\n      swap4\n      swap1\n      swap4\n      sstore\n        /* \"https://github.com/LayerZero-Labs/solidity-examples/blob/main/contracts/lzApp/NonblockingLzApp.sol\":3153:3218  _nonblockingLzReceive(_srcChainId, _srcAddress, _nonce, _payload) */\n      0x1f\n      dup9\n      add\n      dup3\n      swap1\n      div\n      dup3\n      mul\n      dup4\n      add\n      dup3\n      add\n      swap1\n      mstore\n      dup7\n      dup3\n      mstore\n      tag_302\n      swap2\n        /* \"https://github.com/LayerZero-Labs/solidity-examples/blob/main/contracts/lzApp/NonblockingLzApp.sol\":3175:3186  _srcChainId */\n      dup10\n      swap2\n        /* \"https://github.com/LayerZero-Labs/solidity-examples/blob/main/contracts/lzApp/NonblockingLzApp.sol\":3188:3199  _srcAddress */\n      dup10\n      swap1\n        /* \"https://github.com/LayerZero-Labs/solidity-examples/blob/main/contracts/lzApp/NonblockingLzApp.sol\":3153:3218  _nonblockingLzReceive(_srcChainId, _srcAddress, _nonce, _payload) */\n      dup10\n      swap1\n      dup2\n      swap1\n      dup5\n      add\n        /* \"https://github.com/LayerZero-Labs/solidity-examples/blob/main/contracts/lzApp/NonblockingLzApp.sol\":3188:3199  _srcAddress */\n      dup4\n        /* \"https://github.com/LayerZero-Labs/solidity-examples/blob/main/contracts/lzApp/NonblockingLzApp.sol\":3153:3218  _nonblockingLzReceive(_srcChainId, _srcAddress, _nonce, _payload) */\n      dup3\n      dup1\n        /* \"https://github.com/LayerZero-Labs/solidity-examples/blob/main/contracts/lzApp/NonblockingLzApp.sol\":3188:3199  _srcAddress */\n      dup3\n        /* \"https://github.com/LayerZero-Labs/solidity-examples/blob/main/contracts/lzApp/NonblockingLzApp.sol\":3153:3218  _nonblockingLzReceive(_srcChainId, _srcAddress, _nonce, _payload) */\n      dup5\n      calldatacopy\n      0x00\n      swap3\n      add\n      swap2\n      swap1\n      swap2\n      mstore\n      pop\n      pop\n      0x40\n      dup1\n      mload\n      0x20\n      0x1f\n      dup11\n      add\n      dup2\n      swap1\n      div\n      dup2\n      mul\n      dup3\n      add\n      dup2\n      add\n      swap1\n      swap3\n      mstore\n      dup9\n      dup2\n      mstore\n        /* \"https://github.com/LayerZero-Labs/solidity-examples/blob/main/contracts/lzApp/NonblockingLzApp.sol\":3201:3207  _nonce */\n      dup11\n      swap4\n      pop\n        /* \"https://github.com/LayerZero-Labs/solidity-examples/blob/main/contracts/lzApp/NonblockingLzApp.sol\":3153:3218  _nonblockingLzReceive(_srcChainId, _srcAddress, _nonce, _payload) */\n      swap2\n      pop\n        /* \"https://github.com/LayerZero-Labs/solidity-examples/blob/main/contracts/lzApp/NonblockingLzApp.sol\":3209:3217  _payload */\n      dup9\n      swap1\n      dup9\n      swap1\n      dup2\n      swap1\n        /* \"https://github.com/LayerZero-Labs/solidity-examples/blob/main/contracts/lzApp/NonblockingLzApp.sol\":3153:3218  _nonblockingLzReceive(_srcChainId, _srcAddress, _nonce, _payload) */\n      dup5\n      add\n        /* \"https://github.com/LayerZero-Labs/solidity-examples/blob/main/contracts/lzApp/NonblockingLzApp.sol\":3209:3217  _payload */\n      dup4\n      dup3\n      dup1\n      dup3\n        /* \"https://github.com/LayerZero-Labs/solidity-examples/blob/main/contracts/lzApp/NonblockingLzApp.sol\":3153:3218  _nonblockingLzReceive(_srcChainId, _srcAddress, _nonce, _payload) */\n      dup5\n      calldatacopy\n      0x00\n      swap3\n      add\n      swap2\n      swap1\n      swap2\n      mstore\n      pop\n        /* \"https://github.com/LayerZero-Labs/solidity-examples/blob/main/contracts/lzApp/NonblockingLzApp.sol\":3153:3174  _nonblockingLzReceive */\n      tag_243\n      swap3\n      pop\n      pop\n      pop\n        /* \"https://github.com/LayerZero-Labs/solidity-examples/blob/main/contracts/lzApp/NonblockingLzApp.sol\":3153:3218  _nonblockingLzReceive(_srcChainId, _srcAddress, _nonce, _payload) */\n      jump\t// in\n    tag_302:\n        /* \"https://github.com/LayerZero-Labs/solidity-examples/blob/main/contracts/lzApp/NonblockingLzApp.sol\":3233:3299  RetryMessageSuccess(_srcChainId, _srcAddress, _nonce, payloadHash) */\n      0xc264d91f3adc5588250e1551f547752ca0cfa8f6b530d243b9f9f4cab10ea8e5\n        /* \"https://github.com/LayerZero-Labs/solidity-examples/blob/main/contracts/lzApp/NonblockingLzApp.sol\":3253:3264  _srcChainId */\n      dup8\n        /* \"https://github.com/LayerZero-Labs/solidity-examples/blob/main/contracts/lzApp/NonblockingLzApp.sol\":3266:3277  _srcAddress */\n      dup8\n      dup8\n        /* \"https://github.com/LayerZero-Labs/solidity-examples/blob/main/contracts/lzApp/NonblockingLzApp.sol\":3279:3285  _nonce */\n      dup8\n        /* \"https://github.com/LayerZero-Labs/solidity-examples/blob/main/contracts/lzApp/NonblockingLzApp.sol\":3287:3298  payloadHash */\n      dup6\n        /* \"https://github.com/LayerZero-Labs/solidity-examples/blob/main/contracts/lzApp/NonblockingLzApp.sol\":3233:3299  RetryMessageSuccess(_srcChainId, _srcAddress, _nonce, payloadHash) */\n      mload(0x40)\n      tag_303\n      swap6\n      swap5\n      swap4\n      swap3\n      swap2\n      swap1\n      tag_304\n      jump\t// in\n    tag_303:\n      mload(0x40)\n      dup1\n      swap2\n      sub\n      swap1\n      log1\n        /* \"https://github.com/LayerZero-Labs/solidity-examples/blob/main/contracts/lzApp/NonblockingLzApp.sol\":2682:3306  {... */\n      pop\n        /* \"https://github.com/LayerZero-Labs/solidity-examples/blob/main/contracts/lzApp/NonblockingLzApp.sol\":2511:3306  function retryMessage(... */\n      pop\n      pop\n      pop\n      pop\n      pop\n      pop\n      jump\t// out\n        /* \"https://github.com/LayerZero-Labs/solidity-examples/blob/main/contracts/lzApp/LzApp.sol\":6335:6590  function setMinDstGas(... */\n    tag_156:\n        /* \"@openzeppelin/contracts/access/Ownable.sol\":1531:1544  _checkOwner() */\n      tag_306\n        /* \"@openzeppelin/contracts/access/Ownable.sol\":1531:1542  _checkOwner */\n      tag_194\n        /* \"@openzeppelin/contracts/access/Ownable.sol\":1531:1544  _checkOwner() */\n      jump\t// in\n    tag_306:\n        /* \"https://github.com/LayerZero-Labs/solidity-examples/blob/main/contracts/lzApp/LzApp.sol\":6470:6498  minDstGasLookup[_dstChainId] */\n      0xffff\n      dup4\n      dup2\n      and\n      0x00\n      dup2\n      dup2\n      mstore\n        /* \"https://github.com/LayerZero-Labs/solidity-examples/blob/main/contracts/lzApp/LzApp.sol\":6470:6485  minDstGasLookup */\n      0x02\n        /* \"https://github.com/LayerZero-Labs/solidity-examples/blob/main/contracts/lzApp/LzApp.sol\":6470:6498  minDstGasLookup[_dstChainId] */\n      0x20\n      swap1\n      dup2\n      mstore\n      0x40\n      dup1\n      dup4\n      keccak256\n        /* \"https://github.com/LayerZero-Labs/solidity-examples/blob/main/contracts/lzApp/LzApp.sol\":6470:6511  minDstGasLookup[_dstChainId][_packetType] */\n      swap5\n      dup8\n      and\n      dup1\n      dup5\n      mstore\n      swap5\n      dup3\n      mstore\n      swap2\n      dup3\n      swap1\n      keccak256\n        /* \"https://github.com/LayerZero-Labs/solidity-examples/blob/main/contracts/lzApp/LzApp.sol\":6470:6521  minDstGasLookup[_dstChainId][_packetType] = _minGas */\n      dup6\n      swap1\n      sstore\n        /* \"https://github.com/LayerZero-Labs/solidity-examples/blob/main/contracts/lzApp/LzApp.sol\":6536:6583  SetMinDstGas(_dstChainId, _packetType, _minGas) */\n      dup2\n      mload\n        /* \"#utility.yul\":16644:16678   */\n      swap3\n      dup4\n      mstore\n        /* \"#utility.yul\":16694:16712   */\n      dup3\n      add\n        /* \"#utility.yul\":16687:16730   */\n      swap3\n      swap1\n      swap3\n      mstore\n        /* \"#utility.yul\":16746:16764   */\n      swap1\n      dup2\n      add\n        /* \"#utility.yul\":16739:16773   */\n      dup3\n      swap1\n      mstore\n        /* \"https://github.com/LayerZero-Labs/solidity-examples/blob/main/contracts/lzApp/LzApp.sol\":6536:6583  SetMinDstGas(_dstChainId, _packetType, _minGas) */\n      0x9d5c7c0b934da8fefa9c7760c98383778a12dfbfc0c3b3106518f43fb9508ac0\n      swap1\n        /* \"#utility.yul\":16607:16609   */\n      0x60\n        /* \"#utility.yul\":16592:16610   */\n      add\n        /* \"https://github.com/LayerZero-Labs/solidity-examples/blob/main/contracts/lzApp/LzApp.sol\":6536:6583  SetMinDstGas(_dstChainId, _packetType, _minGas) */\n      tag_279\n        /* \"#utility.yul\":16421:16779   */\n      jump\n        /* \"https://github.com/LayerZero-Labs/solidity-examples/blob/main/contracts/lzApp/LzApp.sol\":5370:5574  function setTrustedRemote(uint16 _remoteChainId, bytes calldata _path) external onlyOwner {... */\n    tag_160:\n        /* \"@openzeppelin/contracts/access/Ownable.sol\":1531:1544  _checkOwner() */\n      tag_311\n        /* \"@openzeppelin/contracts/access/Ownable.sol\":1531:1542  _checkOwner */\n      tag_194\n        /* \"@openzeppelin/contracts/access/Ownable.sol\":1531:1544  _checkOwner() */\n      jump\t// in\n    tag_311:\n        /* \"https://github.com/LayerZero-Labs/solidity-examples/blob/main/contracts/lzApp/LzApp.sol\":5470:5505  trustedRemoteLookup[_remoteChainId] */\n      0xffff\n      dup4\n      and\n      0x00\n      swap1\n      dup2\n      mstore\n        /* \"https://github.com/LayerZero-Labs/solidity-examples/blob/main/contracts/lzApp/LzApp.sol\":5470:5489  trustedRemoteLookup */\n      0x01\n        /* \"https://github.com/LayerZero-Labs/solidity-examples/blob/main/contracts/lzApp/LzApp.sol\":5470:5505  trustedRemoteLookup[_remoteChainId] */\n      0x20\n      mstore\n      0x40\n      swap1\n      keccak256\n        /* \"https://github.com/LayerZero-Labs/solidity-examples/blob/main/contracts/lzApp/LzApp.sol\":5470:5513  trustedRemoteLookup[_remoteChainId] = _path */\n      tag_313\n        /* \"https://github.com/LayerZero-Labs/solidity-examples/blob/main/contracts/lzApp/LzApp.sol\":5508:5513  _path */\n      dup3\n      dup5\n        /* \"https://github.com/LayerZero-Labs/solidity-examples/blob/main/contracts/lzApp/LzApp.sol\":5470:5505  trustedRemoteLookup[_remoteChainId] */\n      dup4\n        /* \"https://github.com/LayerZero-Labs/solidity-examples/blob/main/contracts/lzApp/LzApp.sol\":5470:5513  trustedRemoteLookup[_remoteChainId] = _path */\n      tag_314\n      jump\t// in\n    tag_313:\n      pop\n        /* \"https://github.com/LayerZero-Labs/solidity-examples/blob/main/contracts/lzApp/LzApp.sol\":5528:5567  SetTrustedRemote(_remoteChainId, _path) */\n      0xfa41487ad5d6728f0b19276fa1eddc16558578f5109fc39d2dc33c3230470dab\n        /* \"https://github.com/LayerZero-Labs/solidity-examples/blob/main/contracts/lzApp/LzApp.sol\":5545:5559  _remoteChainId */\n      dup4\n        /* \"https://github.com/LayerZero-Labs/solidity-examples/blob/main/contracts/lzApp/LzApp.sol\":5561:5566  _path */\n      dup4\n      dup4\n        /* \"https://github.com/LayerZero-Labs/solidity-examples/blob/main/contracts/lzApp/LzApp.sol\":5528:5567  SetTrustedRemote(_remoteChainId, _path) */\n      mload(0x40)\n      tag_279\n      swap4\n      swap3\n      swap2\n      swap1\n      tag_222\n      jump\t// in\n        /* \"@openzeppelin/contracts/access/Ownable.sol\":2543:2758  function transferOwnership(address newOwner) public virtual onlyOwner {... */\n    tag_164:\n        /* \"@openzeppelin/contracts/access/Ownable.sol\":1531:1544  _checkOwner() */\n      tag_317\n        /* \"@openzeppelin/contracts/access/Ownable.sol\":1531:1542  _checkOwner */\n      tag_194\n        /* \"@openzeppelin/contracts/access/Ownable.sol\":1531:1544  _checkOwner() */\n      jump\t// in\n    tag_317:\n      sub(shl(0xa0, 0x01), 0x01)\n        /* \"@openzeppelin/contracts/access/Ownable.sol\":2627:2649  newOwner == address(0) */\n      dup2\n      and\n        /* \"@openzeppelin/contracts/access/Ownable.sol\":2623:2714  if (newOwner == address(0)) {... */\n      tag_319\n      jumpi\n        /* \"@openzeppelin/contracts/access/Ownable.sol\":2672:2703  OwnableInvalidOwner(address(0)) */\n      mload(0x40)\n      shl(0xe0, 0x1e4fbdf7)\n      dup2\n      mstore\n        /* \"@openzeppelin/contracts/access/Ownable.sol\":2700:2701  0 */\n      0x00\n        /* \"@openzeppelin/contracts/access/Ownable.sol\":2672:2703  OwnableInvalidOwner(address(0)) */\n      0x04\n      dup3\n      add\n        /* \"#utility.yul\":6813:6864   */\n      mstore\n        /* \"#utility.yul\":6786:6804   */\n      0x24\n      add\n        /* \"@openzeppelin/contracts/access/Ownable.sol\":2672:2703  OwnableInvalidOwner(address(0)) */\n      tag_175\n        /* \"#utility.yul\":6667:6870   */\n      jump\n        /* \"@openzeppelin/contracts/access/Ownable.sol\":2623:2714  if (newOwner == address(0)) {... */\n    tag_319:\n        /* \"@openzeppelin/contracts/access/Ownable.sol\":2723:2751  _transferOwnership(newOwner) */\n      tag_321\n        /* \"@openzeppelin/contracts/access/Ownable.sol\":2742:2750  newOwner */\n      dup2\n        /* \"@openzeppelin/contracts/access/Ownable.sol\":2723:2741  _transferOwnership */\n      tag_248\n        /* \"@openzeppelin/contracts/access/Ownable.sol\":2723:2751  _transferOwnership(newOwner) */\n      jump\t// in\n    tag_321:\n        /* \"@openzeppelin/contracts/access/Ownable.sol\":2543:2758  function transferOwnership(address newOwner) public virtual onlyOwner {... */\n      pop\n      jump\t// out\n        /* \"https://github.com/LayerZero-Labs/solidity-examples/blob/main/contracts/lzApp/LzApp.sol\":4239:4486  function getConfig(... */\n    tag_169:\n        /* \"https://github.com/LayerZero-Labs/solidity-examples/blob/main/contracts/lzApp/LzApp.sol\":4411:4479  lzEndpoint.getConfig(_version, _chainId, address(this), _configType) */\n      mload(0x40)\n      shl(0xe2, 0x3d7b2f6f)\n      dup2\n      mstore\n        /* \"#utility.yul\":18228:18234   */\n      0xffff\n        /* \"#utility.yul\":18261:18276   */\n      dup1\n      dup7\n      and\n        /* \"https://github.com/LayerZero-Labs/solidity-examples/blob/main/contracts/lzApp/LzApp.sol\":4411:4479  lzEndpoint.getConfig(_version, _chainId, address(this), _configType) */\n      0x04\n      dup4\n      add\n        /* \"#utility.yul\":18243:18277   */\n      mstore\n        /* \"#utility.yul\":18313:18328   */\n      dup5\n      and\n        /* \"#utility.yul\":18293:18311   */\n      0x24\n      dup3\n      add\n        /* \"#utility.yul\":18286:18329   */\n      mstore\n        /* \"https://github.com/LayerZero-Labs/solidity-examples/blob/main/contracts/lzApp/LzApp.sol\":4460:4464  this */\n      address\n        /* \"#utility.yul\":18345:18363   */\n      0x44\n      dup3\n      add\n        /* \"#utility.yul\":18338:18398   */\n      mstore\n        /* \"#utility.yul\":18414:18432   */\n      0x64\n      dup2\n      add\n        /* \"#utility.yul\":18407:18441   */\n      dup3\n      swap1\n      mstore\n        /* \"https://github.com/LayerZero-Labs/solidity-examples/blob/main/contracts/lzApp/LzApp.sol\":4380:4392  bytes memory */\n      0x60\n      swap1\n        /* \"https://github.com/LayerZero-Labs/solidity-examples/blob/main/contracts/lzApp/LzApp.sol\":4411:4421  lzEndpoint */\n      immutable(\"0x9e21dd0364e3e97524b0a6af83debf309aa812eb058333a9ab7b8e3a0d33a9c2\")\n      sub(shl(0xa0, 0x01), 0x01)\n        /* \"https://github.com/LayerZero-Labs/solidity-examples/blob/main/contracts/lzApp/LzApp.sol\":4411:4431  lzEndpoint.getConfig */\n      and\n      swap1\n      0xf5ecbdbc\n      swap1\n        /* \"#utility.yul\":18190:18209   */\n      0x84\n      add\n        /* \"https://github.com/LayerZero-Labs/solidity-examples/blob/main/contracts/lzApp/LzApp.sol\":4411:4479  lzEndpoint.getConfig(_version, _chainId, address(this), _configType) */\n      0x00\n      mload(0x40)\n      dup1\n      dup4\n      sub\n      dup2\n      dup7\n      gas\n      staticcall\n      iszero\n      dup1\n      iszero\n      tag_326\n      jumpi\n      returndatasize\n      0x00\n      dup1\n      returndatacopy\n      revert(0x00, returndatasize)\n    tag_326:\n      pop\n      pop\n      pop\n      pop\n      mload(0x40)\n      returndatasize\n      0x00\n      dup3\n      returndatacopy\n      0x1f\n      returndatasize\n      swap1\n      dup2\n      add\n      not(0x1f)\n      and\n      dup3\n      add\n      0x40\n      mstore\n      tag_327\n      swap2\n      swap1\n      dup2\n      add\n      swap1\n      tag_328\n      jump\t// in\n    tag_327:\n        /* \"https://github.com/LayerZero-Labs/solidity-examples/blob/main/contracts/lzApp/LzApp.sol\":4404:4479  return lzEndpoint.getConfig(_version, _chainId, address(this), _configType) */\n      swap6\n        /* \"https://github.com/LayerZero-Labs/solidity-examples/blob/main/contracts/lzApp/LzApp.sol\":4239:4486  function getConfig(... */\n      swap5\n      pop\n      pop\n      pop\n      pop\n      pop\n      jump\t// out\n        /* \"https://github.com/LayerZero-Labs/solidity-examples/blob/main/contracts/lzApp/NonblockingLzApp.sol\":985:1534  function _blockingLzReceive(... */\n    tag_191:\n        /* \"https://github.com/LayerZero-Labs/solidity-examples/blob/main/contracts/lzApp/NonblockingLzApp.sol\":1172:1184  bool success */\n      0x00\n        /* \"https://github.com/LayerZero-Labs/solidity-examples/blob/main/contracts/lzApp/NonblockingLzApp.sol\":1186:1205  bytes memory reason */\n      dup1\n        /* \"https://github.com/LayerZero-Labs/solidity-examples/blob/main/contracts/lzApp/NonblockingLzApp.sol\":1209:1408  address(this).excessivelySafeCall(... */\n      tag_331\n        /* \"https://github.com/LayerZero-Labs/solidity-examples/blob/main/contracts/lzApp/NonblockingLzApp.sol\":1256:1265  gasleft() */\n      gas\n        /* \"https://github.com/LayerZero-Labs/solidity-examples/blob/main/contracts/lzApp/NonblockingLzApp.sol\":1279:1282  150 */\n      0x96\n        /* \"https://github.com/LayerZero-Labs/solidity-examples/blob/main/contracts/lzApp/NonblockingLzApp.sol\":1319:1353  this.nonblockingLzReceive.selector */\n      shl(0xe0, 0x66ad5c8a)\n        /* \"https://github.com/LayerZero-Labs/solidity-examples/blob/main/contracts/lzApp/NonblockingLzApp.sol\":1355:1366  _srcChainId */\n      dup10\n        /* \"https://github.com/LayerZero-Labs/solidity-examples/blob/main/contracts/lzApp/NonblockingLzApp.sol\":1368:1379  _srcAddress */\n      dup10\n        /* \"https://github.com/LayerZero-Labs/solidity-examples/blob/main/contracts/lzApp/NonblockingLzApp.sol\":1381:1387  _nonce */\n      dup10\n        /* \"https://github.com/LayerZero-Labs/solidity-examples/blob/main/contracts/lzApp/NonblockingLzApp.sol\":1389:1397  _payload */\n      dup10\n        /* \"https://github.com/LayerZero-Labs/solidity-examples/blob/main/contracts/lzApp/NonblockingLzApp.sol\":1296:1398  abi.encodeWithSelector(this.nonblockingLzReceive.selector, _srcChainId, _srcAddress, _nonce, _payload) */\n      add(0x24, mload(0x40))\n      tag_332\n      swap5\n      swap4\n      swap3\n      swap2\n      swap1\n      tag_333\n      jump\t// in\n    tag_332:\n      0x40\n      dup1\n      mload\n      not(0x1f)\n      dup2\n      dup5\n      sub\n      add\n      dup2\n      mstore\n      swap2\n      swap1\n      mstore\n      0x20\n      dup2\n      add\n      dup1\n      mload\n      sub(shl(0xe0, 0x01), 0x01)\n      and\n      not(sub(shl(0xe0, 0x01), 0x01))\n      swap1\n      swap4\n      and\n      swap3\n      swap1\n      swap3\n      or\n      swap1\n      swap2\n      mstore\n        /* \"https://github.com/LayerZero-Labs/solidity-examples/blob/main/contracts/lzApp/NonblockingLzApp.sol\":1217:1221  this */\n      address\n      swap3\n        /* \"https://github.com/LayerZero-Labs/solidity-examples/blob/main/contracts/lzApp/NonblockingLzApp.sol\":1209:1408  address(this).excessivelySafeCall(... */\n      swap2\n      swap1\n        /* \"https://github.com/LayerZero-Labs/solidity-examples/blob/main/contracts/lzApp/NonblockingLzApp.sol\":1209:1242  address(this).excessivelySafeCall */\n      tag_334\n        /* \"https://github.com/LayerZero-Labs/solidity-examples/blob/main/contracts/lzApp/NonblockingLzApp.sol\":1209:1408  address(this).excessivelySafeCall(... */\n      jump\t// in\n    tag_331:\n        /* \"https://github.com/LayerZero-Labs/solidity-examples/blob/main/contracts/lzApp/NonblockingLzApp.sol\":1171:1408  (bool success, bytes memory reason) = address(this).excessivelySafeCall(... */\n      swap2\n      pop\n      swap2\n      pop\n        /* \"https://github.com/LayerZero-Labs/solidity-examples/blob/main/contracts/lzApp/NonblockingLzApp.sol\":1423:1430  success */\n      dup2\n        /* \"https://github.com/LayerZero-Labs/solidity-examples/blob/main/contracts/lzApp/NonblockingLzApp.sol\":1418:1528  if (!success) {... */\n      tag_242\n      jumpi\n        /* \"https://github.com/LayerZero-Labs/solidity-examples/blob/main/contracts/lzApp/NonblockingLzApp.sol\":1446:1517  _storeFailedMessage(_srcChainId, _srcAddress, _nonce, _payload, reason) */\n      tag_242\n        /* \"https://github.com/LayerZero-Labs/solidity-examples/blob/main/contracts/lzApp/NonblockingLzApp.sol\":1466:1477  _srcChainId */\n      dup7\n        /* \"https://github.com/LayerZero-Labs/solidity-examples/blob/main/contracts/lzApp/NonblockingLzApp.sol\":1479:1490  _srcAddress */\n      dup7\n        /* \"https://github.com/LayerZero-Labs/solidity-examples/blob/main/contracts/lzApp/NonblockingLzApp.sol\":1492:1498  _nonce */\n      dup7\n        /* \"https://github.com/LayerZero-Labs/solidity-examples/blob/main/contracts/lzApp/NonblockingLzApp.sol\":1500:1508  _payload */\n      dup7\n        /* \"https://github.com/LayerZero-Labs/solidity-examples/blob/main/contracts/lzApp/NonblockingLzApp.sol\":1510:1516  reason */\n      dup6\n        /* \"https://github.com/LayerZero-Labs/solidity-examples/blob/main/contracts/lzApp/NonblockingLzApp.sol\":1446:1465  _storeFailedMessage */\n      tag_337\n        /* \"https://github.com/LayerZero-Labs/solidity-examples/blob/main/contracts/lzApp/NonblockingLzApp.sol\":1446:1517  _storeFailedMessage(_srcChainId, _srcAddress, _nonce, _payload, reason) */\n      jump\t// in\n        /* \"@openzeppelin/contracts/access/Ownable.sol\":1796:1958  function _checkOwner() internal view virtual {... */\n    tag_194:\n        /* \"@openzeppelin/contracts/access/Ownable.sol\":1684:1691  address */\n      0x00\n        /* \"@openzeppelin/contracts/access/Ownable.sol\":1710:1716  _owner */\n      sload\n      sub(shl(0xa0, 0x01), 0x01)\n      and\n        /* \"@openzeppelin/contracts/utils/Context.sol\":735:745  msg.sender */\n      caller\n        /* \"@openzeppelin/contracts/access/Ownable.sol\":1855:1878  owner() != _msgSender() */\n      eq\n        /* \"@openzeppelin/contracts/access/Ownable.sol\":1851:1952  if (owner() != _msgSender()) {... */\n      tag_247\n      jumpi\n        /* \"@openzeppelin/contracts/access/Ownable.sol\":1901:1941  OwnableUnauthorizedAccount(_msgSender()) */\n      mload(0x40)\n      shl(0xe0, 0x118cdaa7)\n      dup2\n      mstore\n        /* \"@openzeppelin/contracts/utils/Context.sol\":735:745  msg.sender */\n      caller\n        /* \"@openzeppelin/contracts/access/Ownable.sol\":1901:1941  OwnableUnauthorizedAccount(_msgSender()) */\n      0x04\n      dup3\n      add\n        /* \"#utility.yul\":6813:6864   */\n      mstore\n        /* \"#utility.yul\":6786:6804   */\n      0x24\n      add\n        /* \"@openzeppelin/contracts/access/Ownable.sol\":1901:1941  OwnableUnauthorizedAccount(_msgSender()) */\n      tag_175\n        /* \"#utility.yul\":6667:6870   */\n      jump\n        /* \"https://github.com/LayerZero-Labs/solidity-examples/blob/main/contracts/lzApp/LzApp.sol\":2403:3005  function _lzSend(... */\n    tag_236:\n        /* \"https://github.com/LayerZero-Labs/solidity-examples/blob/main/contracts/lzApp/LzApp.sol\":2679:2711  trustedRemoteLookup[_dstChainId] */\n      0xffff\n      dup7\n      and\n        /* \"https://github.com/LayerZero-Labs/solidity-examples/blob/main/contracts/lzApp/LzApp.sol\":2650:2676  bytes memory trustedRemote */\n      0x00\n        /* \"https://github.com/LayerZero-Labs/solidity-examples/blob/main/contracts/lzApp/LzApp.sol\":2679:2711  trustedRemoteLookup[_dstChainId] */\n      swap1\n      dup2\n      mstore\n        /* \"https://github.com/LayerZero-Labs/solidity-examples/blob/main/contracts/lzApp/LzApp.sol\":2679:2698  trustedRemoteLookup */\n      0x01\n        /* \"https://github.com/LayerZero-Labs/solidity-examples/blob/main/contracts/lzApp/LzApp.sol\":2679:2711  trustedRemoteLookup[_dstChainId] */\n      0x20\n      mstore\n      0x40\n      dup2\n      keccak256\n        /* \"https://github.com/LayerZero-Labs/solidity-examples/blob/main/contracts/lzApp/LzApp.sol\":2650:2711  bytes memory trustedRemote = trustedRemoteLookup[_dstChainId] */\n      dup1\n      sload\n      tag_345\n      swap1\n      tag_178\n      jump\t// in\n    tag_345:\n      dup1\n      0x1f\n      add\n      0x20\n      dup1\n      swap2\n      div\n      mul\n      0x20\n      add\n      mload(0x40)\n      swap1\n      dup2\n      add\n      0x40\n      mstore\n      dup1\n      swap3\n      swap2\n      swap1\n      dup2\n      dup2\n      mstore\n      0x20\n      add\n      dup3\n      dup1\n      sload\n      tag_346\n      swap1\n      tag_178\n      jump\t// in\n    tag_346:\n      dup1\n      iszero\n      tag_347\n      jumpi\n      dup1\n      0x1f\n      lt\n      tag_348\n      jumpi\n      0x0100\n      dup1\n      dup4\n      sload\n      div\n      mul\n      dup4\n      mstore\n      swap2\n      0x20\n      add\n      swap2\n      jump(tag_347)\n    tag_348:\n      dup3\n      add\n      swap2\n      swap1\n      0x00\n      mstore\n      keccak256(0x00, 0x20)\n      swap1\n    tag_349:\n      dup2\n      sload\n      dup2\n      mstore\n      swap1\n      0x01\n      add\n      swap1\n      0x20\n      add\n      dup1\n      dup4\n      gt\n      tag_349\n      jumpi\n      dup3\n      swap1\n      sub\n      0x1f\n      and\n      dup3\n      add\n      swap2\n    tag_347:\n      pop\n      pop\n      pop\n      pop\n      pop\n      swap1\n      pop\n        /* \"https://github.com/LayerZero-Labs/solidity-examples/blob/main/contracts/lzApp/LzApp.sol\":2729:2742  trustedRemote */\n      dup1\n        /* \"https://github.com/LayerZero-Labs/solidity-examples/blob/main/contracts/lzApp/LzApp.sol\":2729:2749  trustedRemote.length */\n      mload\n        /* \"https://github.com/LayerZero-Labs/solidity-examples/blob/main/contracts/lzApp/LzApp.sol\":2753:2754  0 */\n      0x00\n        /* \"https://github.com/LayerZero-Labs/solidity-examples/blob/main/contracts/lzApp/LzApp.sol\":2729:2754  trustedRemote.length != 0 */\n      sub\n        /* \"https://github.com/LayerZero-Labs/solidity-examples/blob/main/contracts/lzApp/LzApp.sol\":2721:2807  require(trustedRemote.length != 0, \"LzApp: destination chain is not a trusted source\") */\n      tag_350\n      jumpi\n      mload(0x40)\n      shl(0xe5, 0x461bcd)\n      dup2\n      mstore\n        /* \"#utility.yul\":20003:20005   */\n      0x20\n        /* \"https://github.com/LayerZero-Labs/solidity-examples/blob/main/contracts/lzApp/LzApp.sol\":2721:2807  require(trustedRemote.length != 0, \"LzApp: destination chain is not a trusted source\") */\n      0x04\n      dup3\n      add\n        /* \"#utility.yul\":19985:20006   */\n      mstore\n        /* \"#utility.yul\":20042:20044   */\n      0x30\n        /* \"#utility.yul\":20022:20040   */\n      0x24\n      dup3\n      add\n        /* \"#utility.yul\":20015:20045   */\n      mstore\n        /* \"#utility.yul\":20081:20115   */\n      0x4c7a4170703a2064657374696e6174696f6e20636861696e206973206e6f7420\n        /* \"#utility.yul\":20061:20079   */\n      0x44\n      dup3\n      add\n        /* \"#utility.yul\":20054:20116   */\n      mstore\n      shl(0x80, 0x61207472757374656420736f75726365)\n        /* \"#utility.yul\":20132:20150   */\n      0x64\n      dup3\n      add\n        /* \"#utility.yul\":20125:20171   */\n      mstore\n        /* \"#utility.yul\":20188:20207   */\n      0x84\n      add\n        /* \"https://github.com/LayerZero-Labs/solidity-examples/blob/main/contracts/lzApp/LzApp.sol\":2721:2807  require(trustedRemote.length != 0, \"LzApp: destination chain is not a trusted source\") */\n      tag_175\n        /* \"#utility.yul\":19801:20213   */\n      jump\n        /* \"https://github.com/LayerZero-Labs/solidity-examples/blob/main/contracts/lzApp/LzApp.sol\":2721:2807  require(trustedRemote.length != 0, \"LzApp: destination chain is not a trusted source\") */\n    tag_350:\n        /* \"https://github.com/LayerZero-Labs/solidity-examples/blob/main/contracts/lzApp/LzApp.sol\":2817:2864  _checkPayloadSize(_dstChainId, _payload.length) */\n      tag_353\n        /* \"https://github.com/LayerZero-Labs/solidity-examples/blob/main/contracts/lzApp/LzApp.sol\":2835:2846  _dstChainId */\n      dup8\n        /* \"https://github.com/LayerZero-Labs/solidity-examples/blob/main/contracts/lzApp/LzApp.sol\":2848:2856  _payload */\n      dup8\n        /* \"https://github.com/LayerZero-Labs/solidity-examples/blob/main/contracts/lzApp/LzApp.sol\":2848:2863  _payload.length */\n      mload\n        /* \"https://github.com/LayerZero-Labs/solidity-examples/blob/main/contracts/lzApp/LzApp.sol\":2817:2834  _checkPayloadSize */\n      tag_354\n        /* \"https://github.com/LayerZero-Labs/solidity-examples/blob/main/contracts/lzApp/LzApp.sol\":2817:2864  _checkPayloadSize(_dstChainId, _payload.length) */\n      jump\t// in\n    tag_353:\n        /* \"https://github.com/LayerZero-Labs/solidity-examples/blob/main/contracts/lzApp/LzApp.sol\":2874:2998  lzEndpoint.send{value: _nativeFee}(_dstChainId, trustedRemote, _payload, _refundAddress, _zroPaymentAddress, _adapterParams) */\n      mload(0x40)\n      shl(0xe8, 0xc58031)\n      dup2\n      mstore\n      sub(shl(0xa0, 0x01), 0x01)\n        /* \"https://github.com/LayerZero-Labs/solidity-examples/blob/main/contracts/lzApp/LzApp.sol\":2874:2884  lzEndpoint */\n      immutable(\"0x9e21dd0364e3e97524b0a6af83debf309aa812eb058333a9ab7b8e3a0d33a9c2\")\n        /* \"https://github.com/LayerZero-Labs/solidity-examples/blob/main/contracts/lzApp/LzApp.sol\":2874:2889  lzEndpoint.send */\n      and\n      swap1\n      0xc5803100\n      swap1\n        /* \"https://github.com/LayerZero-Labs/solidity-examples/blob/main/contracts/lzApp/LzApp.sol\":2897:2907  _nativeFee */\n      dup5\n      swap1\n        /* \"https://github.com/LayerZero-Labs/solidity-examples/blob/main/contracts/lzApp/LzApp.sol\":2874:2998  lzEndpoint.send{value: _nativeFee}(_dstChainId, trustedRemote, _payload, _refundAddress, _zroPaymentAddress, _adapterParams) */\n      tag_355\n      swap1\n        /* \"https://github.com/LayerZero-Labs/solidity-examples/blob/main/contracts/lzApp/LzApp.sol\":2909:2920  _dstChainId */\n      dup12\n      swap1\n        /* \"https://github.com/LayerZero-Labs/solidity-examples/blob/main/contracts/lzApp/LzApp.sol\":2922:2935  trustedRemote */\n      dup7\n      swap1\n        /* \"https://github.com/LayerZero-Labs/solidity-examples/blob/main/contracts/lzApp/LzApp.sol\":2937:2945  _payload */\n      dup13\n      swap1\n        /* \"https://github.com/LayerZero-Labs/solidity-examples/blob/main/contracts/lzApp/LzApp.sol\":2947:2961  _refundAddress */\n      dup13\n      swap1\n        /* \"https://github.com/LayerZero-Labs/solidity-examples/blob/main/contracts/lzApp/LzApp.sol\":2963:2981  _zroPaymentAddress */\n      dup13\n      swap1\n        /* \"https://github.com/LayerZero-Labs/solidity-examples/blob/main/contracts/lzApp/LzApp.sol\":2983:2997  _adapterParams */\n      dup13\n      swap1\n        /* \"https://github.com/LayerZero-Labs/solidity-examples/blob/main/contracts/lzApp/LzApp.sol\":2874:2998  lzEndpoint.send{value: _nativeFee}(_dstChainId, trustedRemote, _payload, _refundAddress, _zroPaymentAddress, _adapterParams) */\n      0x04\n      add\n      tag_356\n      jump\t// in\n    tag_355:\n      0x00\n      mload(0x40)\n      dup1\n      dup4\n      sub\n      dup2\n      dup6\n      dup9\n      dup1\n      extcodesize\n      iszero\n      dup1\n      iszero\n      tag_357\n      jumpi\n      0x00\n      dup1\n      revert\n    tag_357:\n      pop\n      gas\n      call\n      iszero\n      dup1\n      iszero\n      tag_359\n      jumpi\n      returndatasize\n      0x00\n      dup1\n      returndatacopy\n      revert(0x00, returndatasize)\n    tag_359:\n      pop\n      pop\n      pop\n      pop\n      pop\n        /* \"https://github.com/LayerZero-Labs/solidity-examples/blob/main/contracts/lzApp/LzApp.sol\":2640:3005  {... */\n      pop\n        /* \"https://github.com/LayerZero-Labs/solidity-examples/blob/main/contracts/lzApp/LzApp.sol\":2403:3005  function _lzSend(... */\n      pop\n      pop\n      pop\n      pop\n      pop\n      pop\n      jump\t// out\n        /* \"LayerZeroTest.sol\":927:1084  function _nonblockingLzReceive(uint16, bytes memory, uint64, bytes memory _payload) internal override {... */\n    tag_243:\n        /* \"LayerZeroTest.sol\":1057:1065  _payload */\n      dup1\n        /* \"LayerZeroTest.sol\":1046:1076  abi.decode(_payload, (string)) */\n      dup1\n      0x20\n      add\n      swap1\n      mload\n      dup2\n      add\n      swap1\n      tag_361\n      swap2\n      swap1\n      tag_328\n      jump\t// in\n    tag_361:\n        /* \"LayerZeroTest.sol\":1039:1043  data */\n      0x06\n      swap1\n        /* \"LayerZeroTest.sol\":1039:1076  data = abi.decode(_payload, (string)) */\n      tag_200\n      swap1\n        /* \"LayerZeroTest.sol\":1039:1043  data */\n      dup3\n        /* \"LayerZeroTest.sol\":1039:1076  data = abi.decode(_payload, (string)) */\n      tag_232\n      jump\t// in\n        /* \"@openzeppelin/contracts/access/Ownable.sol\":2912:3099  function _transferOwnership(address newOwner) internal virtual {... */\n    tag_248:\n        /* \"@openzeppelin/contracts/access/Ownable.sol\":2985:3001  address oldOwner */\n      0x00\n        /* \"@openzeppelin/contracts/access/Ownable.sol\":3004:3010  _owner */\n      dup1\n      sload\n      sub(shl(0xa0, 0x01), 0x01)\n        /* \"@openzeppelin/contracts/access/Ownable.sol\":3020:3037  _owner = newOwner */\n      dup4\n      dup2\n      and\n      not(sub(shl(0xa0, 0x01), 0x01))\n      dup4\n      and\n      dup2\n      or\n      dup5\n      sstore\n        /* \"@openzeppelin/contracts/access/Ownable.sol\":3052:3092  OwnershipTransferred(oldOwner, newOwner) */\n      mload(0x40)\n        /* \"@openzeppelin/contracts/access/Ownable.sol\":3004:3010  _owner */\n      swap2\n      swap1\n      swap3\n      and\n      swap3\n      dup4\n      swap2\n        /* \"@openzeppelin/contracts/access/Ownable.sol\":3052:3092  OwnershipTransferred(oldOwner, newOwner) */\n      0x8be0079c531659141344cd1fd0a4f28419497f9722a3daafe3b4186f6b6457e0\n      swap2\n        /* \"@openzeppelin/contracts/access/Ownable.sol\":2985:3001  address oldOwner */\n      swap1\n        /* \"@openzeppelin/contracts/access/Ownable.sol\":3052:3092  OwnershipTransferred(oldOwner, newOwner) */\n      log3\n        /* \"@openzeppelin/contracts/access/Ownable.sol\":2975:3099  {... */\n      pop\n        /* \"@openzeppelin/contracts/access/Ownable.sol\":2912:3099  function _transferOwnership(address newOwner) internal virtual {... */\n      pop\n      jump\t// out\n        /* \"https://github.com/LayerZero-Labs/solidity-examples/blob/main/contracts/libraries/BytesLib.sol\":9258:12028  function slice(... */\n    tag_272:\n        /* \"https://github.com/LayerZero-Labs/solidity-examples/blob/main/contracts/libraries/BytesLib.sol\":9374:9386  bytes memory */\n      0x60\n        /* \"https://github.com/LayerZero-Labs/solidity-examples/blob/main/contracts/libraries/BytesLib.sol\":9422:9429  _length */\n      dup2\n        /* \"https://github.com/LayerZero-Labs/solidity-examples/blob/main/contracts/libraries/BytesLib.sol\":9406:9418  _length + 31 */\n      tag_367\n        /* \"https://github.com/LayerZero-Labs/solidity-examples/blob/main/contracts/libraries/BytesLib.sol\":9422:9429  _length */\n      dup2\n        /* \"https://github.com/LayerZero-Labs/solidity-examples/blob/main/contracts/libraries/BytesLib.sol\":9416:9418  31 */\n      0x1f\n        /* \"https://github.com/LayerZero-Labs/solidity-examples/blob/main/contracts/libraries/BytesLib.sol\":9406:9418  _length + 31 */\n      tag_368\n      jump\t// in\n    tag_367:\n        /* \"https://github.com/LayerZero-Labs/solidity-examples/blob/main/contracts/libraries/BytesLib.sol\":9406:9429  _length + 31 >= _length */\n      lt\n      iszero\n        /* \"https://github.com/LayerZero-Labs/solidity-examples/blob/main/contracts/libraries/BytesLib.sol\":9398:9448  require(_length + 31 >= _length, \"slice_overflow\") */\n      tag_369\n      jumpi\n      mload(0x40)\n      shl(0xe5, 0x461bcd)\n      dup2\n      mstore\n        /* \"#utility.yul\":23206:23208   */\n      0x20\n        /* \"https://github.com/LayerZero-Labs/solidity-examples/blob/main/contracts/libraries/BytesLib.sol\":9398:9448  require(_length + 31 >= _length, \"slice_overflow\") */\n      0x04\n      dup3\n      add\n        /* \"#utility.yul\":23188:23209   */\n      mstore\n        /* \"#utility.yul\":23245:23247   */\n      0x0e\n        /* \"#utility.yul\":23225:23243   */\n      0x24\n      dup3\n      add\n        /* \"#utility.yul\":23218:23248   */\n      mstore\n      shl(0x90, 0x736c6963655f6f766572666c6f77)\n        /* \"#utility.yul\":23264:23282   */\n      0x44\n      dup3\n      add\n        /* \"#utility.yul\":23257:23301   */\n      mstore\n        /* \"#utility.yul\":23318:23336   */\n      0x64\n      add\n        /* \"https://github.com/LayerZero-Labs/solidity-examples/blob/main/contracts/libraries/BytesLib.sol\":9398:9448  require(_length + 31 >= _length, \"slice_overflow\") */\n      tag_175\n        /* \"#utility.yul\":23004:23342   */\n      jump\n        /* \"https://github.com/LayerZero-Labs/solidity-examples/blob/main/contracts/libraries/BytesLib.sol\":9398:9448  require(_length + 31 >= _length, \"slice_overflow\") */\n    tag_369:\n        /* \"https://github.com/LayerZero-Labs/solidity-examples/blob/main/contracts/libraries/BytesLib.sol\":9483:9499  _start + _length */\n      tag_372\n        /* \"https://github.com/LayerZero-Labs/solidity-examples/blob/main/contracts/libraries/BytesLib.sol\":9492:9499  _length */\n      dup3\n        /* \"https://github.com/LayerZero-Labs/solidity-examples/blob/main/contracts/libraries/BytesLib.sol\":9483:9489  _start */\n      dup5\n        /* \"https://github.com/LayerZero-Labs/solidity-examples/blob/main/contracts/libraries/BytesLib.sol\":9483:9499  _start + _length */\n      tag_368\n      jump\t// in\n    tag_372:\n        /* \"https://github.com/LayerZero-Labs/solidity-examples/blob/main/contracts/libraries/BytesLib.sol\":9466:9472  _bytes */\n      dup5\n        /* \"https://github.com/LayerZero-Labs/solidity-examples/blob/main/contracts/libraries/BytesLib.sol\":9466:9479  _bytes.length */\n      mload\n        /* \"https://github.com/LayerZero-Labs/solidity-examples/blob/main/contracts/libraries/BytesLib.sol\":9466:9499  _bytes.length >= _start + _length */\n      lt\n      iszero\n        /* \"https://github.com/LayerZero-Labs/solidity-examples/blob/main/contracts/libraries/BytesLib.sol\":9458:9521  require(_bytes.length >= _start + _length, \"slice_outOfBounds\") */\n      tag_373\n      jumpi\n      mload(0x40)\n      shl(0xe5, 0x461bcd)\n      dup2\n      mstore\n        /* \"#utility.yul\":23549:23551   */\n      0x20\n        /* \"https://github.com/LayerZero-Labs/solidity-examples/blob/main/contracts/libraries/BytesLib.sol\":9458:9521  require(_bytes.length >= _start + _length, \"slice_outOfBounds\") */\n      0x04\n      dup3\n      add\n        /* \"#utility.yul\":23531:23552   */\n      mstore\n        /* \"#utility.yul\":23588:23590   */\n      0x11\n        /* \"#utility.yul\":23568:23586   */\n      0x24\n      dup3\n      add\n        /* \"#utility.yul\":23561:23591   */\n      mstore\n      shl(0x78, 0x736c6963655f6f75744f66426f756e6473)\n        /* \"#utility.yul\":23607:23625   */\n      0x44\n      dup3\n      add\n        /* \"#utility.yul\":23600:23647   */\n      mstore\n        /* \"#utility.yul\":23664:23682   */\n      0x64\n      add\n        /* \"https://github.com/LayerZero-Labs/solidity-examples/blob/main/contracts/libraries/BytesLib.sol\":9458:9521  require(_bytes.length >= _start + _length, \"slice_outOfBounds\") */\n      tag_175\n        /* \"#utility.yul\":23347:23688   */\n      jump\n        /* \"https://github.com/LayerZero-Labs/solidity-examples/blob/main/contracts/libraries/BytesLib.sol\":9458:9521  require(_bytes.length >= _start + _length, \"slice_outOfBounds\") */\n    tag_373:\n        /* \"https://github.com/LayerZero-Labs/solidity-examples/blob/main/contracts/libraries/BytesLib.sol\":9532:9554  bytes memory tempBytes */\n      0x60\n        /* \"https://github.com/LayerZero-Labs/solidity-examples/blob/main/contracts/libraries/BytesLib.sol\":9595:9610  iszero(_length) */\n      dup3\n      iszero\n        /* \"https://github.com/LayerZero-Labs/solidity-examples/blob/main/contracts/libraries/BytesLib.sol\":9623:11590  case 0 {... */\n      dup1\n      iszero\n      tag_377\n      jumpi\n        /* \"https://github.com/LayerZero-Labs/solidity-examples/blob/main/contracts/libraries/BytesLib.sol\":11731:11735  0x40 */\n      0x40\n        /* \"https://github.com/LayerZero-Labs/solidity-examples/blob/main/contracts/libraries/BytesLib.sol\":11725:11736  mload(0x40) */\n      mload\n        /* \"https://github.com/LayerZero-Labs/solidity-examples/blob/main/contracts/libraries/BytesLib.sol\":11712:11736  tempBytes := mload(0x40) */\n      swap2\n      pop\n        /* \"https://github.com/LayerZero-Labs/solidity-examples/blob/main/contracts/libraries/BytesLib.sol\":11917:11918  0 */\n      0x00\n        /* \"https://github.com/LayerZero-Labs/solidity-examples/blob/main/contracts/libraries/BytesLib.sol\":11906:11915  tempBytes */\n      dup3\n        /* \"https://github.com/LayerZero-Labs/solidity-examples/blob/main/contracts/libraries/BytesLib.sol\":11899:11919  mstore(tempBytes, 0) */\n      mstore\n        /* \"https://github.com/LayerZero-Labs/solidity-examples/blob/main/contracts/libraries/BytesLib.sol\":11965:11969  0x20 */\n      0x20\n        /* \"https://github.com/LayerZero-Labs/solidity-examples/blob/main/contracts/libraries/BytesLib.sol\":11954:11963  tempBytes */\n      dup3\n        /* \"https://github.com/LayerZero-Labs/solidity-examples/blob/main/contracts/libraries/BytesLib.sol\":11950:11970  add(tempBytes, 0x20) */\n      add\n        /* \"https://github.com/LayerZero-Labs/solidity-examples/blob/main/contracts/libraries/BytesLib.sol\":11944:11948  0x40 */\n      0x40\n        /* \"https://github.com/LayerZero-Labs/solidity-examples/blob/main/contracts/libraries/BytesLib.sol\":11937:11971  mstore(0x40, add(tempBytes, 0x20)) */\n      mstore\n        /* \"https://github.com/LayerZero-Labs/solidity-examples/blob/main/contracts/libraries/BytesLib.sol\":9588:11985  switch iszero(_length)... */\n      jump(tag_376)\n        /* \"https://github.com/LayerZero-Labs/solidity-examples/blob/main/contracts/libraries/BytesLib.sol\":9623:11590  case 0 {... */\n    tag_377:\n        /* \"https://github.com/LayerZero-Labs/solidity-examples/blob/main/contracts/libraries/BytesLib.sol\":9805:9809  0x40 */\n      0x40\n        /* \"https://github.com/LayerZero-Labs/solidity-examples/blob/main/contracts/libraries/BytesLib.sol\":9799:9810  mload(0x40) */\n      mload\n        /* \"https://github.com/LayerZero-Labs/solidity-examples/blob/main/contracts/libraries/BytesLib.sol\":9786:9810  tempBytes := mload(0x40) */\n      swap2\n      pop\n        /* \"https://github.com/LayerZero-Labs/solidity-examples/blob/main/contracts/libraries/BytesLib.sol\":10464:10466  31 */\n      0x1f\n        /* \"https://github.com/LayerZero-Labs/solidity-examples/blob/main/contracts/libraries/BytesLib.sol\":10455:10462  _length */\n      dup5\n        /* \"https://github.com/LayerZero-Labs/solidity-examples/blob/main/contracts/libraries/BytesLib.sol\":10451:10467  and(_length, 31) */\n      and\n        /* \"https://github.com/LayerZero-Labs/solidity-examples/blob/main/contracts/libraries/BytesLib.sol\":10846:10855  lengthmod */\n      dup1\n        /* \"https://github.com/LayerZero-Labs/solidity-examples/blob/main/contracts/libraries/BytesLib.sol\":10839:10856  iszero(lengthmod) */\n      iszero\n        /* \"https://github.com/LayerZero-Labs/solidity-examples/blob/main/contracts/libraries/BytesLib.sol\":10833:10837  0x20 */\n      0x20\n        /* \"https://github.com/LayerZero-Labs/solidity-examples/blob/main/contracts/libraries/BytesLib.sol\":10829:10857  mul(0x20, iszero(lengthmod)) */\n      mul\n        /* \"https://github.com/LayerZero-Labs/solidity-examples/blob/main/contracts/libraries/BytesLib.sol\":10817:10826  lengthmod */\n      dup2\n        /* \"https://github.com/LayerZero-Labs/solidity-examples/blob/main/contracts/libraries/BytesLib.sol\":10806:10815  tempBytes */\n      dup5\n        /* \"https://github.com/LayerZero-Labs/solidity-examples/blob/main/contracts/libraries/BytesLib.sol\":10802:10827  add(tempBytes, lengthmod) */\n      add\n        /* \"https://github.com/LayerZero-Labs/solidity-examples/blob/main/contracts/libraries/BytesLib.sol\":10798:10858  add(add(tempBytes, lengthmod), mul(0x20, iszero(lengthmod))) */\n      add\n        /* \"https://github.com/LayerZero-Labs/solidity-examples/blob/main/contracts/libraries/BytesLib.sol\":10894:10901  _length */\n      dup6\n        /* \"https://github.com/LayerZero-Labs/solidity-examples/blob/main/contracts/libraries/BytesLib.sol\":10890:10892  mc */\n      dup2\n        /* \"https://github.com/LayerZero-Labs/solidity-examples/blob/main/contracts/libraries/BytesLib.sol\":10886:10902  add(mc, _length) */\n      add\n        /* \"https://github.com/LayerZero-Labs/solidity-examples/blob/main/contracts/libraries/BytesLib.sol\":11146:11152  _start */\n      dup8\n        /* \"https://github.com/LayerZero-Labs/solidity-examples/blob/main/contracts/libraries/BytesLib.sol\":11132:11141  lengthmod */\n      dup4\n        /* \"https://github.com/LayerZero-Labs/solidity-examples/blob/main/contracts/libraries/BytesLib.sol\":11125:11142  iszero(lengthmod) */\n      iszero\n        /* \"https://github.com/LayerZero-Labs/solidity-examples/blob/main/contracts/libraries/BytesLib.sol\":11119:11123  0x20 */\n      0x20\n        /* \"https://github.com/LayerZero-Labs/solidity-examples/blob/main/contracts/libraries/BytesLib.sol\":11115:11143  mul(0x20, iszero(lengthmod)) */\n      mul\n        /* \"https://github.com/LayerZero-Labs/solidity-examples/blob/main/contracts/libraries/BytesLib.sol\":11103:11112  lengthmod */\n      dup5\n        /* \"https://github.com/LayerZero-Labs/solidity-examples/blob/main/contracts/libraries/BytesLib.sol\":11095:11101  _bytes */\n      dup12\n        /* \"https://github.com/LayerZero-Labs/solidity-examples/blob/main/contracts/libraries/BytesLib.sol\":11091:11113  add(_bytes, lengthmod) */\n      add\n        /* \"https://github.com/LayerZero-Labs/solidity-examples/blob/main/contracts/libraries/BytesLib.sol\":11087:11144  add(add(_bytes, lengthmod), mul(0x20, iszero(lengthmod))) */\n      add\n        /* \"https://github.com/LayerZero-Labs/solidity-examples/blob/main/contracts/libraries/BytesLib.sol\":11083:11153  add(add(add(_bytes, lengthmod), mul(0x20, iszero(lengthmod))), _start) */\n      add\n        /* \"https://github.com/LayerZero-Labs/solidity-examples/blob/main/contracts/libraries/BytesLib.sol\":10920:11345  for {... */\n    tag_378:\n        /* \"https://github.com/LayerZero-Labs/solidity-examples/blob/main/contracts/libraries/BytesLib.sol\":11179:11182  end */\n      dup2\n        /* \"https://github.com/LayerZero-Labs/solidity-examples/blob/main/contracts/libraries/BytesLib.sol\":11175:11177  mc */\n      dup4\n        /* \"https://github.com/LayerZero-Labs/solidity-examples/blob/main/contracts/libraries/BytesLib.sol\":11172:11183  lt(mc, end) */\n      lt\n        /* \"https://github.com/LayerZero-Labs/solidity-examples/blob/main/contracts/libraries/BytesLib.sol\":10920:11345  for {... */\n      iszero\n      tag_380\n      jumpi\n        /* \"https://github.com/LayerZero-Labs/solidity-examples/blob/main/contracts/libraries/BytesLib.sol\":11317:11326  mload(cc) */\n      dup1\n      mload\n        /* \"https://github.com/LayerZero-Labs/solidity-examples/blob/main/contracts/libraries/BytesLib.sol\":11306:11327  mstore(mc, mload(cc)) */\n      dup4\n      mstore\n        /* \"https://github.com/LayerZero-Labs/solidity-examples/blob/main/contracts/libraries/BytesLib.sol\":11220:11224  0x20 */\n      0x20\n        /* \"https://github.com/LayerZero-Labs/solidity-examples/blob/main/contracts/libraries/BytesLib.sol\":11212:11225  add(mc, 0x20) */\n      swap3\n      dup4\n      add\n      swap3\n        /* \"https://github.com/LayerZero-Labs/solidity-examples/blob/main/contracts/libraries/BytesLib.sol\":11252:11265  add(cc, 0x20) */\n      add\n        /* \"https://github.com/LayerZero-Labs/solidity-examples/blob/main/contracts/libraries/BytesLib.sol\":10920:11345  for {... */\n      jump(tag_378)\n    tag_380:\n      pop\n      pop\n        /* \"https://github.com/LayerZero-Labs/solidity-examples/blob/main/contracts/libraries/BytesLib.sol\":11363:11389  mstore(tempBytes, _length) */\n      dup6\n      dup5\n      mstore\n        /* \"https://github.com/LayerZero-Labs/solidity-examples/blob/main/contracts/libraries/BytesLib.sol\":11571:11573  31 */\n      0x1f\n        /* \"https://github.com/LayerZero-Labs/solidity-examples/blob/main/contracts/libraries/BytesLib.sol\":11554:11565  add(mc, 31) */\n      add\n      not(0x1f)\n        /* \"https://github.com/LayerZero-Labs/solidity-examples/blob/main/contracts/libraries/BytesLib.sol\":11550:11575  and(add(mc, 31), not(31)) */\n      and\n        /* \"https://github.com/LayerZero-Labs/solidity-examples/blob/main/contracts/libraries/BytesLib.sol\":11544:11548  0x40 */\n      0x40\n        /* \"https://github.com/LayerZero-Labs/solidity-examples/blob/main/contracts/libraries/BytesLib.sol\":11537:11576  mstore(0x40, and(add(mc, 31), not(31))) */\n      mstore\n      pop\n        /* \"https://github.com/LayerZero-Labs/solidity-examples/blob/main/contracts/libraries/BytesLib.sol\":9588:11985  switch iszero(_length)... */\n    tag_376:\n      pop\n        /* \"https://github.com/LayerZero-Labs/solidity-examples/blob/main/contracts/libraries/BytesLib.sol\":12012:12021  tempBytes */\n      swap5\n        /* \"https://github.com/LayerZero-Labs/solidity-examples/blob/main/contracts/libraries/BytesLib.sol\":9258:12028  function slice(... */\n      swap4\n      pop\n      pop\n      pop\n      pop\n      jump\t// out\n        /* \"https://github.com/LayerZero-Labs/solidity-examples/blob/main/contracts/libraries/ExcessivelySafeCall.sol\":1111:2385  function excessivelySafeCall(... */\n    tag_334:\n        /* \"https://github.com/LayerZero-Labs/solidity-examples/blob/main/contracts/libraries/ExcessivelySafeCall.sol\":1265:1269  bool */\n      0x00\n        /* \"https://github.com/LayerZero-Labs/solidity-examples/blob/main/contracts/libraries/ExcessivelySafeCall.sol\":1271:1283  bytes memory */\n      0x60\n        /* \"https://github.com/LayerZero-Labs/solidity-examples/blob/main/contracts/libraries/ExcessivelySafeCall.sol\":1331:1343  uint _toCopy */\n      0x00\n        /* \"https://github.com/LayerZero-Labs/solidity-examples/blob/main/contracts/libraries/ExcessivelySafeCall.sol\":1353:1366  bool _success */\n      dup1\n        /* \"https://github.com/LayerZero-Labs/solidity-examples/blob/main/contracts/libraries/ExcessivelySafeCall.sol\":1376:1400  bytes memory _returnData */\n      0x00\n        /* \"https://github.com/LayerZero-Labs/solidity-examples/blob/main/contracts/libraries/ExcessivelySafeCall.sol\":1413:1421  _maxCopy */\n      dup7\n        /* \"https://github.com/LayerZero-Labs/solidity-examples/blob/main/contracts/libraries/ExcessivelySafeCall.sol\":1403:1422  new bytes(_maxCopy) */\n      0xffff\n      and\n      sub(shl(0x40, 0x01), 0x01)\n      dup2\n      gt\n      iszero\n      tag_383\n      jumpi\n      tag_383\n      tag_384\n      jump\t// in\n    tag_383:\n      mload(0x40)\n      swap1\n      dup1\n      dup3\n      mstore\n      dup1\n      0x1f\n      add\n      not(0x1f)\n      and\n      0x20\n      add\n      dup3\n      add\n      0x40\n      mstore\n      dup1\n      iszero\n      tag_385\n      jumpi\n      0x20\n      dup3\n      add\n      dup2\n      dup1\n      calldatasize\n      dup4\n      calldatacopy\n      add\n      swap1\n      pop\n    tag_385:\n      pop\n        /* \"https://github.com/LayerZero-Labs/solidity-examples/blob/main/contracts/libraries/ExcessivelySafeCall.sol\":1376:1422  bytes memory _returnData = new bytes(_maxCopy) */\n      swap1\n      pop\n        /* \"https://github.com/LayerZero-Labs/solidity-examples/blob/main/contracts/libraries/ExcessivelySafeCall.sol\":1919:1920  0 */\n      0x00\n        /* \"https://github.com/LayerZero-Labs/solidity-examples/blob/main/contracts/libraries/ExcessivelySafeCall.sol\":1890:1891  0 */\n      dup1\n        /* \"https://github.com/LayerZero-Labs/solidity-examples/blob/main/contracts/libraries/ExcessivelySafeCall.sol\":1853:1862  _calldata */\n      dup8\n        /* \"https://github.com/LayerZero-Labs/solidity-examples/blob/main/contracts/libraries/ExcessivelySafeCall.sol\":1847:1863  mload(_calldata) */\n      mload\n        /* \"https://github.com/LayerZero-Labs/solidity-examples/blob/main/contracts/libraries/ExcessivelySafeCall.sol\":1815:1819  0x20 */\n      0x20\n        /* \"https://github.com/LayerZero-Labs/solidity-examples/blob/main/contracts/libraries/ExcessivelySafeCall.sol\":1804:1813  _calldata */\n      dup10\n        /* \"https://github.com/LayerZero-Labs/solidity-examples/blob/main/contracts/libraries/ExcessivelySafeCall.sol\":1800:1820  add(_calldata, 0x20) */\n      add\n        /* \"https://github.com/LayerZero-Labs/solidity-examples/blob/main/contracts/libraries/ExcessivelySafeCall.sol\":1766:1767  0 */\n      0x00\n        /* \"https://github.com/LayerZero-Labs/solidity-examples/blob/main/contracts/libraries/ExcessivelySafeCall.sol\":1728:1735  _target */\n      dup14\n        /* \"https://github.com/LayerZero-Labs/solidity-examples/blob/main/contracts/libraries/ExcessivelySafeCall.sol\":1699:1703  _gas */\n      dup14\n        /* \"https://github.com/LayerZero-Labs/solidity-examples/blob/main/contracts/libraries/ExcessivelySafeCall.sol\":1677:1944  call(... */\n      call\n        /* \"https://github.com/LayerZero-Labs/solidity-examples/blob/main/contracts/libraries/ExcessivelySafeCall.sol\":1665:1944  _success := call(... */\n      swap2\n      pop\n        /* \"https://github.com/LayerZero-Labs/solidity-examples/blob/main/contracts/libraries/ExcessivelySafeCall.sol\":2011:2027  returndatasize() */\n      returndatasize\n        /* \"https://github.com/LayerZero-Labs/solidity-examples/blob/main/contracts/libraries/ExcessivelySafeCall.sol\":2000:2027  _toCopy := returndatasize() */\n      swap3\n      pop\n        /* \"https://github.com/LayerZero-Labs/solidity-examples/blob/main/contracts/libraries/ExcessivelySafeCall.sol\":2055:2063  _maxCopy */\n      dup7\n        /* \"https://github.com/LayerZero-Labs/solidity-examples/blob/main/contracts/libraries/ExcessivelySafeCall.sol\":2046:2053  _toCopy */\n      dup4\n        /* \"https://github.com/LayerZero-Labs/solidity-examples/blob/main/contracts/libraries/ExcessivelySafeCall.sol\":2043:2064  gt(_toCopy, _maxCopy) */\n      gt\n        /* \"https://github.com/LayerZero-Labs/solidity-examples/blob/main/contracts/libraries/ExcessivelySafeCall.sol\":2040:2116  if gt(_toCopy, _maxCopy) {... */\n      iszero\n      tag_386\n      jumpi\n        /* \"https://github.com/LayerZero-Labs/solidity-examples/blob/main/contracts/libraries/ExcessivelySafeCall.sol\":2094:2102  _maxCopy */\n      dup7\n        /* \"https://github.com/LayerZero-Labs/solidity-examples/blob/main/contracts/libraries/ExcessivelySafeCall.sol\":2083:2102  _toCopy := _maxCopy */\n      swap3\n      pop\n        /* \"https://github.com/LayerZero-Labs/solidity-examples/blob/main/contracts/libraries/ExcessivelySafeCall.sol\":2040:2116  if gt(_toCopy, _maxCopy) {... */\n    tag_386:\n        /* \"https://github.com/LayerZero-Labs/solidity-examples/blob/main/contracts/libraries/ExcessivelySafeCall.sol\":2201:2208  _toCopy */\n      dup3\n        /* \"https://github.com/LayerZero-Labs/solidity-examples/blob/main/contracts/libraries/ExcessivelySafeCall.sol\":2188:2199  _returnData */\n      dup2\n        /* \"https://github.com/LayerZero-Labs/solidity-examples/blob/main/contracts/libraries/ExcessivelySafeCall.sol\":2181:2209  mstore(_returnData, _toCopy) */\n      mstore\n        /* \"https://github.com/LayerZero-Labs/solidity-examples/blob/main/contracts/libraries/ExcessivelySafeCall.sol\":2321:2328  _toCopy */\n      dup3\n        /* \"https://github.com/LayerZero-Labs/solidity-examples/blob/main/contracts/libraries/ExcessivelySafeCall.sol\":2318:2319  0 */\n      0x00\n        /* \"https://github.com/LayerZero-Labs/solidity-examples/blob/main/contracts/libraries/ExcessivelySafeCall.sol\":2311:2315  0x20 */\n      0x20\n        /* \"https://github.com/LayerZero-Labs/solidity-examples/blob/main/contracts/libraries/ExcessivelySafeCall.sol\":2298:2309  _returnData */\n      dup4\n        /* \"https://github.com/LayerZero-Labs/solidity-examples/blob/main/contracts/libraries/ExcessivelySafeCall.sol\":2294:2316  add(_returnData, 0x20) */\n      add\n        /* \"https://github.com/LayerZero-Labs/solidity-examples/blob/main/contracts/libraries/ExcessivelySafeCall.sol\":2279:2329  returndatacopy(add(_returnData, 0x20), 0, _toCopy) */\n      returndatacopy\n        /* \"https://github.com/LayerZero-Labs/solidity-examples/blob/main/contracts/libraries/ExcessivelySafeCall.sol\":2356:2364  _success */\n      swap1\n      swap9\n      swap1\n      swap8\n      pop\n        /* \"https://github.com/LayerZero-Labs/solidity-examples/blob/main/contracts/libraries/ExcessivelySafeCall.sol\":1111:2385  function excessivelySafeCall(... */\n      swap6\n      pop\n      pop\n      pop\n      pop\n      pop\n      pop\n      jump\t// out\n        /* \"https://github.com/LayerZero-Labs/solidity-examples/blob/main/contracts/lzApp/NonblockingLzApp.sol\":1540:1906  function _storeFailedMessage(... */\n    tag_337:\n        /* \"https://github.com/LayerZero-Labs/solidity-examples/blob/main/contracts/lzApp/NonblockingLzApp.sol\":1809:1817  _payload */\n      dup2\n        /* \"https://github.com/LayerZero-Labs/solidity-examples/blob/main/contracts/lzApp/NonblockingLzApp.sol\":1799:1818  keccak256(_payload) */\n      dup1\n      mload\n      swap1\n      0x20\n      add\n      keccak256\n        /* \"https://github.com/LayerZero-Labs/solidity-examples/blob/main/contracts/lzApp/NonblockingLzApp.sol\":1748:1762  failedMessages */\n      0x05\n        /* \"https://github.com/LayerZero-Labs/solidity-examples/blob/main/contracts/lzApp/NonblockingLzApp.sol\":1748:1775  failedMessages[_srcChainId] */\n      0x00\n        /* \"https://github.com/LayerZero-Labs/solidity-examples/blob/main/contracts/lzApp/NonblockingLzApp.sol\":1763:1774  _srcChainId */\n      dup8\n        /* \"https://github.com/LayerZero-Labs/solidity-examples/blob/main/contracts/lzApp/NonblockingLzApp.sol\":1748:1775  failedMessages[_srcChainId] */\n      0xffff\n      and\n      0xffff\n      and\n      dup2\n      mstore\n      0x20\n      add\n      swap1\n      dup2\n      mstore\n      0x20\n      add\n      0x00\n      keccak256\n        /* \"https://github.com/LayerZero-Labs/solidity-examples/blob/main/contracts/lzApp/NonblockingLzApp.sol\":1776:1787  _srcAddress */\n      dup6\n        /* \"https://github.com/LayerZero-Labs/solidity-examples/blob/main/contracts/lzApp/NonblockingLzApp.sol\":1748:1788  failedMessages[_srcChainId][_srcAddress] */\n      mload(0x40)\n      tag_388\n      swap2\n      swap1\n      tag_389\n      jump\t// in\n    tag_388:\n      swap1\n      dup2\n      mstore\n      0x40\n      dup1\n      mload\n      swap2\n      dup3\n      swap1\n      sub\n      0x20\n      swap1\n      dup2\n      add\n      dup4\n      keccak256\n      sub(shl(0x40, 0x01), 0x01)\n        /* \"https://github.com/LayerZero-Labs/solidity-examples/blob/main/contracts/lzApp/NonblockingLzApp.sol\":1748:1796  failedMessages[_srcChainId][_srcAddress][_nonce] */\n      dup9\n      and\n      0x00\n      swap1\n      dup2\n      mstore\n      swap2\n      mstore\n      keccak256\n        /* \"https://github.com/LayerZero-Labs/solidity-examples/blob/main/contracts/lzApp/NonblockingLzApp.sol\":1748:1818  failedMessages[_srcChainId][_srcAddress][_nonce] = keccak256(_payload) */\n      swap2\n      swap1\n      swap2\n      sstore\n        /* \"https://github.com/LayerZero-Labs/solidity-examples/blob/main/contracts/lzApp/NonblockingLzApp.sol\":1833:1899  MessageFailed(_srcChainId, _srcAddress, _nonce, _payload, _reason) */\n      0xe183f33de2837795525b4792ca4cd60535bd77c53b7e7030060bfcf5734d6b0c\n      swap1\n      tag_390\n      swap1\n        /* \"https://github.com/LayerZero-Labs/solidity-examples/blob/main/contracts/lzApp/NonblockingLzApp.sol\":1847:1858  _srcChainId */\n      dup8\n      swap1\n        /* \"https://github.com/LayerZero-Labs/solidity-examples/blob/main/contracts/lzApp/NonblockingLzApp.sol\":1860:1871  _srcAddress */\n      dup8\n      swap1\n        /* \"https://github.com/LayerZero-Labs/solidity-examples/blob/main/contracts/lzApp/NonblockingLzApp.sol\":1789:1795  _nonce */\n      dup8\n      swap1\n        /* \"https://github.com/LayerZero-Labs/solidity-examples/blob/main/contracts/lzApp/NonblockingLzApp.sol\":1881:1889  _payload */\n      dup8\n      swap1\n        /* \"https://github.com/LayerZero-Labs/solidity-examples/blob/main/contracts/lzApp/NonblockingLzApp.sol\":1891:1898  _reason */\n      dup8\n      swap1\n        /* \"https://github.com/LayerZero-Labs/solidity-examples/blob/main/contracts/lzApp/NonblockingLzApp.sol\":1833:1899  MessageFailed(_srcChainId, _srcAddress, _nonce, _payload, _reason) */\n      tag_391\n      jump\t// in\n    tag_390:\n      mload(0x40)\n      dup1\n      swap2\n      sub\n      swap1\n      log1\n        /* \"https://github.com/LayerZero-Labs/solidity-examples/blob/main/contracts/lzApp/NonblockingLzApp.sol\":1540:1906  function _storeFailedMessage(... */\n      pop\n      pop\n      pop\n      pop\n      pop\n      jump\t// out\n        /* \"https://github.com/LayerZero-Labs/solidity-examples/blob/main/contracts/lzApp/LzApp.sol\":3742:4137  function _checkPayloadSize(uint16 _dstChainId, uint _payloadSize) internal view virtual {... */\n    tag_354:\n        /* \"https://github.com/LayerZero-Labs/solidity-examples/blob/main/contracts/lzApp/LzApp.sol\":3864:3899  payloadSizeLimitLookup[_dstChainId] */\n      0xffff\n      dup3\n      and\n        /* \"https://github.com/LayerZero-Labs/solidity-examples/blob/main/contracts/lzApp/LzApp.sol\":3840:3861  uint payloadSizeLimit */\n      0x00\n        /* \"https://github.com/LayerZero-Labs/solidity-examples/blob/main/contracts/lzApp/LzApp.sol\":3864:3899  payloadSizeLimitLookup[_dstChainId] */\n      swap1\n      dup2\n      mstore\n        /* \"https://github.com/LayerZero-Labs/solidity-examples/blob/main/contracts/lzApp/LzApp.sol\":3864:3886  payloadSizeLimitLookup */\n      0x03\n        /* \"https://github.com/LayerZero-Labs/solidity-examples/blob/main/contracts/lzApp/LzApp.sol\":3864:3899  payloadSizeLimitLookup[_dstChainId] */\n      0x20\n      mstore\n      0x40\n      dup2\n      keccak256\n      sload\n      swap1\n        /* \"https://github.com/LayerZero-Labs/solidity-examples/blob/main/contracts/lzApp/LzApp.sol\":3913:3934  payloadSizeLimit == 0 */\n      dup2\n      swap1\n      sub\n        /* \"https://github.com/LayerZero-Labs/solidity-examples/blob/main/contracts/lzApp/LzApp.sol\":3909:4044  if (payloadSizeLimit == 0) {... */\n      tag_393\n      jumpi\n      pop\n        /* \"https://github.com/LayerZero-Labs/solidity-examples/blob/main/contracts/lzApp/LzApp.sol\":618:623  10000 */\n      0x2710\n        /* \"https://github.com/LayerZero-Labs/solidity-examples/blob/main/contracts/lzApp/LzApp.sol\":3909:4044  if (payloadSizeLimit == 0) {... */\n    tag_393:\n        /* \"https://github.com/LayerZero-Labs/solidity-examples/blob/main/contracts/lzApp/LzApp.sol\":4077:4093  payloadSizeLimit */\n      dup1\n        /* \"https://github.com/LayerZero-Labs/solidity-examples/blob/main/contracts/lzApp/LzApp.sol\":4061:4073  _payloadSize */\n      dup3\n        /* \"https://github.com/LayerZero-Labs/solidity-examples/blob/main/contracts/lzApp/LzApp.sol\":4061:4093  _payloadSize <= payloadSizeLimit */\n      gt\n      iszero\n        /* \"https://github.com/LayerZero-Labs/solidity-examples/blob/main/contracts/lzApp/LzApp.sol\":4053:4130  require(_payloadSize <= payloadSizeLimit, \"LzApp: payload size is too large\") */\n      tag_394\n      jumpi\n      mload(0x40)\n      shl(0xe5, 0x461bcd)\n      dup2\n      mstore\n        /* \"#utility.yul\":24911:24913   */\n      0x20\n        /* \"https://github.com/LayerZero-Labs/solidity-examples/blob/main/contracts/lzApp/LzApp.sol\":4053:4130  require(_payloadSize <= payloadSizeLimit, \"LzApp: payload size is too large\") */\n      0x04\n      dup3\n      add\n        /* \"#utility.yul\":24893:24914   */\n      dup2\n      swap1\n      mstore\n        /* \"#utility.yul\":24930:24948   */\n      0x24\n      dup3\n      add\n        /* \"#utility.yul\":24923:24953   */\n      mstore\n        /* \"#utility.yul\":24989:25023   */\n      0x4c7a4170703a207061796c6f61642073697a6520697320746f6f206c61726765\n        /* \"#utility.yul\":24969:24987   */\n      0x44\n      dup3\n      add\n        /* \"#utility.yul\":24962:25024   */\n      mstore\n        /* \"#utility.yul\":25041:25059   */\n      0x64\n      add\n        /* \"https://github.com/LayerZero-Labs/solidity-examples/blob/main/contracts/lzApp/LzApp.sol\":4053:4130  require(_payloadSize <= payloadSizeLimit, \"LzApp: payload size is too large\") */\n      tag_175\n        /* \"#utility.yul\":24709:25065   */\n      jump\n        /* \"https://github.com/LayerZero-Labs/solidity-examples/blob/main/contracts/lzApp/LzApp.sol\":4053:4130  require(_payloadSize <= payloadSizeLimit, \"LzApp: payload size is too large\") */\n    tag_394:\n        /* \"https://github.com/LayerZero-Labs/solidity-examples/blob/main/contracts/lzApp/LzApp.sol\":3830:4137  {... */\n      pop\n        /* \"https://github.com/LayerZero-Labs/solidity-examples/blob/main/contracts/lzApp/LzApp.sol\":3742:4137  function _checkPayloadSize(uint16 _dstChainId, uint _payloadSize) internal view virtual {... */\n      pop\n      pop\n      jump\t// out\n        /* \"#utility.yul\":14:173   */\n    tag_397:\n        /* \"#utility.yul\":81:101   */\n      dup1\n      calldataload\n        /* \"#utility.yul\":141:147   */\n      0xffff\n        /* \"#utility.yul\":130:148   */\n      dup2\n      and\n        /* \"#utility.yul\":120:149   */\n      dup2\n      eq\n        /* \"#utility.yul\":110:167   */\n      tag_414\n      jumpi\n        /* \"#utility.yul\":163:164   */\n      0x00\n        /* \"#utility.yul\":160:161   */\n      dup1\n        /* \"#utility.yul\":153:165   */\n      revert\n        /* \"#utility.yul\":110:167   */\n    tag_414:\n        /* \"#utility.yul\":14:173   */\n      swap2\n      swap1\n      pop\n      jump\t// out\n        /* \"#utility.yul\":178:525   */\n    tag_398:\n        /* \"#utility.yul\":229:237   */\n      0x00\n        /* \"#utility.yul\":239:245   */\n      dup1\n        /* \"#utility.yul\":293:296   */\n      dup4\n        /* \"#utility.yul\":286:290   */\n      0x1f\n        /* \"#utility.yul\":278:284   */\n      dup5\n        /* \"#utility.yul\":274:291   */\n      add\n        /* \"#utility.yul\":270:297   */\n      slt\n        /* \"#utility.yul\":260:315   */\n      tag_416\n      jumpi\n        /* \"#utility.yul\":311:312   */\n      0x00\n        /* \"#utility.yul\":308:309   */\n      dup1\n        /* \"#utility.yul\":301:313   */\n      revert\n        /* \"#utility.yul\":260:315   */\n    tag_416:\n      pop\n        /* \"#utility.yul\":334:354   */\n      dup2\n      calldataload\n      sub(shl(0x40, 0x01), 0x01)\n        /* \"#utility.yul\":366:396   */\n      dup2\n      gt\n        /* \"#utility.yul\":363:413   */\n      iszero\n      tag_417\n      jumpi\n        /* \"#utility.yul\":409:410   */\n      0x00\n        /* \"#utility.yul\":406:407   */\n      dup1\n        /* \"#utility.yul\":399:411   */\n      revert\n        /* \"#utility.yul\":363:413   */\n    tag_417:\n        /* \"#utility.yul\":446:450   */\n      0x20\n        /* \"#utility.yul\":438:444   */\n      dup4\n        /* \"#utility.yul\":434:451   */\n      add\n        /* \"#utility.yul\":422:451   */\n      swap2\n      pop\n        /* \"#utility.yul\":498:501   */\n      dup4\n        /* \"#utility.yul\":491:495   */\n      0x20\n        /* \"#utility.yul\":482:488   */\n      dup3\n        /* \"#utility.yul\":474:480   */\n      dup6\n        /* \"#utility.yul\":470:489   */\n      add\n        /* \"#utility.yul\":466:496   */\n      add\n        /* \"#utility.yul\":463:502   */\n      gt\n        /* \"#utility.yul\":460:519   */\n      iszero\n      tag_418\n      jumpi\n        /* \"#utility.yul\":515:516   */\n      0x00\n        /* \"#utility.yul\":512:513   */\n      dup1\n        /* \"#utility.yul\":505:517   */\n      revert\n        /* \"#utility.yul\":460:519   */\n    tag_418:\n        /* \"#utility.yul\":178:525   */\n      swap3\n      pop\n      swap3\n      swap1\n      pop\n      jump\t// out\n        /* \"#utility.yul\":530:701   */\n    tag_399:\n        /* \"#utility.yul\":597:617   */\n      dup1\n      calldataload\n      sub(shl(0x40, 0x01), 0x01)\n        /* \"#utility.yul\":646:676   */\n      dup2\n      and\n        /* \"#utility.yul\":636:677   */\n      dup2\n      eq\n        /* \"#utility.yul\":626:695   */\n      tag_414\n      jumpi\n        /* \"#utility.yul\":691:692   */\n      0x00\n        /* \"#utility.yul\":688:689   */\n      dup1\n        /* \"#utility.yul\":681:693   */\n      revert\n        /* \"#utility.yul\":706:1568   */\n    tag_40:\n        /* \"#utility.yul\":812:818   */\n      0x00\n        /* \"#utility.yul\":820:826   */\n      dup1\n        /* \"#utility.yul\":828:834   */\n      0x00\n        /* \"#utility.yul\":836:842   */\n      dup1\n        /* \"#utility.yul\":844:850   */\n      0x00\n        /* \"#utility.yul\":852:858   */\n      dup1\n        /* \"#utility.yul\":905:908   */\n      0x80\n        /* \"#utility.yul\":893:902   */\n      dup8\n        /* \"#utility.yul\":884:891   */\n      dup10\n        /* \"#utility.yul\":880:903   */\n      sub\n        /* \"#utility.yul\":876:909   */\n      slt\n        /* \"#utility.yul\":873:926   */\n      iszero\n      tag_422\n      jumpi\n        /* \"#utility.yul\":922:923   */\n      0x00\n        /* \"#utility.yul\":919:920   */\n      dup1\n        /* \"#utility.yul\":912:924   */\n      revert\n        /* \"#utility.yul\":873:926   */\n    tag_422:\n        /* \"#utility.yul\":945:973   */\n      tag_423\n        /* \"#utility.yul\":963:972   */\n      dup8\n        /* \"#utility.yul\":945:973   */\n      tag_397\n      jump\t// in\n    tag_423:\n        /* \"#utility.yul\":935:973   */\n      swap6\n      pop\n        /* \"#utility.yul\":1024:1026   */\n      0x20\n        /* \"#utility.yul\":1013:1022   */\n      dup8\n        /* \"#utility.yul\":1009:1027   */\n      add\n        /* \"#utility.yul\":996:1028   */\n      calldataload\n      sub(shl(0x40, 0x01), 0x01)\n        /* \"#utility.yul\":1088:1090   */\n      dup1\n        /* \"#utility.yul\":1080:1086   */\n      dup3\n        /* \"#utility.yul\":1077:1091   */\n      gt\n        /* \"#utility.yul\":1074:1108   */\n      iszero\n      tag_424\n      jumpi\n        /* \"#utility.yul\":1104:1105   */\n      0x00\n        /* \"#utility.yul\":1101:1102   */\n      dup1\n        /* \"#utility.yul\":1094:1106   */\n      revert\n        /* \"#utility.yul\":1074:1108   */\n    tag_424:\n        /* \"#utility.yul\":1143:1201   */\n      tag_425\n        /* \"#utility.yul\":1193:1200   */\n      dup11\n        /* \"#utility.yul\":1184:1190   */\n      dup4\n        /* \"#utility.yul\":1173:1182   */\n      dup12\n        /* \"#utility.yul\":1169:1191   */\n      add\n        /* \"#utility.yul\":1143:1201   */\n      tag_398\n      jump\t// in\n    tag_425:\n        /* \"#utility.yul\":1220:1228   */\n      swap1\n      swap8\n      pop\n        /* \"#utility.yul\":1117:1201   */\n      swap6\n      pop\n      dup6\n      swap2\n      pop\n        /* \"#utility.yul\":1274:1311   */\n      tag_426\n        /* \"#utility.yul\":1307:1309   */\n      0x40\n        /* \"#utility.yul\":1292:1310   */\n      dup11\n      add\n        /* \"#utility.yul\":1274:1311   */\n      tag_399\n      jump\t// in\n    tag_426:\n        /* \"#utility.yul\":1264:1311   */\n      swap5\n      pop\n        /* \"#utility.yul\":1364:1366   */\n      0x60\n        /* \"#utility.yul\":1353:1362   */\n      dup10\n        /* \"#utility.yul\":1349:1367   */\n      add\n        /* \"#utility.yul\":1336:1368   */\n      calldataload\n        /* \"#utility.yul\":1320:1368   */\n      swap2\n      pop\n        /* \"#utility.yul\":1393:1395   */\n      dup1\n        /* \"#utility.yul\":1383:1391   */\n      dup3\n        /* \"#utility.yul\":1380:1396   */\n      gt\n        /* \"#utility.yul\":1377:1413   */\n      iszero\n      tag_427\n      jumpi\n        /* \"#utility.yul\":1409:1410   */\n      0x00\n        /* \"#utility.yul\":1406:1407   */\n      dup1\n        /* \"#utility.yul\":1399:1411   */\n      revert\n        /* \"#utility.yul\":1377:1413   */\n    tag_427:\n      pop\n        /* \"#utility.yul\":1448:1508   */\n      tag_428\n        /* \"#utility.yul\":1500:1507   */\n      dup10\n        /* \"#utility.yul\":1489:1497   */\n      dup3\n        /* \"#utility.yul\":1478:1487   */\n      dup11\n        /* \"#utility.yul\":1474:1498   */\n      add\n        /* \"#utility.yul\":1448:1508   */\n      tag_398\n      jump\t// in\n    tag_428:\n        /* \"#utility.yul\":706:1568   */\n      swap8\n      swap11\n      swap7\n      swap10\n      pop\n      swap5\n      swap8\n      pop\n      swap3\n      swap6\n        /* \"#utility.yul\":1527:1535   */\n      swap4\n      swap5\n        /* \"#utility.yul\":706:1568   */\n      swap3\n      pop\n      pop\n      pop\n      jump\t// out\n        /* \"#utility.yul\":1573:1757   */\n    tag_45:\n        /* \"#utility.yul\":1631:1637   */\n      0x00\n        /* \"#utility.yul\":1684:1686   */\n      0x20\n        /* \"#utility.yul\":1672:1681   */\n      dup3\n        /* \"#utility.yul\":1663:1670   */\n      dup5\n        /* \"#utility.yul\":1659:1682   */\n      sub\n        /* \"#utility.yul\":1655:1687   */\n      slt\n        /* \"#utility.yul\":1652:1704   */\n      iszero\n      tag_430\n      jumpi\n        /* \"#utility.yul\":1700:1701   */\n      0x00\n        /* \"#utility.yul\":1697:1698   */\n      dup1\n        /* \"#utility.yul\":1690:1702   */\n      revert\n        /* \"#utility.yul\":1652:1704   */\n    tag_430:\n        /* \"#utility.yul\":1723:1751   */\n      tag_211\n        /* \"#utility.yul\":1741:1750   */\n      dup3\n        /* \"#utility.yul\":1723:1751   */\n      tag_397\n      jump\t// in\n        /* \"#utility.yul\":1762:2014   */\n    tag_50:\n        /* \"#utility.yul\":1829:1835   */\n      0x00\n        /* \"#utility.yul\":1837:1843   */\n      dup1\n        /* \"#utility.yul\":1890:1892   */\n      0x40\n        /* \"#utility.yul\":1878:1887   */\n      dup4\n        /* \"#utility.yul\":1869:1876   */\n      dup6\n        /* \"#utility.yul\":1865:1888   */\n      sub\n        /* \"#utility.yul\":1861:1893   */\n      slt\n        /* \"#utility.yul\":1858:1910   */\n      iszero\n      tag_433\n      jumpi\n        /* \"#utility.yul\":1906:1907   */\n      0x00\n        /* \"#utility.yul\":1903:1904   */\n      dup1\n        /* \"#utility.yul\":1896:1908   */\n      revert\n        /* \"#utility.yul\":1858:1910   */\n    tag_433:\n        /* \"#utility.yul\":1929:1957   */\n      tag_434\n        /* \"#utility.yul\":1947:1956   */\n      dup4\n        /* \"#utility.yul\":1929:1957   */\n      tag_397\n      jump\t// in\n    tag_434:\n        /* \"#utility.yul\":1919:1957   */\n      swap5\n        /* \"#utility.yul\":2004:2006   */\n      0x20\n        /* \"#utility.yul\":1989:2007   */\n      swap4\n      swap1\n      swap4\n      add\n        /* \"#utility.yul\":1976:2008   */\n      calldataload\n      swap4\n      pop\n      pop\n      pop\n        /* \"#utility.yul\":1762:2014   */\n      jump\t// out\n        /* \"#utility.yul\":2019:2500   */\n    tag_59:\n        /* \"#utility.yul\":2097:2103   */\n      0x00\n        /* \"#utility.yul\":2105:2111   */\n      dup1\n        /* \"#utility.yul\":2113:2119   */\n      0x00\n        /* \"#utility.yul\":2166:2168   */\n      0x40\n        /* \"#utility.yul\":2154:2163   */\n      dup5\n        /* \"#utility.yul\":2145:2152   */\n      dup7\n        /* \"#utility.yul\":2141:2164   */\n      sub\n        /* \"#utility.yul\":2137:2169   */\n      slt\n        /* \"#utility.yul\":2134:2186   */\n      iszero\n      tag_436\n      jumpi\n        /* \"#utility.yul\":2182:2183   */\n      0x00\n        /* \"#utility.yul\":2179:2180   */\n      dup1\n        /* \"#utility.yul\":2172:2184   */\n      revert\n        /* \"#utility.yul\":2134:2186   */\n    tag_436:\n        /* \"#utility.yul\":2205:2233   */\n      tag_437\n        /* \"#utility.yul\":2223:2232   */\n      dup5\n        /* \"#utility.yul\":2205:2233   */\n      tag_397\n      jump\t// in\n    tag_437:\n        /* \"#utility.yul\":2195:2233   */\n      swap3\n      pop\n        /* \"#utility.yul\":2284:2286   */\n      0x20\n        /* \"#utility.yul\":2273:2282   */\n      dup5\n        /* \"#utility.yul\":2269:2287   */\n      add\n        /* \"#utility.yul\":2256:2288   */\n      calldataload\n      sub(shl(0x40, 0x01), 0x01)\n        /* \"#utility.yul\":2303:2309   */\n      dup2\n        /* \"#utility.yul\":2300:2330   */\n      gt\n        /* \"#utility.yul\":2297:2347   */\n      iszero\n      tag_438\n      jumpi\n        /* \"#utility.yul\":2343:2344   */\n      0x00\n        /* \"#utility.yul\":2340:2341   */\n      dup1\n        /* \"#utility.yul\":2333:2345   */\n      revert\n        /* \"#utility.yul\":2297:2347   */\n    tag_438:\n        /* \"#utility.yul\":2382:2440   */\n      tag_439\n        /* \"#utility.yul\":2432:2439   */\n      dup7\n        /* \"#utility.yul\":2423:2429   */\n      dup3\n        /* \"#utility.yul\":2412:2421   */\n      dup8\n        /* \"#utility.yul\":2408:2430   */\n      add\n        /* \"#utility.yul\":2382:2440   */\n      tag_398\n      jump\t// in\n    tag_439:\n        /* \"#utility.yul\":2019:2500   */\n      swap5\n      swap8\n        /* \"#utility.yul\":2459:2467   */\n      swap1\n      swap7\n      pop\n        /* \"#utility.yul\":2356:2440   */\n      swap4\n      swap5\n      pop\n      pop\n      pop\n      pop\n        /* \"#utility.yul\":2019:2500   */\n      jump\t// out\n        /* \"#utility.yul\":2879:3006   */\n    tag_384:\n        /* \"#utility.yul\":2940:2950   */\n      0x4e487b71\n        /* \"#utility.yul\":2935:2938   */\n      0xe0\n        /* \"#utility.yul\":2931:2951   */\n      shl\n        /* \"#utility.yul\":2928:2929   */\n      0x00\n        /* \"#utility.yul\":2921:2952   */\n      mstore\n        /* \"#utility.yul\":2971:2975   */\n      0x41\n        /* \"#utility.yul\":2968:2969   */\n      0x04\n        /* \"#utility.yul\":2961:2976   */\n      mstore\n        /* \"#utility.yul\":2995:2999   */\n      0x24\n        /* \"#utility.yul\":2992:2993   */\n      0x00\n        /* \"#utility.yul\":2985:3000   */\n      revert\n        /* \"#utility.yul\":3011:3286   */\n    tag_400:\n        /* \"#utility.yul\":3082:3084   */\n      0x40\n        /* \"#utility.yul\":3076:3085   */\n      mload\n        /* \"#utility.yul\":3147:3149   */\n      0x1f\n        /* \"#utility.yul\":3128:3141   */\n      dup3\n      add\n      not(0x1f)\n        /* \"#utility.yul\":3124:3151   */\n      and\n        /* \"#utility.yul\":3112:3152   */\n      dup2\n      add\n      sub(shl(0x40, 0x01), 0x01)\n        /* \"#utility.yul\":3167:3201   */\n      dup2\n      gt\n        /* \"#utility.yul\":3203:3225   */\n      dup3\n      dup3\n      lt\n        /* \"#utility.yul\":3164:3226   */\n      or\n        /* \"#utility.yul\":3161:3249   */\n      iszero\n      tag_445\n      jumpi\n        /* \"#utility.yul\":3229:3247   */\n      tag_445\n      tag_384\n      jump\t// in\n    tag_445:\n        /* \"#utility.yul\":3265:3267   */\n      0x40\n        /* \"#utility.yul\":3258:3280   */\n      mstore\n        /* \"#utility.yul\":3011:3286   */\n      swap2\n      swap1\n      pop\n      jump\t// out\n        /* \"#utility.yul\":3291:3477   */\n    tag_401:\n        /* \"#utility.yul\":3339:3343   */\n      0x00\n      sub(shl(0x40, 0x01), 0x01)\n        /* \"#utility.yul\":3364:3370   */\n      dup3\n        /* \"#utility.yul\":3361:3391   */\n      gt\n        /* \"#utility.yul\":3358:3414   */\n      iszero\n      tag_448\n      jumpi\n        /* \"#utility.yul\":3394:3412   */\n      tag_448\n      tag_384\n      jump\t// in\n    tag_448:\n      pop\n        /* \"#utility.yul\":3460:3462   */\n      0x1f\n        /* \"#utility.yul\":3439:3454   */\n      add\n      not(0x1f)\n        /* \"#utility.yul\":3435:3464   */\n      and\n        /* \"#utility.yul\":3466:3470   */\n      0x20\n        /* \"#utility.yul\":3431:3471   */\n      add\n      swap1\n        /* \"#utility.yul\":3291:3477   */\n      jump\t// out\n        /* \"#utility.yul\":3482:3818   */\n    tag_402:\n        /* \"#utility.yul\":3546:3551   */\n      0x00\n        /* \"#utility.yul\":3575:3627   */\n      tag_450\n        /* \"#utility.yul\":3591:3626   */\n      tag_451\n        /* \"#utility.yul\":3619:3625   */\n      dup5\n        /* \"#utility.yul\":3591:3626   */\n      tag_401\n      jump\t// in\n    tag_451:\n        /* \"#utility.yul\":3575:3627   */\n      tag_400\n      jump\t// in\n    tag_450:\n        /* \"#utility.yul\":3566:3627   */\n      swap1\n      pop\n        /* \"#utility.yul\":3650:3656   */\n      dup3\n        /* \"#utility.yul\":3643:3648   */\n      dup2\n        /* \"#utility.yul\":3636:3657   */\n      mstore\n        /* \"#utility.yul\":3690:3693   */\n      dup4\n        /* \"#utility.yul\":3681:3687   */\n      dup4\n        /* \"#utility.yul\":3676:3679   */\n      dup4\n        /* \"#utility.yul\":3672:3688   */\n      add\n        /* \"#utility.yul\":3669:3694   */\n      gt\n        /* \"#utility.yul\":3666:3711   */\n      iszero\n      tag_452\n      jumpi\n        /* \"#utility.yul\":3707:3708   */\n      0x00\n        /* \"#utility.yul\":3704:3705   */\n      dup1\n        /* \"#utility.yul\":3697:3709   */\n      revert\n        /* \"#utility.yul\":3666:3711   */\n    tag_452:\n        /* \"#utility.yul\":3756:3762   */\n      dup3\n        /* \"#utility.yul\":3751:3754   */\n      dup3\n        /* \"#utility.yul\":3744:3748   */\n      0x20\n        /* \"#utility.yul\":3737:3742   */\n      dup4\n        /* \"#utility.yul\":3733:3749   */\n      add\n        /* \"#utility.yul\":3720:3763   */\n      calldatacopy\n        /* \"#utility.yul\":3810:3811   */\n      0x00\n        /* \"#utility.yul\":3803:3807   */\n      0x20\n        /* \"#utility.yul\":3794:3800   */\n      dup5\n        /* \"#utility.yul\":3787:3792   */\n      dup4\n        /* \"#utility.yul\":3783:3801   */\n      add\n        /* \"#utility.yul\":3779:3808   */\n      add\n        /* \"#utility.yul\":3772:3812   */\n      mstore\n        /* \"#utility.yul\":3482:3818   */\n      swap4\n      swap3\n      pop\n      pop\n      pop\n      jump\t// out\n        /* \"#utility.yul\":3823:4416   */\n    tag_76:\n        /* \"#utility.yul\":3907:3913   */\n      0x00\n        /* \"#utility.yul\":3915:3921   */\n      dup1\n        /* \"#utility.yul\":3923:3929   */\n      0x00\n        /* \"#utility.yul\":3976:3978   */\n      0x60\n        /* \"#utility.yul\":3964:3973   */\n      dup5\n        /* \"#utility.yul\":3955:3962   */\n      dup7\n        /* \"#utility.yul\":3951:3974   */\n      sub\n        /* \"#utility.yul\":3947:3979   */\n      slt\n        /* \"#utility.yul\":3944:3996   */\n      iszero\n      tag_454\n      jumpi\n        /* \"#utility.yul\":3992:3993   */\n      0x00\n        /* \"#utility.yul\":3989:3990   */\n      dup1\n        /* \"#utility.yul\":3982:3994   */\n      revert\n        /* \"#utility.yul\":3944:3996   */\n    tag_454:\n        /* \"#utility.yul\":4015:4043   */\n      tag_455\n        /* \"#utility.yul\":4033:4042   */\n      dup5\n        /* \"#utility.yul\":4015:4043   */\n      tag_397\n      jump\t// in\n    tag_455:\n        /* \"#utility.yul\":4005:4043   */\n      swap3\n      pop\n        /* \"#utility.yul\":4094:4096   */\n      0x20\n        /* \"#utility.yul\":4083:4092   */\n      dup5\n        /* \"#utility.yul\":4079:4097   */\n      add\n        /* \"#utility.yul\":4066:4098   */\n      calldataload\n      sub(shl(0x40, 0x01), 0x01)\n        /* \"#utility.yul\":4113:4119   */\n      dup2\n        /* \"#utility.yul\":4110:4140   */\n      gt\n        /* \"#utility.yul\":4107:4157   */\n      iszero\n      tag_456\n      jumpi\n        /* \"#utility.yul\":4153:4154   */\n      0x00\n        /* \"#utility.yul\":4150:4151   */\n      dup1\n        /* \"#utility.yul\":4143:4155   */\n      revert\n        /* \"#utility.yul\":4107:4157   */\n    tag_456:\n        /* \"#utility.yul\":4176:4198   */\n      dup5\n      add\n        /* \"#utility.yul\":4229:4233   */\n      0x1f\n        /* \"#utility.yul\":4221:4234   */\n      dup2\n      add\n        /* \"#utility.yul\":4217:4244   */\n      dup7\n      sgt\n        /* \"#utility.yul\":4207:4262   */\n      tag_457\n      jumpi\n        /* \"#utility.yul\":4258:4259   */\n      0x00\n        /* \"#utility.yul\":4255:4256   */\n      dup1\n        /* \"#utility.yul\":4248:4260   */\n      revert\n        /* \"#utility.yul\":4207:4262   */\n    tag_457:\n        /* \"#utility.yul\":4281:4354   */\n      tag_458\n        /* \"#utility.yul\":4346:4353   */\n      dup7\n        /* \"#utility.yul\":4341:4343   */\n      dup3\n        /* \"#utility.yul\":4328:4344   */\n      calldataload\n        /* \"#utility.yul\":4323:4325   */\n      0x20\n        /* \"#utility.yul\":4319:4321   */\n      dup5\n        /* \"#utility.yul\":4315:4326   */\n      add\n        /* \"#utility.yul\":4281:4354   */\n      tag_402\n      jump\t// in\n    tag_458:\n        /* \"#utility.yul\":4271:4354   */\n      swap3\n      pop\n      pop\n        /* \"#utility.yul\":4373:4410   */\n      tag_459\n        /* \"#utility.yul\":4406:4408   */\n      0x40\n        /* \"#utility.yul\":4395:4404   */\n      dup6\n        /* \"#utility.yul\":4391:4409   */\n      add\n        /* \"#utility.yul\":4373:4410   */\n      tag_399\n      jump\t// in\n    tag_459:\n        /* \"#utility.yul\":4363:4410   */\n      swap1\n      pop\n        /* \"#utility.yul\":3823:4416   */\n      swap3\n      pop\n      swap3\n      pop\n      swap3\n      jump\t// out\n        /* \"#utility.yul\":4603:4776   */\n    tag_403:\n        /* \"#utility.yul\":4671:4691   */\n      dup1\n      calldataload\n      sub(shl(0xa0, 0x01), 0x01)\n        /* \"#utility.yul\":4720:4751   */\n      dup2\n      and\n        /* \"#utility.yul\":4710:4752   */\n      dup2\n      eq\n        /* \"#utility.yul\":4700:4770   */\n      tag_414\n      jumpi\n        /* \"#utility.yul\":4766:4767   */\n      0x00\n        /* \"#utility.yul\":4763:4764   */\n      dup1\n        /* \"#utility.yul\":4756:4768   */\n      revert\n        /* \"#utility.yul\":4781:4967   */\n    tag_83:\n        /* \"#utility.yul\":4840:4846   */\n      0x00\n        /* \"#utility.yul\":4893:4895   */\n      0x20\n        /* \"#utility.yul\":4881:4890   */\n      dup3\n        /* \"#utility.yul\":4872:4879   */\n      dup5\n        /* \"#utility.yul\":4868:4891   */\n      sub\n        /* \"#utility.yul\":4864:4896   */\n      slt\n        /* \"#utility.yul\":4861:4913   */\n      iszero\n      tag_464\n      jumpi\n        /* \"#utility.yul\":4909:4910   */\n      0x00\n        /* \"#utility.yul\":4906:4907   */\n      dup1\n        /* \"#utility.yul\":4899:4911   */\n      revert\n        /* \"#utility.yul\":4861:4913   */\n    tag_464:\n        /* \"#utility.yul\":4932:4961   */\n      tag_211\n        /* \"#utility.yul\":4951:4960   */\n      dup3\n        /* \"#utility.yul\":4932:4961   */\n      tag_403\n      jump\t// in\n        /* \"#utility.yul\":4972:5422   */\n    tag_87:\n        /* \"#utility.yul\":5041:5047   */\n      0x00\n        /* \"#utility.yul\":5094:5096   */\n      0x20\n        /* \"#utility.yul\":5082:5091   */\n      dup3\n        /* \"#utility.yul\":5073:5080   */\n      dup5\n        /* \"#utility.yul\":5069:5092   */\n      sub\n        /* \"#utility.yul\":5065:5097   */\n      slt\n        /* \"#utility.yul\":5062:5114   */\n      iszero\n      tag_467\n      jumpi\n        /* \"#utility.yul\":5110:5111   */\n      0x00\n        /* \"#utility.yul\":5107:5108   */\n      dup1\n        /* \"#utility.yul\":5100:5112   */\n      revert\n        /* \"#utility.yul\":5062:5114   */\n    tag_467:\n        /* \"#utility.yul\":5150:5159   */\n      dup2\n        /* \"#utility.yul\":5137:5160   */\n      calldataload\n      sub(shl(0x40, 0x01), 0x01)\n        /* \"#utility.yul\":5175:5181   */\n      dup2\n        /* \"#utility.yul\":5172:5202   */\n      gt\n        /* \"#utility.yul\":5169:5219   */\n      iszero\n      tag_468\n      jumpi\n        /* \"#utility.yul\":5215:5216   */\n      0x00\n        /* \"#utility.yul\":5212:5213   */\n      dup1\n        /* \"#utility.yul\":5205:5217   */\n      revert\n        /* \"#utility.yul\":5169:5219   */\n    tag_468:\n        /* \"#utility.yul\":5238:5260   */\n      dup3\n      add\n        /* \"#utility.yul\":5291:5295   */\n      0x1f\n        /* \"#utility.yul\":5283:5296   */\n      dup2\n      add\n        /* \"#utility.yul\":5279:5306   */\n      dup5\n      sgt\n        /* \"#utility.yul\":5269:5324   */\n      tag_469\n      jumpi\n        /* \"#utility.yul\":5320:5321   */\n      0x00\n        /* \"#utility.yul\":5317:5318   */\n      dup1\n        /* \"#utility.yul\":5310:5322   */\n      revert\n        /* \"#utility.yul\":5269:5324   */\n    tag_469:\n        /* \"#utility.yul\":5343:5416   */\n      tag_470\n        /* \"#utility.yul\":5408:5415   */\n      dup5\n        /* \"#utility.yul\":5403:5405   */\n      dup3\n        /* \"#utility.yul\":5390:5406   */\n      calldataload\n        /* \"#utility.yul\":5385:5387   */\n      0x20\n        /* \"#utility.yul\":5381:5383   */\n      dup5\n        /* \"#utility.yul\":5377:5388   */\n      add\n        /* \"#utility.yul\":5343:5416   */\n      tag_402\n      jump\t// in\n    tag_470:\n        /* \"#utility.yul\":5333:5416   */\n      swap5\n        /* \"#utility.yul\":4972:5422   */\n      swap4\n      pop\n      pop\n      pop\n      pop\n      jump\t// out\n        /* \"#utility.yul\":5427:5677   */\n    tag_404:\n        /* \"#utility.yul\":5512:5513   */\n      0x00\n        /* \"#utility.yul\":5522:5635   */\n    tag_472:\n        /* \"#utility.yul\":5536:5542   */\n      dup4\n        /* \"#utility.yul\":5533:5534   */\n      dup2\n        /* \"#utility.yul\":5530:5543   */\n      lt\n        /* \"#utility.yul\":5522:5635   */\n      iszero\n      tag_474\n      jumpi\n        /* \"#utility.yul\":5612:5623   */\n      dup2\n      dup2\n      add\n        /* \"#utility.yul\":5606:5624   */\n      mload\n        /* \"#utility.yul\":5593:5604   */\n      dup4\n      dup3\n      add\n        /* \"#utility.yul\":5586:5625   */\n      mstore\n        /* \"#utility.yul\":5558:5560   */\n      0x20\n        /* \"#utility.yul\":5551:5561   */\n      add\n        /* \"#utility.yul\":5522:5635   */\n      jump(tag_472)\n    tag_474:\n      pop\n      pop\n        /* \"#utility.yul\":5669:5670   */\n      0x00\n        /* \"#utility.yul\":5651:5667   */\n      swap2\n      add\n        /* \"#utility.yul\":5644:5671   */\n      mstore\n        /* \"#utility.yul\":5427:5677   */\n      jump\t// out\n        /* \"#utility.yul\":5682:5953   */\n    tag_405:\n        /* \"#utility.yul\":5724:5727   */\n      0x00\n        /* \"#utility.yul\":5762:5767   */\n      dup2\n        /* \"#utility.yul\":5756:5768   */\n      mload\n        /* \"#utility.yul\":5789:5795   */\n      dup1\n        /* \"#utility.yul\":5784:5787   */\n      dup5\n        /* \"#utility.yul\":5777:5796   */\n      mstore\n        /* \"#utility.yul\":5805:5881   */\n      tag_476\n        /* \"#utility.yul\":5874:5880   */\n      dup2\n        /* \"#utility.yul\":5867:5871   */\n      0x20\n        /* \"#utility.yul\":5862:5865   */\n      dup7\n        /* \"#utility.yul\":5858:5872   */\n      add\n        /* \"#utility.yul\":5851:5855   */\n      0x20\n        /* \"#utility.yul\":5844:5849   */\n      dup7\n        /* \"#utility.yul\":5840:5856   */\n      add\n        /* \"#utility.yul\":5805:5881   */\n      tag_404\n      jump\t// in\n    tag_476:\n        /* \"#utility.yul\":5935:5937   */\n      0x1f\n        /* \"#utility.yul\":5914:5929   */\n      add\n      not(0x1f)\n        /* \"#utility.yul\":5910:5939   */\n      and\n        /* \"#utility.yul\":5901:5940   */\n      swap3\n      swap1\n      swap3\n      add\n        /* \"#utility.yul\":5942:5946   */\n      0x20\n        /* \"#utility.yul\":5897:5947   */\n      add\n      swap3\n        /* \"#utility.yul\":5682:5953   */\n      swap2\n      pop\n      pop\n      jump\t// out\n        /* \"#utility.yul\":5958:6178   */\n    tag_100:\n        /* \"#utility.yul\":6107:6109   */\n      0x20\n        /* \"#utility.yul\":6096:6105   */\n      dup2\n        /* \"#utility.yul\":6089:6110   */\n      mstore\n        /* \"#utility.yul\":6070:6074   */\n      0x00\n        /* \"#utility.yul\":6127:6172   */\n      tag_211\n        /* \"#utility.yul\":6168:6170   */\n      0x20\n        /* \"#utility.yul\":6157:6166   */\n      dup4\n        /* \"#utility.yul\":6153:6171   */\n      add\n        /* \"#utility.yul\":6145:6151   */\n      dup5\n        /* \"#utility.yul\":6127:6172   */\n      tag_405\n      jump\t// in\n        /* \"#utility.yul\":6406:6662   */\n    tag_110:\n        /* \"#utility.yul\":6472:6478   */\n      0x00\n        /* \"#utility.yul\":6480:6486   */\n      dup1\n        /* \"#utility.yul\":6533:6535   */\n      0x40\n        /* \"#utility.yul\":6521:6530   */\n      dup4\n        /* \"#utility.yul\":6512:6519   */\n      dup6\n        /* \"#utility.yul\":6508:6531   */\n      sub\n        /* \"#utility.yul\":6504:6536   */\n      slt\n        /* \"#utility.yul\":6501:6553   */\n      iszero\n      tag_482\n      jumpi\n        /* \"#utility.yul\":6549:6550   */\n      0x00\n        /* \"#utility.yul\":6546:6547   */\n      dup1\n        /* \"#utility.yul\":6539:6551   */\n      revert\n        /* \"#utility.yul\":6501:6553   */\n    tag_482:\n        /* \"#utility.yul\":6572:6600   */\n      tag_483\n        /* \"#utility.yul\":6590:6599   */\n      dup4\n        /* \"#utility.yul\":6572:6600   */\n      tag_397\n      jump\t// in\n    tag_483:\n        /* \"#utility.yul\":6562:6600   */\n      swap2\n      pop\n        /* \"#utility.yul\":6619:6656   */\n      tag_484\n        /* \"#utility.yul\":6652:6654   */\n      0x20\n        /* \"#utility.yul\":6641:6650   */\n      dup5\n        /* \"#utility.yul\":6637:6655   */\n      add\n        /* \"#utility.yul\":6619:6656   */\n      tag_397\n      jump\t// in\n    tag_484:\n        /* \"#utility.yul\":6609:6656   */\n      swap1\n      pop\n        /* \"#utility.yul\":6406:6662   */\n      swap3\n      pop\n      swap3\n      swap1\n      pop\n      jump\t// out\n        /* \"#utility.yul\":7110:7732   */\n    tag_147:\n        /* \"#utility.yul\":7205:7211   */\n      0x00\n        /* \"#utility.yul\":7213:7219   */\n      dup1\n        /* \"#utility.yul\":7221:7227   */\n      0x00\n        /* \"#utility.yul\":7229:7235   */\n      dup1\n        /* \"#utility.yul\":7237:7243   */\n      0x00\n        /* \"#utility.yul\":7290:7293   */\n      0x80\n        /* \"#utility.yul\":7278:7287   */\n      dup7\n        /* \"#utility.yul\":7269:7276   */\n      dup9\n        /* \"#utility.yul\":7265:7288   */\n      sub\n        /* \"#utility.yul\":7261:7294   */\n      slt\n        /* \"#utility.yul\":7258:7311   */\n      iszero\n      tag_488\n      jumpi\n        /* \"#utility.yul\":7307:7308   */\n      0x00\n        /* \"#utility.yul\":7304:7305   */\n      dup1\n        /* \"#utility.yul\":7297:7309   */\n      revert\n        /* \"#utility.yul\":7258:7311   */\n    tag_488:\n        /* \"#utility.yul\":7330:7358   */\n      tag_489\n        /* \"#utility.yul\":7348:7357   */\n      dup7\n        /* \"#utility.yul\":7330:7358   */\n      tag_397\n      jump\t// in\n    tag_489:\n        /* \"#utility.yul\":7320:7358   */\n      swap5\n      pop\n        /* \"#utility.yul\":7377:7414   */\n      tag_490\n        /* \"#utility.yul\":7410:7412   */\n      0x20\n        /* \"#utility.yul\":7399:7408   */\n      dup8\n        /* \"#utility.yul\":7395:7413   */\n      add\n        /* \"#utility.yul\":7377:7414   */\n      tag_397\n      jump\t// in\n    tag_490:\n        /* \"#utility.yul\":7367:7414   */\n      swap4\n      pop\n        /* \"#utility.yul\":7461:7463   */\n      0x40\n        /* \"#utility.yul\":7450:7459   */\n      dup7\n        /* \"#utility.yul\":7446:7464   */\n      add\n        /* \"#utility.yul\":7433:7465   */\n      calldataload\n        /* \"#utility.yul\":7423:7465   */\n      swap3\n      pop\n        /* \"#utility.yul\":7516:7518   */\n      0x60\n        /* \"#utility.yul\":7505:7514   */\n      dup7\n        /* \"#utility.yul\":7501:7519   */\n      add\n        /* \"#utility.yul\":7488:7520   */\n      calldataload\n      sub(shl(0x40, 0x01), 0x01)\n        /* \"#utility.yul\":7535:7541   */\n      dup2\n        /* \"#utility.yul\":7532:7562   */\n      gt\n        /* \"#utility.yul\":7529:7579   */\n      iszero\n      tag_491\n      jumpi\n        /* \"#utility.yul\":7575:7576   */\n      0x00\n        /* \"#utility.yul\":7572:7573   */\n      dup1\n        /* \"#utility.yul\":7565:7577   */\n      revert\n        /* \"#utility.yul\":7529:7579   */\n    tag_491:\n        /* \"#utility.yul\":7614:7672   */\n      tag_492\n        /* \"#utility.yul\":7664:7671   */\n      dup9\n        /* \"#utility.yul\":7655:7661   */\n      dup3\n        /* \"#utility.yul\":7644:7653   */\n      dup10\n        /* \"#utility.yul\":7640:7662   */\n      add\n        /* \"#utility.yul\":7614:7672   */\n      tag_398\n      jump\t// in\n    tag_492:\n        /* \"#utility.yul\":7110:7732   */\n      swap7\n      swap10\n      swap6\n      swap9\n      pop\n      swap4\n      swap7\n      pop\n        /* \"#utility.yul\":7691:7699   */\n      swap3\n      swap5\n        /* \"#utility.yul\":7588:7672   */\n      swap4\n        /* \"#utility.yul\":7110:7732   */\n      swap3\n      pop\n      pop\n      pop\n      jump\t// out\n        /* \"#utility.yul\":7737:8061   */\n    tag_155:\n        /* \"#utility.yul\":7812:7818   */\n      0x00\n        /* \"#utility.yul\":7820:7826   */\n      dup1\n        /* \"#utility.yul\":7828:7834   */\n      0x00\n        /* \"#utility.yul\":7881:7883   */\n      0x60\n        /* \"#utility.yul\":7869:7878   */\n      dup5\n        /* \"#utility.yul\":7860:7867   */\n      dup7\n        /* \"#utility.yul\":7856:7879   */\n      sub\n        /* \"#utility.yul\":7852:7884   */\n      slt\n        /* \"#utility.yul\":7849:7901   */\n      iszero\n      tag_494\n      jumpi\n        /* \"#utility.yul\":7897:7898   */\n      0x00\n        /* \"#utility.yul\":7894:7895   */\n      dup1\n        /* \"#utility.yul\":7887:7899   */\n      revert\n        /* \"#utility.yul\":7849:7901   */\n    tag_494:\n        /* \"#utility.yul\":7920:7948   */\n      tag_495\n        /* \"#utility.yul\":7938:7947   */\n      dup5\n        /* \"#utility.yul\":7920:7948   */\n      tag_397\n      jump\t// in\n    tag_495:\n        /* \"#utility.yul\":7910:7948   */\n      swap3\n      pop\n        /* \"#utility.yul\":7967:8004   */\n      tag_496\n        /* \"#utility.yul\":8000:8002   */\n      0x20\n        /* \"#utility.yul\":7989:7998   */\n      dup6\n        /* \"#utility.yul\":7985:8003   */\n      add\n        /* \"#utility.yul\":7967:8004   */\n      tag_397\n      jump\t// in\n    tag_496:\n        /* \"#utility.yul\":7957:8004   */\n      swap2\n      pop\n        /* \"#utility.yul\":8051:8053   */\n      0x40\n        /* \"#utility.yul\":8040:8049   */\n      dup5\n        /* \"#utility.yul\":8036:8054   */\n      add\n        /* \"#utility.yul\":8023:8055   */\n      calldataload\n        /* \"#utility.yul\":8013:8055   */\n      swap1\n      pop\n        /* \"#utility.yul\":7737:8061   */\n      swap3\n      pop\n      swap3\n      pop\n      swap3\n      jump\t// out\n        /* \"#utility.yul\":8066:8465   */\n    tag_168:\n        /* \"#utility.yul\":8150:8156   */\n      0x00\n        /* \"#utility.yul\":8158:8164   */\n      dup1\n        /* \"#utility.yul\":8166:8172   */\n      0x00\n        /* \"#utility.yul\":8174:8180   */\n      dup1\n        /* \"#utility.yul\":8227:8230   */\n      0x80\n        /* \"#utility.yul\":8215:8224   */\n      dup6\n        /* \"#utility.yul\":8206:8213   */\n      dup8\n        /* \"#utility.yul\":8202:8225   */\n      sub\n        /* \"#utility.yul\":8198:8231   */\n      slt\n        /* \"#utility.yul\":8195:8248   */\n      iszero\n      tag_498\n      jumpi\n        /* \"#utility.yul\":8244:8245   */\n      0x00\n        /* \"#utility.yul\":8241:8242   */\n      dup1\n        /* \"#utility.yul\":8234:8246   */\n      revert\n        /* \"#utility.yul\":8195:8248   */\n    tag_498:\n        /* \"#utility.yul\":8267:8295   */\n      tag_499\n        /* \"#utility.yul\":8285:8294   */\n      dup6\n        /* \"#utility.yul\":8267:8295   */\n      tag_397\n      jump\t// in\n    tag_499:\n        /* \"#utility.yul\":8257:8295   */\n      swap4\n      pop\n        /* \"#utility.yul\":8314:8351   */\n      tag_500\n        /* \"#utility.yul\":8347:8349   */\n      0x20\n        /* \"#utility.yul\":8336:8345   */\n      dup7\n        /* \"#utility.yul\":8332:8350   */\n      add\n        /* \"#utility.yul\":8314:8351   */\n      tag_397\n      jump\t// in\n    tag_500:\n        /* \"#utility.yul\":8304:8351   */\n      swap3\n      pop\n        /* \"#utility.yul\":8370:8408   */\n      tag_501\n        /* \"#utility.yul\":8404:8406   */\n      0x40\n        /* \"#utility.yul\":8393:8402   */\n      dup7\n        /* \"#utility.yul\":8389:8407   */\n      add\n        /* \"#utility.yul\":8370:8408   */\n      tag_403\n      jump\t// in\n    tag_501:\n        /* \"#utility.yul\":8066:8465   */\n      swap4\n      swap7\n      swap3\n      swap6\n      pop\n        /* \"#utility.yul\":8360:8408   */\n      swap3\n      swap4\n        /* \"#utility.yul\":8455:8457   */\n      0x60\n        /* \"#utility.yul\":8440:8458   */\n      add\n        /* \"#utility.yul\":8427:8459   */\n      calldataload\n      swap3\n      pop\n      pop\n        /* \"#utility.yul\":8066:8465   */\n      jump\t// out\n        /* \"#utility.yul\":8829:9209   */\n    tag_178:\n        /* \"#utility.yul\":8908:8909   */\n      0x01\n        /* \"#utility.yul\":8904:8916   */\n      dup2\n      dup2\n      shr\n      swap1\n        /* \"#utility.yul\":8951:8963   */\n      dup3\n      and\n      dup1\n        /* \"#utility.yul\":8972:9033   */\n      tag_504\n      jumpi\n        /* \"#utility.yul\":9026:9030   */\n      0x7f\n        /* \"#utility.yul\":9018:9024   */\n      dup3\n        /* \"#utility.yul\":9014:9031   */\n      and\n        /* \"#utility.yul\":9004:9031   */\n      swap2\n      pop\n        /* \"#utility.yul\":8972:9033   */\n    tag_504:\n        /* \"#utility.yul\":9079:9081   */\n      0x20\n        /* \"#utility.yul\":9071:9077   */\n      dup3\n        /* \"#utility.yul\":9068:9082   */\n      lt\n        /* \"#utility.yul\":9048:9066   */\n      dup2\n        /* \"#utility.yul\":9045:9083   */\n      sub\n        /* \"#utility.yul\":9042:9203   */\n      tag_505\n      jumpi\n        /* \"#utility.yul\":9125:9135   */\n      0x4e487b71\n        /* \"#utility.yul\":9120:9123   */\n      0xe0\n        /* \"#utility.yul\":9116:9136   */\n      shl\n        /* \"#utility.yul\":9113:9114   */\n      0x00\n        /* \"#utility.yul\":9106:9137   */\n      mstore\n        /* \"#utility.yul\":9160:9164   */\n      0x22\n        /* \"#utility.yul\":9157:9158   */\n      0x04\n        /* \"#utility.yul\":9150:9165   */\n      mstore\n        /* \"#utility.yul\":9188:9192   */\n      0x24\n        /* \"#utility.yul\":9185:9186   */\n      0x00\n        /* \"#utility.yul\":9178:9193   */\n      revert\n        /* \"#utility.yul\":9042:9203   */\n    tag_505:\n      pop\n        /* \"#utility.yul\":8829:9209   */\n      swap2\n      swap1\n      pop\n      jump\t// out\n        /* \"#utility.yul\":9214:9485   */\n    tag_186:\n        /* \"#utility.yul\":9397:9403   */\n      dup2\n        /* \"#utility.yul\":9389:9395   */\n      dup4\n        /* \"#utility.yul\":9384:9387   */\n      dup3\n        /* \"#utility.yul\":9371:9404   */\n      calldatacopy\n        /* \"#utility.yul\":9353:9356   */\n      0x00\n        /* \"#utility.yul\":9423:9439   */\n      swap2\n      add\n        /* \"#utility.yul\":9448:9461   */\n      swap1\n      dup2\n      mstore\n        /* \"#utility.yul\":9423:9439   */\n      swap2\n        /* \"#utility.yul\":9214:9485   */\n      swap1\n      pop\n      jump\t// out\n        /* \"#utility.yul\":10090:10356   */\n    tag_406:\n        /* \"#utility.yul\":10178:10184   */\n      dup2\n        /* \"#utility.yul\":10173:10176   */\n      dup4\n        /* \"#utility.yul\":10166:10185   */\n      mstore\n        /* \"#utility.yul\":10230:10236   */\n      dup2\n        /* \"#utility.yul\":10223:10228   */\n      dup2\n        /* \"#utility.yul\":10216:10220   */\n      0x20\n        /* \"#utility.yul\":10211:10214   */\n      dup6\n        /* \"#utility.yul\":10207:10221   */\n      add\n        /* \"#utility.yul\":10194:10237   */\n      calldatacopy\n      pop\n        /* \"#utility.yul\":10282:10283   */\n      0x00\n        /* \"#utility.yul\":10257:10273   */\n      dup3\n      dup3\n      add\n        /* \"#utility.yul\":10275:10279   */\n      0x20\n        /* \"#utility.yul\":10253:10280   */\n      swap1\n      dup2\n      add\n        /* \"#utility.yul\":10246:10284   */\n      swap2\n      swap1\n      swap2\n      mstore\n        /* \"#utility.yul\":10338:10340   */\n      0x1f\n        /* \"#utility.yul\":10317:10332   */\n      swap1\n      swap2\n      add\n      not(0x1f)\n        /* \"#utility.yul\":10313:10342   */\n      and\n        /* \"#utility.yul\":10304:10343   */\n      swap1\n      swap2\n      add\n        /* \"#utility.yul\":10300:10350   */\n      add\n      swap1\n        /* \"#utility.yul\":10090:10356   */\n      jump\t// out\n        /* \"#utility.yul\":10361:10687   */\n    tag_222:\n        /* \"#utility.yul\":10556:10562   */\n      0xffff\n        /* \"#utility.yul\":10548:10554   */\n      dup5\n        /* \"#utility.yul\":10544:10563   */\n      and\n        /* \"#utility.yul\":10533:10542   */\n      dup2\n        /* \"#utility.yul\":10526:10564   */\n      mstore\n        /* \"#utility.yul\":10600:10602   */\n      0x40\n        /* \"#utility.yul\":10595:10597   */\n      0x20\n        /* \"#utility.yul\":10584:10593   */\n      dup3\n        /* \"#utility.yul\":10580:10598   */\n      add\n        /* \"#utility.yul\":10573:10603   */\n      mstore\n        /* \"#utility.yul\":10507:10511   */\n      0x00\n        /* \"#utility.yul\":10620:10681   */\n      tag_327\n        /* \"#utility.yul\":10677:10679   */\n      0x40\n        /* \"#utility.yul\":10666:10675   */\n      dup4\n        /* \"#utility.yul\":10662:10680   */\n      add\n        /* \"#utility.yul\":10654:10660   */\n      dup5\n        /* \"#utility.yul\":10646:10652   */\n      dup7\n        /* \"#utility.yul\":10620:10681   */\n      tag_406\n      jump\t// in\n        /* \"#utility.yul\":11155:11697   */\n    tag_408:\n        /* \"#utility.yul\":11256:11258   */\n      0x1f\n        /* \"#utility.yul\":11251:11254   */\n      dup3\n        /* \"#utility.yul\":11248:11259   */\n      gt\n        /* \"#utility.yul\":11245:11691   */\n      iszero\n      tag_394\n      jumpi\n        /* \"#utility.yul\":11292:11293   */\n      0x00\n        /* \"#utility.yul\":11316:11321   */\n      dup2\n        /* \"#utility.yul\":11313:11314   */\n      0x00\n        /* \"#utility.yul\":11306:11322   */\n      mstore\n        /* \"#utility.yul\":11360:11364   */\n      0x20\n        /* \"#utility.yul\":11357:11358   */\n      0x00\n        /* \"#utility.yul\":11347:11365   */\n      keccak256\n        /* \"#utility.yul\":11430:11432   */\n      0x1f\n        /* \"#utility.yul\":11418:11428   */\n      dup6\n        /* \"#utility.yul\":11414:11433   */\n      add\n        /* \"#utility.yul\":11411:11412   */\n      0x05\n        /* \"#utility.yul\":11407:11434   */\n      shr\n        /* \"#utility.yul\":11401:11405   */\n      dup2\n        /* \"#utility.yul\":11397:11435   */\n      add\n        /* \"#utility.yul\":11466:11470   */\n      0x20\n        /* \"#utility.yul\":11454:11464   */\n      dup7\n        /* \"#utility.yul\":11451:11471   */\n      lt\n        /* \"#utility.yul\":11448:11495   */\n      iszero\n      tag_516\n      jumpi\n      pop\n        /* \"#utility.yul\":11489:11493   */\n      dup1\n        /* \"#utility.yul\":11448:11495   */\n    tag_516:\n        /* \"#utility.yul\":11544:11546   */\n      0x1f\n        /* \"#utility.yul\":11539:11542   */\n      dup6\n        /* \"#utility.yul\":11535:11547   */\n      add\n        /* \"#utility.yul\":11532:11533   */\n      0x05\n        /* \"#utility.yul\":11528:11548   */\n      shr\n        /* \"#utility.yul\":11522:11526   */\n      dup3\n        /* \"#utility.yul\":11518:11549   */\n      add\n        /* \"#utility.yul\":11508:11549   */\n      swap2\n      pop\n        /* \"#utility.yul\":11599:11681   */\n    tag_517:\n        /* \"#utility.yul\":11617:11619   */\n      dup2\n        /* \"#utility.yul\":11610:11615   */\n      dup2\n        /* \"#utility.yul\":11607:11620   */\n      lt\n        /* \"#utility.yul\":11599:11681   */\n      iszero\n      tag_242\n      jumpi\n        /* \"#utility.yul\":11662:11679   */\n      dup3\n      dup2\n      sstore\n        /* \"#utility.yul\":11643:11644   */\n      0x01\n        /* \"#utility.yul\":11632:11645   */\n      add\n        /* \"#utility.yul\":11599:11681   */\n      jump(tag_517)\n        /* \"#utility.yul\":11873:13214   */\n    tag_232:\n        /* \"#utility.yul\":11997:12000   */\n      dup2\n        /* \"#utility.yul\":11991:12001   */\n      mload\n      sub(shl(0x40, 0x01), 0x01)\n        /* \"#utility.yul\":12016:12022   */\n      dup2\n        /* \"#utility.yul\":12013:12043   */\n      gt\n        /* \"#utility.yul\":12010:12066   */\n      iszero\n      tag_523\n      jumpi\n        /* \"#utility.yul\":12046:12064   */\n      tag_523\n      tag_384\n      jump\t// in\n    tag_523:\n        /* \"#utility.yul\":12075:12171   */\n      tag_524\n        /* \"#utility.yul\":12164:12170   */\n      dup2\n        /* \"#utility.yul\":12124:12162   */\n      tag_525\n        /* \"#utility.yul\":12156:12160   */\n      dup5\n        /* \"#utility.yul\":12150:12161   */\n      sload\n        /* \"#utility.yul\":12124:12162   */\n      tag_178\n      jump\t// in\n    tag_525:\n        /* \"#utility.yul\":12118:12122   */\n      dup5\n        /* \"#utility.yul\":12075:12171   */\n      tag_408\n      jump\t// in\n    tag_524:\n        /* \"#utility.yul\":12226:12230   */\n      0x20\n      dup1\n        /* \"#utility.yul\":12283:12285   */\n      0x1f\n        /* \"#utility.yul\":12272:12286   */\n      dup4\n      gt\n        /* \"#utility.yul\":12300:12301   */\n      0x01\n        /* \"#utility.yul\":12295:12957   */\n      dup2\n      eq\n      tag_527\n      jumpi\n        /* \"#utility.yul\":13001:13002   */\n      0x00\n        /* \"#utility.yul\":13018:13024   */\n      dup5\n        /* \"#utility.yul\":13015:13104   */\n      iszero\n      tag_528\n      jumpi\n      pop\n        /* \"#utility.yul\":13070:13089   */\n      dup6\n      dup4\n      add\n        /* \"#utility.yul\":13064:13090   */\n      mload\n        /* \"#utility.yul\":13015:13104   */\n    tag_528:\n      not(0x00)\n        /* \"#utility.yul\":11830:11831   */\n      0x03\n        /* \"#utility.yul\":11826:11837   */\n      dup7\n      swap1\n      shl\n        /* \"#utility.yul\":11822:11846   */\n      shr\n        /* \"#utility.yul\":11818:11847   */\n      not\n        /* \"#utility.yul\":11808:11848   */\n      and\n        /* \"#utility.yul\":11854:11855   */\n      0x01\n        /* \"#utility.yul\":11850:11861   */\n      dup6\n      swap1\n      shl\n        /* \"#utility.yul\":11805:11862   */\n      or\n        /* \"#utility.yul\":13117:13198   */\n      dup6\n      sstore\n        /* \"#utility.yul\":12265:13208   */\n      jump(tag_242)\n        /* \"#utility.yul\":12295:12957   */\n    tag_527:\n        /* \"#utility.yul\":11102:11103   */\n      0x00\n        /* \"#utility.yul\":11095:11109   */\n      dup6\n      dup2\n      mstore\n        /* \"#utility.yul\":11139:11143   */\n      0x20\n        /* \"#utility.yul\":11126:11144   */\n      dup2\n      keccak256\n      not(0x1f)\n        /* \"#utility.yul\":12331:12351   */\n      dup7\n      and\n      swap2\n        /* \"#utility.yul\":12448:12684   */\n    tag_531:\n        /* \"#utility.yul\":12462:12469   */\n      dup3\n        /* \"#utility.yul\":12459:12460   */\n      dup2\n        /* \"#utility.yul\":12456:12470   */\n      lt\n        /* \"#utility.yul\":12448:12684   */\n      iszero\n      tag_533\n      jumpi\n        /* \"#utility.yul\":12551:12570   */\n      dup9\n      dup7\n      add\n        /* \"#utility.yul\":12545:12571   */\n      mload\n        /* \"#utility.yul\":12530:12572   */\n      dup3\n      sstore\n        /* \"#utility.yul\":12643:12670   */\n      swap5\n      dup5\n      add\n      swap5\n        /* \"#utility.yul\":12611:12612   */\n      0x01\n        /* \"#utility.yul\":12599:12613   */\n      swap1\n      swap2\n      add\n      swap1\n        /* \"#utility.yul\":12478:12497   */\n      dup5\n      add\n        /* \"#utility.yul\":12448:12684   */\n      jump(tag_531)\n    tag_533:\n        /* \"#utility.yul\":12452:12455   */\n      pop\n        /* \"#utility.yul\":12712:12718   */\n      dup6\n        /* \"#utility.yul\":12703:12710   */\n      dup3\n        /* \"#utility.yul\":12700:12719   */\n      lt\n        /* \"#utility.yul\":12697:12898   */\n      iszero\n      tag_534\n      jumpi\n        /* \"#utility.yul\":12773:12792   */\n      dup8\n      dup6\n      add\n        /* \"#utility.yul\":12767:12793   */\n      mload\n      not(0x00)\n        /* \"#utility.yul\":12856:12857   */\n      0x03\n        /* \"#utility.yul\":12852:12866   */\n      dup9\n      swap1\n      shl\n        /* \"#utility.yul\":12868:12871   */\n      0xf8\n        /* \"#utility.yul\":12848:12872   */\n      and\n        /* \"#utility.yul\":12844:12881   */\n      shr\n        /* \"#utility.yul\":12840:12882   */\n      not\n        /* \"#utility.yul\":12825:12883   */\n      and\n        /* \"#utility.yul\":12810:12884   */\n      dup2\n      sstore\n        /* \"#utility.yul\":12697:12898   */\n    tag_534:\n      pop\n      pop\n      pop\n      pop\n      pop\n        /* \"#utility.yul\":12944:12945   */\n      0x01\n        /* \"#utility.yul\":12928:12942   */\n      swap1\n      dup2\n      shl\n        /* \"#utility.yul\":12924:12946   */\n      add\n        /* \"#utility.yul\":12911:12947   */\n      swap1\n      sstore\n      pop\n        /* \"#utility.yul\":11873:13214   */\n      jump\t// out\n        /* \"#utility.yul\":13984:14111   */\n    tag_410:\n        /* \"#utility.yul\":14045:14055   */\n      0x4e487b71\n        /* \"#utility.yul\":14040:14043   */\n      0xe0\n        /* \"#utility.yul\":14036:14056   */\n      shl\n        /* \"#utility.yul\":14033:14034   */\n      0x00\n        /* \"#utility.yul\":14026:14057   */\n      mstore\n        /* \"#utility.yul\":14076:14080   */\n      0x11\n        /* \"#utility.yul\":14073:14074   */\n      0x04\n        /* \"#utility.yul\":14066:14081   */\n      mstore\n        /* \"#utility.yul\":14100:14104   */\n      0x24\n        /* \"#utility.yul\":14097:14098   */\n      0x00\n        /* \"#utility.yul\":14090:14105   */\n      revert\n        /* \"#utility.yul\":14116:14244   */\n    tag_271:\n        /* \"#utility.yul\":14183:14192   */\n      dup2\n      dup2\n      sub\n        /* \"#utility.yul\":14204:14215   */\n      dup2\n      dup2\n      gt\n        /* \"#utility.yul\":14201:14238   */\n      iszero\n      tag_540\n      jumpi\n        /* \"#utility.yul\":14218:14236   */\n      tag_540\n      tag_410\n      jump\t// in\n    tag_540:\n        /* \"#utility.yul\":14116:14244   */\n      swap3\n      swap2\n      pop\n      pop\n      jump\t// out\n        /* \"#utility.yul\":14249:14609   */\n    tag_277:\n        /* \"#utility.yul\":14460:14466   */\n      dup3\n        /* \"#utility.yul\":14452:14458   */\n      dup5\n        /* \"#utility.yul\":14447:14450   */\n      dup3\n        /* \"#utility.yul\":14434:14467   */\n      calldatacopy\n        /* \"#utility.yul\":14530:14532   */\n      0x60\n        /* \"#utility.yul\":14526:14541   */\n      swap2\n      swap1\n      swap2\n      shl\n      not(0xffffffffffffffffffffffff)\n        /* \"#utility.yul\":14522:14575   */\n      and\n        /* \"#utility.yul\":14486:14502   */\n      swap2\n      add\n        /* \"#utility.yul\":14511:14576   */\n      swap1\n      dup2\n      mstore\n        /* \"#utility.yul\":14600:14602   */\n      0x14\n        /* \"#utility.yul\":14592:14603   */\n      add\n      swap2\n        /* \"#utility.yul\":14249:14609   */\n      swap1\n      pop\n      jump\t// out\n        /* \"#utility.yul\":14614:15112   */\n    tag_288:\n        /* \"#utility.yul\":14814:14818   */\n      0x00\n        /* \"#utility.yul\":14843:14849   */\n      0xffff\n        /* \"#utility.yul\":14888:14890   */\n      dup1\n        /* \"#utility.yul\":14880:14886   */\n      dup9\n        /* \"#utility.yul\":14876:14891   */\n      and\n        /* \"#utility.yul\":14865:14874   */\n      dup4\n        /* \"#utility.yul\":14858:14892   */\n      mstore\n        /* \"#utility.yul\":14940:14942   */\n      dup1\n        /* \"#utility.yul\":14932:14938   */\n      dup8\n        /* \"#utility.yul\":14928:14943   */\n      and\n        /* \"#utility.yul\":14923:14925   */\n      0x20\n        /* \"#utility.yul\":14912:14921   */\n      dup5\n        /* \"#utility.yul\":14908:14926   */\n      add\n        /* \"#utility.yul\":14901:14944   */\n      mstore\n      pop\n        /* \"#utility.yul\":14980:14986   */\n      dup5\n        /* \"#utility.yul\":14975:14977   */\n      0x40\n        /* \"#utility.yul\":14964:14973   */\n      dup4\n        /* \"#utility.yul\":14960:14978   */\n      add\n        /* \"#utility.yul\":14953:14987   */\n      mstore\n        /* \"#utility.yul\":15023:15026   */\n      0x80\n        /* \"#utility.yul\":15018:15020   */\n      0x60\n        /* \"#utility.yul\":15007:15016   */\n      dup4\n        /* \"#utility.yul\":15003:15021   */\n      add\n        /* \"#utility.yul\":14996:15027   */\n      mstore\n        /* \"#utility.yul\":15044:15106   */\n      tag_543\n        /* \"#utility.yul\":15101:15104   */\n      0x80\n        /* \"#utility.yul\":15090:15099   */\n      dup4\n        /* \"#utility.yul\":15086:15105   */\n      add\n        /* \"#utility.yul\":15078:15084   */\n      dup5\n        /* \"#utility.yul\":15070:15076   */\n      dup7\n        /* \"#utility.yul\":15044:15106   */\n      tag_406\n      jump\t// in\n    tag_543:\n        /* \"#utility.yul\":15036:15106   */\n      swap8\n        /* \"#utility.yul\":14614:15112   */\n      swap7\n      pop\n      pop\n      pop\n      pop\n      pop\n      pop\n      pop\n      jump\t// out\n        /* \"#utility.yul\":15923:16416   */\n    tag_304:\n        /* \"#utility.yul\":16172:16178   */\n      0xffff\n        /* \"#utility.yul\":16164:16170   */\n      dup7\n        /* \"#utility.yul\":16160:16179   */\n      and\n        /* \"#utility.yul\":16149:16158   */\n      dup2\n        /* \"#utility.yul\":16142:16180   */\n      mstore\n        /* \"#utility.yul\":16216:16219   */\n      0x80\n        /* \"#utility.yul\":16211:16213   */\n      0x20\n        /* \"#utility.yul\":16200:16209   */\n      dup3\n        /* \"#utility.yul\":16196:16214   */\n      add\n        /* \"#utility.yul\":16189:16220   */\n      mstore\n        /* \"#utility.yul\":16123:16127   */\n      0x00\n        /* \"#utility.yul\":16237:16299   */\n      tag_547\n        /* \"#utility.yul\":16294:16297   */\n      0x80\n        /* \"#utility.yul\":16283:16292   */\n      dup4\n        /* \"#utility.yul\":16279:16298   */\n      add\n        /* \"#utility.yul\":16271:16277   */\n      dup7\n        /* \"#utility.yul\":16263:16269   */\n      dup9\n        /* \"#utility.yul\":16237:16299   */\n      tag_406\n      jump\t// in\n    tag_547:\n      sub(shl(0x40, 0x01), 0x01)\n        /* \"#utility.yul\":16335:16366   */\n      swap5\n      swap1\n      swap5\n      and\n        /* \"#utility.yul\":16330:16332   */\n      0x40\n        /* \"#utility.yul\":16315:16333   */\n      dup4\n      add\n        /* \"#utility.yul\":16308:16367   */\n      mstore\n      pop\n        /* \"#utility.yul\":16398:16400   */\n      0x60\n        /* \"#utility.yul\":16383:16401   */\n      add\n        /* \"#utility.yul\":16376:16410   */\n      mstore\n        /* \"#utility.yul\":16229:16299   */\n      swap4\n        /* \"#utility.yul\":15923:16416   */\n      swap3\n      pop\n      pop\n      pop\n      jump\t// out\n        /* \"#utility.yul\":16784:17986   */\n    tag_314:\n      sub(shl(0x40, 0x01), 0x01)\n        /* \"#utility.yul\":16901:16904   */\n      dup4\n        /* \"#utility.yul\":16898:16925   */\n      gt\n        /* \"#utility.yul\":16895:16948   */\n      iszero\n      tag_551\n      jumpi\n        /* \"#utility.yul\":16928:16946   */\n      tag_551\n      tag_384\n      jump\t// in\n    tag_551:\n        /* \"#utility.yul\":16957:17050   */\n      tag_552\n        /* \"#utility.yul\":17046:17049   */\n      dup4\n        /* \"#utility.yul\":17006:17044   */\n      tag_553\n        /* \"#utility.yul\":17038:17042   */\n      dup4\n        /* \"#utility.yul\":17032:17043   */\n      sload\n        /* \"#utility.yul\":17006:17044   */\n      tag_178\n      jump\t// in\n    tag_553:\n        /* \"#utility.yul\":17000:17004   */\n      dup4\n        /* \"#utility.yul\":16957:17050   */\n      tag_408\n      jump\t// in\n    tag_552:\n        /* \"#utility.yul\":17076:17077   */\n      0x00\n        /* \"#utility.yul\":17101:17103   */\n      0x1f\n        /* \"#utility.yul\":17096:17099   */\n      dup5\n        /* \"#utility.yul\":17093:17104   */\n      gt\n        /* \"#utility.yul\":17118:17119   */\n      0x01\n        /* \"#utility.yul\":17113:17728   */\n      dup2\n      eq\n      tag_555\n      jumpi\n        /* \"#utility.yul\":17772:17773   */\n      0x00\n        /* \"#utility.yul\":17789:17792   */\n      dup6\n        /* \"#utility.yul\":17786:17879   */\n      iszero\n      tag_556\n      jumpi\n      pop\n        /* \"#utility.yul\":17845:17864   */\n      dup4\n      dup3\n      add\n        /* \"#utility.yul\":17832:17865   */\n      calldataload\n        /* \"#utility.yul\":17786:17879   */\n    tag_556:\n      not(0x00)\n        /* \"#utility.yul\":11830:11831   */\n      0x03\n        /* \"#utility.yul\":11826:11837   */\n      dup8\n      swap1\n      shl\n        /* \"#utility.yul\":11822:11846   */\n      shr\n        /* \"#utility.yul\":11818:11847   */\n      not\n        /* \"#utility.yul\":11808:11848   */\n      and\n        /* \"#utility.yul\":11854:11855   */\n      0x01\n        /* \"#utility.yul\":11850:11861   */\n      dup7\n      swap1\n      shl\n        /* \"#utility.yul\":11805:11862   */\n      or\n        /* \"#utility.yul\":17892:17970   */\n      dup4\n      sstore\n        /* \"#utility.yul\":17086:17980   */\n      jump(tag_200)\n        /* \"#utility.yul\":17113:17728   */\n    tag_555:\n        /* \"#utility.yul\":11102:11103   */\n      0x00\n        /* \"#utility.yul\":11095:11109   */\n      dup4\n      dup2\n      mstore\n        /* \"#utility.yul\":11139:11143   */\n      0x20\n        /* \"#utility.yul\":11126:11144   */\n      swap1\n      keccak256\n      not(0x1f)\n        /* \"#utility.yul\":17149:17166   */\n      dup7\n      and\n      swap1\n        /* \"#utility.yul\":17249:17258   */\n      dup4\n        /* \"#utility.yul\":17271:17500   */\n    tag_559:\n        /* \"#utility.yul\":17285:17292   */\n      dup3\n        /* \"#utility.yul\":17282:17283   */\n      dup2\n        /* \"#utility.yul\":17279:17293   */\n      lt\n        /* \"#utility.yul\":17271:17500   */\n      iszero\n      tag_561\n      jumpi\n        /* \"#utility.yul\":17374:17393   */\n      dup7\n      dup6\n      add\n        /* \"#utility.yul\":17361:17394   */\n      calldataload\n        /* \"#utility.yul\":17346:17395   */\n      dup3\n      sstore\n        /* \"#utility.yul\":17481:17485   */\n      0x20\n        /* \"#utility.yul\":17466:17486   */\n      swap5\n      dup6\n      add\n      swap5\n        /* \"#utility.yul\":17434:17435   */\n      0x01\n        /* \"#utility.yul\":17422:17436   */\n      swap1\n      swap3\n      add\n      swap2\n        /* \"#utility.yul\":17301:17313   */\n      add\n        /* \"#utility.yul\":17271:17500   */\n      jump(tag_559)\n    tag_561:\n        /* \"#utility.yul\":17275:17278   */\n      pop\n        /* \"#utility.yul\":17528:17531   */\n      dup7\n        /* \"#utility.yul\":17519:17526   */\n      dup3\n        /* \"#utility.yul\":17516:17532   */\n      lt\n        /* \"#utility.yul\":17513:17672   */\n      iszero\n      tag_562\n      jumpi\n        /* \"#utility.yul\":17652:17653   */\n      0x00\n        /* \"#utility.yul\":17648:17654   */\n      not\n        /* \"#utility.yul\":17642:17645   */\n      0xf8\n        /* \"#utility.yul\":17636:17639   */\n      dup9\n        /* \"#utility.yul\":17633:17634   */\n      0x03\n        /* \"#utility.yul\":17629:17640   */\n      shl\n        /* \"#utility.yul\":17625:17646   */\n      and\n        /* \"#utility.yul\":17621:17655   */\n      shr\n        /* \"#utility.yul\":17617:17656   */\n      not\n        /* \"#utility.yul\":17604:17613   */\n      dup5\n        /* \"#utility.yul\":17599:17602   */\n      dup8\n        /* \"#utility.yul\":17595:17614   */\n      add\n        /* \"#utility.yul\":17582:17615   */\n      calldataload\n        /* \"#utility.yul\":17578:17657   */\n      and\n        /* \"#utility.yul\":17570:17576   */\n      dup2\n        /* \"#utility.yul\":17563:17658   */\n      sstore\n        /* \"#utility.yul\":17513:17672   */\n    tag_562:\n      pop\n      pop\n        /* \"#utility.yul\":17715:17716   */\n      0x01\n        /* \"#utility.yul\":17709:17712   */\n      dup6\n        /* \"#utility.yul\":17706:17707   */\n      0x01\n        /* \"#utility.yul\":17702:17713   */\n      shl\n        /* \"#utility.yul\":17698:17717   */\n      add\n        /* \"#utility.yul\":17692:17696   */\n      dup4\n        /* \"#utility.yul\":17685:17718   */\n      sstore\n        /* \"#utility.yul\":17086:17980   */\n      pop\n      pop\n        /* \"#utility.yul\":16784:17986   */\n      pop\n      pop\n      pop\n      jump\t// out\n        /* \"#utility.yul\":18452:18772   */\n    tag_411:\n        /* \"#utility.yul\":18527:18532   */\n      0x00\n        /* \"#utility.yul\":18556:18608   */\n      tag_565\n        /* \"#utility.yul\":18572:18607   */\n      tag_451\n        /* \"#utility.yul\":18600:18606   */\n      dup5\n        /* \"#utility.yul\":18572:18607   */\n      tag_401\n      jump\t// in\n        /* \"#utility.yul\":18556:18608   */\n    tag_565:\n        /* \"#utility.yul\":18547:18608   */\n      swap1\n      pop\n        /* \"#utility.yul\":18631:18637   */\n      dup3\n        /* \"#utility.yul\":18624:18629   */\n      dup2\n        /* \"#utility.yul\":18617:18638   */\n      mstore\n        /* \"#utility.yul\":18671:18674   */\n      dup4\n        /* \"#utility.yul\":18662:18668   */\n      dup4\n        /* \"#utility.yul\":18657:18660   */\n      dup4\n        /* \"#utility.yul\":18653:18669   */\n      add\n        /* \"#utility.yul\":18650:18675   */\n      gt\n        /* \"#utility.yul\":18647:18692   */\n      iszero\n      tag_567\n      jumpi\n        /* \"#utility.yul\":18688:18689   */\n      0x00\n        /* \"#utility.yul\":18685:18686   */\n      dup1\n        /* \"#utility.yul\":18678:18690   */\n      revert\n        /* \"#utility.yul\":18647:18692   */\n    tag_567:\n        /* \"#utility.yul\":18701:18766   */\n      tag_211\n        /* \"#utility.yul\":18759:18765   */\n      dup4\n        /* \"#utility.yul\":18752:18756   */\n      0x20\n        /* \"#utility.yul\":18745:18750   */\n      dup4\n        /* \"#utility.yul\":18741:18757   */\n      add\n        /* \"#utility.yul\":18736:18739   */\n      dup5\n        /* \"#utility.yul\":18701:18766   */\n      tag_404\n      jump\t// in\n        /* \"#utility.yul\":18777:19234   */\n    tag_328:\n        /* \"#utility.yul\":18856:18862   */\n      0x00\n        /* \"#utility.yul\":18909:18911   */\n      0x20\n        /* \"#utility.yul\":18897:18906   */\n      dup3\n        /* \"#utility.yul\":18888:18895   */\n      dup5\n        /* \"#utility.yul\":18884:18907   */\n      sub\n        /* \"#utility.yul\":18880:18912   */\n      slt\n        /* \"#utility.yul\":18877:18929   */\n      iszero\n      tag_570\n      jumpi\n        /* \"#utility.yul\":18925:18926   */\n      0x00\n        /* \"#utility.yul\":18922:18923   */\n      dup1\n        /* \"#utility.yul\":18915:18927   */\n      revert\n        /* \"#utility.yul\":18877:18929   */\n    tag_570:\n        /* \"#utility.yul\":18958:18967   */\n      dup2\n        /* \"#utility.yul\":18952:18968   */\n      mload\n      sub(shl(0x40, 0x01), 0x01)\n        /* \"#utility.yul\":18983:18989   */\n      dup2\n        /* \"#utility.yul\":18980:19010   */\n      gt\n        /* \"#utility.yul\":18977:19027   */\n      iszero\n      tag_571\n      jumpi\n        /* \"#utility.yul\":19023:19024   */\n      0x00\n        /* \"#utility.yul\":19020:19021   */\n      dup1\n        /* \"#utility.yul\":19013:19025   */\n      revert\n        /* \"#utility.yul\":18977:19027   */\n    tag_571:\n        /* \"#utility.yul\":19046:19068   */\n      dup3\n      add\n        /* \"#utility.yul\":19099:19103   */\n      0x1f\n        /* \"#utility.yul\":19091:19104   */\n      dup2\n      add\n        /* \"#utility.yul\":19087:19114   */\n      dup5\n      sgt\n        /* \"#utility.yul\":19077:19132   */\n      tag_572\n      jumpi\n        /* \"#utility.yul\":19128:19129   */\n      0x00\n        /* \"#utility.yul\":19125:19126   */\n      dup1\n        /* \"#utility.yul\":19118:19130   */\n      revert\n        /* \"#utility.yul\":19077:19132   */\n    tag_572:\n        /* \"#utility.yul\":19151:19228   */\n      tag_470\n        /* \"#utility.yul\":19220:19227   */\n      dup5\n        /* \"#utility.yul\":19215:19217   */\n      dup3\n        /* \"#utility.yul\":19209:19218   */\n      mload\n        /* \"#utility.yul\":19204:19206   */\n      0x20\n        /* \"#utility.yul\":19200:19202   */\n      dup5\n        /* \"#utility.yul\":19196:19207   */\n      add\n        /* \"#utility.yul\":19151:19228   */\n      tag_411\n      jump\t// in\n        /* \"#utility.yul\":19239:19796   */\n    tag_333:\n        /* \"#utility.yul\":19496:19502   */\n      0xffff\n        /* \"#utility.yul\":19488:19494   */\n      dup6\n        /* \"#utility.yul\":19484:19503   */\n      and\n        /* \"#utility.yul\":19473:19482   */\n      dup2\n        /* \"#utility.yul\":19466:19504   */\n      mstore\n        /* \"#utility.yul\":19540:19543   */\n      0x80\n        /* \"#utility.yul\":19535:19537   */\n      0x20\n        /* \"#utility.yul\":19524:19533   */\n      dup3\n        /* \"#utility.yul\":19520:19538   */\n      add\n        /* \"#utility.yul\":19513:19544   */\n      mstore\n        /* \"#utility.yul\":19447:19451   */\n      0x00\n        /* \"#utility.yul\":19567:19613   */\n      tag_575\n        /* \"#utility.yul\":19608:19611   */\n      0x80\n        /* \"#utility.yul\":19597:19606   */\n      dup4\n        /* \"#utility.yul\":19593:19612   */\n      add\n        /* \"#utility.yul\":19585:19591   */\n      dup7\n        /* \"#utility.yul\":19567:19613   */\n      tag_405\n      jump\t// in\n    tag_575:\n      sub(shl(0x40, 0x01), 0x01)\n        /* \"#utility.yul\":19653:19659   */\n      dup6\n        /* \"#utility.yul\":19649:19680   */\n      and\n        /* \"#utility.yul\":19644:19646   */\n      0x40\n        /* \"#utility.yul\":19633:19642   */\n      dup5\n        /* \"#utility.yul\":19629:19647   */\n      add\n        /* \"#utility.yul\":19622:19681   */\n      mstore\n        /* \"#utility.yul\":19729:19738   */\n      dup3\n        /* \"#utility.yul\":19721:19727   */\n      dup2\n        /* \"#utility.yul\":19717:19739   */\n      sub\n        /* \"#utility.yul\":19712:19714   */\n      0x60\n        /* \"#utility.yul\":19701:19710   */\n      dup5\n        /* \"#utility.yul\":19697:19715   */\n      add\n        /* \"#utility.yul\":19690:19740   */\n      mstore\n        /* \"#utility.yul\":19757:19790   */\n      tag_543\n        /* \"#utility.yul\":19783:19789   */\n      dup2\n        /* \"#utility.yul\":19775:19781   */\n      dup6\n        /* \"#utility.yul\":19757:19790   */\n      tag_405\n      jump\t// in\n        /* \"#utility.yul\":20218:21058   */\n    tag_356:\n        /* \"#utility.yul\":20567:20573   */\n      0xffff\n        /* \"#utility.yul\":20559:20565   */\n      dup8\n        /* \"#utility.yul\":20555:20574   */\n      and\n        /* \"#utility.yul\":20544:20553   */\n      dup2\n        /* \"#utility.yul\":20537:20575   */\n      mstore\n        /* \"#utility.yul\":20611:20614   */\n      0xc0\n        /* \"#utility.yul\":20606:20608   */\n      0x20\n        /* \"#utility.yul\":20595:20604   */\n      dup3\n        /* \"#utility.yul\":20591:20609   */\n      add\n        /* \"#utility.yul\":20584:20615   */\n      mstore\n        /* \"#utility.yul\":20518:20522   */\n      0x00\n        /* \"#utility.yul\":20638:20684   */\n      tag_579\n        /* \"#utility.yul\":20679:20682   */\n      0xc0\n        /* \"#utility.yul\":20668:20677   */\n      dup4\n        /* \"#utility.yul\":20664:20683   */\n      add\n        /* \"#utility.yul\":20656:20662   */\n      dup9\n        /* \"#utility.yul\":20638:20684   */\n      tag_405\n      jump\t// in\n    tag_579:\n        /* \"#utility.yul\":20732:20741   */\n      dup3\n        /* \"#utility.yul\":20724:20730   */\n      dup2\n        /* \"#utility.yul\":20720:20742   */\n      sub\n        /* \"#utility.yul\":20715:20717   */\n      0x40\n        /* \"#utility.yul\":20704:20713   */\n      dup5\n        /* \"#utility.yul\":20700:20718   */\n      add\n        /* \"#utility.yul\":20693:20743   */\n      mstore\n        /* \"#utility.yul\":20766:20799   */\n      tag_580\n        /* \"#utility.yul\":20792:20798   */\n      dup2\n        /* \"#utility.yul\":20784:20790   */\n      dup9\n        /* \"#utility.yul\":20766:20799   */\n      tag_405\n      jump\t// in\n    tag_580:\n      sub(shl(0xa0, 0x01), 0x01)\n        /* \"#utility.yul\":20873:20888   */\n      dup8\n      dup2\n      and\n        /* \"#utility.yul\":20868:20870   */\n      0x60\n        /* \"#utility.yul\":20853:20871   */\n      dup7\n      add\n        /* \"#utility.yul\":20846:20889   */\n      mstore\n        /* \"#utility.yul\":20926:20941   */\n      dup7\n      and\n        /* \"#utility.yul\":20920:20923   */\n      0x80\n        /* \"#utility.yul\":20905:20924   */\n      dup6\n      add\n        /* \"#utility.yul\":20898:20942   */\n      mstore\n        /* \"#utility.yul\":20979:21001   */\n      dup4\n      dup2\n      sub\n        /* \"#utility.yul\":20826:20829   */\n      0xa0\n        /* \"#utility.yul\":20958:20977   */\n      dup6\n      add\n        /* \"#utility.yul\":20951:21002   */\n      mstore\n        /* \"#utility.yul\":20752:20799   */\n      swap1\n      pop\n        /* \"#utility.yul\":21019:21052   */\n      tag_581\n        /* \"#utility.yul\":20752:20799   */\n      dup2\n        /* \"#utility.yul\":21037:21043   */\n      dup6\n        /* \"#utility.yul\":21019:21052   */\n      tag_405\n      jump\t// in\n    tag_581:\n        /* \"#utility.yul\":21011:21052   */\n      swap10\n        /* \"#utility.yul\":20218:21058   */\n      swap9\n      pop\n      pop\n      pop\n      pop\n      pop\n      pop\n      pop\n      pop\n      pop\n      jump\t// out\n        /* \"#utility.yul\":22874:22999   */\n    tag_368:\n        /* \"#utility.yul\":22939:22948   */\n      dup1\n      dup3\n      add\n        /* \"#utility.yul\":22960:22970   */\n      dup1\n      dup3\n      gt\n        /* \"#utility.yul\":22957:22993   */\n      iszero\n      tag_540\n      jumpi\n        /* \"#utility.yul\":22973:22991   */\n      tag_540\n      tag_410\n      jump\t// in\n        /* \"#utility.yul\":23693:23980   */\n    tag_389:\n        /* \"#utility.yul\":23822:23825   */\n      0x00\n        /* \"#utility.yul\":23860:23866   */\n      dup3\n        /* \"#utility.yul\":23854:23867   */\n      mload\n        /* \"#utility.yul\":23876:23942   */\n      tag_607\n        /* \"#utility.yul\":23935:23941   */\n      dup2\n        /* \"#utility.yul\":23930:23933   */\n      dup5\n        /* \"#utility.yul\":23923:23927   */\n      0x20\n        /* \"#utility.yul\":23915:23921   */\n      dup8\n        /* \"#utility.yul\":23911:23928   */\n      add\n        /* \"#utility.yul\":23876:23942   */\n      tag_404\n      jump\t// in\n    tag_607:\n        /* \"#utility.yul\":23958:23974   */\n      swap2\n      swap1\n      swap2\n      add\n      swap3\n        /* \"#utility.yul\":23693:23980   */\n      swap2\n      pop\n      pop\n      jump\t// out\n        /* \"#utility.yul\":23985:24704   */\n    tag_391:\n        /* \"#utility.yul\":24288:24294   */\n      0xffff\n        /* \"#utility.yul\":24280:24286   */\n      dup7\n        /* \"#utility.yul\":24276:24295   */\n      and\n        /* \"#utility.yul\":24265:24274   */\n      dup2\n        /* \"#utility.yul\":24258:24296   */\n      mstore\n        /* \"#utility.yul\":24332:24335   */\n      0xa0\n        /* \"#utility.yul\":24327:24329   */\n      0x20\n        /* \"#utility.yul\":24316:24325   */\n      dup3\n        /* \"#utility.yul\":24312:24330   */\n      add\n        /* \"#utility.yul\":24305:24336   */\n      mstore\n        /* \"#utility.yul\":24239:24243   */\n      0x00\n        /* \"#utility.yul\":24359:24405   */\n      tag_609\n        /* \"#utility.yul\":24400:24403   */\n      0xa0\n        /* \"#utility.yul\":24389:24398   */\n      dup4\n        /* \"#utility.yul\":24385:24404   */\n      add\n        /* \"#utility.yul\":24377:24383   */\n      dup8\n        /* \"#utility.yul\":24359:24405   */\n      tag_405\n      jump\t// in\n    tag_609:\n      sub(shl(0x40, 0x01), 0x01)\n        /* \"#utility.yul\":24445:24451   */\n      dup7\n        /* \"#utility.yul\":24441:24472   */\n      and\n        /* \"#utility.yul\":24436:24438   */\n      0x40\n        /* \"#utility.yul\":24425:24434   */\n      dup5\n        /* \"#utility.yul\":24421:24439   */\n      add\n        /* \"#utility.yul\":24414:24473   */\n      mstore\n        /* \"#utility.yul\":24521:24530   */\n      dup3\n        /* \"#utility.yul\":24513:24519   */\n      dup2\n        /* \"#utility.yul\":24509:24531   */\n      sub\n        /* \"#utility.yul\":24504:24506   */\n      0x60\n        /* \"#utility.yul\":24493:24502   */\n      dup5\n        /* \"#utility.yul\":24489:24507   */\n      add\n        /* \"#utility.yul\":24482:24532   */\n      mstore\n        /* \"#utility.yul\":24555:24588   */\n      tag_610\n        /* \"#utility.yul\":24581:24587   */\n      dup2\n        /* \"#utility.yul\":24573:24579   */\n      dup7\n        /* \"#utility.yul\":24555:24588   */\n      tag_405\n      jump\t// in\n    tag_610:\n        /* \"#utility.yul\":24541:24588   */\n      swap1\n      pop\n        /* \"#utility.yul\":24637:24646   */\n      dup3\n        /* \"#utility.yul\":24629:24635   */\n      dup2\n        /* \"#utility.yul\":24625:24647   */\n      sub\n        /* \"#utility.yul\":24619:24622   */\n      0x80\n        /* \"#utility.yul\":24608:24617   */\n      dup5\n        /* \"#utility.yul\":24604:24623   */\n      add\n        /* \"#utility.yul\":24597:24648   */\n      mstore\n        /* \"#utility.yul\":24665:24698   */\n      tag_611\n        /* \"#utility.yul\":24691:24697   */\n      dup2\n        /* \"#utility.yul\":24683:24689   */\n      dup6\n        /* \"#utility.yul\":24665:24698   */\n      tag_405\n      jump\t// in\n    tag_611:\n        /* \"#utility.yul\":24657:24698   */\n      swap9\n        /* \"#utility.yul\":23985:24704   */\n      swap8\n      pop\n      pop\n      pop\n      pop\n      pop\n      pop\n      pop\n      pop\n      jump\t// out\n\n    auxdata: 0xa26469706673582212204c3f26bedeb1325053ff7a42562c4f3bbe854b96d4d1e24d6324d1b12f89c12c64736f6c63430008160033\n}\n",
				"bytecode": {
					"linkReferences": {},
					"object": "60e0604052601460a09081527f4e6f7468696e672072656365697665642079657400000000000000000000000060c0526006906200003e908262000214565b503480156200004c57600080fd5b5060405162002551380380620025518339810160408190526200006f91620002e0565b808033806200009857604051631e4fbdf760e01b81526000600482015260240160405180910390fd5b620000a3816200011d565b506001600160a01b03908116608052821673ae92d5ad7583ad66e49a0c67bad18f6ba52dddc1039050620000e1576007805461ffff19166127891790555b6001600160a01b03811673bfd2135bffbb0b5378b56643c2df8a87552bfa230362000116576007805461ffff19166127941790555b5062000312565b600080546001600160a01b038381166001600160a01b0319831681178455604051919092169283917f8be0079c531659141344cd1fd0a4f28419497f9722a3daafe3b4186f6b6457e09190a35050565b634e487b7160e01b600052604160045260246000fd5b600181811c908216806200019857607f821691505b602082108103620001b957634e487b7160e01b600052602260045260246000fd5b50919050565b601f8211156200020f576000816000526020600020601f850160051c81016020861015620001ea5750805b601f850160051c820191505b818110156200020b57828155600101620001f6565b5050505b505050565b81516001600160401b038111156200023057620002306200016d565b620002488162000241845462000183565b84620001bf565b602080601f831160018114620002805760008415620002675750858301515b600019600386901b1c1916600185901b1785556200020b565b600085815260208120601f198616915b82811015620002b15788860151825594840194600190910190840162000290565b5085821015620002d05787850151600019600388901b60f8161c191681555b5050505050600190811b01905550565b600060208284031215620002f357600080fd5b81516001600160a01b03811681146200030b57600080fd5b9392505050565b6080516121f26200035f600039600081816104a2015281816105b0015281816107ff015281816108a7015281816109ca01528181610e8401528181611243015261149201526121f26000f3fe6080604052600436106101b65760003560e01c80638cfd8f5c116100ec578063c44618341161008a578063df2a5b3b11610064578063df2a5b3b1461052d578063eb8d72b71461054d578063f2fde38b1461056d578063f5ecbdbc1461058d57600080fd5b8063c4461834146104e4578063cbed8b9c146104fa578063d1deba1f1461051a57600080fd5b80639f38369a116100c65780639f38369a14610450578063a6c3d16514610470578063b353aaa714610490578063baf3292d146104c457600080fd5b80638cfd8f5c146103c65780638da5cb5b146103fe578063950c8a741461043057600080fd5b80635b8c41e61161015957806366ad5c8a1161013357806366ad5c8a1461034f578063715018a61461036f57806373d4a13a146103845780637533d788146103a657600080fd5b80635b8c41e6146102cd5780635cdf16491461031c57806366792ba11461033c57600080fd5b806310ddb1371161019557806310ddb1371461021d5780633d8b38f61461023d5780633f1f4fa41461027257806342d65a8d146102ad57600080fd5b80621d3567146101bb57806307e0db17146101dd5780630df37483146101fd575b600080fd5b3480156101c757600080fd5b506101db6101d636600461189f565b6105ad565b005b3480156101e957600080fd5b506101db6101f8366004611932565b6107de565b34801561020957600080fd5b506101db61021836600461194d565b610867565b34801561022957600080fd5b506101db610238366004611932565b610886565b34801561024957600080fd5b5061025d610258366004611977565b6108de565b60405190151581526020015b60405180910390f35b34801561027e57600080fd5b5061029f61028d366004611932565b60036020526000908152604090205481565b604051908152602001610269565b3480156102b957600080fd5b506101db6102c8366004611977565b6109ab565b3480156102d957600080fd5b5061029f6102e8366004611a74565b6005602090815260009384526040808520845180860184018051928152908401958401959095209452929052825290205481565b34801561032857600080fd5b506101db610337366004611afc565b610a31565b6101db61034a366004611b17565b610a93565b34801561035b57600080fd5b506101db61036a36600461189f565b610ada565b34801561037b57600080fd5b506101db610bb6565b34801561039057600080fd5b50610399610bca565b6040516102699190611bb7565b3480156103b257600080fd5b506103996103c1366004611932565b610c58565b3480156103d257600080fd5b5061029f6103e1366004611bca565b600260209081526000928352604080842090915290825290205481565b34801561040a57600080fd5b506000546001600160a01b03165b6040516001600160a01b039091168152602001610269565b34801561043c57600080fd5b50600454610418906001600160a01b031681565b34801561045c57600080fd5b5061039961046b366004611932565b610c71565b34801561047c57600080fd5b506101db61048b366004611977565b610d80565b34801561049c57600080fd5b506104187f000000000000000000000000000000000000000000000000000000000000000081565b3480156104d057600080fd5b506101db6104df366004611afc565b610e09565b3480156104f057600080fd5b5061029f61271081565b34801561050657600080fd5b506101db610515366004611bfd565b610e65565b6101db61052836600461189f565b610efa565b34801561053957600080fd5b506101db610548366004611c6b565b611110565b34801561055957600080fd5b506101db610568366004611977565b61117a565b34801561057957600080fd5b506101db610588366004611afc565b6111d4565b34801561059957600080fd5b506103996105a8366004611ca7565b611212565b337f00000000000000000000000000000000000000000000000000000000000000006001600160a01b03161461062a5760405162461bcd60e51b815260206004820152601e60248201527f4c7a4170703a20696e76616c696420656e64706f696e742063616c6c6572000060448201526064015b60405180910390fd5b61ffff86166000908152600160205260408120805461064890611cf2565b80601f016020809104026020016040519081016040528092919081815260200182805461067490611cf2565b80156106c15780601f10610696576101008083540402835291602001916106c1565b820191906000526020600020905b8154815290600101906020018083116106a457829003601f168201915b505050505090508051868690501480156106dc575060008151115b80156107045750805160208201206040516106fa9088908890611d2c565b6040518091039020145b61075f5760405162461bcd60e51b815260206004820152602660248201527f4c7a4170703a20696e76616c696420736f757263652073656e64696e6720636f6044820152651b9d1c9858dd60d21b6064820152608401610621565b6107d58787878080601f01602080910402602001604051908101604052809392919081815260200183838082843760009201919091525050604080516020601f8a018190048102820181019092528881528a9350915088908890819084018382808284376000920191909152506112c392505050565b50505050505050565b6107e661133c565b6040516307e0db1760e01b815261ffff821660048201527f00000000000000000000000000000000000000000000000000000000000000006001600160a01b0316906307e0db17906024015b600060405180830381600087803b15801561084c57600080fd5b505af1158015610860573d6000803e3d6000fd5b5050505050565b61086f61133c565b61ffff909116600090815260036020526040902055565b61088e61133c565b6040516310ddb13760e01b815261ffff821660048201527f00000000000000000000000000000000000000000000000000000000000000006001600160a01b0316906310ddb13790602401610832565b61ffff8316600090815260016020526040812080548291906108ff90611cf2565b80601f016020809104026020016040519081016040528092919081815260200182805461092b90611cf2565b80156109785780601f1061094d57610100808354040283529160200191610978565b820191906000526020600020905b81548152906001019060200180831161095b57829003601f168201915b50505050509050838360405161098f929190611d2c565b60405180910390208180519060200120149150505b9392505050565b6109b361133c565b6040516342d65a8d60e01b81526001600160a01b037f000000000000000000000000000000000000000000000000000000000000000016906342d65a8d90610a0390869086908690600401611d65565b600060405180830381600087803b158015610a1d57600080fd5b505af11580156107d5573d6000803e3d6000fd5b610a3961133c565b6040516bffffffffffffffffffffffff19606083811b8216602084015230901b16603482015260480160408051601f1981840301815291815260075461ffff16600090815260016020522090610a8f9082611dcb565b5050565b600081604051602001610aa69190611bb7565b60408051601f19818403018152600754602084019092526000808452909350610a8f9261ffff909216918491339134611369565b333014610b385760405162461bcd60e51b815260206004820152602660248201527f4e6f6e626c6f636b696e674c7a4170703a2063616c6c6572206d7573742062656044820152650204c7a4170760d41b6064820152608401610621565b610bae8686868080601f01602080910402602001604051908101604052809392919081815260200183838082843760009201919091525050604080516020601f89018190048102820181019092528781528993509150879087908190840183828082843760009201919091525061150e92505050565b505050505050565b610bbe61133c565b610bc8600061152f565b565b60068054610bd790611cf2565b80601f0160208091040260200160405190810160405280929190818152602001828054610c0390611cf2565b8015610c505780601f10610c2557610100808354040283529160200191610c50565b820191906000526020600020905b815481529060010190602001808311610c3357829003601f168201915b505050505081565b60016020526000908152604090208054610bd790611cf2565b61ffff8116600090815260016020526040812080546060929190610c9490611cf2565b80601f0160208091040260200160405190810160405280929190818152602001828054610cc090611cf2565b8015610d0d5780601f10610ce257610100808354040283529160200191610d0d565b820191906000526020600020905b815481529060010190602001808311610cf057829003601f168201915b505050505090508051600003610d655760405162461bcd60e51b815260206004820152601d60248201527f4c7a4170703a206e6f20747275737465642070617468207265636f72640000006044820152606401610621565b6109a4600060148351610d789190611ea0565b83919061157f565b610d8861133c565b818130604051602001610d9d93929190611eb9565b60408051601f1981840301815291815261ffff8516600090815260016020522090610dc89082611dcb565b507f8c0400cfe2d1199b1a725c78960bcc2a344d869b80590d0f2bd005db15a572ce838383604051610dfc93929190611d65565b60405180910390a1505050565b610e1161133c565b600480546001600160a01b0319166001600160a01b0383169081179091556040519081527f5db758e995a17ec1ad84bdef7e8c3293a0bd6179bcce400dff5d4c3d87db726b9060200160405180910390a150565b610e6d61133c565b6040516332fb62e760e21b81526001600160a01b037f0000000000000000000000000000000000000000000000000000000000000000169063cbed8b9c90610ec19088908890889088908890600401611edf565b600060405180830381600087803b158015610edb57600080fd5b505af1158015610eef573d6000803e3d6000fd5b505050505050505050565b61ffff86166000908152600560205260408082209051610f1d9088908890611d2c565b90815260408051602092819003830190206001600160401b03871660009081529252902054905080610f9d5760405162461bcd60e51b815260206004820152602360248201527f4e6f6e626c6f636b696e674c7a4170703a206e6f2073746f726564206d65737360448201526261676560e81b6064820152608401610621565b808383604051610fae929190611d2c565b60405180910390201461100d5760405162461bcd60e51b815260206004820152602160248201527f4e6f6e626c6f636b696e674c7a4170703a20696e76616c6964207061796c6f616044820152601960fa1b6064820152608401610621565b61ffff871660009081526005602052604080822090516110309089908990611d2c565b90815260408051602092819003830181206001600160401b038916600090815290845282902093909355601f880182900482028301820190528682526110c8918991899089908190840183828082843760009201919091525050604080516020601f8a018190048102820181019092528881528a93509150889088908190840183828082843760009201919091525061150e92505050565b7fc264d91f3adc5588250e1551f547752ca0cfa8f6b530d243b9f9f4cab10ea8e587878787856040516110ff959493929190611f18565b60405180910390a150505050505050565b61111861133c565b61ffff83811660008181526002602090815260408083209487168084529482529182902085905581519283528201929092529081018290527f9d5c7c0b934da8fefa9c7760c98383778a12dfbfc0c3b3106518f43fb9508ac090606001610dfc565b61118261133c565b61ffff831660009081526001602052604090206111a0828483611f53565b507ffa41487ad5d6728f0b19276fa1eddc16558578f5109fc39d2dc33c3230470dab838383604051610dfc93929190611d65565b6111dc61133c565b6001600160a01b03811661120657604051631e4fbdf760e01b815260006004820152602401610621565b61120f8161152f565b50565b604051633d7b2f6f60e21b815261ffff808616600483015284166024820152306044820152606481018290526060907f00000000000000000000000000000000000000000000000000000000000000006001600160a01b03169063f5ecbdbc90608401600060405180830381865afa158015611292573d6000803e3d6000fd5b505050506040513d6000823e601f3d908101601f191682016040526112ba9190810190612042565b95945050505050565b6000806113265a60966366ad5c8a60e01b898989896040516024016112eb949392919061208a565b60408051601f198184030181529190526020810180516001600160e01b03166001600160e01b0319909316929092179091523092919061168c565b9150915081610bae57610bae8686868685611716565b6000546001600160a01b03163314610bc85760405163118cdaa760e01b8152336004820152602401610621565b61ffff86166000908152600160205260408120805461138790611cf2565b80601f01602080910402602001604051908101604052809291908181526020018280546113b390611cf2565b80156114005780601f106113d557610100808354040283529160200191611400565b820191906000526020600020905b8154815290600101906020018083116113e357829003601f168201915b5050505050905080516000036114715760405162461bcd60e51b815260206004820152603060248201527f4c7a4170703a2064657374696e6174696f6e20636861696e206973206e6f742060448201526f61207472757374656420736f7572636560801b6064820152608401610621565b61147c8787516117b3565b60405162c5803160e81b81526001600160a01b037f0000000000000000000000000000000000000000000000000000000000000000169063c58031009084906114d3908b9086908c908c908c908c906004016120c8565b6000604051808303818588803b1580156114ec57600080fd5b505af1158015611500573d6000803e3d6000fd5b505050505050505050505050565b808060200190518101906115229190612042565b6006906108609082611dcb565b600080546001600160a01b038381166001600160a01b0319831681178455604051919092169283917f8be0079c531659141344cd1fd0a4f28419497f9722a3daafe3b4186f6b6457e09190a35050565b60608161158d81601f61212f565b10156115cc5760405162461bcd60e51b815260206004820152600e60248201526d736c6963655f6f766572666c6f7760901b6044820152606401610621565b6115d6828461212f565b8451101561161a5760405162461bcd60e51b8152602060048201526011602482015270736c6963655f6f75744f66426f756e647360781b6044820152606401610621565b6060821580156116395760405191506000825260208201604052611683565b6040519150601f8416801560200281840101858101878315602002848b0101015b8183101561167257805183526020928301920161165a565b5050858452601f01601f1916604052505b50949350505050565b6000606060008060008661ffff166001600160401b038111156116b1576116b16119c9565b6040519080825280601f01601f1916602001820160405280156116db576020820181803683370190505b50905060008087516020890160008d8df191503d9250868311156116fd578692505b828152826000602083013e909890975095505050505050565b8180519060200120600560008761ffff1661ffff168152602001908152602001600020856040516117479190612142565b9081526040805191829003602090810183206001600160401b0388166000908152915220919091557fe183f33de2837795525b4792ca4cd60535bd77c53b7e7030060bfcf5734d6b0c906117a4908790879087908790879061215e565b60405180910390a15050505050565b61ffff8216600090815260036020526040812054908190036117d457506127105b808211156118245760405162461bcd60e51b815260206004820181905260248201527f4c7a4170703a207061796c6f61642073697a6520697320746f6f206c617267656044820152606401610621565b505050565b803561ffff8116811461183b57600080fd5b919050565b60008083601f84011261185257600080fd5b5081356001600160401b0381111561186957600080fd5b60208301915083602082850101111561188157600080fd5b9250929050565b80356001600160401b038116811461183b57600080fd5b600080600080600080608087890312156118b857600080fd5b6118c187611829565b955060208701356001600160401b03808211156118dd57600080fd5b6118e98a838b01611840565b90975095508591506118fd60408a01611888565b9450606089013591508082111561191357600080fd5b5061192089828a01611840565b979a9699509497509295939492505050565b60006020828403121561194457600080fd5b6109a482611829565b6000806040838503121561196057600080fd5b61196983611829565b946020939093013593505050565b60008060006040848603121561198c57600080fd5b61199584611829565b925060208401356001600160401b038111156119b057600080fd5b6119bc86828701611840565b9497909650939450505050565b634e487b7160e01b600052604160045260246000fd5b604051601f8201601f191681016001600160401b0381118282101715611a0757611a076119c9565b604052919050565b60006001600160401b03821115611a2857611a286119c9565b50601f01601f191660200190565b6000611a49611a4484611a0f565b6119df565b9050828152838383011115611a5d57600080fd5b828260208301376000602084830101529392505050565b600080600060608486031215611a8957600080fd5b611a9284611829565b925060208401356001600160401b03811115611aad57600080fd5b8401601f81018613611abe57600080fd5b611acd86823560208401611a36565b925050611adc60408501611888565b90509250925092565b80356001600160a01b038116811461183b57600080fd5b600060208284031215611b0e57600080fd5b6109a482611ae5565b600060208284031215611b2957600080fd5b81356001600160401b03811115611b3f57600080fd5b8201601f81018413611b5057600080fd5b611b5f84823560208401611a36565b949350505050565b60005b83811015611b82578181015183820152602001611b6a565b50506000910152565b60008151808452611ba3816020860160208601611b67565b601f01601f19169290920160200192915050565b6020815260006109a46020830184611b8b565b60008060408385031215611bdd57600080fd5b611be683611829565b9150611bf460208401611829565b90509250929050565b600080600080600060808688031215611c1557600080fd5b611c1e86611829565b9450611c2c60208701611829565b93506040860135925060608601356001600160401b03811115611c4e57600080fd5b611c5a88828901611840565b969995985093965092949392505050565b600080600060608486031215611c8057600080fd5b611c8984611829565b9250611c9760208501611829565b9150604084013590509250925092565b60008060008060808587031215611cbd57600080fd5b611cc685611829565b9350611cd460208601611829565b9250611ce260408601611ae5565b9396929550929360600135925050565b600181811c90821680611d0657607f821691505b602082108103611d2657634e487b7160e01b600052602260045260246000fd5b50919050565b8183823760009101908152919050565b81835281816020850137506000828201602090810191909152601f909101601f19169091010190565b61ffff841681526040602082015260006112ba604083018486611d3c565b601f821115611824576000816000526020600020601f850160051c81016020861015611dac5750805b601f850160051c820191505b81811015610bae57828155600101611db8565b81516001600160401b03811115611de457611de46119c9565b611df881611df28454611cf2565b84611d83565b602080601f831160018114611e2d5760008415611e155750858301515b600019600386901b1c1916600185901b178555610bae565b600085815260208120601f198616915b82811015611e5c57888601518255948401946001909101908401611e3d565b5085821015611e7a5787850151600019600388901b60f8161c191681555b5050505050600190811b01905550565b634e487b7160e01b600052601160045260246000fd5b81810381811115611eb357611eb3611e8a565b92915050565b8284823760609190911b6bffffffffffffffffffffffff19169101908152601401919050565b600061ffff808816835280871660208401525084604083015260806060830152611f0d608083018486611d3c565b979650505050505050565b61ffff86168152608060208201526000611f36608083018688611d3c565b6001600160401b0394909416604083015250606001529392505050565b6001600160401b03831115611f6a57611f6a6119c9565b611f7e83611f788354611cf2565b83611d83565b6000601f841160018114611fb25760008515611f9a5750838201355b600019600387901b1c1916600186901b178355610860565b600083815260209020601f19861690835b82811015611fe35786850135825560209485019460019092019101611fc3565b50868210156120005760001960f88860031b161c19848701351681555b505060018560011b0183555050505050565b6000612020611a4484611a0f565b905082815283838301111561203457600080fd5b6109a4836020830184611b67565b60006020828403121561205457600080fd5b81516001600160401b0381111561206a57600080fd5b8201601f8101841361207b57600080fd5b611b5f84825160208401612012565b61ffff851681526080602082015260006120a76080830186611b8b565b6001600160401b03851660408401528281036060840152611f0d8185611b8b565b61ffff8716815260c0602082015260006120e560c0830188611b8b565b82810360408401526120f78188611b8b565b6001600160a01b0387811660608601528616608085015283810360a085015290506121228185611b8b565b9998505050505050505050565b80820180821115611eb357611eb3611e8a565b60008251612154818460208701611b67565b9190910192915050565b61ffff8616815260a06020820152600061217b60a0830187611b8b565b6001600160401b0386166040840152828103606084015261219c8186611b8b565b905082810360808401526121b08185611b8b565b9897505050505050505056fea26469706673582212204c3f26bedeb1325053ff7a42562c4f3bbe854b96d4d1e24d6324d1b12f89c12c64736f6c63430008160033",
					"opcodes": "PUSH1 0xE0 PUSH1 0x40 MSTORE PUSH1 0x14 PUSH1 0xA0 SWAP1 DUP2 MSTORE PUSH32 0x4E6F7468696E6720726563656976656420796574000000000000000000000000 PUSH1 0xC0 MSTORE PUSH1 0x6 SWAP1 PUSH3 0x3E SWAP1 DUP3 PUSH3 0x214 JUMP JUMPDEST POP CALLVALUE DUP1 ISZERO PUSH3 0x4C JUMPI PUSH1 0x0 DUP1 REVERT JUMPDEST POP PUSH1 0x40 MLOAD PUSH3 0x2551 CODESIZE SUB DUP1 PUSH3 0x2551 DUP4 CODECOPY DUP2 ADD PUSH1 0x40 DUP2 SWAP1 MSTORE PUSH3 0x6F SWAP2 PUSH3 0x2E0 JUMP JUMPDEST DUP1 DUP1 CALLER DUP1 PUSH3 0x98 JUMPI PUSH1 0x40 MLOAD PUSH4 0x1E4FBDF7 PUSH1 0xE0 SHL DUP2 MSTORE PUSH1 0x0 PUSH1 0x4 DUP3 ADD MSTORE PUSH1 0x24 ADD PUSH1 0x40 MLOAD DUP1 SWAP2 SUB SWAP1 REVERT JUMPDEST PUSH3 0xA3 DUP2 PUSH3 0x11D JUMP JUMPDEST POP PUSH1 0x1 PUSH1 0x1 PUSH1 0xA0 SHL SUB SWAP1 DUP2 AND PUSH1 0x80 MSTORE DUP3 AND PUSH20 0xAE92D5AD7583AD66E49A0C67BAD18F6BA52DDDC1 SUB SWAP1 POP PUSH3 0xE1 JUMPI PUSH1 0x7 DUP1 SLOAD PUSH2 0xFFFF NOT AND PUSH2 0x2789 OR SWAP1 SSTORE JUMPDEST PUSH1 0x1 PUSH1 0x1 PUSH1 0xA0 SHL SUB DUP2 AND PUSH20 0xBFD2135BFFBB0B5378B56643C2DF8A87552BFA23 SUB PUSH3 0x116 JUMPI PUSH1 0x7 DUP1 SLOAD PUSH2 0xFFFF NOT AND PUSH2 0x2794 OR SWAP1 SSTORE JUMPDEST POP PUSH3 0x312 JUMP JUMPDEST PUSH1 0x0 DUP1 SLOAD PUSH1 0x1 PUSH1 0x1 PUSH1 0xA0 SHL SUB DUP4 DUP2 AND PUSH1 0x1 PUSH1 0x1 PUSH1 0xA0 SHL SUB NOT DUP4 AND DUP2 OR DUP5 SSTORE PUSH1 0x40 MLOAD SWAP2 SWAP1 SWAP3 AND SWAP3 DUP4 SWAP2 PUSH32 0x8BE0079C531659141344CD1FD0A4F28419497F9722A3DAAFE3B4186F6B6457E0 SWAP2 SWAP1 LOG3 POP POP JUMP JUMPDEST PUSH4 0x4E487B71 PUSH1 0xE0 SHL PUSH1 0x0 MSTORE PUSH1 0x41 PUSH1 0x4 MSTORE PUSH1 0x24 PUSH1 0x0 REVERT JUMPDEST PUSH1 0x1 DUP2 DUP2 SHR SWAP1 DUP3 AND DUP1 PUSH3 0x198 JUMPI PUSH1 0x7F DUP3 AND SWAP2 POP JUMPDEST PUSH1 0x20 DUP3 LT DUP2 SUB PUSH3 0x1B9 JUMPI PUSH4 0x4E487B71 PUSH1 0xE0 SHL PUSH1 0x0 MSTORE PUSH1 0x22 PUSH1 0x4 MSTORE PUSH1 0x24 PUSH1 0x0 REVERT JUMPDEST POP SWAP2 SWAP1 POP JUMP JUMPDEST PUSH1 0x1F DUP3 GT ISZERO PUSH3 0x20F JUMPI PUSH1 0x0 DUP2 PUSH1 0x0 MSTORE PUSH1 0x20 PUSH1 0x0 KECCAK256 PUSH1 0x1F DUP6 ADD PUSH1 0x5 SHR DUP2 ADD PUSH1 0x20 DUP7 LT ISZERO PUSH3 0x1EA JUMPI POP DUP1 JUMPDEST PUSH1 0x1F DUP6 ADD PUSH1 0x5 SHR DUP3 ADD SWAP2 POP JUMPDEST DUP2 DUP2 LT ISZERO PUSH3 0x20B JUMPI DUP3 DUP2 SSTORE PUSH1 0x1 ADD PUSH3 0x1F6 JUMP JUMPDEST POP POP POP JUMPDEST POP POP POP JUMP JUMPDEST DUP2 MLOAD PUSH1 0x1 PUSH1 0x1 PUSH1 0x40 SHL SUB DUP2 GT ISZERO PUSH3 0x230 JUMPI PUSH3 0x230 PUSH3 0x16D JUMP JUMPDEST PUSH3 0x248 DUP2 PUSH3 0x241 DUP5 SLOAD PUSH3 0x183 JUMP JUMPDEST DUP5 PUSH3 0x1BF JUMP JUMPDEST PUSH1 0x20 DUP1 PUSH1 0x1F DUP4 GT PUSH1 0x1 DUP2 EQ PUSH3 0x280 JUMPI PUSH1 0x0 DUP5 ISZERO PUSH3 0x267 JUMPI POP DUP6 DUP4 ADD MLOAD JUMPDEST PUSH1 0x0 NOT PUSH1 0x3 DUP7 SWAP1 SHL SHR NOT AND PUSH1 0x1 DUP6 SWAP1 SHL OR DUP6 SSTORE PUSH3 0x20B JUMP JUMPDEST PUSH1 0x0 DUP6 DUP2 MSTORE PUSH1 0x20 DUP2 KECCAK256 PUSH1 0x1F NOT DUP7 AND SWAP2 JUMPDEST DUP3 DUP2 LT ISZERO PUSH3 0x2B1 JUMPI DUP9 DUP7 ADD MLOAD DUP3 SSTORE SWAP5 DUP5 ADD SWAP5 PUSH1 0x1 SWAP1 SWAP2 ADD SWAP1 DUP5 ADD PUSH3 0x290 JUMP JUMPDEST POP DUP6 DUP3 LT ISZERO PUSH3 0x2D0 JUMPI DUP8 DUP6 ADD MLOAD PUSH1 0x0 NOT PUSH1 0x3 DUP9 SWAP1 SHL PUSH1 0xF8 AND SHR NOT AND DUP2 SSTORE JUMPDEST POP POP POP POP POP PUSH1 0x1 SWAP1 DUP2 SHL ADD SWAP1 SSTORE POP JUMP JUMPDEST PUSH1 0x0 PUSH1 0x20 DUP3 DUP5 SUB SLT ISZERO PUSH3 0x2F3 JUMPI PUSH1 0x0 DUP1 REVERT JUMPDEST DUP2 MLOAD PUSH1 0x1 PUSH1 0x1 PUSH1 0xA0 SHL SUB DUP2 AND DUP2 EQ PUSH3 0x30B JUMPI PUSH1 0x0 DUP1 REVERT JUMPDEST SWAP4 SWAP3 POP POP POP JUMP JUMPDEST PUSH1 0x80 MLOAD PUSH2 0x21F2 PUSH3 0x35F PUSH1 0x0 CODECOPY PUSH1 0x0 DUP2 DUP2 PUSH2 0x4A2 ADD MSTORE DUP2 DUP2 PUSH2 0x5B0 ADD MSTORE DUP2 DUP2 PUSH2 0x7FF ADD MSTORE DUP2 DUP2 PUSH2 0x8A7 ADD MSTORE DUP2 DUP2 PUSH2 0x9CA ADD MSTORE DUP2 DUP2 PUSH2 0xE84 ADD MSTORE DUP2 DUP2 PUSH2 0x1243 ADD MSTORE PUSH2 0x1492 ADD MSTORE PUSH2 0x21F2 PUSH1 0x0 RETURN INVALID PUSH1 0x80 PUSH1 0x40 MSTORE PUSH1 0x4 CALLDATASIZE LT PUSH2 0x1B6 JUMPI PUSH1 0x0 CALLDATALOAD PUSH1 0xE0 SHR DUP1 PUSH4 0x8CFD8F5C GT PUSH2 0xEC JUMPI DUP1 PUSH4 0xC4461834 GT PUSH2 0x8A JUMPI DUP1 PUSH4 0xDF2A5B3B GT PUSH2 0x64 JUMPI DUP1 PUSH4 0xDF2A5B3B EQ PUSH2 0x52D JUMPI DUP1 PUSH4 0xEB8D72B7 EQ PUSH2 0x54D JUMPI DUP1 PUSH4 0xF2FDE38B EQ PUSH2 0x56D JUMPI DUP1 PUSH4 0xF5ECBDBC EQ PUSH2 0x58D JUMPI PUSH1 0x0 DUP1 REVERT JUMPDEST DUP1 PUSH4 0xC4461834 EQ PUSH2 0x4E4 JUMPI DUP1 PUSH4 0xCBED8B9C EQ PUSH2 0x4FA JUMPI DUP1 PUSH4 0xD1DEBA1F EQ PUSH2 0x51A JUMPI PUSH1 0x0 DUP1 REVERT JUMPDEST DUP1 PUSH4 0x9F38369A GT PUSH2 0xC6 JUMPI DUP1 PUSH4 0x9F38369A EQ PUSH2 0x450 JUMPI DUP1 PUSH4 0xA6C3D165 EQ PUSH2 0x470 JUMPI DUP1 PUSH4 0xB353AAA7 EQ PUSH2 0x490 JUMPI DUP1 PUSH4 0xBAF3292D EQ PUSH2 0x4C4 JUMPI PUSH1 0x0 DUP1 REVERT JUMPDEST DUP1 PUSH4 0x8CFD8F5C EQ PUSH2 0x3C6 JUMPI DUP1 PUSH4 0x8DA5CB5B EQ PUSH2 0x3FE JUMPI DUP1 PUSH4 0x950C8A74 EQ PUSH2 0x430 JUMPI PUSH1 0x0 DUP1 REVERT JUMPDEST DUP1 PUSH4 0x5B8C41E6 GT PUSH2 0x159 JUMPI DUP1 PUSH4 0x66AD5C8A GT PUSH2 0x133 JUMPI DUP1 PUSH4 0x66AD5C8A EQ PUSH2 0x34F JUMPI DUP1 PUSH4 0x715018A6 EQ PUSH2 0x36F JUMPI DUP1 PUSH4 0x73D4A13A EQ PUSH2 0x384 JUMPI DUP1 PUSH4 0x7533D788 EQ PUSH2 0x3A6 JUMPI PUSH1 0x0 DUP1 REVERT JUMPDEST DUP1 PUSH4 0x5B8C41E6 EQ PUSH2 0x2CD JUMPI DUP1 PUSH4 0x5CDF1649 EQ PUSH2 0x31C JUMPI DUP1 PUSH4 0x66792BA1 EQ PUSH2 0x33C JUMPI PUSH1 0x0 DUP1 REVERT JUMPDEST DUP1 PUSH4 0x10DDB137 GT PUSH2 0x195 JUMPI DUP1 PUSH4 0x10DDB137 EQ PUSH2 0x21D JUMPI DUP1 PUSH4 0x3D8B38F6 EQ PUSH2 0x23D JUMPI DUP1 PUSH4 0x3F1F4FA4 EQ PUSH2 0x272 JUMPI DUP1 PUSH4 0x42D65A8D EQ PUSH2 0x2AD JUMPI PUSH1 0x0 DUP1 REVERT JUMPDEST DUP1 PUSH3 0x1D3567 EQ PUSH2 0x1BB JUMPI DUP1 PUSH4 0x7E0DB17 EQ PUSH2 0x1DD JUMPI DUP1 PUSH4 0xDF37483 EQ PUSH2 0x1FD JUMPI JUMPDEST PUSH1 0x0 DUP1 REVERT JUMPDEST CALLVALUE DUP1 ISZERO PUSH2 0x1C7 JUMPI PUSH1 0x0 DUP1 REVERT JUMPDEST POP PUSH2 0x1DB PUSH2 0x1D6 CALLDATASIZE PUSH1 0x4 PUSH2 0x189F JUMP JUMPDEST PUSH2 0x5AD JUMP JUMPDEST STOP JUMPDEST CALLVALUE DUP1 ISZERO PUSH2 0x1E9 JUMPI PUSH1 0x0 DUP1 REVERT JUMPDEST POP PUSH2 0x1DB PUSH2 0x1F8 CALLDATASIZE PUSH1 0x4 PUSH2 0x1932 JUMP JUMPDEST PUSH2 0x7DE JUMP JUMPDEST CALLVALUE DUP1 ISZERO PUSH2 0x209 JUMPI PUSH1 0x0 DUP1 REVERT JUMPDEST POP PUSH2 0x1DB PUSH2 0x218 CALLDATASIZE PUSH1 0x4 PUSH2 0x194D JUMP JUMPDEST PUSH2 0x867 JUMP JUMPDEST CALLVALUE DUP1 ISZERO PUSH2 0x229 JUMPI PUSH1 0x0 DUP1 REVERT JUMPDEST POP PUSH2 0x1DB PUSH2 0x238 CALLDATASIZE PUSH1 0x4 PUSH2 0x1932 JUMP JUMPDEST PUSH2 0x886 JUMP JUMPDEST CALLVALUE DUP1 ISZERO PUSH2 0x249 JUMPI PUSH1 0x0 DUP1 REVERT JUMPDEST POP PUSH2 0x25D PUSH2 0x258 CALLDATASIZE PUSH1 0x4 PUSH2 0x1977 JUMP JUMPDEST PUSH2 0x8DE JUMP JUMPDEST PUSH1 0x40 MLOAD SWAP1 ISZERO ISZERO DUP2 MSTORE PUSH1 0x20 ADD JUMPDEST PUSH1 0x40 MLOAD DUP1 SWAP2 SUB SWAP1 RETURN JUMPDEST CALLVALUE DUP1 ISZERO PUSH2 0x27E JUMPI PUSH1 0x0 DUP1 REVERT JUMPDEST POP PUSH2 0x29F PUSH2 0x28D CALLDATASIZE PUSH1 0x4 PUSH2 0x1932 JUMP JUMPDEST PUSH1 0x3 PUSH1 0x20 MSTORE PUSH1 0x0 SWAP1 DUP2 MSTORE PUSH1 0x40 SWAP1 KECCAK256 SLOAD DUP2 JUMP JUMPDEST PUSH1 0x40 MLOAD SWAP1 DUP2 MSTORE PUSH1 0x20 ADD PUSH2 0x269 JUMP JUMPDEST CALLVALUE DUP1 ISZERO PUSH2 0x2B9 JUMPI PUSH1 0x0 DUP1 REVERT JUMPDEST POP PUSH2 0x1DB PUSH2 0x2C8 CALLDATASIZE PUSH1 0x4 PUSH2 0x1977 JUMP JUMPDEST PUSH2 0x9AB JUMP JUMPDEST CALLVALUE DUP1 ISZERO PUSH2 0x2D9 JUMPI PUSH1 0x0 DUP1 REVERT JUMPDEST POP PUSH2 0x29F PUSH2 0x2E8 CALLDATASIZE PUSH1 0x4 PUSH2 0x1A74 JUMP JUMPDEST PUSH1 0x5 PUSH1 0x20 SWAP1 DUP2 MSTORE PUSH1 0x0 SWAP4 DUP5 MSTORE PUSH1 0x40 DUP1 DUP6 KECCAK256 DUP5 MLOAD DUP1 DUP7 ADD DUP5 ADD DUP1 MLOAD SWAP3 DUP2 MSTORE SWAP1 DUP5 ADD SWAP6 DUP5 ADD SWAP6 SWAP1 SWAP6 KECCAK256 SWAP5 MSTORE SWAP3 SWAP1 MSTORE DUP3 MSTORE SWAP1 KECCAK256 SLOAD DUP2 JUMP JUMPDEST CALLVALUE DUP1 ISZERO PUSH2 0x328 JUMPI PUSH1 0x0 DUP1 REVERT JUMPDEST POP PUSH2 0x1DB PUSH2 0x337 CALLDATASIZE PUSH1 0x4 PUSH2 0x1AFC JUMP JUMPDEST PUSH2 0xA31 JUMP JUMPDEST PUSH2 0x1DB PUSH2 0x34A CALLDATASIZE PUSH1 0x4 PUSH2 0x1B17 JUMP JUMPDEST PUSH2 0xA93 JUMP JUMPDEST CALLVALUE DUP1 ISZERO PUSH2 0x35B JUMPI PUSH1 0x0 DUP1 REVERT JUMPDEST POP PUSH2 0x1DB PUSH2 0x36A CALLDATASIZE PUSH1 0x4 PUSH2 0x189F JUMP JUMPDEST PUSH2 0xADA JUMP JUMPDEST CALLVALUE DUP1 ISZERO PUSH2 0x37B JUMPI PUSH1 0x0 DUP1 REVERT JUMPDEST POP PUSH2 0x1DB PUSH2 0xBB6 JUMP JUMPDEST CALLVALUE DUP1 ISZERO PUSH2 0x390 JUMPI PUSH1 0x0 DUP1 REVERT JUMPDEST POP PUSH2 0x399 PUSH2 0xBCA JUMP JUMPDEST PUSH1 0x40 MLOAD PUSH2 0x269 SWAP2 SWAP1 PUSH2 0x1BB7 JUMP JUMPDEST CALLVALUE DUP1 ISZERO PUSH2 0x3B2 JUMPI PUSH1 0x0 DUP1 REVERT JUMPDEST POP PUSH2 0x399 PUSH2 0x3C1 CALLDATASIZE PUSH1 0x4 PUSH2 0x1932 JUMP JUMPDEST PUSH2 0xC58 JUMP JUMPDEST CALLVALUE DUP1 ISZERO PUSH2 0x3D2 JUMPI PUSH1 0x0 DUP1 REVERT JUMPDEST POP PUSH2 0x29F PUSH2 0x3E1 CALLDATASIZE PUSH1 0x4 PUSH2 0x1BCA JUMP JUMPDEST PUSH1 0x2 PUSH1 0x20 SWAP1 DUP2 MSTORE PUSH1 0x0 SWAP3 DUP4 MSTORE PUSH1 0x40 DUP1 DUP5 KECCAK256 SWAP1 SWAP2 MSTORE SWAP1 DUP3 MSTORE SWAP1 KECCAK256 SLOAD DUP2 JUMP JUMPDEST CALLVALUE DUP1 ISZERO PUSH2 0x40A JUMPI PUSH1 0x0 DUP1 REVERT JUMPDEST POP PUSH1 0x0 SLOAD PUSH1 0x1 PUSH1 0x1 PUSH1 0xA0 SHL SUB AND JUMPDEST PUSH1 0x40 MLOAD PUSH1 0x1 PUSH1 0x1 PUSH1 0xA0 SHL SUB SWAP1 SWAP2 AND DUP2 MSTORE PUSH1 0x20 ADD PUSH2 0x269 JUMP JUMPDEST CALLVALUE DUP1 ISZERO PUSH2 0x43C JUMPI PUSH1 0x0 DUP1 REVERT JUMPDEST POP PUSH1 0x4 SLOAD PUSH2 0x418 SWAP1 PUSH1 0x1 PUSH1 0x1 PUSH1 0xA0 SHL SUB AND DUP2 JUMP JUMPDEST CALLVALUE DUP1 ISZERO PUSH2 0x45C JUMPI PUSH1 0x0 DUP1 REVERT JUMPDEST POP PUSH2 0x399 PUSH2 0x46B CALLDATASIZE PUSH1 0x4 PUSH2 0x1932 JUMP JUMPDEST PUSH2 0xC71 JUMP JUMPDEST CALLVALUE DUP1 ISZERO PUSH2 0x47C JUMPI PUSH1 0x0 DUP1 REVERT JUMPDEST POP PUSH2 0x1DB PUSH2 0x48B CALLDATASIZE PUSH1 0x4 PUSH2 0x1977 JUMP JUMPDEST PUSH2 0xD80 JUMP JUMPDEST CALLVALUE DUP1 ISZERO PUSH2 0x49C JUMPI PUSH1 0x0 DUP1 REVERT JUMPDEST POP PUSH2 0x418 PUSH32 0x0 DUP2 JUMP JUMPDEST CALLVALUE DUP1 ISZERO PUSH2 0x4D0 JUMPI PUSH1 0x0 DUP1 REVERT JUMPDEST POP PUSH2 0x1DB PUSH2 0x4DF CALLDATASIZE PUSH1 0x4 PUSH2 0x1AFC JUMP JUMPDEST PUSH2 0xE09 JUMP JUMPDEST CALLVALUE DUP1 ISZERO PUSH2 0x4F0 JUMPI PUSH1 0x0 DUP1 REVERT JUMPDEST POP PUSH2 0x29F PUSH2 0x2710 DUP2 JUMP JUMPDEST CALLVALUE DUP1 ISZERO PUSH2 0x506 JUMPI PUSH1 0x0 DUP1 REVERT JUMPDEST POP PUSH2 0x1DB PUSH2 0x515 CALLDATASIZE PUSH1 0x4 PUSH2 0x1BFD JUMP JUMPDEST PUSH2 0xE65 JUMP JUMPDEST PUSH2 0x1DB PUSH2 0x528 CALLDATASIZE PUSH1 0x4 PUSH2 0x189F JUMP JUMPDEST PUSH2 0xEFA JUMP JUMPDEST CALLVALUE DUP1 ISZERO PUSH2 0x539 JUMPI PUSH1 0x0 DUP1 REVERT JUMPDEST POP PUSH2 0x1DB PUSH2 0x548 CALLDATASIZE PUSH1 0x4 PUSH2 0x1C6B JUMP JUMPDEST PUSH2 0x1110 JUMP JUMPDEST CALLVALUE DUP1 ISZERO PUSH2 0x559 JUMPI PUSH1 0x0 DUP1 REVERT JUMPDEST POP PUSH2 0x1DB PUSH2 0x568 CALLDATASIZE PUSH1 0x4 PUSH2 0x1977 JUMP JUMPDEST PUSH2 0x117A JUMP JUMPDEST CALLVALUE DUP1 ISZERO PUSH2 0x579 JUMPI PUSH1 0x0 DUP1 REVERT JUMPDEST POP PUSH2 0x1DB PUSH2 0x588 CALLDATASIZE PUSH1 0x4 PUSH2 0x1AFC JUMP JUMPDEST PUSH2 0x11D4 JUMP JUMPDEST CALLVALUE DUP1 ISZERO PUSH2 0x599 JUMPI PUSH1 0x0 DUP1 REVERT JUMPDEST POP PUSH2 0x399 PUSH2 0x5A8 CALLDATASIZE PUSH1 0x4 PUSH2 0x1CA7 JUMP JUMPDEST PUSH2 0x1212 JUMP JUMPDEST CALLER PUSH32 0x0 PUSH1 0x1 PUSH1 0x1 PUSH1 0xA0 SHL SUB AND EQ PUSH2 0x62A JUMPI PUSH1 0x40 MLOAD PUSH3 0x461BCD PUSH1 0xE5 SHL DUP2 MSTORE PUSH1 0x20 PUSH1 0x4 DUP3 ADD MSTORE PUSH1 0x1E PUSH1 0x24 DUP3 ADD MSTORE PUSH32 0x4C7A4170703A20696E76616C696420656E64706F696E742063616C6C65720000 PUSH1 0x44 DUP3 ADD MSTORE PUSH1 0x64 ADD JUMPDEST PUSH1 0x40 MLOAD DUP1 SWAP2 SUB SWAP1 REVERT JUMPDEST PUSH2 0xFFFF DUP7 AND PUSH1 0x0 SWAP1 DUP2 MSTORE PUSH1 0x1 PUSH1 0x20 MSTORE PUSH1 0x40 DUP2 KECCAK256 DUP1 SLOAD PUSH2 0x648 SWAP1 PUSH2 0x1CF2 JUMP JUMPDEST DUP1 PUSH1 0x1F ADD PUSH1 0x20 DUP1 SWAP2 DIV MUL PUSH1 0x20 ADD PUSH1 0x40 MLOAD SWAP1 DUP2 ADD PUSH1 0x40 MSTORE DUP1 SWAP3 SWAP2 SWAP1 DUP2 DUP2 MSTORE PUSH1 0x20 ADD DUP3 DUP1 SLOAD PUSH2 0x674 SWAP1 PUSH2 0x1CF2 JUMP JUMPDEST DUP1 ISZERO PUSH2 0x6C1 JUMPI DUP1 PUSH1 0x1F LT PUSH2 0x696 JUMPI PUSH2 0x100 DUP1 DUP4 SLOAD DIV MUL DUP4 MSTORE SWAP2 PUSH1 0x20 ADD SWAP2 PUSH2 0x6C1 JUMP JUMPDEST DUP3 ADD SWAP2 SWAP1 PUSH1 0x0 MSTORE PUSH1 0x20 PUSH1 0x0 KECCAK256 SWAP1 JUMPDEST DUP2 SLOAD DUP2 MSTORE SWAP1 PUSH1 0x1 ADD SWAP1 PUSH1 0x20 ADD DUP1 DUP4 GT PUSH2 0x6A4 JUMPI DUP3 SWAP1 SUB PUSH1 0x1F AND DUP3 ADD SWAP2 JUMPDEST POP POP POP POP POP SWAP1 POP DUP1 MLOAD DUP7 DUP7 SWAP1 POP EQ DUP1 ISZERO PUSH2 0x6DC JUMPI POP PUSH1 0x0 DUP2 MLOAD GT JUMPDEST DUP1 ISZERO PUSH2 0x704 JUMPI POP DUP1 MLOAD PUSH1 0x20 DUP3 ADD KECCAK256 PUSH1 0x40 MLOAD PUSH2 0x6FA SWAP1 DUP9 SWAP1 DUP9 SWAP1 PUSH2 0x1D2C JUMP JUMPDEST PUSH1 0x40 MLOAD DUP1 SWAP2 SUB SWAP1 KECCAK256 EQ JUMPDEST PUSH2 0x75F JUMPI PUSH1 0x40 MLOAD PUSH3 0x461BCD PUSH1 0xE5 SHL DUP2 MSTORE PUSH1 0x20 PUSH1 0x4 DUP3 ADD MSTORE PUSH1 0x26 PUSH1 0x24 DUP3 ADD MSTORE PUSH32 0x4C7A4170703A20696E76616C696420736F757263652073656E64696E6720636F PUSH1 0x44 DUP3 ADD MSTORE PUSH6 0x1B9D1C9858DD PUSH1 0xD2 SHL PUSH1 0x64 DUP3 ADD MSTORE PUSH1 0x84 ADD PUSH2 0x621 JUMP JUMPDEST PUSH2 0x7D5 DUP8 DUP8 DUP8 DUP1 DUP1 PUSH1 0x1F ADD PUSH1 0x20 DUP1 SWAP2 DIV MUL PUSH1 0x20 ADD PUSH1 0x40 MLOAD SWAP1 DUP2 ADD PUSH1 0x40 MSTORE DUP1 SWAP4 SWAP3 SWAP2 SWAP1 DUP2 DUP2 MSTORE PUSH1 0x20 ADD DUP4 DUP4 DUP1 DUP3 DUP5 CALLDATACOPY PUSH1 0x0 SWAP3 ADD SWAP2 SWAP1 SWAP2 MSTORE POP POP PUSH1 0x40 DUP1 MLOAD PUSH1 0x20 PUSH1 0x1F DUP11 ADD DUP2 SWAP1 DIV DUP2 MUL DUP3 ADD DUP2 ADD SWAP1 SWAP3 MSTORE DUP9 DUP2 MSTORE DUP11 SWAP4 POP SWAP2 POP DUP9 SWAP1 DUP9 SWAP1 DUP2 SWAP1 DUP5 ADD DUP4 DUP3 DUP1 DUP3 DUP5 CALLDATACOPY PUSH1 0x0 SWAP3 ADD SWAP2 SWAP1 SWAP2 MSTORE POP PUSH2 0x12C3 SWAP3 POP POP POP JUMP JUMPDEST POP POP POP POP POP POP POP JUMP JUMPDEST PUSH2 0x7E6 PUSH2 0x133C JUMP JUMPDEST PUSH1 0x40 MLOAD PUSH4 0x7E0DB17 PUSH1 0xE0 SHL DUP2 MSTORE PUSH2 0xFFFF DUP3 AND PUSH1 0x4 DUP3 ADD MSTORE PUSH32 0x0 PUSH1 0x1 PUSH1 0x1 PUSH1 0xA0 SHL SUB AND SWAP1 PUSH4 0x7E0DB17 SWAP1 PUSH1 0x24 ADD JUMPDEST PUSH1 0x0 PUSH1 0x40 MLOAD DUP1 DUP4 SUB DUP2 PUSH1 0x0 DUP8 DUP1 EXTCODESIZE ISZERO DUP1 ISZERO PUSH2 0x84C JUMPI PUSH1 0x0 DUP1 REVERT JUMPDEST POP GAS CALL ISZERO DUP1 ISZERO PUSH2 0x860 JUMPI RETURNDATASIZE PUSH1 0x0 DUP1 RETURNDATACOPY RETURNDATASIZE PUSH1 0x0 REVERT JUMPDEST POP POP POP POP POP JUMP JUMPDEST PUSH2 0x86F PUSH2 0x133C JUMP JUMPDEST PUSH2 0xFFFF SWAP1 SWAP2 AND PUSH1 0x0 SWAP1 DUP2 MSTORE PUSH1 0x3 PUSH1 0x20 MSTORE PUSH1 0x40 SWAP1 KECCAK256 SSTORE JUMP JUMPDEST PUSH2 0x88E PUSH2 0x133C JUMP JUMPDEST PUSH1 0x40 MLOAD PUSH4 0x10DDB137 PUSH1 0xE0 SHL DUP2 MSTORE PUSH2 0xFFFF DUP3 AND PUSH1 0x4 DUP3 ADD MSTORE PUSH32 0x0 PUSH1 0x1 PUSH1 0x1 PUSH1 0xA0 SHL SUB AND SWAP1 PUSH4 0x10DDB137 SWAP1 PUSH1 0x24 ADD PUSH2 0x832 JUMP JUMPDEST PUSH2 0xFFFF DUP4 AND PUSH1 0x0 SWAP1 DUP2 MSTORE PUSH1 0x1 PUSH1 0x20 MSTORE PUSH1 0x40 DUP2 KECCAK256 DUP1 SLOAD DUP3 SWAP2 SWAP1 PUSH2 0x8FF SWAP1 PUSH2 0x1CF2 JUMP JUMPDEST DUP1 PUSH1 0x1F ADD PUSH1 0x20 DUP1 SWAP2 DIV MUL PUSH1 0x20 ADD PUSH1 0x40 MLOAD SWAP1 DUP2 ADD PUSH1 0x40 MSTORE DUP1 SWAP3 SWAP2 SWAP1 DUP2 DUP2 MSTORE PUSH1 0x20 ADD DUP3 DUP1 SLOAD PUSH2 0x92B SWAP1 PUSH2 0x1CF2 JUMP JUMPDEST DUP1 ISZERO PUSH2 0x978 JUMPI DUP1 PUSH1 0x1F LT PUSH2 0x94D JUMPI PUSH2 0x100 DUP1 DUP4 SLOAD DIV MUL DUP4 MSTORE SWAP2 PUSH1 0x20 ADD SWAP2 PUSH2 0x978 JUMP JUMPDEST DUP3 ADD SWAP2 SWAP1 PUSH1 0x0 MSTORE PUSH1 0x20 PUSH1 0x0 KECCAK256 SWAP1 JUMPDEST DUP2 SLOAD DUP2 MSTORE SWAP1 PUSH1 0x1 ADD SWAP1 PUSH1 0x20 ADD DUP1 DUP4 GT PUSH2 0x95B JUMPI DUP3 SWAP1 SUB PUSH1 0x1F AND DUP3 ADD SWAP2 JUMPDEST POP POP POP POP POP SWAP1 POP DUP4 DUP4 PUSH1 0x40 MLOAD PUSH2 0x98F SWAP3 SWAP2 SWAP1 PUSH2 0x1D2C JUMP JUMPDEST PUSH1 0x40 MLOAD DUP1 SWAP2 SUB SWAP1 KECCAK256 DUP2 DUP1 MLOAD SWAP1 PUSH1 0x20 ADD KECCAK256 EQ SWAP2 POP POP JUMPDEST SWAP4 SWAP3 POP POP POP JUMP JUMPDEST PUSH2 0x9B3 PUSH2 0x133C JUMP JUMPDEST PUSH1 0x40 MLOAD PUSH4 0x42D65A8D PUSH1 0xE0 SHL DUP2 MSTORE PUSH1 0x1 PUSH1 0x1 PUSH1 0xA0 SHL SUB PUSH32 0x0 AND SWAP1 PUSH4 0x42D65A8D SWAP1 PUSH2 0xA03 SWAP1 DUP7 SWAP1 DUP7 SWAP1 DUP7 SWAP1 PUSH1 0x4 ADD PUSH2 0x1D65 JUMP JUMPDEST PUSH1 0x0 PUSH1 0x40 MLOAD DUP1 DUP4 SUB DUP2 PUSH1 0x0 DUP8 DUP1 EXTCODESIZE ISZERO DUP1 ISZERO PUSH2 0xA1D JUMPI PUSH1 0x0 DUP1 REVERT JUMPDEST POP GAS CALL ISZERO DUP1 ISZERO PUSH2 0x7D5 JUMPI RETURNDATASIZE PUSH1 0x0 DUP1 RETURNDATACOPY RETURNDATASIZE PUSH1 0x0 REVERT JUMPDEST PUSH2 0xA39 PUSH2 0x133C JUMP JUMPDEST PUSH1 0x40 MLOAD PUSH12 0xFFFFFFFFFFFFFFFFFFFFFFFF NOT PUSH1 0x60 DUP4 DUP2 SHL DUP3 AND PUSH1 0x20 DUP5 ADD MSTORE ADDRESS SWAP1 SHL AND PUSH1 0x34 DUP3 ADD MSTORE PUSH1 0x48 ADD PUSH1 0x40 DUP1 MLOAD PUSH1 0x1F NOT DUP2 DUP5 SUB ADD DUP2 MSTORE SWAP2 DUP2 MSTORE PUSH1 0x7 SLOAD PUSH2 0xFFFF AND PUSH1 0x0 SWAP1 DUP2 MSTORE PUSH1 0x1 PUSH1 0x20 MSTORE KECCAK256 SWAP1 PUSH2 0xA8F SWAP1 DUP3 PUSH2 0x1DCB JUMP JUMPDEST POP POP JUMP JUMPDEST PUSH1 0x0 DUP2 PUSH1 0x40 MLOAD PUSH1 0x20 ADD PUSH2 0xAA6 SWAP2 SWAP1 PUSH2 0x1BB7 JUMP JUMPDEST PUSH1 0x40 DUP1 MLOAD PUSH1 0x1F NOT DUP2 DUP5 SUB ADD DUP2 MSTORE PUSH1 0x7 SLOAD PUSH1 0x20 DUP5 ADD SWAP1 SWAP3 MSTORE PUSH1 0x0 DUP1 DUP5 MSTORE SWAP1 SWAP4 POP PUSH2 0xA8F SWAP3 PUSH2 0xFFFF SWAP1 SWAP3 AND SWAP2 DUP5 SWAP2 CALLER SWAP2 CALLVALUE PUSH2 0x1369 JUMP JUMPDEST CALLER ADDRESS EQ PUSH2 0xB38 JUMPI PUSH1 0x40 MLOAD PUSH3 0x461BCD PUSH1 0xE5 SHL DUP2 MSTORE PUSH1 0x20 PUSH1 0x4 DUP3 ADD MSTORE PUSH1 0x26 PUSH1 0x24 DUP3 ADD MSTORE PUSH32 0x4E6F6E626C6F636B696E674C7A4170703A2063616C6C6572206D757374206265 PUSH1 0x44 DUP3 ADD MSTORE PUSH6 0x204C7A41707 PUSH1 0xD4 SHL PUSH1 0x64 DUP3 ADD MSTORE PUSH1 0x84 ADD PUSH2 0x621 JUMP JUMPDEST PUSH2 0xBAE DUP7 DUP7 DUP7 DUP1 DUP1 PUSH1 0x1F ADD PUSH1 0x20 DUP1 SWAP2 DIV MUL PUSH1 0x20 ADD PUSH1 0x40 MLOAD SWAP1 DUP2 ADD PUSH1 0x40 MSTORE DUP1 SWAP4 SWAP3 SWAP2 SWAP1 DUP2 DUP2 MSTORE PUSH1 0x20 ADD DUP4 DUP4 DUP1 DUP3 DUP5 CALLDATACOPY PUSH1 0x0 SWAP3 ADD SWAP2 SWAP1 SWAP2 MSTORE POP POP PUSH1 0x40 DUP1 MLOAD PUSH1 0x20 PUSH1 0x1F DUP10 ADD DUP2 SWAP1 DIV DUP2 MUL DUP3 ADD DUP2 ADD SWAP1 SWAP3 MSTORE DUP8 DUP2 MSTORE DUP10 SWAP4 POP SWAP2 POP DUP8 SWAP1 DUP8 SWAP1 DUP2 SWAP1 DUP5 ADD DUP4 DUP3 DUP1 DUP3 DUP5 CALLDATACOPY PUSH1 0x0 SWAP3 ADD SWAP2 SWAP1 SWAP2 MSTORE POP PUSH2 0x150E SWAP3 POP POP POP JUMP JUMPDEST POP POP POP POP POP POP JUMP JUMPDEST PUSH2 0xBBE PUSH2 0x133C JUMP JUMPDEST PUSH2 0xBC8 PUSH1 0x0 PUSH2 0x152F JUMP JUMPDEST JUMP JUMPDEST PUSH1 0x6 DUP1 SLOAD PUSH2 0xBD7 SWAP1 PUSH2 0x1CF2 JUMP JUMPDEST DUP1 PUSH1 0x1F ADD PUSH1 0x20 DUP1 SWAP2 DIV MUL PUSH1 0x20 ADD PUSH1 0x40 MLOAD SWAP1 DUP2 ADD PUSH1 0x40 MSTORE DUP1 SWAP3 SWAP2 SWAP1 DUP2 DUP2 MSTORE PUSH1 0x20 ADD DUP3 DUP1 SLOAD PUSH2 0xC03 SWAP1 PUSH2 0x1CF2 JUMP JUMPDEST DUP1 ISZERO PUSH2 0xC50 JUMPI DUP1 PUSH1 0x1F LT PUSH2 0xC25 JUMPI PUSH2 0x100 DUP1 DUP4 SLOAD DIV MUL DUP4 MSTORE SWAP2 PUSH1 0x20 ADD SWAP2 PUSH2 0xC50 JUMP JUMPDEST DUP3 ADD SWAP2 SWAP1 PUSH1 0x0 MSTORE PUSH1 0x20 PUSH1 0x0 KECCAK256 SWAP1 JUMPDEST DUP2 SLOAD DUP2 MSTORE SWAP1 PUSH1 0x1 ADD SWAP1 PUSH1 0x20 ADD DUP1 DUP4 GT PUSH2 0xC33 JUMPI DUP3 SWAP1 SUB PUSH1 0x1F AND DUP3 ADD SWAP2 JUMPDEST POP POP POP POP POP DUP2 JUMP JUMPDEST PUSH1 0x1 PUSH1 0x20 MSTORE PUSH1 0x0 SWAP1 DUP2 MSTORE PUSH1 0x40 SWAP1 KECCAK256 DUP1 SLOAD PUSH2 0xBD7 SWAP1 PUSH2 0x1CF2 JUMP JUMPDEST PUSH2 0xFFFF DUP2 AND PUSH1 0x0 SWAP1 DUP2 MSTORE PUSH1 0x1 PUSH1 0x20 MSTORE PUSH1 0x40 DUP2 KECCAK256 DUP1 SLOAD PUSH1 0x60 SWAP3 SWAP2 SWAP1 PUSH2 0xC94 SWAP1 PUSH2 0x1CF2 JUMP JUMPDEST DUP1 PUSH1 0x1F ADD PUSH1 0x20 DUP1 SWAP2 DIV MUL PUSH1 0x20 ADD PUSH1 0x40 MLOAD SWAP1 DUP2 ADD PUSH1 0x40 MSTORE DUP1 SWAP3 SWAP2 SWAP1 DUP2 DUP2 MSTORE PUSH1 0x20 ADD DUP3 DUP1 SLOAD PUSH2 0xCC0 SWAP1 PUSH2 0x1CF2 JUMP JUMPDEST DUP1 ISZERO PUSH2 0xD0D JUMPI DUP1 PUSH1 0x1F LT PUSH2 0xCE2 JUMPI PUSH2 0x100 DUP1 DUP4 SLOAD DIV MUL DUP4 MSTORE SWAP2 PUSH1 0x20 ADD SWAP2 PUSH2 0xD0D JUMP JUMPDEST DUP3 ADD SWAP2 SWAP1 PUSH1 0x0 MSTORE PUSH1 0x20 PUSH1 0x0 KECCAK256 SWAP1 JUMPDEST DUP2 SLOAD DUP2 MSTORE SWAP1 PUSH1 0x1 ADD SWAP1 PUSH1 0x20 ADD DUP1 DUP4 GT PUSH2 0xCF0 JUMPI DUP3 SWAP1 SUB PUSH1 0x1F AND DUP3 ADD SWAP2 JUMPDEST POP POP POP POP POP SWAP1 POP DUP1 MLOAD PUSH1 0x0 SUB PUSH2 0xD65 JUMPI PUSH1 0x40 MLOAD PUSH3 0x461BCD PUSH1 0xE5 SHL DUP2 MSTORE PUSH1 0x20 PUSH1 0x4 DUP3 ADD MSTORE PUSH1 0x1D PUSH1 0x24 DUP3 ADD MSTORE PUSH32 0x4C7A4170703A206E6F20747275737465642070617468207265636F7264000000 PUSH1 0x44 DUP3 ADD MSTORE PUSH1 0x64 ADD PUSH2 0x621 JUMP JUMPDEST PUSH2 0x9A4 PUSH1 0x0 PUSH1 0x14 DUP4 MLOAD PUSH2 0xD78 SWAP2 SWAP1 PUSH2 0x1EA0 JUMP JUMPDEST DUP4 SWAP2 SWAP1 PUSH2 0x157F JUMP JUMPDEST PUSH2 0xD88 PUSH2 0x133C JUMP JUMPDEST DUP2 DUP2 ADDRESS PUSH1 0x40 MLOAD PUSH1 0x20 ADD PUSH2 0xD9D SWAP4 SWAP3 SWAP2 SWAP1 PUSH2 0x1EB9 JUMP JUMPDEST PUSH1 0x40 DUP1 MLOAD PUSH1 0x1F NOT DUP2 DUP5 SUB ADD DUP2 MSTORE SWAP2 DUP2 MSTORE PUSH2 0xFFFF DUP6 AND PUSH1 0x0 SWAP1 DUP2 MSTORE PUSH1 0x1 PUSH1 0x20 MSTORE KECCAK256 SWAP1 PUSH2 0xDC8 SWAP1 DUP3 PUSH2 0x1DCB JUMP JUMPDEST POP PUSH32 0x8C0400CFE2D1199B1A725C78960BCC2A344D869B80590D0F2BD005DB15A572CE DUP4 DUP4 DUP4 PUSH1 0x40 MLOAD PUSH2 0xDFC SWAP4 SWAP3 SWAP2 SWAP1 PUSH2 0x1D65 JUMP JUMPDEST PUSH1 0x40 MLOAD DUP1 SWAP2 SUB SWAP1 LOG1 POP POP POP JUMP JUMPDEST PUSH2 0xE11 PUSH2 0x133C JUMP JUMPDEST PUSH1 0x4 DUP1 SLOAD PUSH1 0x1 PUSH1 0x1 PUSH1 0xA0 SHL SUB NOT AND PUSH1 0x1 PUSH1 0x1 PUSH1 0xA0 SHL SUB DUP4 AND SWAP1 DUP2 OR SWAP1 SWAP2 SSTORE PUSH1 0x40 MLOAD SWAP1 DUP2 MSTORE PUSH32 0x5DB758E995A17EC1AD84BDEF7E8C3293A0BD6179BCCE400DFF5D4C3D87DB726B SWAP1 PUSH1 0x20 ADD PUSH1 0x40 MLOAD DUP1 SWAP2 SUB SWAP1 LOG1 POP JUMP JUMPDEST PUSH2 0xE6D PUSH2 0x133C JUMP JUMPDEST PUSH1 0x40 MLOAD PUSH4 0x32FB62E7 PUSH1 0xE2 SHL DUP2 MSTORE PUSH1 0x1 PUSH1 0x1 PUSH1 0xA0 SHL SUB PUSH32 0x0 AND SWAP1 PUSH4 0xCBED8B9C SWAP1 PUSH2 0xEC1 SWAP1 DUP9 SWAP1 DUP9 SWAP1 DUP9 SWAP1 DUP9 SWAP1 DUP9 SWAP1 PUSH1 0x4 ADD PUSH2 0x1EDF JUMP JUMPDEST PUSH1 0x0 PUSH1 0x40 MLOAD DUP1 DUP4 SUB DUP2 PUSH1 0x0 DUP8 DUP1 EXTCODESIZE ISZERO DUP1 ISZERO PUSH2 0xEDB JUMPI PUSH1 0x0 DUP1 REVERT JUMPDEST POP GAS CALL ISZERO DUP1 ISZERO PUSH2 0xEEF JUMPI RETURNDATASIZE PUSH1 0x0 DUP1 RETURNDATACOPY RETURNDATASIZE PUSH1 0x0 REVERT JUMPDEST POP POP POP POP POP POP POP POP POP JUMP JUMPDEST PUSH2 0xFFFF DUP7 AND PUSH1 0x0 SWAP1 DUP2 MSTORE PUSH1 0x5 PUSH1 0x20 MSTORE PUSH1 0x40 DUP1 DUP3 KECCAK256 SWAP1 MLOAD PUSH2 0xF1D SWAP1 DUP9 SWAP1 DUP9 SWAP1 PUSH2 0x1D2C JUMP JUMPDEST SWAP1 DUP2 MSTORE PUSH1 0x40 DUP1 MLOAD PUSH1 0x20 SWAP3 DUP2 SWAP1 SUB DUP4 ADD SWAP1 KECCAK256 PUSH1 0x1 PUSH1 0x1 PUSH1 0x40 SHL SUB DUP8 AND PUSH1 0x0 SWAP1 DUP2 MSTORE SWAP3 MSTORE SWAP1 KECCAK256 SLOAD SWAP1 POP DUP1 PUSH2 0xF9D JUMPI PUSH1 0x40 MLOAD PUSH3 0x461BCD PUSH1 0xE5 SHL DUP2 MSTORE PUSH1 0x20 PUSH1 0x4 DUP3 ADD MSTORE PUSH1 0x23 PUSH1 0x24 DUP3 ADD MSTORE PUSH32 0x4E6F6E626C6F636B696E674C7A4170703A206E6F2073746F726564206D657373 PUSH1 0x44 DUP3 ADD MSTORE PUSH3 0x616765 PUSH1 0xE8 SHL PUSH1 0x64 DUP3 ADD MSTORE PUSH1 0x84 ADD PUSH2 0x621 JUMP JUMPDEST DUP1 DUP4 DUP4 PUSH1 0x40 MLOAD PUSH2 0xFAE SWAP3 SWAP2 SWAP1 PUSH2 0x1D2C JUMP JUMPDEST PUSH1 0x40 MLOAD DUP1 SWAP2 SUB SWAP1 KECCAK256 EQ PUSH2 0x100D JUMPI PUSH1 0x40 MLOAD PUSH3 0x461BCD PUSH1 0xE5 SHL DUP2 MSTORE PUSH1 0x20 PUSH1 0x4 DUP3 ADD MSTORE PUSH1 0x21 PUSH1 0x24 DUP3 ADD MSTORE PUSH32 0x4E6F6E626C6F636B696E674C7A4170703A20696E76616C6964207061796C6F61 PUSH1 0x44 DUP3 ADD MSTORE PUSH1 0x19 PUSH1 0xFA SHL PUSH1 0x64 DUP3 ADD MSTORE PUSH1 0x84 ADD PUSH2 0x621 JUMP JUMPDEST PUSH2 0xFFFF DUP8 AND PUSH1 0x0 SWAP1 DUP2 MSTORE PUSH1 0x5 PUSH1 0x20 MSTORE PUSH1 0x40 DUP1 DUP3 KECCAK256 SWAP1 MLOAD PUSH2 0x1030 SWAP1 DUP10 SWAP1 DUP10 SWAP1 PUSH2 0x1D2C JUMP JUMPDEST SWAP1 DUP2 MSTORE PUSH1 0x40 DUP1 MLOAD PUSH1 0x20 SWAP3 DUP2 SWAP1 SUB DUP4 ADD DUP2 KECCAK256 PUSH1 0x1 PUSH1 0x1 PUSH1 0x40 SHL SUB DUP10 AND PUSH1 0x0 SWAP1 DUP2 MSTORE SWAP1 DUP5 MSTORE DUP3 SWAP1 KECCAK256 SWAP4 SWAP1 SWAP4 SSTORE PUSH1 0x1F DUP9 ADD DUP3 SWAP1 DIV DUP3 MUL DUP4 ADD DUP3 ADD SWAP1 MSTORE DUP7 DUP3 MSTORE PUSH2 0x10C8 SWAP2 DUP10 SWAP2 DUP10 SWAP1 DUP10 SWAP1 DUP2 SWAP1 DUP5 ADD DUP4 DUP3 DUP1 DUP3 DUP5 CALLDATACOPY PUSH1 0x0 SWAP3 ADD SWAP2 SWAP1 SWAP2 MSTORE POP POP PUSH1 0x40 DUP1 MLOAD PUSH1 0x20 PUSH1 0x1F DUP11 ADD DUP2 SWAP1 DIV DUP2 MUL DUP3 ADD DUP2 ADD SWAP1 SWAP3 MSTORE DUP9 DUP2 MSTORE DUP11 SWAP4 POP SWAP2 POP DUP9 SWAP1 DUP9 SWAP1 DUP2 SWAP1 DUP5 ADD DUP4 DUP3 DUP1 DUP3 DUP5 CALLDATACOPY PUSH1 0x0 SWAP3 ADD SWAP2 SWAP1 SWAP2 MSTORE POP PUSH2 0x150E SWAP3 POP POP POP JUMP JUMPDEST PUSH32 0xC264D91F3ADC5588250E1551F547752CA0CFA8F6B530D243B9F9F4CAB10EA8E5 DUP8 DUP8 DUP8 DUP8 DUP6 PUSH1 0x40 MLOAD PUSH2 0x10FF SWAP6 SWAP5 SWAP4 SWAP3 SWAP2 SWAP1 PUSH2 0x1F18 JUMP JUMPDEST PUSH1 0x40 MLOAD DUP1 SWAP2 SUB SWAP1 LOG1 POP POP POP POP POP POP POP JUMP JUMPDEST PUSH2 0x1118 PUSH2 0x133C JUMP JUMPDEST PUSH2 0xFFFF DUP4 DUP2 AND PUSH1 0x0 DUP2 DUP2 MSTORE PUSH1 0x2 PUSH1 0x20 SWAP1 DUP2 MSTORE PUSH1 0x40 DUP1 DUP4 KECCAK256 SWAP5 DUP8 AND DUP1 DUP5 MSTORE SWAP5 DUP3 MSTORE SWAP2 DUP3 SWAP1 KECCAK256 DUP6 SWAP1 SSTORE DUP2 MLOAD SWAP3 DUP4 MSTORE DUP3 ADD SWAP3 SWAP1 SWAP3 MSTORE SWAP1 DUP2 ADD DUP3 SWAP1 MSTORE PUSH32 0x9D5C7C0B934DA8FEFA9C7760C98383778A12DFBFC0C3B3106518F43FB9508AC0 SWAP1 PUSH1 0x60 ADD PUSH2 0xDFC JUMP JUMPDEST PUSH2 0x1182 PUSH2 0x133C JUMP JUMPDEST PUSH2 0xFFFF DUP4 AND PUSH1 0x0 SWAP1 DUP2 MSTORE PUSH1 0x1 PUSH1 0x20 MSTORE PUSH1 0x40 SWAP1 KECCAK256 PUSH2 0x11A0 DUP3 DUP5 DUP4 PUSH2 0x1F53 JUMP JUMPDEST POP PUSH32 0xFA41487AD5D6728F0B19276FA1EDDC16558578F5109FC39D2DC33C3230470DAB DUP4 DUP4 DUP4 PUSH1 0x40 MLOAD PUSH2 0xDFC SWAP4 SWAP3 SWAP2 SWAP1 PUSH2 0x1D65 JUMP JUMPDEST PUSH2 0x11DC PUSH2 0x133C JUMP JUMPDEST PUSH1 0x1 PUSH1 0x1 PUSH1 0xA0 SHL SUB DUP2 AND PUSH2 0x1206 JUMPI PUSH1 0x40 MLOAD PUSH4 0x1E4FBDF7 PUSH1 0xE0 SHL DUP2 MSTORE PUSH1 0x0 PUSH1 0x4 DUP3 ADD MSTORE PUSH1 0x24 ADD PUSH2 0x621 JUMP JUMPDEST PUSH2 0x120F DUP2 PUSH2 0x152F JUMP JUMPDEST POP JUMP JUMPDEST PUSH1 0x40 MLOAD PUSH4 0x3D7B2F6F PUSH1 0xE2 SHL DUP2 MSTORE PUSH2 0xFFFF DUP1 DUP7 AND PUSH1 0x4 DUP4 ADD MSTORE DUP5 AND PUSH1 0x24 DUP3 ADD MSTORE ADDRESS PUSH1 0x44 DUP3 ADD MSTORE PUSH1 0x64 DUP2 ADD DUP3 SWAP1 MSTORE PUSH1 0x60 SWAP1 PUSH32 0x0 PUSH1 0x1 PUSH1 0x1 PUSH1 0xA0 SHL SUB AND SWAP1 PUSH4 0xF5ECBDBC SWAP1 PUSH1 0x84 ADD PUSH1 0x0 PUSH1 0x40 MLOAD DUP1 DUP4 SUB DUP2 DUP7 GAS STATICCALL ISZERO DUP1 ISZERO PUSH2 0x1292 JUMPI RETURNDATASIZE PUSH1 0x0 DUP1 RETURNDATACOPY RETURNDATASIZE PUSH1 0x0 REVERT JUMPDEST POP POP POP POP PUSH1 0x40 MLOAD RETURNDATASIZE PUSH1 0x0 DUP3 RETURNDATACOPY PUSH1 0x1F RETURNDATASIZE SWAP1 DUP2 ADD PUSH1 0x1F NOT AND DUP3 ADD PUSH1 0x40 MSTORE PUSH2 0x12BA SWAP2 SWAP1 DUP2 ADD SWAP1 PUSH2 0x2042 JUMP JUMPDEST SWAP6 SWAP5 POP POP POP POP POP JUMP JUMPDEST PUSH1 0x0 DUP1 PUSH2 0x1326 GAS PUSH1 0x96 PUSH4 0x66AD5C8A PUSH1 0xE0 SHL DUP10 DUP10 DUP10 DUP10 PUSH1 0x40 MLOAD PUSH1 0x24 ADD PUSH2 0x12EB SWAP5 SWAP4 SWAP3 SWAP2 SWAP1 PUSH2 0x208A JUMP JUMPDEST PUSH1 0x40 DUP1 MLOAD PUSH1 0x1F NOT DUP2 DUP5 SUB ADD DUP2 MSTORE SWAP2 SWAP1 MSTORE PUSH1 0x20 DUP2 ADD DUP1 MLOAD PUSH1 0x1 PUSH1 0x1 PUSH1 0xE0 SHL SUB AND PUSH1 0x1 PUSH1 0x1 PUSH1 0xE0 SHL SUB NOT SWAP1 SWAP4 AND SWAP3 SWAP1 SWAP3 OR SWAP1 SWAP2 MSTORE ADDRESS SWAP3 SWAP2 SWAP1 PUSH2 0x168C JUMP JUMPDEST SWAP2 POP SWAP2 POP DUP2 PUSH2 0xBAE JUMPI PUSH2 0xBAE DUP7 DUP7 DUP7 DUP7 DUP6 PUSH2 0x1716 JUMP JUMPDEST PUSH1 0x0 SLOAD PUSH1 0x1 PUSH1 0x1 PUSH1 0xA0 SHL SUB AND CALLER EQ PUSH2 0xBC8 JUMPI PUSH1 0x40 MLOAD PUSH4 0x118CDAA7 PUSH1 0xE0 SHL DUP2 MSTORE CALLER PUSH1 0x4 DUP3 ADD MSTORE PUSH1 0x24 ADD PUSH2 0x621 JUMP JUMPDEST PUSH2 0xFFFF DUP7 AND PUSH1 0x0 SWAP1 DUP2 MSTORE PUSH1 0x1 PUSH1 0x20 MSTORE PUSH1 0x40 DUP2 KECCAK256 DUP1 SLOAD PUSH2 0x1387 SWAP1 PUSH2 0x1CF2 JUMP JUMPDEST DUP1 PUSH1 0x1F ADD PUSH1 0x20 DUP1 SWAP2 DIV MUL PUSH1 0x20 ADD PUSH1 0x40 MLOAD SWAP1 DUP2 ADD PUSH1 0x40 MSTORE DUP1 SWAP3 SWAP2 SWAP1 DUP2 DUP2 MSTORE PUSH1 0x20 ADD DUP3 DUP1 SLOAD PUSH2 0x13B3 SWAP1 PUSH2 0x1CF2 JUMP JUMPDEST DUP1 ISZERO PUSH2 0x1400 JUMPI DUP1 PUSH1 0x1F LT PUSH2 0x13D5 JUMPI PUSH2 0x100 DUP1 DUP4 SLOAD DIV MUL DUP4 MSTORE SWAP2 PUSH1 0x20 ADD SWAP2 PUSH2 0x1400 JUMP JUMPDEST DUP3 ADD SWAP2 SWAP1 PUSH1 0x0 MSTORE PUSH1 0x20 PUSH1 0x0 KECCAK256 SWAP1 JUMPDEST DUP2 SLOAD DUP2 MSTORE SWAP1 PUSH1 0x1 ADD SWAP1 PUSH1 0x20 ADD DUP1 DUP4 GT PUSH2 0x13E3 JUMPI DUP3 SWAP1 SUB PUSH1 0x1F AND DUP3 ADD SWAP2 JUMPDEST POP POP POP POP POP SWAP1 POP DUP1 MLOAD PUSH1 0x0 SUB PUSH2 0x1471 JUMPI PUSH1 0x40 MLOAD PUSH3 0x461BCD PUSH1 0xE5 SHL DUP2 MSTORE PUSH1 0x20 PUSH1 0x4 DUP3 ADD MSTORE PUSH1 0x30 PUSH1 0x24 DUP3 ADD MSTORE PUSH32 0x4C7A4170703A2064657374696E6174696F6E20636861696E206973206E6F7420 PUSH1 0x44 DUP3 ADD MSTORE PUSH16 0x61207472757374656420736F75726365 PUSH1 0x80 SHL PUSH1 0x64 DUP3 ADD MSTORE PUSH1 0x84 ADD PUSH2 0x621 JUMP JUMPDEST PUSH2 0x147C DUP8 DUP8 MLOAD PUSH2 0x17B3 JUMP JUMPDEST PUSH1 0x40 MLOAD PUSH3 0xC58031 PUSH1 0xE8 SHL DUP2 MSTORE PUSH1 0x1 PUSH1 0x1 PUSH1 0xA0 SHL SUB PUSH32 0x0 AND SWAP1 PUSH4 0xC5803100 SWAP1 DUP5 SWAP1 PUSH2 0x14D3 SWAP1 DUP12 SWAP1 DUP7 SWAP1 DUP13 SWAP1 DUP13 SWAP1 DUP13 SWAP1 DUP13 SWAP1 PUSH1 0x4 ADD PUSH2 0x20C8 JUMP JUMPDEST PUSH1 0x0 PUSH1 0x40 MLOAD DUP1 DUP4 SUB DUP2 DUP6 DUP9 DUP1 EXTCODESIZE ISZERO DUP1 ISZERO PUSH2 0x14EC JUMPI PUSH1 0x0 DUP1 REVERT JUMPDEST POP GAS CALL ISZERO DUP1 ISZERO PUSH2 0x1500 JUMPI RETURNDATASIZE PUSH1 0x0 DUP1 RETURNDATACOPY RETURNDATASIZE PUSH1 0x0 REVERT JUMPDEST POP POP POP POP POP POP POP POP POP POP POP POP JUMP JUMPDEST DUP1 DUP1 PUSH1 0x20 ADD SWAP1 MLOAD DUP2 ADD SWAP1 PUSH2 0x1522 SWAP2 SWAP1 PUSH2 0x2042 JUMP JUMPDEST PUSH1 0x6 SWAP1 PUSH2 0x860 SWAP1 DUP3 PUSH2 0x1DCB JUMP JUMPDEST PUSH1 0x0 DUP1 SLOAD PUSH1 0x1 PUSH1 0x1 PUSH1 0xA0 SHL SUB DUP4 DUP2 AND PUSH1 0x1 PUSH1 0x1 PUSH1 0xA0 SHL SUB NOT DUP4 AND DUP2 OR DUP5 SSTORE PUSH1 0x40 MLOAD SWAP2 SWAP1 SWAP3 AND SWAP3 DUP4 SWAP2 PUSH32 0x8BE0079C531659141344CD1FD0A4F28419497F9722A3DAAFE3B4186F6B6457E0 SWAP2 SWAP1 LOG3 POP POP JUMP JUMPDEST PUSH1 0x60 DUP2 PUSH2 0x158D DUP2 PUSH1 0x1F PUSH2 0x212F JUMP JUMPDEST LT ISZERO PUSH2 0x15CC JUMPI PUSH1 0x40 MLOAD PUSH3 0x461BCD PUSH1 0xE5 SHL DUP2 MSTORE PUSH1 0x20 PUSH1 0x4 DUP3 ADD MSTORE PUSH1 0xE PUSH1 0x24 DUP3 ADD MSTORE PUSH14 0x736C6963655F6F766572666C6F77 PUSH1 0x90 SHL PUSH1 0x44 DUP3 ADD MSTORE PUSH1 0x64 ADD PUSH2 0x621 JUMP JUMPDEST PUSH2 0x15D6 DUP3 DUP5 PUSH2 0x212F JUMP JUMPDEST DUP5 MLOAD LT ISZERO PUSH2 0x161A JUMPI PUSH1 0x40 MLOAD PUSH3 0x461BCD PUSH1 0xE5 SHL DUP2 MSTORE PUSH1 0x20 PUSH1 0x4 DUP3 ADD MSTORE PUSH1 0x11 PUSH1 0x24 DUP3 ADD MSTORE PUSH17 0x736C6963655F6F75744F66426F756E6473 PUSH1 0x78 SHL PUSH1 0x44 DUP3 ADD MSTORE PUSH1 0x64 ADD PUSH2 0x621 JUMP JUMPDEST PUSH1 0x60 DUP3 ISZERO DUP1 ISZERO PUSH2 0x1639 JUMPI PUSH1 0x40 MLOAD SWAP2 POP PUSH1 0x0 DUP3 MSTORE PUSH1 0x20 DUP3 ADD PUSH1 0x40 MSTORE PUSH2 0x1683 JUMP JUMPDEST PUSH1 0x40 MLOAD SWAP2 POP PUSH1 0x1F DUP5 AND DUP1 ISZERO PUSH1 0x20 MUL DUP2 DUP5 ADD ADD DUP6 DUP2 ADD DUP8 DUP4 ISZERO PUSH1 0x20 MUL DUP5 DUP12 ADD ADD ADD JUMPDEST DUP2 DUP4 LT ISZERO PUSH2 0x1672 JUMPI DUP1 MLOAD DUP4 MSTORE PUSH1 0x20 SWAP3 DUP4 ADD SWAP3 ADD PUSH2 0x165A JUMP JUMPDEST POP POP DUP6 DUP5 MSTORE PUSH1 0x1F ADD PUSH1 0x1F NOT AND PUSH1 0x40 MSTORE POP JUMPDEST POP SWAP5 SWAP4 POP POP POP POP JUMP JUMPDEST PUSH1 0x0 PUSH1 0x60 PUSH1 0x0 DUP1 PUSH1 0x0 DUP7 PUSH2 0xFFFF AND PUSH1 0x1 PUSH1 0x1 PUSH1 0x40 SHL SUB DUP2 GT ISZERO PUSH2 0x16B1 JUMPI PUSH2 0x16B1 PUSH2 0x19C9 JUMP JUMPDEST PUSH1 0x40 MLOAD SWAP1 DUP1 DUP3 MSTORE DUP1 PUSH1 0x1F ADD PUSH1 0x1F NOT AND PUSH1 0x20 ADD DUP3 ADD PUSH1 0x40 MSTORE DUP1 ISZERO PUSH2 0x16DB JUMPI PUSH1 0x20 DUP3 ADD DUP2 DUP1 CALLDATASIZE DUP4 CALLDATACOPY ADD SWAP1 POP JUMPDEST POP SWAP1 POP PUSH1 0x0 DUP1 DUP8 MLOAD PUSH1 0x20 DUP10 ADD PUSH1 0x0 DUP14 DUP14 CALL SWAP2 POP RETURNDATASIZE SWAP3 POP DUP7 DUP4 GT ISZERO PUSH2 0x16FD JUMPI DUP7 SWAP3 POP JUMPDEST DUP3 DUP2 MSTORE DUP3 PUSH1 0x0 PUSH1 0x20 DUP4 ADD RETURNDATACOPY SWAP1 SWAP9 SWAP1 SWAP8 POP SWAP6 POP POP POP POP POP POP JUMP JUMPDEST DUP2 DUP1 MLOAD SWAP1 PUSH1 0x20 ADD KECCAK256 PUSH1 0x5 PUSH1 0x0 DUP8 PUSH2 0xFFFF AND PUSH2 0xFFFF AND DUP2 MSTORE PUSH1 0x20 ADD SWAP1 DUP2 MSTORE PUSH1 0x20 ADD PUSH1 0x0 KECCAK256 DUP6 PUSH1 0x40 MLOAD PUSH2 0x1747 SWAP2 SWAP1 PUSH2 0x2142 JUMP JUMPDEST SWAP1 DUP2 MSTORE PUSH1 0x40 DUP1 MLOAD SWAP2 DUP3 SWAP1 SUB PUSH1 0x20 SWAP1 DUP2 ADD DUP4 KECCAK256 PUSH1 0x1 PUSH1 0x1 PUSH1 0x40 SHL SUB DUP9 AND PUSH1 0x0 SWAP1 DUP2 MSTORE SWAP2 MSTORE KECCAK256 SWAP2 SWAP1 SWAP2 SSTORE PUSH32 0xE183F33DE2837795525B4792CA4CD60535BD77C53B7E7030060BFCF5734D6B0C SWAP1 PUSH2 0x17A4 SWAP1 DUP8 SWAP1 DUP8 SWAP1 DUP8 SWAP1 DUP8 SWAP1 DUP8 SWAP1 PUSH2 0x215E JUMP JUMPDEST PUSH1 0x40 MLOAD DUP1 SWAP2 SUB SWAP1 LOG1 POP POP POP POP POP JUMP JUMPDEST PUSH2 0xFFFF DUP3 AND PUSH1 0x0 SWAP1 DUP2 MSTORE PUSH1 0x3 PUSH1 0x20 MSTORE PUSH1 0x40 DUP2 KECCAK256 SLOAD SWAP1 DUP2 SWAP1 SUB PUSH2 0x17D4 JUMPI POP PUSH2 0x2710 JUMPDEST DUP1 DUP3 GT ISZERO PUSH2 0x1824 JUMPI PUSH1 0x40 MLOAD PUSH3 0x461BCD PUSH1 0xE5 SHL DUP2 MSTORE PUSH1 0x20 PUSH1 0x4 DUP3 ADD DUP2 SWAP1 MSTORE PUSH1 0x24 DUP3 ADD MSTORE PUSH32 0x4C7A4170703A207061796C6F61642073697A6520697320746F6F206C61726765 PUSH1 0x44 DUP3 ADD MSTORE PUSH1 0x64 ADD PUSH2 0x621 JUMP JUMPDEST POP POP POP JUMP JUMPDEST DUP1 CALLDATALOAD PUSH2 0xFFFF DUP2 AND DUP2 EQ PUSH2 0x183B JUMPI PUSH1 0x0 DUP1 REVERT JUMPDEST SWAP2 SWAP1 POP JUMP JUMPDEST PUSH1 0x0 DUP1 DUP4 PUSH1 0x1F DUP5 ADD SLT PUSH2 0x1852 JUMPI PUSH1 0x0 DUP1 REVERT JUMPDEST POP DUP2 CALLDATALOAD PUSH1 0x1 PUSH1 0x1 PUSH1 0x40 SHL SUB DUP2 GT ISZERO PUSH2 0x1869 JUMPI PUSH1 0x0 DUP1 REVERT JUMPDEST PUSH1 0x20 DUP4 ADD SWAP2 POP DUP4 PUSH1 0x20 DUP3 DUP6 ADD ADD GT ISZERO PUSH2 0x1881 JUMPI PUSH1 0x0 DUP1 REVERT JUMPDEST SWAP3 POP SWAP3 SWAP1 POP JUMP JUMPDEST DUP1 CALLDATALOAD PUSH1 0x1 PUSH1 0x1 PUSH1 0x40 SHL SUB DUP2 AND DUP2 EQ PUSH2 0x183B JUMPI PUSH1 0x0 DUP1 REVERT JUMPDEST PUSH1 0x0 DUP1 PUSH1 0x0 DUP1 PUSH1 0x0 DUP1 PUSH1 0x80 DUP8 DUP10 SUB SLT ISZERO PUSH2 0x18B8 JUMPI PUSH1 0x0 DUP1 REVERT JUMPDEST PUSH2 0x18C1 DUP8 PUSH2 0x1829 JUMP JUMPDEST SWAP6 POP PUSH1 0x20 DUP8 ADD CALLDATALOAD PUSH1 0x1 PUSH1 0x1 PUSH1 0x40 SHL SUB DUP1 DUP3 GT ISZERO PUSH2 0x18DD JUMPI PUSH1 0x0 DUP1 REVERT JUMPDEST PUSH2 0x18E9 DUP11 DUP4 DUP12 ADD PUSH2 0x1840 JUMP JUMPDEST SWAP1 SWAP8 POP SWAP6 POP DUP6 SWAP2 POP PUSH2 0x18FD PUSH1 0x40 DUP11 ADD PUSH2 0x1888 JUMP JUMPDEST SWAP5 POP PUSH1 0x60 DUP10 ADD CALLDATALOAD SWAP2 POP DUP1 DUP3 GT ISZERO PUSH2 0x1913 JUMPI PUSH1 0x0 DUP1 REVERT JUMPDEST POP PUSH2 0x1920 DUP10 DUP3 DUP11 ADD PUSH2 0x1840 JUMP JUMPDEST SWAP8 SWAP11 SWAP7 SWAP10 POP SWAP5 SWAP8 POP SWAP3 SWAP6 SWAP4 SWAP5 SWAP3 POP POP POP JUMP JUMPDEST PUSH1 0x0 PUSH1 0x20 DUP3 DUP5 SUB SLT ISZERO PUSH2 0x1944 JUMPI PUSH1 0x0 DUP1 REVERT JUMPDEST PUSH2 0x9A4 DUP3 PUSH2 0x1829 JUMP JUMPDEST PUSH1 0x0 DUP1 PUSH1 0x40 DUP4 DUP6 SUB SLT ISZERO PUSH2 0x1960 JUMPI PUSH1 0x0 DUP1 REVERT JUMPDEST PUSH2 0x1969 DUP4 PUSH2 0x1829 JUMP JUMPDEST SWAP5 PUSH1 0x20 SWAP4 SWAP1 SWAP4 ADD CALLDATALOAD SWAP4 POP POP POP JUMP JUMPDEST PUSH1 0x0 DUP1 PUSH1 0x0 PUSH1 0x40 DUP5 DUP7 SUB SLT ISZERO PUSH2 0x198C JUMPI PUSH1 0x0 DUP1 REVERT JUMPDEST PUSH2 0x1995 DUP5 PUSH2 0x1829 JUMP JUMPDEST SWAP3 POP PUSH1 0x20 DUP5 ADD CALLDATALOAD PUSH1 0x1 PUSH1 0x1 PUSH1 0x40 SHL SUB DUP2 GT ISZERO PUSH2 0x19B0 JUMPI PUSH1 0x0 DUP1 REVERT JUMPDEST PUSH2 0x19BC DUP7 DUP3 DUP8 ADD PUSH2 0x1840 JUMP JUMPDEST SWAP5 SWAP8 SWAP1 SWAP7 POP SWAP4 SWAP5 POP POP POP POP JUMP JUMPDEST PUSH4 0x4E487B71 PUSH1 0xE0 SHL PUSH1 0x0 MSTORE PUSH1 0x41 PUSH1 0x4 MSTORE PUSH1 0x24 PUSH1 0x0 REVERT JUMPDEST PUSH1 0x40 MLOAD PUSH1 0x1F DUP3 ADD PUSH1 0x1F NOT AND DUP2 ADD PUSH1 0x1 PUSH1 0x1 PUSH1 0x40 SHL SUB DUP2 GT DUP3 DUP3 LT OR ISZERO PUSH2 0x1A07 JUMPI PUSH2 0x1A07 PUSH2 0x19C9 JUMP JUMPDEST PUSH1 0x40 MSTORE SWAP2 SWAP1 POP JUMP JUMPDEST PUSH1 0x0 PUSH1 0x1 PUSH1 0x1 PUSH1 0x40 SHL SUB DUP3 GT ISZERO PUSH2 0x1A28 JUMPI PUSH2 0x1A28 PUSH2 0x19C9 JUMP JUMPDEST POP PUSH1 0x1F ADD PUSH1 0x1F NOT AND PUSH1 0x20 ADD SWAP1 JUMP JUMPDEST PUSH1 0x0 PUSH2 0x1A49 PUSH2 0x1A44 DUP5 PUSH2 0x1A0F JUMP JUMPDEST PUSH2 0x19DF JUMP JUMPDEST SWAP1 POP DUP3 DUP2 MSTORE DUP4 DUP4 DUP4 ADD GT ISZERO PUSH2 0x1A5D JUMPI PUSH1 0x0 DUP1 REVERT JUMPDEST DUP3 DUP3 PUSH1 0x20 DUP4 ADD CALLDATACOPY PUSH1 0x0 PUSH1 0x20 DUP5 DUP4 ADD ADD MSTORE SWAP4 SWAP3 POP POP POP JUMP JUMPDEST PUSH1 0x0 DUP1 PUSH1 0x0 PUSH1 0x60 DUP5 DUP7 SUB SLT ISZERO PUSH2 0x1A89 JUMPI PUSH1 0x0 DUP1 REVERT JUMPDEST PUSH2 0x1A92 DUP5 PUSH2 0x1829 JUMP JUMPDEST SWAP3 POP PUSH1 0x20 DUP5 ADD CALLDATALOAD PUSH1 0x1 PUSH1 0x1 PUSH1 0x40 SHL SUB DUP2 GT ISZERO PUSH2 0x1AAD JUMPI PUSH1 0x0 DUP1 REVERT JUMPDEST DUP5 ADD PUSH1 0x1F DUP2 ADD DUP7 SGT PUSH2 0x1ABE JUMPI PUSH1 0x0 DUP1 REVERT JUMPDEST PUSH2 0x1ACD DUP7 DUP3 CALLDATALOAD PUSH1 0x20 DUP5 ADD PUSH2 0x1A36 JUMP JUMPDEST SWAP3 POP POP PUSH2 0x1ADC PUSH1 0x40 DUP6 ADD PUSH2 0x1888 JUMP JUMPDEST SWAP1 POP SWAP3 POP SWAP3 POP SWAP3 JUMP JUMPDEST DUP1 CALLDATALOAD PUSH1 0x1 PUSH1 0x1 PUSH1 0xA0 SHL SUB DUP2 AND DUP2 EQ PUSH2 0x183B JUMPI PUSH1 0x0 DUP1 REVERT JUMPDEST PUSH1 0x0 PUSH1 0x20 DUP3 DUP5 SUB SLT ISZERO PUSH2 0x1B0E JUMPI PUSH1 0x0 DUP1 REVERT JUMPDEST PUSH2 0x9A4 DUP3 PUSH2 0x1AE5 JUMP JUMPDEST PUSH1 0x0 PUSH1 0x20 DUP3 DUP5 SUB SLT ISZERO PUSH2 0x1B29 JUMPI PUSH1 0x0 DUP1 REVERT JUMPDEST DUP2 CALLDATALOAD PUSH1 0x1 PUSH1 0x1 PUSH1 0x40 SHL SUB DUP2 GT ISZERO PUSH2 0x1B3F JUMPI PUSH1 0x0 DUP1 REVERT JUMPDEST DUP3 ADD PUSH1 0x1F DUP2 ADD DUP5 SGT PUSH2 0x1B50 JUMPI PUSH1 0x0 DUP1 REVERT JUMPDEST PUSH2 0x1B5F DUP5 DUP3 CALLDATALOAD PUSH1 0x20 DUP5 ADD PUSH2 0x1A36 JUMP JUMPDEST SWAP5 SWAP4 POP POP POP POP JUMP JUMPDEST PUSH1 0x0 JUMPDEST DUP4 DUP2 LT ISZERO PUSH2 0x1B82 JUMPI DUP2 DUP2 ADD MLOAD DUP4 DUP3 ADD MSTORE PUSH1 0x20 ADD PUSH2 0x1B6A JUMP JUMPDEST POP POP PUSH1 0x0 SWAP2 ADD MSTORE JUMP JUMPDEST PUSH1 0x0 DUP2 MLOAD DUP1 DUP5 MSTORE PUSH2 0x1BA3 DUP2 PUSH1 0x20 DUP7 ADD PUSH1 0x20 DUP7 ADD PUSH2 0x1B67 JUMP JUMPDEST PUSH1 0x1F ADD PUSH1 0x1F NOT AND SWAP3 SWAP1 SWAP3 ADD PUSH1 0x20 ADD SWAP3 SWAP2 POP POP JUMP JUMPDEST PUSH1 0x20 DUP2 MSTORE PUSH1 0x0 PUSH2 0x9A4 PUSH1 0x20 DUP4 ADD DUP5 PUSH2 0x1B8B JUMP JUMPDEST PUSH1 0x0 DUP1 PUSH1 0x40 DUP4 DUP6 SUB SLT ISZERO PUSH2 0x1BDD JUMPI PUSH1 0x0 DUP1 REVERT JUMPDEST PUSH2 0x1BE6 DUP4 PUSH2 0x1829 JUMP JUMPDEST SWAP2 POP PUSH2 0x1BF4 PUSH1 0x20 DUP5 ADD PUSH2 0x1829 JUMP JUMPDEST SWAP1 POP SWAP3 POP SWAP3 SWAP1 POP JUMP JUMPDEST PUSH1 0x0 DUP1 PUSH1 0x0 DUP1 PUSH1 0x0 PUSH1 0x80 DUP7 DUP9 SUB SLT ISZERO PUSH2 0x1C15 JUMPI PUSH1 0x0 DUP1 REVERT JUMPDEST PUSH2 0x1C1E DUP7 PUSH2 0x1829 JUMP JUMPDEST SWAP5 POP PUSH2 0x1C2C PUSH1 0x20 DUP8 ADD PUSH2 0x1829 JUMP JUMPDEST SWAP4 POP PUSH1 0x40 DUP7 ADD CALLDATALOAD SWAP3 POP PUSH1 0x60 DUP7 ADD CALLDATALOAD PUSH1 0x1 PUSH1 0x1 PUSH1 0x40 SHL SUB DUP2 GT ISZERO PUSH2 0x1C4E JUMPI PUSH1 0x0 DUP1 REVERT JUMPDEST PUSH2 0x1C5A DUP9 DUP3 DUP10 ADD PUSH2 0x1840 JUMP JUMPDEST SWAP7 SWAP10 SWAP6 SWAP9 POP SWAP4 SWAP7 POP SWAP3 SWAP5 SWAP4 SWAP3 POP POP POP JUMP JUMPDEST PUSH1 0x0 DUP1 PUSH1 0x0 PUSH1 0x60 DUP5 DUP7 SUB SLT ISZERO PUSH2 0x1C80 JUMPI PUSH1 0x0 DUP1 REVERT JUMPDEST PUSH2 0x1C89 DUP5 PUSH2 0x1829 JUMP JUMPDEST SWAP3 POP PUSH2 0x1C97 PUSH1 0x20 DUP6 ADD PUSH2 0x1829 JUMP JUMPDEST SWAP2 POP PUSH1 0x40 DUP5 ADD CALLDATALOAD SWAP1 POP SWAP3 POP SWAP3 POP SWAP3 JUMP JUMPDEST PUSH1 0x0 DUP1 PUSH1 0x0 DUP1 PUSH1 0x80 DUP6 DUP8 SUB SLT ISZERO PUSH2 0x1CBD JUMPI PUSH1 0x0 DUP1 REVERT JUMPDEST PUSH2 0x1CC6 DUP6 PUSH2 0x1829 JUMP JUMPDEST SWAP4 POP PUSH2 0x1CD4 PUSH1 0x20 DUP7 ADD PUSH2 0x1829 JUMP JUMPDEST SWAP3 POP PUSH2 0x1CE2 PUSH1 0x40 DUP7 ADD PUSH2 0x1AE5 JUMP JUMPDEST SWAP4 SWAP7 SWAP3 SWAP6 POP SWAP3 SWAP4 PUSH1 0x60 ADD CALLDATALOAD SWAP3 POP POP JUMP JUMPDEST PUSH1 0x1 DUP2 DUP2 SHR SWAP1 DUP3 AND DUP1 PUSH2 0x1D06 JUMPI PUSH1 0x7F DUP3 AND SWAP2 POP JUMPDEST PUSH1 0x20 DUP3 LT DUP2 SUB PUSH2 0x1D26 JUMPI PUSH4 0x4E487B71 PUSH1 0xE0 SHL PUSH1 0x0 MSTORE PUSH1 0x22 PUSH1 0x4 MSTORE PUSH1 0x24 PUSH1 0x0 REVERT JUMPDEST POP SWAP2 SWAP1 POP JUMP JUMPDEST DUP2 DUP4 DUP3 CALLDATACOPY PUSH1 0x0 SWAP2 ADD SWAP1 DUP2 MSTORE SWAP2 SWAP1 POP JUMP JUMPDEST DUP2 DUP4 MSTORE DUP2 DUP2 PUSH1 0x20 DUP6 ADD CALLDATACOPY POP PUSH1 0x0 DUP3 DUP3 ADD PUSH1 0x20 SWAP1 DUP2 ADD SWAP2 SWAP1 SWAP2 MSTORE PUSH1 0x1F SWAP1 SWAP2 ADD PUSH1 0x1F NOT AND SWAP1 SWAP2 ADD ADD SWAP1 JUMP JUMPDEST PUSH2 0xFFFF DUP5 AND DUP2 MSTORE PUSH1 0x40 PUSH1 0x20 DUP3 ADD MSTORE PUSH1 0x0 PUSH2 0x12BA PUSH1 0x40 DUP4 ADD DUP5 DUP7 PUSH2 0x1D3C JUMP JUMPDEST PUSH1 0x1F DUP3 GT ISZERO PUSH2 0x1824 JUMPI PUSH1 0x0 DUP2 PUSH1 0x0 MSTORE PUSH1 0x20 PUSH1 0x0 KECCAK256 PUSH1 0x1F DUP6 ADD PUSH1 0x5 SHR DUP2 ADD PUSH1 0x20 DUP7 LT ISZERO PUSH2 0x1DAC JUMPI POP DUP1 JUMPDEST PUSH1 0x1F DUP6 ADD PUSH1 0x5 SHR DUP3 ADD SWAP2 POP JUMPDEST DUP2 DUP2 LT ISZERO PUSH2 0xBAE JUMPI DUP3 DUP2 SSTORE PUSH1 0x1 ADD PUSH2 0x1DB8 JUMP JUMPDEST DUP2 MLOAD PUSH1 0x1 PUSH1 0x1 PUSH1 0x40 SHL SUB DUP2 GT ISZERO PUSH2 0x1DE4 JUMPI PUSH2 0x1DE4 PUSH2 0x19C9 JUMP JUMPDEST PUSH2 0x1DF8 DUP2 PUSH2 0x1DF2 DUP5 SLOAD PUSH2 0x1CF2 JUMP JUMPDEST DUP5 PUSH2 0x1D83 JUMP JUMPDEST PUSH1 0x20 DUP1 PUSH1 0x1F DUP4 GT PUSH1 0x1 DUP2 EQ PUSH2 0x1E2D JUMPI PUSH1 0x0 DUP5 ISZERO PUSH2 0x1E15 JUMPI POP DUP6 DUP4 ADD MLOAD JUMPDEST PUSH1 0x0 NOT PUSH1 0x3 DUP7 SWAP1 SHL SHR NOT AND PUSH1 0x1 DUP6 SWAP1 SHL OR DUP6 SSTORE PUSH2 0xBAE JUMP JUMPDEST PUSH1 0x0 DUP6 DUP2 MSTORE PUSH1 0x20 DUP2 KECCAK256 PUSH1 0x1F NOT DUP7 AND SWAP2 JUMPDEST DUP3 DUP2 LT ISZERO PUSH2 0x1E5C JUMPI DUP9 DUP7 ADD MLOAD DUP3 SSTORE SWAP5 DUP5 ADD SWAP5 PUSH1 0x1 SWAP1 SWAP2 ADD SWAP1 DUP5 ADD PUSH2 0x1E3D JUMP JUMPDEST POP DUP6 DUP3 LT ISZERO PUSH2 0x1E7A JUMPI DUP8 DUP6 ADD MLOAD PUSH1 0x0 NOT PUSH1 0x3 DUP9 SWAP1 SHL PUSH1 0xF8 AND SHR NOT AND DUP2 SSTORE JUMPDEST POP POP POP POP POP PUSH1 0x1 SWAP1 DUP2 SHL ADD SWAP1 SSTORE POP JUMP JUMPDEST PUSH4 0x4E487B71 PUSH1 0xE0 SHL PUSH1 0x0 MSTORE PUSH1 0x11 PUSH1 0x4 MSTORE PUSH1 0x24 PUSH1 0x0 REVERT JUMPDEST DUP2 DUP2 SUB DUP2 DUP2 GT ISZERO PUSH2 0x1EB3 JUMPI PUSH2 0x1EB3 PUSH2 0x1E8A JUMP JUMPDEST SWAP3 SWAP2 POP POP JUMP JUMPDEST DUP3 DUP5 DUP3 CALLDATACOPY PUSH1 0x60 SWAP2 SWAP1 SWAP2 SHL PUSH12 0xFFFFFFFFFFFFFFFFFFFFFFFF NOT AND SWAP2 ADD SWAP1 DUP2 MSTORE PUSH1 0x14 ADD SWAP2 SWAP1 POP JUMP JUMPDEST PUSH1 0x0 PUSH2 0xFFFF DUP1 DUP9 AND DUP4 MSTORE DUP1 DUP8 AND PUSH1 0x20 DUP5 ADD MSTORE POP DUP5 PUSH1 0x40 DUP4 ADD MSTORE PUSH1 0x80 PUSH1 0x60 DUP4 ADD MSTORE PUSH2 0x1F0D PUSH1 0x80 DUP4 ADD DUP5 DUP7 PUSH2 0x1D3C JUMP JUMPDEST SWAP8 SWAP7 POP POP POP POP POP POP POP JUMP JUMPDEST PUSH2 0xFFFF DUP7 AND DUP2 MSTORE PUSH1 0x80 PUSH1 0x20 DUP3 ADD MSTORE PUSH1 0x0 PUSH2 0x1F36 PUSH1 0x80 DUP4 ADD DUP7 DUP9 PUSH2 0x1D3C JUMP JUMPDEST PUSH1 0x1 PUSH1 0x1 PUSH1 0x40 SHL SUB SWAP5 SWAP1 SWAP5 AND PUSH1 0x40 DUP4 ADD MSTORE POP PUSH1 0x60 ADD MSTORE SWAP4 SWAP3 POP POP POP JUMP JUMPDEST PUSH1 0x1 PUSH1 0x1 PUSH1 0x40 SHL SUB DUP4 GT ISZERO PUSH2 0x1F6A JUMPI PUSH2 0x1F6A PUSH2 0x19C9 JUMP JUMPDEST PUSH2 0x1F7E DUP4 PUSH2 0x1F78 DUP4 SLOAD PUSH2 0x1CF2 JUMP JUMPDEST DUP4 PUSH2 0x1D83 JUMP JUMPDEST PUSH1 0x0 PUSH1 0x1F DUP5 GT PUSH1 0x1 DUP2 EQ PUSH2 0x1FB2 JUMPI PUSH1 0x0 DUP6 ISZERO PUSH2 0x1F9A JUMPI POP DUP4 DUP3 ADD CALLDATALOAD JUMPDEST PUSH1 0x0 NOT PUSH1 0x3 DUP8 SWAP1 SHL SHR NOT AND PUSH1 0x1 DUP7 SWAP1 SHL OR DUP4 SSTORE PUSH2 0x860 JUMP JUMPDEST PUSH1 0x0 DUP4 DUP2 MSTORE PUSH1 0x20 SWAP1 KECCAK256 PUSH1 0x1F NOT DUP7 AND SWAP1 DUP4 JUMPDEST DUP3 DUP2 LT ISZERO PUSH2 0x1FE3 JUMPI DUP7 DUP6 ADD CALLDATALOAD DUP3 SSTORE PUSH1 0x20 SWAP5 DUP6 ADD SWAP5 PUSH1 0x1 SWAP1 SWAP3 ADD SWAP2 ADD PUSH2 0x1FC3 JUMP JUMPDEST POP DUP7 DUP3 LT ISZERO PUSH2 0x2000 JUMPI PUSH1 0x0 NOT PUSH1 0xF8 DUP9 PUSH1 0x3 SHL AND SHR NOT DUP5 DUP8 ADD CALLDATALOAD AND DUP2 SSTORE JUMPDEST POP POP PUSH1 0x1 DUP6 PUSH1 0x1 SHL ADD DUP4 SSTORE POP POP POP POP POP JUMP JUMPDEST PUSH1 0x0 PUSH2 0x2020 PUSH2 0x1A44 DUP5 PUSH2 0x1A0F JUMP JUMPDEST SWAP1 POP DUP3 DUP2 MSTORE DUP4 DUP4 DUP4 ADD GT ISZERO PUSH2 0x2034 JUMPI PUSH1 0x0 DUP1 REVERT JUMPDEST PUSH2 0x9A4 DUP4 PUSH1 0x20 DUP4 ADD DUP5 PUSH2 0x1B67 JUMP JUMPDEST PUSH1 0x0 PUSH1 0x20 DUP3 DUP5 SUB SLT ISZERO PUSH2 0x2054 JUMPI PUSH1 0x0 DUP1 REVERT JUMPDEST DUP2 MLOAD PUSH1 0x1 PUSH1 0x1 PUSH1 0x40 SHL SUB DUP2 GT ISZERO PUSH2 0x206A JUMPI PUSH1 0x0 DUP1 REVERT JUMPDEST DUP3 ADD PUSH1 0x1F DUP2 ADD DUP5 SGT PUSH2 0x207B JUMPI PUSH1 0x0 DUP1 REVERT JUMPDEST PUSH2 0x1B5F DUP5 DUP3 MLOAD PUSH1 0x20 DUP5 ADD PUSH2 0x2012 JUMP JUMPDEST PUSH2 0xFFFF DUP6 AND DUP2 MSTORE PUSH1 0x80 PUSH1 0x20 DUP3 ADD MSTORE PUSH1 0x0 PUSH2 0x20A7 PUSH1 0x80 DUP4 ADD DUP7 PUSH2 0x1B8B JUMP JUMPDEST PUSH1 0x1 PUSH1 0x1 PUSH1 0x40 SHL SUB DUP6 AND PUSH1 0x40 DUP5 ADD MSTORE DUP3 DUP2 SUB PUSH1 0x60 DUP5 ADD MSTORE PUSH2 0x1F0D DUP2 DUP6 PUSH2 0x1B8B JUMP JUMPDEST PUSH2 0xFFFF DUP8 AND DUP2 MSTORE PUSH1 0xC0 PUSH1 0x20 DUP3 ADD MSTORE PUSH1 0x0 PUSH2 0x20E5 PUSH1 0xC0 DUP4 ADD DUP9 PUSH2 0x1B8B JUMP JUMPDEST DUP3 DUP2 SUB PUSH1 0x40 DUP5 ADD MSTORE PUSH2 0x20F7 DUP2 DUP9 PUSH2 0x1B8B JUMP JUMPDEST PUSH1 0x1 PUSH1 0x1 PUSH1 0xA0 SHL SUB DUP8 DUP2 AND PUSH1 0x60 DUP7 ADD MSTORE DUP7 AND PUSH1 0x80 DUP6 ADD MSTORE DUP4 DUP2 SUB PUSH1 0xA0 DUP6 ADD MSTORE SWAP1 POP PUSH2 0x2122 DUP2 DUP6 PUSH2 0x1B8B JUMP JUMPDEST SWAP10 SWAP9 POP POP POP POP POP POP POP POP POP JUMP JUMPDEST DUP1 DUP3 ADD DUP1 DUP3 GT ISZERO PUSH2 0x1EB3 JUMPI PUSH2 0x1EB3 PUSH2 0x1E8A JUMP JUMPDEST PUSH1 0x0 DUP3 MLOAD PUSH2 0x2154 DUP2 DUP5 PUSH1 0x20 DUP8 ADD PUSH2 0x1B67 JUMP JUMPDEST SWAP2 SWAP1 SWAP2 ADD SWAP3 SWAP2 POP POP JUMP JUMPDEST PUSH2 0xFFFF DUP7 AND DUP2 MSTORE PUSH1 0xA0 PUSH1 0x20 DUP3 ADD MSTORE PUSH1 0x0 PUSH2 0x217B PUSH1 0xA0 DUP4 ADD DUP8 PUSH2 0x1B8B JUMP JUMPDEST PUSH1 0x1 PUSH1 0x1 PUSH1 0x40 SHL SUB DUP7 AND PUSH1 0x40 DUP5 ADD MSTORE DUP3 DUP2 SUB PUSH1 0x60 DUP5 ADD MSTORE PUSH2 0x219C DUP2 DUP7 PUSH2 0x1B8B JUMP JUMPDEST SWAP1 POP DUP3 DUP2 SUB PUSH1 0x80 DUP5 ADD MSTORE PUSH2 0x21B0 DUP2 DUP6 PUSH2 0x1B8B JUMP JUMPDEST SWAP9 SWAP8 POP POP POP POP POP POP POP POP JUMP INVALID LOG2 PUSH5 0x6970667358 0x22 SLT KECCAK256 0x4C EXTCODEHASH 0x26 0xBE 0xDE 0xB1 ORIGIN POP MSTORE8 SELFDESTRUCT PUSH27 0x42562C4F3BBE854B96D4D1E24D6324D1B12F89C12C64736F6C6343 STOP ADDMOD AND STOP CALLER "
				},
				"gasEstimates": {
					"creation": {
						"codeDepositCost": "1738000",
						"executionCost": "infinite",
						"totalCost": "infinite"
					},
					"external": {
						"DEFAULT_PAYLOAD_SIZE_LIMIT()": "240",
						"data()": "infinite",
						"failedMessages(uint16,bytes,uint64)": "infinite",
						"forceResumeReceive(uint16,bytes)": "infinite",
						"getConfig(uint16,uint16,address,uint256)": "infinite",
						"getTrustedRemoteAddress(uint16)": "infinite",
						"isTrustedRemote(uint16,bytes)": "infinite",
						"lzEndpoint()": "infinite",
						"lzReceive(uint16,bytes,uint64,bytes)": "infinite",
						"minDstGasLookup(uint16,uint16)": "infinite",
						"nonblockingLzReceive(uint16,bytes,uint64,bytes)": "infinite",
						"owner()": "2388",
						"payloadSizeLimitLookup(uint16)": "2597",
						"precrime()": "2427",
						"renounceOwnership()": "infinite",
						"retryMessage(uint16,bytes,uint64,bytes)": "infinite",
						"send(string)": "infinite",
						"setConfig(uint16,uint16,uint256,bytes)": "infinite",
						"setMinDstGas(uint16,uint16,uint256)": "infinite",
						"setPayloadSizeLimit(uint16,uint256)": "24747",
						"setPrecrime(address)": "27899",
						"setReceiveVersion(uint16)": "infinite",
						"setSendVersion(uint16)": "infinite",
						"setTrustedRemote(uint16,bytes)": "infinite",
						"setTrustedRemoteAddress(uint16,bytes)": "infinite",
						"transferOwnership(address)": "28421",
						"trustAddress(address)": "infinite",
						"trustedRemoteLookup(uint16)": "infinite"
					},
					"internal": {
						"_nonblockingLzReceive(uint16,bytes memory,uint64,bytes memory)": "infinite"
					}
				},
				"methodIdentifiers": {
					"DEFAULT_PAYLOAD_SIZE_LIMIT()": "c4461834",
					"data()": "73d4a13a",
					"failedMessages(uint16,bytes,uint64)": "5b8c41e6",
					"forceResumeReceive(uint16,bytes)": "42d65a8d",
					"getConfig(uint16,uint16,address,uint256)": "f5ecbdbc",
					"getTrustedRemoteAddress(uint16)": "9f38369a",
					"isTrustedRemote(uint16,bytes)": "3d8b38f6",
					"lzEndpoint()": "b353aaa7",
					"lzReceive(uint16,bytes,uint64,bytes)": "001d3567",
					"minDstGasLookup(uint16,uint16)": "8cfd8f5c",
					"nonblockingLzReceive(uint16,bytes,uint64,bytes)": "66ad5c8a",
					"owner()": "8da5cb5b",
					"payloadSizeLimitLookup(uint16)": "3f1f4fa4",
					"precrime()": "950c8a74",
					"renounceOwnership()": "715018a6",
					"retryMessage(uint16,bytes,uint64,bytes)": "d1deba1f",
					"send(string)": "66792ba1",
					"setConfig(uint16,uint16,uint256,bytes)": "cbed8b9c",
					"setMinDstGas(uint16,uint16,uint256)": "df2a5b3b",
					"setPayloadSizeLimit(uint16,uint256)": "0df37483",
					"setPrecrime(address)": "baf3292d",
					"setReceiveVersion(uint16)": "10ddb137",
					"setSendVersion(uint16)": "07e0db17",
					"setTrustedRemote(uint16,bytes)": "eb8d72b7",
					"setTrustedRemoteAddress(uint16,bytes)": "a6c3d165",
					"transferOwnership(address)": "f2fde38b",
					"trustAddress(address)": "5cdf1649",
					"trustedRemoteLookup(uint16)": "7533d788"
				}
			},
			"storageLayout": {
				"storage": [
					{
						"astId": 8,
						"contract": "LayerZeroTest.sol:LayerZeroTest",
						"label": "_owner",
						"offset": 0,
						"slot": "0",
						"type": "t_address"
					},
					{
						"astId": 742,
						"contract": "LayerZeroTest.sol:LayerZeroTest",
						"label": "trustedRemoteLookup",
						"offset": 0,
						"slot": "1",
						"type": "t_mapping(t_uint16,t_bytes_storage)"
					},
					{
						"astId": 748,
						"contract": "LayerZeroTest.sol:LayerZeroTest",
						"label": "minDstGasLookup",
						"offset": 0,
						"slot": "2",
						"type": "t_mapping(t_uint16,t_mapping(t_uint16,t_uint256))"
					},
					{
						"astId": 752,
						"contract": "LayerZeroTest.sol:LayerZeroTest",
						"label": "payloadSizeLimitLookup",
						"offset": 0,
						"slot": "3",
						"type": "t_mapping(t_uint16,t_uint256)"
					},
					{
						"astId": 754,
						"contract": "LayerZeroTest.sol:LayerZeroTest",
						"label": "precrime",
						"offset": 0,
						"slot": "4",
						"type": "t_address"
					},
					{
						"astId": 1284,
						"contract": "LayerZeroTest.sol:LayerZeroTest",
						"label": "failedMessages",
						"offset": 0,
						"slot": "5",
						"type": "t_mapping(t_uint16,t_mapping(t_bytes_memory_ptr,t_mapping(t_uint64,t_bytes32)))"
					},
					{
						"astId": 177,
						"contract": "LayerZeroTest.sol:LayerZeroTest",
						"label": "data",
						"offset": 0,
						"slot": "6",
						"type": "t_string_storage"
					},
					{
						"astId": 179,
						"contract": "LayerZeroTest.sol:LayerZeroTest",
						"label": "destChainId",
						"offset": 0,
						"slot": "7",
						"type": "t_uint16"
					}
				],
				"types": {
					"t_address": {
						"encoding": "inplace",
						"label": "address",
						"numberOfBytes": "20"
					},
					"t_bytes32": {
						"encoding": "inplace",
						"label": "bytes32",
						"numberOfBytes": "32"
					},
					"t_bytes_memory_ptr": {
						"encoding": "bytes",
						"label": "bytes",
						"numberOfBytes": "32"
					},
					"t_bytes_storage": {
						"encoding": "bytes",
						"label": "bytes",
						"numberOfBytes": "32"
					},
					"t_mapping(t_bytes_memory_ptr,t_mapping(t_uint64,t_bytes32))": {
						"encoding": "mapping",
						"key": "t_bytes_memory_ptr",
						"label": "mapping(bytes => mapping(uint64 => bytes32))",
						"numberOfBytes": "32",
						"value": "t_mapping(t_uint64,t_bytes32)"
					},
					"t_mapping(t_uint16,t_bytes_storage)": {
						"encoding": "mapping",
						"key": "t_uint16",
						"label": "mapping(uint16 => bytes)",
						"numberOfBytes": "32",
						"value": "t_bytes_storage"
					},
					"t_mapping(t_uint16,t_mapping(t_bytes_memory_ptr,t_mapping(t_uint64,t_bytes32)))": {
						"encoding": "mapping",
						"key": "t_uint16",
						"label": "mapping(uint16 => mapping(bytes => mapping(uint64 => bytes32)))",
						"numberOfBytes": "32",
						"value": "t_mapping(t_bytes_memory_ptr,t_mapping(t_uint64,t_bytes32))"
					},
					"t_mapping(t_uint16,t_mapping(t_uint16,t_uint256))": {
						"encoding": "mapping",
						"key": "t_uint16",
						"label": "mapping(uint16 => mapping(uint16 => uint256))",
						"numberOfBytes": "32",
						"value": "t_mapping(t_uint16,t_uint256)"
					},
					"t_mapping(t_uint16,t_uint256)": {
						"encoding": "mapping",
						"key": "t_uint16",
						"label": "mapping(uint16 => uint256)",
						"numberOfBytes": "32",
						"value": "t_uint256"
					},
					"t_mapping(t_uint64,t_bytes32)": {
						"encoding": "mapping",
						"key": "t_uint64",
						"label": "mapping(uint64 => bytes32)",
						"numberOfBytes": "32",
						"value": "t_bytes32"
					},
					"t_string_storage": {
						"encoding": "bytes",
						"label": "string",
						"numberOfBytes": "32"
					},
					"t_uint16": {
						"encoding": "inplace",
						"label": "uint16",
						"numberOfBytes": "2"
					},
					"t_uint256": {
						"encoding": "inplace",
						"label": "uint256",
						"numberOfBytes": "32"
					},
					"t_uint64": {
						"encoding": "inplace",
						"label": "uint64",
						"numberOfBytes": "8"
					}
				}
			},
			"userdoc": {
				"kind": "user",
				"methods": {},
				"version": 1
			}
		}
	}
}